{
	"nftmarket/dex/pdex.sol": {
		"ArbitrageSimulator": {
			"abi": [
				{
					"inputs": [
						{
							"internalType": "address",
							"name": "_pair1",
							"type": "address"
						},
						{
							"internalType": "address",
							"name": "_pair2",
							"type": "address"
						}
					],
					"stateMutability": "nonpayable",
					"type": "constructor"
				},
				{
					"inputs": [
						{
							"internalType": "address",
							"name": "target",
							"type": "address"
						}
					],
					"name": "AddressEmptyCode",
					"type": "error"
				},
				{
					"inputs": [
						{
							"internalType": "address",
							"name": "account",
							"type": "address"
						}
					],
					"name": "AddressInsufficientBalance",
					"type": "error"
				},
				{
					"inputs": [],
					"name": "FailedInnerCall",
					"type": "error"
				},
				{
					"inputs": [
						{
							"internalType": "address",
							"name": "owner",
							"type": "address"
						}
					],
					"name": "OwnableInvalidOwner",
					"type": "error"
				},
				{
					"inputs": [
						{
							"internalType": "address",
							"name": "account",
							"type": "address"
						}
					],
					"name": "OwnableUnauthorizedAccount",
					"type": "error"
				},
				{
					"inputs": [
						{
							"internalType": "address",
							"name": "token",
							"type": "address"
						}
					],
					"name": "SafeERC20FailedOperation",
					"type": "error"
				},
				{
					"anonymous": false,
					"inputs": [
						{
							"indexed": false,
							"internalType": "address",
							"name": "user",
							"type": "address"
						},
						{
							"indexed": false,
							"internalType": "uint256",
							"name": "profit",
							"type": "uint256"
						}
					],
					"name": "ArbitrageExecuted",
					"type": "event"
				},
				{
					"anonymous": false,
					"inputs": [
						{
							"indexed": true,
							"internalType": "address",
							"name": "previousOwner",
							"type": "address"
						},
						{
							"indexed": true,
							"internalType": "address",
							"name": "newOwner",
							"type": "address"
						}
					],
					"name": "OwnershipTransferred",
					"type": "event"
				},
				{
					"inputs": [],
					"name": "checkArbitrageOpportunity",
					"outputs": [
						{
							"internalType": "uint256",
							"name": "potentialProfit",
							"type": "uint256"
						}
					],
					"stateMutability": "view",
					"type": "function"
				},
				{
					"inputs": [],
					"name": "dexPair1",
					"outputs": [
						{
							"internalType": "address",
							"name": "",
							"type": "address"
						}
					],
					"stateMutability": "view",
					"type": "function"
				},
				{
					"inputs": [],
					"name": "dexPair2",
					"outputs": [
						{
							"internalType": "address",
							"name": "",
							"type": "address"
						}
					],
					"stateMutability": "view",
					"type": "function"
				},
				{
					"inputs": [
						{
							"internalType": "uint256",
							"name": "amount",
							"type": "uint256"
						}
					],
					"name": "executeArbitrage",
					"outputs": [],
					"stateMutability": "nonpayable",
					"type": "function"
				},
				{
					"inputs": [
						{
							"internalType": "address",
							"name": "",
							"type": "address"
						}
					],
					"name": "executions",
					"outputs": [
						{
							"internalType": "uint256",
							"name": "",
							"type": "uint256"
						}
					],
					"stateMutability": "view",
					"type": "function"
				},
				{
					"inputs": [
						{
							"internalType": "address",
							"name": "user",
							"type": "address"
						}
					],
					"name": "getExecutionCount",
					"outputs": [
						{
							"internalType": "uint256",
							"name": "",
							"type": "uint256"
						}
					],
					"stateMutability": "view",
					"type": "function"
				},
				{
					"inputs": [],
					"name": "minProfit",
					"outputs": [
						{
							"internalType": "uint256",
							"name": "",
							"type": "uint256"
						}
					],
					"stateMutability": "view",
					"type": "function"
				},
				{
					"inputs": [],
					"name": "owner",
					"outputs": [
						{
							"internalType": "address",
							"name": "",
							"type": "address"
						}
					],
					"stateMutability": "view",
					"type": "function"
				},
				{
					"inputs": [],
					"name": "renounceOwnership",
					"outputs": [],
					"stateMutability": "nonpayable",
					"type": "function"
				},
				{
					"inputs": [],
					"name": "tokenA",
					"outputs": [
						{
							"internalType": "contract IERC20",
							"name": "",
							"type": "address"
						}
					],
					"stateMutability": "view",
					"type": "function"
				},
				{
					"inputs": [],
					"name": "tokenB",
					"outputs": [
						{
							"internalType": "contract IERC20",
							"name": "",
							"type": "address"
						}
					],
					"stateMutability": "view",
					"type": "function"
				},
				{
					"inputs": [
						{
							"internalType": "address",
							"name": "newOwner",
							"type": "address"
						}
					],
					"name": "transferOwnership",
					"outputs": [],
					"stateMutability": "nonpayable",
					"type": "function"
				},
				{
					"inputs": [
						{
							"internalType": "address",
							"name": "sender",
							"type": "address"
						},
						{
							"internalType": "uint256",
							"name": "amount0",
							"type": "uint256"
						},
						{
							"internalType": "uint256",
							"name": "amount1",
							"type": "uint256"
						},
						{
							"internalType": "bytes",
							"name": "data",
							"type": "bytes"
						}
					],
					"name": "uniswapV2Call",
					"outputs": [],
					"stateMutability": "nonpayable",
					"type": "function"
				},
				{
					"inputs": [
						{
							"internalType": "uint256",
							"name": "newMin",
							"type": "uint256"
						}
					],
					"name": "updateMinProfit",
					"outputs": [],
					"stateMutability": "nonpayable",
					"type": "function"
				}
			],
			"devdoc": {
				"errors": {
					"AddressEmptyCode(address)": [
						{
							"details": "There's no code at `target` (it is not a contract)."
						}
					],
					"AddressInsufficientBalance(address)": [
						{
							"details": "The ETH balance of the account is not enough to perform the operation."
						}
					],
					"FailedInnerCall()": [
						{
							"details": "A call to an address target failed. The target may have reverted."
						}
					],
					"OwnableInvalidOwner(address)": [
						{
							"details": "The owner is not a valid owner account. (eg. `address(0)`)"
						}
					],
					"OwnableUnauthorizedAccount(address)": [
						{
							"details": "The caller account is not authorized to perform an operation."
						}
					],
					"SafeERC20FailedOperation(address)": [
						{
							"details": "An operation with an ERC20 token failed."
						}
					]
				},
				"kind": "dev",
				"methods": {
					"owner()": {
						"details": "Returns the address of the current owner."
					},
					"renounceOwnership()": {
						"details": "Leaves the contract without owner. It will not be possible to call `onlyOwner` functions. Can only be called by the current owner. NOTE: Renouncing ownership will leave the contract without an owner, thereby disabling any functionality that is only available to the owner."
					},
					"transferOwnership(address)": {
						"details": "Transfers ownership of the contract to a new account (`newOwner`). Can only be called by the current owner."
					}
				},
				"version": 1
			},
			"evm": {
				"assembly": "    /* \"nftmarket/dex/pdex.sol\":865:3106  contract ArbitrageSimulator is Ownable {... */\n  mstore(0x40, 0x80)\n    /* \"nftmarket/dex/pdex.sol\":1118:1125  1 ether */\n  0x0de0b6b3a7640000\n    /* \"nftmarket/dex/pdex.sol\":1091:1125  uint256 public minProfit = 1 ether */\n  0x05\n  sstore\n    /* \"nftmarket/dex/pdex.sol\":1248:1494  constructor(address _pair1, address _pair2) Ownable(msg.sender) {... */\n  callvalue\n  dup1\n  iszero\n  tag_1\n  jumpi\n  revert(0x00, 0x00)\ntag_1:\n  pop\n  mload(0x40)\n  sub(codesize, bytecodeSize)\n  dup1\n  bytecodeSize\n  dup4\n  codecopy\n  dup2\n  dup2\n  add\n  0x40\n  mstore\n  dup2\n  add\n  swap1\n  tag_2\n  swap2\n  swap1\n  tag_3\n  jump\t// in\ntag_2:\n    /* \"nftmarket/dex/pdex.sol\":1300:1310  msg.sender */\n  caller\n    /* \"https://github.com/OpenZeppelin/openzeppelin-contracts/blob/v5.0.2/contracts/access/Ownable.sol\":1297:1298  0 */\n  0x00\n    /* \"https://github.com/OpenZeppelin/openzeppelin-contracts/blob/v5.0.2/contracts/access/Ownable.sol\":1273:1299  initialOwner == address(0) */\n  0xffffffffffffffffffffffffffffffffffffffff\n  and\n    /* \"https://github.com/OpenZeppelin/openzeppelin-contracts/blob/v5.0.2/contracts/access/Ownable.sol\":1273:1285  initialOwner */\n  dup2\n    /* \"https://github.com/OpenZeppelin/openzeppelin-contracts/blob/v5.0.2/contracts/access/Ownable.sol\":1273:1299  initialOwner == address(0) */\n  0xffffffffffffffffffffffffffffffffffffffff\n  and\n  sub\n    /* \"https://github.com/OpenZeppelin/openzeppelin-contracts/blob/v5.0.2/contracts/access/Ownable.sol\":1269:1364  if (initialOwner == address(0)) {... */\n  tag_7\n  jumpi\n    /* \"https://github.com/OpenZeppelin/openzeppelin-contracts/blob/v5.0.2/contracts/access/Ownable.sol\":1350:1351  0 */\n  0x00\n    /* \"https://github.com/OpenZeppelin/openzeppelin-contracts/blob/v5.0.2/contracts/access/Ownable.sol\":1322:1353  OwnableInvalidOwner(address(0)) */\n  mload(0x40)\n  0x1e4fbdf700000000000000000000000000000000000000000000000000000000\n  dup2\n  mstore\n  0x04\n  add\n  tag_8\n  swap2\n  swap1\n  tag_9\n  jump\t// in\ntag_8:\n  mload(0x40)\n  dup1\n  swap2\n  sub\n  swap1\n  revert\n    /* \"https://github.com/OpenZeppelin/openzeppelin-contracts/blob/v5.0.2/contracts/access/Ownable.sol\":1269:1364  if (initialOwner == address(0)) {... */\ntag_7:\n    /* \"https://github.com/OpenZeppelin/openzeppelin-contracts/blob/v5.0.2/contracts/access/Ownable.sol\":1373:1405  _transferOwnership(initialOwner) */\n  tag_10\n    /* \"https://github.com/OpenZeppelin/openzeppelin-contracts/blob/v5.0.2/contracts/access/Ownable.sol\":1392:1404  initialOwner */\n  dup2\n    /* \"https://github.com/OpenZeppelin/openzeppelin-contracts/blob/v5.0.2/contracts/access/Ownable.sol\":1373:1391  _transferOwnership */\n  shl(0x20, tag_11)\n    /* \"https://github.com/OpenZeppelin/openzeppelin-contracts/blob/v5.0.2/contracts/access/Ownable.sol\":1373:1405  _transferOwnership(initialOwner) */\n  0x20\n  shr\n  jump\t// in\ntag_10:\n    /* \"https://github.com/OpenZeppelin/openzeppelin-contracts/blob/v5.0.2/contracts/access/Ownable.sol\":1225:1412  constructor(address initialOwner) {... */\n  pop\n    /* \"nftmarket/dex/pdex.sol\":1334:1340  _pair1 */\n  dup2\n    /* \"nftmarket/dex/pdex.sol\":1323:1331  dexPair1 */\n  0x01\n  0x00\n    /* \"nftmarket/dex/pdex.sol\":1323:1340  dexPair1 = _pair1 */\n  0x0100\n  exp\n  dup2\n  sload\n  dup2\n  0xffffffffffffffffffffffffffffffffffffffff\n  mul\n  not\n  and\n  swap1\n  dup4\n  0xffffffffffffffffffffffffffffffffffffffff\n  and\n  mul\n  or\n  swap1\n  sstore\n  pop\n    /* \"nftmarket/dex/pdex.sol\":1362:1368  _pair2 */\n  dup1\n    /* \"nftmarket/dex/pdex.sol\":1351:1359  dexPair2 */\n  0x02\n  0x00\n    /* \"nftmarket/dex/pdex.sol\":1351:1368  dexPair2 = _pair2 */\n  0x0100\n  exp\n  dup2\n  sload\n  dup2\n  0xffffffffffffffffffffffffffffffffffffffff\n  mul\n  not\n  and\n  swap1\n  dup4\n  0xffffffffffffffffffffffffffffffffffffffff\n  and\n  mul\n  or\n  swap1\n  sstore\n  pop\n    /* \"nftmarket/dex/pdex.sol\":1410:1416  _pair1 */\n  dup2\n    /* \"nftmarket/dex/pdex.sol\":1395:1424  IUniswapV2Pair(_pair1).token0 */\n  0xffffffffffffffffffffffffffffffffffffffff\n  and\n  0x0dfe1681\n    /* \"nftmarket/dex/pdex.sol\":1395:1426  IUniswapV2Pair(_pair1).token0() */\n  mload(0x40)\n  dup2\n  0xffffffff\n  and\n  0xe0\n  shl\n  dup2\n  mstore\n  0x04\n  add\n  0x20\n  mload(0x40)\n  dup1\n  dup4\n  sub\n  dup2\n  dup7\n  gas\n  staticcall\n  iszero\n  dup1\n  iszero\n  tag_14\n  jumpi\n  returndatacopy(0x00, 0x00, returndatasize)\n  revert(0x00, returndatasize)\ntag_14:\n  pop\n  pop\n  pop\n  pop\n  mload(0x40)\n  returndatasize\n  not(0x1f)\n  0x1f\n  dup3\n  add\n  and\n  dup3\n  add\n  dup1\n  0x40\n  mstore\n  pop\n  dup2\n  add\n  swap1\n  tag_15\n  swap2\n  swap1\n  tag_16\n  jump\t// in\ntag_15:\n    /* \"nftmarket/dex/pdex.sol\":1379:1385  tokenA */\n  0x03\n  0x00\n    /* \"nftmarket/dex/pdex.sol\":1379:1427  tokenA = IERC20(IUniswapV2Pair(_pair1).token0()) */\n  0x0100\n  exp\n  dup2\n  sload\n  dup2\n  0xffffffffffffffffffffffffffffffffffffffff\n  mul\n  not\n  and\n  swap1\n  dup4\n  0xffffffffffffffffffffffffffffffffffffffff\n  and\n  mul\n  or\n  swap1\n  sstore\n  pop\n    /* \"nftmarket/dex/pdex.sol\":1469:1475  _pair1 */\n  dup2\n    /* \"nftmarket/dex/pdex.sol\":1454:1483  IUniswapV2Pair(_pair1).token1 */\n  0xffffffffffffffffffffffffffffffffffffffff\n  and\n  0xd21220a7\n    /* \"nftmarket/dex/pdex.sol\":1454:1485  IUniswapV2Pair(_pair1).token1() */\n  mload(0x40)\n  dup2\n  0xffffffff\n  and\n  0xe0\n  shl\n  dup2\n  mstore\n  0x04\n  add\n  0x20\n  mload(0x40)\n  dup1\n  dup4\n  sub\n  dup2\n  dup7\n  gas\n  staticcall\n  iszero\n  dup1\n  iszero\n  tag_18\n  jumpi\n  returndatacopy(0x00, 0x00, returndatasize)\n  revert(0x00, returndatasize)\ntag_18:\n  pop\n  pop\n  pop\n  pop\n  mload(0x40)\n  returndatasize\n  not(0x1f)\n  0x1f\n  dup3\n  add\n  and\n  dup3\n  add\n  dup1\n  0x40\n  mstore\n  pop\n  dup2\n  add\n  swap1\n  tag_19\n  swap2\n  swap1\n  tag_16\n  jump\t// in\ntag_19:\n    /* \"nftmarket/dex/pdex.sol\":1438:1444  tokenB */\n  0x04\n  0x00\n    /* \"nftmarket/dex/pdex.sol\":1438:1486  tokenB = IERC20(IUniswapV2Pair(_pair1).token1()) */\n  0x0100\n  exp\n  dup2\n  sload\n  dup2\n  0xffffffffffffffffffffffffffffffffffffffff\n  mul\n  not\n  and\n  swap1\n  dup4\n  0xffffffffffffffffffffffffffffffffffffffff\n  and\n  mul\n  or\n  swap1\n  sstore\n  pop\n    /* \"nftmarket/dex/pdex.sol\":1248:1494  constructor(address _pair1, address _pair2) Ownable(msg.sender) {... */\n  pop\n  pop\n    /* \"nftmarket/dex/pdex.sol\":865:3106  contract ArbitrageSimulator is Ownable {... */\n  jump(tag_20)\n    /* \"https://github.com/OpenZeppelin/openzeppelin-contracts/blob/v5.0.2/contracts/access/Ownable.sol\":2912:3099  function _transferOwnership(address newOwner) internal virtual {... */\ntag_11:\n    /* \"https://github.com/OpenZeppelin/openzeppelin-contracts/blob/v5.0.2/contracts/access/Ownable.sol\":2985:3001  address oldOwner */\n  0x00\n    /* \"https://github.com/OpenZeppelin/openzeppelin-contracts/blob/v5.0.2/contracts/access/Ownable.sol\":3004:3010  _owner */\n  0x00\n  0x00\n  swap1\n  sload\n  swap1\n  0x0100\n  exp\n  swap1\n  div\n  0xffffffffffffffffffffffffffffffffffffffff\n  and\n    /* \"https://github.com/OpenZeppelin/openzeppelin-contracts/blob/v5.0.2/contracts/access/Ownable.sol\":2985:3010  address oldOwner = _owner */\n  swap1\n  pop\n    /* \"https://github.com/OpenZeppelin/openzeppelin-contracts/blob/v5.0.2/contracts/access/Ownable.sol\":3029:3037  newOwner */\n  dup2\n    /* \"https://github.com/OpenZeppelin/openzeppelin-contracts/blob/v5.0.2/contracts/access/Ownable.sol\":3020:3026  _owner */\n  0x00\n  0x00\n    /* \"https://github.com/OpenZeppelin/openzeppelin-contracts/blob/v5.0.2/contracts/access/Ownable.sol\":3020:3037  _owner = newOwner */\n  0x0100\n  exp\n  dup2\n  sload\n  dup2\n  0xffffffffffffffffffffffffffffffffffffffff\n  mul\n  not\n  and\n  swap1\n  dup4\n  0xffffffffffffffffffffffffffffffffffffffff\n  and\n  mul\n  or\n  swap1\n  sstore\n  pop\n    /* \"https://github.com/OpenZeppelin/openzeppelin-contracts/blob/v5.0.2/contracts/access/Ownable.sol\":3083:3091  newOwner */\n  dup2\n    /* \"https://github.com/OpenZeppelin/openzeppelin-contracts/blob/v5.0.2/contracts/access/Ownable.sol\":3052:3092  OwnershipTransferred(oldOwner, newOwner) */\n  0xffffffffffffffffffffffffffffffffffffffff\n  and\n    /* \"https://github.com/OpenZeppelin/openzeppelin-contracts/blob/v5.0.2/contracts/access/Ownable.sol\":3073:3081  oldOwner */\n  dup2\n    /* \"https://github.com/OpenZeppelin/openzeppelin-contracts/blob/v5.0.2/contracts/access/Ownable.sol\":3052:3092  OwnershipTransferred(oldOwner, newOwner) */\n  0xffffffffffffffffffffffffffffffffffffffff\n  and\n  0x8be0079c531659141344cd1fd0a4f28419497f9722a3daafe3b4186f6b6457e0\n  mload(0x40)\n  mload(0x40)\n  dup1\n  swap2\n  sub\n  swap1\n  log3\n    /* \"https://github.com/OpenZeppelin/openzeppelin-contracts/blob/v5.0.2/contracts/access/Ownable.sol\":2975:3099  {... */\n  pop\n    /* \"https://github.com/OpenZeppelin/openzeppelin-contracts/blob/v5.0.2/contracts/access/Ownable.sol\":2912:3099  function _transferOwnership(address newOwner) internal virtual {... */\n  pop\n  jump\t// out\n    /* \"#utility.yul\":88:205   */\ntag_23:\n    /* \"#utility.yul\":197:198   */\n  0x00\n    /* \"#utility.yul\":194:195   */\n  0x00\n    /* \"#utility.yul\":187:199   */\n  revert\n    /* \"#utility.yul\":334:460   */\ntag_25:\n    /* \"#utility.yul\":371:378   */\n  0x00\n    /* \"#utility.yul\":411:453   */\n  0xffffffffffffffffffffffffffffffffffffffff\n    /* \"#utility.yul\":404:409   */\n  dup3\n    /* \"#utility.yul\":400:454   */\n  and\n    /* \"#utility.yul\":389:454   */\n  swap1\n  pop\n    /* \"#utility.yul\":334:460   */\n  swap2\n  swap1\n  pop\n  jump\t// out\n    /* \"#utility.yul\":466:562   */\ntag_26:\n    /* \"#utility.yul\":503:510   */\n  0x00\n    /* \"#utility.yul\":532:556   */\n  tag_36\n    /* \"#utility.yul\":550:555   */\n  dup3\n    /* \"#utility.yul\":532:556   */\n  tag_25\n  jump\t// in\ntag_36:\n    /* \"#utility.yul\":521:556   */\n  swap1\n  pop\n    /* \"#utility.yul\":466:562   */\n  swap2\n  swap1\n  pop\n  jump\t// out\n    /* \"#utility.yul\":568:690   */\ntag_27:\n    /* \"#utility.yul\":641:665   */\n  tag_38\n    /* \"#utility.yul\":659:664   */\n  dup2\n    /* \"#utility.yul\":641:665   */\n  tag_26\n  jump\t// in\ntag_38:\n    /* \"#utility.yul\":634:639   */\n  dup2\n    /* \"#utility.yul\":631:666   */\n  eq\n    /* \"#utility.yul\":621:684   */\n  tag_39\n  jumpi\n    /* \"#utility.yul\":680:681   */\n  0x00\n    /* \"#utility.yul\":677:678   */\n  0x00\n    /* \"#utility.yul\":670:682   */\n  revert\n    /* \"#utility.yul\":621:684   */\ntag_39:\n    /* \"#utility.yul\":568:690   */\n  pop\n  jump\t// out\n    /* \"#utility.yul\":696:839   */\ntag_28:\n    /* \"#utility.yul\":753:758   */\n  0x00\n    /* \"#utility.yul\":784:790   */\n  dup2\n    /* \"#utility.yul\":778:791   */\n  mload\n    /* \"#utility.yul\":769:791   */\n  swap1\n  pop\n    /* \"#utility.yul\":800:833   */\n  tag_41\n    /* \"#utility.yul\":827:832   */\n  dup2\n    /* \"#utility.yul\":800:833   */\n  tag_27\n  jump\t// in\ntag_41:\n    /* \"#utility.yul\":696:839   */\n  swap3\n  swap2\n  pop\n  pop\n  jump\t// out\n    /* \"#utility.yul\":845:1352   */\ntag_3:\n    /* \"#utility.yul\":924:930   */\n  0x00\n    /* \"#utility.yul\":932:938   */\n  0x00\n    /* \"#utility.yul\":981:983   */\n  0x40\n    /* \"#utility.yul\":969:978   */\n  dup4\n    /* \"#utility.yul\":960:967   */\n  dup6\n    /* \"#utility.yul\":956:979   */\n  sub\n    /* \"#utility.yul\":952:984   */\n  slt\n    /* \"#utility.yul\":949:1068   */\n  iszero\n  tag_43\n  jumpi\n    /* \"#utility.yul\":987:1066   */\n  tag_44\n  tag_23\n  jump\t// in\ntag_44:\n    /* \"#utility.yul\":949:1068   */\ntag_43:\n    /* \"#utility.yul\":1107:1108   */\n  0x00\n    /* \"#utility.yul\":1132:1196   */\n  tag_45\n    /* \"#utility.yul\":1188:1195   */\n  dup6\n    /* \"#utility.yul\":1179:1185   */\n  dup3\n    /* \"#utility.yul\":1168:1177   */\n  dup7\n    /* \"#utility.yul\":1164:1186   */\n  add\n    /* \"#utility.yul\":1132:1196   */\n  tag_28\n  jump\t// in\ntag_45:\n    /* \"#utility.yul\":1122:1196   */\n  swap3\n  pop\n    /* \"#utility.yul\":1078:1206   */\n  pop\n    /* \"#utility.yul\":1245:1247   */\n  0x20\n    /* \"#utility.yul\":1271:1335   */\n  tag_46\n    /* \"#utility.yul\":1327:1334   */\n  dup6\n    /* \"#utility.yul\":1318:1324   */\n  dup3\n    /* \"#utility.yul\":1307:1316   */\n  dup7\n    /* \"#utility.yul\":1303:1325   */\n  add\n    /* \"#utility.yul\":1271:1335   */\n  tag_28\n  jump\t// in\ntag_46:\n    /* \"#utility.yul\":1261:1335   */\n  swap2\n  pop\n    /* \"#utility.yul\":1216:1345   */\n  pop\n    /* \"#utility.yul\":845:1352   */\n  swap3\n  pop\n  swap3\n  swap1\n  pop\n  jump\t// out\n    /* \"#utility.yul\":1358:1476   */\ntag_29:\n    /* \"#utility.yul\":1445:1469   */\n  tag_48\n    /* \"#utility.yul\":1463:1468   */\n  dup2\n    /* \"#utility.yul\":1445:1469   */\n  tag_26\n  jump\t// in\ntag_48:\n    /* \"#utility.yul\":1440:1443   */\n  dup3\n    /* \"#utility.yul\":1433:1470   */\n  mstore\n    /* \"#utility.yul\":1358:1476   */\n  pop\n  pop\n  jump\t// out\n    /* \"#utility.yul\":1482:1704   */\ntag_9:\n    /* \"#utility.yul\":1575:1579   */\n  0x00\n    /* \"#utility.yul\":1613:1615   */\n  0x20\n    /* \"#utility.yul\":1602:1611   */\n  dup3\n    /* \"#utility.yul\":1598:1616   */\n  add\n    /* \"#utility.yul\":1590:1616   */\n  swap1\n  pop\n    /* \"#utility.yul\":1626:1697   */\n  tag_50\n    /* \"#utility.yul\":1694:1695   */\n  0x00\n    /* \"#utility.yul\":1683:1692   */\n  dup4\n    /* \"#utility.yul\":1679:1696   */\n  add\n    /* \"#utility.yul\":1670:1676   */\n  dup5\n    /* \"#utility.yul\":1626:1697   */\n  tag_29\n  jump\t// in\ntag_50:\n    /* \"#utility.yul\":1482:1704   */\n  swap3\n  swap2\n  pop\n  pop\n  jump\t// out\n    /* \"#utility.yul\":1710:2061   */\ntag_16:\n    /* \"#utility.yul\":1780:1786   */\n  0x00\n    /* \"#utility.yul\":1829:1831   */\n  0x20\n    /* \"#utility.yul\":1817:1826   */\n  dup3\n    /* \"#utility.yul\":1808:1815   */\n  dup5\n    /* \"#utility.yul\":1804:1827   */\n  sub\n    /* \"#utility.yul\":1800:1832   */\n  slt\n    /* \"#utility.yul\":1797:1916   */\n  iszero\n  tag_52\n  jumpi\n    /* \"#utility.yul\":1835:1914   */\n  tag_53\n  tag_23\n  jump\t// in\ntag_53:\n    /* \"#utility.yul\":1797:1916   */\ntag_52:\n    /* \"#utility.yul\":1955:1956   */\n  0x00\n    /* \"#utility.yul\":1980:2044   */\n  tag_54\n    /* \"#utility.yul\":2036:2043   */\n  dup5\n    /* \"#utility.yul\":2027:2033   */\n  dup3\n    /* \"#utility.yul\":2016:2025   */\n  dup6\n    /* \"#utility.yul\":2012:2034   */\n  add\n    /* \"#utility.yul\":1980:2044   */\n  tag_28\n  jump\t// in\ntag_54:\n    /* \"#utility.yul\":1970:2044   */\n  swap2\n  pop\n    /* \"#utility.yul\":1926:2054   */\n  pop\n    /* \"#utility.yul\":1710:2061   */\n  swap3\n  swap2\n  pop\n  pop\n  jump\t// out\n    /* \"nftmarket/dex/pdex.sol\":865:3106  contract ArbitrageSimulator is Ownable {... */\ntag_20:\n  dataSize(sub_0)\n  dup1\n  dataOffset(sub_0)\n  0x00\n  codecopy\n  0x00\n  return\nstop\n\nsub_0: assembly {\n        /* \"nftmarket/dex/pdex.sol\":865:3106  contract ArbitrageSimulator is Ownable {... */\n      mstore(0x40, 0x80)\n      callvalue\n      dup1\n      iszero\n      tag_1\n      jumpi\n      revert(0x00, 0x00)\n    tag_1:\n      pop\n      jumpi(tag_2, lt(calldatasize, 0x04))\n      shr(0xe0, calldataload(0x00))\n      dup1\n      0x75c81ad0\n      gt\n      tag_17\n      jumpi\n      dup1\n      0xe080e7b5\n      gt\n      tag_18\n      jumpi\n      dup1\n      0xe080e7b5\n      eq\n      tag_13\n      jumpi\n      dup1\n      0xf2fde38b\n      eq\n      tag_14\n      jumpi\n      dup1\n      0xf7c5761d\n      eq\n      tag_15\n      jumpi\n      dup1\n      0xf7c7724f\n      eq\n      tag_16\n      jumpi\n      jump(tag_2)\n    tag_18:\n      dup1\n      0x75c81ad0\n      eq\n      tag_10\n      jumpi\n      dup1\n      0x8da5cb5b\n      eq\n      tag_11\n      jumpi\n      dup1\n      0xbb693ca0\n      eq\n      tag_12\n      jumpi\n      jump(tag_2)\n    tag_17:\n      dup1\n      0x3b42e5e2\n      gt\n      tag_19\n      jumpi\n      dup1\n      0x3b42e5e2\n      eq\n      tag_6\n      jumpi\n      dup1\n      0x50cfe3c7\n      eq\n      tag_7\n      jumpi\n      dup1\n      0x5f64b55b\n      eq\n      tag_8\n      jumpi\n      dup1\n      0x715018a6\n      eq\n      tag_9\n      jumpi\n      jump(tag_2)\n    tag_19:\n      dup1\n      0x0fc63d10\n      eq\n      tag_3\n      jumpi\n      dup1\n      0x10d1e85c\n      eq\n      tag_4\n      jumpi\n      dup1\n      0x2a7bea4f\n      eq\n      tag_5\n      jumpi\n    tag_2:\n      revert(0x00, 0x00)\n        /* \"nftmarket/dex/pdex.sol\":1035:1055  IERC20 public tokenA */\n    tag_3:\n      tag_20\n      tag_21\n      jump\t// in\n    tag_20:\n      mload(0x40)\n      tag_22\n      swap2\n      swap1\n      tag_23\n      jump\t// in\n    tag_22:\n      mload(0x40)\n      dup1\n      swap2\n      sub\n      swap1\n      return\n        /* \"nftmarket/dex/pdex.sol\":2542:2875  function uniswapV2Call(address sender, uint amount0, uint amount1, bytes calldata data) external {... */\n    tag_4:\n      tag_24\n      0x04\n      dup1\n      calldatasize\n      sub\n      dup2\n      add\n      swap1\n      tag_25\n      swap2\n      swap1\n      tag_26\n      jump\t// in\n    tag_25:\n      tag_27\n      jump\t// in\n    tag_24:\n      stop\n        /* \"nftmarket/dex/pdex.sol\":1502:2135  function checkArbitrageOpportunity() public view returns (uint256 potentialProfit) {... */\n    tag_5:\n      tag_28\n      tag_29\n      jump\t// in\n    tag_28:\n      mload(0x40)\n      tag_30\n      swap2\n      swap1\n      tag_31\n      jump\t// in\n    tag_30:\n      mload(0x40)\n      dup1\n      swap2\n      sub\n      swap1\n      return\n        /* \"nftmarket/dex/pdex.sol\":2883:2980  function updateMinProfit(uint256 newMin) external onlyOwner {... */\n    tag_6:\n      tag_32\n      0x04\n      dup1\n      calldatasize\n      sub\n      dup2\n      add\n      swap1\n      tag_33\n      swap2\n      swap1\n      tag_34\n      jump\t// in\n    tag_33:\n      tag_35\n      jump\t// in\n    tag_32:\n      stop\n        /* \"nftmarket/dex/pdex.sol\":1132:1177  mapping(address => uint256) public executions */\n    tag_7:\n      tag_36\n      0x04\n      dup1\n      calldatasize\n      sub\n      dup2\n      add\n      swap1\n      tag_37\n      swap2\n      swap1\n      tag_38\n      jump\t// in\n    tag_37:\n      tag_39\n      jump\t// in\n    tag_36:\n      mload(0x40)\n      tag_40\n      swap2\n      swap1\n      tag_31\n      jump\t// in\n    tag_40:\n      mload(0x40)\n      dup1\n      swap2\n      sub\n      swap1\n      return\n        /* \"nftmarket/dex/pdex.sol\":1062:1082  IERC20 public tokenB */\n    tag_8:\n      tag_41\n      tag_42\n      jump\t// in\n    tag_41:\n      mload(0x40)\n      tag_43\n      swap2\n      swap1\n      tag_23\n      jump\t// in\n    tag_43:\n      mload(0x40)\n      dup1\n      swap2\n      sub\n      swap1\n      return\n        /* \"https://github.com/OpenZeppelin/openzeppelin-contracts/blob/v5.0.2/contracts/access/Ownable.sol\":2293:2394  function renounceOwnership() public virtual onlyOwner {... */\n    tag_9:\n      tag_44\n      tag_45\n      jump\t// in\n    tag_44:\n      stop\n        /* \"nftmarket/dex/pdex.sol\":1091:1125  uint256 public minProfit = 1 ether */\n    tag_10:\n      tag_46\n      tag_47\n      jump\t// in\n    tag_46:\n      mload(0x40)\n      tag_48\n      swap2\n      swap1\n      tag_31\n      jump\t// in\n    tag_48:\n      mload(0x40)\n      dup1\n      swap2\n      sub\n      swap1\n      return\n        /* \"https://github.com/OpenZeppelin/openzeppelin-contracts/blob/v5.0.2/contracts/access/Ownable.sol\":1638:1723  function owner() public view virtual returns (address) {... */\n    tag_11:\n      tag_49\n      tag_50\n      jump\t// in\n    tag_49:\n      mload(0x40)\n      tag_51\n      swap2\n      swap1\n      tag_52\n      jump\t// in\n    tag_51:\n      mload(0x40)\n      dup1\n      swap2\n      sub\n      swap1\n      return\n        /* \"nftmarket/dex/pdex.sol\":975:998  address public dexPair1 */\n    tag_12:\n      tag_53\n      tag_54\n      jump\t// in\n    tag_53:\n      mload(0x40)\n      tag_55\n      swap2\n      swap1\n      tag_52\n      jump\t// in\n    tag_55:\n      mload(0x40)\n      dup1\n      swap2\n      sub\n      swap1\n      return\n        /* \"nftmarket/dex/pdex.sol\":1005:1028  address public dexPair2 */\n    tag_13:\n      tag_56\n      tag_57\n      jump\t// in\n    tag_56:\n      mload(0x40)\n      tag_58\n      swap2\n      swap1\n      tag_52\n      jump\t// in\n    tag_58:\n      mload(0x40)\n      dup1\n      swap2\n      sub\n      swap1\n      return\n        /* \"https://github.com/OpenZeppelin/openzeppelin-contracts/blob/v5.0.2/contracts/access/Ownable.sol\":2543:2758  function transferOwnership(address newOwner) public virtual onlyOwner {... */\n    tag_14:\n      tag_59\n      0x04\n      dup1\n      calldatasize\n      sub\n      dup2\n      add\n      swap1\n      tag_60\n      swap2\n      swap1\n      tag_38\n      jump\t// in\n    tag_60:\n      tag_61\n      jump\t// in\n    tag_59:\n      stop\n        /* \"nftmarket/dex/pdex.sol\":2988:3103  function getExecutionCount(address user) external view returns (uint256) {... */\n    tag_15:\n      tag_62\n      0x04\n      dup1\n      calldatasize\n      sub\n      dup2\n      add\n      swap1\n      tag_63\n      swap2\n      swap1\n      tag_38\n      jump\t// in\n    tag_63:\n      tag_64\n      jump\t// in\n    tag_62:\n      mload(0x40)\n      tag_65\n      swap2\n      swap1\n      tag_31\n      jump\t// in\n    tag_65:\n      mload(0x40)\n      dup1\n      swap2\n      sub\n      swap1\n      return\n        /* \"nftmarket/dex/pdex.sol\":2143:2534  function executeArbitrage(uint256 amount) external {... */\n    tag_16:\n      tag_66\n      0x04\n      dup1\n      calldatasize\n      sub\n      dup2\n      add\n      swap1\n      tag_67\n      swap2\n      swap1\n      tag_34\n      jump\t// in\n    tag_67:\n      tag_68\n      jump\t// in\n    tag_66:\n      stop\n        /* \"nftmarket/dex/pdex.sol\":1035:1055  IERC20 public tokenA */\n    tag_21:\n      0x03\n      0x00\n      swap1\n      sload\n      swap1\n      0x0100\n      exp\n      swap1\n      div\n      0xffffffffffffffffffffffffffffffffffffffff\n      and\n      dup2\n      jump\t// out\n        /* \"nftmarket/dex/pdex.sol\":2542:2875  function uniswapV2Call(address sender, uint amount0, uint amount1, bytes calldata data) external {... */\n    tag_27:\n        /* \"nftmarket/dex/pdex.sol\":2651:2663  address user */\n      0x00\n        /* \"nftmarket/dex/pdex.sol\":2665:2679  uint256 profit */\n      0x00\n        /* \"nftmarket/dex/pdex.sol\":2694:2698  data */\n      dup4\n      dup4\n        /* \"nftmarket/dex/pdex.sol\":2683:2719  abi.decode(data, (address, uint256)) */\n      dup2\n      add\n      swap1\n      tag_70\n      swap2\n      swap1\n      tag_71\n      jump\t// in\n    tag_70:\n        /* \"nftmarket/dex/pdex.sol\":2650:2719  (address user, uint256 profit) = abi.decode(data, (address, uint256)) */\n      swap2\n      pop\n      swap2\n      pop\n        /* \"nftmarket/dex/pdex.sol\":2730:2743  uint256 repay */\n      0x00\n        /* \"nftmarket/dex/pdex.sol\":2771:2775  1000 */\n      0x03e8\n        /* \"nftmarket/dex/pdex.sol\":2767:2768  3 */\n      0x03\n        /* \"nftmarket/dex/pdex.sol\":2757:2764  amount0 */\n      dup9\n        /* \"nftmarket/dex/pdex.sol\":2757:2768  amount0 * 3 */\n      tag_72\n      swap2\n      swap1\n      tag_73\n      jump\t// in\n    tag_72:\n        /* \"nftmarket/dex/pdex.sol\":2757:2775  amount0 * 3 / 1000 */\n      tag_74\n      swap2\n      swap1\n      tag_75\n      jump\t// in\n    tag_74:\n        /* \"nftmarket/dex/pdex.sol\":2746:2753  amount0 */\n      dup8\n        /* \"nftmarket/dex/pdex.sol\":2746:2776  amount0 + (amount0 * 3 / 1000) */\n      tag_76\n      swap2\n      swap1\n      tag_77\n      jump\t// in\n    tag_76:\n        /* \"nftmarket/dex/pdex.sol\":2730:2776  uint256 repay = amount0 + (amount0 * 3 / 1000) */\n      swap1\n      pop\n        /* \"nftmarket/dex/pdex.sol\":2787:2823  tokenA.safeTransfer(dexPair1, repay) */\n      tag_78\n        /* \"nftmarket/dex/pdex.sol\":2807:2815  dexPair1 */\n      0x01\n      0x00\n      swap1\n      sload\n      swap1\n      0x0100\n      exp\n      swap1\n      div\n      0xffffffffffffffffffffffffffffffffffffffff\n      and\n        /* \"nftmarket/dex/pdex.sol\":2817:2822  repay */\n      dup3\n        /* \"nftmarket/dex/pdex.sol\":2787:2793  tokenA */\n      0x03\n      0x00\n      swap1\n      sload\n      swap1\n      0x0100\n      exp\n      swap1\n      div\n      0xffffffffffffffffffffffffffffffffffffffff\n      and\n        /* \"nftmarket/dex/pdex.sol\":2787:2806  tokenA.safeTransfer */\n      0xffffffffffffffffffffffffffffffffffffffff\n      and\n      tag_79\n      swap1\n        /* \"nftmarket/dex/pdex.sol\":2787:2823  tokenA.safeTransfer(dexPair1, repay) */\n      swap3\n      swap2\n      swap1\n      0xffffffff\n      and\n      jump\t// in\n    tag_78:\n        /* \"nftmarket/dex/pdex.sol\":2834:2867  tokenA.safeTransfer(user, profit) */\n      tag_80\n        /* \"nftmarket/dex/pdex.sol\":2854:2858  user */\n      dup4\n        /* \"nftmarket/dex/pdex.sol\":2860:2866  profit */\n      dup4\n        /* \"nftmarket/dex/pdex.sol\":2834:2840  tokenA */\n      0x03\n      0x00\n      swap1\n      sload\n      swap1\n      0x0100\n      exp\n      swap1\n      div\n      0xffffffffffffffffffffffffffffffffffffffff\n      and\n        /* \"nftmarket/dex/pdex.sol\":2834:2853  tokenA.safeTransfer */\n      0xffffffffffffffffffffffffffffffffffffffff\n      and\n      tag_79\n      swap1\n        /* \"nftmarket/dex/pdex.sol\":2834:2867  tokenA.safeTransfer(user, profit) */\n      swap3\n      swap2\n      swap1\n      0xffffffff\n      and\n      jump\t// in\n    tag_80:\n        /* \"nftmarket/dex/pdex.sol\":2639:2875  {... */\n      pop\n      pop\n      pop\n        /* \"nftmarket/dex/pdex.sol\":2542:2875  function uniswapV2Call(address sender, uint amount0, uint amount1, bytes calldata data) external {... */\n      pop\n      pop\n      pop\n      pop\n      pop\n      jump\t// out\n        /* \"nftmarket/dex/pdex.sol\":1502:2135  function checkArbitrageOpportunity() public view returns (uint256 potentialProfit) {... */\n    tag_29:\n        /* \"nftmarket/dex/pdex.sol\":1560:1583  uint256 potentialProfit */\n      0x00\n        /* \"nftmarket/dex/pdex.sol\":1597:1614  uint112 reserveA1 */\n      0x00\n        /* \"nftmarket/dex/pdex.sol\":1616:1633  uint112 reserveB1 */\n      0x00\n        /* \"nftmarket/dex/pdex.sol\":1653:1661  dexPair1 */\n      0x01\n      0x00\n      swap1\n      sload\n      swap1\n      0x0100\n      exp\n      swap1\n      div\n      0xffffffffffffffffffffffffffffffffffffffff\n      and\n        /* \"nftmarket/dex/pdex.sol\":1638:1674  IUniswapV2Pair(dexPair1).getReserves */\n      0xffffffffffffffffffffffffffffffffffffffff\n      and\n      0x0902f1ac\n        /* \"nftmarket/dex/pdex.sol\":1638:1676  IUniswapV2Pair(dexPair1).getReserves() */\n      mload(0x40)\n      dup2\n      0xffffffff\n      and\n      0xe0\n      shl\n      dup2\n      mstore\n      0x04\n      add\n      0x60\n      mload(0x40)\n      dup1\n      dup4\n      sub\n      dup2\n      dup7\n      gas\n      staticcall\n      iszero\n      dup1\n      iszero\n      tag_83\n      jumpi\n      returndatacopy(0x00, 0x00, returndatasize)\n      revert(0x00, returndatasize)\n    tag_83:\n      pop\n      pop\n      pop\n      pop\n      mload(0x40)\n      returndatasize\n      not(0x1f)\n      0x1f\n      dup3\n      add\n      and\n      dup3\n      add\n      dup1\n      0x40\n      mstore\n      pop\n      dup2\n      add\n      swap1\n      tag_84\n      swap2\n      swap1\n      tag_85\n      jump\t// in\n    tag_84:\n        /* \"nftmarket/dex/pdex.sol\":1596:1676  (uint112 reserveA1, uint112 reserveB1,) = IUniswapV2Pair(dexPair1).getReserves() */\n      pop\n      swap2\n      pop\n      swap2\n      pop\n        /* \"nftmarket/dex/pdex.sol\":1688:1705  uint112 reserveA2 */\n      0x00\n        /* \"nftmarket/dex/pdex.sol\":1707:1724  uint112 reserveB2 */\n      0x00\n        /* \"nftmarket/dex/pdex.sol\":1744:1752  dexPair2 */\n      0x02\n      0x00\n      swap1\n      sload\n      swap1\n      0x0100\n      exp\n      swap1\n      div\n      0xffffffffffffffffffffffffffffffffffffffff\n      and\n        /* \"nftmarket/dex/pdex.sol\":1729:1765  IUniswapV2Pair(dexPair2).getReserves */\n      0xffffffffffffffffffffffffffffffffffffffff\n      and\n      0x0902f1ac\n        /* \"nftmarket/dex/pdex.sol\":1729:1767  IUniswapV2Pair(dexPair2).getReserves() */\n      mload(0x40)\n      dup2\n      0xffffffff\n      and\n      0xe0\n      shl\n      dup2\n      mstore\n      0x04\n      add\n      0x60\n      mload(0x40)\n      dup1\n      dup4\n      sub\n      dup2\n      dup7\n      gas\n      staticcall\n      iszero\n      dup1\n      iszero\n      tag_87\n      jumpi\n      returndatacopy(0x00, 0x00, returndatasize)\n      revert(0x00, returndatasize)\n    tag_87:\n      pop\n      pop\n      pop\n      pop\n      mload(0x40)\n      returndatasize\n      not(0x1f)\n      0x1f\n      dup3\n      add\n      and\n      dup3\n      add\n      dup1\n      0x40\n      mstore\n      pop\n      dup2\n      add\n      swap1\n      tag_88\n      swap2\n      swap1\n      tag_85\n      jump\t// in\n    tag_88:\n        /* \"nftmarket/dex/pdex.sol\":1687:1767  (uint112 reserveA2, uint112 reserveB2,) = IUniswapV2Pair(dexPair2).getReserves() */\n      pop\n      swap2\n      pop\n      swap2\n      pop\n        /* \"nftmarket/dex/pdex.sol\":1780:1797  uint256 priceDiff */\n      0x00\n        /* \"nftmarket/dex/pdex.sol\":1800:1801  0 */\n      0x00\n        /* \"nftmarket/dex/pdex.sol\":1780:1801  uint256 priceDiff = 0 */\n      swap1\n      pop\n        /* \"nftmarket/dex/pdex.sol\":1817:1823  uint i */\n      0x00\n        /* \"nftmarket/dex/pdex.sol\":1826:1827  1 */\n      0x01\n        /* \"nftmarket/dex/pdex.sol\":1817:1827  uint i = 1 */\n      swap1\n      pop\n        /* \"nftmarket/dex/pdex.sol\":1812:2075  for (uint i = 1; i <= 5; i++) {... */\n    tag_89:\n        /* \"nftmarket/dex/pdex.sol\":1834:1835  5 */\n      0x05\n        /* \"nftmarket/dex/pdex.sol\":1829:1830  i */\n      dup2\n        /* \"nftmarket/dex/pdex.sol\":1829:1835  i <= 5 */\n      gt\n        /* \"nftmarket/dex/pdex.sol\":1812:2075  for (uint i = 1; i <= 5; i++) {... */\n      tag_90\n      jumpi\n        /* \"nftmarket/dex/pdex.sol\":1857:1871  uint256 price1 */\n      0x00\n        /* \"nftmarket/dex/pdex.sol\":1904:1913  reserveA1 */\n      dup7\n        /* \"nftmarket/dex/pdex.sol\":1874:1913  (uint256(reserveB1) * 1000) / reserveA1 */\n      0xffffffffffffffffffffffffffff\n      and\n        /* \"nftmarket/dex/pdex.sol\":1896:1900  1000 */\n      0x03e8\n        /* \"nftmarket/dex/pdex.sol\":1883:1892  reserveB1 */\n      dup8\n        /* \"nftmarket/dex/pdex.sol\":1875:1893  uint256(reserveB1) */\n      0xffffffffffffffffffffffffffff\n      and\n        /* \"nftmarket/dex/pdex.sol\":1875:1900  uint256(reserveB1) * 1000 */\n      tag_92\n      swap2\n      swap1\n      tag_73\n      jump\t// in\n    tag_92:\n        /* \"nftmarket/dex/pdex.sol\":1874:1913  (uint256(reserveB1) * 1000) / reserveA1 */\n      tag_93\n      swap2\n      swap1\n      tag_75\n      jump\t// in\n    tag_93:\n        /* \"nftmarket/dex/pdex.sol\":1857:1913  uint256 price1 = (uint256(reserveB1) * 1000) / reserveA1 */\n      swap1\n      pop\n        /* \"nftmarket/dex/pdex.sol\":1928:1942  uint256 price2 */\n      0x00\n        /* \"nftmarket/dex/pdex.sol\":1975:1984  reserveA2 */\n      dup6\n        /* \"nftmarket/dex/pdex.sol\":1945:1984  (uint256(reserveB2) * 1000) / reserveA2 */\n      0xffffffffffffffffffffffffffff\n      and\n        /* \"nftmarket/dex/pdex.sol\":1967:1971  1000 */\n      0x03e8\n        /* \"nftmarket/dex/pdex.sol\":1954:1963  reserveB2 */\n      dup7\n        /* \"nftmarket/dex/pdex.sol\":1946:1964  uint256(reserveB2) */\n      0xffffffffffffffffffffffffffff\n      and\n        /* \"nftmarket/dex/pdex.sol\":1946:1971  uint256(reserveB2) * 1000 */\n      tag_94\n      swap2\n      swap1\n      tag_73\n      jump\t// in\n    tag_94:\n        /* \"nftmarket/dex/pdex.sol\":1945:1984  (uint256(reserveB2) * 1000) / reserveA2 */\n      tag_95\n      swap2\n      swap1\n      tag_75\n      jump\t// in\n    tag_95:\n        /* \"nftmarket/dex/pdex.sol\":1928:1984  uint256 price2 = (uint256(reserveB2) * 1000) / reserveA2 */\n      swap1\n      pop\n        /* \"nftmarket/dex/pdex.sol\":2021:2027  price2 */\n      dup1\n        /* \"nftmarket/dex/pdex.sol\":2012:2018  price1 */\n      dup3\n        /* \"nftmarket/dex/pdex.sol\":2012:2027  price1 > price2 */\n      gt\n        /* \"nftmarket/dex/pdex.sol\":2012:2063  price1 > price2 ? price1 - price2 : price2 - price1 */\n      tag_96\n      jumpi\n        /* \"nftmarket/dex/pdex.sol\":2057:2063  price1 */\n      dup2\n        /* \"nftmarket/dex/pdex.sol\":2048:2054  price2 */\n      dup2\n        /* \"nftmarket/dex/pdex.sol\":2048:2063  price2 - price1 */\n      tag_97\n      swap2\n      swap1\n      tag_98\n      jump\t// in\n    tag_97:\n        /* \"nftmarket/dex/pdex.sol\":2012:2063  price1 > price2 ? price1 - price2 : price2 - price1 */\n      jump(tag_99)\n    tag_96:\n        /* \"nftmarket/dex/pdex.sol\":2039:2045  price2 */\n      dup1\n        /* \"nftmarket/dex/pdex.sol\":2030:2036  price1 */\n      dup3\n        /* \"nftmarket/dex/pdex.sol\":2030:2045  price1 - price2 */\n      tag_100\n      swap2\n      swap1\n      tag_98\n      jump\t// in\n    tag_100:\n        /* \"nftmarket/dex/pdex.sol\":2012:2063  price1 > price2 ? price1 - price2 : price2 - price1 */\n    tag_99:\n        /* \"nftmarket/dex/pdex.sol\":1999:2063  priceDiff += price1 > price2 ? price1 - price2 : price2 - price1 */\n      dup5\n      tag_101\n      swap2\n      swap1\n      tag_77\n      jump\t// in\n    tag_101:\n      swap4\n      pop\n        /* \"nftmarket/dex/pdex.sol\":1842:2075  {... */\n      pop\n      pop\n        /* \"nftmarket/dex/pdex.sol\":1837:1840  i++ */\n      dup1\n      dup1\n      tag_102\n      swap1\n      tag_103\n      jump\t// in\n    tag_102:\n      swap2\n      pop\n      pop\n        /* \"nftmarket/dex/pdex.sol\":1812:2075  for (uint i = 1; i <= 5; i++) {... */\n      jump(tag_89)\n    tag_90:\n      pop\n        /* \"nftmarket/dex/pdex.sol\":2124:2127  100 */\n      0x64\n        /* \"nftmarket/dex/pdex.sol\":2105:2121  priceDiff.sqrt() */\n      tag_104\n        /* \"nftmarket/dex/pdex.sol\":2105:2114  priceDiff */\n      dup3\n        /* \"nftmarket/dex/pdex.sol\":2105:2119  priceDiff.sqrt */\n      tag_105\n        /* \"nftmarket/dex/pdex.sol\":2105:2121  priceDiff.sqrt() */\n      jump\t// in\n    tag_104:\n        /* \"nftmarket/dex/pdex.sol\":2105:2127  priceDiff.sqrt() * 100 */\n      tag_106\n      swap2\n      swap1\n      tag_73\n      jump\t// in\n    tag_106:\n        /* \"nftmarket/dex/pdex.sol\":2087:2127  potentialProfit = priceDiff.sqrt() * 100 */\n      swap6\n      pop\n        /* \"nftmarket/dex/pdex.sol\":1585:2135  {... */\n      pop\n      pop\n      pop\n      pop\n      pop\n        /* \"nftmarket/dex/pdex.sol\":1502:2135  function checkArbitrageOpportunity() public view returns (uint256 potentialProfit) {... */\n      swap1\n      jump\t// out\n        /* \"nftmarket/dex/pdex.sol\":2883:2980  function updateMinProfit(uint256 newMin) external onlyOwner {... */\n    tag_35:\n        /* \"https://github.com/OpenZeppelin/openzeppelin-contracts/blob/v5.0.2/contracts/access/Ownable.sol\":1531:1544  _checkOwner() */\n      tag_108\n        /* \"https://github.com/OpenZeppelin/openzeppelin-contracts/blob/v5.0.2/contracts/access/Ownable.sol\":1531:1542  _checkOwner */\n      tag_109\n        /* \"https://github.com/OpenZeppelin/openzeppelin-contracts/blob/v5.0.2/contracts/access/Ownable.sol\":1531:1544  _checkOwner() */\n      jump\t// in\n    tag_108:\n        /* \"nftmarket/dex/pdex.sol\":2966:2972  newMin */\n      dup1\n        /* \"nftmarket/dex/pdex.sol\":2954:2963  minProfit */\n      0x05\n        /* \"nftmarket/dex/pdex.sol\":2954:2972  minProfit = newMin */\n      dup2\n      swap1\n      sstore\n      pop\n        /* \"nftmarket/dex/pdex.sol\":2883:2980  function updateMinProfit(uint256 newMin) external onlyOwner {... */\n      pop\n      jump\t// out\n        /* \"nftmarket/dex/pdex.sol\":1132:1177  mapping(address => uint256) public executions */\n    tag_39:\n      mstore(0x20, 0x06)\n      dup1\n      0x00\n      mstore\n      keccak256(0x00, 0x40)\n      0x00\n      swap2\n      pop\n      swap1\n      pop\n      sload\n      dup2\n      jump\t// out\n        /* \"nftmarket/dex/pdex.sol\":1062:1082  IERC20 public tokenB */\n    tag_42:\n      0x04\n      0x00\n      swap1\n      sload\n      swap1\n      0x0100\n      exp\n      swap1\n      div\n      0xffffffffffffffffffffffffffffffffffffffff\n      and\n      dup2\n      jump\t// out\n        /* \"https://github.com/OpenZeppelin/openzeppelin-contracts/blob/v5.0.2/contracts/access/Ownable.sol\":2293:2394  function renounceOwnership() public virtual onlyOwner {... */\n    tag_45:\n        /* \"https://github.com/OpenZeppelin/openzeppelin-contracts/blob/v5.0.2/contracts/access/Ownable.sol\":1531:1544  _checkOwner() */\n      tag_112\n        /* \"https://github.com/OpenZeppelin/openzeppelin-contracts/blob/v5.0.2/contracts/access/Ownable.sol\":1531:1542  _checkOwner */\n      tag_109\n        /* \"https://github.com/OpenZeppelin/openzeppelin-contracts/blob/v5.0.2/contracts/access/Ownable.sol\":1531:1544  _checkOwner() */\n      jump\t// in\n    tag_112:\n        /* \"https://github.com/OpenZeppelin/openzeppelin-contracts/blob/v5.0.2/contracts/access/Ownable.sol\":2357:2387  _transferOwnership(address(0)) */\n      tag_114\n        /* \"https://github.com/OpenZeppelin/openzeppelin-contracts/blob/v5.0.2/contracts/access/Ownable.sol\":2384:2385  0 */\n      0x00\n        /* \"https://github.com/OpenZeppelin/openzeppelin-contracts/blob/v5.0.2/contracts/access/Ownable.sol\":2357:2375  _transferOwnership */\n      tag_115\n        /* \"https://github.com/OpenZeppelin/openzeppelin-contracts/blob/v5.0.2/contracts/access/Ownable.sol\":2357:2387  _transferOwnership(address(0)) */\n      jump\t// in\n    tag_114:\n        /* \"https://github.com/OpenZeppelin/openzeppelin-contracts/blob/v5.0.2/contracts/access/Ownable.sol\":2293:2394  function renounceOwnership() public virtual onlyOwner {... */\n      jump\t// out\n        /* \"nftmarket/dex/pdex.sol\":1091:1125  uint256 public minProfit = 1 ether */\n    tag_47:\n      sload(0x05)\n      dup2\n      jump\t// out\n        /* \"https://github.com/OpenZeppelin/openzeppelin-contracts/blob/v5.0.2/contracts/access/Ownable.sol\":1638:1723  function owner() public view virtual returns (address) {... */\n    tag_50:\n        /* \"https://github.com/OpenZeppelin/openzeppelin-contracts/blob/v5.0.2/contracts/access/Ownable.sol\":1684:1691  address */\n      0x00\n        /* \"https://github.com/OpenZeppelin/openzeppelin-contracts/blob/v5.0.2/contracts/access/Ownable.sol\":1710:1716  _owner */\n      0x00\n      0x00\n      swap1\n      sload\n      swap1\n      0x0100\n      exp\n      swap1\n      div\n      0xffffffffffffffffffffffffffffffffffffffff\n      and\n        /* \"https://github.com/OpenZeppelin/openzeppelin-contracts/blob/v5.0.2/contracts/access/Ownable.sol\":1703:1716  return _owner */\n      swap1\n      pop\n        /* \"https://github.com/OpenZeppelin/openzeppelin-contracts/blob/v5.0.2/contracts/access/Ownable.sol\":1638:1723  function owner() public view virtual returns (address) {... */\n      swap1\n      jump\t// out\n        /* \"nftmarket/dex/pdex.sol\":975:998  address public dexPair1 */\n    tag_54:\n      0x01\n      0x00\n      swap1\n      sload\n      swap1\n      0x0100\n      exp\n      swap1\n      div\n      0xffffffffffffffffffffffffffffffffffffffff\n      and\n      dup2\n      jump\t// out\n        /* \"nftmarket/dex/pdex.sol\":1005:1028  address public dexPair2 */\n    tag_57:\n      0x02\n      0x00\n      swap1\n      sload\n      swap1\n      0x0100\n      exp\n      swap1\n      div\n      0xffffffffffffffffffffffffffffffffffffffff\n      and\n      dup2\n      jump\t// out\n        /* \"https://github.com/OpenZeppelin/openzeppelin-contracts/blob/v5.0.2/contracts/access/Ownable.sol\":2543:2758  function transferOwnership(address newOwner) public virtual onlyOwner {... */\n    tag_61:\n        /* \"https://github.com/OpenZeppelin/openzeppelin-contracts/blob/v5.0.2/contracts/access/Ownable.sol\":1531:1544  _checkOwner() */\n      tag_118\n        /* \"https://github.com/OpenZeppelin/openzeppelin-contracts/blob/v5.0.2/contracts/access/Ownable.sol\":1531:1542  _checkOwner */\n      tag_109\n        /* \"https://github.com/OpenZeppelin/openzeppelin-contracts/blob/v5.0.2/contracts/access/Ownable.sol\":1531:1544  _checkOwner() */\n      jump\t// in\n    tag_118:\n        /* \"https://github.com/OpenZeppelin/openzeppelin-contracts/blob/v5.0.2/contracts/access/Ownable.sol\":2647:2648  0 */\n      0x00\n        /* \"https://github.com/OpenZeppelin/openzeppelin-contracts/blob/v5.0.2/contracts/access/Ownable.sol\":2627:2649  newOwner == address(0) */\n      0xffffffffffffffffffffffffffffffffffffffff\n      and\n        /* \"https://github.com/OpenZeppelin/openzeppelin-contracts/blob/v5.0.2/contracts/access/Ownable.sol\":2627:2635  newOwner */\n      dup2\n        /* \"https://github.com/OpenZeppelin/openzeppelin-contracts/blob/v5.0.2/contracts/access/Ownable.sol\":2627:2649  newOwner == address(0) */\n      0xffffffffffffffffffffffffffffffffffffffff\n      and\n      sub\n        /* \"https://github.com/OpenZeppelin/openzeppelin-contracts/blob/v5.0.2/contracts/access/Ownable.sol\":2623:2714  if (newOwner == address(0)) {... */\n      tag_120\n      jumpi\n        /* \"https://github.com/OpenZeppelin/openzeppelin-contracts/blob/v5.0.2/contracts/access/Ownable.sol\":2700:2701  0 */\n      0x00\n        /* \"https://github.com/OpenZeppelin/openzeppelin-contracts/blob/v5.0.2/contracts/access/Ownable.sol\":2672:2703  OwnableInvalidOwner(address(0)) */\n      mload(0x40)\n      0x1e4fbdf700000000000000000000000000000000000000000000000000000000\n      dup2\n      mstore\n      0x04\n      add\n      tag_121\n      swap2\n      swap1\n      tag_52\n      jump\t// in\n    tag_121:\n      mload(0x40)\n      dup1\n      swap2\n      sub\n      swap1\n      revert\n        /* \"https://github.com/OpenZeppelin/openzeppelin-contracts/blob/v5.0.2/contracts/access/Ownable.sol\":2623:2714  if (newOwner == address(0)) {... */\n    tag_120:\n        /* \"https://github.com/OpenZeppelin/openzeppelin-contracts/blob/v5.0.2/contracts/access/Ownable.sol\":2723:2751  _transferOwnership(newOwner) */\n      tag_122\n        /* \"https://github.com/OpenZeppelin/openzeppelin-contracts/blob/v5.0.2/contracts/access/Ownable.sol\":2742:2750  newOwner */\n      dup2\n        /* \"https://github.com/OpenZeppelin/openzeppelin-contracts/blob/v5.0.2/contracts/access/Ownable.sol\":2723:2741  _transferOwnership */\n      tag_115\n        /* \"https://github.com/OpenZeppelin/openzeppelin-contracts/blob/v5.0.2/contracts/access/Ownable.sol\":2723:2751  _transferOwnership(newOwner) */\n      jump\t// in\n    tag_122:\n        /* \"https://github.com/OpenZeppelin/openzeppelin-contracts/blob/v5.0.2/contracts/access/Ownable.sol\":2543:2758  function transferOwnership(address newOwner) public virtual onlyOwner {... */\n      pop\n      jump\t// out\n        /* \"nftmarket/dex/pdex.sol\":2988:3103  function getExecutionCount(address user) external view returns (uint256) {... */\n    tag_64:\n        /* \"nftmarket/dex/pdex.sol\":3052:3059  uint256 */\n      0x00\n        /* \"nftmarket/dex/pdex.sol\":3079:3089  executions */\n      0x06\n        /* \"nftmarket/dex/pdex.sol\":3079:3095  executions[user] */\n      0x00\n        /* \"nftmarket/dex/pdex.sol\":3090:3094  user */\n      dup4\n        /* \"nftmarket/dex/pdex.sol\":3079:3095  executions[user] */\n      0xffffffffffffffffffffffffffffffffffffffff\n      and\n      0xffffffffffffffffffffffffffffffffffffffff\n      and\n      dup2\n      mstore\n      0x20\n      add\n      swap1\n      dup2\n      mstore\n      0x20\n      add\n      0x00\n      keccak256\n      sload\n        /* \"nftmarket/dex/pdex.sol\":3072:3095  return executions[user] */\n      swap1\n      pop\n        /* \"nftmarket/dex/pdex.sol\":2988:3103  function getExecutionCount(address user) external view returns (uint256) {... */\n      swap2\n      swap1\n      pop\n      jump\t// out\n        /* \"nftmarket/dex/pdex.sol\":2143:2534  function executeArbitrage(uint256 amount) external {... */\n    tag_68:\n        /* \"nftmarket/dex/pdex.sol\":2205:2219  uint256 profit */\n      0x00\n        /* \"nftmarket/dex/pdex.sol\":2222:2249  checkArbitrageOpportunity() */\n      tag_125\n        /* \"nftmarket/dex/pdex.sol\":2222:2247  checkArbitrageOpportunity */\n      tag_29\n        /* \"nftmarket/dex/pdex.sol\":2222:2249  checkArbitrageOpportunity() */\n      jump\t// in\n    tag_125:\n        /* \"nftmarket/dex/pdex.sol\":2205:2249  uint256 profit = checkArbitrageOpportunity() */\n      swap1\n      pop\n        /* \"nftmarket/dex/pdex.sol\":2278:2287  minProfit */\n      sload(0x05)\n        /* \"nftmarket/dex/pdex.sol\":2268:2274  profit */\n      dup2\n        /* \"nftmarket/dex/pdex.sol\":2268:2287  profit >= minProfit */\n      lt\n      iszero\n        /* \"nftmarket/dex/pdex.sol\":2260:2301  require(profit >= minProfit, \"No profit\") */\n      tag_126\n      jumpi\n      mload(0x40)\n      0x08c379a000000000000000000000000000000000000000000000000000000000\n      dup2\n      mstore\n      0x04\n      add\n      tag_127\n      swap1\n      tag_128\n      jump\t// in\n    tag_127:\n      mload(0x40)\n      dup1\n      swap2\n      sub\n      swap1\n      revert\n    tag_126:\n        /* \"nftmarket/dex/pdex.sol\":2314:2331  bytes memory data */\n      0x00\n        /* \"nftmarket/dex/pdex.sol\":2345:2355  msg.sender */\n      caller\n        /* \"nftmarket/dex/pdex.sol\":2357:2363  profit */\n      dup3\n        /* \"nftmarket/dex/pdex.sol\":2334:2364  abi.encode(msg.sender, profit) */\n      add(0x20, mload(0x40))\n      tag_129\n      swap3\n      swap2\n      swap1\n      tag_130\n      jump\t// in\n    tag_129:\n      mload(0x40)\n      0x20\n      dup2\n      dup4\n      sub\n      sub\n      dup2\n      mstore\n      swap1\n      0x40\n      mstore\n        /* \"nftmarket/dex/pdex.sol\":2314:2364  bytes memory data = abi.encode(msg.sender, profit) */\n      swap1\n      pop\n        /* \"nftmarket/dex/pdex.sol\":2390:2398  dexPair1 */\n      0x01\n      0x00\n      swap1\n      sload\n      swap1\n      0x0100\n      exp\n      swap1\n      div\n      0xffffffffffffffffffffffffffffffffffffffff\n      and\n        /* \"nftmarket/dex/pdex.sol\":2375:2404  IUniswapV2Pair(dexPair1).swap */\n      0xffffffffffffffffffffffffffffffffffffffff\n      and\n      0x022c0d9f\n        /* \"nftmarket/dex/pdex.sol\":2405:2411  amount */\n      dup5\n        /* \"nftmarket/dex/pdex.sol\":2413:2414  0 */\n      0x00\n        /* \"nftmarket/dex/pdex.sol\":2424:2428  this */\n      address\n        /* \"nftmarket/dex/pdex.sol\":2431:2435  data */\n      dup6\n        /* \"nftmarket/dex/pdex.sol\":2375:2436  IUniswapV2Pair(dexPair1).swap(amount, 0, address(this), data) */\n      mload(0x40)\n      dup6\n      0xffffffff\n      and\n      0xe0\n      shl\n      dup2\n      mstore\n      0x04\n      add\n      tag_131\n      swap5\n      swap4\n      swap3\n      swap2\n      swap1\n      tag_132\n      jump\t// in\n    tag_131:\n      0x00\n      mload(0x40)\n      dup1\n      dup4\n      sub\n      dup2\n      0x00\n      dup8\n      dup1\n      extcodesize\n      iszero\n      dup1\n      iszero\n      tag_133\n      jumpi\n      revert(0x00, 0x00)\n    tag_133:\n      pop\n      gas\n      call\n      iszero\n      dup1\n      iszero\n      tag_135\n      jumpi\n      returndatacopy(0x00, 0x00, returndatasize)\n      revert(0x00, returndatasize)\n    tag_135:\n      pop\n      pop\n      pop\n      pop\n        /* \"nftmarket/dex/pdex.sol\":2449:2459  executions */\n      0x06\n        /* \"nftmarket/dex/pdex.sol\":2449:2471  executions[msg.sender] */\n      0x00\n        /* \"nftmarket/dex/pdex.sol\":2460:2470  msg.sender */\n      caller\n        /* \"nftmarket/dex/pdex.sol\":2449:2471  executions[msg.sender] */\n      0xffffffffffffffffffffffffffffffffffffffff\n      and\n      0xffffffffffffffffffffffffffffffffffffffff\n      and\n      dup2\n      mstore\n      0x20\n      add\n      swap1\n      dup2\n      mstore\n      0x20\n      add\n      0x00\n      keccak256\n      0x00\n        /* \"nftmarket/dex/pdex.sol\":2449:2473  executions[msg.sender]++ */\n      dup2\n      sload\n      dup1\n      swap3\n      swap2\n      swap1\n      tag_136\n      swap1\n      tag_103\n      jump\t// in\n    tag_136:\n      swap2\n      swap1\n      pop\n      sstore\n      pop\n        /* \"nftmarket/dex/pdex.sol\":2489:2526  ArbitrageExecuted(msg.sender, profit) */\n      0x972395fa18a09986c9b239da16e04fbe5c3736528787885746a83439cdc2f0bc\n        /* \"nftmarket/dex/pdex.sol\":2507:2517  msg.sender */\n      caller\n        /* \"nftmarket/dex/pdex.sol\":2519:2525  profit */\n      dup4\n        /* \"nftmarket/dex/pdex.sol\":2489:2526  ArbitrageExecuted(msg.sender, profit) */\n      mload(0x40)\n      tag_137\n      swap3\n      swap2\n      swap1\n      tag_130\n      jump\t// in\n    tag_137:\n      mload(0x40)\n      dup1\n      swap2\n      sub\n      swap1\n      log1\n        /* \"nftmarket/dex/pdex.sol\":2194:2534  {... */\n      pop\n      pop\n        /* \"nftmarket/dex/pdex.sol\":2143:2534  function executeArbitrage(uint256 amount) external {... */\n      pop\n      jump\t// out\n        /* \"https://github.com/OpenZeppelin/openzeppelin-contracts/blob/v5.0.2/contracts/token/ERC20/utils/SafeERC20.sol\":1303:1463  function safeTransfer(IERC20 token, address to, uint256 value) internal {... */\n    tag_79:\n        /* \"https://github.com/OpenZeppelin/openzeppelin-contracts/blob/v5.0.2/contracts/token/ERC20/utils/SafeERC20.sol\":1385:1456  _callOptionalReturn(token, abi.encodeCall(token.transfer, (to, value))) */\n      tag_139\n        /* \"https://github.com/OpenZeppelin/openzeppelin-contracts/blob/v5.0.2/contracts/token/ERC20/utils/SafeERC20.sol\":1405:1410  token */\n      dup4\n        /* \"https://github.com/OpenZeppelin/openzeppelin-contracts/blob/v5.0.2/contracts/token/ERC20/utils/SafeERC20.sol\":1427:1432  token */\n      dup5\n        /* \"https://github.com/OpenZeppelin/openzeppelin-contracts/blob/v5.0.2/contracts/token/ERC20/utils/SafeERC20.sol\":1427:1441  token.transfer */\n      0xffffffffffffffffffffffffffffffffffffffff\n      and\n      0xa9059cbb\n        /* \"https://github.com/OpenZeppelin/openzeppelin-contracts/blob/v5.0.2/contracts/token/ERC20/utils/SafeERC20.sol\":1444:1446  to */\n      dup6\n        /* \"https://github.com/OpenZeppelin/openzeppelin-contracts/blob/v5.0.2/contracts/token/ERC20/utils/SafeERC20.sol\":1448:1453  value */\n      dup6\n        /* \"https://github.com/OpenZeppelin/openzeppelin-contracts/blob/v5.0.2/contracts/token/ERC20/utils/SafeERC20.sol\":1412:1455  abi.encodeCall(token.transfer, (to, value)) */\n      add(0x24, mload(0x40))\n      tag_140\n      swap3\n      swap2\n      swap1\n      tag_130\n      jump\t// in\n    tag_140:\n      mload(0x40)\n      0x20\n      dup2\n      dup4\n      sub\n      sub\n      dup2\n      mstore\n      swap1\n      0x40\n      mstore\n      swap2\n      pop\n      0xe0\n      shl\n      0x20\n      dup3\n      add\n      dup1\n      mload\n      0xffffffffffffffffffffffffffffffffffffffffffffffffffffffff\n      dup4\n      dup2\n      dup4\n      and\n      or\n      dup4\n      mstore\n      pop\n      pop\n      pop\n      pop\n        /* \"https://github.com/OpenZeppelin/openzeppelin-contracts/blob/v5.0.2/contracts/token/ERC20/utils/SafeERC20.sol\":1385:1404  _callOptionalReturn */\n      tag_141\n        /* \"https://github.com/OpenZeppelin/openzeppelin-contracts/blob/v5.0.2/contracts/token/ERC20/utils/SafeERC20.sol\":1385:1456  _callOptionalReturn(token, abi.encodeCall(token.transfer, (to, value))) */\n      jump\t// in\n    tag_139:\n        /* \"https://github.com/OpenZeppelin/openzeppelin-contracts/blob/v5.0.2/contracts/token/ERC20/utils/SafeERC20.sol\":1303:1463  function safeTransfer(IERC20 token, address to, uint256 value) internal {... */\n      pop\n      pop\n      pop\n      jump\t// out\n        /* \"https://github.com/OpenZeppelin/openzeppelin-contracts/blob/v5.0.2/contracts/utils/math/Math.sol\":8587:10229  function sqrt(uint256 a) internal pure returns (uint256) {... */\n    tag_105:\n        /* \"https://github.com/OpenZeppelin/openzeppelin-contracts/blob/v5.0.2/contracts/utils/math/Math.sol\":8635:8642  uint256 */\n      0x00\n        /* \"https://github.com/OpenZeppelin/openzeppelin-contracts/blob/v5.0.2/contracts/utils/math/Math.sol\":8663:8664  0 */\n      0x00\n        /* \"https://github.com/OpenZeppelin/openzeppelin-contracts/blob/v5.0.2/contracts/utils/math/Math.sol\":8658:8659  a */\n      dup3\n        /* \"https://github.com/OpenZeppelin/openzeppelin-contracts/blob/v5.0.2/contracts/utils/math/Math.sol\":8658:8664  a == 0 */\n      sub\n        /* \"https://github.com/OpenZeppelin/openzeppelin-contracts/blob/v5.0.2/contracts/utils/math/Math.sol\":8654:8699  if (a == 0) {... */\n      tag_143\n      jumpi\n        /* \"https://github.com/OpenZeppelin/openzeppelin-contracts/blob/v5.0.2/contracts/utils/math/Math.sol\":8687:8688  0 */\n      0x00\n        /* \"https://github.com/OpenZeppelin/openzeppelin-contracts/blob/v5.0.2/contracts/utils/math/Math.sol\":8680:8688  return 0 */\n      swap1\n      pop\n      jump(tag_142)\n        /* \"https://github.com/OpenZeppelin/openzeppelin-contracts/blob/v5.0.2/contracts/utils/math/Math.sol\":8654:8699  if (a == 0) {... */\n    tag_143:\n        /* \"https://github.com/OpenZeppelin/openzeppelin-contracts/blob/v5.0.2/contracts/utils/math/Math.sol\":9378:9392  uint256 result */\n      0x00\n        /* \"https://github.com/OpenZeppelin/openzeppelin-contracts/blob/v5.0.2/contracts/utils/math/Math.sol\":9412:9413  1 */\n      0x01\n        /* \"https://github.com/OpenZeppelin/openzeppelin-contracts/blob/v5.0.2/contracts/utils/math/Math.sol\":9401:9408  log2(a) */\n      tag_144\n        /* \"https://github.com/OpenZeppelin/openzeppelin-contracts/blob/v5.0.2/contracts/utils/math/Math.sol\":9406:9407  a */\n      dup5\n        /* \"https://github.com/OpenZeppelin/openzeppelin-contracts/blob/v5.0.2/contracts/utils/math/Math.sol\":9401:9405  log2 */\n      tag_145\n        /* \"https://github.com/OpenZeppelin/openzeppelin-contracts/blob/v5.0.2/contracts/utils/math/Math.sol\":9401:9408  log2(a) */\n      jump\t// in\n    tag_144:\n        /* \"https://github.com/OpenZeppelin/openzeppelin-contracts/blob/v5.0.2/contracts/utils/math/Math.sol\":9401:9413  log2(a) >> 1 */\n      swap1\n      shr\n        /* \"https://github.com/OpenZeppelin/openzeppelin-contracts/blob/v5.0.2/contracts/utils/math/Math.sol\":9395:9396  1 */\n      0x01\n        /* \"https://github.com/OpenZeppelin/openzeppelin-contracts/blob/v5.0.2/contracts/utils/math/Math.sol\":9395:9414  1 << (log2(a) >> 1) */\n      swap1\n      shl\n        /* \"https://github.com/OpenZeppelin/openzeppelin-contracts/blob/v5.0.2/contracts/utils/math/Math.sol\":9378:9414  uint256 result = 1 << (log2(a) >> 1) */\n      swap1\n      pop\n        /* \"https://github.com/OpenZeppelin/openzeppelin-contracts/blob/v5.0.2/contracts/utils/math/Math.sol\":9873:9874  1 */\n      0x01\n        /* \"https://github.com/OpenZeppelin/openzeppelin-contracts/blob/v5.0.2/contracts/utils/math/Math.sol\":9862:9868  result */\n      dup2\n        /* \"https://github.com/OpenZeppelin/openzeppelin-contracts/blob/v5.0.2/contracts/utils/math/Math.sol\":9858:9859  a */\n      dup5\n        /* \"https://github.com/OpenZeppelin/openzeppelin-contracts/blob/v5.0.2/contracts/utils/math/Math.sol\":9858:9868  a / result */\n      dup2\n      tag_146\n      jumpi\n      tag_147\n      tag_148\n      jump\t// in\n    tag_147:\n    tag_146:\n      div\n        /* \"https://github.com/OpenZeppelin/openzeppelin-contracts/blob/v5.0.2/contracts/utils/math/Math.sol\":9849:9855  result */\n      dup3\n        /* \"https://github.com/OpenZeppelin/openzeppelin-contracts/blob/v5.0.2/contracts/utils/math/Math.sol\":9849:9868  result + a / result */\n      add\n        /* \"https://github.com/OpenZeppelin/openzeppelin-contracts/blob/v5.0.2/contracts/utils/math/Math.sol\":9848:9874  (result + a / result) >> 1 */\n      swap1\n      shr\n        /* \"https://github.com/OpenZeppelin/openzeppelin-contracts/blob/v5.0.2/contracts/utils/math/Math.sol\":9839:9874  result = (result + a / result) >> 1 */\n      swap1\n      pop\n        /* \"https://github.com/OpenZeppelin/openzeppelin-contracts/blob/v5.0.2/contracts/utils/math/Math.sol\":9922:9923  1 */\n      0x01\n        /* \"https://github.com/OpenZeppelin/openzeppelin-contracts/blob/v5.0.2/contracts/utils/math/Math.sol\":9911:9917  result */\n      dup2\n        /* \"https://github.com/OpenZeppelin/openzeppelin-contracts/blob/v5.0.2/contracts/utils/math/Math.sol\":9907:9908  a */\n      dup5\n        /* \"https://github.com/OpenZeppelin/openzeppelin-contracts/blob/v5.0.2/contracts/utils/math/Math.sol\":9907:9917  a / result */\n      dup2\n      tag_149\n      jumpi\n      tag_150\n      tag_148\n      jump\t// in\n    tag_150:\n    tag_149:\n      div\n        /* \"https://github.com/OpenZeppelin/openzeppelin-contracts/blob/v5.0.2/contracts/utils/math/Math.sol\":9898:9904  result */\n      dup3\n        /* \"https://github.com/OpenZeppelin/openzeppelin-contracts/blob/v5.0.2/contracts/utils/math/Math.sol\":9898:9917  result + a / result */\n      add\n        /* \"https://github.com/OpenZeppelin/openzeppelin-contracts/blob/v5.0.2/contracts/utils/math/Math.sol\":9897:9923  (result + a / result) >> 1 */\n      swap1\n      shr\n        /* \"https://github.com/OpenZeppelin/openzeppelin-contracts/blob/v5.0.2/contracts/utils/math/Math.sol\":9888:9923  result = (result + a / result) >> 1 */\n      swap1\n      pop\n        /* \"https://github.com/OpenZeppelin/openzeppelin-contracts/blob/v5.0.2/contracts/utils/math/Math.sol\":9971:9972  1 */\n      0x01\n        /* \"https://github.com/OpenZeppelin/openzeppelin-contracts/blob/v5.0.2/contracts/utils/math/Math.sol\":9960:9966  result */\n      dup2\n        /* \"https://github.com/OpenZeppelin/openzeppelin-contracts/blob/v5.0.2/contracts/utils/math/Math.sol\":9956:9957  a */\n      dup5\n        /* \"https://github.com/OpenZeppelin/openzeppelin-contracts/blob/v5.0.2/contracts/utils/math/Math.sol\":9956:9966  a / result */\n      dup2\n      tag_151\n      jumpi\n      tag_152\n      tag_148\n      jump\t// in\n    tag_152:\n    tag_151:\n      div\n        /* \"https://github.com/OpenZeppelin/openzeppelin-contracts/blob/v5.0.2/contracts/utils/math/Math.sol\":9947:9953  result */\n      dup3\n        /* \"https://github.com/OpenZeppelin/openzeppelin-contracts/blob/v5.0.2/contracts/utils/math/Math.sol\":9947:9966  result + a / result */\n      add\n        /* \"https://github.com/OpenZeppelin/openzeppelin-contracts/blob/v5.0.2/contracts/utils/math/Math.sol\":9946:9972  (result + a / result) >> 1 */\n      swap1\n      shr\n        /* \"https://github.com/OpenZeppelin/openzeppelin-contracts/blob/v5.0.2/contracts/utils/math/Math.sol\":9937:9972  result = (result + a / result) >> 1 */\n      swap1\n      pop\n        /* \"https://github.com/OpenZeppelin/openzeppelin-contracts/blob/v5.0.2/contracts/utils/math/Math.sol\":10020:10021  1 */\n      0x01\n        /* \"https://github.com/OpenZeppelin/openzeppelin-contracts/blob/v5.0.2/contracts/utils/math/Math.sol\":10009:10015  result */\n      dup2\n        /* \"https://github.com/OpenZeppelin/openzeppelin-contracts/blob/v5.0.2/contracts/utils/math/Math.sol\":10005:10006  a */\n      dup5\n        /* \"https://github.com/OpenZeppelin/openzeppelin-contracts/blob/v5.0.2/contracts/utils/math/Math.sol\":10005:10015  a / result */\n      dup2\n      tag_153\n      jumpi\n      tag_154\n      tag_148\n      jump\t// in\n    tag_154:\n    tag_153:\n      div\n        /* \"https://github.com/OpenZeppelin/openzeppelin-contracts/blob/v5.0.2/contracts/utils/math/Math.sol\":9996:10002  result */\n      dup3\n        /* \"https://github.com/OpenZeppelin/openzeppelin-contracts/blob/v5.0.2/contracts/utils/math/Math.sol\":9996:10015  result + a / result */\n      add\n        /* \"https://github.com/OpenZeppelin/openzeppelin-contracts/blob/v5.0.2/contracts/utils/math/Math.sol\":9995:10021  (result + a / result) >> 1 */\n      swap1\n      shr\n        /* \"https://github.com/OpenZeppelin/openzeppelin-contracts/blob/v5.0.2/contracts/utils/math/Math.sol\":9986:10021  result = (result + a / result) >> 1 */\n      swap1\n      pop\n        /* \"https://github.com/OpenZeppelin/openzeppelin-contracts/blob/v5.0.2/contracts/utils/math/Math.sol\":10069:10070  1 */\n      0x01\n        /* \"https://github.com/OpenZeppelin/openzeppelin-contracts/blob/v5.0.2/contracts/utils/math/Math.sol\":10058:10064  result */\n      dup2\n        /* \"https://github.com/OpenZeppelin/openzeppelin-contracts/blob/v5.0.2/contracts/utils/math/Math.sol\":10054:10055  a */\n      dup5\n        /* \"https://github.com/OpenZeppelin/openzeppelin-contracts/blob/v5.0.2/contracts/utils/math/Math.sol\":10054:10064  a / result */\n      dup2\n      tag_155\n      jumpi\n      tag_156\n      tag_148\n      jump\t// in\n    tag_156:\n    tag_155:\n      div\n        /* \"https://github.com/OpenZeppelin/openzeppelin-contracts/blob/v5.0.2/contracts/utils/math/Math.sol\":10045:10051  result */\n      dup3\n        /* \"https://github.com/OpenZeppelin/openzeppelin-contracts/blob/v5.0.2/contracts/utils/math/Math.sol\":10045:10064  result + a / result */\n      add\n        /* \"https://github.com/OpenZeppelin/openzeppelin-contracts/blob/v5.0.2/contracts/utils/math/Math.sol\":10044:10070  (result + a / result) >> 1 */\n      swap1\n      shr\n        /* \"https://github.com/OpenZeppelin/openzeppelin-contracts/blob/v5.0.2/contracts/utils/math/Math.sol\":10035:10070  result = (result + a / result) >> 1 */\n      swap1\n      pop\n        /* \"https://github.com/OpenZeppelin/openzeppelin-contracts/blob/v5.0.2/contracts/utils/math/Math.sol\":10118:10119  1 */\n      0x01\n        /* \"https://github.com/OpenZeppelin/openzeppelin-contracts/blob/v5.0.2/contracts/utils/math/Math.sol\":10107:10113  result */\n      dup2\n        /* \"https://github.com/OpenZeppelin/openzeppelin-contracts/blob/v5.0.2/contracts/utils/math/Math.sol\":10103:10104  a */\n      dup5\n        /* \"https://github.com/OpenZeppelin/openzeppelin-contracts/blob/v5.0.2/contracts/utils/math/Math.sol\":10103:10113  a / result */\n      dup2\n      tag_157\n      jumpi\n      tag_158\n      tag_148\n      jump\t// in\n    tag_158:\n    tag_157:\n      div\n        /* \"https://github.com/OpenZeppelin/openzeppelin-contracts/blob/v5.0.2/contracts/utils/math/Math.sol\":10094:10100  result */\n      dup3\n        /* \"https://github.com/OpenZeppelin/openzeppelin-contracts/blob/v5.0.2/contracts/utils/math/Math.sol\":10094:10113  result + a / result */\n      add\n        /* \"https://github.com/OpenZeppelin/openzeppelin-contracts/blob/v5.0.2/contracts/utils/math/Math.sol\":10093:10119  (result + a / result) >> 1 */\n      swap1\n      shr\n        /* \"https://github.com/OpenZeppelin/openzeppelin-contracts/blob/v5.0.2/contracts/utils/math/Math.sol\":10084:10119  result = (result + a / result) >> 1 */\n      swap1\n      pop\n        /* \"https://github.com/OpenZeppelin/openzeppelin-contracts/blob/v5.0.2/contracts/utils/math/Math.sol\":10167:10168  1 */\n      0x01\n        /* \"https://github.com/OpenZeppelin/openzeppelin-contracts/blob/v5.0.2/contracts/utils/math/Math.sol\":10156:10162  result */\n      dup2\n        /* \"https://github.com/OpenZeppelin/openzeppelin-contracts/blob/v5.0.2/contracts/utils/math/Math.sol\":10152:10153  a */\n      dup5\n        /* \"https://github.com/OpenZeppelin/openzeppelin-contracts/blob/v5.0.2/contracts/utils/math/Math.sol\":10152:10162  a / result */\n      dup2\n      tag_159\n      jumpi\n      tag_160\n      tag_148\n      jump\t// in\n    tag_160:\n    tag_159:\n      div\n        /* \"https://github.com/OpenZeppelin/openzeppelin-contracts/blob/v5.0.2/contracts/utils/math/Math.sol\":10143:10149  result */\n      dup3\n        /* \"https://github.com/OpenZeppelin/openzeppelin-contracts/blob/v5.0.2/contracts/utils/math/Math.sol\":10143:10162  result + a / result */\n      add\n        /* \"https://github.com/OpenZeppelin/openzeppelin-contracts/blob/v5.0.2/contracts/utils/math/Math.sol\":10142:10168  (result + a / result) >> 1 */\n      swap1\n      shr\n        /* \"https://github.com/OpenZeppelin/openzeppelin-contracts/blob/v5.0.2/contracts/utils/math/Math.sol\":10133:10168  result = (result + a / result) >> 1 */\n      swap1\n      pop\n        /* \"https://github.com/OpenZeppelin/openzeppelin-contracts/blob/v5.0.2/contracts/utils/math/Math.sol\":10189:10212  min(result, a / result) */\n      tag_161\n        /* \"https://github.com/OpenZeppelin/openzeppelin-contracts/blob/v5.0.2/contracts/utils/math/Math.sol\":10193:10199  result */\n      dup2\n        /* \"https://github.com/OpenZeppelin/openzeppelin-contracts/blob/v5.0.2/contracts/utils/math/Math.sol\":10205:10211  result */\n      dup3\n        /* \"https://github.com/OpenZeppelin/openzeppelin-contracts/blob/v5.0.2/contracts/utils/math/Math.sol\":10201:10202  a */\n      dup6\n        /* \"https://github.com/OpenZeppelin/openzeppelin-contracts/blob/v5.0.2/contracts/utils/math/Math.sol\":10201:10211  a / result */\n      dup2\n      tag_162\n      jumpi\n      tag_163\n      tag_148\n      jump\t// in\n    tag_163:\n    tag_162:\n      div\n        /* \"https://github.com/OpenZeppelin/openzeppelin-contracts/blob/v5.0.2/contracts/utils/math/Math.sol\":10189:10192  min */\n      tag_164\n        /* \"https://github.com/OpenZeppelin/openzeppelin-contracts/blob/v5.0.2/contracts/utils/math/Math.sol\":10189:10212  min(result, a / result) */\n      jump\t// in\n    tag_161:\n        /* \"https://github.com/OpenZeppelin/openzeppelin-contracts/blob/v5.0.2/contracts/utils/math/Math.sol\":10182:10212  return min(result, a / result) */\n      swap2\n      pop\n      pop\n        /* \"https://github.com/OpenZeppelin/openzeppelin-contracts/blob/v5.0.2/contracts/utils/math/Math.sol\":8587:10229  function sqrt(uint256 a) internal pure returns (uint256) {... */\n    tag_142:\n      swap2\n      swap1\n      pop\n      jump\t// out\n        /* \"https://github.com/OpenZeppelin/openzeppelin-contracts/blob/v5.0.2/contracts/access/Ownable.sol\":1796:1958  function _checkOwner() internal view virtual {... */\n    tag_109:\n        /* \"https://github.com/OpenZeppelin/openzeppelin-contracts/blob/v5.0.2/contracts/access/Ownable.sol\":1866:1878  _msgSender() */\n      tag_166\n        /* \"https://github.com/OpenZeppelin/openzeppelin-contracts/blob/v5.0.2/contracts/access/Ownable.sol\":1866:1876  _msgSender */\n      tag_167\n        /* \"https://github.com/OpenZeppelin/openzeppelin-contracts/blob/v5.0.2/contracts/access/Ownable.sol\":1866:1878  _msgSender() */\n      jump\t// in\n    tag_166:\n        /* \"https://github.com/OpenZeppelin/openzeppelin-contracts/blob/v5.0.2/contracts/access/Ownable.sol\":1855:1878  owner() != _msgSender() */\n      0xffffffffffffffffffffffffffffffffffffffff\n      and\n        /* \"https://github.com/OpenZeppelin/openzeppelin-contracts/blob/v5.0.2/contracts/access/Ownable.sol\":1855:1862  owner() */\n      tag_168\n        /* \"https://github.com/OpenZeppelin/openzeppelin-contracts/blob/v5.0.2/contracts/access/Ownable.sol\":1855:1860  owner */\n      tag_50\n        /* \"https://github.com/OpenZeppelin/openzeppelin-contracts/blob/v5.0.2/contracts/access/Ownable.sol\":1855:1862  owner() */\n      jump\t// in\n    tag_168:\n        /* \"https://github.com/OpenZeppelin/openzeppelin-contracts/blob/v5.0.2/contracts/access/Ownable.sol\":1855:1878  owner() != _msgSender() */\n      0xffffffffffffffffffffffffffffffffffffffff\n      and\n      eq\n        /* \"https://github.com/OpenZeppelin/openzeppelin-contracts/blob/v5.0.2/contracts/access/Ownable.sol\":1851:1952  if (owner() != _msgSender()) {... */\n      tag_169\n      jumpi\n        /* \"https://github.com/OpenZeppelin/openzeppelin-contracts/blob/v5.0.2/contracts/access/Ownable.sol\":1928:1940  _msgSender() */\n      tag_170\n        /* \"https://github.com/OpenZeppelin/openzeppelin-contracts/blob/v5.0.2/contracts/access/Ownable.sol\":1928:1938  _msgSender */\n      tag_167\n        /* \"https://github.com/OpenZeppelin/openzeppelin-contracts/blob/v5.0.2/contracts/access/Ownable.sol\":1928:1940  _msgSender() */\n      jump\t// in\n    tag_170:\n        /* \"https://github.com/OpenZeppelin/openzeppelin-contracts/blob/v5.0.2/contracts/access/Ownable.sol\":1901:1941  OwnableUnauthorizedAccount(_msgSender()) */\n      mload(0x40)\n      0x118cdaa700000000000000000000000000000000000000000000000000000000\n      dup2\n      mstore\n      0x04\n      add\n      tag_171\n      swap2\n      swap1\n      tag_52\n      jump\t// in\n    tag_171:\n      mload(0x40)\n      dup1\n      swap2\n      sub\n      swap1\n      revert\n        /* \"https://github.com/OpenZeppelin/openzeppelin-contracts/blob/v5.0.2/contracts/access/Ownable.sol\":1851:1952  if (owner() != _msgSender()) {... */\n    tag_169:\n        /* \"https://github.com/OpenZeppelin/openzeppelin-contracts/blob/v5.0.2/contracts/access/Ownable.sol\":1796:1958  function _checkOwner() internal view virtual {... */\n      jump\t// out\n        /* \"https://github.com/OpenZeppelin/openzeppelin-contracts/blob/v5.0.2/contracts/access/Ownable.sol\":2912:3099  function _transferOwnership(address newOwner) internal virtual {... */\n    tag_115:\n        /* \"https://github.com/OpenZeppelin/openzeppelin-contracts/blob/v5.0.2/contracts/access/Ownable.sol\":2985:3001  address oldOwner */\n      0x00\n        /* \"https://github.com/OpenZeppelin/openzeppelin-contracts/blob/v5.0.2/contracts/access/Ownable.sol\":3004:3010  _owner */\n      0x00\n      0x00\n      swap1\n      sload\n      swap1\n      0x0100\n      exp\n      swap1\n      div\n      0xffffffffffffffffffffffffffffffffffffffff\n      and\n        /* \"https://github.com/OpenZeppelin/openzeppelin-contracts/blob/v5.0.2/contracts/access/Ownable.sol\":2985:3010  address oldOwner = _owner */\n      swap1\n      pop\n        /* \"https://github.com/OpenZeppelin/openzeppelin-contracts/blob/v5.0.2/contracts/access/Ownable.sol\":3029:3037  newOwner */\n      dup2\n        /* \"https://github.com/OpenZeppelin/openzeppelin-contracts/blob/v5.0.2/contracts/access/Ownable.sol\":3020:3026  _owner */\n      0x00\n      0x00\n        /* \"https://github.com/OpenZeppelin/openzeppelin-contracts/blob/v5.0.2/contracts/access/Ownable.sol\":3020:3037  _owner = newOwner */\n      0x0100\n      exp\n      dup2\n      sload\n      dup2\n      0xffffffffffffffffffffffffffffffffffffffff\n      mul\n      not\n      and\n      swap1\n      dup4\n      0xffffffffffffffffffffffffffffffffffffffff\n      and\n      mul\n      or\n      swap1\n      sstore\n      pop\n        /* \"https://github.com/OpenZeppelin/openzeppelin-contracts/blob/v5.0.2/contracts/access/Ownable.sol\":3083:3091  newOwner */\n      dup2\n        /* \"https://github.com/OpenZeppelin/openzeppelin-contracts/blob/v5.0.2/contracts/access/Ownable.sol\":3052:3092  OwnershipTransferred(oldOwner, newOwner) */\n      0xffffffffffffffffffffffffffffffffffffffff\n      and\n        /* \"https://github.com/OpenZeppelin/openzeppelin-contracts/blob/v5.0.2/contracts/access/Ownable.sol\":3073:3081  oldOwner */\n      dup2\n        /* \"https://github.com/OpenZeppelin/openzeppelin-contracts/blob/v5.0.2/contracts/access/Ownable.sol\":3052:3092  OwnershipTransferred(oldOwner, newOwner) */\n      0xffffffffffffffffffffffffffffffffffffffff\n      and\n      0x8be0079c531659141344cd1fd0a4f28419497f9722a3daafe3b4186f6b6457e0\n      mload(0x40)\n      mload(0x40)\n      dup1\n      swap2\n      sub\n      swap1\n      log3\n        /* \"https://github.com/OpenZeppelin/openzeppelin-contracts/blob/v5.0.2/contracts/access/Ownable.sol\":2975:3099  {... */\n      pop\n        /* \"https://github.com/OpenZeppelin/openzeppelin-contracts/blob/v5.0.2/contracts/access/Ownable.sol\":2912:3099  function _transferOwnership(address newOwner) internal virtual {... */\n      pop\n      jump\t// out\n        /* \"https://github.com/OpenZeppelin/openzeppelin-contracts/blob/v5.0.2/contracts/token/ERC20/utils/SafeERC20.sol\":4059:4688  function _callOptionalReturn(IERC20 token, bytes memory data) private {... */\n    tag_141:\n        /* \"https://github.com/OpenZeppelin/openzeppelin-contracts/blob/v5.0.2/contracts/token/ERC20/utils/SafeERC20.sol\":4478:4501  bytes memory returndata */\n      0x00\n        /* \"https://github.com/OpenZeppelin/openzeppelin-contracts/blob/v5.0.2/contracts/token/ERC20/utils/SafeERC20.sol\":4504:4537  address(token).functionCall(data) */\n      tag_174\n        /* \"https://github.com/OpenZeppelin/openzeppelin-contracts/blob/v5.0.2/contracts/token/ERC20/utils/SafeERC20.sol\":4532:4536  data */\n      dup3\n        /* \"https://github.com/OpenZeppelin/openzeppelin-contracts/blob/v5.0.2/contracts/token/ERC20/utils/SafeERC20.sol\":4512:4517  token */\n      dup5\n        /* \"https://github.com/OpenZeppelin/openzeppelin-contracts/blob/v5.0.2/contracts/token/ERC20/utils/SafeERC20.sol\":4504:4531  address(token).functionCall */\n      0xffffffffffffffffffffffffffffffffffffffff\n      and\n      tag_175\n      swap1\n        /* \"https://github.com/OpenZeppelin/openzeppelin-contracts/blob/v5.0.2/contracts/token/ERC20/utils/SafeERC20.sol\":4504:4537  address(token).functionCall(data) */\n      swap2\n      swap1\n      0xffffffff\n      and\n      jump\t// in\n    tag_174:\n        /* \"https://github.com/OpenZeppelin/openzeppelin-contracts/blob/v5.0.2/contracts/token/ERC20/utils/SafeERC20.sol\":4478:4537  bytes memory returndata = address(token).functionCall(data) */\n      swap1\n      pop\n        /* \"https://github.com/OpenZeppelin/openzeppelin-contracts/blob/v5.0.2/contracts/token/ERC20/utils/SafeERC20.sol\":4572:4573  0 */\n      0x00\n        /* \"https://github.com/OpenZeppelin/openzeppelin-contracts/blob/v5.0.2/contracts/token/ERC20/utils/SafeERC20.sol\":4551:4561  returndata */\n      dup2\n        /* \"https://github.com/OpenZeppelin/openzeppelin-contracts/blob/v5.0.2/contracts/token/ERC20/utils/SafeERC20.sol\":4551:4568  returndata.length */\n      mload\n        /* \"https://github.com/OpenZeppelin/openzeppelin-contracts/blob/v5.0.2/contracts/token/ERC20/utils/SafeERC20.sol\":4551:4573  returndata.length != 0 */\n      eq\n      iszero\n        /* \"https://github.com/OpenZeppelin/openzeppelin-contracts/blob/v5.0.2/contracts/token/ERC20/utils/SafeERC20.sol\":4551:4608  returndata.length != 0 && !abi.decode(returndata, (bool)) */\n      dup1\n      iszero\n      tag_176\n      jumpi\n      pop\n        /* \"https://github.com/OpenZeppelin/openzeppelin-contracts/blob/v5.0.2/contracts/token/ERC20/utils/SafeERC20.sol\":4589:4599  returndata */\n      dup1\n        /* \"https://github.com/OpenZeppelin/openzeppelin-contracts/blob/v5.0.2/contracts/token/ERC20/utils/SafeERC20.sol\":4578:4608  abi.decode(returndata, (bool)) */\n      dup1\n      0x20\n      add\n      swap1\n      mload\n      dup2\n      add\n      swap1\n      tag_177\n      swap2\n      swap1\n      tag_178\n      jump\t// in\n    tag_177:\n        /* \"https://github.com/OpenZeppelin/openzeppelin-contracts/blob/v5.0.2/contracts/token/ERC20/utils/SafeERC20.sol\":4577:4608  !abi.decode(returndata, (bool)) */\n      iszero\n        /* \"https://github.com/OpenZeppelin/openzeppelin-contracts/blob/v5.0.2/contracts/token/ERC20/utils/SafeERC20.sol\":4551:4608  returndata.length != 0 && !abi.decode(returndata, (bool)) */\n    tag_176:\n        /* \"https://github.com/OpenZeppelin/openzeppelin-contracts/blob/v5.0.2/contracts/token/ERC20/utils/SafeERC20.sol\":4547:4682  if (returndata.length != 0 && !abi.decode(returndata, (bool))) {... */\n      iszero\n      tag_179\n      jumpi\n        /* \"https://github.com/OpenZeppelin/openzeppelin-contracts/blob/v5.0.2/contracts/token/ERC20/utils/SafeERC20.sol\":4664:4669  token */\n      dup3\n        /* \"https://github.com/OpenZeppelin/openzeppelin-contracts/blob/v5.0.2/contracts/token/ERC20/utils/SafeERC20.sol\":4631:4671  SafeERC20FailedOperation(address(token)) */\n      mload(0x40)\n      0x5274afe700000000000000000000000000000000000000000000000000000000\n      dup2\n      mstore\n      0x04\n      add\n      tag_180\n      swap2\n      swap1\n      tag_52\n      jump\t// in\n    tag_180:\n      mload(0x40)\n      dup1\n      swap2\n      sub\n      swap1\n      revert\n        /* \"https://github.com/OpenZeppelin/openzeppelin-contracts/blob/v5.0.2/contracts/token/ERC20/utils/SafeERC20.sol\":4547:4682  if (returndata.length != 0 && !abi.decode(returndata, (bool))) {... */\n    tag_179:\n        /* \"https://github.com/OpenZeppelin/openzeppelin-contracts/blob/v5.0.2/contracts/token/ERC20/utils/SafeERC20.sol\":4129:4688  {... */\n      pop\n        /* \"https://github.com/OpenZeppelin/openzeppelin-contracts/blob/v5.0.2/contracts/token/ERC20/utils/SafeERC20.sol\":4059:4688  function _callOptionalReturn(IERC20 token, bytes memory data) private {... */\n      pop\n      pop\n      jump\t// out\n        /* \"https://github.com/OpenZeppelin/openzeppelin-contracts/blob/v5.0.2/contracts/utils/math/Math.sol\":10699:11682  function log2(uint256 value) internal pure returns (uint256) {... */\n    tag_145:\n        /* \"https://github.com/OpenZeppelin/openzeppelin-contracts/blob/v5.0.2/contracts/utils/math/Math.sol\":10751:10758  uint256 */\n      0x00\n        /* \"https://github.com/OpenZeppelin/openzeppelin-contracts/blob/v5.0.2/contracts/utils/math/Math.sol\":10770:10784  uint256 result */\n      0x00\n        /* \"https://github.com/OpenZeppelin/openzeppelin-contracts/blob/v5.0.2/contracts/utils/math/Math.sol\":10787:10788  0 */\n      0x00\n        /* \"https://github.com/OpenZeppelin/openzeppelin-contracts/blob/v5.0.2/contracts/utils/math/Math.sol\":10770:10788  uint256 result = 0 */\n      swap1\n      pop\n        /* \"https://github.com/OpenZeppelin/openzeppelin-contracts/blob/v5.0.2/contracts/utils/math/Math.sol\":10841:10842  0 */\n      0x00\n        /* \"https://github.com/OpenZeppelin/openzeppelin-contracts/blob/v5.0.2/contracts/utils/math/Math.sol\":10835:10838  128 */\n      0x80\n        /* \"https://github.com/OpenZeppelin/openzeppelin-contracts/blob/v5.0.2/contracts/utils/math/Math.sol\":10826:10831  value */\n      dup5\n        /* \"https://github.com/OpenZeppelin/openzeppelin-contracts/blob/v5.0.2/contracts/utils/math/Math.sol\":10826:10838  value >> 128 */\n      swap1\n      shr\n        /* \"https://github.com/OpenZeppelin/openzeppelin-contracts/blob/v5.0.2/contracts/utils/math/Math.sol\":10826:10842  value >> 128 > 0 */\n      gt\n        /* \"https://github.com/OpenZeppelin/openzeppelin-contracts/blob/v5.0.2/contracts/utils/math/Math.sol\":10822:10921  if (value >> 128 > 0) {... */\n      iszero\n      tag_182\n      jumpi\n        /* \"https://github.com/OpenZeppelin/openzeppelin-contracts/blob/v5.0.2/contracts/utils/math/Math.sol\":10872:10875  128 */\n      0x80\n        /* \"https://github.com/OpenZeppelin/openzeppelin-contracts/blob/v5.0.2/contracts/utils/math/Math.sol\":10862:10875  value >>= 128 */\n      dup4\n      swap1\n      shr\n      swap3\n      pop\n        /* \"https://github.com/OpenZeppelin/openzeppelin-contracts/blob/v5.0.2/contracts/utils/math/Math.sol\":10903:10906  128 */\n      0x80\n        /* \"https://github.com/OpenZeppelin/openzeppelin-contracts/blob/v5.0.2/contracts/utils/math/Math.sol\":10893:10906  result += 128 */\n      dup2\n      add\n      swap1\n      pop\n        /* \"https://github.com/OpenZeppelin/openzeppelin-contracts/blob/v5.0.2/contracts/utils/math/Math.sol\":10822:10921  if (value >> 128 > 0) {... */\n    tag_182:\n        /* \"https://github.com/OpenZeppelin/openzeppelin-contracts/blob/v5.0.2/contracts/utils/math/Math.sol\":10952:10953  0 */\n      0x00\n        /* \"https://github.com/OpenZeppelin/openzeppelin-contracts/blob/v5.0.2/contracts/utils/math/Math.sol\":10947:10949  64 */\n      0x40\n        /* \"https://github.com/OpenZeppelin/openzeppelin-contracts/blob/v5.0.2/contracts/utils/math/Math.sol\":10938:10943  value */\n      dup5\n        /* \"https://github.com/OpenZeppelin/openzeppelin-contracts/blob/v5.0.2/contracts/utils/math/Math.sol\":10938:10949  value >> 64 */\n      swap1\n      shr\n        /* \"https://github.com/OpenZeppelin/openzeppelin-contracts/blob/v5.0.2/contracts/utils/math/Math.sol\":10938:10953  value >> 64 > 0 */\n      gt\n        /* \"https://github.com/OpenZeppelin/openzeppelin-contracts/blob/v5.0.2/contracts/utils/math/Math.sol\":10934:11030  if (value >> 64 > 0) {... */\n      iszero\n      tag_183\n      jumpi\n        /* \"https://github.com/OpenZeppelin/openzeppelin-contracts/blob/v5.0.2/contracts/utils/math/Math.sol\":10983:10985  64 */\n      0x40\n        /* \"https://github.com/OpenZeppelin/openzeppelin-contracts/blob/v5.0.2/contracts/utils/math/Math.sol\":10973:10985  value >>= 64 */\n      dup4\n      swap1\n      shr\n      swap3\n      pop\n        /* \"https://github.com/OpenZeppelin/openzeppelin-contracts/blob/v5.0.2/contracts/utils/math/Math.sol\":11013:11015  64 */\n      0x40\n        /* \"https://github.com/OpenZeppelin/openzeppelin-contracts/blob/v5.0.2/contracts/utils/math/Math.sol\":11003:11015  result += 64 */\n      dup2\n      add\n      swap1\n      pop\n        /* \"https://github.com/OpenZeppelin/openzeppelin-contracts/blob/v5.0.2/contracts/utils/math/Math.sol\":10934:11030  if (value >> 64 > 0) {... */\n    tag_183:\n        /* \"https://github.com/OpenZeppelin/openzeppelin-contracts/blob/v5.0.2/contracts/utils/math/Math.sol\":11061:11062  0 */\n      0x00\n        /* \"https://github.com/OpenZeppelin/openzeppelin-contracts/blob/v5.0.2/contracts/utils/math/Math.sol\":11056:11058  32 */\n      0x20\n        /* \"https://github.com/OpenZeppelin/openzeppelin-contracts/blob/v5.0.2/contracts/utils/math/Math.sol\":11047:11052  value */\n      dup5\n        /* \"https://github.com/OpenZeppelin/openzeppelin-contracts/blob/v5.0.2/contracts/utils/math/Math.sol\":11047:11058  value >> 32 */\n      swap1\n      shr\n        /* \"https://github.com/OpenZeppelin/openzeppelin-contracts/blob/v5.0.2/contracts/utils/math/Math.sol\":11047:11062  value >> 32 > 0 */\n      gt\n        /* \"https://github.com/OpenZeppelin/openzeppelin-contracts/blob/v5.0.2/contracts/utils/math/Math.sol\":11043:11139  if (value >> 32 > 0) {... */\n      iszero\n      tag_184\n      jumpi\n        /* \"https://github.com/OpenZeppelin/openzeppelin-contracts/blob/v5.0.2/contracts/utils/math/Math.sol\":11092:11094  32 */\n      0x20\n        /* \"https://github.com/OpenZeppelin/openzeppelin-contracts/blob/v5.0.2/contracts/utils/math/Math.sol\":11082:11094  value >>= 32 */\n      dup4\n      swap1\n      shr\n      swap3\n      pop\n        /* \"https://github.com/OpenZeppelin/openzeppelin-contracts/blob/v5.0.2/contracts/utils/math/Math.sol\":11122:11124  32 */\n      0x20\n        /* \"https://github.com/OpenZeppelin/openzeppelin-contracts/blob/v5.0.2/contracts/utils/math/Math.sol\":11112:11124  result += 32 */\n      dup2\n      add\n      swap1\n      pop\n        /* \"https://github.com/OpenZeppelin/openzeppelin-contracts/blob/v5.0.2/contracts/utils/math/Math.sol\":11043:11139  if (value >> 32 > 0) {... */\n    tag_184:\n        /* \"https://github.com/OpenZeppelin/openzeppelin-contracts/blob/v5.0.2/contracts/utils/math/Math.sol\":11170:11171  0 */\n      0x00\n        /* \"https://github.com/OpenZeppelin/openzeppelin-contracts/blob/v5.0.2/contracts/utils/math/Math.sol\":11165:11167  16 */\n      0x10\n        /* \"https://github.com/OpenZeppelin/openzeppelin-contracts/blob/v5.0.2/contracts/utils/math/Math.sol\":11156:11161  value */\n      dup5\n        /* \"https://github.com/OpenZeppelin/openzeppelin-contracts/blob/v5.0.2/contracts/utils/math/Math.sol\":11156:11167  value >> 16 */\n      swap1\n      shr\n        /* \"https://github.com/OpenZeppelin/openzeppelin-contracts/blob/v5.0.2/contracts/utils/math/Math.sol\":11156:11171  value >> 16 > 0 */\n      gt\n        /* \"https://github.com/OpenZeppelin/openzeppelin-contracts/blob/v5.0.2/contracts/utils/math/Math.sol\":11152:11248  if (value >> 16 > 0) {... */\n      iszero\n      tag_185\n      jumpi\n        /* \"https://github.com/OpenZeppelin/openzeppelin-contracts/blob/v5.0.2/contracts/utils/math/Math.sol\":11201:11203  16 */\n      0x10\n        /* \"https://github.com/OpenZeppelin/openzeppelin-contracts/blob/v5.0.2/contracts/utils/math/Math.sol\":11191:11203  value >>= 16 */\n      dup4\n      swap1\n      shr\n      swap3\n      pop\n        /* \"https://github.com/OpenZeppelin/openzeppelin-contracts/blob/v5.0.2/contracts/utils/math/Math.sol\":11231:11233  16 */\n      0x10\n        /* \"https://github.com/OpenZeppelin/openzeppelin-contracts/blob/v5.0.2/contracts/utils/math/Math.sol\":11221:11233  result += 16 */\n      dup2\n      add\n      swap1\n      pop\n        /* \"https://github.com/OpenZeppelin/openzeppelin-contracts/blob/v5.0.2/contracts/utils/math/Math.sol\":11152:11248  if (value >> 16 > 0) {... */\n    tag_185:\n        /* \"https://github.com/OpenZeppelin/openzeppelin-contracts/blob/v5.0.2/contracts/utils/math/Math.sol\":11278:11279  0 */\n      0x00\n        /* \"https://github.com/OpenZeppelin/openzeppelin-contracts/blob/v5.0.2/contracts/utils/math/Math.sol\":11274:11275  8 */\n      0x08\n        /* \"https://github.com/OpenZeppelin/openzeppelin-contracts/blob/v5.0.2/contracts/utils/math/Math.sol\":11265:11270  value */\n      dup5\n        /* \"https://github.com/OpenZeppelin/openzeppelin-contracts/blob/v5.0.2/contracts/utils/math/Math.sol\":11265:11275  value >> 8 */\n      swap1\n      shr\n        /* \"https://github.com/OpenZeppelin/openzeppelin-contracts/blob/v5.0.2/contracts/utils/math/Math.sol\":11265:11279  value >> 8 > 0 */\n      gt\n        /* \"https://github.com/OpenZeppelin/openzeppelin-contracts/blob/v5.0.2/contracts/utils/math/Math.sol\":11261:11354  if (value >> 8 > 0) {... */\n      iszero\n      tag_186\n      jumpi\n        /* \"https://github.com/OpenZeppelin/openzeppelin-contracts/blob/v5.0.2/contracts/utils/math/Math.sol\":11309:11310  8 */\n      0x08\n        /* \"https://github.com/OpenZeppelin/openzeppelin-contracts/blob/v5.0.2/contracts/utils/math/Math.sol\":11299:11310  value >>= 8 */\n      dup4\n      swap1\n      shr\n      swap3\n      pop\n        /* \"https://github.com/OpenZeppelin/openzeppelin-contracts/blob/v5.0.2/contracts/utils/math/Math.sol\":11338:11339  8 */\n      0x08\n        /* \"https://github.com/OpenZeppelin/openzeppelin-contracts/blob/v5.0.2/contracts/utils/math/Math.sol\":11328:11339  result += 8 */\n      dup2\n      add\n      swap1\n      pop\n        /* \"https://github.com/OpenZeppelin/openzeppelin-contracts/blob/v5.0.2/contracts/utils/math/Math.sol\":11261:11354  if (value >> 8 > 0) {... */\n    tag_186:\n        /* \"https://github.com/OpenZeppelin/openzeppelin-contracts/blob/v5.0.2/contracts/utils/math/Math.sol\":11384:11385  0 */\n      0x00\n        /* \"https://github.com/OpenZeppelin/openzeppelin-contracts/blob/v5.0.2/contracts/utils/math/Math.sol\":11380:11381  4 */\n      0x04\n        /* \"https://github.com/OpenZeppelin/openzeppelin-contracts/blob/v5.0.2/contracts/utils/math/Math.sol\":11371:11376  value */\n      dup5\n        /* \"https://github.com/OpenZeppelin/openzeppelin-contracts/blob/v5.0.2/contracts/utils/math/Math.sol\":11371:11381  value >> 4 */\n      swap1\n      shr\n        /* \"https://github.com/OpenZeppelin/openzeppelin-contracts/blob/v5.0.2/contracts/utils/math/Math.sol\":11371:11385  value >> 4 > 0 */\n      gt\n        /* \"https://github.com/OpenZeppelin/openzeppelin-contracts/blob/v5.0.2/contracts/utils/math/Math.sol\":11367:11460  if (value >> 4 > 0) {... */\n      iszero\n      tag_187\n      jumpi\n        /* \"https://github.com/OpenZeppelin/openzeppelin-contracts/blob/v5.0.2/contracts/utils/math/Math.sol\":11415:11416  4 */\n      0x04\n        /* \"https://github.com/OpenZeppelin/openzeppelin-contracts/blob/v5.0.2/contracts/utils/math/Math.sol\":11405:11416  value >>= 4 */\n      dup4\n      swap1\n      shr\n      swap3\n      pop\n        /* \"https://github.com/OpenZeppelin/openzeppelin-contracts/blob/v5.0.2/contracts/utils/math/Math.sol\":11444:11445  4 */\n      0x04\n        /* \"https://github.com/OpenZeppelin/openzeppelin-contracts/blob/v5.0.2/contracts/utils/math/Math.sol\":11434:11445  result += 4 */\n      dup2\n      add\n      swap1\n      pop\n        /* \"https://github.com/OpenZeppelin/openzeppelin-contracts/blob/v5.0.2/contracts/utils/math/Math.sol\":11367:11460  if (value >> 4 > 0) {... */\n    tag_187:\n        /* \"https://github.com/OpenZeppelin/openzeppelin-contracts/blob/v5.0.2/contracts/utils/math/Math.sol\":11490:11491  0 */\n      0x00\n        /* \"https://github.com/OpenZeppelin/openzeppelin-contracts/blob/v5.0.2/contracts/utils/math/Math.sol\":11486:11487  2 */\n      0x02\n        /* \"https://github.com/OpenZeppelin/openzeppelin-contracts/blob/v5.0.2/contracts/utils/math/Math.sol\":11477:11482  value */\n      dup5\n        /* \"https://github.com/OpenZeppelin/openzeppelin-contracts/blob/v5.0.2/contracts/utils/math/Math.sol\":11477:11487  value >> 2 */\n      swap1\n      shr\n        /* \"https://github.com/OpenZeppelin/openzeppelin-contracts/blob/v5.0.2/contracts/utils/math/Math.sol\":11477:11491  value >> 2 > 0 */\n      gt\n        /* \"https://github.com/OpenZeppelin/openzeppelin-contracts/blob/v5.0.2/contracts/utils/math/Math.sol\":11473:11566  if (value >> 2 > 0) {... */\n      iszero\n      tag_188\n      jumpi\n        /* \"https://github.com/OpenZeppelin/openzeppelin-contracts/blob/v5.0.2/contracts/utils/math/Math.sol\":11521:11522  2 */\n      0x02\n        /* \"https://github.com/OpenZeppelin/openzeppelin-contracts/blob/v5.0.2/contracts/utils/math/Math.sol\":11511:11522  value >>= 2 */\n      dup4\n      swap1\n      shr\n      swap3\n      pop\n        /* \"https://github.com/OpenZeppelin/openzeppelin-contracts/blob/v5.0.2/contracts/utils/math/Math.sol\":11550:11551  2 */\n      0x02\n        /* \"https://github.com/OpenZeppelin/openzeppelin-contracts/blob/v5.0.2/contracts/utils/math/Math.sol\":11540:11551  result += 2 */\n      dup2\n      add\n      swap1\n      pop\n        /* \"https://github.com/OpenZeppelin/openzeppelin-contracts/blob/v5.0.2/contracts/utils/math/Math.sol\":11473:11566  if (value >> 2 > 0) {... */\n    tag_188:\n        /* \"https://github.com/OpenZeppelin/openzeppelin-contracts/blob/v5.0.2/contracts/utils/math/Math.sol\":11596:11597  0 */\n      0x00\n        /* \"https://github.com/OpenZeppelin/openzeppelin-contracts/blob/v5.0.2/contracts/utils/math/Math.sol\":11592:11593  1 */\n      0x01\n        /* \"https://github.com/OpenZeppelin/openzeppelin-contracts/blob/v5.0.2/contracts/utils/math/Math.sol\":11583:11588  value */\n      dup5\n        /* \"https://github.com/OpenZeppelin/openzeppelin-contracts/blob/v5.0.2/contracts/utils/math/Math.sol\":11583:11593  value >> 1 */\n      swap1\n      shr\n        /* \"https://github.com/OpenZeppelin/openzeppelin-contracts/blob/v5.0.2/contracts/utils/math/Math.sol\":11583:11597  value >> 1 > 0 */\n      gt\n        /* \"https://github.com/OpenZeppelin/openzeppelin-contracts/blob/v5.0.2/contracts/utils/math/Math.sol\":11579:11643  if (value >> 1 > 0) {... */\n      iszero\n      tag_189\n      jumpi\n        /* \"https://github.com/OpenZeppelin/openzeppelin-contracts/blob/v5.0.2/contracts/utils/math/Math.sol\":11627:11628  1 */\n      0x01\n        /* \"https://github.com/OpenZeppelin/openzeppelin-contracts/blob/v5.0.2/contracts/utils/math/Math.sol\":11617:11628  result += 1 */\n      dup2\n      add\n      swap1\n      pop\n        /* \"https://github.com/OpenZeppelin/openzeppelin-contracts/blob/v5.0.2/contracts/utils/math/Math.sol\":11579:11643  if (value >> 1 > 0) {... */\n    tag_189:\n        /* \"https://github.com/OpenZeppelin/openzeppelin-contracts/blob/v5.0.2/contracts/utils/math/Math.sol\":11669:11675  result */\n      dup1\n        /* \"https://github.com/OpenZeppelin/openzeppelin-contracts/blob/v5.0.2/contracts/utils/math/Math.sol\":11662:11675  return result */\n      swap2\n      pop\n      pop\n        /* \"https://github.com/OpenZeppelin/openzeppelin-contracts/blob/v5.0.2/contracts/utils/math/Math.sol\":10699:11682  function log2(uint256 value) internal pure returns (uint256) {... */\n      swap2\n      swap1\n      pop\n      jump\t// out\n        /* \"https://github.com/OpenZeppelin/openzeppelin-contracts/blob/v5.0.2/contracts/utils/math/Math.sol\":2557:2661  function min(uint256 a, uint256 b) internal pure returns (uint256) {... */\n    tag_164:\n        /* \"https://github.com/OpenZeppelin/openzeppelin-contracts/blob/v5.0.2/contracts/utils/math/Math.sol\":2615:2622  uint256 */\n      0x00\n        /* \"https://github.com/OpenZeppelin/openzeppelin-contracts/blob/v5.0.2/contracts/utils/math/Math.sol\":2645:2646  b */\n      dup2\n        /* \"https://github.com/OpenZeppelin/openzeppelin-contracts/blob/v5.0.2/contracts/utils/math/Math.sol\":2641:2642  a */\n      dup4\n        /* \"https://github.com/OpenZeppelin/openzeppelin-contracts/blob/v5.0.2/contracts/utils/math/Math.sol\":2641:2646  a < b */\n      lt\n        /* \"https://github.com/OpenZeppelin/openzeppelin-contracts/blob/v5.0.2/contracts/utils/math/Math.sol\":2641:2654  a < b ? a : b */\n      tag_191\n      jumpi\n        /* \"https://github.com/OpenZeppelin/openzeppelin-contracts/blob/v5.0.2/contracts/utils/math/Math.sol\":2653:2654  b */\n      dup2\n        /* \"https://github.com/OpenZeppelin/openzeppelin-contracts/blob/v5.0.2/contracts/utils/math/Math.sol\":2641:2654  a < b ? a : b */\n      jump(tag_192)\n    tag_191:\n        /* \"https://github.com/OpenZeppelin/openzeppelin-contracts/blob/v5.0.2/contracts/utils/math/Math.sol\":2649:2650  a */\n      dup3\n        /* \"https://github.com/OpenZeppelin/openzeppelin-contracts/blob/v5.0.2/contracts/utils/math/Math.sol\":2641:2654  a < b ? a : b */\n    tag_192:\n        /* \"https://github.com/OpenZeppelin/openzeppelin-contracts/blob/v5.0.2/contracts/utils/math/Math.sol\":2634:2654  return a < b ? a : b */\n      swap1\n      pop\n        /* \"https://github.com/OpenZeppelin/openzeppelin-contracts/blob/v5.0.2/contracts/utils/math/Math.sol\":2557:2661  function min(uint256 a, uint256 b) internal pure returns (uint256) {... */\n      swap3\n      swap2\n      pop\n      pop\n      jump\t// out\n        /* \"https://github.com/OpenZeppelin/openzeppelin-contracts/blob/v5.0.2/contracts/utils/Context.sol\":656:752  function _msgSender() internal view virtual returns (address) {... */\n    tag_167:\n        /* \"https://github.com/OpenZeppelin/openzeppelin-contracts/blob/v5.0.2/contracts/utils/Context.sol\":709:716  address */\n      0x00\n        /* \"https://github.com/OpenZeppelin/openzeppelin-contracts/blob/v5.0.2/contracts/utils/Context.sol\":735:745  msg.sender */\n      caller\n        /* \"https://github.com/OpenZeppelin/openzeppelin-contracts/blob/v5.0.2/contracts/utils/Context.sol\":728:745  return msg.sender */\n      swap1\n      pop\n        /* \"https://github.com/OpenZeppelin/openzeppelin-contracts/blob/v5.0.2/contracts/utils/Context.sol\":656:752  function _msgSender() internal view virtual returns (address) {... */\n      swap1\n      jump\t// out\n        /* \"https://github.com/OpenZeppelin/openzeppelin-contracts/blob/v5.0.2/contracts/utils/Address.sol\":2705:2856  function functionCall(address target, bytes memory data) internal returns (bytes memory) {... */\n    tag_175:\n        /* \"https://github.com/OpenZeppelin/openzeppelin-contracts/blob/v5.0.2/contracts/utils/Address.sol\":2780:2792  bytes memory */\n      0x60\n        /* \"https://github.com/OpenZeppelin/openzeppelin-contracts/blob/v5.0.2/contracts/utils/Address.sol\":2811:2849  functionCallWithValue(target, data, 0) */\n      tag_195\n        /* \"https://github.com/OpenZeppelin/openzeppelin-contracts/blob/v5.0.2/contracts/utils/Address.sol\":2833:2839  target */\n      dup4\n        /* \"https://github.com/OpenZeppelin/openzeppelin-contracts/blob/v5.0.2/contracts/utils/Address.sol\":2841:2845  data */\n      dup4\n        /* \"https://github.com/OpenZeppelin/openzeppelin-contracts/blob/v5.0.2/contracts/utils/Address.sol\":2847:2848  0 */\n      0x00\n        /* \"https://github.com/OpenZeppelin/openzeppelin-contracts/blob/v5.0.2/contracts/utils/Address.sol\":2811:2832  functionCallWithValue */\n      tag_196\n        /* \"https://github.com/OpenZeppelin/openzeppelin-contracts/blob/v5.0.2/contracts/utils/Address.sol\":2811:2849  functionCallWithValue(target, data, 0) */\n      jump\t// in\n    tag_195:\n        /* \"https://github.com/OpenZeppelin/openzeppelin-contracts/blob/v5.0.2/contracts/utils/Address.sol\":2804:2849  return functionCallWithValue(target, data, 0) */\n      swap1\n      pop\n        /* \"https://github.com/OpenZeppelin/openzeppelin-contracts/blob/v5.0.2/contracts/utils/Address.sol\":2705:2856  function functionCall(address target, bytes memory data) internal returns (bytes memory) {... */\n      swap3\n      swap2\n      pop\n      pop\n      jump\t// out\n        /* \"https://github.com/OpenZeppelin/openzeppelin-contracts/blob/v5.0.2/contracts/utils/Address.sol\":3180:3572  function functionCallWithValue(address target, bytes memory data, uint256 value) internal returns (bytes memory) {... */\n    tag_196:\n        /* \"https://github.com/OpenZeppelin/openzeppelin-contracts/blob/v5.0.2/contracts/utils/Address.sol\":3279:3291  bytes memory */\n      0x60\n        /* \"https://github.com/OpenZeppelin/openzeppelin-contracts/blob/v5.0.2/contracts/utils/Address.sol\":3331:3336  value */\n      dup2\n        /* \"https://github.com/OpenZeppelin/openzeppelin-contracts/blob/v5.0.2/contracts/utils/Address.sol\":3307:3328  address(this).balance */\n      selfbalance\n        /* \"https://github.com/OpenZeppelin/openzeppelin-contracts/blob/v5.0.2/contracts/utils/Address.sol\":3307:3336  address(this).balance < value */\n      lt\n        /* \"https://github.com/OpenZeppelin/openzeppelin-contracts/blob/v5.0.2/contracts/utils/Address.sol\":3303:3411  if (address(this).balance < value) {... */\n      iszero\n      tag_198\n      jumpi\n        /* \"https://github.com/OpenZeppelin/openzeppelin-contracts/blob/v5.0.2/contracts/utils/Address.sol\":3394:3398  this */\n      address\n        /* \"https://github.com/OpenZeppelin/openzeppelin-contracts/blob/v5.0.2/contracts/utils/Address.sol\":3359:3400  AddressInsufficientBalance(address(this)) */\n      mload(0x40)\n      0xcd78605900000000000000000000000000000000000000000000000000000000\n      dup2\n      mstore\n      0x04\n      add\n      tag_199\n      swap2\n      swap1\n      tag_52\n      jump\t// in\n    tag_199:\n      mload(0x40)\n      dup1\n      swap2\n      sub\n      swap1\n      revert\n        /* \"https://github.com/OpenZeppelin/openzeppelin-contracts/blob/v5.0.2/contracts/utils/Address.sol\":3303:3411  if (address(this).balance < value) {... */\n    tag_198:\n        /* \"https://github.com/OpenZeppelin/openzeppelin-contracts/blob/v5.0.2/contracts/utils/Address.sol\":3421:3433  bool success */\n      0x00\n        /* \"https://github.com/OpenZeppelin/openzeppelin-contracts/blob/v5.0.2/contracts/utils/Address.sol\":3435:3458  bytes memory returndata */\n      0x00\n        /* \"https://github.com/OpenZeppelin/openzeppelin-contracts/blob/v5.0.2/contracts/utils/Address.sol\":3462:3468  target */\n      dup6\n        /* \"https://github.com/OpenZeppelin/openzeppelin-contracts/blob/v5.0.2/contracts/utils/Address.sol\":3462:3473  target.call */\n      0xffffffffffffffffffffffffffffffffffffffff\n      and\n        /* \"https://github.com/OpenZeppelin/openzeppelin-contracts/blob/v5.0.2/contracts/utils/Address.sol\":3481:3486  value */\n      dup5\n        /* \"https://github.com/OpenZeppelin/openzeppelin-contracts/blob/v5.0.2/contracts/utils/Address.sol\":3488:3492  data */\n      dup7\n        /* \"https://github.com/OpenZeppelin/openzeppelin-contracts/blob/v5.0.2/contracts/utils/Address.sol\":3462:3493  target.call{value: value}(data) */\n      mload(0x40)\n      tag_200\n      swap2\n      swap1\n      tag_201\n      jump\t// in\n    tag_200:\n      0x00\n      mload(0x40)\n      dup1\n      dup4\n      sub\n      dup2\n      dup6\n      dup8\n      gas\n      call\n      swap3\n      pop\n      pop\n      pop\n      returndatasize\n      dup1\n      0x00\n      dup2\n      eq\n      tag_204\n      jumpi\n      mload(0x40)\n      swap2\n      pop\n      and(add(returndatasize, 0x3f), not(0x1f))\n      dup3\n      add\n      0x40\n      mstore\n      returndatasize\n      dup3\n      mstore\n      returndatasize\n      0x00\n      0x20\n      dup5\n      add\n      returndatacopy\n      jump(tag_203)\n    tag_204:\n      0x60\n      swap2\n      pop\n    tag_203:\n      pop\n        /* \"https://github.com/OpenZeppelin/openzeppelin-contracts/blob/v5.0.2/contracts/utils/Address.sol\":3420:3493  (bool success, bytes memory returndata) = target.call{value: value}(data) */\n      swap2\n      pop\n      swap2\n      pop\n        /* \"https://github.com/OpenZeppelin/openzeppelin-contracts/blob/v5.0.2/contracts/utils/Address.sol\":3510:3565  verifyCallResultFromTarget(target, success, returndata) */\n      tag_205\n        /* \"https://github.com/OpenZeppelin/openzeppelin-contracts/blob/v5.0.2/contracts/utils/Address.sol\":3537:3543  target */\n      dup7\n        /* \"https://github.com/OpenZeppelin/openzeppelin-contracts/blob/v5.0.2/contracts/utils/Address.sol\":3545:3552  success */\n      dup4\n        /* \"https://github.com/OpenZeppelin/openzeppelin-contracts/blob/v5.0.2/contracts/utils/Address.sol\":3554:3564  returndata */\n      dup4\n        /* \"https://github.com/OpenZeppelin/openzeppelin-contracts/blob/v5.0.2/contracts/utils/Address.sol\":3510:3536  verifyCallResultFromTarget */\n      tag_206\n        /* \"https://github.com/OpenZeppelin/openzeppelin-contracts/blob/v5.0.2/contracts/utils/Address.sol\":3510:3565  verifyCallResultFromTarget(target, success, returndata) */\n      jump\t// in\n    tag_205:\n        /* \"https://github.com/OpenZeppelin/openzeppelin-contracts/blob/v5.0.2/contracts/utils/Address.sol\":3503:3565  return verifyCallResultFromTarget(target, success, returndata) */\n      swap3\n      pop\n      pop\n      pop\n        /* \"https://github.com/OpenZeppelin/openzeppelin-contracts/blob/v5.0.2/contracts/utils/Address.sol\":3180:3572  function functionCallWithValue(address target, bytes memory data, uint256 value) internal returns (bytes memory) {... */\n      swap4\n      swap3\n      pop\n      pop\n      pop\n      jump\t// out\n        /* \"https://github.com/OpenZeppelin/openzeppelin-contracts/blob/v5.0.2/contracts/utils/Address.sol\":4625:5207  function verifyCallResultFromTarget(... */\n    tag_206:\n        /* \"https://github.com/OpenZeppelin/openzeppelin-contracts/blob/v5.0.2/contracts/utils/Address.sol\":4769:4781  bytes memory */\n      0x60\n        /* \"https://github.com/OpenZeppelin/openzeppelin-contracts/blob/v5.0.2/contracts/utils/Address.sol\":4798:4805  success */\n      dup3\n        /* \"https://github.com/OpenZeppelin/openzeppelin-contracts/blob/v5.0.2/contracts/utils/Address.sol\":4793:5201  if (!success) {... */\n      tag_208\n      jumpi\n        /* \"https://github.com/OpenZeppelin/openzeppelin-contracts/blob/v5.0.2/contracts/utils/Address.sol\":4821:4840  _revert(returndata) */\n      tag_209\n        /* \"https://github.com/OpenZeppelin/openzeppelin-contracts/blob/v5.0.2/contracts/utils/Address.sol\":4829:4839  returndata */\n      dup3\n        /* \"https://github.com/OpenZeppelin/openzeppelin-contracts/blob/v5.0.2/contracts/utils/Address.sol\":4821:4828  _revert */\n      tag_210\n        /* \"https://github.com/OpenZeppelin/openzeppelin-contracts/blob/v5.0.2/contracts/utils/Address.sol\":4821:4840  _revert(returndata) */\n      jump\t// in\n    tag_209:\n        /* \"https://github.com/OpenZeppelin/openzeppelin-contracts/blob/v5.0.2/contracts/utils/Address.sol\":4793:5201  if (!success) {... */\n      jump(tag_211)\n    tag_208:\n        /* \"https://github.com/OpenZeppelin/openzeppelin-contracts/blob/v5.0.2/contracts/utils/Address.sol\":5066:5067  0 */\n      0x00\n        /* \"https://github.com/OpenZeppelin/openzeppelin-contracts/blob/v5.0.2/contracts/utils/Address.sol\":5045:5055  returndata */\n      dup3\n        /* \"https://github.com/OpenZeppelin/openzeppelin-contracts/blob/v5.0.2/contracts/utils/Address.sol\":5045:5062  returndata.length */\n      mload\n        /* \"https://github.com/OpenZeppelin/openzeppelin-contracts/blob/v5.0.2/contracts/utils/Address.sol\":5045:5067  returndata.length == 0 */\n      eq\n        /* \"https://github.com/OpenZeppelin/openzeppelin-contracts/blob/v5.0.2/contracts/utils/Address.sol\":5045:5094  returndata.length == 0 && target.code.length == 0 */\n      dup1\n      iszero\n      tag_212\n      jumpi\n      pop\n        /* \"https://github.com/OpenZeppelin/openzeppelin-contracts/blob/v5.0.2/contracts/utils/Address.sol\":5093:5094  0 */\n      0x00\n        /* \"https://github.com/OpenZeppelin/openzeppelin-contracts/blob/v5.0.2/contracts/utils/Address.sol\":5071:5077  target */\n      dup5\n        /* \"https://github.com/OpenZeppelin/openzeppelin-contracts/blob/v5.0.2/contracts/utils/Address.sol\":5071:5089  target.code.length */\n      0xffffffffffffffffffffffffffffffffffffffff\n      and\n      extcodesize\n        /* \"https://github.com/OpenZeppelin/openzeppelin-contracts/blob/v5.0.2/contracts/utils/Address.sol\":5071:5094  target.code.length == 0 */\n      eq\n        /* \"https://github.com/OpenZeppelin/openzeppelin-contracts/blob/v5.0.2/contracts/utils/Address.sol\":5045:5094  returndata.length == 0 && target.code.length == 0 */\n    tag_212:\n        /* \"https://github.com/OpenZeppelin/openzeppelin-contracts/blob/v5.0.2/contracts/utils/Address.sol\":5041:5160  if (returndata.length == 0 && target.code.length == 0) {... */\n      iszero\n      tag_213\n      jumpi\n        /* \"https://github.com/OpenZeppelin/openzeppelin-contracts/blob/v5.0.2/contracts/utils/Address.sol\":5138:5144  target */\n      dup4\n        /* \"https://github.com/OpenZeppelin/openzeppelin-contracts/blob/v5.0.2/contracts/utils/Address.sol\":5121:5145  AddressEmptyCode(target) */\n      mload(0x40)\n      0x9996b31500000000000000000000000000000000000000000000000000000000\n      dup2\n      mstore\n      0x04\n      add\n      tag_214\n      swap2\n      swap1\n      tag_52\n      jump\t// in\n    tag_214:\n      mload(0x40)\n      dup1\n      swap2\n      sub\n      swap1\n      revert\n        /* \"https://github.com/OpenZeppelin/openzeppelin-contracts/blob/v5.0.2/contracts/utils/Address.sol\":5041:5160  if (returndata.length == 0 && target.code.length == 0) {... */\n    tag_213:\n        /* \"https://github.com/OpenZeppelin/openzeppelin-contracts/blob/v5.0.2/contracts/utils/Address.sol\":5180:5190  returndata */\n      dup2\n        /* \"https://github.com/OpenZeppelin/openzeppelin-contracts/blob/v5.0.2/contracts/utils/Address.sol\":5173:5190  return returndata */\n      swap1\n      pop\n      jump(tag_207)\n        /* \"https://github.com/OpenZeppelin/openzeppelin-contracts/blob/v5.0.2/contracts/utils/Address.sol\":4793:5201  if (!success) {... */\n    tag_211:\n        /* \"https://github.com/OpenZeppelin/openzeppelin-contracts/blob/v5.0.2/contracts/utils/Address.sol\":4625:5207  function verifyCallResultFromTarget(... */\n    tag_207:\n      swap4\n      swap3\n      pop\n      pop\n      pop\n      jump\t// out\n        /* \"https://github.com/OpenZeppelin/openzeppelin-contracts/blob/v5.0.2/contracts/utils/Address.sol\":5743:6259  function _revert(bytes memory returndata) private pure {... */\n    tag_210:\n        /* \"https://github.com/OpenZeppelin/openzeppelin-contracts/blob/v5.0.2/contracts/utils/Address.sol\":5894:5895  0 */\n      0x00\n        /* \"https://github.com/OpenZeppelin/openzeppelin-contracts/blob/v5.0.2/contracts/utils/Address.sol\":5874:5884  returndata */\n      dup2\n        /* \"https://github.com/OpenZeppelin/openzeppelin-contracts/blob/v5.0.2/contracts/utils/Address.sol\":5874:5891  returndata.length */\n      mload\n        /* \"https://github.com/OpenZeppelin/openzeppelin-contracts/blob/v5.0.2/contracts/utils/Address.sol\":5874:5895  returndata.length > 0 */\n      gt\n        /* \"https://github.com/OpenZeppelin/openzeppelin-contracts/blob/v5.0.2/contracts/utils/Address.sol\":5870:6253  if (returndata.length > 0) {... */\n      iszero\n      tag_216\n      jumpi\n        /* \"https://github.com/OpenZeppelin/openzeppelin-contracts/blob/v5.0.2/contracts/utils/Address.sol\":6102:6112  returndata */\n      dup1\n        /* \"https://github.com/OpenZeppelin/openzeppelin-contracts/blob/v5.0.2/contracts/utils/Address.sol\":6096:6113  mload(returndata) */\n      mload\n        /* \"https://github.com/OpenZeppelin/openzeppelin-contracts/blob/v5.0.2/contracts/utils/Address.sol\":6158:6173  returndata_size */\n      dup1\n        /* \"https://github.com/OpenZeppelin/openzeppelin-contracts/blob/v5.0.2/contracts/utils/Address.sol\":6145:6155  returndata */\n      dup3\n        /* \"https://github.com/OpenZeppelin/openzeppelin-contracts/blob/v5.0.2/contracts/utils/Address.sol\":6141:6143  32 */\n      0x20\n        /* \"https://github.com/OpenZeppelin/openzeppelin-contracts/blob/v5.0.2/contracts/utils/Address.sol\":6137:6156  add(32, returndata) */\n      add\n        /* \"https://github.com/OpenZeppelin/openzeppelin-contracts/blob/v5.0.2/contracts/utils/Address.sol\":6130:6174  revert(add(32, returndata), returndata_size) */\n      revert\n        /* \"https://github.com/OpenZeppelin/openzeppelin-contracts/blob/v5.0.2/contracts/utils/Address.sol\":5870:6253  if (returndata.length > 0) {... */\n    tag_216:\n        /* \"https://github.com/OpenZeppelin/openzeppelin-contracts/blob/v5.0.2/contracts/utils/Address.sol\":6225:6242  FailedInnerCall() */\n      mload(0x40)\n      0x1425ea4200000000000000000000000000000000000000000000000000000000\n      dup2\n      mstore\n      0x04\n      add\n      mload(0x40)\n      dup1\n      swap2\n      sub\n      swap1\n      revert\n        /* \"#utility.yul\":7:133   */\n    tag_218:\n        /* \"#utility.yul\":44:51   */\n      0x00\n        /* \"#utility.yul\":84:126   */\n      0xffffffffffffffffffffffffffffffffffffffff\n        /* \"#utility.yul\":77:82   */\n      dup3\n        /* \"#utility.yul\":73:127   */\n      and\n        /* \"#utility.yul\":62:127   */\n      swap1\n      pop\n        /* \"#utility.yul\":7:133   */\n      swap2\n      swap1\n      pop\n      jump\t// out\n        /* \"#utility.yul\":139:199   */\n    tag_219:\n        /* \"#utility.yul\":167:170   */\n      0x00\n        /* \"#utility.yul\":188:193   */\n      dup2\n        /* \"#utility.yul\":181:193   */\n      swap1\n      pop\n        /* \"#utility.yul\":139:199   */\n      swap2\n      swap1\n      pop\n      jump\t// out\n        /* \"#utility.yul\":205:347   */\n    tag_220:\n        /* \"#utility.yul\":255:264   */\n      0x00\n        /* \"#utility.yul\":288:341   */\n      tag_269\n        /* \"#utility.yul\":306:340   */\n      tag_270\n        /* \"#utility.yul\":315:339   */\n      tag_271\n        /* \"#utility.yul\":333:338   */\n      dup5\n        /* \"#utility.yul\":315:339   */\n      tag_218\n      jump\t// in\n    tag_271:\n        /* \"#utility.yul\":306:340   */\n      tag_219\n      jump\t// in\n    tag_270:\n        /* \"#utility.yul\":288:341   */\n      tag_218\n      jump\t// in\n    tag_269:\n        /* \"#utility.yul\":275:341   */\n      swap1\n      pop\n        /* \"#utility.yul\":205:347   */\n      swap2\n      swap1\n      pop\n      jump\t// out\n        /* \"#utility.yul\":353:479   */\n    tag_221:\n        /* \"#utility.yul\":403:412   */\n      0x00\n        /* \"#utility.yul\":436:473   */\n      tag_273\n        /* \"#utility.yul\":467:472   */\n      dup3\n        /* \"#utility.yul\":436:473   */\n      tag_220\n      jump\t// in\n    tag_273:\n        /* \"#utility.yul\":423:473   */\n      swap1\n      pop\n        /* \"#utility.yul\":353:479   */\n      swap2\n      swap1\n      pop\n      jump\t// out\n        /* \"#utility.yul\":485:625   */\n    tag_222:\n        /* \"#utility.yul\":549:558   */\n      0x00\n        /* \"#utility.yul\":582:619   */\n      tag_275\n        /* \"#utility.yul\":613:618   */\n      dup3\n        /* \"#utility.yul\":582:619   */\n      tag_221\n      jump\t// in\n    tag_275:\n        /* \"#utility.yul\":569:619   */\n      swap1\n      pop\n        /* \"#utility.yul\":485:625   */\n      swap2\n      swap1\n      pop\n      jump\t// out\n        /* \"#utility.yul\":631:790   */\n    tag_223:\n        /* \"#utility.yul\":732:783   */\n      tag_277\n        /* \"#utility.yul\":777:782   */\n      dup2\n        /* \"#utility.yul\":732:783   */\n      tag_222\n      jump\t// in\n    tag_277:\n        /* \"#utility.yul\":727:730   */\n      dup3\n        /* \"#utility.yul\":720:784   */\n      mstore\n        /* \"#utility.yul\":631:790   */\n      pop\n      pop\n      jump\t// out\n        /* \"#utility.yul\":796:1046   */\n    tag_23:\n        /* \"#utility.yul\":903:907   */\n      0x00\n        /* \"#utility.yul\":941:943   */\n      0x20\n        /* \"#utility.yul\":930:939   */\n      dup3\n        /* \"#utility.yul\":926:944   */\n      add\n        /* \"#utility.yul\":918:944   */\n      swap1\n      pop\n        /* \"#utility.yul\":954:1039   */\n      tag_279\n        /* \"#utility.yul\":1036:1037   */\n      0x00\n        /* \"#utility.yul\":1025:1034   */\n      dup4\n        /* \"#utility.yul\":1021:1038   */\n      add\n        /* \"#utility.yul\":1012:1018   */\n      dup5\n        /* \"#utility.yul\":954:1039   */\n      tag_223\n      jump\t// in\n    tag_279:\n        /* \"#utility.yul\":796:1046   */\n      swap3\n      swap2\n      pop\n      pop\n      jump\t// out\n        /* \"#utility.yul\":1133:1250   */\n    tag_225:\n        /* \"#utility.yul\":1242:1243   */\n      0x00\n        /* \"#utility.yul\":1239:1240   */\n      0x00\n        /* \"#utility.yul\":1232:1244   */\n      revert\n        /* \"#utility.yul\":1256:1373   */\n    tag_226:\n        /* \"#utility.yul\":1365:1366   */\n      0x00\n        /* \"#utility.yul\":1362:1363   */\n      0x00\n        /* \"#utility.yul\":1355:1367   */\n      revert\n        /* \"#utility.yul\":1379:1475   */\n    tag_227:\n        /* \"#utility.yul\":1416:1423   */\n      0x00\n        /* \"#utility.yul\":1445:1469   */\n      tag_284\n        /* \"#utility.yul\":1463:1468   */\n      dup3\n        /* \"#utility.yul\":1445:1469   */\n      tag_218\n      jump\t// in\n    tag_284:\n        /* \"#utility.yul\":1434:1469   */\n      swap1\n      pop\n        /* \"#utility.yul\":1379:1475   */\n      swap2\n      swap1\n      pop\n      jump\t// out\n        /* \"#utility.yul\":1481:1603   */\n    tag_228:\n        /* \"#utility.yul\":1554:1578   */\n      tag_286\n        /* \"#utility.yul\":1572:1577   */\n      dup2\n        /* \"#utility.yul\":1554:1578   */\n      tag_227\n      jump\t// in\n    tag_286:\n        /* \"#utility.yul\":1547:1552   */\n      dup2\n        /* \"#utility.yul\":1544:1579   */\n      eq\n        /* \"#utility.yul\":1534:1597   */\n      tag_287\n      jumpi\n        /* \"#utility.yul\":1593:1594   */\n      0x00\n        /* \"#utility.yul\":1590:1591   */\n      0x00\n        /* \"#utility.yul\":1583:1595   */\n      revert\n        /* \"#utility.yul\":1534:1597   */\n    tag_287:\n        /* \"#utility.yul\":1481:1603   */\n      pop\n      jump\t// out\n        /* \"#utility.yul\":1609:1748   */\n    tag_229:\n        /* \"#utility.yul\":1655:1660   */\n      0x00\n        /* \"#utility.yul\":1693:1699   */\n      dup2\n        /* \"#utility.yul\":1680:1700   */\n      calldataload\n        /* \"#utility.yul\":1671:1700   */\n      swap1\n      pop\n        /* \"#utility.yul\":1709:1742   */\n      tag_289\n        /* \"#utility.yul\":1736:1741   */\n      dup2\n        /* \"#utility.yul\":1709:1742   */\n      tag_228\n      jump\t// in\n    tag_289:\n        /* \"#utility.yul\":1609:1748   */\n      swap3\n      swap2\n      pop\n      pop\n      jump\t// out\n        /* \"#utility.yul\":1754:1831   */\n    tag_230:\n        /* \"#utility.yul\":1791:1798   */\n      0x00\n        /* \"#utility.yul\":1820:1825   */\n      dup2\n        /* \"#utility.yul\":1809:1825   */\n      swap1\n      pop\n        /* \"#utility.yul\":1754:1831   */\n      swap2\n      swap1\n      pop\n      jump\t// out\n        /* \"#utility.yul\":1837:1959   */\n    tag_231:\n        /* \"#utility.yul\":1910:1934   */\n      tag_292\n        /* \"#utility.yul\":1928:1933   */\n      dup2\n        /* \"#utility.yul\":1910:1934   */\n      tag_230\n      jump\t// in\n    tag_292:\n        /* \"#utility.yul\":1903:1908   */\n      dup2\n        /* \"#utility.yul\":1900:1935   */\n      eq\n        /* \"#utility.yul\":1890:1953   */\n      tag_293\n      jumpi\n        /* \"#utility.yul\":1949:1950   */\n      0x00\n        /* \"#utility.yul\":1946:1947   */\n      0x00\n        /* \"#utility.yul\":1939:1951   */\n      revert\n        /* \"#utility.yul\":1890:1953   */\n    tag_293:\n        /* \"#utility.yul\":1837:1959   */\n      pop\n      jump\t// out\n        /* \"#utility.yul\":1965:2104   */\n    tag_232:\n        /* \"#utility.yul\":2011:2016   */\n      0x00\n        /* \"#utility.yul\":2049:2055   */\n      dup2\n        /* \"#utility.yul\":2036:2056   */\n      calldataload\n        /* \"#utility.yul\":2027:2056   */\n      swap1\n      pop\n        /* \"#utility.yul\":2065:2098   */\n      tag_295\n        /* \"#utility.yul\":2092:2097   */\n      dup2\n        /* \"#utility.yul\":2065:2098   */\n      tag_231\n      jump\t// in\n    tag_295:\n        /* \"#utility.yul\":1965:2104   */\n      swap3\n      swap2\n      pop\n      pop\n      jump\t// out\n        /* \"#utility.yul\":2110:2227   */\n    tag_233:\n        /* \"#utility.yul\":2219:2220   */\n      0x00\n        /* \"#utility.yul\":2216:2217   */\n      0x00\n        /* \"#utility.yul\":2209:2221   */\n      revert\n        /* \"#utility.yul\":2233:2350   */\n    tag_234:\n        /* \"#utility.yul\":2342:2343   */\n      0x00\n        /* \"#utility.yul\":2339:2340   */\n      0x00\n        /* \"#utility.yul\":2332:2344   */\n      revert\n        /* \"#utility.yul\":2356:2473   */\n    tag_235:\n        /* \"#utility.yul\":2465:2466   */\n      0x00\n        /* \"#utility.yul\":2462:2463   */\n      0x00\n        /* \"#utility.yul\":2455:2467   */\n      revert\n        /* \"#utility.yul\":2492:3044   */\n    tag_236:\n        /* \"#utility.yul\":2549:2557   */\n      0x00\n        /* \"#utility.yul\":2559:2565   */\n      0x00\n        /* \"#utility.yul\":2609:2612   */\n      dup4\n        /* \"#utility.yul\":2602:2606   */\n      0x1f\n        /* \"#utility.yul\":2594:2600   */\n      dup5\n        /* \"#utility.yul\":2590:2607   */\n      add\n        /* \"#utility.yul\":2586:2613   */\n      slt\n        /* \"#utility.yul\":2576:2698   */\n      tag_300\n      jumpi\n        /* \"#utility.yul\":2617:2696   */\n      tag_301\n      tag_233\n      jump\t// in\n    tag_301:\n        /* \"#utility.yul\":2576:2698   */\n    tag_300:\n        /* \"#utility.yul\":2730:2736   */\n      dup3\n        /* \"#utility.yul\":2717:2737   */\n      calldataload\n        /* \"#utility.yul\":2707:2737   */\n      swap1\n      pop\n        /* \"#utility.yul\":2760:2778   */\n      0xffffffffffffffff\n        /* \"#utility.yul\":2752:2758   */\n      dup2\n        /* \"#utility.yul\":2749:2779   */\n      gt\n        /* \"#utility.yul\":2746:2863   */\n      iszero\n      tag_302\n      jumpi\n        /* \"#utility.yul\":2782:2861   */\n      tag_303\n      tag_234\n      jump\t// in\n    tag_303:\n        /* \"#utility.yul\":2746:2863   */\n    tag_302:\n        /* \"#utility.yul\":2896:2900   */\n      0x20\n        /* \"#utility.yul\":2888:2894   */\n      dup4\n        /* \"#utility.yul\":2884:2901   */\n      add\n        /* \"#utility.yul\":2872:2901   */\n      swap2\n      pop\n        /* \"#utility.yul\":2950:2953   */\n      dup4\n        /* \"#utility.yul\":2942:2946   */\n      0x01\n        /* \"#utility.yul\":2934:2940   */\n      dup3\n        /* \"#utility.yul\":2930:2947   */\n      mul\n        /* \"#utility.yul\":2920:2928   */\n      dup4\n        /* \"#utility.yul\":2916:2948   */\n      add\n        /* \"#utility.yul\":2913:2954   */\n      gt\n        /* \"#utility.yul\":2910:3038   */\n      iszero\n      tag_304\n      jumpi\n        /* \"#utility.yul\":2957:3036   */\n      tag_305\n      tag_235\n      jump\t// in\n    tag_305:\n        /* \"#utility.yul\":2910:3038   */\n    tag_304:\n        /* \"#utility.yul\":2492:3044   */\n      swap3\n      pop\n      swap3\n      swap1\n      pop\n      jump\t// out\n        /* \"#utility.yul\":3050:4013   */\n    tag_26:\n        /* \"#utility.yul\":3147:3153   */\n      0x00\n        /* \"#utility.yul\":3155:3161   */\n      0x00\n        /* \"#utility.yul\":3163:3169   */\n      0x00\n        /* \"#utility.yul\":3171:3177   */\n      0x00\n        /* \"#utility.yul\":3179:3185   */\n      0x00\n        /* \"#utility.yul\":3228:3231   */\n      0x80\n        /* \"#utility.yul\":3216:3225   */\n      dup7\n        /* \"#utility.yul\":3207:3214   */\n      dup9\n        /* \"#utility.yul\":3203:3226   */\n      sub\n        /* \"#utility.yul\":3199:3232   */\n      slt\n        /* \"#utility.yul\":3196:3316   */\n      iszero\n      tag_307\n      jumpi\n        /* \"#utility.yul\":3235:3314   */\n      tag_308\n      tag_225\n      jump\t// in\n    tag_308:\n        /* \"#utility.yul\":3196:3316   */\n    tag_307:\n        /* \"#utility.yul\":3355:3356   */\n      0x00\n        /* \"#utility.yul\":3380:3433   */\n      tag_309\n        /* \"#utility.yul\":3425:3432   */\n      dup9\n        /* \"#utility.yul\":3416:3422   */\n      dup3\n        /* \"#utility.yul\":3405:3414   */\n      dup10\n        /* \"#utility.yul\":3401:3423   */\n      add\n        /* \"#utility.yul\":3380:3433   */\n      tag_229\n      jump\t// in\n    tag_309:\n        /* \"#utility.yul\":3370:3433   */\n      swap6\n      pop\n        /* \"#utility.yul\":3326:3443   */\n      pop\n        /* \"#utility.yul\":3482:3484   */\n      0x20\n        /* \"#utility.yul\":3508:3561   */\n      tag_310\n        /* \"#utility.yul\":3553:3560   */\n      dup9\n        /* \"#utility.yul\":3544:3550   */\n      dup3\n        /* \"#utility.yul\":3533:3542   */\n      dup10\n        /* \"#utility.yul\":3529:3551   */\n      add\n        /* \"#utility.yul\":3508:3561   */\n      tag_232\n      jump\t// in\n    tag_310:\n        /* \"#utility.yul\":3498:3561   */\n      swap5\n      pop\n        /* \"#utility.yul\":3453:3571   */\n      pop\n        /* \"#utility.yul\":3610:3612   */\n      0x40\n        /* \"#utility.yul\":3636:3689   */\n      tag_311\n        /* \"#utility.yul\":3681:3688   */\n      dup9\n        /* \"#utility.yul\":3672:3678   */\n      dup3\n        /* \"#utility.yul\":3661:3670   */\n      dup10\n        /* \"#utility.yul\":3657:3679   */\n      add\n        /* \"#utility.yul\":3636:3689   */\n      tag_232\n      jump\t// in\n    tag_311:\n        /* \"#utility.yul\":3626:3689   */\n      swap4\n      pop\n        /* \"#utility.yul\":3581:3699   */\n      pop\n        /* \"#utility.yul\":3766:3768   */\n      0x60\n        /* \"#utility.yul\":3755:3764   */\n      dup7\n        /* \"#utility.yul\":3751:3769   */\n      add\n        /* \"#utility.yul\":3738:3770   */\n      calldataload\n        /* \"#utility.yul\":3797:3815   */\n      0xffffffffffffffff\n        /* \"#utility.yul\":3789:3795   */\n      dup2\n        /* \"#utility.yul\":3786:3816   */\n      gt\n        /* \"#utility.yul\":3783:3900   */\n      iszero\n      tag_312\n      jumpi\n        /* \"#utility.yul\":3819:3898   */\n      tag_313\n      tag_226\n      jump\t// in\n    tag_313:\n        /* \"#utility.yul\":3783:3900   */\n    tag_312:\n        /* \"#utility.yul\":3932:3996   */\n      tag_314\n        /* \"#utility.yul\":3988:3995   */\n      dup9\n        /* \"#utility.yul\":3979:3985   */\n      dup3\n        /* \"#utility.yul\":3968:3977   */\n      dup10\n        /* \"#utility.yul\":3964:3986   */\n      add\n        /* \"#utility.yul\":3932:3996   */\n      tag_236\n      jump\t// in\n    tag_314:\n        /* \"#utility.yul\":3914:3996   */\n      swap3\n      pop\n      swap3\n      pop\n        /* \"#utility.yul\":3709:4006   */\n      pop\n        /* \"#utility.yul\":3050:4013   */\n      swap3\n      swap6\n      pop\n      swap3\n      swap6\n      swap1\n      swap4\n      pop\n      jump\t// out\n        /* \"#utility.yul\":4019:4137   */\n    tag_237:\n        /* \"#utility.yul\":4106:4130   */\n      tag_316\n        /* \"#utility.yul\":4124:4129   */\n      dup2\n        /* \"#utility.yul\":4106:4130   */\n      tag_230\n      jump\t// in\n    tag_316:\n        /* \"#utility.yul\":4101:4104   */\n      dup3\n        /* \"#utility.yul\":4094:4131   */\n      mstore\n        /* \"#utility.yul\":4019:4137   */\n      pop\n      pop\n      jump\t// out\n        /* \"#utility.yul\":4143:4365   */\n    tag_31:\n        /* \"#utility.yul\":4236:4240   */\n      0x00\n        /* \"#utility.yul\":4274:4276   */\n      0x20\n        /* \"#utility.yul\":4263:4272   */\n      dup3\n        /* \"#utility.yul\":4259:4277   */\n      add\n        /* \"#utility.yul\":4251:4277   */\n      swap1\n      pop\n        /* \"#utility.yul\":4287:4358   */\n      tag_318\n        /* \"#utility.yul\":4355:4356   */\n      0x00\n        /* \"#utility.yul\":4344:4353   */\n      dup4\n        /* \"#utility.yul\":4340:4357   */\n      add\n        /* \"#utility.yul\":4331:4337   */\n      dup5\n        /* \"#utility.yul\":4287:4358   */\n      tag_237\n      jump\t// in\n    tag_318:\n        /* \"#utility.yul\":4143:4365   */\n      swap3\n      swap2\n      pop\n      pop\n      jump\t// out\n        /* \"#utility.yul\":4371:4700   */\n    tag_34:\n        /* \"#utility.yul\":4430:4436   */\n      0x00\n        /* \"#utility.yul\":4479:4481   */\n      0x20\n        /* \"#utility.yul\":4467:4476   */\n      dup3\n        /* \"#utility.yul\":4458:4465   */\n      dup5\n        /* \"#utility.yul\":4454:4477   */\n      sub\n        /* \"#utility.yul\":4450:4482   */\n      slt\n        /* \"#utility.yul\":4447:4566   */\n      iszero\n      tag_320\n      jumpi\n        /* \"#utility.yul\":4485:4564   */\n      tag_321\n      tag_225\n      jump\t// in\n    tag_321:\n        /* \"#utility.yul\":4447:4566   */\n    tag_320:\n        /* \"#utility.yul\":4605:4606   */\n      0x00\n        /* \"#utility.yul\":4630:4683   */\n      tag_322\n        /* \"#utility.yul\":4675:4682   */\n      dup5\n        /* \"#utility.yul\":4666:4672   */\n      dup3\n        /* \"#utility.yul\":4655:4664   */\n      dup6\n        /* \"#utility.yul\":4651:4673   */\n      add\n        /* \"#utility.yul\":4630:4683   */\n      tag_232\n      jump\t// in\n    tag_322:\n        /* \"#utility.yul\":4620:4683   */\n      swap2\n      pop\n        /* \"#utility.yul\":4576:4693   */\n      pop\n        /* \"#utility.yul\":4371:4700   */\n      swap3\n      swap2\n      pop\n      pop\n      jump\t// out\n        /* \"#utility.yul\":4706:5035   */\n    tag_38:\n        /* \"#utility.yul\":4765:4771   */\n      0x00\n        /* \"#utility.yul\":4814:4816   */\n      0x20\n        /* \"#utility.yul\":4802:4811   */\n      dup3\n        /* \"#utility.yul\":4793:4800   */\n      dup5\n        /* \"#utility.yul\":4789:4812   */\n      sub\n        /* \"#utility.yul\":4785:4817   */\n      slt\n        /* \"#utility.yul\":4782:4901   */\n      iszero\n      tag_324\n      jumpi\n        /* \"#utility.yul\":4820:4899   */\n      tag_325\n      tag_225\n      jump\t// in\n    tag_325:\n        /* \"#utility.yul\":4782:4901   */\n    tag_324:\n        /* \"#utility.yul\":4940:4941   */\n      0x00\n        /* \"#utility.yul\":4965:5018   */\n      tag_326\n        /* \"#utility.yul\":5010:5017   */\n      dup5\n        /* \"#utility.yul\":5001:5007   */\n      dup3\n        /* \"#utility.yul\":4990:4999   */\n      dup6\n        /* \"#utility.yul\":4986:5008   */\n      add\n        /* \"#utility.yul\":4965:5018   */\n      tag_229\n      jump\t// in\n    tag_326:\n        /* \"#utility.yul\":4955:5018   */\n      swap2\n      pop\n        /* \"#utility.yul\":4911:5028   */\n      pop\n        /* \"#utility.yul\":4706:5035   */\n      swap3\n      swap2\n      pop\n      pop\n      jump\t// out\n        /* \"#utility.yul\":5041:5159   */\n    tag_238:\n        /* \"#utility.yul\":5128:5152   */\n      tag_328\n        /* \"#utility.yul\":5146:5151   */\n      dup2\n        /* \"#utility.yul\":5128:5152   */\n      tag_227\n      jump\t// in\n    tag_328:\n        /* \"#utility.yul\":5123:5126   */\n      dup3\n        /* \"#utility.yul\":5116:5153   */\n      mstore\n        /* \"#utility.yul\":5041:5159   */\n      pop\n      pop\n      jump\t// out\n        /* \"#utility.yul\":5165:5387   */\n    tag_52:\n        /* \"#utility.yul\":5258:5262   */\n      0x00\n        /* \"#utility.yul\":5296:5298   */\n      0x20\n        /* \"#utility.yul\":5285:5294   */\n      dup3\n        /* \"#utility.yul\":5281:5299   */\n      add\n        /* \"#utility.yul\":5273:5299   */\n      swap1\n      pop\n        /* \"#utility.yul\":5309:5380   */\n      tag_330\n        /* \"#utility.yul\":5377:5378   */\n      0x00\n        /* \"#utility.yul\":5366:5375   */\n      dup4\n        /* \"#utility.yul\":5362:5379   */\n      add\n        /* \"#utility.yul\":5353:5359   */\n      dup5\n        /* \"#utility.yul\":5309:5380   */\n      tag_238\n      jump\t// in\n    tag_330:\n        /* \"#utility.yul\":5165:5387   */\n      swap3\n      swap2\n      pop\n      pop\n      jump\t// out\n        /* \"#utility.yul\":5393:5497   */\n    tag_239:\n        /* \"#utility.yul\":5438:5445   */\n      0x00\n        /* \"#utility.yul\":5467:5491   */\n      tag_332\n        /* \"#utility.yul\":5485:5490   */\n      dup3\n        /* \"#utility.yul\":5467:5491   */\n      tag_218\n      jump\t// in\n    tag_332:\n        /* \"#utility.yul\":5456:5491   */\n      swap1\n      pop\n        /* \"#utility.yul\":5393:5497   */\n      swap2\n      swap1\n      pop\n      jump\t// out\n        /* \"#utility.yul\":5503:5641   */\n    tag_240:\n        /* \"#utility.yul\":5584:5616   */\n      tag_334\n        /* \"#utility.yul\":5610:5615   */\n      dup2\n        /* \"#utility.yul\":5584:5616   */\n      tag_239\n      jump\t// in\n    tag_334:\n        /* \"#utility.yul\":5577:5582   */\n      dup2\n        /* \"#utility.yul\":5574:5617   */\n      eq\n        /* \"#utility.yul\":5564:5635   */\n      tag_335\n      jumpi\n        /* \"#utility.yul\":5631:5632   */\n      0x00\n        /* \"#utility.yul\":5628:5629   */\n      0x00\n        /* \"#utility.yul\":5621:5633   */\n      revert\n        /* \"#utility.yul\":5564:5635   */\n    tag_335:\n        /* \"#utility.yul\":5503:5641   */\n      pop\n      jump\t// out\n        /* \"#utility.yul\":5647:5802   */\n    tag_241:\n        /* \"#utility.yul\":5701:5706   */\n      0x00\n        /* \"#utility.yul\":5739:5745   */\n      dup2\n        /* \"#utility.yul\":5726:5746   */\n      calldataload\n        /* \"#utility.yul\":5717:5746   */\n      swap1\n      pop\n        /* \"#utility.yul\":5755:5796   */\n      tag_337\n        /* \"#utility.yul\":5790:5795   */\n      dup2\n        /* \"#utility.yul\":5755:5796   */\n      tag_240\n      jump\t// in\n    tag_337:\n        /* \"#utility.yul\":5647:5802   */\n      swap3\n      swap2\n      pop\n      pop\n      jump\t// out\n        /* \"#utility.yul\":5808:6298   */\n    tag_71:\n        /* \"#utility.yul\":5884:5890   */\n      0x00\n        /* \"#utility.yul\":5892:5898   */\n      0x00\n        /* \"#utility.yul\":5941:5943   */\n      0x40\n        /* \"#utility.yul\":5929:5938   */\n      dup4\n        /* \"#utility.yul\":5920:5927   */\n      dup6\n        /* \"#utility.yul\":5916:5939   */\n      sub\n        /* \"#utility.yul\":5912:5944   */\n      slt\n        /* \"#utility.yul\":5909:6028   */\n      iszero\n      tag_339\n      jumpi\n        /* \"#utility.yul\":5947:6026   */\n      tag_340\n      tag_225\n      jump\t// in\n    tag_340:\n        /* \"#utility.yul\":5909:6028   */\n    tag_339:\n        /* \"#utility.yul\":6067:6068   */\n      0x00\n        /* \"#utility.yul\":6092:6153   */\n      tag_341\n        /* \"#utility.yul\":6145:6152   */\n      dup6\n        /* \"#utility.yul\":6136:6142   */\n      dup3\n        /* \"#utility.yul\":6125:6134   */\n      dup7\n        /* \"#utility.yul\":6121:6143   */\n      add\n        /* \"#utility.yul\":6092:6153   */\n      tag_241\n      jump\t// in\n    tag_341:\n        /* \"#utility.yul\":6082:6153   */\n      swap3\n      pop\n        /* \"#utility.yul\":6038:6163   */\n      pop\n        /* \"#utility.yul\":6202:6204   */\n      0x20\n        /* \"#utility.yul\":6228:6281   */\n      tag_342\n        /* \"#utility.yul\":6273:6280   */\n      dup6\n        /* \"#utility.yul\":6264:6270   */\n      dup3\n        /* \"#utility.yul\":6253:6262   */\n      dup7\n        /* \"#utility.yul\":6249:6271   */\n      add\n        /* \"#utility.yul\":6228:6281   */\n      tag_232\n      jump\t// in\n    tag_342:\n        /* \"#utility.yul\":6218:6281   */\n      swap2\n      pop\n        /* \"#utility.yul\":6173:6291   */\n      pop\n        /* \"#utility.yul\":5808:6298   */\n      swap3\n      pop\n      swap3\n      swap1\n      pop\n      jump\t// out\n        /* \"#utility.yul\":6304:6484   */\n    tag_242:\n        /* \"#utility.yul\":6352:6429   */\n      0x4e487b7100000000000000000000000000000000000000000000000000000000\n        /* \"#utility.yul\":6349:6350   */\n      0x00\n        /* \"#utility.yul\":6342:6430   */\n      mstore\n        /* \"#utility.yul\":6449:6453   */\n      0x11\n        /* \"#utility.yul\":6446:6447   */\n      0x04\n        /* \"#utility.yul\":6439:6454   */\n      mstore\n        /* \"#utility.yul\":6473:6477   */\n      0x24\n        /* \"#utility.yul\":6470:6471   */\n      0x00\n        /* \"#utility.yul\":6463:6478   */\n      revert\n        /* \"#utility.yul\":6490:6900   */\n    tag_73:\n        /* \"#utility.yul\":6530:6537   */\n      0x00\n        /* \"#utility.yul\":6553:6573   */\n      tag_345\n        /* \"#utility.yul\":6571:6572   */\n      dup3\n        /* \"#utility.yul\":6553:6573   */\n      tag_230\n      jump\t// in\n    tag_345:\n        /* \"#utility.yul\":6548:6573   */\n      swap2\n      pop\n        /* \"#utility.yul\":6587:6607   */\n      tag_346\n        /* \"#utility.yul\":6605:6606   */\n      dup4\n        /* \"#utility.yul\":6587:6607   */\n      tag_230\n      jump\t// in\n    tag_346:\n        /* \"#utility.yul\":6582:6607   */\n      swap3\n      pop\n        /* \"#utility.yul\":6642:6643   */\n      dup3\n        /* \"#utility.yul\":6639:6640   */\n      dup3\n        /* \"#utility.yul\":6635:6644   */\n      mul\n        /* \"#utility.yul\":6664:6694   */\n      tag_347\n        /* \"#utility.yul\":6682:6693   */\n      dup2\n        /* \"#utility.yul\":6664:6694   */\n      tag_230\n      jump\t// in\n    tag_347:\n        /* \"#utility.yul\":6653:6694   */\n      swap2\n      pop\n        /* \"#utility.yul\":6843:6844   */\n      dup3\n        /* \"#utility.yul\":6834:6841   */\n      dup3\n        /* \"#utility.yul\":6830:6845   */\n      div\n        /* \"#utility.yul\":6827:6828   */\n      dup5\n        /* \"#utility.yul\":6824:6846   */\n      eq\n        /* \"#utility.yul\":6804:6805   */\n      dup4\n        /* \"#utility.yul\":6797:6806   */\n      iszero\n        /* \"#utility.yul\":6777:6860   */\n      or\n        /* \"#utility.yul\":6754:6893   */\n      tag_348\n      jumpi\n        /* \"#utility.yul\":6873:6891   */\n      tag_349\n      tag_242\n      jump\t// in\n    tag_349:\n        /* \"#utility.yul\":6754:6893   */\n    tag_348:\n        /* \"#utility.yul\":6538:6900   */\n      pop\n        /* \"#utility.yul\":6490:6900   */\n      swap3\n      swap2\n      pop\n      pop\n      jump\t// out\n        /* \"#utility.yul\":6906:7086   */\n    tag_148:\n        /* \"#utility.yul\":6954:7031   */\n      0x4e487b7100000000000000000000000000000000000000000000000000000000\n        /* \"#utility.yul\":6951:6952   */\n      0x00\n        /* \"#utility.yul\":6944:7032   */\n      mstore\n        /* \"#utility.yul\":7051:7055   */\n      0x12\n        /* \"#utility.yul\":7048:7049   */\n      0x04\n        /* \"#utility.yul\":7041:7056   */\n      mstore\n        /* \"#utility.yul\":7075:7079   */\n      0x24\n        /* \"#utility.yul\":7072:7073   */\n      0x00\n        /* \"#utility.yul\":7065:7080   */\n      revert\n        /* \"#utility.yul\":7092:7277   */\n    tag_75:\n        /* \"#utility.yul\":7132:7133   */\n      0x00\n        /* \"#utility.yul\":7149:7169   */\n      tag_352\n        /* \"#utility.yul\":7167:7168   */\n      dup3\n        /* \"#utility.yul\":7149:7169   */\n      tag_230\n      jump\t// in\n    tag_352:\n        /* \"#utility.yul\":7144:7169   */\n      swap2\n      pop\n        /* \"#utility.yul\":7183:7203   */\n      tag_353\n        /* \"#utility.yul\":7201:7202   */\n      dup4\n        /* \"#utility.yul\":7183:7203   */\n      tag_230\n      jump\t// in\n    tag_353:\n        /* \"#utility.yul\":7178:7203   */\n      swap3\n      pop\n        /* \"#utility.yul\":7222:7223   */\n      dup3\n        /* \"#utility.yul\":7212:7247   */\n      tag_354\n      jumpi\n        /* \"#utility.yul\":7227:7245   */\n      tag_355\n      tag_148\n      jump\t// in\n    tag_355:\n        /* \"#utility.yul\":7212:7247   */\n    tag_354:\n        /* \"#utility.yul\":7269:7270   */\n      dup3\n        /* \"#utility.yul\":7266:7267   */\n      dup3\n        /* \"#utility.yul\":7262:7271   */\n      div\n        /* \"#utility.yul\":7257:7271   */\n      swap1\n      pop\n        /* \"#utility.yul\":7092:7277   */\n      swap3\n      swap2\n      pop\n      pop\n      jump\t// out\n        /* \"#utility.yul\":7283:7474   */\n    tag_77:\n        /* \"#utility.yul\":7323:7326   */\n      0x00\n        /* \"#utility.yul\":7342:7362   */\n      tag_357\n        /* \"#utility.yul\":7360:7361   */\n      dup3\n        /* \"#utility.yul\":7342:7362   */\n      tag_230\n      jump\t// in\n    tag_357:\n        /* \"#utility.yul\":7337:7362   */\n      swap2\n      pop\n        /* \"#utility.yul\":7376:7396   */\n      tag_358\n        /* \"#utility.yul\":7394:7395   */\n      dup4\n        /* \"#utility.yul\":7376:7396   */\n      tag_230\n      jump\t// in\n    tag_358:\n        /* \"#utility.yul\":7371:7396   */\n      swap3\n      pop\n        /* \"#utility.yul\":7419:7420   */\n      dup3\n        /* \"#utility.yul\":7416:7417   */\n      dup3\n        /* \"#utility.yul\":7412:7421   */\n      add\n        /* \"#utility.yul\":7405:7421   */\n      swap1\n      pop\n        /* \"#utility.yul\":7440:7443   */\n      dup1\n        /* \"#utility.yul\":7437:7438   */\n      dup3\n        /* \"#utility.yul\":7434:7444   */\n      gt\n        /* \"#utility.yul\":7431:7467   */\n      iszero\n      tag_359\n      jumpi\n        /* \"#utility.yul\":7447:7465   */\n      tag_360\n      tag_242\n      jump\t// in\n    tag_360:\n        /* \"#utility.yul\":7431:7467   */\n    tag_359:\n        /* \"#utility.yul\":7283:7474   */\n      swap3\n      swap2\n      pop\n      pop\n      jump\t// out\n        /* \"#utility.yul\":7480:7594   */\n    tag_243:\n        /* \"#utility.yul\":7517:7524   */\n      0x00\n        /* \"#utility.yul\":7557:7587   */\n      0xffffffffffffffffffffffffffff\n        /* \"#utility.yul\":7550:7555   */\n      dup3\n        /* \"#utility.yul\":7546:7588   */\n      and\n        /* \"#utility.yul\":7535:7588   */\n      swap1\n      pop\n        /* \"#utility.yul\":7480:7594   */\n      swap2\n      swap1\n      pop\n      jump\t// out\n        /* \"#utility.yul\":7600:7722   */\n    tag_244:\n        /* \"#utility.yul\":7673:7697   */\n      tag_363\n        /* \"#utility.yul\":7691:7696   */\n      dup2\n        /* \"#utility.yul\":7673:7697   */\n      tag_243\n      jump\t// in\n    tag_363:\n        /* \"#utility.yul\":7666:7671   */\n      dup2\n        /* \"#utility.yul\":7663:7698   */\n      eq\n        /* \"#utility.yul\":7653:7716   */\n      tag_364\n      jumpi\n        /* \"#utility.yul\":7712:7713   */\n      0x00\n        /* \"#utility.yul\":7709:7710   */\n      0x00\n        /* \"#utility.yul\":7702:7714   */\n      revert\n        /* \"#utility.yul\":7653:7716   */\n    tag_364:\n        /* \"#utility.yul\":7600:7722   */\n      pop\n      jump\t// out\n        /* \"#utility.yul\":7728:7871   */\n    tag_245:\n        /* \"#utility.yul\":7785:7790   */\n      0x00\n        /* \"#utility.yul\":7816:7822   */\n      dup2\n        /* \"#utility.yul\":7810:7823   */\n      mload\n        /* \"#utility.yul\":7801:7823   */\n      swap1\n      pop\n        /* \"#utility.yul\":7832:7865   */\n      tag_366\n        /* \"#utility.yul\":7859:7864   */\n      dup2\n        /* \"#utility.yul\":7832:7865   */\n      tag_244\n      jump\t// in\n    tag_366:\n        /* \"#utility.yul\":7728:7871   */\n      swap3\n      swap2\n      pop\n      pop\n      jump\t// out\n        /* \"#utility.yul\":7877:7970   */\n    tag_246:\n        /* \"#utility.yul\":7913:7920   */\n      0x00\n        /* \"#utility.yul\":7953:7963   */\n      0xffffffff\n        /* \"#utility.yul\":7946:7951   */\n      dup3\n        /* \"#utility.yul\":7942:7964   */\n      and\n        /* \"#utility.yul\":7931:7964   */\n      swap1\n      pop\n        /* \"#utility.yul\":7877:7970   */\n      swap2\n      swap1\n      pop\n      jump\t// out\n        /* \"#utility.yul\":7976:8096   */\n    tag_247:\n        /* \"#utility.yul\":8048:8071   */\n      tag_369\n        /* \"#utility.yul\":8065:8070   */\n      dup2\n        /* \"#utility.yul\":8048:8071   */\n      tag_246\n      jump\t// in\n    tag_369:\n        /* \"#utility.yul\":8041:8046   */\n      dup2\n        /* \"#utility.yul\":8038:8072   */\n      eq\n        /* \"#utility.yul\":8028:8090   */\n      tag_370\n      jumpi\n        /* \"#utility.yul\":8086:8087   */\n      0x00\n        /* \"#utility.yul\":8083:8084   */\n      0x00\n        /* \"#utility.yul\":8076:8088   */\n      revert\n        /* \"#utility.yul\":8028:8090   */\n    tag_370:\n        /* \"#utility.yul\":7976:8096   */\n      pop\n      jump\t// out\n        /* \"#utility.yul\":8102:8243   */\n    tag_248:\n        /* \"#utility.yul\":8158:8163   */\n      0x00\n        /* \"#utility.yul\":8189:8195   */\n      dup2\n        /* \"#utility.yul\":8183:8196   */\n      mload\n        /* \"#utility.yul\":8174:8196   */\n      swap1\n      pop\n        /* \"#utility.yul\":8205:8237   */\n      tag_372\n        /* \"#utility.yul\":8231:8236   */\n      dup2\n        /* \"#utility.yul\":8205:8237   */\n      tag_247\n      jump\t// in\n    tag_372:\n        /* \"#utility.yul\":8102:8243   */\n      swap3\n      swap2\n      pop\n      pop\n      jump\t// out\n        /* \"#utility.yul\":8249:8910   */\n    tag_85:\n        /* \"#utility.yul\":8336:8342   */\n      0x00\n        /* \"#utility.yul\":8344:8350   */\n      0x00\n        /* \"#utility.yul\":8352:8358   */\n      0x00\n        /* \"#utility.yul\":8401:8403   */\n      0x60\n        /* \"#utility.yul\":8389:8398   */\n      dup5\n        /* \"#utility.yul\":8380:8387   */\n      dup7\n        /* \"#utility.yul\":8376:8399   */\n      sub\n        /* \"#utility.yul\":8372:8404   */\n      slt\n        /* \"#utility.yul\":8369:8488   */\n      iszero\n      tag_374\n      jumpi\n        /* \"#utility.yul\":8407:8486   */\n      tag_375\n      tag_225\n      jump\t// in\n    tag_375:\n        /* \"#utility.yul\":8369:8488   */\n    tag_374:\n        /* \"#utility.yul\":8527:8528   */\n      0x00\n        /* \"#utility.yul\":8552:8616   */\n      tag_376\n        /* \"#utility.yul\":8608:8615   */\n      dup7\n        /* \"#utility.yul\":8599:8605   */\n      dup3\n        /* \"#utility.yul\":8588:8597   */\n      dup8\n        /* \"#utility.yul\":8584:8606   */\n      add\n        /* \"#utility.yul\":8552:8616   */\n      tag_245\n      jump\t// in\n    tag_376:\n        /* \"#utility.yul\":8542:8616   */\n      swap4\n      pop\n        /* \"#utility.yul\":8498:8626   */\n      pop\n        /* \"#utility.yul\":8665:8667   */\n      0x20\n        /* \"#utility.yul\":8691:8755   */\n      tag_377\n        /* \"#utility.yul\":8747:8754   */\n      dup7\n        /* \"#utility.yul\":8738:8744   */\n      dup3\n        /* \"#utility.yul\":8727:8736   */\n      dup8\n        /* \"#utility.yul\":8723:8745   */\n      add\n        /* \"#utility.yul\":8691:8755   */\n      tag_245\n      jump\t// in\n    tag_377:\n        /* \"#utility.yul\":8681:8755   */\n      swap3\n      pop\n        /* \"#utility.yul\":8636:8765   */\n      pop\n        /* \"#utility.yul\":8804:8806   */\n      0x40\n        /* \"#utility.yul\":8830:8893   */\n      tag_378\n        /* \"#utility.yul\":8885:8892   */\n      dup7\n        /* \"#utility.yul\":8876:8882   */\n      dup3\n        /* \"#utility.yul\":8865:8874   */\n      dup8\n        /* \"#utility.yul\":8861:8883   */\n      add\n        /* \"#utility.yul\":8830:8893   */\n      tag_248\n      jump\t// in\n    tag_378:\n        /* \"#utility.yul\":8820:8893   */\n      swap2\n      pop\n        /* \"#utility.yul\":8775:8903   */\n      pop\n        /* \"#utility.yul\":8249:8910   */\n      swap3\n      pop\n      swap3\n      pop\n      swap3\n      jump\t// out\n        /* \"#utility.yul\":8916:9110   */\n    tag_98:\n        /* \"#utility.yul\":8956:8960   */\n      0x00\n        /* \"#utility.yul\":8976:8996   */\n      tag_380\n        /* \"#utility.yul\":8994:8995   */\n      dup3\n        /* \"#utility.yul\":8976:8996   */\n      tag_230\n      jump\t// in\n    tag_380:\n        /* \"#utility.yul\":8971:8996   */\n      swap2\n      pop\n        /* \"#utility.yul\":9010:9030   */\n      tag_381\n        /* \"#utility.yul\":9028:9029   */\n      dup4\n        /* \"#utility.yul\":9010:9030   */\n      tag_230\n      jump\t// in\n    tag_381:\n        /* \"#utility.yul\":9005:9030   */\n      swap3\n      pop\n        /* \"#utility.yul\":9054:9055   */\n      dup3\n        /* \"#utility.yul\":9051:9052   */\n      dup3\n        /* \"#utility.yul\":9047:9056   */\n      sub\n        /* \"#utility.yul\":9039:9056   */\n      swap1\n      pop\n        /* \"#utility.yul\":9078:9079   */\n      dup2\n        /* \"#utility.yul\":9072:9076   */\n      dup2\n        /* \"#utility.yul\":9069:9080   */\n      gt\n        /* \"#utility.yul\":9066:9103   */\n      iszero\n      tag_382\n      jumpi\n        /* \"#utility.yul\":9083:9101   */\n      tag_383\n      tag_242\n      jump\t// in\n    tag_383:\n        /* \"#utility.yul\":9066:9103   */\n    tag_382:\n        /* \"#utility.yul\":8916:9110   */\n      swap3\n      swap2\n      pop\n      pop\n      jump\t// out\n        /* \"#utility.yul\":9116:9349   */\n    tag_103:\n        /* \"#utility.yul\":9155:9158   */\n      0x00\n        /* \"#utility.yul\":9178:9202   */\n      tag_385\n        /* \"#utility.yul\":9196:9201   */\n      dup3\n        /* \"#utility.yul\":9178:9202   */\n      tag_230\n      jump\t// in\n    tag_385:\n        /* \"#utility.yul\":9169:9202   */\n      swap2\n      pop\n        /* \"#utility.yul\":9224:9290   */\n      0xffffffffffffffffffffffffffffffffffffffffffffffffffffffffffffffff\n        /* \"#utility.yul\":9217:9222   */\n      dup3\n        /* \"#utility.yul\":9214:9291   */\n      sub\n        /* \"#utility.yul\":9211:9314   */\n      tag_386\n      jumpi\n        /* \"#utility.yul\":9294:9312   */\n      tag_387\n      tag_242\n      jump\t// in\n    tag_387:\n        /* \"#utility.yul\":9211:9314   */\n    tag_386:\n        /* \"#utility.yul\":9341:9342   */\n      0x01\n        /* \"#utility.yul\":9334:9339   */\n      dup3\n        /* \"#utility.yul\":9330:9343   */\n      add\n        /* \"#utility.yul\":9323:9343   */\n      swap1\n      pop\n        /* \"#utility.yul\":9116:9349   */\n      swap2\n      swap1\n      pop\n      jump\t// out\n        /* \"#utility.yul\":9355:9524   */\n    tag_249:\n        /* \"#utility.yul\":9439:9450   */\n      0x00\n        /* \"#utility.yul\":9473:9479   */\n      dup3\n        /* \"#utility.yul\":9468:9471   */\n      dup3\n        /* \"#utility.yul\":9461:9480   */\n      mstore\n        /* \"#utility.yul\":9513:9517   */\n      0x20\n        /* \"#utility.yul\":9508:9511   */\n      dup3\n        /* \"#utility.yul\":9504:9518   */\n      add\n        /* \"#utility.yul\":9489:9518   */\n      swap1\n      pop\n        /* \"#utility.yul\":9355:9524   */\n      swap3\n      swap2\n      pop\n      pop\n      jump\t// out\n        /* \"#utility.yul\":9530:9689   */\n    tag_250:\n        /* \"#utility.yul\":9670:9681   */\n      0x4e6f2070726f6669740000000000000000000000000000000000000000000000\n        /* \"#utility.yul\":9666:9667   */\n      0x00\n        /* \"#utility.yul\":9658:9664   */\n      dup3\n        /* \"#utility.yul\":9654:9668   */\n      add\n        /* \"#utility.yul\":9647:9682   */\n      mstore\n        /* \"#utility.yul\":9530:9689   */\n      pop\n      jump\t// out\n        /* \"#utility.yul\":9695:10060   */\n    tag_251:\n        /* \"#utility.yul\":9837:9840   */\n      0x00\n        /* \"#utility.yul\":9858:9924   */\n      tag_391\n        /* \"#utility.yul\":9922:9923   */\n      0x09\n        /* \"#utility.yul\":9917:9920   */\n      dup4\n        /* \"#utility.yul\":9858:9924   */\n      tag_249\n      jump\t// in\n    tag_391:\n        /* \"#utility.yul\":9851:9924   */\n      swap2\n      pop\n        /* \"#utility.yul\":9933:10026   */\n      tag_392\n        /* \"#utility.yul\":10022:10025   */\n      dup3\n        /* \"#utility.yul\":9933:10026   */\n      tag_250\n      jump\t// in\n    tag_392:\n        /* \"#utility.yul\":10051:10053   */\n      0x20\n        /* \"#utility.yul\":10046:10049   */\n      dup3\n        /* \"#utility.yul\":10042:10054   */\n      add\n        /* \"#utility.yul\":10035:10054   */\n      swap1\n      pop\n        /* \"#utility.yul\":9695:10060   */\n      swap2\n      swap1\n      pop\n      jump\t// out\n        /* \"#utility.yul\":10066:10485   */\n    tag_128:\n        /* \"#utility.yul\":10232:10236   */\n      0x00\n        /* \"#utility.yul\":10270:10272   */\n      0x20\n        /* \"#utility.yul\":10259:10268   */\n      dup3\n        /* \"#utility.yul\":10255:10273   */\n      add\n        /* \"#utility.yul\":10247:10273   */\n      swap1\n      pop\n        /* \"#utility.yul\":10319:10328   */\n      dup2\n        /* \"#utility.yul\":10313:10317   */\n      dup2\n        /* \"#utility.yul\":10309:10329   */\n      sub\n        /* \"#utility.yul\":10305:10306   */\n      0x00\n        /* \"#utility.yul\":10294:10303   */\n      dup4\n        /* \"#utility.yul\":10290:10307   */\n      add\n        /* \"#utility.yul\":10283:10330   */\n      mstore\n        /* \"#utility.yul\":10347:10478   */\n      tag_394\n        /* \"#utility.yul\":10473:10477   */\n      dup2\n        /* \"#utility.yul\":10347:10478   */\n      tag_251\n      jump\t// in\n    tag_394:\n        /* \"#utility.yul\":10339:10478   */\n      swap1\n      pop\n        /* \"#utility.yul\":10066:10485   */\n      swap2\n      swap1\n      pop\n      jump\t// out\n        /* \"#utility.yul\":10491:10823   */\n    tag_130:\n        /* \"#utility.yul\":10612:10616   */\n      0x00\n        /* \"#utility.yul\":10650:10652   */\n      0x40\n        /* \"#utility.yul\":10639:10648   */\n      dup3\n        /* \"#utility.yul\":10635:10653   */\n      add\n        /* \"#utility.yul\":10627:10653   */\n      swap1\n      pop\n        /* \"#utility.yul\":10663:10734   */\n      tag_396\n        /* \"#utility.yul\":10731:10732   */\n      0x00\n        /* \"#utility.yul\":10720:10729   */\n      dup4\n        /* \"#utility.yul\":10716:10733   */\n      add\n        /* \"#utility.yul\":10707:10713   */\n      dup6\n        /* \"#utility.yul\":10663:10734   */\n      tag_238\n      jump\t// in\n    tag_396:\n        /* \"#utility.yul\":10744:10816   */\n      tag_397\n        /* \"#utility.yul\":10812:10814   */\n      0x20\n        /* \"#utility.yul\":10801:10810   */\n      dup4\n        /* \"#utility.yul\":10797:10815   */\n      add\n        /* \"#utility.yul\":10788:10794   */\n      dup5\n        /* \"#utility.yul\":10744:10816   */\n      tag_237\n      jump\t// in\n    tag_397:\n        /* \"#utility.yul\":10491:10823   */\n      swap4\n      swap3\n      pop\n      pop\n      pop\n      jump\t// out\n        /* \"#utility.yul\":10829:10914   */\n    tag_252:\n        /* \"#utility.yul\":10874:10881   */\n      0x00\n        /* \"#utility.yul\":10903:10908   */\n      dup2\n        /* \"#utility.yul\":10892:10908   */\n      swap1\n      pop\n        /* \"#utility.yul\":10829:10914   */\n      swap2\n      swap1\n      pop\n      jump\t// out\n        /* \"#utility.yul\":10920:11078   */\n    tag_253:\n        /* \"#utility.yul\":10978:10987   */\n      0x00\n        /* \"#utility.yul\":11011:11072   */\n      tag_400\n        /* \"#utility.yul\":11029:11071   */\n      tag_401\n        /* \"#utility.yul\":11038:11070   */\n      tag_402\n        /* \"#utility.yul\":11064:11069   */\n      dup5\n        /* \"#utility.yul\":11038:11070   */\n      tag_252\n      jump\t// in\n    tag_402:\n        /* \"#utility.yul\":11029:11071   */\n      tag_219\n      jump\t// in\n    tag_401:\n        /* \"#utility.yul\":11011:11072   */\n      tag_230\n      jump\t// in\n    tag_400:\n        /* \"#utility.yul\":10998:11072   */\n      swap1\n      pop\n        /* \"#utility.yul\":10920:11078   */\n      swap2\n      swap1\n      pop\n      jump\t// out\n        /* \"#utility.yul\":11084:11231   */\n    tag_254:\n        /* \"#utility.yul\":11179:11224   */\n      tag_404\n        /* \"#utility.yul\":11218:11223   */\n      dup2\n        /* \"#utility.yul\":11179:11224   */\n      tag_253\n      jump\t// in\n    tag_404:\n        /* \"#utility.yul\":11174:11177   */\n      dup3\n        /* \"#utility.yul\":11167:11225   */\n      mstore\n        /* \"#utility.yul\":11084:11231   */\n      pop\n      pop\n      jump\t// out\n        /* \"#utility.yul\":11237:11335   */\n    tag_255:\n        /* \"#utility.yul\":11288:11294   */\n      0x00\n        /* \"#utility.yul\":11322:11327   */\n      dup2\n        /* \"#utility.yul\":11316:11328   */\n      mload\n        /* \"#utility.yul\":11306:11328   */\n      swap1\n      pop\n        /* \"#utility.yul\":11237:11335   */\n      swap2\n      swap1\n      pop\n      jump\t// out\n        /* \"#utility.yul\":11341:11509   */\n    tag_256:\n        /* \"#utility.yul\":11424:11435   */\n      0x00\n        /* \"#utility.yul\":11458:11464   */\n      dup3\n        /* \"#utility.yul\":11453:11456   */\n      dup3\n        /* \"#utility.yul\":11446:11465   */\n      mstore\n        /* \"#utility.yul\":11498:11502   */\n      0x20\n        /* \"#utility.yul\":11493:11496   */\n      dup3\n        /* \"#utility.yul\":11489:11503   */\n      add\n        /* \"#utility.yul\":11474:11503   */\n      swap1\n      pop\n        /* \"#utility.yul\":11341:11509   */\n      swap3\n      swap2\n      pop\n      pop\n      jump\t// out\n        /* \"#utility.yul\":11515:11654   */\n    tag_257:\n        /* \"#utility.yul\":11604:11610   */\n      dup3\n        /* \"#utility.yul\":11599:11602   */\n      dup2\n        /* \"#utility.yul\":11594:11597   */\n      dup4\n        /* \"#utility.yul\":11588:11611   */\n      mcopy\n        /* \"#utility.yul\":11645:11646   */\n      0x00\n        /* \"#utility.yul\":11636:11642   */\n      dup4\n        /* \"#utility.yul\":11631:11634   */\n      dup4\n        /* \"#utility.yul\":11627:11643   */\n      add\n        /* \"#utility.yul\":11620:11647   */\n      mstore\n        /* \"#utility.yul\":11515:11654   */\n      pop\n      pop\n      pop\n      jump\t// out\n        /* \"#utility.yul\":11660:11762   */\n    tag_258:\n        /* \"#utility.yul\":11701:11707   */\n      0x00\n        /* \"#utility.yul\":11752:11754   */\n      0x1f\n        /* \"#utility.yul\":11748:11755   */\n      not\n        /* \"#utility.yul\":11743:11745   */\n      0x1f\n        /* \"#utility.yul\":11736:11741   */\n      dup4\n        /* \"#utility.yul\":11732:11746   */\n      add\n        /* \"#utility.yul\":11728:11756   */\n      and\n        /* \"#utility.yul\":11718:11756   */\n      swap1\n      pop\n        /* \"#utility.yul\":11660:11762   */\n      swap2\n      swap1\n      pop\n      jump\t// out\n        /* \"#utility.yul\":11768:12141   */\n    tag_259:\n        /* \"#utility.yul\":11854:11857   */\n      0x00\n        /* \"#utility.yul\":11882:11920   */\n      tag_410\n        /* \"#utility.yul\":11914:11919   */\n      dup3\n        /* \"#utility.yul\":11882:11920   */\n      tag_255\n      jump\t// in\n    tag_410:\n        /* \"#utility.yul\":11936:12006   */\n      tag_411\n        /* \"#utility.yul\":11999:12005   */\n      dup2\n        /* \"#utility.yul\":11994:11997   */\n      dup6\n        /* \"#utility.yul\":11936:12006   */\n      tag_256\n      jump\t// in\n    tag_411:\n        /* \"#utility.yul\":11929:12006   */\n      swap4\n      pop\n        /* \"#utility.yul\":12015:12080   */\n      tag_412\n        /* \"#utility.yul\":12073:12079   */\n      dup2\n        /* \"#utility.yul\":12068:12071   */\n      dup6\n        /* \"#utility.yul\":12061:12065   */\n      0x20\n        /* \"#utility.yul\":12054:12059   */\n      dup7\n        /* \"#utility.yul\":12050:12066   */\n      add\n        /* \"#utility.yul\":12015:12080   */\n      tag_257\n      jump\t// in\n    tag_412:\n        /* \"#utility.yul\":12105:12134   */\n      tag_413\n        /* \"#utility.yul\":12127:12133   */\n      dup2\n        /* \"#utility.yul\":12105:12134   */\n      tag_258\n      jump\t// in\n    tag_413:\n        /* \"#utility.yul\":12100:12103   */\n      dup5\n        /* \"#utility.yul\":12096:12135   */\n      add\n        /* \"#utility.yul\":12089:12135   */\n      swap2\n      pop\n        /* \"#utility.yul\":11858:12141   */\n      pop\n        /* \"#utility.yul\":11768:12141   */\n      swap3\n      swap2\n      pop\n      pop\n      jump\t// out\n        /* \"#utility.yul\":12147:12803   */\n    tag_132:\n        /* \"#utility.yul\":12350:12354   */\n      0x00\n        /* \"#utility.yul\":12388:12391   */\n      0x80\n        /* \"#utility.yul\":12377:12386   */\n      dup3\n        /* \"#utility.yul\":12373:12392   */\n      add\n        /* \"#utility.yul\":12365:12392   */\n      swap1\n      pop\n        /* \"#utility.yul\":12402:12473   */\n      tag_415\n        /* \"#utility.yul\":12470:12471   */\n      0x00\n        /* \"#utility.yul\":12459:12468   */\n      dup4\n        /* \"#utility.yul\":12455:12472   */\n      add\n        /* \"#utility.yul\":12446:12452   */\n      dup8\n        /* \"#utility.yul\":12402:12473   */\n      tag_237\n      jump\t// in\n    tag_415:\n        /* \"#utility.yul\":12483:12563   */\n      tag_416\n        /* \"#utility.yul\":12559:12561   */\n      0x20\n        /* \"#utility.yul\":12548:12557   */\n      dup4\n        /* \"#utility.yul\":12544:12562   */\n      add\n        /* \"#utility.yul\":12535:12541   */\n      dup7\n        /* \"#utility.yul\":12483:12563   */\n      tag_254\n      jump\t// in\n    tag_416:\n        /* \"#utility.yul\":12573:12645   */\n      tag_417\n        /* \"#utility.yul\":12641:12643   */\n      0x40\n        /* \"#utility.yul\":12630:12639   */\n      dup4\n        /* \"#utility.yul\":12626:12644   */\n      add\n        /* \"#utility.yul\":12617:12623   */\n      dup6\n        /* \"#utility.yul\":12573:12645   */\n      tag_238\n      jump\t// in\n    tag_417:\n        /* \"#utility.yul\":12692:12701   */\n      dup2\n        /* \"#utility.yul\":12686:12690   */\n      dup2\n        /* \"#utility.yul\":12682:12702   */\n      sub\n        /* \"#utility.yul\":12677:12679   */\n      0x60\n        /* \"#utility.yul\":12666:12675   */\n      dup4\n        /* \"#utility.yul\":12662:12680   */\n      add\n        /* \"#utility.yul\":12655:12703   */\n      mstore\n        /* \"#utility.yul\":12720:12796   */\n      tag_418\n        /* \"#utility.yul\":12791:12795   */\n      dup2\n        /* \"#utility.yul\":12782:12788   */\n      dup5\n        /* \"#utility.yul\":12720:12796   */\n      tag_259\n      jump\t// in\n    tag_418:\n        /* \"#utility.yul\":12712:12796   */\n      swap1\n      pop\n        /* \"#utility.yul\":12147:12803   */\n      swap6\n      swap5\n      pop\n      pop\n      pop\n      pop\n      pop\n      jump\t// out\n        /* \"#utility.yul\":12809:12899   */\n    tag_260:\n        /* \"#utility.yul\":12843:12850   */\n      0x00\n        /* \"#utility.yul\":12886:12891   */\n      dup2\n        /* \"#utility.yul\":12879:12892   */\n      iszero\n        /* \"#utility.yul\":12872:12893   */\n      iszero\n        /* \"#utility.yul\":12861:12893   */\n      swap1\n      pop\n        /* \"#utility.yul\":12809:12899   */\n      swap2\n      swap1\n      pop\n      jump\t// out\n        /* \"#utility.yul\":12905:13021   */\n    tag_261:\n        /* \"#utility.yul\":12975:12996   */\n      tag_421\n        /* \"#utility.yul\":12990:12995   */\n      dup2\n        /* \"#utility.yul\":12975:12996   */\n      tag_260\n      jump\t// in\n    tag_421:\n        /* \"#utility.yul\":12968:12973   */\n      dup2\n        /* \"#utility.yul\":12965:12997   */\n      eq\n        /* \"#utility.yul\":12955:13015   */\n      tag_422\n      jumpi\n        /* \"#utility.yul\":13011:13012   */\n      0x00\n        /* \"#utility.yul\":13008:13009   */\n      0x00\n        /* \"#utility.yul\":13001:13013   */\n      revert\n        /* \"#utility.yul\":12955:13015   */\n    tag_422:\n        /* \"#utility.yul\":12905:13021   */\n      pop\n      jump\t// out\n        /* \"#utility.yul\":13027:13164   */\n    tag_262:\n        /* \"#utility.yul\":13081:13086   */\n      0x00\n        /* \"#utility.yul\":13112:13118   */\n      dup2\n        /* \"#utility.yul\":13106:13119   */\n      mload\n        /* \"#utility.yul\":13097:13119   */\n      swap1\n      pop\n        /* \"#utility.yul\":13128:13158   */\n      tag_424\n        /* \"#utility.yul\":13152:13157   */\n      dup2\n        /* \"#utility.yul\":13128:13158   */\n      tag_261\n      jump\t// in\n    tag_424:\n        /* \"#utility.yul\":13027:13164   */\n      swap3\n      swap2\n      pop\n      pop\n      jump\t// out\n        /* \"#utility.yul\":13170:13515   */\n    tag_178:\n        /* \"#utility.yul\":13237:13243   */\n      0x00\n        /* \"#utility.yul\":13286:13288   */\n      0x20\n        /* \"#utility.yul\":13274:13283   */\n      dup3\n        /* \"#utility.yul\":13265:13272   */\n      dup5\n        /* \"#utility.yul\":13261:13284   */\n      sub\n        /* \"#utility.yul\":13257:13289   */\n      slt\n        /* \"#utility.yul\":13254:13373   */\n      iszero\n      tag_426\n      jumpi\n        /* \"#utility.yul\":13292:13371   */\n      tag_427\n      tag_225\n      jump\t// in\n    tag_427:\n        /* \"#utility.yul\":13254:13373   */\n    tag_426:\n        /* \"#utility.yul\":13412:13413   */\n      0x00\n        /* \"#utility.yul\":13437:13498   */\n      tag_428\n        /* \"#utility.yul\":13490:13497   */\n      dup5\n        /* \"#utility.yul\":13481:13487   */\n      dup3\n        /* \"#utility.yul\":13470:13479   */\n      dup6\n        /* \"#utility.yul\":13466:13488   */\n      add\n        /* \"#utility.yul\":13437:13498   */\n      tag_262\n      jump\t// in\n    tag_428:\n        /* \"#utility.yul\":13427:13498   */\n      swap2\n      pop\n        /* \"#utility.yul\":13383:13508   */\n      pop\n        /* \"#utility.yul\":13170:13515   */\n      swap3\n      swap2\n      pop\n      pop\n      jump\t// out\n        /* \"#utility.yul\":13521:13668   */\n    tag_263:\n        /* \"#utility.yul\":13622:13633   */\n      0x00\n        /* \"#utility.yul\":13659:13662   */\n      dup2\n        /* \"#utility.yul\":13644:13662   */\n      swap1\n      pop\n        /* \"#utility.yul\":13521:13668   */\n      swap3\n      swap2\n      pop\n      pop\n      jump\t// out\n        /* \"#utility.yul\":13674:14060   */\n    tag_264:\n        /* \"#utility.yul\":13778:13781   */\n      0x00\n        /* \"#utility.yul\":13806:13844   */\n      tag_431\n        /* \"#utility.yul\":13838:13843   */\n      dup3\n        /* \"#utility.yul\":13806:13844   */\n      tag_255\n      jump\t// in\n    tag_431:\n        /* \"#utility.yul\":13860:13948   */\n      tag_432\n        /* \"#utility.yul\":13941:13947   */\n      dup2\n        /* \"#utility.yul\":13936:13939   */\n      dup6\n        /* \"#utility.yul\":13860:13948   */\n      tag_263\n      jump\t// in\n    tag_432:\n        /* \"#utility.yul\":13853:13948   */\n      swap4\n      pop\n        /* \"#utility.yul\":13957:14022   */\n      tag_433\n        /* \"#utility.yul\":14015:14021   */\n      dup2\n        /* \"#utility.yul\":14010:14013   */\n      dup6\n        /* \"#utility.yul\":14003:14007   */\n      0x20\n        /* \"#utility.yul\":13996:14001   */\n      dup7\n        /* \"#utility.yul\":13992:14008   */\n      add\n        /* \"#utility.yul\":13957:14022   */\n      tag_257\n      jump\t// in\n    tag_433:\n        /* \"#utility.yul\":14047:14053   */\n      dup1\n        /* \"#utility.yul\":14042:14045   */\n      dup5\n        /* \"#utility.yul\":14038:14054   */\n      add\n        /* \"#utility.yul\":14031:14054   */\n      swap2\n      pop\n        /* \"#utility.yul\":13782:14060   */\n      pop\n        /* \"#utility.yul\":13674:14060   */\n      swap3\n      swap2\n      pop\n      pop\n      jump\t// out\n        /* \"#utility.yul\":14066:14337   */\n    tag_201:\n        /* \"#utility.yul\":14196:14199   */\n      0x00\n        /* \"#utility.yul\":14218:14311   */\n      tag_435\n        /* \"#utility.yul\":14307:14310   */\n      dup3\n        /* \"#utility.yul\":14298:14304   */\n      dup5\n        /* \"#utility.yul\":14218:14311   */\n      tag_264\n      jump\t// in\n    tag_435:\n        /* \"#utility.yul\":14211:14311   */\n      swap2\n      pop\n        /* \"#utility.yul\":14328:14331   */\n      dup2\n        /* \"#utility.yul\":14321:14331   */\n      swap1\n      pop\n        /* \"#utility.yul\":14066:14337   */\n      swap3\n      swap2\n      pop\n      pop\n      jump\t// out\n\n    auxdata: 0xa2646970667358221220111fde08480940ca2303abf50eba1af77592ed91d552652a567ab7330a6852a764736f6c634300081f0033\n}\n",
				"bytecode": {
					"linkReferences": {},
					"object": "6080604052670de0b6b3a764000060055534801561001b575f5ffd5b50604051611b25380380611b25833981810160405281019061003d91906103bc565b335f73ffffffffffffffffffffffffffffffffffffffff168173ffffffffffffffffffffffffffffffffffffffff16036100ae575f6040517f1e4fbdf70000000000000000000000000000000000000000000000000000000081526004016100a59190610409565b60405180910390fd5b6100bd8161029d60201b60201c565b508160015f6101000a81548173ffffffffffffffffffffffffffffffffffffffff021916908373ffffffffffffffffffffffffffffffffffffffff1602179055508060025f6101000a81548173ffffffffffffffffffffffffffffffffffffffff021916908373ffffffffffffffffffffffffffffffffffffffff1602179055508173ffffffffffffffffffffffffffffffffffffffff16630dfe16816040518163ffffffff1660e01b8152600401602060405180830381865afa158015610187573d5f5f3e3d5ffd5b505050506040513d601f19601f820116820180604052508101906101ab9190610422565b60035f6101000a81548173ffffffffffffffffffffffffffffffffffffffff021916908373ffffffffffffffffffffffffffffffffffffffff1602179055508173ffffffffffffffffffffffffffffffffffffffff1663d21220a76040518163ffffffff1660e01b8152600401602060405180830381865afa158015610233573d5f5f3e3d5ffd5b505050506040513d601f19601f820116820180604052508101906102579190610422565b60045f6101000a81548173ffffffffffffffffffffffffffffffffffffffff021916908373ffffffffffffffffffffffffffffffffffffffff160217905550505061044d565b5f5f5f9054906101000a900473ffffffffffffffffffffffffffffffffffffffff169050815f5f6101000a81548173ffffffffffffffffffffffffffffffffffffffff021916908373ffffffffffffffffffffffffffffffffffffffff1602179055508173ffffffffffffffffffffffffffffffffffffffff168173ffffffffffffffffffffffffffffffffffffffff167f8be0079c531659141344cd1fd0a4f28419497f9722a3daafe3b4186f6b6457e060405160405180910390a35050565b5f5ffd5b5f73ffffffffffffffffffffffffffffffffffffffff82169050919050565b5f61038b82610362565b9050919050565b61039b81610381565b81146103a5575f5ffd5b50565b5f815190506103b681610392565b92915050565b5f5f604083850312156103d2576103d161035e565b5b5f6103df858286016103a8565b92505060206103f0858286016103a8565b9150509250929050565b61040381610381565b82525050565b5f60208201905061041c5f8301846103fa565b92915050565b5f602082840312156104375761043661035e565b5b5f610444848285016103a8565b91505092915050565b6116cb8061045a5f395ff3fe608060405234801561000f575f5ffd5b50600436106100e8575f3560e01c806375c81ad01161008a578063e080e7b511610064578063e080e7b514610212578063f2fde38b14610230578063f7c5761d1461024c578063f7c7724f1461027c576100e8565b806375c81ad0146101b85780638da5cb5b146101d6578063bb693ca0146101f4576100e8565b80633b42e5e2116100c65780633b42e5e21461014457806350cfe3c7146101605780635f64b55b14610190578063715018a6146101ae576100e8565b80630fc63d10146100ec57806310d1e85c1461010a5780632a7bea4f14610126575b5f5ffd5b6100f4610298565b6040516101019190610f7c565b60405180910390f35b610124600480360381019061011f919061106c565b6102bd565b005b61012e6103bd565b60405161013b91906110ff565b60405180910390f35b61015e60048036038101906101599190611118565b6105d9565b005b61017a60048036038101906101759190611143565b6105eb565b60405161018791906110ff565b60405180910390f35b610198610600565b6040516101a59190610f7c565b60405180910390f35b6101b6610625565b005b6101c0610638565b6040516101cd91906110ff565b60405180910390f35b6101de61063e565b6040516101eb919061117d565b60405180910390f35b6101fc610665565b604051610209919061117d565b60405180910390f35b61021a61068a565b604051610227919061117d565b60405180910390f35b61024a60048036038101906102459190611143565b6106af565b005b61026660048036038101906102619190611143565b610733565b60405161027391906110ff565b60405180910390f35b61029660048036038101906102919190611118565b610779565b005b60035f9054906101000a900473ffffffffffffffffffffffffffffffffffffffff1681565b5f5f83838101906102ce91906111d1565b915091505f6103e86003886102e3919061123c565b6102ed91906112aa565b876102f891906112da565b905061036760015f9054906101000a900473ffffffffffffffffffffffffffffffffffffffff168260035f9054906101000a900473ffffffffffffffffffffffffffffffffffffffff1673ffffffffffffffffffffffffffffffffffffffff1661090b9092919063ffffffff16565b6103b3838360035f9054906101000a900473ffffffffffffffffffffffffffffffffffffffff1673ffffffffffffffffffffffffffffffffffffffff1661090b9092919063ffffffff16565b5050505050505050565b5f5f5f60015f9054906101000a900473ffffffffffffffffffffffffffffffffffffffff1673ffffffffffffffffffffffffffffffffffffffff16630902f1ac6040518163ffffffff1660e01b8152600401606060405180830381865afa15801561042a573d5f5f3e3d5ffd5b505050506040513d601f19601f8201168201806040525081019061044e9190611389565b50915091505f5f60025f9054906101000a900473ffffffffffffffffffffffffffffffffffffffff1673ffffffffffffffffffffffffffffffffffffffff16630902f1ac6040518163ffffffff1660e01b8152600401606060405180830381865afa1580156104bf573d5f5f3e3d5ffd5b505050506040513d601f19601f820116820180604052508101906104e39190611389565b50915091505f5f90505f600190505b600581116105b9575f866dffffffffffffffffffffffffffff166103e8876dffffffffffffffffffffffffffff1661052a919061123c565b61053491906112aa565b90505f856dffffffffffffffffffffffffffff166103e8866dffffffffffffffffffffffffffff16610566919061123c565b61057091906112aa565b905080821161058a57818161058591906113d9565b610597565b808261059691906113d9565b5b846105a291906112da565b9350505080806105b19061140c565b9150506104f2565b5060646105c58261098a565b6105cf919061123c565b9550505050505090565b6105e1610a80565b8060058190555050565b6006602052805f5260405f205f915090505481565b60045f9054906101000a900473ffffffffffffffffffffffffffffffffffffffff1681565b61062d610a80565b6106365f610b07565b565b60055481565b5f5f5f9054906101000a900473ffffffffffffffffffffffffffffffffffffffff16905090565b60015f9054906101000a900473ffffffffffffffffffffffffffffffffffffffff1681565b60025f9054906101000a900473ffffffffffffffffffffffffffffffffffffffff1681565b6106b7610a80565b5f73ffffffffffffffffffffffffffffffffffffffff168173ffffffffffffffffffffffffffffffffffffffff1603610727575f6040517f1e4fbdf700000000000000000000000000000000000000000000000000000000815260040161071e919061117d565b60405180910390fd5b61073081610b07565b50565b5f60065f8373ffffffffffffffffffffffffffffffffffffffff1673ffffffffffffffffffffffffffffffffffffffff1681526020019081526020015f20549050919050565b5f6107826103bd565b90506005548110156107c9576040517f08c379a00000000000000000000000000000000000000000000000000000000081526004016107c0906114ad565b60405180910390fd5b5f33826040516020016107dd9291906114cb565b604051602081830303815290604052905060015f9054906101000a900473ffffffffffffffffffffffffffffffffffffffff1673ffffffffffffffffffffffffffffffffffffffff1663022c0d9f845f30856040518563ffffffff1660e01b815260040161084e949392919061159b565b5f604051808303815f87803b158015610865575f5ffd5b505af1158015610877573d5f5f3e3d5ffd5b5050505060065f3373ffffffffffffffffffffffffffffffffffffffff1673ffffffffffffffffffffffffffffffffffffffff1681526020019081526020015f205f8154809291906108c89061140c565b91905055507f972395fa18a09986c9b239da16e04fbe5c3736528787885746a83439cdc2f0bc33836040516108fe9291906114cb565b60405180910390a1505050565b610985838473ffffffffffffffffffffffffffffffffffffffff1663a9059cbb858560405160240161093e9291906114cb565b604051602081830303815290604052915060e01b6020820180517bffffffffffffffffffffffffffffffffffffffffffffffffffffffff8381831617835250505050610bc8565b505050565b5f5f820361099a575f9050610a7b565b5f60016109a684610c5d565b901c6001901b905060018184816109c0576109bf61127d565b5b048201901c905060018184816109d9576109d861127d565b5b048201901c905060018184816109f2576109f161127d565b5b048201901c90506001818481610a0b57610a0a61127d565b5b048201901c90506001818481610a2457610a2361127d565b5b048201901c90506001818481610a3d57610a3c61127d565b5b048201901c90506001818481610a5657610a5561127d565b5b048201901c9050610a7781828581610a7157610a7061127d565b5b04610d34565b9150505b919050565b610a88610d4c565b73ffffffffffffffffffffffffffffffffffffffff16610aa661063e565b73ffffffffffffffffffffffffffffffffffffffff1614610b0557610ac9610d4c565b6040517f118cdaa7000000000000000000000000000000000000000000000000000000008152600401610afc919061117d565b60405180910390fd5b565b5f5f5f9054906101000a900473ffffffffffffffffffffffffffffffffffffffff169050815f5f6101000a81548173ffffffffffffffffffffffffffffffffffffffff021916908373ffffffffffffffffffffffffffffffffffffffff1602179055508173ffffffffffffffffffffffffffffffffffffffff168173ffffffffffffffffffffffffffffffffffffffff167f8be0079c531659141344cd1fd0a4f28419497f9722a3daafe3b4186f6b6457e060405160405180910390a35050565b5f610bf2828473ffffffffffffffffffffffffffffffffffffffff16610d5390919063ffffffff16565b90505f815114158015610c16575080806020019051810190610c14919061161a565b155b15610c5857826040517f5274afe7000000000000000000000000000000000000000000000000000000008152600401610c4f919061117d565b60405180910390fd5b505050565b5f5f5f90505f608084901c1115610c7c57608083901c92506080810190505b5f604084901c1115610c9657604083901c92506040810190505b5f602084901c1115610cb057602083901c92506020810190505b5f601084901c1115610cca57601083901c92506010810190505b5f600884901c1115610ce457600883901c92506008810190505b5f600484901c1115610cfe57600483901c92506004810190505b5f600284901c1115610d1857600283901c92506002810190505b5f600184901c1115610d2b576001810190505b80915050919050565b5f818310610d425781610d44565b825b905092915050565b5f33905090565b6060610d6083835f610d68565b905092915050565b606081471015610daf57306040517fcd786059000000000000000000000000000000000000000000000000000000008152600401610da6919061117d565b60405180910390fd5b5f5f8573ffffffffffffffffffffffffffffffffffffffff168486604051610dd7919061167f565b5f6040518083038185875af1925050503d805f8114610e11576040519150601f19603f3d011682016040523d82523d5f602084013e610e16565b606091505b5091509150610e26868383610e31565b925050509392505050565b606082610e4657610e4182610ebe565b610eb6565b5f8251148015610e6c57505f8473ffffffffffffffffffffffffffffffffffffffff163b145b15610eae57836040517f9996b315000000000000000000000000000000000000000000000000000000008152600401610ea5919061117d565b60405180910390fd5b819050610eb7565b5b9392505050565b5f81511115610ed05780518082602001fd5b6040517f1425ea4200000000000000000000000000000000000000000000000000000000815260040160405180910390fd5b5f73ffffffffffffffffffffffffffffffffffffffff82169050919050565b5f819050919050565b5f610f44610f3f610f3a84610f02565b610f21565b610f02565b9050919050565b5f610f5582610f2a565b9050919050565b5f610f6682610f4b565b9050919050565b610f7681610f5c565b82525050565b5f602082019050610f8f5f830184610f6d565b92915050565b5f5ffd5b5f5ffd5b5f610fa782610f02565b9050919050565b610fb781610f9d565b8114610fc1575f5ffd5b50565b5f81359050610fd281610fae565b92915050565b5f819050919050565b610fea81610fd8565b8114610ff4575f5ffd5b50565b5f8135905061100581610fe1565b92915050565b5f5ffd5b5f5ffd5b5f5ffd5b5f5f83601f84011261102c5761102b61100b565b5b8235905067ffffffffffffffff8111156110495761104861100f565b5b60208301915083600182028301111561106557611064611013565b5b9250929050565b5f5f5f5f5f6080868803121561108557611084610f95565b5b5f61109288828901610fc4565b95505060206110a388828901610ff7565b94505060406110b488828901610ff7565b935050606086013567ffffffffffffffff8111156110d5576110d4610f99565b5b6110e188828901611017565b92509250509295509295909350565b6110f981610fd8565b82525050565b5f6020820190506111125f8301846110f0565b92915050565b5f6020828403121561112d5761112c610f95565b5b5f61113a84828501610ff7565b91505092915050565b5f6020828403121561115857611157610f95565b5b5f61116584828501610fc4565b91505092915050565b61117781610f9d565b82525050565b5f6020820190506111905f83018461116e565b92915050565b5f6111a082610f02565b9050919050565b6111b081611196565b81146111ba575f5ffd5b50565b5f813590506111cb816111a7565b92915050565b5f5f604083850312156111e7576111e6610f95565b5b5f6111f4858286016111bd565b925050602061120585828601610ff7565b9150509250929050565b7f4e487b71000000000000000000000000000000000000000000000000000000005f52601160045260245ffd5b5f61124682610fd8565b915061125183610fd8565b925082820261125f81610fd8565b915082820484148315176112765761127561120f565b5b5092915050565b7f4e487b71000000000000000000000000000000000000000000000000000000005f52601260045260245ffd5b5f6112b482610fd8565b91506112bf83610fd8565b9250826112cf576112ce61127d565b5b828204905092915050565b5f6112e482610fd8565b91506112ef83610fd8565b92508282019050808211156113075761130661120f565b5b92915050565b5f6dffffffffffffffffffffffffffff82169050919050565b61132f8161130d565b8114611339575f5ffd5b50565b5f8151905061134a81611326565b92915050565b5f63ffffffff82169050919050565b61136881611350565b8114611372575f5ffd5b50565b5f815190506113838161135f565b92915050565b5f5f5f606084860312156113a05761139f610f95565b5b5f6113ad8682870161133c565b93505060206113be8682870161133c565b92505060406113cf86828701611375565b9150509250925092565b5f6113e382610fd8565b91506113ee83610fd8565b92508282039050818111156114065761140561120f565b5b92915050565b5f61141682610fd8565b91507fffffffffffffffffffffffffffffffffffffffffffffffffffffffffffffffff82036114485761144761120f565b5b600182019050919050565b5f82825260208201905092915050565b7f4e6f2070726f66697400000000000000000000000000000000000000000000005f82015250565b5f611497600983611453565b91506114a282611463565b602082019050919050565b5f6020820190508181035f8301526114c48161148b565b9050919050565b5f6040820190506114de5f83018561116e565b6114eb60208301846110f0565b9392505050565b5f819050919050565b5f61151561151061150b846114f2565b610f21565b610fd8565b9050919050565b611525816114fb565b82525050565b5f81519050919050565b5f82825260208201905092915050565b8281835e5f83830152505050565b5f601f19601f8301169050919050565b5f61156d8261152b565b6115778185611535565b9350611587818560208601611545565b61159081611553565b840191505092915050565b5f6080820190506115ae5f8301876110f0565b6115bb602083018661151c565b6115c8604083018561116e565b81810360608301526115da8184611563565b905095945050505050565b5f8115159050919050565b6115f9816115e5565b8114611603575f5ffd5b50565b5f81519050611614816115f0565b92915050565b5f6020828403121561162f5761162e610f95565b5b5f61163c84828501611606565b91505092915050565b5f81905092915050565b5f6116598261152b565b6116638185611645565b9350611673818560208601611545565b80840191505092915050565b5f61168a828461164f565b91508190509291505056fea2646970667358221220111fde08480940ca2303abf50eba1af77592ed91d552652a567ab7330a6852a764736f6c634300081f0033",
					"opcodes": "PUSH1 0x80 PUSH1 0x40 MSTORE PUSH8 0xDE0B6B3A7640000 PUSH1 0x5 SSTORE CALLVALUE DUP1 ISZERO PUSH2 0x1B JUMPI PUSH0 PUSH0 REVERT JUMPDEST POP PUSH1 0x40 MLOAD PUSH2 0x1B25 CODESIZE SUB DUP1 PUSH2 0x1B25 DUP4 CODECOPY DUP2 DUP2 ADD PUSH1 0x40 MSTORE DUP2 ADD SWAP1 PUSH2 0x3D SWAP2 SWAP1 PUSH2 0x3BC JUMP JUMPDEST CALLER PUSH0 PUSH20 0xFFFFFFFFFFFFFFFFFFFFFFFFFFFFFFFFFFFFFFFF AND DUP2 PUSH20 0xFFFFFFFFFFFFFFFFFFFFFFFFFFFFFFFFFFFFFFFF AND SUB PUSH2 0xAE JUMPI PUSH0 PUSH1 0x40 MLOAD PUSH32 0x1E4FBDF700000000000000000000000000000000000000000000000000000000 DUP2 MSTORE PUSH1 0x4 ADD PUSH2 0xA5 SWAP2 SWAP1 PUSH2 0x409 JUMP JUMPDEST PUSH1 0x40 MLOAD DUP1 SWAP2 SUB SWAP1 REVERT JUMPDEST PUSH2 0xBD DUP2 PUSH2 0x29D PUSH1 0x20 SHL PUSH1 0x20 SHR JUMP JUMPDEST POP DUP2 PUSH1 0x1 PUSH0 PUSH2 0x100 EXP DUP2 SLOAD DUP2 PUSH20 0xFFFFFFFFFFFFFFFFFFFFFFFFFFFFFFFFFFFFFFFF MUL NOT AND SWAP1 DUP4 PUSH20 0xFFFFFFFFFFFFFFFFFFFFFFFFFFFFFFFFFFFFFFFF AND MUL OR SWAP1 SSTORE POP DUP1 PUSH1 0x2 PUSH0 PUSH2 0x100 EXP DUP2 SLOAD DUP2 PUSH20 0xFFFFFFFFFFFFFFFFFFFFFFFFFFFFFFFFFFFFFFFF MUL NOT AND SWAP1 DUP4 PUSH20 0xFFFFFFFFFFFFFFFFFFFFFFFFFFFFFFFFFFFFFFFF AND MUL OR SWAP1 SSTORE POP DUP2 PUSH20 0xFFFFFFFFFFFFFFFFFFFFFFFFFFFFFFFFFFFFFFFF AND PUSH4 0xDFE1681 PUSH1 0x40 MLOAD DUP2 PUSH4 0xFFFFFFFF AND PUSH1 0xE0 SHL DUP2 MSTORE PUSH1 0x4 ADD PUSH1 0x20 PUSH1 0x40 MLOAD DUP1 DUP4 SUB DUP2 DUP7 GAS STATICCALL ISZERO DUP1 ISZERO PUSH2 0x187 JUMPI RETURNDATASIZE PUSH0 PUSH0 RETURNDATACOPY RETURNDATASIZE PUSH0 REVERT JUMPDEST POP POP POP POP PUSH1 0x40 MLOAD RETURNDATASIZE PUSH1 0x1F NOT PUSH1 0x1F DUP3 ADD AND DUP3 ADD DUP1 PUSH1 0x40 MSTORE POP DUP2 ADD SWAP1 PUSH2 0x1AB SWAP2 SWAP1 PUSH2 0x422 JUMP JUMPDEST PUSH1 0x3 PUSH0 PUSH2 0x100 EXP DUP2 SLOAD DUP2 PUSH20 0xFFFFFFFFFFFFFFFFFFFFFFFFFFFFFFFFFFFFFFFF MUL NOT AND SWAP1 DUP4 PUSH20 0xFFFFFFFFFFFFFFFFFFFFFFFFFFFFFFFFFFFFFFFF AND MUL OR SWAP1 SSTORE POP DUP2 PUSH20 0xFFFFFFFFFFFFFFFFFFFFFFFFFFFFFFFFFFFFFFFF AND PUSH4 0xD21220A7 PUSH1 0x40 MLOAD DUP2 PUSH4 0xFFFFFFFF AND PUSH1 0xE0 SHL DUP2 MSTORE PUSH1 0x4 ADD PUSH1 0x20 PUSH1 0x40 MLOAD DUP1 DUP4 SUB DUP2 DUP7 GAS STATICCALL ISZERO DUP1 ISZERO PUSH2 0x233 JUMPI RETURNDATASIZE PUSH0 PUSH0 RETURNDATACOPY RETURNDATASIZE PUSH0 REVERT JUMPDEST POP POP POP POP PUSH1 0x40 MLOAD RETURNDATASIZE PUSH1 0x1F NOT PUSH1 0x1F DUP3 ADD AND DUP3 ADD DUP1 PUSH1 0x40 MSTORE POP DUP2 ADD SWAP1 PUSH2 0x257 SWAP2 SWAP1 PUSH2 0x422 JUMP JUMPDEST PUSH1 0x4 PUSH0 PUSH2 0x100 EXP DUP2 SLOAD DUP2 PUSH20 0xFFFFFFFFFFFFFFFFFFFFFFFFFFFFFFFFFFFFFFFF MUL NOT AND SWAP1 DUP4 PUSH20 0xFFFFFFFFFFFFFFFFFFFFFFFFFFFFFFFFFFFFFFFF AND MUL OR SWAP1 SSTORE POP POP POP PUSH2 0x44D JUMP JUMPDEST PUSH0 PUSH0 PUSH0 SWAP1 SLOAD SWAP1 PUSH2 0x100 EXP SWAP1 DIV PUSH20 0xFFFFFFFFFFFFFFFFFFFFFFFFFFFFFFFFFFFFFFFF AND SWAP1 POP DUP2 PUSH0 PUSH0 PUSH2 0x100 EXP DUP2 SLOAD DUP2 PUSH20 0xFFFFFFFFFFFFFFFFFFFFFFFFFFFFFFFFFFFFFFFF MUL NOT AND SWAP1 DUP4 PUSH20 0xFFFFFFFFFFFFFFFFFFFFFFFFFFFFFFFFFFFFFFFF AND MUL OR SWAP1 SSTORE POP DUP2 PUSH20 0xFFFFFFFFFFFFFFFFFFFFFFFFFFFFFFFFFFFFFFFF AND DUP2 PUSH20 0xFFFFFFFFFFFFFFFFFFFFFFFFFFFFFFFFFFFFFFFF AND PUSH32 0x8BE0079C531659141344CD1FD0A4F28419497F9722A3DAAFE3B4186F6B6457E0 PUSH1 0x40 MLOAD PUSH1 0x40 MLOAD DUP1 SWAP2 SUB SWAP1 LOG3 POP POP JUMP JUMPDEST PUSH0 PUSH0 REVERT JUMPDEST PUSH0 PUSH20 0xFFFFFFFFFFFFFFFFFFFFFFFFFFFFFFFFFFFFFFFF DUP3 AND SWAP1 POP SWAP2 SWAP1 POP JUMP JUMPDEST PUSH0 PUSH2 0x38B DUP3 PUSH2 0x362 JUMP JUMPDEST SWAP1 POP SWAP2 SWAP1 POP JUMP JUMPDEST PUSH2 0x39B DUP2 PUSH2 0x381 JUMP JUMPDEST DUP2 EQ PUSH2 0x3A5 JUMPI PUSH0 PUSH0 REVERT JUMPDEST POP JUMP JUMPDEST PUSH0 DUP2 MLOAD SWAP1 POP PUSH2 0x3B6 DUP2 PUSH2 0x392 JUMP JUMPDEST SWAP3 SWAP2 POP POP JUMP JUMPDEST PUSH0 PUSH0 PUSH1 0x40 DUP4 DUP6 SUB SLT ISZERO PUSH2 0x3D2 JUMPI PUSH2 0x3D1 PUSH2 0x35E JUMP JUMPDEST JUMPDEST PUSH0 PUSH2 0x3DF DUP6 DUP3 DUP7 ADD PUSH2 0x3A8 JUMP JUMPDEST SWAP3 POP POP PUSH1 0x20 PUSH2 0x3F0 DUP6 DUP3 DUP7 ADD PUSH2 0x3A8 JUMP JUMPDEST SWAP2 POP POP SWAP3 POP SWAP3 SWAP1 POP JUMP JUMPDEST PUSH2 0x403 DUP2 PUSH2 0x381 JUMP JUMPDEST DUP3 MSTORE POP POP JUMP JUMPDEST PUSH0 PUSH1 0x20 DUP3 ADD SWAP1 POP PUSH2 0x41C PUSH0 DUP4 ADD DUP5 PUSH2 0x3FA JUMP JUMPDEST SWAP3 SWAP2 POP POP JUMP JUMPDEST PUSH0 PUSH1 0x20 DUP3 DUP5 SUB SLT ISZERO PUSH2 0x437 JUMPI PUSH2 0x436 PUSH2 0x35E JUMP JUMPDEST JUMPDEST PUSH0 PUSH2 0x444 DUP5 DUP3 DUP6 ADD PUSH2 0x3A8 JUMP JUMPDEST SWAP2 POP POP SWAP3 SWAP2 POP POP JUMP JUMPDEST PUSH2 0x16CB DUP1 PUSH2 0x45A PUSH0 CODECOPY PUSH0 RETURN INVALID PUSH1 0x80 PUSH1 0x40 MSTORE CALLVALUE DUP1 ISZERO PUSH2 0xF JUMPI PUSH0 PUSH0 REVERT JUMPDEST POP PUSH1 0x4 CALLDATASIZE LT PUSH2 0xE8 JUMPI PUSH0 CALLDATALOAD PUSH1 0xE0 SHR DUP1 PUSH4 0x75C81AD0 GT PUSH2 0x8A JUMPI DUP1 PUSH4 0xE080E7B5 GT PUSH2 0x64 JUMPI DUP1 PUSH4 0xE080E7B5 EQ PUSH2 0x212 JUMPI DUP1 PUSH4 0xF2FDE38B EQ PUSH2 0x230 JUMPI DUP1 PUSH4 0xF7C5761D EQ PUSH2 0x24C JUMPI DUP1 PUSH4 0xF7C7724F EQ PUSH2 0x27C JUMPI PUSH2 0xE8 JUMP JUMPDEST DUP1 PUSH4 0x75C81AD0 EQ PUSH2 0x1B8 JUMPI DUP1 PUSH4 0x8DA5CB5B EQ PUSH2 0x1D6 JUMPI DUP1 PUSH4 0xBB693CA0 EQ PUSH2 0x1F4 JUMPI PUSH2 0xE8 JUMP JUMPDEST DUP1 PUSH4 0x3B42E5E2 GT PUSH2 0xC6 JUMPI DUP1 PUSH4 0x3B42E5E2 EQ PUSH2 0x144 JUMPI DUP1 PUSH4 0x50CFE3C7 EQ PUSH2 0x160 JUMPI DUP1 PUSH4 0x5F64B55B EQ PUSH2 0x190 JUMPI DUP1 PUSH4 0x715018A6 EQ PUSH2 0x1AE JUMPI PUSH2 0xE8 JUMP JUMPDEST DUP1 PUSH4 0xFC63D10 EQ PUSH2 0xEC JUMPI DUP1 PUSH4 0x10D1E85C EQ PUSH2 0x10A JUMPI DUP1 PUSH4 0x2A7BEA4F EQ PUSH2 0x126 JUMPI JUMPDEST PUSH0 PUSH0 REVERT JUMPDEST PUSH2 0xF4 PUSH2 0x298 JUMP JUMPDEST PUSH1 0x40 MLOAD PUSH2 0x101 SWAP2 SWAP1 PUSH2 0xF7C JUMP JUMPDEST PUSH1 0x40 MLOAD DUP1 SWAP2 SUB SWAP1 RETURN JUMPDEST PUSH2 0x124 PUSH1 0x4 DUP1 CALLDATASIZE SUB DUP2 ADD SWAP1 PUSH2 0x11F SWAP2 SWAP1 PUSH2 0x106C JUMP JUMPDEST PUSH2 0x2BD JUMP JUMPDEST STOP JUMPDEST PUSH2 0x12E PUSH2 0x3BD JUMP JUMPDEST PUSH1 0x40 MLOAD PUSH2 0x13B SWAP2 SWAP1 PUSH2 0x10FF JUMP JUMPDEST PUSH1 0x40 MLOAD DUP1 SWAP2 SUB SWAP1 RETURN JUMPDEST PUSH2 0x15E PUSH1 0x4 DUP1 CALLDATASIZE SUB DUP2 ADD SWAP1 PUSH2 0x159 SWAP2 SWAP1 PUSH2 0x1118 JUMP JUMPDEST PUSH2 0x5D9 JUMP JUMPDEST STOP JUMPDEST PUSH2 0x17A PUSH1 0x4 DUP1 CALLDATASIZE SUB DUP2 ADD SWAP1 PUSH2 0x175 SWAP2 SWAP1 PUSH2 0x1143 JUMP JUMPDEST PUSH2 0x5EB JUMP JUMPDEST PUSH1 0x40 MLOAD PUSH2 0x187 SWAP2 SWAP1 PUSH2 0x10FF JUMP JUMPDEST PUSH1 0x40 MLOAD DUP1 SWAP2 SUB SWAP1 RETURN JUMPDEST PUSH2 0x198 PUSH2 0x600 JUMP JUMPDEST PUSH1 0x40 MLOAD PUSH2 0x1A5 SWAP2 SWAP1 PUSH2 0xF7C JUMP JUMPDEST PUSH1 0x40 MLOAD DUP1 SWAP2 SUB SWAP1 RETURN JUMPDEST PUSH2 0x1B6 PUSH2 0x625 JUMP JUMPDEST STOP JUMPDEST PUSH2 0x1C0 PUSH2 0x638 JUMP JUMPDEST PUSH1 0x40 MLOAD PUSH2 0x1CD SWAP2 SWAP1 PUSH2 0x10FF JUMP JUMPDEST PUSH1 0x40 MLOAD DUP1 SWAP2 SUB SWAP1 RETURN JUMPDEST PUSH2 0x1DE PUSH2 0x63E JUMP JUMPDEST PUSH1 0x40 MLOAD PUSH2 0x1EB SWAP2 SWAP1 PUSH2 0x117D JUMP JUMPDEST PUSH1 0x40 MLOAD DUP1 SWAP2 SUB SWAP1 RETURN JUMPDEST PUSH2 0x1FC PUSH2 0x665 JUMP JUMPDEST PUSH1 0x40 MLOAD PUSH2 0x209 SWAP2 SWAP1 PUSH2 0x117D JUMP JUMPDEST PUSH1 0x40 MLOAD DUP1 SWAP2 SUB SWAP1 RETURN JUMPDEST PUSH2 0x21A PUSH2 0x68A JUMP JUMPDEST PUSH1 0x40 MLOAD PUSH2 0x227 SWAP2 SWAP1 PUSH2 0x117D JUMP JUMPDEST PUSH1 0x40 MLOAD DUP1 SWAP2 SUB SWAP1 RETURN JUMPDEST PUSH2 0x24A PUSH1 0x4 DUP1 CALLDATASIZE SUB DUP2 ADD SWAP1 PUSH2 0x245 SWAP2 SWAP1 PUSH2 0x1143 JUMP JUMPDEST PUSH2 0x6AF JUMP JUMPDEST STOP JUMPDEST PUSH2 0x266 PUSH1 0x4 DUP1 CALLDATASIZE SUB DUP2 ADD SWAP1 PUSH2 0x261 SWAP2 SWAP1 PUSH2 0x1143 JUMP JUMPDEST PUSH2 0x733 JUMP JUMPDEST PUSH1 0x40 MLOAD PUSH2 0x273 SWAP2 SWAP1 PUSH2 0x10FF JUMP JUMPDEST PUSH1 0x40 MLOAD DUP1 SWAP2 SUB SWAP1 RETURN JUMPDEST PUSH2 0x296 PUSH1 0x4 DUP1 CALLDATASIZE SUB DUP2 ADD SWAP1 PUSH2 0x291 SWAP2 SWAP1 PUSH2 0x1118 JUMP JUMPDEST PUSH2 0x779 JUMP JUMPDEST STOP JUMPDEST PUSH1 0x3 PUSH0 SWAP1 SLOAD SWAP1 PUSH2 0x100 EXP SWAP1 DIV PUSH20 0xFFFFFFFFFFFFFFFFFFFFFFFFFFFFFFFFFFFFFFFF AND DUP2 JUMP JUMPDEST PUSH0 PUSH0 DUP4 DUP4 DUP2 ADD SWAP1 PUSH2 0x2CE SWAP2 SWAP1 PUSH2 0x11D1 JUMP JUMPDEST SWAP2 POP SWAP2 POP PUSH0 PUSH2 0x3E8 PUSH1 0x3 DUP9 PUSH2 0x2E3 SWAP2 SWAP1 PUSH2 0x123C JUMP JUMPDEST PUSH2 0x2ED SWAP2 SWAP1 PUSH2 0x12AA JUMP JUMPDEST DUP8 PUSH2 0x2F8 SWAP2 SWAP1 PUSH2 0x12DA JUMP JUMPDEST SWAP1 POP PUSH2 0x367 PUSH1 0x1 PUSH0 SWAP1 SLOAD SWAP1 PUSH2 0x100 EXP SWAP1 DIV PUSH20 0xFFFFFFFFFFFFFFFFFFFFFFFFFFFFFFFFFFFFFFFF AND DUP3 PUSH1 0x3 PUSH0 SWAP1 SLOAD SWAP1 PUSH2 0x100 EXP SWAP1 DIV PUSH20 0xFFFFFFFFFFFFFFFFFFFFFFFFFFFFFFFFFFFFFFFF AND PUSH20 0xFFFFFFFFFFFFFFFFFFFFFFFFFFFFFFFFFFFFFFFF AND PUSH2 0x90B SWAP1 SWAP3 SWAP2 SWAP1 PUSH4 0xFFFFFFFF AND JUMP JUMPDEST PUSH2 0x3B3 DUP4 DUP4 PUSH1 0x3 PUSH0 SWAP1 SLOAD SWAP1 PUSH2 0x100 EXP SWAP1 DIV PUSH20 0xFFFFFFFFFFFFFFFFFFFFFFFFFFFFFFFFFFFFFFFF AND PUSH20 0xFFFFFFFFFFFFFFFFFFFFFFFFFFFFFFFFFFFFFFFF AND PUSH2 0x90B SWAP1 SWAP3 SWAP2 SWAP1 PUSH4 0xFFFFFFFF AND JUMP JUMPDEST POP POP POP POP POP POP POP POP JUMP JUMPDEST PUSH0 PUSH0 PUSH0 PUSH1 0x1 PUSH0 SWAP1 SLOAD SWAP1 PUSH2 0x100 EXP SWAP1 DIV PUSH20 0xFFFFFFFFFFFFFFFFFFFFFFFFFFFFFFFFFFFFFFFF AND PUSH20 0xFFFFFFFFFFFFFFFFFFFFFFFFFFFFFFFFFFFFFFFF AND PUSH4 0x902F1AC PUSH1 0x40 MLOAD DUP2 PUSH4 0xFFFFFFFF AND PUSH1 0xE0 SHL DUP2 MSTORE PUSH1 0x4 ADD PUSH1 0x60 PUSH1 0x40 MLOAD DUP1 DUP4 SUB DUP2 DUP7 GAS STATICCALL ISZERO DUP1 ISZERO PUSH2 0x42A JUMPI RETURNDATASIZE PUSH0 PUSH0 RETURNDATACOPY RETURNDATASIZE PUSH0 REVERT JUMPDEST POP POP POP POP PUSH1 0x40 MLOAD RETURNDATASIZE PUSH1 0x1F NOT PUSH1 0x1F DUP3 ADD AND DUP3 ADD DUP1 PUSH1 0x40 MSTORE POP DUP2 ADD SWAP1 PUSH2 0x44E SWAP2 SWAP1 PUSH2 0x1389 JUMP JUMPDEST POP SWAP2 POP SWAP2 POP PUSH0 PUSH0 PUSH1 0x2 PUSH0 SWAP1 SLOAD SWAP1 PUSH2 0x100 EXP SWAP1 DIV PUSH20 0xFFFFFFFFFFFFFFFFFFFFFFFFFFFFFFFFFFFFFFFF AND PUSH20 0xFFFFFFFFFFFFFFFFFFFFFFFFFFFFFFFFFFFFFFFF AND PUSH4 0x902F1AC PUSH1 0x40 MLOAD DUP2 PUSH4 0xFFFFFFFF AND PUSH1 0xE0 SHL DUP2 MSTORE PUSH1 0x4 ADD PUSH1 0x60 PUSH1 0x40 MLOAD DUP1 DUP4 SUB DUP2 DUP7 GAS STATICCALL ISZERO DUP1 ISZERO PUSH2 0x4BF JUMPI RETURNDATASIZE PUSH0 PUSH0 RETURNDATACOPY RETURNDATASIZE PUSH0 REVERT JUMPDEST POP POP POP POP PUSH1 0x40 MLOAD RETURNDATASIZE PUSH1 0x1F NOT PUSH1 0x1F DUP3 ADD AND DUP3 ADD DUP1 PUSH1 0x40 MSTORE POP DUP2 ADD SWAP1 PUSH2 0x4E3 SWAP2 SWAP1 PUSH2 0x1389 JUMP JUMPDEST POP SWAP2 POP SWAP2 POP PUSH0 PUSH0 SWAP1 POP PUSH0 PUSH1 0x1 SWAP1 POP JUMPDEST PUSH1 0x5 DUP2 GT PUSH2 0x5B9 JUMPI PUSH0 DUP7 PUSH14 0xFFFFFFFFFFFFFFFFFFFFFFFFFFFF AND PUSH2 0x3E8 DUP8 PUSH14 0xFFFFFFFFFFFFFFFFFFFFFFFFFFFF AND PUSH2 0x52A SWAP2 SWAP1 PUSH2 0x123C JUMP JUMPDEST PUSH2 0x534 SWAP2 SWAP1 PUSH2 0x12AA JUMP JUMPDEST SWAP1 POP PUSH0 DUP6 PUSH14 0xFFFFFFFFFFFFFFFFFFFFFFFFFFFF AND PUSH2 0x3E8 DUP7 PUSH14 0xFFFFFFFFFFFFFFFFFFFFFFFFFFFF AND PUSH2 0x566 SWAP2 SWAP1 PUSH2 0x123C JUMP JUMPDEST PUSH2 0x570 SWAP2 SWAP1 PUSH2 0x12AA JUMP JUMPDEST SWAP1 POP DUP1 DUP3 GT PUSH2 0x58A JUMPI DUP2 DUP2 PUSH2 0x585 SWAP2 SWAP1 PUSH2 0x13D9 JUMP JUMPDEST PUSH2 0x597 JUMP JUMPDEST DUP1 DUP3 PUSH2 0x596 SWAP2 SWAP1 PUSH2 0x13D9 JUMP JUMPDEST JUMPDEST DUP5 PUSH2 0x5A2 SWAP2 SWAP1 PUSH2 0x12DA JUMP JUMPDEST SWAP4 POP POP POP DUP1 DUP1 PUSH2 0x5B1 SWAP1 PUSH2 0x140C JUMP JUMPDEST SWAP2 POP POP PUSH2 0x4F2 JUMP JUMPDEST POP PUSH1 0x64 PUSH2 0x5C5 DUP3 PUSH2 0x98A JUMP JUMPDEST PUSH2 0x5CF SWAP2 SWAP1 PUSH2 0x123C JUMP JUMPDEST SWAP6 POP POP POP POP POP POP SWAP1 JUMP JUMPDEST PUSH2 0x5E1 PUSH2 0xA80 JUMP JUMPDEST DUP1 PUSH1 0x5 DUP2 SWAP1 SSTORE POP POP JUMP JUMPDEST PUSH1 0x6 PUSH1 0x20 MSTORE DUP1 PUSH0 MSTORE PUSH1 0x40 PUSH0 KECCAK256 PUSH0 SWAP2 POP SWAP1 POP SLOAD DUP2 JUMP JUMPDEST PUSH1 0x4 PUSH0 SWAP1 SLOAD SWAP1 PUSH2 0x100 EXP SWAP1 DIV PUSH20 0xFFFFFFFFFFFFFFFFFFFFFFFFFFFFFFFFFFFFFFFF AND DUP2 JUMP JUMPDEST PUSH2 0x62D PUSH2 0xA80 JUMP JUMPDEST PUSH2 0x636 PUSH0 PUSH2 0xB07 JUMP JUMPDEST JUMP JUMPDEST PUSH1 0x5 SLOAD DUP2 JUMP JUMPDEST PUSH0 PUSH0 PUSH0 SWAP1 SLOAD SWAP1 PUSH2 0x100 EXP SWAP1 DIV PUSH20 0xFFFFFFFFFFFFFFFFFFFFFFFFFFFFFFFFFFFFFFFF AND SWAP1 POP SWAP1 JUMP JUMPDEST PUSH1 0x1 PUSH0 SWAP1 SLOAD SWAP1 PUSH2 0x100 EXP SWAP1 DIV PUSH20 0xFFFFFFFFFFFFFFFFFFFFFFFFFFFFFFFFFFFFFFFF AND DUP2 JUMP JUMPDEST PUSH1 0x2 PUSH0 SWAP1 SLOAD SWAP1 PUSH2 0x100 EXP SWAP1 DIV PUSH20 0xFFFFFFFFFFFFFFFFFFFFFFFFFFFFFFFFFFFFFFFF AND DUP2 JUMP JUMPDEST PUSH2 0x6B7 PUSH2 0xA80 JUMP JUMPDEST PUSH0 PUSH20 0xFFFFFFFFFFFFFFFFFFFFFFFFFFFFFFFFFFFFFFFF AND DUP2 PUSH20 0xFFFFFFFFFFFFFFFFFFFFFFFFFFFFFFFFFFFFFFFF AND SUB PUSH2 0x727 JUMPI PUSH0 PUSH1 0x40 MLOAD PUSH32 0x1E4FBDF700000000000000000000000000000000000000000000000000000000 DUP2 MSTORE PUSH1 0x4 ADD PUSH2 0x71E SWAP2 SWAP1 PUSH2 0x117D JUMP JUMPDEST PUSH1 0x40 MLOAD DUP1 SWAP2 SUB SWAP1 REVERT JUMPDEST PUSH2 0x730 DUP2 PUSH2 0xB07 JUMP JUMPDEST POP JUMP JUMPDEST PUSH0 PUSH1 0x6 PUSH0 DUP4 PUSH20 0xFFFFFFFFFFFFFFFFFFFFFFFFFFFFFFFFFFFFFFFF AND PUSH20 0xFFFFFFFFFFFFFFFFFFFFFFFFFFFFFFFFFFFFFFFF AND DUP2 MSTORE PUSH1 0x20 ADD SWAP1 DUP2 MSTORE PUSH1 0x20 ADD PUSH0 KECCAK256 SLOAD SWAP1 POP SWAP2 SWAP1 POP JUMP JUMPDEST PUSH0 PUSH2 0x782 PUSH2 0x3BD JUMP JUMPDEST SWAP1 POP PUSH1 0x5 SLOAD DUP2 LT ISZERO PUSH2 0x7C9 JUMPI PUSH1 0x40 MLOAD PUSH32 0x8C379A000000000000000000000000000000000000000000000000000000000 DUP2 MSTORE PUSH1 0x4 ADD PUSH2 0x7C0 SWAP1 PUSH2 0x14AD JUMP JUMPDEST PUSH1 0x40 MLOAD DUP1 SWAP2 SUB SWAP1 REVERT JUMPDEST PUSH0 CALLER DUP3 PUSH1 0x40 MLOAD PUSH1 0x20 ADD PUSH2 0x7DD SWAP3 SWAP2 SWAP1 PUSH2 0x14CB JUMP JUMPDEST PUSH1 0x40 MLOAD PUSH1 0x20 DUP2 DUP4 SUB SUB DUP2 MSTORE SWAP1 PUSH1 0x40 MSTORE SWAP1 POP PUSH1 0x1 PUSH0 SWAP1 SLOAD SWAP1 PUSH2 0x100 EXP SWAP1 DIV PUSH20 0xFFFFFFFFFFFFFFFFFFFFFFFFFFFFFFFFFFFFFFFF AND PUSH20 0xFFFFFFFFFFFFFFFFFFFFFFFFFFFFFFFFFFFFFFFF AND PUSH4 0x22C0D9F DUP5 PUSH0 ADDRESS DUP6 PUSH1 0x40 MLOAD DUP6 PUSH4 0xFFFFFFFF AND PUSH1 0xE0 SHL DUP2 MSTORE PUSH1 0x4 ADD PUSH2 0x84E SWAP5 SWAP4 SWAP3 SWAP2 SWAP1 PUSH2 0x159B JUMP JUMPDEST PUSH0 PUSH1 0x40 MLOAD DUP1 DUP4 SUB DUP2 PUSH0 DUP8 DUP1 EXTCODESIZE ISZERO DUP1 ISZERO PUSH2 0x865 JUMPI PUSH0 PUSH0 REVERT JUMPDEST POP GAS CALL ISZERO DUP1 ISZERO PUSH2 0x877 JUMPI RETURNDATASIZE PUSH0 PUSH0 RETURNDATACOPY RETURNDATASIZE PUSH0 REVERT JUMPDEST POP POP POP POP PUSH1 0x6 PUSH0 CALLER PUSH20 0xFFFFFFFFFFFFFFFFFFFFFFFFFFFFFFFFFFFFFFFF AND PUSH20 0xFFFFFFFFFFFFFFFFFFFFFFFFFFFFFFFFFFFFFFFF AND DUP2 MSTORE PUSH1 0x20 ADD SWAP1 DUP2 MSTORE PUSH1 0x20 ADD PUSH0 KECCAK256 PUSH0 DUP2 SLOAD DUP1 SWAP3 SWAP2 SWAP1 PUSH2 0x8C8 SWAP1 PUSH2 0x140C JUMP JUMPDEST SWAP2 SWAP1 POP SSTORE POP PUSH32 0x972395FA18A09986C9B239DA16E04FBE5C3736528787885746A83439CDC2F0BC CALLER DUP4 PUSH1 0x40 MLOAD PUSH2 0x8FE SWAP3 SWAP2 SWAP1 PUSH2 0x14CB JUMP JUMPDEST PUSH1 0x40 MLOAD DUP1 SWAP2 SUB SWAP1 LOG1 POP POP POP JUMP JUMPDEST PUSH2 0x985 DUP4 DUP5 PUSH20 0xFFFFFFFFFFFFFFFFFFFFFFFFFFFFFFFFFFFFFFFF AND PUSH4 0xA9059CBB DUP6 DUP6 PUSH1 0x40 MLOAD PUSH1 0x24 ADD PUSH2 0x93E SWAP3 SWAP2 SWAP1 PUSH2 0x14CB JUMP JUMPDEST PUSH1 0x40 MLOAD PUSH1 0x20 DUP2 DUP4 SUB SUB DUP2 MSTORE SWAP1 PUSH1 0x40 MSTORE SWAP2 POP PUSH1 0xE0 SHL PUSH1 0x20 DUP3 ADD DUP1 MLOAD PUSH28 0xFFFFFFFFFFFFFFFFFFFFFFFFFFFFFFFFFFFFFFFFFFFFFFFFFFFFFFFF DUP4 DUP2 DUP4 AND OR DUP4 MSTORE POP POP POP POP PUSH2 0xBC8 JUMP JUMPDEST POP POP POP JUMP JUMPDEST PUSH0 PUSH0 DUP3 SUB PUSH2 0x99A JUMPI PUSH0 SWAP1 POP PUSH2 0xA7B JUMP JUMPDEST PUSH0 PUSH1 0x1 PUSH2 0x9A6 DUP5 PUSH2 0xC5D JUMP JUMPDEST SWAP1 SHR PUSH1 0x1 SWAP1 SHL SWAP1 POP PUSH1 0x1 DUP2 DUP5 DUP2 PUSH2 0x9C0 JUMPI PUSH2 0x9BF PUSH2 0x127D JUMP JUMPDEST JUMPDEST DIV DUP3 ADD SWAP1 SHR SWAP1 POP PUSH1 0x1 DUP2 DUP5 DUP2 PUSH2 0x9D9 JUMPI PUSH2 0x9D8 PUSH2 0x127D JUMP JUMPDEST JUMPDEST DIV DUP3 ADD SWAP1 SHR SWAP1 POP PUSH1 0x1 DUP2 DUP5 DUP2 PUSH2 0x9F2 JUMPI PUSH2 0x9F1 PUSH2 0x127D JUMP JUMPDEST JUMPDEST DIV DUP3 ADD SWAP1 SHR SWAP1 POP PUSH1 0x1 DUP2 DUP5 DUP2 PUSH2 0xA0B JUMPI PUSH2 0xA0A PUSH2 0x127D JUMP JUMPDEST JUMPDEST DIV DUP3 ADD SWAP1 SHR SWAP1 POP PUSH1 0x1 DUP2 DUP5 DUP2 PUSH2 0xA24 JUMPI PUSH2 0xA23 PUSH2 0x127D JUMP JUMPDEST JUMPDEST DIV DUP3 ADD SWAP1 SHR SWAP1 POP PUSH1 0x1 DUP2 DUP5 DUP2 PUSH2 0xA3D JUMPI PUSH2 0xA3C PUSH2 0x127D JUMP JUMPDEST JUMPDEST DIV DUP3 ADD SWAP1 SHR SWAP1 POP PUSH1 0x1 DUP2 DUP5 DUP2 PUSH2 0xA56 JUMPI PUSH2 0xA55 PUSH2 0x127D JUMP JUMPDEST JUMPDEST DIV DUP3 ADD SWAP1 SHR SWAP1 POP PUSH2 0xA77 DUP2 DUP3 DUP6 DUP2 PUSH2 0xA71 JUMPI PUSH2 0xA70 PUSH2 0x127D JUMP JUMPDEST JUMPDEST DIV PUSH2 0xD34 JUMP JUMPDEST SWAP2 POP POP JUMPDEST SWAP2 SWAP1 POP JUMP JUMPDEST PUSH2 0xA88 PUSH2 0xD4C JUMP JUMPDEST PUSH20 0xFFFFFFFFFFFFFFFFFFFFFFFFFFFFFFFFFFFFFFFF AND PUSH2 0xAA6 PUSH2 0x63E JUMP JUMPDEST PUSH20 0xFFFFFFFFFFFFFFFFFFFFFFFFFFFFFFFFFFFFFFFF AND EQ PUSH2 0xB05 JUMPI PUSH2 0xAC9 PUSH2 0xD4C JUMP JUMPDEST PUSH1 0x40 MLOAD PUSH32 0x118CDAA700000000000000000000000000000000000000000000000000000000 DUP2 MSTORE PUSH1 0x4 ADD PUSH2 0xAFC SWAP2 SWAP1 PUSH2 0x117D JUMP JUMPDEST PUSH1 0x40 MLOAD DUP1 SWAP2 SUB SWAP1 REVERT JUMPDEST JUMP JUMPDEST PUSH0 PUSH0 PUSH0 SWAP1 SLOAD SWAP1 PUSH2 0x100 EXP SWAP1 DIV PUSH20 0xFFFFFFFFFFFFFFFFFFFFFFFFFFFFFFFFFFFFFFFF AND SWAP1 POP DUP2 PUSH0 PUSH0 PUSH2 0x100 EXP DUP2 SLOAD DUP2 PUSH20 0xFFFFFFFFFFFFFFFFFFFFFFFFFFFFFFFFFFFFFFFF MUL NOT AND SWAP1 DUP4 PUSH20 0xFFFFFFFFFFFFFFFFFFFFFFFFFFFFFFFFFFFFFFFF AND MUL OR SWAP1 SSTORE POP DUP2 PUSH20 0xFFFFFFFFFFFFFFFFFFFFFFFFFFFFFFFFFFFFFFFF AND DUP2 PUSH20 0xFFFFFFFFFFFFFFFFFFFFFFFFFFFFFFFFFFFFFFFF AND PUSH32 0x8BE0079C531659141344CD1FD0A4F28419497F9722A3DAAFE3B4186F6B6457E0 PUSH1 0x40 MLOAD PUSH1 0x40 MLOAD DUP1 SWAP2 SUB SWAP1 LOG3 POP POP JUMP JUMPDEST PUSH0 PUSH2 0xBF2 DUP3 DUP5 PUSH20 0xFFFFFFFFFFFFFFFFFFFFFFFFFFFFFFFFFFFFFFFF AND PUSH2 0xD53 SWAP1 SWAP2 SWAP1 PUSH4 0xFFFFFFFF AND JUMP JUMPDEST SWAP1 POP PUSH0 DUP2 MLOAD EQ ISZERO DUP1 ISZERO PUSH2 0xC16 JUMPI POP DUP1 DUP1 PUSH1 0x20 ADD SWAP1 MLOAD DUP2 ADD SWAP1 PUSH2 0xC14 SWAP2 SWAP1 PUSH2 0x161A JUMP JUMPDEST ISZERO JUMPDEST ISZERO PUSH2 0xC58 JUMPI DUP3 PUSH1 0x40 MLOAD PUSH32 0x5274AFE700000000000000000000000000000000000000000000000000000000 DUP2 MSTORE PUSH1 0x4 ADD PUSH2 0xC4F SWAP2 SWAP1 PUSH2 0x117D JUMP JUMPDEST PUSH1 0x40 MLOAD DUP1 SWAP2 SUB SWAP1 REVERT JUMPDEST POP POP POP JUMP JUMPDEST PUSH0 PUSH0 PUSH0 SWAP1 POP PUSH0 PUSH1 0x80 DUP5 SWAP1 SHR GT ISZERO PUSH2 0xC7C JUMPI PUSH1 0x80 DUP4 SWAP1 SHR SWAP3 POP PUSH1 0x80 DUP2 ADD SWAP1 POP JUMPDEST PUSH0 PUSH1 0x40 DUP5 SWAP1 SHR GT ISZERO PUSH2 0xC96 JUMPI PUSH1 0x40 DUP4 SWAP1 SHR SWAP3 POP PUSH1 0x40 DUP2 ADD SWAP1 POP JUMPDEST PUSH0 PUSH1 0x20 DUP5 SWAP1 SHR GT ISZERO PUSH2 0xCB0 JUMPI PUSH1 0x20 DUP4 SWAP1 SHR SWAP3 POP PUSH1 0x20 DUP2 ADD SWAP1 POP JUMPDEST PUSH0 PUSH1 0x10 DUP5 SWAP1 SHR GT ISZERO PUSH2 0xCCA JUMPI PUSH1 0x10 DUP4 SWAP1 SHR SWAP3 POP PUSH1 0x10 DUP2 ADD SWAP1 POP JUMPDEST PUSH0 PUSH1 0x8 DUP5 SWAP1 SHR GT ISZERO PUSH2 0xCE4 JUMPI PUSH1 0x8 DUP4 SWAP1 SHR SWAP3 POP PUSH1 0x8 DUP2 ADD SWAP1 POP JUMPDEST PUSH0 PUSH1 0x4 DUP5 SWAP1 SHR GT ISZERO PUSH2 0xCFE JUMPI PUSH1 0x4 DUP4 SWAP1 SHR SWAP3 POP PUSH1 0x4 DUP2 ADD SWAP1 POP JUMPDEST PUSH0 PUSH1 0x2 DUP5 SWAP1 SHR GT ISZERO PUSH2 0xD18 JUMPI PUSH1 0x2 DUP4 SWAP1 SHR SWAP3 POP PUSH1 0x2 DUP2 ADD SWAP1 POP JUMPDEST PUSH0 PUSH1 0x1 DUP5 SWAP1 SHR GT ISZERO PUSH2 0xD2B JUMPI PUSH1 0x1 DUP2 ADD SWAP1 POP JUMPDEST DUP1 SWAP2 POP POP SWAP2 SWAP1 POP JUMP JUMPDEST PUSH0 DUP2 DUP4 LT PUSH2 0xD42 JUMPI DUP2 PUSH2 0xD44 JUMP JUMPDEST DUP3 JUMPDEST SWAP1 POP SWAP3 SWAP2 POP POP JUMP JUMPDEST PUSH0 CALLER SWAP1 POP SWAP1 JUMP JUMPDEST PUSH1 0x60 PUSH2 0xD60 DUP4 DUP4 PUSH0 PUSH2 0xD68 JUMP JUMPDEST SWAP1 POP SWAP3 SWAP2 POP POP JUMP JUMPDEST PUSH1 0x60 DUP2 SELFBALANCE LT ISZERO PUSH2 0xDAF JUMPI ADDRESS PUSH1 0x40 MLOAD PUSH32 0xCD78605900000000000000000000000000000000000000000000000000000000 DUP2 MSTORE PUSH1 0x4 ADD PUSH2 0xDA6 SWAP2 SWAP1 PUSH2 0x117D JUMP JUMPDEST PUSH1 0x40 MLOAD DUP1 SWAP2 SUB SWAP1 REVERT JUMPDEST PUSH0 PUSH0 DUP6 PUSH20 0xFFFFFFFFFFFFFFFFFFFFFFFFFFFFFFFFFFFFFFFF AND DUP5 DUP7 PUSH1 0x40 MLOAD PUSH2 0xDD7 SWAP2 SWAP1 PUSH2 0x167F JUMP JUMPDEST PUSH0 PUSH1 0x40 MLOAD DUP1 DUP4 SUB DUP2 DUP6 DUP8 GAS CALL SWAP3 POP POP POP RETURNDATASIZE DUP1 PUSH0 DUP2 EQ PUSH2 0xE11 JUMPI PUSH1 0x40 MLOAD SWAP2 POP PUSH1 0x1F NOT PUSH1 0x3F RETURNDATASIZE ADD AND DUP3 ADD PUSH1 0x40 MSTORE RETURNDATASIZE DUP3 MSTORE RETURNDATASIZE PUSH0 PUSH1 0x20 DUP5 ADD RETURNDATACOPY PUSH2 0xE16 JUMP JUMPDEST PUSH1 0x60 SWAP2 POP JUMPDEST POP SWAP2 POP SWAP2 POP PUSH2 0xE26 DUP7 DUP4 DUP4 PUSH2 0xE31 JUMP JUMPDEST SWAP3 POP POP POP SWAP4 SWAP3 POP POP POP JUMP JUMPDEST PUSH1 0x60 DUP3 PUSH2 0xE46 JUMPI PUSH2 0xE41 DUP3 PUSH2 0xEBE JUMP JUMPDEST PUSH2 0xEB6 JUMP JUMPDEST PUSH0 DUP3 MLOAD EQ DUP1 ISZERO PUSH2 0xE6C JUMPI POP PUSH0 DUP5 PUSH20 0xFFFFFFFFFFFFFFFFFFFFFFFFFFFFFFFFFFFFFFFF AND EXTCODESIZE EQ JUMPDEST ISZERO PUSH2 0xEAE JUMPI DUP4 PUSH1 0x40 MLOAD PUSH32 0x9996B31500000000000000000000000000000000000000000000000000000000 DUP2 MSTORE PUSH1 0x4 ADD PUSH2 0xEA5 SWAP2 SWAP1 PUSH2 0x117D JUMP JUMPDEST PUSH1 0x40 MLOAD DUP1 SWAP2 SUB SWAP1 REVERT JUMPDEST DUP2 SWAP1 POP PUSH2 0xEB7 JUMP JUMPDEST JUMPDEST SWAP4 SWAP3 POP POP POP JUMP JUMPDEST PUSH0 DUP2 MLOAD GT ISZERO PUSH2 0xED0 JUMPI DUP1 MLOAD DUP1 DUP3 PUSH1 0x20 ADD REVERT JUMPDEST PUSH1 0x40 MLOAD PUSH32 0x1425EA4200000000000000000000000000000000000000000000000000000000 DUP2 MSTORE PUSH1 0x4 ADD PUSH1 0x40 MLOAD DUP1 SWAP2 SUB SWAP1 REVERT JUMPDEST PUSH0 PUSH20 0xFFFFFFFFFFFFFFFFFFFFFFFFFFFFFFFFFFFFFFFF DUP3 AND SWAP1 POP SWAP2 SWAP1 POP JUMP JUMPDEST PUSH0 DUP2 SWAP1 POP SWAP2 SWAP1 POP JUMP JUMPDEST PUSH0 PUSH2 0xF44 PUSH2 0xF3F PUSH2 0xF3A DUP5 PUSH2 0xF02 JUMP JUMPDEST PUSH2 0xF21 JUMP JUMPDEST PUSH2 0xF02 JUMP JUMPDEST SWAP1 POP SWAP2 SWAP1 POP JUMP JUMPDEST PUSH0 PUSH2 0xF55 DUP3 PUSH2 0xF2A JUMP JUMPDEST SWAP1 POP SWAP2 SWAP1 POP JUMP JUMPDEST PUSH0 PUSH2 0xF66 DUP3 PUSH2 0xF4B JUMP JUMPDEST SWAP1 POP SWAP2 SWAP1 POP JUMP JUMPDEST PUSH2 0xF76 DUP2 PUSH2 0xF5C JUMP JUMPDEST DUP3 MSTORE POP POP JUMP JUMPDEST PUSH0 PUSH1 0x20 DUP3 ADD SWAP1 POP PUSH2 0xF8F PUSH0 DUP4 ADD DUP5 PUSH2 0xF6D JUMP JUMPDEST SWAP3 SWAP2 POP POP JUMP JUMPDEST PUSH0 PUSH0 REVERT JUMPDEST PUSH0 PUSH0 REVERT JUMPDEST PUSH0 PUSH2 0xFA7 DUP3 PUSH2 0xF02 JUMP JUMPDEST SWAP1 POP SWAP2 SWAP1 POP JUMP JUMPDEST PUSH2 0xFB7 DUP2 PUSH2 0xF9D JUMP JUMPDEST DUP2 EQ PUSH2 0xFC1 JUMPI PUSH0 PUSH0 REVERT JUMPDEST POP JUMP JUMPDEST PUSH0 DUP2 CALLDATALOAD SWAP1 POP PUSH2 0xFD2 DUP2 PUSH2 0xFAE JUMP JUMPDEST SWAP3 SWAP2 POP POP JUMP JUMPDEST PUSH0 DUP2 SWAP1 POP SWAP2 SWAP1 POP JUMP JUMPDEST PUSH2 0xFEA DUP2 PUSH2 0xFD8 JUMP JUMPDEST DUP2 EQ PUSH2 0xFF4 JUMPI PUSH0 PUSH0 REVERT JUMPDEST POP JUMP JUMPDEST PUSH0 DUP2 CALLDATALOAD SWAP1 POP PUSH2 0x1005 DUP2 PUSH2 0xFE1 JUMP JUMPDEST SWAP3 SWAP2 POP POP JUMP JUMPDEST PUSH0 PUSH0 REVERT JUMPDEST PUSH0 PUSH0 REVERT JUMPDEST PUSH0 PUSH0 REVERT JUMPDEST PUSH0 PUSH0 DUP4 PUSH1 0x1F DUP5 ADD SLT PUSH2 0x102C JUMPI PUSH2 0x102B PUSH2 0x100B JUMP JUMPDEST JUMPDEST DUP3 CALLDATALOAD SWAP1 POP PUSH8 0xFFFFFFFFFFFFFFFF DUP2 GT ISZERO PUSH2 0x1049 JUMPI PUSH2 0x1048 PUSH2 0x100F JUMP JUMPDEST JUMPDEST PUSH1 0x20 DUP4 ADD SWAP2 POP DUP4 PUSH1 0x1 DUP3 MUL DUP4 ADD GT ISZERO PUSH2 0x1065 JUMPI PUSH2 0x1064 PUSH2 0x1013 JUMP JUMPDEST JUMPDEST SWAP3 POP SWAP3 SWAP1 POP JUMP JUMPDEST PUSH0 PUSH0 PUSH0 PUSH0 PUSH0 PUSH1 0x80 DUP7 DUP9 SUB SLT ISZERO PUSH2 0x1085 JUMPI PUSH2 0x1084 PUSH2 0xF95 JUMP JUMPDEST JUMPDEST PUSH0 PUSH2 0x1092 DUP9 DUP3 DUP10 ADD PUSH2 0xFC4 JUMP JUMPDEST SWAP6 POP POP PUSH1 0x20 PUSH2 0x10A3 DUP9 DUP3 DUP10 ADD PUSH2 0xFF7 JUMP JUMPDEST SWAP5 POP POP PUSH1 0x40 PUSH2 0x10B4 DUP9 DUP3 DUP10 ADD PUSH2 0xFF7 JUMP JUMPDEST SWAP4 POP POP PUSH1 0x60 DUP7 ADD CALLDATALOAD PUSH8 0xFFFFFFFFFFFFFFFF DUP2 GT ISZERO PUSH2 0x10D5 JUMPI PUSH2 0x10D4 PUSH2 0xF99 JUMP JUMPDEST JUMPDEST PUSH2 0x10E1 DUP9 DUP3 DUP10 ADD PUSH2 0x1017 JUMP JUMPDEST SWAP3 POP SWAP3 POP POP SWAP3 SWAP6 POP SWAP3 SWAP6 SWAP1 SWAP4 POP JUMP JUMPDEST PUSH2 0x10F9 DUP2 PUSH2 0xFD8 JUMP JUMPDEST DUP3 MSTORE POP POP JUMP JUMPDEST PUSH0 PUSH1 0x20 DUP3 ADD SWAP1 POP PUSH2 0x1112 PUSH0 DUP4 ADD DUP5 PUSH2 0x10F0 JUMP JUMPDEST SWAP3 SWAP2 POP POP JUMP JUMPDEST PUSH0 PUSH1 0x20 DUP3 DUP5 SUB SLT ISZERO PUSH2 0x112D JUMPI PUSH2 0x112C PUSH2 0xF95 JUMP JUMPDEST JUMPDEST PUSH0 PUSH2 0x113A DUP5 DUP3 DUP6 ADD PUSH2 0xFF7 JUMP JUMPDEST SWAP2 POP POP SWAP3 SWAP2 POP POP JUMP JUMPDEST PUSH0 PUSH1 0x20 DUP3 DUP5 SUB SLT ISZERO PUSH2 0x1158 JUMPI PUSH2 0x1157 PUSH2 0xF95 JUMP JUMPDEST JUMPDEST PUSH0 PUSH2 0x1165 DUP5 DUP3 DUP6 ADD PUSH2 0xFC4 JUMP JUMPDEST SWAP2 POP POP SWAP3 SWAP2 POP POP JUMP JUMPDEST PUSH2 0x1177 DUP2 PUSH2 0xF9D JUMP JUMPDEST DUP3 MSTORE POP POP JUMP JUMPDEST PUSH0 PUSH1 0x20 DUP3 ADD SWAP1 POP PUSH2 0x1190 PUSH0 DUP4 ADD DUP5 PUSH2 0x116E JUMP JUMPDEST SWAP3 SWAP2 POP POP JUMP JUMPDEST PUSH0 PUSH2 0x11A0 DUP3 PUSH2 0xF02 JUMP JUMPDEST SWAP1 POP SWAP2 SWAP1 POP JUMP JUMPDEST PUSH2 0x11B0 DUP2 PUSH2 0x1196 JUMP JUMPDEST DUP2 EQ PUSH2 0x11BA JUMPI PUSH0 PUSH0 REVERT JUMPDEST POP JUMP JUMPDEST PUSH0 DUP2 CALLDATALOAD SWAP1 POP PUSH2 0x11CB DUP2 PUSH2 0x11A7 JUMP JUMPDEST SWAP3 SWAP2 POP POP JUMP JUMPDEST PUSH0 PUSH0 PUSH1 0x40 DUP4 DUP6 SUB SLT ISZERO PUSH2 0x11E7 JUMPI PUSH2 0x11E6 PUSH2 0xF95 JUMP JUMPDEST JUMPDEST PUSH0 PUSH2 0x11F4 DUP6 DUP3 DUP7 ADD PUSH2 0x11BD JUMP JUMPDEST SWAP3 POP POP PUSH1 0x20 PUSH2 0x1205 DUP6 DUP3 DUP7 ADD PUSH2 0xFF7 JUMP JUMPDEST SWAP2 POP POP SWAP3 POP SWAP3 SWAP1 POP JUMP JUMPDEST PUSH32 0x4E487B7100000000000000000000000000000000000000000000000000000000 PUSH0 MSTORE PUSH1 0x11 PUSH1 0x4 MSTORE PUSH1 0x24 PUSH0 REVERT JUMPDEST PUSH0 PUSH2 0x1246 DUP3 PUSH2 0xFD8 JUMP JUMPDEST SWAP2 POP PUSH2 0x1251 DUP4 PUSH2 0xFD8 JUMP JUMPDEST SWAP3 POP DUP3 DUP3 MUL PUSH2 0x125F DUP2 PUSH2 0xFD8 JUMP JUMPDEST SWAP2 POP DUP3 DUP3 DIV DUP5 EQ DUP4 ISZERO OR PUSH2 0x1276 JUMPI PUSH2 0x1275 PUSH2 0x120F JUMP JUMPDEST JUMPDEST POP SWAP3 SWAP2 POP POP JUMP JUMPDEST PUSH32 0x4E487B7100000000000000000000000000000000000000000000000000000000 PUSH0 MSTORE PUSH1 0x12 PUSH1 0x4 MSTORE PUSH1 0x24 PUSH0 REVERT JUMPDEST PUSH0 PUSH2 0x12B4 DUP3 PUSH2 0xFD8 JUMP JUMPDEST SWAP2 POP PUSH2 0x12BF DUP4 PUSH2 0xFD8 JUMP JUMPDEST SWAP3 POP DUP3 PUSH2 0x12CF JUMPI PUSH2 0x12CE PUSH2 0x127D JUMP JUMPDEST JUMPDEST DUP3 DUP3 DIV SWAP1 POP SWAP3 SWAP2 POP POP JUMP JUMPDEST PUSH0 PUSH2 0x12E4 DUP3 PUSH2 0xFD8 JUMP JUMPDEST SWAP2 POP PUSH2 0x12EF DUP4 PUSH2 0xFD8 JUMP JUMPDEST SWAP3 POP DUP3 DUP3 ADD SWAP1 POP DUP1 DUP3 GT ISZERO PUSH2 0x1307 JUMPI PUSH2 0x1306 PUSH2 0x120F JUMP JUMPDEST JUMPDEST SWAP3 SWAP2 POP POP JUMP JUMPDEST PUSH0 PUSH14 0xFFFFFFFFFFFFFFFFFFFFFFFFFFFF DUP3 AND SWAP1 POP SWAP2 SWAP1 POP JUMP JUMPDEST PUSH2 0x132F DUP2 PUSH2 0x130D JUMP JUMPDEST DUP2 EQ PUSH2 0x1339 JUMPI PUSH0 PUSH0 REVERT JUMPDEST POP JUMP JUMPDEST PUSH0 DUP2 MLOAD SWAP1 POP PUSH2 0x134A DUP2 PUSH2 0x1326 JUMP JUMPDEST SWAP3 SWAP2 POP POP JUMP JUMPDEST PUSH0 PUSH4 0xFFFFFFFF DUP3 AND SWAP1 POP SWAP2 SWAP1 POP JUMP JUMPDEST PUSH2 0x1368 DUP2 PUSH2 0x1350 JUMP JUMPDEST DUP2 EQ PUSH2 0x1372 JUMPI PUSH0 PUSH0 REVERT JUMPDEST POP JUMP JUMPDEST PUSH0 DUP2 MLOAD SWAP1 POP PUSH2 0x1383 DUP2 PUSH2 0x135F JUMP JUMPDEST SWAP3 SWAP2 POP POP JUMP JUMPDEST PUSH0 PUSH0 PUSH0 PUSH1 0x60 DUP5 DUP7 SUB SLT ISZERO PUSH2 0x13A0 JUMPI PUSH2 0x139F PUSH2 0xF95 JUMP JUMPDEST JUMPDEST PUSH0 PUSH2 0x13AD DUP7 DUP3 DUP8 ADD PUSH2 0x133C JUMP JUMPDEST SWAP4 POP POP PUSH1 0x20 PUSH2 0x13BE DUP7 DUP3 DUP8 ADD PUSH2 0x133C JUMP JUMPDEST SWAP3 POP POP PUSH1 0x40 PUSH2 0x13CF DUP7 DUP3 DUP8 ADD PUSH2 0x1375 JUMP JUMPDEST SWAP2 POP POP SWAP3 POP SWAP3 POP SWAP3 JUMP JUMPDEST PUSH0 PUSH2 0x13E3 DUP3 PUSH2 0xFD8 JUMP JUMPDEST SWAP2 POP PUSH2 0x13EE DUP4 PUSH2 0xFD8 JUMP JUMPDEST SWAP3 POP DUP3 DUP3 SUB SWAP1 POP DUP2 DUP2 GT ISZERO PUSH2 0x1406 JUMPI PUSH2 0x1405 PUSH2 0x120F JUMP JUMPDEST JUMPDEST SWAP3 SWAP2 POP POP JUMP JUMPDEST PUSH0 PUSH2 0x1416 DUP3 PUSH2 0xFD8 JUMP JUMPDEST SWAP2 POP PUSH32 0xFFFFFFFFFFFFFFFFFFFFFFFFFFFFFFFFFFFFFFFFFFFFFFFFFFFFFFFFFFFFFFFF DUP3 SUB PUSH2 0x1448 JUMPI PUSH2 0x1447 PUSH2 0x120F JUMP JUMPDEST JUMPDEST PUSH1 0x1 DUP3 ADD SWAP1 POP SWAP2 SWAP1 POP JUMP JUMPDEST PUSH0 DUP3 DUP3 MSTORE PUSH1 0x20 DUP3 ADD SWAP1 POP SWAP3 SWAP2 POP POP JUMP JUMPDEST PUSH32 0x4E6F2070726F6669740000000000000000000000000000000000000000000000 PUSH0 DUP3 ADD MSTORE POP JUMP JUMPDEST PUSH0 PUSH2 0x1497 PUSH1 0x9 DUP4 PUSH2 0x1453 JUMP JUMPDEST SWAP2 POP PUSH2 0x14A2 DUP3 PUSH2 0x1463 JUMP JUMPDEST PUSH1 0x20 DUP3 ADD SWAP1 POP SWAP2 SWAP1 POP JUMP JUMPDEST PUSH0 PUSH1 0x20 DUP3 ADD SWAP1 POP DUP2 DUP2 SUB PUSH0 DUP4 ADD MSTORE PUSH2 0x14C4 DUP2 PUSH2 0x148B JUMP JUMPDEST SWAP1 POP SWAP2 SWAP1 POP JUMP JUMPDEST PUSH0 PUSH1 0x40 DUP3 ADD SWAP1 POP PUSH2 0x14DE PUSH0 DUP4 ADD DUP6 PUSH2 0x116E JUMP JUMPDEST PUSH2 0x14EB PUSH1 0x20 DUP4 ADD DUP5 PUSH2 0x10F0 JUMP JUMPDEST SWAP4 SWAP3 POP POP POP JUMP JUMPDEST PUSH0 DUP2 SWAP1 POP SWAP2 SWAP1 POP JUMP JUMPDEST PUSH0 PUSH2 0x1515 PUSH2 0x1510 PUSH2 0x150B DUP5 PUSH2 0x14F2 JUMP JUMPDEST PUSH2 0xF21 JUMP JUMPDEST PUSH2 0xFD8 JUMP JUMPDEST SWAP1 POP SWAP2 SWAP1 POP JUMP JUMPDEST PUSH2 0x1525 DUP2 PUSH2 0x14FB JUMP JUMPDEST DUP3 MSTORE POP POP JUMP JUMPDEST PUSH0 DUP2 MLOAD SWAP1 POP SWAP2 SWAP1 POP JUMP JUMPDEST PUSH0 DUP3 DUP3 MSTORE PUSH1 0x20 DUP3 ADD SWAP1 POP SWAP3 SWAP2 POP POP JUMP JUMPDEST DUP3 DUP2 DUP4 MCOPY PUSH0 DUP4 DUP4 ADD MSTORE POP POP POP JUMP JUMPDEST PUSH0 PUSH1 0x1F NOT PUSH1 0x1F DUP4 ADD AND SWAP1 POP SWAP2 SWAP1 POP JUMP JUMPDEST PUSH0 PUSH2 0x156D DUP3 PUSH2 0x152B JUMP JUMPDEST PUSH2 0x1577 DUP2 DUP6 PUSH2 0x1535 JUMP JUMPDEST SWAP4 POP PUSH2 0x1587 DUP2 DUP6 PUSH1 0x20 DUP7 ADD PUSH2 0x1545 JUMP JUMPDEST PUSH2 0x1590 DUP2 PUSH2 0x1553 JUMP JUMPDEST DUP5 ADD SWAP2 POP POP SWAP3 SWAP2 POP POP JUMP JUMPDEST PUSH0 PUSH1 0x80 DUP3 ADD SWAP1 POP PUSH2 0x15AE PUSH0 DUP4 ADD DUP8 PUSH2 0x10F0 JUMP JUMPDEST PUSH2 0x15BB PUSH1 0x20 DUP4 ADD DUP7 PUSH2 0x151C JUMP JUMPDEST PUSH2 0x15C8 PUSH1 0x40 DUP4 ADD DUP6 PUSH2 0x116E JUMP JUMPDEST DUP2 DUP2 SUB PUSH1 0x60 DUP4 ADD MSTORE PUSH2 0x15DA DUP2 DUP5 PUSH2 0x1563 JUMP JUMPDEST SWAP1 POP SWAP6 SWAP5 POP POP POP POP POP JUMP JUMPDEST PUSH0 DUP2 ISZERO ISZERO SWAP1 POP SWAP2 SWAP1 POP JUMP JUMPDEST PUSH2 0x15F9 DUP2 PUSH2 0x15E5 JUMP JUMPDEST DUP2 EQ PUSH2 0x1603 JUMPI PUSH0 PUSH0 REVERT JUMPDEST POP JUMP JUMPDEST PUSH0 DUP2 MLOAD SWAP1 POP PUSH2 0x1614 DUP2 PUSH2 0x15F0 JUMP JUMPDEST SWAP3 SWAP2 POP POP JUMP JUMPDEST PUSH0 PUSH1 0x20 DUP3 DUP5 SUB SLT ISZERO PUSH2 0x162F JUMPI PUSH2 0x162E PUSH2 0xF95 JUMP JUMPDEST JUMPDEST PUSH0 PUSH2 0x163C DUP5 DUP3 DUP6 ADD PUSH2 0x1606 JUMP JUMPDEST SWAP2 POP POP SWAP3 SWAP2 POP POP JUMP JUMPDEST PUSH0 DUP2 SWAP1 POP SWAP3 SWAP2 POP POP JUMP JUMPDEST PUSH0 PUSH2 0x1659 DUP3 PUSH2 0x152B JUMP JUMPDEST PUSH2 0x1663 DUP2 DUP6 PUSH2 0x1645 JUMP JUMPDEST SWAP4 POP PUSH2 0x1673 DUP2 DUP6 PUSH1 0x20 DUP7 ADD PUSH2 0x1545 JUMP JUMPDEST DUP1 DUP5 ADD SWAP2 POP POP SWAP3 SWAP2 POP POP JUMP JUMPDEST PUSH0 PUSH2 0x168A DUP3 DUP5 PUSH2 0x164F JUMP JUMPDEST SWAP2 POP DUP2 SWAP1 POP SWAP3 SWAP2 POP POP JUMP INVALID LOG2 PUSH5 0x6970667358 0x22 SLT KECCAK256 GT 0x1F 0xDE ADDMOD BASEFEE MULMOD BLOCKHASH 0xCA 0x23 SUB 0xAB CREATE2 0xE 0xBA BYTE 0xF7 PUSH22 0x92ED91D552652A567AB7330A6852A764736F6C634300 ADDMOD 0x1F STOP CALLER "
				},
				"gasEstimates": {
					"creation": {
						"codeDepositCost": "1167000",
						"executionCost": "infinite",
						"totalCost": "infinite"
					},
					"external": {
						"checkArbitrageOpportunity()": "infinite",
						"dexPair1()": "2575",
						"dexPair2()": "2530",
						"executeArbitrage(uint256)": "infinite",
						"executions(address)": "2847",
						"getExecutionCount(address)": "2895",
						"minProfit()": "2448",
						"owner()": "2559",
						"renounceOwnership()": "infinite",
						"tokenA()": "infinite",
						"tokenB()": "infinite",
						"transferOwnership(address)": "infinite",
						"uniswapV2Call(address,uint256,uint256,bytes)": "infinite",
						"updateMinProfit(uint256)": "infinite"
					}
				},
				"methodIdentifiers": {
					"checkArbitrageOpportunity()": "2a7bea4f",
					"dexPair1()": "bb693ca0",
					"dexPair2()": "e080e7b5",
					"executeArbitrage(uint256)": "f7c7724f",
					"executions(address)": "50cfe3c7",
					"getExecutionCount(address)": "f7c5761d",
					"minProfit()": "75c81ad0",
					"owner()": "8da5cb5b",
					"renounceOwnership()": "715018a6",
					"tokenA()": "0fc63d10",
					"tokenB()": "5f64b55b",
					"transferOwnership(address)": "f2fde38b",
					"uniswapV2Call(address,uint256,uint256,bytes)": "10d1e85c",
					"updateMinProfit(uint256)": "3b42e5e2"
				}
			},
			"storageLayout": {
				"storage": [
					{
						"astId": 8,
						"contract": "nftmarket/dex/pdex.sol:ArbitrageSimulator",
						"label": "_owner",
						"offset": 0,
						"slot": "0",
						"type": "t_address"
					},
					{
						"astId": 1928,
						"contract": "nftmarket/dex/pdex.sol:ArbitrageSimulator",
						"label": "dexPair1",
						"offset": 0,
						"slot": "1",
						"type": "t_address"
					},
					{
						"astId": 1930,
						"contract": "nftmarket/dex/pdex.sol:ArbitrageSimulator",
						"label": "dexPair2",
						"offset": 0,
						"slot": "2",
						"type": "t_address"
					},
					{
						"astId": 1933,
						"contract": "nftmarket/dex/pdex.sol:ArbitrageSimulator",
						"label": "tokenA",
						"offset": 0,
						"slot": "3",
						"type": "t_contract(IERC20)225"
					},
					{
						"astId": 1936,
						"contract": "nftmarket/dex/pdex.sol:ArbitrageSimulator",
						"label": "tokenB",
						"offset": 0,
						"slot": "4",
						"type": "t_contract(IERC20)225"
					},
					{
						"astId": 1939,
						"contract": "nftmarket/dex/pdex.sol:ArbitrageSimulator",
						"label": "minProfit",
						"offset": 0,
						"slot": "5",
						"type": "t_uint256"
					},
					{
						"astId": 1943,
						"contract": "nftmarket/dex/pdex.sol:ArbitrageSimulator",
						"label": "executions",
						"offset": 0,
						"slot": "6",
						"type": "t_mapping(t_address,t_uint256)"
					}
				],
				"types": {
					"t_address": {
						"encoding": "inplace",
						"label": "address",
						"numberOfBytes": "20"
					},
					"t_contract(IERC20)225": {
						"encoding": "inplace",
						"label": "contract IERC20",
						"numberOfBytes": "20"
					},
					"t_mapping(t_address,t_uint256)": {
						"encoding": "mapping",
						"key": "t_address",
						"label": "mapping(address => uint256)",
						"numberOfBytes": "32",
						"value": "t_uint256"
					},
					"t_uint256": {
						"encoding": "inplace",
						"label": "uint256",
						"numberOfBytes": "32"
					}
				}
			},
			"userdoc": {
				"kind": "user",
				"methods": {},
				"version": 1
			}
		}
	}
}