{
	"stakbase/deplys.sol": {
		"SimpleETHStaking": {
			"abi": [
				{
					"inputs": [
						{
							"internalType": "uint256",
							"name": "_minStakeAmount",
							"type": "uint256"
						},
						{
							"internalType": "uint256",
							"name": "_maxStakeAmount",
							"type": "uint256"
						}
					],
					"stateMutability": "nonpayable",
					"type": "constructor"
				},
				{
					"inputs": [
						{
							"internalType": "address",
							"name": "owner",
							"type": "address"
						}
					],
					"name": "OwnableInvalidOwner",
					"type": "error"
				},
				{
					"inputs": [
						{
							"internalType": "address",
							"name": "account",
							"type": "address"
						}
					],
					"name": "OwnableUnauthorizedAccount",
					"type": "error"
				},
				{
					"inputs": [],
					"name": "ReentrancyGuardReentrantCall",
					"type": "error"
				},
				{
					"anonymous": false,
					"inputs": [
						{
							"indexed": true,
							"internalType": "address",
							"name": "user",
							"type": "address"
						},
						{
							"indexed": false,
							"internalType": "uint256",
							"name": "amount",
							"type": "uint256"
						}
					],
					"name": "FailedUnstake",
					"type": "event"
				},
				{
					"anonymous": false,
					"inputs": [
						{
							"indexed": true,
							"internalType": "address",
							"name": "previousOwner",
							"type": "address"
						},
						{
							"indexed": true,
							"internalType": "address",
							"name": "newOwner",
							"type": "address"
						}
					],
					"name": "OwnershipTransferred",
					"type": "event"
				},
				{
					"anonymous": false,
					"inputs": [
						{
							"indexed": true,
							"internalType": "address",
							"name": "user",
							"type": "address"
						},
						{
							"indexed": false,
							"internalType": "uint256",
							"name": "amount",
							"type": "uint256"
						}
					],
					"name": "Staked",
					"type": "event"
				},
				{
					"anonymous": false,
					"inputs": [
						{
							"indexed": true,
							"internalType": "address",
							"name": "user",
							"type": "address"
						},
						{
							"indexed": false,
							"internalType": "uint256",
							"name": "amount",
							"type": "uint256"
						}
					],
					"name": "Unstaked",
					"type": "event"
				},
				{
					"stateMutability": "payable",
					"type": "fallback"
				},
				{
					"inputs": [
						{
							"internalType": "address",
							"name": "",
							"type": "address"
						}
					],
					"name": "balanceOf",
					"outputs": [
						{
							"internalType": "uint256",
							"name": "",
							"type": "uint256"
						}
					],
					"stateMutability": "view",
					"type": "function"
				},
				{
					"inputs": [
						{
							"internalType": "address",
							"name": "user",
							"type": "address"
						}
					],
					"name": "getBalance",
					"outputs": [
						{
							"internalType": "uint256",
							"name": "",
							"type": "uint256"
						}
					],
					"stateMutability": "view",
					"type": "function"
				},
				{
					"inputs": [],
					"name": "maxStakeAmount",
					"outputs": [
						{
							"internalType": "uint256",
							"name": "",
							"type": "uint256"
						}
					],
					"stateMutability": "view",
					"type": "function"
				},
				{
					"inputs": [],
					"name": "minStakeAmount",
					"outputs": [
						{
							"internalType": "uint256",
							"name": "",
							"type": "uint256"
						}
					],
					"stateMutability": "view",
					"type": "function"
				},
				{
					"inputs": [],
					"name": "owner",
					"outputs": [
						{
							"internalType": "address",
							"name": "",
							"type": "address"
						}
					],
					"stateMutability": "view",
					"type": "function"
				},
				{
					"inputs": [],
					"name": "renounceOwnership",
					"outputs": [],
					"stateMutability": "nonpayable",
					"type": "function"
				},
				{
					"inputs": [
						{
							"internalType": "uint256",
							"name": "_maxStakeAmount",
							"type": "uint256"
						}
					],
					"name": "setMaxStakeAmount",
					"outputs": [],
					"stateMutability": "nonpayable",
					"type": "function"
				},
				{
					"inputs": [
						{
							"internalType": "uint256",
							"name": "_minStakeAmount",
							"type": "uint256"
						}
					],
					"name": "setMinStakeAmount",
					"outputs": [],
					"stateMutability": "nonpayable",
					"type": "function"
				},
				{
					"inputs": [],
					"name": "stake",
					"outputs": [],
					"stateMutability": "payable",
					"type": "function"
				},
				{
					"inputs": [],
					"name": "totalStaked",
					"outputs": [
						{
							"internalType": "uint256",
							"name": "",
							"type": "uint256"
						}
					],
					"stateMutability": "view",
					"type": "function"
				},
				{
					"inputs": [
						{
							"internalType": "address",
							"name": "newOwner",
							"type": "address"
						}
					],
					"name": "transferOwnership",
					"outputs": [],
					"stateMutability": "nonpayable",
					"type": "function"
				},
				{
					"inputs": [
						{
							"internalType": "uint256",
							"name": "amount",
							"type": "uint256"
						}
					],
					"name": "unstake",
					"outputs": [],
					"stateMutability": "nonpayable",
					"type": "function"
				},
				{
					"inputs": [],
					"name": "weth",
					"outputs": [
						{
							"internalType": "contract IERC20",
							"name": "",
							"type": "address"
						}
					],
					"stateMutability": "view",
					"type": "function"
				},
				{
					"stateMutability": "payable",
					"type": "receive"
				}
			],
			"devdoc": {
				"errors": {
					"OwnableInvalidOwner(address)": [
						{
							"details": "The owner is not a valid owner account. (eg. `address(0)`)"
						}
					],
					"OwnableUnauthorizedAccount(address)": [
						{
							"details": "The caller account is not authorized to perform an operation."
						}
					],
					"ReentrancyGuardReentrantCall()": [
						{
							"details": "Unauthorized reentrant call."
						}
					]
				},
				"kind": "dev",
				"methods": {
					"getBalance(address)": {
						"details": "Returns the staked balance of a user",
						"params": {
							"user": "The address of the user"
						},
						"returns": {
							"_0": "The staked balance of the user"
						}
					},
					"owner()": {
						"details": "Returns the address of the current owner."
					},
					"renounceOwnership()": {
						"details": "Leaves the contract without owner. It will not be possible to call `onlyOwner` functions. Can only be called by the current owner. NOTE: Renouncing ownership will leave the contract without an owner, thereby disabling any functionality that is only available to the owner."
					},
					"setMaxStakeAmount(uint256)": {
						"details": "Allows the owner to set the maximum stake amount",
						"params": {
							"_maxStakeAmount": "The new maximum stake amount"
						}
					},
					"setMinStakeAmount(uint256)": {
						"details": "Allows the owner to set the minimum stake amount",
						"params": {
							"_minStakeAmount": "The new minimum stake amount"
						}
					},
					"stake()": {
						"details": "Allows users to stake ETH by converting it to WETH"
					},
					"transferOwnership(address)": {
						"details": "Transfers ownership of the contract to a new account (`newOwner`). Can only be called by the current owner."
					},
					"unstake(uint256)": {
						"details": "Allows users to unstake their ETH by converting WETH back to ETH",
						"params": {
							"amount": "The amount of ETH to unstake"
						}
					}
				},
				"version": 1
			},
			"evm": {
				"assembly": "    /* \"stakbase/deplys.sol\":698:3731  contract SimpleETHStaking is ReentrancyGuard, Ownable {... */\n  mstore(0x40, 0xa0)\n    /* \"stakbase/deplys.sol\":1171:1395  constructor(uint256 _minStakeAmount, uint256 _maxStakeAmount) Ownable(msg.sender) ReentrancyGuard() {... */\n  callvalue\n  dup1\n  iszero\n  tag_1\n  jumpi\n  revert(0x00, 0x00)\ntag_1:\n  pop\n  mload(0x40)\n  sub(codesize, bytecodeSize)\n  dup1\n  bytecodeSize\n  dup4\n  codecopy\n  dup2\n  dup2\n  add\n  0x40\n  mstore\n  dup2\n  add\n  swap1\n  tag_2\n  swap2\n  swap1\n  tag_3\n  jump\t// in\ntag_2:\n    /* \"stakbase/deplys.sol\":1241:1251  msg.sender */\n  caller\n    /* \"https://github.com/OpenZeppelin/openzeppelin-contracts/blob/v5.0.2/contracts/utils/ReentrancyGuard.sol\":1713:1714  1 */\n  0x01\n    /* \"https://github.com/OpenZeppelin/openzeppelin-contracts/blob/v5.0.2/contracts/utils/ReentrancyGuard.sol\":1917:1924  _status */\n  0x00\n    /* \"https://github.com/OpenZeppelin/openzeppelin-contracts/blob/v5.0.2/contracts/utils/ReentrancyGuard.sol\":1917:1938  _status = NOT_ENTERED */\n  dup2\n  swap1\n  sstore\n  pop\n    /* \"https://github.com/OpenZeppelin/openzeppelin-contracts/blob/v5.0.2/contracts/access/Ownable.sol\":1297:1298  0 */\n  0x00\n    /* \"https://github.com/OpenZeppelin/openzeppelin-contracts/blob/v5.0.2/contracts/access/Ownable.sol\":1273:1299  initialOwner == address(0) */\n  0xffffffffffffffffffffffffffffffffffffffff\n  and\n    /* \"https://github.com/OpenZeppelin/openzeppelin-contracts/blob/v5.0.2/contracts/access/Ownable.sol\":1273:1285  initialOwner */\n  dup2\n    /* \"https://github.com/OpenZeppelin/openzeppelin-contracts/blob/v5.0.2/contracts/access/Ownable.sol\":1273:1299  initialOwner == address(0) */\n  0xffffffffffffffffffffffffffffffffffffffff\n  and\n  sub\n    /* \"https://github.com/OpenZeppelin/openzeppelin-contracts/blob/v5.0.2/contracts/access/Ownable.sol\":1269:1364  if (initialOwner == address(0)) {... */\n  tag_9\n  jumpi\n    /* \"https://github.com/OpenZeppelin/openzeppelin-contracts/blob/v5.0.2/contracts/access/Ownable.sol\":1350:1351  0 */\n  0x00\n    /* \"https://github.com/OpenZeppelin/openzeppelin-contracts/blob/v5.0.2/contracts/access/Ownable.sol\":1322:1353  OwnableInvalidOwner(address(0)) */\n  mload(0x40)\n  0x1e4fbdf700000000000000000000000000000000000000000000000000000000\n  dup2\n  mstore\n  0x04\n  add\n  tag_10\n  swap2\n  swap1\n  tag_11\n  jump\t// in\ntag_10:\n  mload(0x40)\n  dup1\n  swap2\n  sub\n  swap1\n  revert\n    /* \"https://github.com/OpenZeppelin/openzeppelin-contracts/blob/v5.0.2/contracts/access/Ownable.sol\":1269:1364  if (initialOwner == address(0)) {... */\ntag_9:\n    /* \"https://github.com/OpenZeppelin/openzeppelin-contracts/blob/v5.0.2/contracts/access/Ownable.sol\":1373:1405  _transferOwnership(initialOwner) */\n  tag_12\n    /* \"https://github.com/OpenZeppelin/openzeppelin-contracts/blob/v5.0.2/contracts/access/Ownable.sol\":1392:1404  initialOwner */\n  dup2\n    /* \"https://github.com/OpenZeppelin/openzeppelin-contracts/blob/v5.0.2/contracts/access/Ownable.sol\":1373:1391  _transferOwnership */\n  shl(0x20, tag_13)\n    /* \"https://github.com/OpenZeppelin/openzeppelin-contracts/blob/v5.0.2/contracts/access/Ownable.sol\":1373:1405  _transferOwnership(initialOwner) */\n  0x20\n  shr\n  jump\t// in\ntag_12:\n    /* \"https://github.com/OpenZeppelin/openzeppelin-contracts/blob/v5.0.2/contracts/access/Ownable.sol\":1225:1412  constructor(address initialOwner) {... */\n  pop\n    /* \"stakbase/deplys.sol\":539:581  0x4200000000000000000000000000000000000006 */\n  0x4200000000000000000000000000000000000006\n    /* \"stakbase/deplys.sol\":1282:1301  weth = IERC20(WETH) */\n  0xffffffffffffffffffffffffffffffffffffffff\n  and\n  0x80\n  dup2\n  0xffffffffffffffffffffffffffffffffffffffff\n  and\n  dup2\n  mstore\n  pop\n  pop\n    /* \"stakbase/deplys.sol\":1329:1344  _minStakeAmount */\n  dup2\n    /* \"stakbase/deplys.sol\":1312:1326  minStakeAmount */\n  0x04\n    /* \"stakbase/deplys.sol\":1312:1344  minStakeAmount = _minStakeAmount */\n  dup2\n  swap1\n  sstore\n  pop\n    /* \"stakbase/deplys.sol\":1372:1387  _maxStakeAmount */\n  dup1\n    /* \"stakbase/deplys.sol\":1355:1369  maxStakeAmount */\n  0x05\n    /* \"stakbase/deplys.sol\":1355:1387  maxStakeAmount = _maxStakeAmount */\n  dup2\n  swap1\n  sstore\n  pop\n    /* \"stakbase/deplys.sol\":1171:1395  constructor(uint256 _minStakeAmount, uint256 _maxStakeAmount) Ownable(msg.sender) ReentrancyGuard() {... */\n  pop\n  pop\n    /* \"stakbase/deplys.sol\":698:3731  contract SimpleETHStaking is ReentrancyGuard, Ownable {... */\n  jump(tag_15)\n    /* \"https://github.com/OpenZeppelin/openzeppelin-contracts/blob/v5.0.2/contracts/access/Ownable.sol\":2912:3099  function _transferOwnership(address newOwner) internal virtual {... */\ntag_13:\n    /* \"https://github.com/OpenZeppelin/openzeppelin-contracts/blob/v5.0.2/contracts/access/Ownable.sol\":2985:3001  address oldOwner */\n  0x00\n    /* \"https://github.com/OpenZeppelin/openzeppelin-contracts/blob/v5.0.2/contracts/access/Ownable.sol\":3004:3010  _owner */\n  0x01\n  0x00\n  swap1\n  sload\n  swap1\n  0x0100\n  exp\n  swap1\n  div\n  0xffffffffffffffffffffffffffffffffffffffff\n  and\n    /* \"https://github.com/OpenZeppelin/openzeppelin-contracts/blob/v5.0.2/contracts/access/Ownable.sol\":2985:3010  address oldOwner = _owner */\n  swap1\n  pop\n    /* \"https://github.com/OpenZeppelin/openzeppelin-contracts/blob/v5.0.2/contracts/access/Ownable.sol\":3029:3037  newOwner */\n  dup2\n    /* \"https://github.com/OpenZeppelin/openzeppelin-contracts/blob/v5.0.2/contracts/access/Ownable.sol\":3020:3026  _owner */\n  0x01\n  0x00\n    /* \"https://github.com/OpenZeppelin/openzeppelin-contracts/blob/v5.0.2/contracts/access/Ownable.sol\":3020:3037  _owner = newOwner */\n  0x0100\n  exp\n  dup2\n  sload\n  dup2\n  0xffffffffffffffffffffffffffffffffffffffff\n  mul\n  not\n  and\n  swap1\n  dup4\n  0xffffffffffffffffffffffffffffffffffffffff\n  and\n  mul\n  or\n  swap1\n  sstore\n  pop\n    /* \"https://github.com/OpenZeppelin/openzeppelin-contracts/blob/v5.0.2/contracts/access/Ownable.sol\":3083:3091  newOwner */\n  dup2\n    /* \"https://github.com/OpenZeppelin/openzeppelin-contracts/blob/v5.0.2/contracts/access/Ownable.sol\":3052:3092  OwnershipTransferred(oldOwner, newOwner) */\n  0xffffffffffffffffffffffffffffffffffffffff\n  and\n    /* \"https://github.com/OpenZeppelin/openzeppelin-contracts/blob/v5.0.2/contracts/access/Ownable.sol\":3073:3081  oldOwner */\n  dup2\n    /* \"https://github.com/OpenZeppelin/openzeppelin-contracts/blob/v5.0.2/contracts/access/Ownable.sol\":3052:3092  OwnershipTransferred(oldOwner, newOwner) */\n  0xffffffffffffffffffffffffffffffffffffffff\n  and\n  0x8be0079c531659141344cd1fd0a4f28419497f9722a3daafe3b4186f6b6457e0\n  mload(0x40)\n  mload(0x40)\n  dup1\n  swap2\n  sub\n  swap1\n  log3\n    /* \"https://github.com/OpenZeppelin/openzeppelin-contracts/blob/v5.0.2/contracts/access/Ownable.sol\":2975:3099  {... */\n  pop\n    /* \"https://github.com/OpenZeppelin/openzeppelin-contracts/blob/v5.0.2/contracts/access/Ownable.sol\":2912:3099  function _transferOwnership(address newOwner) internal virtual {... */\n  pop\n  jump\t// out\n    /* \"#utility.yul\":88:205   */\ntag_18:\n    /* \"#utility.yul\":197:198   */\n  0x00\n    /* \"#utility.yul\":194:195   */\n  0x00\n    /* \"#utility.yul\":187:199   */\n  revert\n    /* \"#utility.yul\":334:411   */\ntag_20:\n    /* \"#utility.yul\":371:378   */\n  0x00\n    /* \"#utility.yul\":400:405   */\n  dup2\n    /* \"#utility.yul\":389:405   */\n  swap1\n  pop\n    /* \"#utility.yul\":334:411   */\n  swap2\n  swap1\n  pop\n  jump\t// out\n    /* \"#utility.yul\":417:539   */\ntag_21:\n    /* \"#utility.yul\":490:514   */\n  tag_32\n    /* \"#utility.yul\":508:513   */\n  dup2\n    /* \"#utility.yul\":490:514   */\n  tag_20\n  jump\t// in\ntag_32:\n    /* \"#utility.yul\":483:488   */\n  dup2\n    /* \"#utility.yul\":480:515   */\n  eq\n    /* \"#utility.yul\":470:533   */\n  tag_33\n  jumpi\n    /* \"#utility.yul\":529:530   */\n  0x00\n    /* \"#utility.yul\":526:527   */\n  0x00\n    /* \"#utility.yul\":519:531   */\n  revert\n    /* \"#utility.yul\":470:533   */\ntag_33:\n    /* \"#utility.yul\":417:539   */\n  pop\n  jump\t// out\n    /* \"#utility.yul\":545:688   */\ntag_22:\n    /* \"#utility.yul\":602:607   */\n  0x00\n    /* \"#utility.yul\":633:639   */\n  dup2\n    /* \"#utility.yul\":627:640   */\n  mload\n    /* \"#utility.yul\":618:640   */\n  swap1\n  pop\n    /* \"#utility.yul\":649:682   */\n  tag_35\n    /* \"#utility.yul\":676:681   */\n  dup2\n    /* \"#utility.yul\":649:682   */\n  tag_21\n  jump\t// in\ntag_35:\n    /* \"#utility.yul\":545:688   */\n  swap3\n  swap2\n  pop\n  pop\n  jump\t// out\n    /* \"#utility.yul\":694:1201   */\ntag_3:\n    /* \"#utility.yul\":773:779   */\n  0x00\n    /* \"#utility.yul\":781:787   */\n  0x00\n    /* \"#utility.yul\":830:832   */\n  0x40\n    /* \"#utility.yul\":818:827   */\n  dup4\n    /* \"#utility.yul\":809:816   */\n  dup6\n    /* \"#utility.yul\":805:828   */\n  sub\n    /* \"#utility.yul\":801:833   */\n  slt\n    /* \"#utility.yul\":798:917   */\n  iszero\n  tag_37\n  jumpi\n    /* \"#utility.yul\":836:915   */\n  tag_38\n  tag_18\n  jump\t// in\ntag_38:\n    /* \"#utility.yul\":798:917   */\ntag_37:\n    /* \"#utility.yul\":956:957   */\n  0x00\n    /* \"#utility.yul\":981:1045   */\n  tag_39\n    /* \"#utility.yul\":1037:1044   */\n  dup6\n    /* \"#utility.yul\":1028:1034   */\n  dup3\n    /* \"#utility.yul\":1017:1026   */\n  dup7\n    /* \"#utility.yul\":1013:1035   */\n  add\n    /* \"#utility.yul\":981:1045   */\n  tag_22\n  jump\t// in\ntag_39:\n    /* \"#utility.yul\":971:1045   */\n  swap3\n  pop\n    /* \"#utility.yul\":927:1055   */\n  pop\n    /* \"#utility.yul\":1094:1096   */\n  0x20\n    /* \"#utility.yul\":1120:1184   */\n  tag_40\n    /* \"#utility.yul\":1176:1183   */\n  dup6\n    /* \"#utility.yul\":1167:1173   */\n  dup3\n    /* \"#utility.yul\":1156:1165   */\n  dup7\n    /* \"#utility.yul\":1152:1174   */\n  add\n    /* \"#utility.yul\":1120:1184   */\n  tag_22\n  jump\t// in\ntag_40:\n    /* \"#utility.yul\":1110:1184   */\n  swap2\n  pop\n    /* \"#utility.yul\":1065:1194   */\n  pop\n    /* \"#utility.yul\":694:1201   */\n  swap3\n  pop\n  swap3\n  swap1\n  pop\n  jump\t// out\n    /* \"#utility.yul\":1207:1333   */\ntag_23:\n    /* \"#utility.yul\":1244:1251   */\n  0x00\n    /* \"#utility.yul\":1284:1326   */\n  0xffffffffffffffffffffffffffffffffffffffff\n    /* \"#utility.yul\":1277:1282   */\n  dup3\n    /* \"#utility.yul\":1273:1327   */\n  and\n    /* \"#utility.yul\":1262:1327   */\n  swap1\n  pop\n    /* \"#utility.yul\":1207:1333   */\n  swap2\n  swap1\n  pop\n  jump\t// out\n    /* \"#utility.yul\":1339:1435   */\ntag_24:\n    /* \"#utility.yul\":1376:1383   */\n  0x00\n    /* \"#utility.yul\":1405:1429   */\n  tag_43\n    /* \"#utility.yul\":1423:1428   */\n  dup3\n    /* \"#utility.yul\":1405:1429   */\n  tag_23\n  jump\t// in\ntag_43:\n    /* \"#utility.yul\":1394:1429   */\n  swap1\n  pop\n    /* \"#utility.yul\":1339:1435   */\n  swap2\n  swap1\n  pop\n  jump\t// out\n    /* \"#utility.yul\":1441:1559   */\ntag_25:\n    /* \"#utility.yul\":1528:1552   */\n  tag_45\n    /* \"#utility.yul\":1546:1551   */\n  dup2\n    /* \"#utility.yul\":1528:1552   */\n  tag_24\n  jump\t// in\ntag_45:\n    /* \"#utility.yul\":1523:1526   */\n  dup3\n    /* \"#utility.yul\":1516:1553   */\n  mstore\n    /* \"#utility.yul\":1441:1559   */\n  pop\n  pop\n  jump\t// out\n    /* \"#utility.yul\":1565:1787   */\ntag_11:\n    /* \"#utility.yul\":1658:1662   */\n  0x00\n    /* \"#utility.yul\":1696:1698   */\n  0x20\n    /* \"#utility.yul\":1685:1694   */\n  dup3\n    /* \"#utility.yul\":1681:1699   */\n  add\n    /* \"#utility.yul\":1673:1699   */\n  swap1\n  pop\n    /* \"#utility.yul\":1709:1780   */\n  tag_47\n    /* \"#utility.yul\":1777:1778   */\n  0x00\n    /* \"#utility.yul\":1766:1775   */\n  dup4\n    /* \"#utility.yul\":1762:1779   */\n  add\n    /* \"#utility.yul\":1753:1759   */\n  dup5\n    /* \"#utility.yul\":1709:1780   */\n  tag_25\n  jump\t// in\ntag_47:\n    /* \"#utility.yul\":1565:1787   */\n  swap3\n  swap2\n  pop\n  pop\n  jump\t// out\n    /* \"stakbase/deplys.sol\":698:3731  contract SimpleETHStaking is ReentrancyGuard, Ownable {... */\ntag_15:\n  mload(0x80)\n  codecopy(0x00, dataOffset(sub_0), dataSize(sub_0))\n  0x00\n  assignImmutable(\"0x795dcf830090319074c4e36a23e7ad6013124a9e4afc765f3f324f667dfac3a5\")\n  return(0x00, dataSize(sub_0))\nstop\n\nsub_0: assembly {\n        /* \"stakbase/deplys.sol\":698:3731  contract SimpleETHStaking is ReentrancyGuard, Ownable {... */\n      mstore(0x40, 0x80)\n      jumpi(tag_1, lt(calldatasize, 0x04))\n      shr(0xe0, calldataload(0x00))\n      dup1\n      0x817b1cd2\n      gt\n      tag_16\n      jumpi\n      dup1\n      0xeb4af045\n      gt\n      tag_17\n      jumpi\n      dup1\n      0xeb4af045\n      eq\n      tag_12\n      jumpi\n      dup1\n      0xf1887684\n      eq\n      tag_13\n      jumpi\n      dup1\n      0xf2fde38b\n      eq\n      tag_14\n      jumpi\n      dup1\n      0xf8b2cb4f\n      eq\n      tag_15\n      jumpi\n      jump(tag_2)\n    tag_17:\n      dup1\n      0x817b1cd2\n      eq\n      tag_9\n      jumpi\n      dup1\n      0x8da5cb5b\n      eq\n      tag_10\n      jumpi\n      dup1\n      0xdcc2a55e\n      eq\n      tag_11\n      jumpi\n      jump(tag_2)\n    tag_16:\n      dup1\n      0x2e17de78\n      eq\n      tag_3\n      jumpi\n      dup1\n      0x3a4b66f1\n      eq\n      tag_4\n      jumpi\n      dup1\n      0x3fc8cef3\n      eq\n      tag_5\n      jumpi\n      dup1\n      0x5d80ca32\n      eq\n      tag_6\n      jumpi\n      dup1\n      0x70a08231\n      eq\n      tag_7\n      jumpi\n      dup1\n      0x715018a6\n      eq\n      tag_8\n      jumpi\n      jump(tag_2)\n    tag_1:\n      jumpi(tag_2, calldatasize)\n        /* \"stakbase/deplys.sol\":1441:1448  stake() */\n      tag_20\n        /* \"stakbase/deplys.sol\":1441:1446  stake */\n      tag_21\n        /* \"stakbase/deplys.sol\":1441:1448  stake() */\n      jump\t// in\n    tag_20:\n        /* \"stakbase/deplys.sol\":698:3731  contract SimpleETHStaking is ReentrancyGuard, Ownable {... */\n      stop\n    tag_2:\n        /* \"stakbase/deplys.sol\":1503:1510  stake() */\n      tag_24\n        /* \"stakbase/deplys.sol\":1503:1508  stake */\n      tag_21\n        /* \"stakbase/deplys.sol\":1503:1510  stake() */\n      jump\t// in\n    tag_24:\n        /* \"stakbase/deplys.sol\":698:3731  contract SimpleETHStaking is ReentrancyGuard, Ownable {... */\n      stop\n        /* \"stakbase/deplys.sol\":2199:2914  function unstake(uint256 amount) external nonReentrant {... */\n    tag_3:\n      callvalue\n      dup1\n      iszero\n      tag_25\n      jumpi\n      revert(0x00, 0x00)\n    tag_25:\n      pop\n      tag_26\n      0x04\n      dup1\n      calldatasize\n      sub\n      dup2\n      add\n      swap1\n      tag_27\n      swap2\n      swap1\n      tag_28\n      jump\t// in\n    tag_27:\n      tag_29\n      jump\t// in\n    tag_26:\n      stop\n        /* \"stakbase/deplys.sol\":1608:2044  function stake() public payable nonReentrant {... */\n    tag_4:\n      tag_30\n      tag_21\n      jump\t// in\n    tag_30:\n      stop\n        /* \"stakbase/deplys.sol\":794:822  IERC20 public immutable weth */\n    tag_5:\n      callvalue\n      dup1\n      iszero\n      tag_31\n      jumpi\n      revert(0x00, 0x00)\n    tag_31:\n      pop\n      tag_32\n      tag_33\n      jump\t// in\n    tag_32:\n      mload(0x40)\n      tag_34\n      swap2\n      swap1\n      tag_35\n      jump\t// in\n    tag_34:\n      mload(0x40)\n      dup1\n      swap2\n      sub\n      swap1\n      return\n        /* \"stakbase/deplys.sol\":951:980  uint256 public maxStakeAmount */\n    tag_6:\n      callvalue\n      dup1\n      iszero\n      tag_36\n      jumpi\n      revert(0x00, 0x00)\n    tag_36:\n      pop\n      tag_37\n      tag_38\n      jump\t// in\n    tag_37:\n      mload(0x40)\n      tag_39\n      swap2\n      swap1\n      tag_40\n      jump\t// in\n    tag_39:\n      mload(0x40)\n      dup1\n      swap2\n      sub\n      swap1\n      return\n        /* \"stakbase/deplys.sol\":862:906  mapping(address => uint256) public balanceOf */\n    tag_7:\n      callvalue\n      dup1\n      iszero\n      tag_41\n      jumpi\n      revert(0x00, 0x00)\n    tag_41:\n      pop\n      tag_42\n      0x04\n      dup1\n      calldatasize\n      sub\n      dup2\n      add\n      swap1\n      tag_43\n      swap2\n      swap1\n      tag_44\n      jump\t// in\n    tag_43:\n      tag_45\n      jump\t// in\n    tag_42:\n      mload(0x40)\n      tag_46\n      swap2\n      swap1\n      tag_40\n      jump\t// in\n    tag_46:\n      mload(0x40)\n      dup1\n      swap2\n      sub\n      swap1\n      return\n        /* \"https://github.com/OpenZeppelin/openzeppelin-contracts/blob/v5.0.2/contracts/access/Ownable.sol\":2293:2394  function renounceOwnership() public virtual onlyOwner {... */\n    tag_8:\n      callvalue\n      dup1\n      iszero\n      tag_47\n      jumpi\n      revert(0x00, 0x00)\n    tag_47:\n      pop\n      tag_48\n      tag_49\n      jump\t// in\n    tag_48:\n      stop\n        /* \"stakbase/deplys.sol\":829:855  uint256 public totalStaked */\n    tag_9:\n      callvalue\n      dup1\n      iszero\n      tag_50\n      jumpi\n      revert(0x00, 0x00)\n    tag_50:\n      pop\n      tag_51\n      tag_52\n      jump\t// in\n    tag_51:\n      mload(0x40)\n      tag_53\n      swap2\n      swap1\n      tag_40\n      jump\t// in\n    tag_53:\n      mload(0x40)\n      dup1\n      swap2\n      sub\n      swap1\n      return\n        /* \"https://github.com/OpenZeppelin/openzeppelin-contracts/blob/v5.0.2/contracts/access/Ownable.sol\":1638:1723  function owner() public view virtual returns (address) {... */\n    tag_10:\n      callvalue\n      dup1\n      iszero\n      tag_54\n      jumpi\n      revert(0x00, 0x00)\n    tag_54:\n      pop\n      tag_55\n      tag_56\n      jump\t// in\n    tag_55:\n      mload(0x40)\n      tag_57\n      swap2\n      swap1\n      tag_58\n      jump\t// in\n    tag_57:\n      mload(0x40)\n      dup1\n      swap2\n      sub\n      swap1\n      return\n        /* \"stakbase/deplys.sol\":3606:3728  function setMaxStakeAmount(uint256 _maxStakeAmount) external onlyOwner {... */\n    tag_11:\n      callvalue\n      dup1\n      iszero\n      tag_59\n      jumpi\n      revert(0x00, 0x00)\n    tag_59:\n      pop\n      tag_60\n      0x04\n      dup1\n      calldatasize\n      sub\n      dup2\n      add\n      swap1\n      tag_61\n      swap2\n      swap1\n      tag_28\n      jump\t// in\n    tag_61:\n      tag_62\n      jump\t// in\n    tag_60:\n      stop\n        /* \"stakbase/deplys.sol\":3336:3458  function setMinStakeAmount(uint256 _minStakeAmount) external onlyOwner {... */\n    tag_12:\n      callvalue\n      dup1\n      iszero\n      tag_63\n      jumpi\n      revert(0x00, 0x00)\n    tag_63:\n      pop\n      tag_64\n      0x04\n      dup1\n      calldatasize\n      sub\n      dup2\n      add\n      swap1\n      tag_65\n      swap2\n      swap1\n      tag_28\n      jump\t// in\n    tag_65:\n      tag_66\n      jump\t// in\n    tag_64:\n      stop\n        /* \"stakbase/deplys.sol\":915:944  uint256 public minStakeAmount */\n    tag_13:\n      callvalue\n      dup1\n      iszero\n      tag_67\n      jumpi\n      revert(0x00, 0x00)\n    tag_67:\n      pop\n      tag_68\n      tag_69\n      jump\t// in\n    tag_68:\n      mload(0x40)\n      tag_70\n      swap2\n      swap1\n      tag_40\n      jump\t// in\n    tag_70:\n      mload(0x40)\n      dup1\n      swap2\n      sub\n      swap1\n      return\n        /* \"https://github.com/OpenZeppelin/openzeppelin-contracts/blob/v5.0.2/contracts/access/Ownable.sol\":2543:2758  function transferOwnership(address newOwner) public virtual onlyOwner {... */\n    tag_14:\n      callvalue\n      dup1\n      iszero\n      tag_71\n      jumpi\n      revert(0x00, 0x00)\n    tag_71:\n      pop\n      tag_72\n      0x04\n      dup1\n      calldatasize\n      sub\n      dup2\n      add\n      swap1\n      tag_73\n      swap2\n      swap1\n      tag_44\n      jump\t// in\n    tag_73:\n      tag_74\n      jump\t// in\n    tag_72:\n      stop\n        /* \"stakbase/deplys.sol\":3081:3188  function getBalance(address user) external view returns (uint256) {... */\n    tag_15:\n      callvalue\n      dup1\n      iszero\n      tag_75\n      jumpi\n      revert(0x00, 0x00)\n    tag_75:\n      pop\n      tag_76\n      0x04\n      dup1\n      calldatasize\n      sub\n      dup2\n      add\n      swap1\n      tag_77\n      swap2\n      swap1\n      tag_44\n      jump\t// in\n    tag_77:\n      tag_78\n      jump\t// in\n    tag_76:\n      mload(0x40)\n      tag_79\n      swap2\n      swap1\n      tag_40\n      jump\t// in\n    tag_79:\n      mload(0x40)\n      dup1\n      swap2\n      sub\n      swap1\n      return\n        /* \"stakbase/deplys.sol\":1608:2044  function stake() public payable nonReentrant {... */\n    tag_21:\n        /* \"https://github.com/OpenZeppelin/openzeppelin-contracts/blob/v5.0.2/contracts/utils/ReentrancyGuard.sol\":2356:2377  _nonReentrantBefore() */\n      tag_81\n        /* \"https://github.com/OpenZeppelin/openzeppelin-contracts/blob/v5.0.2/contracts/utils/ReentrancyGuard.sol\":2356:2375  _nonReentrantBefore */\n      tag_82\n        /* \"https://github.com/OpenZeppelin/openzeppelin-contracts/blob/v5.0.2/contracts/utils/ReentrancyGuard.sol\":2356:2377  _nonReentrantBefore() */\n      jump\t// in\n    tag_81:\n        /* \"stakbase/deplys.sol\":1684:1685  0 */\n      0x00\n        /* \"stakbase/deplys.sol\":1672:1681  msg.value */\n      callvalue\n        /* \"stakbase/deplys.sol\":1672:1685  msg.value > 0 */\n      gt\n        /* \"stakbase/deplys.sol\":1664:1701  require(msg.value > 0, \"No ETH sent\") */\n      tag_84\n      jumpi\n      mload(0x40)\n      0x08c379a000000000000000000000000000000000000000000000000000000000\n      dup2\n      mstore\n      0x04\n      add\n      tag_85\n      swap1\n      tag_86\n      jump\t// in\n    tag_85:\n      mload(0x40)\n      dup1\n      swap2\n      sub\n      swap1\n      revert\n    tag_84:\n        /* \"stakbase/deplys.sol\":1733:1747  minStakeAmount */\n      sload(0x04)\n        /* \"stakbase/deplys.sol\":1720:1729  msg.value */\n      callvalue\n        /* \"stakbase/deplys.sol\":1720:1747  msg.value >= minStakeAmount */\n      lt\n      iszero\n        /* \"stakbase/deplys.sol\":1712:1778  require(msg.value >= minStakeAmount, \"Amount below minimum stake\") */\n      tag_87\n      jumpi\n      mload(0x40)\n      0x08c379a000000000000000000000000000000000000000000000000000000000\n      dup2\n      mstore\n      0x04\n      add\n      tag_88\n      swap1\n      tag_89\n      jump\t// in\n    tag_88:\n      mload(0x40)\n      dup1\n      swap2\n      sub\n      swap1\n      revert\n    tag_87:\n        /* \"stakbase/deplys.sol\":1810:1824  maxStakeAmount */\n      sload(0x05)\n        /* \"stakbase/deplys.sol\":1797:1806  msg.value */\n      callvalue\n        /* \"stakbase/deplys.sol\":1797:1824  msg.value <= maxStakeAmount */\n      gt\n      iszero\n        /* \"stakbase/deplys.sol\":1789:1855  require(msg.value <= maxStakeAmount, \"Amount above maximum stake\") */\n      tag_90\n      jumpi\n      mload(0x40)\n      0x08c379a000000000000000000000000000000000000000000000000000000000\n      dup2\n      mstore\n      0x04\n      add\n      tag_91\n      swap1\n      tag_92\n      jump\t// in\n    tag_91:\n      mload(0x40)\n      dup1\n      swap2\n      sub\n      swap1\n      revert\n    tag_90:\n        /* \"stakbase/deplys.sol\":539:581  0x4200000000000000000000000000000000000006 */\n      0x4200000000000000000000000000000000000006\n        /* \"stakbase/deplys.sol\":1868:1887  IWETH(WETH).deposit */\n      0xffffffffffffffffffffffffffffffffffffffff\n      and\n      0xd0e30db0\n        /* \"stakbase/deplys.sol\":1895:1904  msg.value */\n      callvalue\n        /* \"stakbase/deplys.sol\":1868:1907  IWETH(WETH).deposit{value: msg.value}() */\n      mload(0x40)\n      dup3\n      0xffffffff\n      and\n      0xe0\n      shl\n      dup2\n      mstore\n      0x04\n      add\n      0x00\n      mload(0x40)\n      dup1\n      dup4\n      sub\n      dup2\n      dup6\n      dup9\n      dup1\n      extcodesize\n      iszero\n      dup1\n      iszero\n      tag_93\n      jumpi\n      revert(0x00, 0x00)\n    tag_93:\n      pop\n      gas\n      call\n      iszero\n      dup1\n      iszero\n      tag_95\n      jumpi\n      returndatacopy(0x00, 0x00, returndatasize)\n      revert(0x00, returndatasize)\n    tag_95:\n      pop\n      pop\n      pop\n      pop\n      pop\n        /* \"stakbase/deplys.sol\":1945:1954  msg.value */\n      callvalue\n        /* \"stakbase/deplys.sol\":1920:1929  balanceOf */\n      0x03\n        /* \"stakbase/deplys.sol\":1920:1941  balanceOf[msg.sender] */\n      0x00\n        /* \"stakbase/deplys.sol\":1930:1940  msg.sender */\n      caller\n        /* \"stakbase/deplys.sol\":1920:1941  balanceOf[msg.sender] */\n      0xffffffffffffffffffffffffffffffffffffffff\n      and\n      0xffffffffffffffffffffffffffffffffffffffff\n      and\n      dup2\n      mstore\n      0x20\n      add\n      swap1\n      dup2\n      mstore\n      0x20\n      add\n      0x00\n      keccak256\n      0x00\n        /* \"stakbase/deplys.sol\":1920:1954  balanceOf[msg.sender] += msg.value */\n      dup3\n      dup3\n      sload\n      tag_96\n      swap2\n      swap1\n      tag_97\n      jump\t// in\n    tag_96:\n      swap3\n      pop\n      pop\n      dup2\n      swap1\n      sstore\n      pop\n        /* \"stakbase/deplys.sol\":1980:1989  msg.value */\n      callvalue\n        /* \"stakbase/deplys.sol\":1965:1976  totalStaked */\n      0x02\n      0x00\n        /* \"stakbase/deplys.sol\":1965:1989  totalStaked += msg.value */\n      dup3\n      dup3\n      sload\n      tag_98\n      swap2\n      swap1\n      tag_97\n      jump\t// in\n    tag_98:\n      swap3\n      pop\n      pop\n      dup2\n      swap1\n      sstore\n      pop\n        /* \"stakbase/deplys.sol\":2014:2024  msg.sender */\n      caller\n        /* \"stakbase/deplys.sol\":2007:2036  Staked(msg.sender, msg.value) */\n      0xffffffffffffffffffffffffffffffffffffffff\n      and\n      0x9e71bc8eea02a63969f509818f2dafb9254532904319f9dbda79b67bd34a5f3d\n        /* \"stakbase/deplys.sol\":2026:2035  msg.value */\n      callvalue\n        /* \"stakbase/deplys.sol\":2007:2036  Staked(msg.sender, msg.value) */\n      mload(0x40)\n      tag_99\n      swap2\n      swap1\n      tag_40\n      jump\t// in\n    tag_99:\n      mload(0x40)\n      dup1\n      swap2\n      sub\n      swap1\n      log2\n        /* \"https://github.com/OpenZeppelin/openzeppelin-contracts/blob/v5.0.2/contracts/utils/ReentrancyGuard.sol\":2398:2418  _nonReentrantAfter() */\n      tag_100\n        /* \"https://github.com/OpenZeppelin/openzeppelin-contracts/blob/v5.0.2/contracts/utils/ReentrancyGuard.sol\":2398:2416  _nonReentrantAfter */\n      tag_101\n        /* \"https://github.com/OpenZeppelin/openzeppelin-contracts/blob/v5.0.2/contracts/utils/ReentrancyGuard.sol\":2398:2418  _nonReentrantAfter() */\n      jump\t// in\n    tag_100:\n        /* \"stakbase/deplys.sol\":1608:2044  function stake() public payable nonReentrant {... */\n      jump\t// out\n        /* \"stakbase/deplys.sol\":2199:2914  function unstake(uint256 amount) external nonReentrant {... */\n    tag_29:\n        /* \"https://github.com/OpenZeppelin/openzeppelin-contracts/blob/v5.0.2/contracts/utils/ReentrancyGuard.sol\":2356:2377  _nonReentrantBefore() */\n      tag_103\n        /* \"https://github.com/OpenZeppelin/openzeppelin-contracts/blob/v5.0.2/contracts/utils/ReentrancyGuard.sol\":2356:2375  _nonReentrantBefore */\n      tag_82\n        /* \"https://github.com/OpenZeppelin/openzeppelin-contracts/blob/v5.0.2/contracts/utils/ReentrancyGuard.sol\":2356:2377  _nonReentrantBefore() */\n      jump\t// in\n    tag_103:\n        /* \"stakbase/deplys.sol\":2282:2283  0 */\n      0x00\n        /* \"stakbase/deplys.sol\":2273:2279  amount */\n      dup2\n        /* \"stakbase/deplys.sol\":2273:2283  amount > 0 */\n      gt\n        /* \"stakbase/deplys.sol\":2265:2317  require(amount > 0, \"Amount must be greater than 0\") */\n      tag_105\n      jumpi\n      mload(0x40)\n      0x08c379a000000000000000000000000000000000000000000000000000000000\n      dup2\n      mstore\n      0x04\n      add\n      tag_106\n      swap1\n      tag_107\n      jump\t// in\n    tag_106:\n      mload(0x40)\n      dup1\n      swap2\n      sub\n      swap1\n      revert\n    tag_105:\n        /* \"stakbase/deplys.sol\":2361:2367  amount */\n      dup1\n        /* \"stakbase/deplys.sol\":2336:2345  balanceOf */\n      0x03\n        /* \"stakbase/deplys.sol\":2336:2357  balanceOf[msg.sender] */\n      0x00\n        /* \"stakbase/deplys.sol\":2346:2356  msg.sender */\n      caller\n        /* \"stakbase/deplys.sol\":2336:2357  balanceOf[msg.sender] */\n      0xffffffffffffffffffffffffffffffffffffffff\n      and\n      0xffffffffffffffffffffffffffffffffffffffff\n      and\n      dup2\n      mstore\n      0x20\n      add\n      swap1\n      dup2\n      mstore\n      0x20\n      add\n      0x00\n      keccak256\n      sload\n        /* \"stakbase/deplys.sol\":2336:2367  balanceOf[msg.sender] >= amount */\n      lt\n      iszero\n        /* \"stakbase/deplys.sol\":2328:2392  require(balanceOf[msg.sender] >= amount, \"Insufficient balance\") */\n      tag_108\n      jumpi\n      mload(0x40)\n      0x08c379a000000000000000000000000000000000000000000000000000000000\n      dup2\n      mstore\n      0x04\n      add\n      tag_109\n      swap1\n      tag_110\n      jump\t// in\n    tag_109:\n      mload(0x40)\n      dup1\n      swap2\n      sub\n      swap1\n      revert\n    tag_108:\n        /* \"stakbase/deplys.sol\":2430:2436  amount */\n      dup1\n        /* \"stakbase/deplys.sol\":2405:2414  balanceOf */\n      0x03\n        /* \"stakbase/deplys.sol\":2405:2426  balanceOf[msg.sender] */\n      0x00\n        /* \"stakbase/deplys.sol\":2415:2425  msg.sender */\n      caller\n        /* \"stakbase/deplys.sol\":2405:2426  balanceOf[msg.sender] */\n      0xffffffffffffffffffffffffffffffffffffffff\n      and\n      0xffffffffffffffffffffffffffffffffffffffff\n      and\n      dup2\n      mstore\n      0x20\n      add\n      swap1\n      dup2\n      mstore\n      0x20\n      add\n      0x00\n      keccak256\n      0x00\n        /* \"stakbase/deplys.sol\":2405:2436  balanceOf[msg.sender] -= amount */\n      dup3\n      dup3\n      sload\n      tag_111\n      swap2\n      swap1\n      tag_112\n      jump\t// in\n    tag_111:\n      swap3\n      pop\n      pop\n      dup2\n      swap1\n      sstore\n      pop\n        /* \"stakbase/deplys.sol\":2462:2468  amount */\n      dup1\n        /* \"stakbase/deplys.sol\":2447:2458  totalStaked */\n      0x02\n      0x00\n        /* \"stakbase/deplys.sol\":2447:2468  totalStaked -= amount */\n      dup3\n      dup3\n      sload\n      tag_113\n      swap2\n      swap1\n      tag_112\n      jump\t// in\n    tag_113:\n      swap3\n      pop\n      pop\n      dup2\n      swap1\n      sstore\n      pop\n        /* \"stakbase/deplys.sol\":539:581  0x4200000000000000000000000000000000000006 */\n      0x4200000000000000000000000000000000000006\n        /* \"stakbase/deplys.sol\":2481:2501  IWETH(WETH).withdraw */\n      0xffffffffffffffffffffffffffffffffffffffff\n      and\n      0x2e1a7d4d\n        /* \"stakbase/deplys.sol\":2502:2508  amount */\n      dup3\n        /* \"stakbase/deplys.sol\":2481:2509  IWETH(WETH).withdraw(amount) */\n      mload(0x40)\n      dup3\n      0xffffffff\n      and\n      0xe0\n      shl\n      dup2\n      mstore\n      0x04\n      add\n      tag_114\n      swap2\n      swap1\n      tag_40\n      jump\t// in\n    tag_114:\n      0x00\n      mload(0x40)\n      dup1\n      dup4\n      sub\n      dup2\n      0x00\n      dup8\n      dup1\n      extcodesize\n      iszero\n      dup1\n      iszero\n      tag_115\n      jumpi\n      revert(0x00, 0x00)\n    tag_115:\n      pop\n      gas\n      call\n      iszero\n      dup1\n      iszero\n      tag_117\n      jumpi\n      returndatacopy(0x00, 0x00, returndatasize)\n      revert(0x00, returndatasize)\n    tag_117:\n      pop\n      pop\n      pop\n      pop\n        /* \"stakbase/deplys.sol\":2523:2535  bool success */\n      0x00\n        /* \"stakbase/deplys.sol\":2549:2559  msg.sender */\n      caller\n        /* \"stakbase/deplys.sol\":2541:2565  payable(msg.sender).call */\n      0xffffffffffffffffffffffffffffffffffffffff\n      and\n        /* \"stakbase/deplys.sol\":2573:2579  amount */\n      dup3\n        /* \"stakbase/deplys.sol\":2541:2584  payable(msg.sender).call{value: amount}(\"\") */\n      mload(0x40)\n      tag_118\n      swap1\n      tag_119\n      jump\t// in\n    tag_118:\n      0x00\n      mload(0x40)\n      dup1\n      dup4\n      sub\n      dup2\n      dup6\n      dup8\n      gas\n      call\n      swap3\n      pop\n      pop\n      pop\n      returndatasize\n      dup1\n      0x00\n      dup2\n      eq\n      tag_122\n      jumpi\n      mload(0x40)\n      swap2\n      pop\n      and(add(returndatasize, 0x3f), not(0x1f))\n      dup3\n      add\n      0x40\n      mstore\n      returndatasize\n      dup3\n      mstore\n      returndatasize\n      0x00\n      0x20\n      dup5\n      add\n      returndatacopy\n      jump(tag_121)\n    tag_122:\n      0x60\n      swap2\n      pop\n    tag_121:\n      pop\n        /* \"stakbase/deplys.sol\":2522:2584  (bool success, ) = payable(msg.sender).call{value: amount}(\"\") */\n      pop\n      swap1\n      pop\n        /* \"stakbase/deplys.sol\":2600:2607  success */\n      dup1\n        /* \"stakbase/deplys.sol\":2595:2861  if (!success) {... */\n      tag_123\n      jumpi\n        /* \"stakbase/deplys.sol\":2710:2716  amount */\n      dup2\n        /* \"stakbase/deplys.sol\":2685:2694  balanceOf */\n      0x03\n        /* \"stakbase/deplys.sol\":2685:2706  balanceOf[msg.sender] */\n      0x00\n        /* \"stakbase/deplys.sol\":2695:2705  msg.sender */\n      caller\n        /* \"stakbase/deplys.sol\":2685:2706  balanceOf[msg.sender] */\n      0xffffffffffffffffffffffffffffffffffffffff\n      and\n      0xffffffffffffffffffffffffffffffffffffffff\n      and\n      dup2\n      mstore\n      0x20\n      add\n      swap1\n      dup2\n      mstore\n      0x20\n      add\n      0x00\n      keccak256\n      0x00\n        /* \"stakbase/deplys.sol\":2685:2716  balanceOf[msg.sender] += amount */\n      dup3\n      dup3\n      sload\n      tag_124\n      swap2\n      swap1\n      tag_97\n      jump\t// in\n    tag_124:\n      swap3\n      pop\n      pop\n      dup2\n      swap1\n      sstore\n      pop\n        /* \"stakbase/deplys.sol\":2746:2752  amount */\n      dup2\n        /* \"stakbase/deplys.sol\":2731:2742  totalStaked */\n      0x02\n      0x00\n        /* \"stakbase/deplys.sol\":2731:2752  totalStaked += amount */\n      dup3\n      dup3\n      sload\n      tag_125\n      swap2\n      swap1\n      tag_97\n      jump\t// in\n    tag_125:\n      swap3\n      pop\n      pop\n      dup2\n      swap1\n      sstore\n      pop\n        /* \"stakbase/deplys.sol\":2786:2796  msg.sender */\n      caller\n        /* \"stakbase/deplys.sol\":2772:2805  FailedUnstake(msg.sender, amount) */\n      0xffffffffffffffffffffffffffffffffffffffff\n      and\n      0x38b6949f4109cd99eb66c39bc86e5e89f54789f4bd1d100f2c7a9284d3444fa5\n        /* \"stakbase/deplys.sol\":2798:2804  amount */\n      dup4\n        /* \"stakbase/deplys.sol\":2772:2805  FailedUnstake(msg.sender, amount) */\n      mload(0x40)\n      tag_126\n      swap2\n      swap1\n      tag_40\n      jump\t// in\n    tag_126:\n      mload(0x40)\n      dup1\n      swap2\n      sub\n      swap1\n      log2\n        /* \"stakbase/deplys.sol\":2820:2849  revert(\"ETH transfer failed\") */\n      mload(0x40)\n      0x08c379a000000000000000000000000000000000000000000000000000000000\n      dup2\n      mstore\n      0x04\n      add\n      tag_127\n      swap1\n      tag_128\n      jump\t// in\n    tag_127:\n      mload(0x40)\n      dup1\n      swap2\n      sub\n      swap1\n      revert\n        /* \"stakbase/deplys.sol\":2595:2861  if (!success) {... */\n    tag_123:\n        /* \"stakbase/deplys.sol\":2887:2897  msg.sender */\n      caller\n        /* \"stakbase/deplys.sol\":2878:2906  Unstaked(msg.sender, amount) */\n      0xffffffffffffffffffffffffffffffffffffffff\n      and\n      0x0f5bb82176feb1b5e747e28471aa92156a04d9f3ab9f45f28e2d704232b93f75\n        /* \"stakbase/deplys.sol\":2899:2905  amount */\n      dup4\n        /* \"stakbase/deplys.sol\":2878:2906  Unstaked(msg.sender, amount) */\n      mload(0x40)\n      tag_129\n      swap2\n      swap1\n      tag_40\n      jump\t// in\n    tag_129:\n      mload(0x40)\n      dup1\n      swap2\n      sub\n      swap1\n      log2\n        /* \"stakbase/deplys.sol\":2254:2914  {... */\n      pop\n        /* \"https://github.com/OpenZeppelin/openzeppelin-contracts/blob/v5.0.2/contracts/utils/ReentrancyGuard.sol\":2398:2418  _nonReentrantAfter() */\n      tag_130\n        /* \"https://github.com/OpenZeppelin/openzeppelin-contracts/blob/v5.0.2/contracts/utils/ReentrancyGuard.sol\":2398:2416  _nonReentrantAfter */\n      tag_101\n        /* \"https://github.com/OpenZeppelin/openzeppelin-contracts/blob/v5.0.2/contracts/utils/ReentrancyGuard.sol\":2398:2418  _nonReentrantAfter() */\n      jump\t// in\n    tag_130:\n        /* \"stakbase/deplys.sol\":2199:2914  function unstake(uint256 amount) external nonReentrant {... */\n      pop\n      jump\t// out\n        /* \"stakbase/deplys.sol\":794:822  IERC20 public immutable weth */\n    tag_33:\n      immutable(\"0x795dcf830090319074c4e36a23e7ad6013124a9e4afc765f3f324f667dfac3a5\")\n      dup2\n      jump\t// out\n        /* \"stakbase/deplys.sol\":951:980  uint256 public maxStakeAmount */\n    tag_38:\n      sload(0x05)\n      dup2\n      jump\t// out\n        /* \"stakbase/deplys.sol\":862:906  mapping(address => uint256) public balanceOf */\n    tag_45:\n      mstore(0x20, 0x03)\n      dup1\n      0x00\n      mstore\n      keccak256(0x00, 0x40)\n      0x00\n      swap2\n      pop\n      swap1\n      pop\n      sload\n      dup2\n      jump\t// out\n        /* \"https://github.com/OpenZeppelin/openzeppelin-contracts/blob/v5.0.2/contracts/access/Ownable.sol\":2293:2394  function renounceOwnership() public virtual onlyOwner {... */\n    tag_49:\n        /* \"https://github.com/OpenZeppelin/openzeppelin-contracts/blob/v5.0.2/contracts/access/Ownable.sol\":1531:1544  _checkOwner() */\n      tag_132\n        /* \"https://github.com/OpenZeppelin/openzeppelin-contracts/blob/v5.0.2/contracts/access/Ownable.sol\":1531:1542  _checkOwner */\n      tag_133\n        /* \"https://github.com/OpenZeppelin/openzeppelin-contracts/blob/v5.0.2/contracts/access/Ownable.sol\":1531:1544  _checkOwner() */\n      jump\t// in\n    tag_132:\n        /* \"https://github.com/OpenZeppelin/openzeppelin-contracts/blob/v5.0.2/contracts/access/Ownable.sol\":2357:2387  _transferOwnership(address(0)) */\n      tag_135\n        /* \"https://github.com/OpenZeppelin/openzeppelin-contracts/blob/v5.0.2/contracts/access/Ownable.sol\":2384:2385  0 */\n      0x00\n        /* \"https://github.com/OpenZeppelin/openzeppelin-contracts/blob/v5.0.2/contracts/access/Ownable.sol\":2357:2375  _transferOwnership */\n      tag_136\n        /* \"https://github.com/OpenZeppelin/openzeppelin-contracts/blob/v5.0.2/contracts/access/Ownable.sol\":2357:2387  _transferOwnership(address(0)) */\n      jump\t// in\n    tag_135:\n        /* \"https://github.com/OpenZeppelin/openzeppelin-contracts/blob/v5.0.2/contracts/access/Ownable.sol\":2293:2394  function renounceOwnership() public virtual onlyOwner {... */\n      jump\t// out\n        /* \"stakbase/deplys.sol\":829:855  uint256 public totalStaked */\n    tag_52:\n      sload(0x02)\n      dup2\n      jump\t// out\n        /* \"https://github.com/OpenZeppelin/openzeppelin-contracts/blob/v5.0.2/contracts/access/Ownable.sol\":1638:1723  function owner() public view virtual returns (address) {... */\n    tag_56:\n        /* \"https://github.com/OpenZeppelin/openzeppelin-contracts/blob/v5.0.2/contracts/access/Ownable.sol\":1684:1691  address */\n      0x00\n        /* \"https://github.com/OpenZeppelin/openzeppelin-contracts/blob/v5.0.2/contracts/access/Ownable.sol\":1710:1716  _owner */\n      0x01\n      0x00\n      swap1\n      sload\n      swap1\n      0x0100\n      exp\n      swap1\n      div\n      0xffffffffffffffffffffffffffffffffffffffff\n      and\n        /* \"https://github.com/OpenZeppelin/openzeppelin-contracts/blob/v5.0.2/contracts/access/Ownable.sol\":1703:1716  return _owner */\n      swap1\n      pop\n        /* \"https://github.com/OpenZeppelin/openzeppelin-contracts/blob/v5.0.2/contracts/access/Ownable.sol\":1638:1723  function owner() public view virtual returns (address) {... */\n      swap1\n      jump\t// out\n        /* \"stakbase/deplys.sol\":3606:3728  function setMaxStakeAmount(uint256 _maxStakeAmount) external onlyOwner {... */\n    tag_62:\n        /* \"https://github.com/OpenZeppelin/openzeppelin-contracts/blob/v5.0.2/contracts/access/Ownable.sol\":1531:1544  _checkOwner() */\n      tag_139\n        /* \"https://github.com/OpenZeppelin/openzeppelin-contracts/blob/v5.0.2/contracts/access/Ownable.sol\":1531:1542  _checkOwner */\n      tag_133\n        /* \"https://github.com/OpenZeppelin/openzeppelin-contracts/blob/v5.0.2/contracts/access/Ownable.sol\":1531:1544  _checkOwner() */\n      jump\t// in\n    tag_139:\n        /* \"stakbase/deplys.sol\":3705:3720  _maxStakeAmount */\n      dup1\n        /* \"stakbase/deplys.sol\":3688:3702  maxStakeAmount */\n      0x05\n        /* \"stakbase/deplys.sol\":3688:3720  maxStakeAmount = _maxStakeAmount */\n      dup2\n      swap1\n      sstore\n      pop\n        /* \"stakbase/deplys.sol\":3606:3728  function setMaxStakeAmount(uint256 _maxStakeAmount) external onlyOwner {... */\n      pop\n      jump\t// out\n        /* \"stakbase/deplys.sol\":3336:3458  function setMinStakeAmount(uint256 _minStakeAmount) external onlyOwner {... */\n    tag_66:\n        /* \"https://github.com/OpenZeppelin/openzeppelin-contracts/blob/v5.0.2/contracts/access/Ownable.sol\":1531:1544  _checkOwner() */\n      tag_142\n        /* \"https://github.com/OpenZeppelin/openzeppelin-contracts/blob/v5.0.2/contracts/access/Ownable.sol\":1531:1542  _checkOwner */\n      tag_133\n        /* \"https://github.com/OpenZeppelin/openzeppelin-contracts/blob/v5.0.2/contracts/access/Ownable.sol\":1531:1544  _checkOwner() */\n      jump\t// in\n    tag_142:\n        /* \"stakbase/deplys.sol\":3435:3450  _minStakeAmount */\n      dup1\n        /* \"stakbase/deplys.sol\":3418:3432  minStakeAmount */\n      0x04\n        /* \"stakbase/deplys.sol\":3418:3450  minStakeAmount = _minStakeAmount */\n      dup2\n      swap1\n      sstore\n      pop\n        /* \"stakbase/deplys.sol\":3336:3458  function setMinStakeAmount(uint256 _minStakeAmount) external onlyOwner {... */\n      pop\n      jump\t// out\n        /* \"stakbase/deplys.sol\":915:944  uint256 public minStakeAmount */\n    tag_69:\n      sload(0x04)\n      dup2\n      jump\t// out\n        /* \"https://github.com/OpenZeppelin/openzeppelin-contracts/blob/v5.0.2/contracts/access/Ownable.sol\":2543:2758  function transferOwnership(address newOwner) public virtual onlyOwner {... */\n    tag_74:\n        /* \"https://github.com/OpenZeppelin/openzeppelin-contracts/blob/v5.0.2/contracts/access/Ownable.sol\":1531:1544  _checkOwner() */\n      tag_145\n        /* \"https://github.com/OpenZeppelin/openzeppelin-contracts/blob/v5.0.2/contracts/access/Ownable.sol\":1531:1542  _checkOwner */\n      tag_133\n        /* \"https://github.com/OpenZeppelin/openzeppelin-contracts/blob/v5.0.2/contracts/access/Ownable.sol\":1531:1544  _checkOwner() */\n      jump\t// in\n    tag_145:\n        /* \"https://github.com/OpenZeppelin/openzeppelin-contracts/blob/v5.0.2/contracts/access/Ownable.sol\":2647:2648  0 */\n      0x00\n        /* \"https://github.com/OpenZeppelin/openzeppelin-contracts/blob/v5.0.2/contracts/access/Ownable.sol\":2627:2649  newOwner == address(0) */\n      0xffffffffffffffffffffffffffffffffffffffff\n      and\n        /* \"https://github.com/OpenZeppelin/openzeppelin-contracts/blob/v5.0.2/contracts/access/Ownable.sol\":2627:2635  newOwner */\n      dup2\n        /* \"https://github.com/OpenZeppelin/openzeppelin-contracts/blob/v5.0.2/contracts/access/Ownable.sol\":2627:2649  newOwner == address(0) */\n      0xffffffffffffffffffffffffffffffffffffffff\n      and\n      sub\n        /* \"https://github.com/OpenZeppelin/openzeppelin-contracts/blob/v5.0.2/contracts/access/Ownable.sol\":2623:2714  if (newOwner == address(0)) {... */\n      tag_147\n      jumpi\n        /* \"https://github.com/OpenZeppelin/openzeppelin-contracts/blob/v5.0.2/contracts/access/Ownable.sol\":2700:2701  0 */\n      0x00\n        /* \"https://github.com/OpenZeppelin/openzeppelin-contracts/blob/v5.0.2/contracts/access/Ownable.sol\":2672:2703  OwnableInvalidOwner(address(0)) */\n      mload(0x40)\n      0x1e4fbdf700000000000000000000000000000000000000000000000000000000\n      dup2\n      mstore\n      0x04\n      add\n      tag_148\n      swap2\n      swap1\n      tag_58\n      jump\t// in\n    tag_148:\n      mload(0x40)\n      dup1\n      swap2\n      sub\n      swap1\n      revert\n        /* \"https://github.com/OpenZeppelin/openzeppelin-contracts/blob/v5.0.2/contracts/access/Ownable.sol\":2623:2714  if (newOwner == address(0)) {... */\n    tag_147:\n        /* \"https://github.com/OpenZeppelin/openzeppelin-contracts/blob/v5.0.2/contracts/access/Ownable.sol\":2723:2751  _transferOwnership(newOwner) */\n      tag_149\n        /* \"https://github.com/OpenZeppelin/openzeppelin-contracts/blob/v5.0.2/contracts/access/Ownable.sol\":2742:2750  newOwner */\n      dup2\n        /* \"https://github.com/OpenZeppelin/openzeppelin-contracts/blob/v5.0.2/contracts/access/Ownable.sol\":2723:2741  _transferOwnership */\n      tag_136\n        /* \"https://github.com/OpenZeppelin/openzeppelin-contracts/blob/v5.0.2/contracts/access/Ownable.sol\":2723:2751  _transferOwnership(newOwner) */\n      jump\t// in\n    tag_149:\n        /* \"https://github.com/OpenZeppelin/openzeppelin-contracts/blob/v5.0.2/contracts/access/Ownable.sol\":2543:2758  function transferOwnership(address newOwner) public virtual onlyOwner {... */\n      pop\n      jump\t// out\n        /* \"stakbase/deplys.sol\":3081:3188  function getBalance(address user) external view returns (uint256) {... */\n    tag_78:\n        /* \"stakbase/deplys.sol\":3138:3145  uint256 */\n      0x00\n        /* \"stakbase/deplys.sol\":3165:3174  balanceOf */\n      0x03\n        /* \"stakbase/deplys.sol\":3165:3180  balanceOf[user] */\n      0x00\n        /* \"stakbase/deplys.sol\":3175:3179  user */\n      dup4\n        /* \"stakbase/deplys.sol\":3165:3180  balanceOf[user] */\n      0xffffffffffffffffffffffffffffffffffffffff\n      and\n      0xffffffffffffffffffffffffffffffffffffffff\n      and\n      dup2\n      mstore\n      0x20\n      add\n      swap1\n      dup2\n      mstore\n      0x20\n      add\n      0x00\n      keccak256\n      sload\n        /* \"stakbase/deplys.sol\":3158:3180  return balanceOf[user] */\n      swap1\n      pop\n        /* \"stakbase/deplys.sol\":3081:3188  function getBalance(address user) external view returns (uint256) {... */\n      swap2\n      swap1\n      pop\n      jump\t// out\n        /* \"https://github.com/OpenZeppelin/openzeppelin-contracts/blob/v5.0.2/contracts/utils/ReentrancyGuard.sol\":2431:2738  function _nonReentrantBefore() private {... */\n    tag_82:\n        /* \"https://github.com/OpenZeppelin/openzeppelin-contracts/blob/v5.0.2/contracts/utils/ReentrancyGuard.sol\":1755:1756  2 */\n      0x02\n        /* \"https://github.com/OpenZeppelin/openzeppelin-contracts/blob/v5.0.2/contracts/utils/ReentrancyGuard.sol\":2558:2565  _status */\n      sload(0x00)\n        /* \"https://github.com/OpenZeppelin/openzeppelin-contracts/blob/v5.0.2/contracts/utils/ReentrancyGuard.sol\":2558:2576  _status == ENTERED */\n      sub\n        /* \"https://github.com/OpenZeppelin/openzeppelin-contracts/blob/v5.0.2/contracts/utils/ReentrancyGuard.sol\":2554:2640  if (_status == ENTERED) {... */\n      tag_152\n      jumpi\n        /* \"https://github.com/OpenZeppelin/openzeppelin-contracts/blob/v5.0.2/contracts/utils/ReentrancyGuard.sol\":2599:2629  ReentrancyGuardReentrantCall() */\n      mload(0x40)\n      0x3ee5aeb500000000000000000000000000000000000000000000000000000000\n      dup2\n      mstore\n      0x04\n      add\n      mload(0x40)\n      dup1\n      swap2\n      sub\n      swap1\n      revert\n        /* \"https://github.com/OpenZeppelin/openzeppelin-contracts/blob/v5.0.2/contracts/utils/ReentrancyGuard.sol\":2554:2640  if (_status == ENTERED) {... */\n    tag_152:\n        /* \"https://github.com/OpenZeppelin/openzeppelin-contracts/blob/v5.0.2/contracts/utils/ReentrancyGuard.sol\":1755:1756  2 */\n      0x02\n        /* \"https://github.com/OpenZeppelin/openzeppelin-contracts/blob/v5.0.2/contracts/utils/ReentrancyGuard.sol\":2714:2721  _status */\n      0x00\n        /* \"https://github.com/OpenZeppelin/openzeppelin-contracts/blob/v5.0.2/contracts/utils/ReentrancyGuard.sol\":2714:2731  _status = ENTERED */\n      dup2\n      swap1\n      sstore\n      pop\n        /* \"https://github.com/OpenZeppelin/openzeppelin-contracts/blob/v5.0.2/contracts/utils/ReentrancyGuard.sol\":2431:2738  function _nonReentrantBefore() private {... */\n      jump\t// out\n        /* \"https://github.com/OpenZeppelin/openzeppelin-contracts/blob/v5.0.2/contracts/utils/ReentrancyGuard.sol\":2744:2952  function _nonReentrantAfter() private {... */\n    tag_101:\n        /* \"https://github.com/OpenZeppelin/openzeppelin-contracts/blob/v5.0.2/contracts/utils/ReentrancyGuard.sol\":1713:1714  1 */\n      0x01\n        /* \"https://github.com/OpenZeppelin/openzeppelin-contracts/blob/v5.0.2/contracts/utils/ReentrancyGuard.sol\":2924:2931  _status */\n      0x00\n        /* \"https://github.com/OpenZeppelin/openzeppelin-contracts/blob/v5.0.2/contracts/utils/ReentrancyGuard.sol\":2924:2945  _status = NOT_ENTERED */\n      dup2\n      swap1\n      sstore\n      pop\n        /* \"https://github.com/OpenZeppelin/openzeppelin-contracts/blob/v5.0.2/contracts/utils/ReentrancyGuard.sol\":2744:2952  function _nonReentrantAfter() private {... */\n      jump\t// out\n        /* \"https://github.com/OpenZeppelin/openzeppelin-contracts/blob/v5.0.2/contracts/access/Ownable.sol\":1796:1958  function _checkOwner() internal view virtual {... */\n    tag_133:\n        /* \"https://github.com/OpenZeppelin/openzeppelin-contracts/blob/v5.0.2/contracts/access/Ownable.sol\":1866:1878  _msgSender() */\n      tag_155\n        /* \"https://github.com/OpenZeppelin/openzeppelin-contracts/blob/v5.0.2/contracts/access/Ownable.sol\":1866:1876  _msgSender */\n      tag_156\n        /* \"https://github.com/OpenZeppelin/openzeppelin-contracts/blob/v5.0.2/contracts/access/Ownable.sol\":1866:1878  _msgSender() */\n      jump\t// in\n    tag_155:\n        /* \"https://github.com/OpenZeppelin/openzeppelin-contracts/blob/v5.0.2/contracts/access/Ownable.sol\":1855:1878  owner() != _msgSender() */\n      0xffffffffffffffffffffffffffffffffffffffff\n      and\n        /* \"https://github.com/OpenZeppelin/openzeppelin-contracts/blob/v5.0.2/contracts/access/Ownable.sol\":1855:1862  owner() */\n      tag_157\n        /* \"https://github.com/OpenZeppelin/openzeppelin-contracts/blob/v5.0.2/contracts/access/Ownable.sol\":1855:1860  owner */\n      tag_56\n        /* \"https://github.com/OpenZeppelin/openzeppelin-contracts/blob/v5.0.2/contracts/access/Ownable.sol\":1855:1862  owner() */\n      jump\t// in\n    tag_157:\n        /* \"https://github.com/OpenZeppelin/openzeppelin-contracts/blob/v5.0.2/contracts/access/Ownable.sol\":1855:1878  owner() != _msgSender() */\n      0xffffffffffffffffffffffffffffffffffffffff\n      and\n      eq\n        /* \"https://github.com/OpenZeppelin/openzeppelin-contracts/blob/v5.0.2/contracts/access/Ownable.sol\":1851:1952  if (owner() != _msgSender()) {... */\n      tag_158\n      jumpi\n        /* \"https://github.com/OpenZeppelin/openzeppelin-contracts/blob/v5.0.2/contracts/access/Ownable.sol\":1928:1940  _msgSender() */\n      tag_159\n        /* \"https://github.com/OpenZeppelin/openzeppelin-contracts/blob/v5.0.2/contracts/access/Ownable.sol\":1928:1938  _msgSender */\n      tag_156\n        /* \"https://github.com/OpenZeppelin/openzeppelin-contracts/blob/v5.0.2/contracts/access/Ownable.sol\":1928:1940  _msgSender() */\n      jump\t// in\n    tag_159:\n        /* \"https://github.com/OpenZeppelin/openzeppelin-contracts/blob/v5.0.2/contracts/access/Ownable.sol\":1901:1941  OwnableUnauthorizedAccount(_msgSender()) */\n      mload(0x40)\n      0x118cdaa700000000000000000000000000000000000000000000000000000000\n      dup2\n      mstore\n      0x04\n      add\n      tag_160\n      swap2\n      swap1\n      tag_58\n      jump\t// in\n    tag_160:\n      mload(0x40)\n      dup1\n      swap2\n      sub\n      swap1\n      revert\n        /* \"https://github.com/OpenZeppelin/openzeppelin-contracts/blob/v5.0.2/contracts/access/Ownable.sol\":1851:1952  if (owner() != _msgSender()) {... */\n    tag_158:\n        /* \"https://github.com/OpenZeppelin/openzeppelin-contracts/blob/v5.0.2/contracts/access/Ownable.sol\":1796:1958  function _checkOwner() internal view virtual {... */\n      jump\t// out\n        /* \"https://github.com/OpenZeppelin/openzeppelin-contracts/blob/v5.0.2/contracts/access/Ownable.sol\":2912:3099  function _transferOwnership(address newOwner) internal virtual {... */\n    tag_136:\n        /* \"https://github.com/OpenZeppelin/openzeppelin-contracts/blob/v5.0.2/contracts/access/Ownable.sol\":2985:3001  address oldOwner */\n      0x00\n        /* \"https://github.com/OpenZeppelin/openzeppelin-contracts/blob/v5.0.2/contracts/access/Ownable.sol\":3004:3010  _owner */\n      0x01\n      0x00\n      swap1\n      sload\n      swap1\n      0x0100\n      exp\n      swap1\n      div\n      0xffffffffffffffffffffffffffffffffffffffff\n      and\n        /* \"https://github.com/OpenZeppelin/openzeppelin-contracts/blob/v5.0.2/contracts/access/Ownable.sol\":2985:3010  address oldOwner = _owner */\n      swap1\n      pop\n        /* \"https://github.com/OpenZeppelin/openzeppelin-contracts/blob/v5.0.2/contracts/access/Ownable.sol\":3029:3037  newOwner */\n      dup2\n        /* \"https://github.com/OpenZeppelin/openzeppelin-contracts/blob/v5.0.2/contracts/access/Ownable.sol\":3020:3026  _owner */\n      0x01\n      0x00\n        /* \"https://github.com/OpenZeppelin/openzeppelin-contracts/blob/v5.0.2/contracts/access/Ownable.sol\":3020:3037  _owner = newOwner */\n      0x0100\n      exp\n      dup2\n      sload\n      dup2\n      0xffffffffffffffffffffffffffffffffffffffff\n      mul\n      not\n      and\n      swap1\n      dup4\n      0xffffffffffffffffffffffffffffffffffffffff\n      and\n      mul\n      or\n      swap1\n      sstore\n      pop\n        /* \"https://github.com/OpenZeppelin/openzeppelin-contracts/blob/v5.0.2/contracts/access/Ownable.sol\":3083:3091  newOwner */\n      dup2\n        /* \"https://github.com/OpenZeppelin/openzeppelin-contracts/blob/v5.0.2/contracts/access/Ownable.sol\":3052:3092  OwnershipTransferred(oldOwner, newOwner) */\n      0xffffffffffffffffffffffffffffffffffffffff\n      and\n        /* \"https://github.com/OpenZeppelin/openzeppelin-contracts/blob/v5.0.2/contracts/access/Ownable.sol\":3073:3081  oldOwner */\n      dup2\n        /* \"https://github.com/OpenZeppelin/openzeppelin-contracts/blob/v5.0.2/contracts/access/Ownable.sol\":3052:3092  OwnershipTransferred(oldOwner, newOwner) */\n      0xffffffffffffffffffffffffffffffffffffffff\n      and\n      0x8be0079c531659141344cd1fd0a4f28419497f9722a3daafe3b4186f6b6457e0\n      mload(0x40)\n      mload(0x40)\n      dup1\n      swap2\n      sub\n      swap1\n      log3\n        /* \"https://github.com/OpenZeppelin/openzeppelin-contracts/blob/v5.0.2/contracts/access/Ownable.sol\":2975:3099  {... */\n      pop\n        /* \"https://github.com/OpenZeppelin/openzeppelin-contracts/blob/v5.0.2/contracts/access/Ownable.sol\":2912:3099  function _transferOwnership(address newOwner) internal virtual {... */\n      pop\n      jump\t// out\n        /* \"https://github.com/OpenZeppelin/openzeppelin-contracts/blob/v5.0.2/contracts/utils/Context.sol\":656:752  function _msgSender() internal view virtual returns (address) {... */\n    tag_156:\n        /* \"https://github.com/OpenZeppelin/openzeppelin-contracts/blob/v5.0.2/contracts/utils/Context.sol\":709:716  address */\n      0x00\n        /* \"https://github.com/OpenZeppelin/openzeppelin-contracts/blob/v5.0.2/contracts/utils/Context.sol\":735:745  msg.sender */\n      caller\n        /* \"https://github.com/OpenZeppelin/openzeppelin-contracts/blob/v5.0.2/contracts/utils/Context.sol\":728:745  return msg.sender */\n      swap1\n      pop\n        /* \"https://github.com/OpenZeppelin/openzeppelin-contracts/blob/v5.0.2/contracts/utils/Context.sol\":656:752  function _msgSender() internal view virtual returns (address) {... */\n      swap1\n      jump\t// out\n        /* \"#utility.yul\":88:205   */\n    tag_164:\n        /* \"#utility.yul\":197:198   */\n      0x00\n        /* \"#utility.yul\":194:195   */\n      0x00\n        /* \"#utility.yul\":187:199   */\n      revert\n        /* \"#utility.yul\":334:411   */\n    tag_166:\n        /* \"#utility.yul\":371:378   */\n      0x00\n        /* \"#utility.yul\":400:405   */\n      dup2\n        /* \"#utility.yul\":389:405   */\n      swap1\n      pop\n        /* \"#utility.yul\":334:411   */\n      swap2\n      swap1\n      pop\n      jump\t// out\n        /* \"#utility.yul\":417:539   */\n    tag_167:\n        /* \"#utility.yul\":490:514   */\n      tag_203\n        /* \"#utility.yul\":508:513   */\n      dup2\n        /* \"#utility.yul\":490:514   */\n      tag_166\n      jump\t// in\n    tag_203:\n        /* \"#utility.yul\":483:488   */\n      dup2\n        /* \"#utility.yul\":480:515   */\n      eq\n        /* \"#utility.yul\":470:533   */\n      tag_204\n      jumpi\n        /* \"#utility.yul\":529:530   */\n      0x00\n        /* \"#utility.yul\":526:527   */\n      0x00\n        /* \"#utility.yul\":519:531   */\n      revert\n        /* \"#utility.yul\":470:533   */\n    tag_204:\n        /* \"#utility.yul\":417:539   */\n      pop\n      jump\t// out\n        /* \"#utility.yul\":545:684   */\n    tag_168:\n        /* \"#utility.yul\":591:596   */\n      0x00\n        /* \"#utility.yul\":629:635   */\n      dup2\n        /* \"#utility.yul\":616:636   */\n      calldataload\n        /* \"#utility.yul\":607:636   */\n      swap1\n      pop\n        /* \"#utility.yul\":645:678   */\n      tag_206\n        /* \"#utility.yul\":672:677   */\n      dup2\n        /* \"#utility.yul\":645:678   */\n      tag_167\n      jump\t// in\n    tag_206:\n        /* \"#utility.yul\":545:684   */\n      swap3\n      swap2\n      pop\n      pop\n      jump\t// out\n        /* \"#utility.yul\":690:1019   */\n    tag_28:\n        /* \"#utility.yul\":749:755   */\n      0x00\n        /* \"#utility.yul\":798:800   */\n      0x20\n        /* \"#utility.yul\":786:795   */\n      dup3\n        /* \"#utility.yul\":777:784   */\n      dup5\n        /* \"#utility.yul\":773:796   */\n      sub\n        /* \"#utility.yul\":769:801   */\n      slt\n        /* \"#utility.yul\":766:885   */\n      iszero\n      tag_208\n      jumpi\n        /* \"#utility.yul\":804:883   */\n      tag_209\n      tag_164\n      jump\t// in\n    tag_209:\n        /* \"#utility.yul\":766:885   */\n    tag_208:\n        /* \"#utility.yul\":924:925   */\n      0x00\n        /* \"#utility.yul\":949:1002   */\n      tag_210\n        /* \"#utility.yul\":994:1001   */\n      dup5\n        /* \"#utility.yul\":985:991   */\n      dup3\n        /* \"#utility.yul\":974:983   */\n      dup6\n        /* \"#utility.yul\":970:992   */\n      add\n        /* \"#utility.yul\":949:1002   */\n      tag_168\n      jump\t// in\n    tag_210:\n        /* \"#utility.yul\":939:1002   */\n      swap2\n      pop\n        /* \"#utility.yul\":895:1012   */\n      pop\n        /* \"#utility.yul\":690:1019   */\n      swap3\n      swap2\n      pop\n      pop\n      jump\t// out\n        /* \"#utility.yul\":1025:1151   */\n    tag_169:\n        /* \"#utility.yul\":1062:1069   */\n      0x00\n        /* \"#utility.yul\":1102:1144   */\n      0xffffffffffffffffffffffffffffffffffffffff\n        /* \"#utility.yul\":1095:1100   */\n      dup3\n        /* \"#utility.yul\":1091:1145   */\n      and\n        /* \"#utility.yul\":1080:1145   */\n      swap1\n      pop\n        /* \"#utility.yul\":1025:1151   */\n      swap2\n      swap1\n      pop\n      jump\t// out\n        /* \"#utility.yul\":1157:1217   */\n    tag_170:\n        /* \"#utility.yul\":1185:1188   */\n      0x00\n        /* \"#utility.yul\":1206:1211   */\n      dup2\n        /* \"#utility.yul\":1199:1211   */\n      swap1\n      pop\n        /* \"#utility.yul\":1157:1217   */\n      swap2\n      swap1\n      pop\n      jump\t// out\n        /* \"#utility.yul\":1223:1365   */\n    tag_171:\n        /* \"#utility.yul\":1273:1282   */\n      0x00\n        /* \"#utility.yul\":1306:1359   */\n      tag_214\n        /* \"#utility.yul\":1324:1358   */\n      tag_215\n        /* \"#utility.yul\":1333:1357   */\n      tag_216\n        /* \"#utility.yul\":1351:1356   */\n      dup5\n        /* \"#utility.yul\":1333:1357   */\n      tag_169\n      jump\t// in\n    tag_216:\n        /* \"#utility.yul\":1324:1358   */\n      tag_170\n      jump\t// in\n    tag_215:\n        /* \"#utility.yul\":1306:1359   */\n      tag_169\n      jump\t// in\n    tag_214:\n        /* \"#utility.yul\":1293:1359   */\n      swap1\n      pop\n        /* \"#utility.yul\":1223:1365   */\n      swap2\n      swap1\n      pop\n      jump\t// out\n        /* \"#utility.yul\":1371:1497   */\n    tag_172:\n        /* \"#utility.yul\":1421:1430   */\n      0x00\n        /* \"#utility.yul\":1454:1491   */\n      tag_218\n        /* \"#utility.yul\":1485:1490   */\n      dup3\n        /* \"#utility.yul\":1454:1491   */\n      tag_171\n      jump\t// in\n    tag_218:\n        /* \"#utility.yul\":1441:1491   */\n      swap1\n      pop\n        /* \"#utility.yul\":1371:1497   */\n      swap2\n      swap1\n      pop\n      jump\t// out\n        /* \"#utility.yul\":1503:1643   */\n    tag_173:\n        /* \"#utility.yul\":1567:1576   */\n      0x00\n        /* \"#utility.yul\":1600:1637   */\n      tag_220\n        /* \"#utility.yul\":1631:1636   */\n      dup3\n        /* \"#utility.yul\":1600:1637   */\n      tag_172\n      jump\t// in\n    tag_220:\n        /* \"#utility.yul\":1587:1637   */\n      swap1\n      pop\n        /* \"#utility.yul\":1503:1643   */\n      swap2\n      swap1\n      pop\n      jump\t// out\n        /* \"#utility.yul\":1649:1808   */\n    tag_174:\n        /* \"#utility.yul\":1750:1801   */\n      tag_222\n        /* \"#utility.yul\":1795:1800   */\n      dup2\n        /* \"#utility.yul\":1750:1801   */\n      tag_173\n      jump\t// in\n    tag_222:\n        /* \"#utility.yul\":1745:1748   */\n      dup3\n        /* \"#utility.yul\":1738:1802   */\n      mstore\n        /* \"#utility.yul\":1649:1808   */\n      pop\n      pop\n      jump\t// out\n        /* \"#utility.yul\":1814:2064   */\n    tag_35:\n        /* \"#utility.yul\":1921:1925   */\n      0x00\n        /* \"#utility.yul\":1959:1961   */\n      0x20\n        /* \"#utility.yul\":1948:1957   */\n      dup3\n        /* \"#utility.yul\":1944:1962   */\n      add\n        /* \"#utility.yul\":1936:1962   */\n      swap1\n      pop\n        /* \"#utility.yul\":1972:2057   */\n      tag_224\n        /* \"#utility.yul\":2054:2055   */\n      0x00\n        /* \"#utility.yul\":2043:2052   */\n      dup4\n        /* \"#utility.yul\":2039:2056   */\n      add\n        /* \"#utility.yul\":2030:2036   */\n      dup5\n        /* \"#utility.yul\":1972:2057   */\n      tag_174\n      jump\t// in\n    tag_224:\n        /* \"#utility.yul\":1814:2064   */\n      swap3\n      swap2\n      pop\n      pop\n      jump\t// out\n        /* \"#utility.yul\":2070:2188   */\n    tag_175:\n        /* \"#utility.yul\":2157:2181   */\n      tag_226\n        /* \"#utility.yul\":2175:2180   */\n      dup2\n        /* \"#utility.yul\":2157:2181   */\n      tag_166\n      jump\t// in\n    tag_226:\n        /* \"#utility.yul\":2152:2155   */\n      dup3\n        /* \"#utility.yul\":2145:2182   */\n      mstore\n        /* \"#utility.yul\":2070:2188   */\n      pop\n      pop\n      jump\t// out\n        /* \"#utility.yul\":2194:2416   */\n    tag_40:\n        /* \"#utility.yul\":2287:2291   */\n      0x00\n        /* \"#utility.yul\":2325:2327   */\n      0x20\n        /* \"#utility.yul\":2314:2323   */\n      dup3\n        /* \"#utility.yul\":2310:2328   */\n      add\n        /* \"#utility.yul\":2302:2328   */\n      swap1\n      pop\n        /* \"#utility.yul\":2338:2409   */\n      tag_228\n        /* \"#utility.yul\":2406:2407   */\n      0x00\n        /* \"#utility.yul\":2395:2404   */\n      dup4\n        /* \"#utility.yul\":2391:2408   */\n      add\n        /* \"#utility.yul\":2382:2388   */\n      dup5\n        /* \"#utility.yul\":2338:2409   */\n      tag_175\n      jump\t// in\n    tag_228:\n        /* \"#utility.yul\":2194:2416   */\n      swap3\n      swap2\n      pop\n      pop\n      jump\t// out\n        /* \"#utility.yul\":2422:2518   */\n    tag_176:\n        /* \"#utility.yul\":2459:2466   */\n      0x00\n        /* \"#utility.yul\":2488:2512   */\n      tag_230\n        /* \"#utility.yul\":2506:2511   */\n      dup3\n        /* \"#utility.yul\":2488:2512   */\n      tag_169\n      jump\t// in\n    tag_230:\n        /* \"#utility.yul\":2477:2512   */\n      swap1\n      pop\n        /* \"#utility.yul\":2422:2518   */\n      swap2\n      swap1\n      pop\n      jump\t// out\n        /* \"#utility.yul\":2524:2646   */\n    tag_177:\n        /* \"#utility.yul\":2597:2621   */\n      tag_232\n        /* \"#utility.yul\":2615:2620   */\n      dup2\n        /* \"#utility.yul\":2597:2621   */\n      tag_176\n      jump\t// in\n    tag_232:\n        /* \"#utility.yul\":2590:2595   */\n      dup2\n        /* \"#utility.yul\":2587:2622   */\n      eq\n        /* \"#utility.yul\":2577:2640   */\n      tag_233\n      jumpi\n        /* \"#utility.yul\":2636:2637   */\n      0x00\n        /* \"#utility.yul\":2633:2634   */\n      0x00\n        /* \"#utility.yul\":2626:2638   */\n      revert\n        /* \"#utility.yul\":2577:2640   */\n    tag_233:\n        /* \"#utility.yul\":2524:2646   */\n      pop\n      jump\t// out\n        /* \"#utility.yul\":2652:2791   */\n    tag_178:\n        /* \"#utility.yul\":2698:2703   */\n      0x00\n        /* \"#utility.yul\":2736:2742   */\n      dup2\n        /* \"#utility.yul\":2723:2743   */\n      calldataload\n        /* \"#utility.yul\":2714:2743   */\n      swap1\n      pop\n        /* \"#utility.yul\":2752:2785   */\n      tag_235\n        /* \"#utility.yul\":2779:2784   */\n      dup2\n        /* \"#utility.yul\":2752:2785   */\n      tag_177\n      jump\t// in\n    tag_235:\n        /* \"#utility.yul\":2652:2791   */\n      swap3\n      swap2\n      pop\n      pop\n      jump\t// out\n        /* \"#utility.yul\":2797:3126   */\n    tag_44:\n        /* \"#utility.yul\":2856:2862   */\n      0x00\n        /* \"#utility.yul\":2905:2907   */\n      0x20\n        /* \"#utility.yul\":2893:2902   */\n      dup3\n        /* \"#utility.yul\":2884:2891   */\n      dup5\n        /* \"#utility.yul\":2880:2903   */\n      sub\n        /* \"#utility.yul\":2876:2908   */\n      slt\n        /* \"#utility.yul\":2873:2992   */\n      iszero\n      tag_237\n      jumpi\n        /* \"#utility.yul\":2911:2990   */\n      tag_238\n      tag_164\n      jump\t// in\n    tag_238:\n        /* \"#utility.yul\":2873:2992   */\n    tag_237:\n        /* \"#utility.yul\":3031:3032   */\n      0x00\n        /* \"#utility.yul\":3056:3109   */\n      tag_239\n        /* \"#utility.yul\":3101:3108   */\n      dup5\n        /* \"#utility.yul\":3092:3098   */\n      dup3\n        /* \"#utility.yul\":3081:3090   */\n      dup6\n        /* \"#utility.yul\":3077:3099   */\n      add\n        /* \"#utility.yul\":3056:3109   */\n      tag_178\n      jump\t// in\n    tag_239:\n        /* \"#utility.yul\":3046:3109   */\n      swap2\n      pop\n        /* \"#utility.yul\":3002:3119   */\n      pop\n        /* \"#utility.yul\":2797:3126   */\n      swap3\n      swap2\n      pop\n      pop\n      jump\t// out\n        /* \"#utility.yul\":3132:3250   */\n    tag_179:\n        /* \"#utility.yul\":3219:3243   */\n      tag_241\n        /* \"#utility.yul\":3237:3242   */\n      dup2\n        /* \"#utility.yul\":3219:3243   */\n      tag_176\n      jump\t// in\n    tag_241:\n        /* \"#utility.yul\":3214:3217   */\n      dup3\n        /* \"#utility.yul\":3207:3244   */\n      mstore\n        /* \"#utility.yul\":3132:3250   */\n      pop\n      pop\n      jump\t// out\n        /* \"#utility.yul\":3256:3478   */\n    tag_58:\n        /* \"#utility.yul\":3349:3353   */\n      0x00\n        /* \"#utility.yul\":3387:3389   */\n      0x20\n        /* \"#utility.yul\":3376:3385   */\n      dup3\n        /* \"#utility.yul\":3372:3390   */\n      add\n        /* \"#utility.yul\":3364:3390   */\n      swap1\n      pop\n        /* \"#utility.yul\":3400:3471   */\n      tag_243\n        /* \"#utility.yul\":3468:3469   */\n      0x00\n        /* \"#utility.yul\":3457:3466   */\n      dup4\n        /* \"#utility.yul\":3453:3470   */\n      add\n        /* \"#utility.yul\":3444:3450   */\n      dup5\n        /* \"#utility.yul\":3400:3471   */\n      tag_179\n      jump\t// in\n    tag_243:\n        /* \"#utility.yul\":3256:3478   */\n      swap3\n      swap2\n      pop\n      pop\n      jump\t// out\n        /* \"#utility.yul\":3484:3653   */\n    tag_180:\n        /* \"#utility.yul\":3568:3579   */\n      0x00\n        /* \"#utility.yul\":3602:3608   */\n      dup3\n        /* \"#utility.yul\":3597:3600   */\n      dup3\n        /* \"#utility.yul\":3590:3609   */\n      mstore\n        /* \"#utility.yul\":3642:3646   */\n      0x20\n        /* \"#utility.yul\":3637:3640   */\n      dup3\n        /* \"#utility.yul\":3633:3647   */\n      add\n        /* \"#utility.yul\":3618:3647   */\n      swap1\n      pop\n        /* \"#utility.yul\":3484:3653   */\n      swap3\n      swap2\n      pop\n      pop\n      jump\t// out\n        /* \"#utility.yul\":3659:3820   */\n    tag_181:\n        /* \"#utility.yul\":3799:3812   */\n      0x4e6f204554482073656e74000000000000000000000000000000000000000000\n        /* \"#utility.yul\":3795:3796   */\n      0x00\n        /* \"#utility.yul\":3787:3793   */\n      dup3\n        /* \"#utility.yul\":3783:3797   */\n      add\n        /* \"#utility.yul\":3776:3813   */\n      mstore\n        /* \"#utility.yul\":3659:3820   */\n      pop\n      jump\t// out\n        /* \"#utility.yul\":3826:4192   */\n    tag_182:\n        /* \"#utility.yul\":3968:3971   */\n      0x00\n        /* \"#utility.yul\":3989:4056   */\n      tag_247\n        /* \"#utility.yul\":4053:4055   */\n      0x0b\n        /* \"#utility.yul\":4048:4051   */\n      dup4\n        /* \"#utility.yul\":3989:4056   */\n      tag_180\n      jump\t// in\n    tag_247:\n        /* \"#utility.yul\":3982:4056   */\n      swap2\n      pop\n        /* \"#utility.yul\":4065:4158   */\n      tag_248\n        /* \"#utility.yul\":4154:4157   */\n      dup3\n        /* \"#utility.yul\":4065:4158   */\n      tag_181\n      jump\t// in\n    tag_248:\n        /* \"#utility.yul\":4183:4185   */\n      0x20\n        /* \"#utility.yul\":4178:4181   */\n      dup3\n        /* \"#utility.yul\":4174:4186   */\n      add\n        /* \"#utility.yul\":4167:4186   */\n      swap1\n      pop\n        /* \"#utility.yul\":3826:4192   */\n      swap2\n      swap1\n      pop\n      jump\t// out\n        /* \"#utility.yul\":4198:4617   */\n    tag_86:\n        /* \"#utility.yul\":4364:4368   */\n      0x00\n        /* \"#utility.yul\":4402:4404   */\n      0x20\n        /* \"#utility.yul\":4391:4400   */\n      dup3\n        /* \"#utility.yul\":4387:4405   */\n      add\n        /* \"#utility.yul\":4379:4405   */\n      swap1\n      pop\n        /* \"#utility.yul\":4451:4460   */\n      dup2\n        /* \"#utility.yul\":4445:4449   */\n      dup2\n        /* \"#utility.yul\":4441:4461   */\n      sub\n        /* \"#utility.yul\":4437:4438   */\n      0x00\n        /* \"#utility.yul\":4426:4435   */\n      dup4\n        /* \"#utility.yul\":4422:4439   */\n      add\n        /* \"#utility.yul\":4415:4462   */\n      mstore\n        /* \"#utility.yul\":4479:4610   */\n      tag_250\n        /* \"#utility.yul\":4605:4609   */\n      dup2\n        /* \"#utility.yul\":4479:4610   */\n      tag_182\n      jump\t// in\n    tag_250:\n        /* \"#utility.yul\":4471:4610   */\n      swap1\n      pop\n        /* \"#utility.yul\":4198:4617   */\n      swap2\n      swap1\n      pop\n      jump\t// out\n        /* \"#utility.yul\":4623:4799   */\n    tag_183:\n        /* \"#utility.yul\":4763:4791   */\n      0x416d6f756e742062656c6f77206d696e696d756d207374616b65000000000000\n        /* \"#utility.yul\":4759:4760   */\n      0x00\n        /* \"#utility.yul\":4751:4757   */\n      dup3\n        /* \"#utility.yul\":4747:4761   */\n      add\n        /* \"#utility.yul\":4740:4792   */\n      mstore\n        /* \"#utility.yul\":4623:4799   */\n      pop\n      jump\t// out\n        /* \"#utility.yul\":4805:5171   */\n    tag_184:\n        /* \"#utility.yul\":4947:4950   */\n      0x00\n        /* \"#utility.yul\":4968:5035   */\n      tag_253\n        /* \"#utility.yul\":5032:5034   */\n      0x1a\n        /* \"#utility.yul\":5027:5030   */\n      dup4\n        /* \"#utility.yul\":4968:5035   */\n      tag_180\n      jump\t// in\n    tag_253:\n        /* \"#utility.yul\":4961:5035   */\n      swap2\n      pop\n        /* \"#utility.yul\":5044:5137   */\n      tag_254\n        /* \"#utility.yul\":5133:5136   */\n      dup3\n        /* \"#utility.yul\":5044:5137   */\n      tag_183\n      jump\t// in\n    tag_254:\n        /* \"#utility.yul\":5162:5164   */\n      0x20\n        /* \"#utility.yul\":5157:5160   */\n      dup3\n        /* \"#utility.yul\":5153:5165   */\n      add\n        /* \"#utility.yul\":5146:5165   */\n      swap1\n      pop\n        /* \"#utility.yul\":4805:5171   */\n      swap2\n      swap1\n      pop\n      jump\t// out\n        /* \"#utility.yul\":5177:5596   */\n    tag_89:\n        /* \"#utility.yul\":5343:5347   */\n      0x00\n        /* \"#utility.yul\":5381:5383   */\n      0x20\n        /* \"#utility.yul\":5370:5379   */\n      dup3\n        /* \"#utility.yul\":5366:5384   */\n      add\n        /* \"#utility.yul\":5358:5384   */\n      swap1\n      pop\n        /* \"#utility.yul\":5430:5439   */\n      dup2\n        /* \"#utility.yul\":5424:5428   */\n      dup2\n        /* \"#utility.yul\":5420:5440   */\n      sub\n        /* \"#utility.yul\":5416:5417   */\n      0x00\n        /* \"#utility.yul\":5405:5414   */\n      dup4\n        /* \"#utility.yul\":5401:5418   */\n      add\n        /* \"#utility.yul\":5394:5441   */\n      mstore\n        /* \"#utility.yul\":5458:5589   */\n      tag_256\n        /* \"#utility.yul\":5584:5588   */\n      dup2\n        /* \"#utility.yul\":5458:5589   */\n      tag_184\n      jump\t// in\n    tag_256:\n        /* \"#utility.yul\":5450:5589   */\n      swap1\n      pop\n        /* \"#utility.yul\":5177:5596   */\n      swap2\n      swap1\n      pop\n      jump\t// out\n        /* \"#utility.yul\":5602:5778   */\n    tag_185:\n        /* \"#utility.yul\":5742:5770   */\n      0x416d6f756e742061626f7665206d6178696d756d207374616b65000000000000\n        /* \"#utility.yul\":5738:5739   */\n      0x00\n        /* \"#utility.yul\":5730:5736   */\n      dup3\n        /* \"#utility.yul\":5726:5740   */\n      add\n        /* \"#utility.yul\":5719:5771   */\n      mstore\n        /* \"#utility.yul\":5602:5778   */\n      pop\n      jump\t// out\n        /* \"#utility.yul\":5784:6150   */\n    tag_186:\n        /* \"#utility.yul\":5926:5929   */\n      0x00\n        /* \"#utility.yul\":5947:6014   */\n      tag_259\n        /* \"#utility.yul\":6011:6013   */\n      0x1a\n        /* \"#utility.yul\":6006:6009   */\n      dup4\n        /* \"#utility.yul\":5947:6014   */\n      tag_180\n      jump\t// in\n    tag_259:\n        /* \"#utility.yul\":5940:6014   */\n      swap2\n      pop\n        /* \"#utility.yul\":6023:6116   */\n      tag_260\n        /* \"#utility.yul\":6112:6115   */\n      dup3\n        /* \"#utility.yul\":6023:6116   */\n      tag_185\n      jump\t// in\n    tag_260:\n        /* \"#utility.yul\":6141:6143   */\n      0x20\n        /* \"#utility.yul\":6136:6139   */\n      dup3\n        /* \"#utility.yul\":6132:6144   */\n      add\n        /* \"#utility.yul\":6125:6144   */\n      swap1\n      pop\n        /* \"#utility.yul\":5784:6150   */\n      swap2\n      swap1\n      pop\n      jump\t// out\n        /* \"#utility.yul\":6156:6575   */\n    tag_92:\n        /* \"#utility.yul\":6322:6326   */\n      0x00\n        /* \"#utility.yul\":6360:6362   */\n      0x20\n        /* \"#utility.yul\":6349:6358   */\n      dup3\n        /* \"#utility.yul\":6345:6363   */\n      add\n        /* \"#utility.yul\":6337:6363   */\n      swap1\n      pop\n        /* \"#utility.yul\":6409:6418   */\n      dup2\n        /* \"#utility.yul\":6403:6407   */\n      dup2\n        /* \"#utility.yul\":6399:6419   */\n      sub\n        /* \"#utility.yul\":6395:6396   */\n      0x00\n        /* \"#utility.yul\":6384:6393   */\n      dup4\n        /* \"#utility.yul\":6380:6397   */\n      add\n        /* \"#utility.yul\":6373:6420   */\n      mstore\n        /* \"#utility.yul\":6437:6568   */\n      tag_262\n        /* \"#utility.yul\":6563:6567   */\n      dup2\n        /* \"#utility.yul\":6437:6568   */\n      tag_186\n      jump\t// in\n    tag_262:\n        /* \"#utility.yul\":6429:6568   */\n      swap1\n      pop\n        /* \"#utility.yul\":6156:6575   */\n      swap2\n      swap1\n      pop\n      jump\t// out\n        /* \"#utility.yul\":6581:6761   */\n    tag_187:\n        /* \"#utility.yul\":6629:6706   */\n      0x4e487b7100000000000000000000000000000000000000000000000000000000\n        /* \"#utility.yul\":6626:6627   */\n      0x00\n        /* \"#utility.yul\":6619:6707   */\n      mstore\n        /* \"#utility.yul\":6726:6730   */\n      0x11\n        /* \"#utility.yul\":6723:6724   */\n      0x04\n        /* \"#utility.yul\":6716:6731   */\n      mstore\n        /* \"#utility.yul\":6750:6754   */\n      0x24\n        /* \"#utility.yul\":6747:6748   */\n      0x00\n        /* \"#utility.yul\":6740:6755   */\n      revert\n        /* \"#utility.yul\":6767:6958   */\n    tag_97:\n        /* \"#utility.yul\":6807:6810   */\n      0x00\n        /* \"#utility.yul\":6826:6846   */\n      tag_265\n        /* \"#utility.yul\":6844:6845   */\n      dup3\n        /* \"#utility.yul\":6826:6846   */\n      tag_166\n      jump\t// in\n    tag_265:\n        /* \"#utility.yul\":6821:6846   */\n      swap2\n      pop\n        /* \"#utility.yul\":6860:6880   */\n      tag_266\n        /* \"#utility.yul\":6878:6879   */\n      dup4\n        /* \"#utility.yul\":6860:6880   */\n      tag_166\n      jump\t// in\n    tag_266:\n        /* \"#utility.yul\":6855:6880   */\n      swap3\n      pop\n        /* \"#utility.yul\":6903:6904   */\n      dup3\n        /* \"#utility.yul\":6900:6901   */\n      dup3\n        /* \"#utility.yul\":6896:6905   */\n      add\n        /* \"#utility.yul\":6889:6905   */\n      swap1\n      pop\n        /* \"#utility.yul\":6924:6927   */\n      dup1\n        /* \"#utility.yul\":6921:6922   */\n      dup3\n        /* \"#utility.yul\":6918:6928   */\n      gt\n        /* \"#utility.yul\":6915:6951   */\n      iszero\n      tag_267\n      jumpi\n        /* \"#utility.yul\":6931:6949   */\n      tag_268\n      tag_187\n      jump\t// in\n    tag_268:\n        /* \"#utility.yul\":6915:6951   */\n    tag_267:\n        /* \"#utility.yul\":6767:6958   */\n      swap3\n      swap2\n      pop\n      pop\n      jump\t// out\n        /* \"#utility.yul\":6964:7143   */\n    tag_188:\n        /* \"#utility.yul\":7104:7135   */\n      0x416d6f756e74206d7573742062652067726561746572207468616e2030000000\n        /* \"#utility.yul\":7100:7101   */\n      0x00\n        /* \"#utility.yul\":7092:7098   */\n      dup3\n        /* \"#utility.yul\":7088:7102   */\n      add\n        /* \"#utility.yul\":7081:7136   */\n      mstore\n        /* \"#utility.yul\":6964:7143   */\n      pop\n      jump\t// out\n        /* \"#utility.yul\":7149:7515   */\n    tag_189:\n        /* \"#utility.yul\":7291:7294   */\n      0x00\n        /* \"#utility.yul\":7312:7379   */\n      tag_271\n        /* \"#utility.yul\":7376:7378   */\n      0x1d\n        /* \"#utility.yul\":7371:7374   */\n      dup4\n        /* \"#utility.yul\":7312:7379   */\n      tag_180\n      jump\t// in\n    tag_271:\n        /* \"#utility.yul\":7305:7379   */\n      swap2\n      pop\n        /* \"#utility.yul\":7388:7481   */\n      tag_272\n        /* \"#utility.yul\":7477:7480   */\n      dup3\n        /* \"#utility.yul\":7388:7481   */\n      tag_188\n      jump\t// in\n    tag_272:\n        /* \"#utility.yul\":7506:7508   */\n      0x20\n        /* \"#utility.yul\":7501:7504   */\n      dup3\n        /* \"#utility.yul\":7497:7509   */\n      add\n        /* \"#utility.yul\":7490:7509   */\n      swap1\n      pop\n        /* \"#utility.yul\":7149:7515   */\n      swap2\n      swap1\n      pop\n      jump\t// out\n        /* \"#utility.yul\":7521:7940   */\n    tag_107:\n        /* \"#utility.yul\":7687:7691   */\n      0x00\n        /* \"#utility.yul\":7725:7727   */\n      0x20\n        /* \"#utility.yul\":7714:7723   */\n      dup3\n        /* \"#utility.yul\":7710:7728   */\n      add\n        /* \"#utility.yul\":7702:7728   */\n      swap1\n      pop\n        /* \"#utility.yul\":7774:7783   */\n      dup2\n        /* \"#utility.yul\":7768:7772   */\n      dup2\n        /* \"#utility.yul\":7764:7784   */\n      sub\n        /* \"#utility.yul\":7760:7761   */\n      0x00\n        /* \"#utility.yul\":7749:7758   */\n      dup4\n        /* \"#utility.yul\":7745:7762   */\n      add\n        /* \"#utility.yul\":7738:7785   */\n      mstore\n        /* \"#utility.yul\":7802:7933   */\n      tag_274\n        /* \"#utility.yul\":7928:7932   */\n      dup2\n        /* \"#utility.yul\":7802:7933   */\n      tag_189\n      jump\t// in\n    tag_274:\n        /* \"#utility.yul\":7794:7933   */\n      swap1\n      pop\n        /* \"#utility.yul\":7521:7940   */\n      swap2\n      swap1\n      pop\n      jump\t// out\n        /* \"#utility.yul\":7946:8116   */\n    tag_190:\n        /* \"#utility.yul\":8086:8108   */\n      0x496e73756666696369656e742062616c616e6365000000000000000000000000\n        /* \"#utility.yul\":8082:8083   */\n      0x00\n        /* \"#utility.yul\":8074:8080   */\n      dup3\n        /* \"#utility.yul\":8070:8084   */\n      add\n        /* \"#utility.yul\":8063:8109   */\n      mstore\n        /* \"#utility.yul\":7946:8116   */\n      pop\n      jump\t// out\n        /* \"#utility.yul\":8122:8488   */\n    tag_191:\n        /* \"#utility.yul\":8264:8267   */\n      0x00\n        /* \"#utility.yul\":8285:8352   */\n      tag_277\n        /* \"#utility.yul\":8349:8351   */\n      0x14\n        /* \"#utility.yul\":8344:8347   */\n      dup4\n        /* \"#utility.yul\":8285:8352   */\n      tag_180\n      jump\t// in\n    tag_277:\n        /* \"#utility.yul\":8278:8352   */\n      swap2\n      pop\n        /* \"#utility.yul\":8361:8454   */\n      tag_278\n        /* \"#utility.yul\":8450:8453   */\n      dup3\n        /* \"#utility.yul\":8361:8454   */\n      tag_190\n      jump\t// in\n    tag_278:\n        /* \"#utility.yul\":8479:8481   */\n      0x20\n        /* \"#utility.yul\":8474:8477   */\n      dup3\n        /* \"#utility.yul\":8470:8482   */\n      add\n        /* \"#utility.yul\":8463:8482   */\n      swap1\n      pop\n        /* \"#utility.yul\":8122:8488   */\n      swap2\n      swap1\n      pop\n      jump\t// out\n        /* \"#utility.yul\":8494:8913   */\n    tag_110:\n        /* \"#utility.yul\":8660:8664   */\n      0x00\n        /* \"#utility.yul\":8698:8700   */\n      0x20\n        /* \"#utility.yul\":8687:8696   */\n      dup3\n        /* \"#utility.yul\":8683:8701   */\n      add\n        /* \"#utility.yul\":8675:8701   */\n      swap1\n      pop\n        /* \"#utility.yul\":8747:8756   */\n      dup2\n        /* \"#utility.yul\":8741:8745   */\n      dup2\n        /* \"#utility.yul\":8737:8757   */\n      sub\n        /* \"#utility.yul\":8733:8734   */\n      0x00\n        /* \"#utility.yul\":8722:8731   */\n      dup4\n        /* \"#utility.yul\":8718:8735   */\n      add\n        /* \"#utility.yul\":8711:8758   */\n      mstore\n        /* \"#utility.yul\":8775:8906   */\n      tag_280\n        /* \"#utility.yul\":8901:8905   */\n      dup2\n        /* \"#utility.yul\":8775:8906   */\n      tag_191\n      jump\t// in\n    tag_280:\n        /* \"#utility.yul\":8767:8906   */\n      swap1\n      pop\n        /* \"#utility.yul\":8494:8913   */\n      swap2\n      swap1\n      pop\n      jump\t// out\n        /* \"#utility.yul\":8919:9113   */\n    tag_112:\n        /* \"#utility.yul\":8959:8963   */\n      0x00\n        /* \"#utility.yul\":8979:8999   */\n      tag_282\n        /* \"#utility.yul\":8997:8998   */\n      dup3\n        /* \"#utility.yul\":8979:8999   */\n      tag_166\n      jump\t// in\n    tag_282:\n        /* \"#utility.yul\":8974:8999   */\n      swap2\n      pop\n        /* \"#utility.yul\":9013:9033   */\n      tag_283\n        /* \"#utility.yul\":9031:9032   */\n      dup4\n        /* \"#utility.yul\":9013:9033   */\n      tag_166\n      jump\t// in\n    tag_283:\n        /* \"#utility.yul\":9008:9033   */\n      swap3\n      pop\n        /* \"#utility.yul\":9057:9058   */\n      dup3\n        /* \"#utility.yul\":9054:9055   */\n      dup3\n        /* \"#utility.yul\":9050:9059   */\n      sub\n        /* \"#utility.yul\":9042:9059   */\n      swap1\n      pop\n        /* \"#utility.yul\":9081:9082   */\n      dup2\n        /* \"#utility.yul\":9075:9079   */\n      dup2\n        /* \"#utility.yul\":9072:9083   */\n      gt\n        /* \"#utility.yul\":9069:9106   */\n      iszero\n      tag_284\n      jumpi\n        /* \"#utility.yul\":9086:9104   */\n      tag_285\n      tag_187\n      jump\t// in\n    tag_285:\n        /* \"#utility.yul\":9069:9106   */\n    tag_284:\n        /* \"#utility.yul\":8919:9113   */\n      swap3\n      swap2\n      pop\n      pop\n      jump\t// out\n        /* \"#utility.yul\":9119:9266   */\n    tag_192:\n        /* \"#utility.yul\":9220:9231   */\n      0x00\n        /* \"#utility.yul\":9257:9260   */\n      dup2\n        /* \"#utility.yul\":9242:9260   */\n      swap1\n      pop\n        /* \"#utility.yul\":9119:9266   */\n      swap3\n      swap2\n      pop\n      pop\n      jump\t// out\n        /* \"#utility.yul\":9272:9386   */\n    tag_193:\n      pop\n      jump\t// out\n        /* \"#utility.yul\":9392:9790   */\n    tag_194:\n        /* \"#utility.yul\":9551:9554   */\n      0x00\n        /* \"#utility.yul\":9572:9655   */\n      tag_289\n        /* \"#utility.yul\":9653:9654   */\n      0x00\n        /* \"#utility.yul\":9648:9651   */\n      dup4\n        /* \"#utility.yul\":9572:9655   */\n      tag_192\n      jump\t// in\n    tag_289:\n        /* \"#utility.yul\":9565:9655   */\n      swap2\n      pop\n        /* \"#utility.yul\":9664:9757   */\n      tag_290\n        /* \"#utility.yul\":9753:9756   */\n      dup3\n        /* \"#utility.yul\":9664:9757   */\n      tag_193\n      jump\t// in\n    tag_290:\n        /* \"#utility.yul\":9782:9783   */\n      0x00\n        /* \"#utility.yul\":9777:9780   */\n      dup3\n        /* \"#utility.yul\":9773:9784   */\n      add\n        /* \"#utility.yul\":9766:9784   */\n      swap1\n      pop\n        /* \"#utility.yul\":9392:9790   */\n      swap2\n      swap1\n      pop\n      jump\t// out\n        /* \"#utility.yul\":9796:10175   */\n    tag_119:\n        /* \"#utility.yul\":9980:9983   */\n      0x00\n        /* \"#utility.yul\":10002:10149   */\n      tag_292\n        /* \"#utility.yul\":10145:10148   */\n      dup3\n        /* \"#utility.yul\":10002:10149   */\n      tag_194\n      jump\t// in\n    tag_292:\n        /* \"#utility.yul\":9995:10149   */\n      swap2\n      pop\n        /* \"#utility.yul\":10166:10169   */\n      dup2\n        /* \"#utility.yul\":10159:10169   */\n      swap1\n      pop\n        /* \"#utility.yul\":9796:10175   */\n      swap2\n      swap1\n      pop\n      jump\t// out\n        /* \"#utility.yul\":10181:10350   */\n    tag_195:\n        /* \"#utility.yul\":10321:10342   */\n      0x455448207472616e73666572206661696c656400000000000000000000000000\n        /* \"#utility.yul\":10317:10318   */\n      0x00\n        /* \"#utility.yul\":10309:10315   */\n      dup3\n        /* \"#utility.yul\":10305:10319   */\n      add\n        /* \"#utility.yul\":10298:10343   */\n      mstore\n        /* \"#utility.yul\":10181:10350   */\n      pop\n      jump\t// out\n        /* \"#utility.yul\":10356:10722   */\n    tag_196:\n        /* \"#utility.yul\":10498:10501   */\n      0x00\n        /* \"#utility.yul\":10519:10586   */\n      tag_295\n        /* \"#utility.yul\":10583:10585   */\n      0x13\n        /* \"#utility.yul\":10578:10581   */\n      dup4\n        /* \"#utility.yul\":10519:10586   */\n      tag_180\n      jump\t// in\n    tag_295:\n        /* \"#utility.yul\":10512:10586   */\n      swap2\n      pop\n        /* \"#utility.yul\":10595:10688   */\n      tag_296\n        /* \"#utility.yul\":10684:10687   */\n      dup3\n        /* \"#utility.yul\":10595:10688   */\n      tag_195\n      jump\t// in\n    tag_296:\n        /* \"#utility.yul\":10713:10715   */\n      0x20\n        /* \"#utility.yul\":10708:10711   */\n      dup3\n        /* \"#utility.yul\":10704:10716   */\n      add\n        /* \"#utility.yul\":10697:10716   */\n      swap1\n      pop\n        /* \"#utility.yul\":10356:10722   */\n      swap2\n      swap1\n      pop\n      jump\t// out\n        /* \"#utility.yul\":10728:11147   */\n    tag_128:\n        /* \"#utility.yul\":10894:10898   */\n      0x00\n        /* \"#utility.yul\":10932:10934   */\n      0x20\n        /* \"#utility.yul\":10921:10930   */\n      dup3\n        /* \"#utility.yul\":10917:10935   */\n      add\n        /* \"#utility.yul\":10909:10935   */\n      swap1\n      pop\n        /* \"#utility.yul\":10981:10990   */\n      dup2\n        /* \"#utility.yul\":10975:10979   */\n      dup2\n        /* \"#utility.yul\":10971:10991   */\n      sub\n        /* \"#utility.yul\":10967:10968   */\n      0x00\n        /* \"#utility.yul\":10956:10965   */\n      dup4\n        /* \"#utility.yul\":10952:10969   */\n      add\n        /* \"#utility.yul\":10945:10992   */\n      mstore\n        /* \"#utility.yul\":11009:11140   */\n      tag_298\n        /* \"#utility.yul\":11135:11139   */\n      dup2\n        /* \"#utility.yul\":11009:11140   */\n      tag_196\n      jump\t// in\n    tag_298:\n        /* \"#utility.yul\":11001:11140   */\n      swap1\n      pop\n        /* \"#utility.yul\":10728:11147   */\n      swap2\n      swap1\n      pop\n      jump\t// out\n\n    auxdata: 0xa2646970667358221220a53754e2f483175b024a22ad2f08859298fb70c4069c59a84f41ec6873661aa064736f6c634300081f0033\n}\n",
				"bytecode": {
					"linkReferences": {},
					"object": "60a060405234801561000f575f5ffd5b5060405161135f38038061135f83398181016040528101906100319190610210565b3360015f819055505f73ffffffffffffffffffffffffffffffffffffffff168173ffffffffffffffffffffffffffffffffffffffff16036100a9575f6040517f1e4fbdf70000000000000000000000000000000000000000000000000000000081526004016100a0919061028d565b60405180910390fd5b6100b88161011660201b60201c565b5073420000000000000000000000000000000000000673ffffffffffffffffffffffffffffffffffffffff1660808173ffffffffffffffffffffffffffffffffffffffff1681525050816004819055508060058190555050506102a6565b5f60015f9054906101000a900473ffffffffffffffffffffffffffffffffffffffff1690508160015f6101000a81548173ffffffffffffffffffffffffffffffffffffffff021916908373ffffffffffffffffffffffffffffffffffffffff1602179055508173ffffffffffffffffffffffffffffffffffffffff168173ffffffffffffffffffffffffffffffffffffffff167f8be0079c531659141344cd1fd0a4f28419497f9722a3daafe3b4186f6b6457e060405160405180910390a35050565b5f5ffd5b5f819050919050565b6101ef816101dd565b81146101f9575f5ffd5b50565b5f8151905061020a816101e6565b92915050565b5f5f60408385031215610226576102256101d9565b5b5f610233858286016101fc565b9250506020610244858286016101fc565b9150509250929050565b5f73ffffffffffffffffffffffffffffffffffffffff82169050919050565b5f6102778261024e565b9050919050565b6102878161026d565b82525050565b5f6020820190506102a05f83018461027e565b92915050565b6080516110a16102be5f395f61085c01526110a15ff3fe6080604052600436106100c5575f3560e01c8063817b1cd21161007e578063eb4af04511610058578063eb4af04514610232578063f18876841461025a578063f2fde38b14610284578063f8b2cb4f146102ac576100d4565b8063817b1cd2146101b65780638da5cb5b146101e0578063dcc2a55e1461020a576100d4565b80632e17de78146100de5780633a4b66f1146101065780633fc8cef3146101105780635d80ca321461013a57806370a0823114610164578063715018a6146101a0576100d4565b366100d4576100d26102e8565b005b6100dc6102e8565b005b3480156100e9575f5ffd5b5061010460048036038101906100ff9190610ba3565b6104f0565b005b61010e6102e8565b005b34801561011b575f5ffd5b5061012461085a565b6040516101319190610c48565b60405180910390f35b348015610145575f5ffd5b5061014e61087e565b60405161015b9190610c70565b60405180910390f35b34801561016f575f5ffd5b5061018a60048036038101906101859190610cc4565b610884565b6040516101979190610c70565b60405180910390f35b3480156101ab575f5ffd5b506101b4610899565b005b3480156101c1575f5ffd5b506101ca6108ac565b6040516101d79190610c70565b60405180910390f35b3480156101eb575f5ffd5b506101f46108b2565b6040516102019190610cfe565b60405180910390f35b348015610215575f5ffd5b50610230600480360381019061022b9190610ba3565b6108da565b005b34801561023d575f5ffd5b5061025860048036038101906102539190610ba3565b6108ec565b005b348015610265575f5ffd5b5061026e6108fe565b60405161027b9190610c70565b60405180910390f35b34801561028f575f5ffd5b506102aa60048036038101906102a59190610cc4565b610904565b005b3480156102b7575f5ffd5b506102d260048036038101906102cd9190610cc4565b610988565b6040516102df9190610c70565b60405180910390f35b6102f06109ce565b5f3411610332576040517f08c379a000000000000000000000000000000000000000000000000000000000815260040161032990610d71565b60405180910390fd5b600454341015610377576040517f08c379a000000000000000000000000000000000000000000000000000000000815260040161036e90610dd9565b60405180910390fd5b6005543411156103bc576040517f08c379a00000000000000000000000000000000000000000000000000000000081526004016103b390610e41565b60405180910390fd5b73420000000000000000000000000000000000000673ffffffffffffffffffffffffffffffffffffffff1663d0e30db0346040518263ffffffff1660e01b81526004015f604051808303818588803b158015610416575f5ffd5b505af1158015610428573d5f5f3e3d5ffd5b50505050503460035f3373ffffffffffffffffffffffffffffffffffffffff1673ffffffffffffffffffffffffffffffffffffffff1681526020019081526020015f205f8282546104799190610e8c565b925050819055503460025f8282546104919190610e8c565b925050819055503373ffffffffffffffffffffffffffffffffffffffff167f9e71bc8eea02a63969f509818f2dafb9254532904319f9dbda79b67bd34a5f3d346040516104de9190610c70565b60405180910390a26104ee610a12565b565b6104f86109ce565b5f811161053a576040517f08c379a000000000000000000000000000000000000000000000000000000000815260040161053190610f09565b60405180910390fd5b8060035f3373ffffffffffffffffffffffffffffffffffffffff1673ffffffffffffffffffffffffffffffffffffffff1681526020019081526020015f205410156105ba576040517f08c379a00000000000000000000000000000000000000000000000000000000081526004016105b190610f71565b60405180910390fd5b8060035f3373ffffffffffffffffffffffffffffffffffffffff1673ffffffffffffffffffffffffffffffffffffffff1681526020019081526020015f205f8282546106069190610f8f565b925050819055508060025f82825461061e9190610f8f565b9250508190555073420000000000000000000000000000000000000673ffffffffffffffffffffffffffffffffffffffff16632e1a7d4d826040518263ffffffff1660e01b81526004016106729190610c70565b5f604051808303815f87803b158015610689575f5ffd5b505af115801561069b573d5f5f3e3d5ffd5b505050505f3373ffffffffffffffffffffffffffffffffffffffff16826040516106c490610fef565b5f6040518083038185875af1925050503d805f81146106fe576040519150601f19603f3d011682016040523d82523d5f602084013e610703565b606091505b5050905080610800578160035f3373ffffffffffffffffffffffffffffffffffffffff1673ffffffffffffffffffffffffffffffffffffffff1681526020019081526020015f205f8282546107589190610e8c565b925050819055508160025f8282546107709190610e8c565b925050819055503373ffffffffffffffffffffffffffffffffffffffff167f38b6949f4109cd99eb66c39bc86e5e89f54789f4bd1d100f2c7a9284d3444fa5836040516107bd9190610c70565b60405180910390a26040517f08c379a00000000000000000000000000000000000000000000000000000000081526004016107f79061104d565b60405180910390fd5b3373ffffffffffffffffffffffffffffffffffffffff167f0f5bb82176feb1b5e747e28471aa92156a04d9f3ab9f45f28e2d704232b93f75836040516108469190610c70565b60405180910390a250610857610a12565b50565b7f000000000000000000000000000000000000000000000000000000000000000081565b60055481565b6003602052805f5260405f205f915090505481565b6108a1610a1b565b6108aa5f610aa2565b565b60025481565b5f60015f9054906101000a900473ffffffffffffffffffffffffffffffffffffffff16905090565b6108e2610a1b565b8060058190555050565b6108f4610a1b565b8060048190555050565b60045481565b61090c610a1b565b5f73ffffffffffffffffffffffffffffffffffffffff168173ffffffffffffffffffffffffffffffffffffffff160361097c575f6040517f1e4fbdf70000000000000000000000000000000000000000000000000000000081526004016109739190610cfe565b60405180910390fd5b61098581610aa2565b50565b5f60035f8373ffffffffffffffffffffffffffffffffffffffff1673ffffffffffffffffffffffffffffffffffffffff1681526020019081526020015f20549050919050565b60025f5403610a09576040517f3ee5aeb500000000000000000000000000000000000000000000000000000000815260040160405180910390fd5b60025f81905550565b60015f81905550565b610a23610b65565b73ffffffffffffffffffffffffffffffffffffffff16610a416108b2565b73ffffffffffffffffffffffffffffffffffffffff1614610aa057610a64610b65565b6040517f118cdaa7000000000000000000000000000000000000000000000000000000008152600401610a979190610cfe565b60405180910390fd5b565b5f60015f9054906101000a900473ffffffffffffffffffffffffffffffffffffffff1690508160015f6101000a81548173ffffffffffffffffffffffffffffffffffffffff021916908373ffffffffffffffffffffffffffffffffffffffff1602179055508173ffffffffffffffffffffffffffffffffffffffff168173ffffffffffffffffffffffffffffffffffffffff167f8be0079c531659141344cd1fd0a4f28419497f9722a3daafe3b4186f6b6457e060405160405180910390a35050565b5f33905090565b5f5ffd5b5f819050919050565b610b8281610b70565b8114610b8c575f5ffd5b50565b5f81359050610b9d81610b79565b92915050565b5f60208284031215610bb857610bb7610b6c565b5b5f610bc584828501610b8f565b91505092915050565b5f73ffffffffffffffffffffffffffffffffffffffff82169050919050565b5f819050919050565b5f610c10610c0b610c0684610bce565b610bed565b610bce565b9050919050565b5f610c2182610bf6565b9050919050565b5f610c3282610c17565b9050919050565b610c4281610c28565b82525050565b5f602082019050610c5b5f830184610c39565b92915050565b610c6a81610b70565b82525050565b5f602082019050610c835f830184610c61565b92915050565b5f610c9382610bce565b9050919050565b610ca381610c89565b8114610cad575f5ffd5b50565b5f81359050610cbe81610c9a565b92915050565b5f60208284031215610cd957610cd8610b6c565b5b5f610ce684828501610cb0565b91505092915050565b610cf881610c89565b82525050565b5f602082019050610d115f830184610cef565b92915050565b5f82825260208201905092915050565b7f4e6f204554482073656e740000000000000000000000000000000000000000005f82015250565b5f610d5b600b83610d17565b9150610d6682610d27565b602082019050919050565b5f6020820190508181035f830152610d8881610d4f565b9050919050565b7f416d6f756e742062656c6f77206d696e696d756d207374616b650000000000005f82015250565b5f610dc3601a83610d17565b9150610dce82610d8f565b602082019050919050565b5f6020820190508181035f830152610df081610db7565b9050919050565b7f416d6f756e742061626f7665206d6178696d756d207374616b650000000000005f82015250565b5f610e2b601a83610d17565b9150610e3682610df7565b602082019050919050565b5f6020820190508181035f830152610e5881610e1f565b9050919050565b7f4e487b71000000000000000000000000000000000000000000000000000000005f52601160045260245ffd5b5f610e9682610b70565b9150610ea183610b70565b9250828201905080821115610eb957610eb8610e5f565b5b92915050565b7f416d6f756e74206d7573742062652067726561746572207468616e20300000005f82015250565b5f610ef3601d83610d17565b9150610efe82610ebf565b602082019050919050565b5f6020820190508181035f830152610f2081610ee7565b9050919050565b7f496e73756666696369656e742062616c616e63650000000000000000000000005f82015250565b5f610f5b601483610d17565b9150610f6682610f27565b602082019050919050565b5f6020820190508181035f830152610f8881610f4f565b9050919050565b5f610f9982610b70565b9150610fa483610b70565b9250828203905081811115610fbc57610fbb610e5f565b5b92915050565b5f81905092915050565b50565b5f610fda5f83610fc2565b9150610fe582610fcc565b5f82019050919050565b5f610ff982610fcf565b9150819050919050565b7f455448207472616e73666572206661696c6564000000000000000000000000005f82015250565b5f611037601383610d17565b915061104282611003565b602082019050919050565b5f6020820190508181035f8301526110648161102b565b905091905056fea2646970667358221220a53754e2f483175b024a22ad2f08859298fb70c4069c59a84f41ec6873661aa064736f6c634300081f0033",
					"opcodes": "PUSH1 0xA0 PUSH1 0x40 MSTORE CALLVALUE DUP1 ISZERO PUSH2 0xF JUMPI PUSH0 PUSH0 REVERT JUMPDEST POP PUSH1 0x40 MLOAD PUSH2 0x135F CODESIZE SUB DUP1 PUSH2 0x135F DUP4 CODECOPY DUP2 DUP2 ADD PUSH1 0x40 MSTORE DUP2 ADD SWAP1 PUSH2 0x31 SWAP2 SWAP1 PUSH2 0x210 JUMP JUMPDEST CALLER PUSH1 0x1 PUSH0 DUP2 SWAP1 SSTORE POP PUSH0 PUSH20 0xFFFFFFFFFFFFFFFFFFFFFFFFFFFFFFFFFFFFFFFF AND DUP2 PUSH20 0xFFFFFFFFFFFFFFFFFFFFFFFFFFFFFFFFFFFFFFFF AND SUB PUSH2 0xA9 JUMPI PUSH0 PUSH1 0x40 MLOAD PUSH32 0x1E4FBDF700000000000000000000000000000000000000000000000000000000 DUP2 MSTORE PUSH1 0x4 ADD PUSH2 0xA0 SWAP2 SWAP1 PUSH2 0x28D JUMP JUMPDEST PUSH1 0x40 MLOAD DUP1 SWAP2 SUB SWAP1 REVERT JUMPDEST PUSH2 0xB8 DUP2 PUSH2 0x116 PUSH1 0x20 SHL PUSH1 0x20 SHR JUMP JUMPDEST POP PUSH20 0x4200000000000000000000000000000000000006 PUSH20 0xFFFFFFFFFFFFFFFFFFFFFFFFFFFFFFFFFFFFFFFF AND PUSH1 0x80 DUP2 PUSH20 0xFFFFFFFFFFFFFFFFFFFFFFFFFFFFFFFFFFFFFFFF AND DUP2 MSTORE POP POP DUP2 PUSH1 0x4 DUP2 SWAP1 SSTORE POP DUP1 PUSH1 0x5 DUP2 SWAP1 SSTORE POP POP POP PUSH2 0x2A6 JUMP JUMPDEST PUSH0 PUSH1 0x1 PUSH0 SWAP1 SLOAD SWAP1 PUSH2 0x100 EXP SWAP1 DIV PUSH20 0xFFFFFFFFFFFFFFFFFFFFFFFFFFFFFFFFFFFFFFFF AND SWAP1 POP DUP2 PUSH1 0x1 PUSH0 PUSH2 0x100 EXP DUP2 SLOAD DUP2 PUSH20 0xFFFFFFFFFFFFFFFFFFFFFFFFFFFFFFFFFFFFFFFF MUL NOT AND SWAP1 DUP4 PUSH20 0xFFFFFFFFFFFFFFFFFFFFFFFFFFFFFFFFFFFFFFFF AND MUL OR SWAP1 SSTORE POP DUP2 PUSH20 0xFFFFFFFFFFFFFFFFFFFFFFFFFFFFFFFFFFFFFFFF AND DUP2 PUSH20 0xFFFFFFFFFFFFFFFFFFFFFFFFFFFFFFFFFFFFFFFF AND PUSH32 0x8BE0079C531659141344CD1FD0A4F28419497F9722A3DAAFE3B4186F6B6457E0 PUSH1 0x40 MLOAD PUSH1 0x40 MLOAD DUP1 SWAP2 SUB SWAP1 LOG3 POP POP JUMP JUMPDEST PUSH0 PUSH0 REVERT JUMPDEST PUSH0 DUP2 SWAP1 POP SWAP2 SWAP1 POP JUMP JUMPDEST PUSH2 0x1EF DUP2 PUSH2 0x1DD JUMP JUMPDEST DUP2 EQ PUSH2 0x1F9 JUMPI PUSH0 PUSH0 REVERT JUMPDEST POP JUMP JUMPDEST PUSH0 DUP2 MLOAD SWAP1 POP PUSH2 0x20A DUP2 PUSH2 0x1E6 JUMP JUMPDEST SWAP3 SWAP2 POP POP JUMP JUMPDEST PUSH0 PUSH0 PUSH1 0x40 DUP4 DUP6 SUB SLT ISZERO PUSH2 0x226 JUMPI PUSH2 0x225 PUSH2 0x1D9 JUMP JUMPDEST JUMPDEST PUSH0 PUSH2 0x233 DUP6 DUP3 DUP7 ADD PUSH2 0x1FC JUMP JUMPDEST SWAP3 POP POP PUSH1 0x20 PUSH2 0x244 DUP6 DUP3 DUP7 ADD PUSH2 0x1FC JUMP JUMPDEST SWAP2 POP POP SWAP3 POP SWAP3 SWAP1 POP JUMP JUMPDEST PUSH0 PUSH20 0xFFFFFFFFFFFFFFFFFFFFFFFFFFFFFFFFFFFFFFFF DUP3 AND SWAP1 POP SWAP2 SWAP1 POP JUMP JUMPDEST PUSH0 PUSH2 0x277 DUP3 PUSH2 0x24E JUMP JUMPDEST SWAP1 POP SWAP2 SWAP1 POP JUMP JUMPDEST PUSH2 0x287 DUP2 PUSH2 0x26D JUMP JUMPDEST DUP3 MSTORE POP POP JUMP JUMPDEST PUSH0 PUSH1 0x20 DUP3 ADD SWAP1 POP PUSH2 0x2A0 PUSH0 DUP4 ADD DUP5 PUSH2 0x27E JUMP JUMPDEST SWAP3 SWAP2 POP POP JUMP JUMPDEST PUSH1 0x80 MLOAD PUSH2 0x10A1 PUSH2 0x2BE PUSH0 CODECOPY PUSH0 PUSH2 0x85C ADD MSTORE PUSH2 0x10A1 PUSH0 RETURN INVALID PUSH1 0x80 PUSH1 0x40 MSTORE PUSH1 0x4 CALLDATASIZE LT PUSH2 0xC5 JUMPI PUSH0 CALLDATALOAD PUSH1 0xE0 SHR DUP1 PUSH4 0x817B1CD2 GT PUSH2 0x7E JUMPI DUP1 PUSH4 0xEB4AF045 GT PUSH2 0x58 JUMPI DUP1 PUSH4 0xEB4AF045 EQ PUSH2 0x232 JUMPI DUP1 PUSH4 0xF1887684 EQ PUSH2 0x25A JUMPI DUP1 PUSH4 0xF2FDE38B EQ PUSH2 0x284 JUMPI DUP1 PUSH4 0xF8B2CB4F EQ PUSH2 0x2AC JUMPI PUSH2 0xD4 JUMP JUMPDEST DUP1 PUSH4 0x817B1CD2 EQ PUSH2 0x1B6 JUMPI DUP1 PUSH4 0x8DA5CB5B EQ PUSH2 0x1E0 JUMPI DUP1 PUSH4 0xDCC2A55E EQ PUSH2 0x20A JUMPI PUSH2 0xD4 JUMP JUMPDEST DUP1 PUSH4 0x2E17DE78 EQ PUSH2 0xDE JUMPI DUP1 PUSH4 0x3A4B66F1 EQ PUSH2 0x106 JUMPI DUP1 PUSH4 0x3FC8CEF3 EQ PUSH2 0x110 JUMPI DUP1 PUSH4 0x5D80CA32 EQ PUSH2 0x13A JUMPI DUP1 PUSH4 0x70A08231 EQ PUSH2 0x164 JUMPI DUP1 PUSH4 0x715018A6 EQ PUSH2 0x1A0 JUMPI PUSH2 0xD4 JUMP JUMPDEST CALLDATASIZE PUSH2 0xD4 JUMPI PUSH2 0xD2 PUSH2 0x2E8 JUMP JUMPDEST STOP JUMPDEST PUSH2 0xDC PUSH2 0x2E8 JUMP JUMPDEST STOP JUMPDEST CALLVALUE DUP1 ISZERO PUSH2 0xE9 JUMPI PUSH0 PUSH0 REVERT JUMPDEST POP PUSH2 0x104 PUSH1 0x4 DUP1 CALLDATASIZE SUB DUP2 ADD SWAP1 PUSH2 0xFF SWAP2 SWAP1 PUSH2 0xBA3 JUMP JUMPDEST PUSH2 0x4F0 JUMP JUMPDEST STOP JUMPDEST PUSH2 0x10E PUSH2 0x2E8 JUMP JUMPDEST STOP JUMPDEST CALLVALUE DUP1 ISZERO PUSH2 0x11B JUMPI PUSH0 PUSH0 REVERT JUMPDEST POP PUSH2 0x124 PUSH2 0x85A JUMP JUMPDEST PUSH1 0x40 MLOAD PUSH2 0x131 SWAP2 SWAP1 PUSH2 0xC48 JUMP JUMPDEST PUSH1 0x40 MLOAD DUP1 SWAP2 SUB SWAP1 RETURN JUMPDEST CALLVALUE DUP1 ISZERO PUSH2 0x145 JUMPI PUSH0 PUSH0 REVERT JUMPDEST POP PUSH2 0x14E PUSH2 0x87E JUMP JUMPDEST PUSH1 0x40 MLOAD PUSH2 0x15B SWAP2 SWAP1 PUSH2 0xC70 JUMP JUMPDEST PUSH1 0x40 MLOAD DUP1 SWAP2 SUB SWAP1 RETURN JUMPDEST CALLVALUE DUP1 ISZERO PUSH2 0x16F JUMPI PUSH0 PUSH0 REVERT JUMPDEST POP PUSH2 0x18A PUSH1 0x4 DUP1 CALLDATASIZE SUB DUP2 ADD SWAP1 PUSH2 0x185 SWAP2 SWAP1 PUSH2 0xCC4 JUMP JUMPDEST PUSH2 0x884 JUMP JUMPDEST PUSH1 0x40 MLOAD PUSH2 0x197 SWAP2 SWAP1 PUSH2 0xC70 JUMP JUMPDEST PUSH1 0x40 MLOAD DUP1 SWAP2 SUB SWAP1 RETURN JUMPDEST CALLVALUE DUP1 ISZERO PUSH2 0x1AB JUMPI PUSH0 PUSH0 REVERT JUMPDEST POP PUSH2 0x1B4 PUSH2 0x899 JUMP JUMPDEST STOP JUMPDEST CALLVALUE DUP1 ISZERO PUSH2 0x1C1 JUMPI PUSH0 PUSH0 REVERT JUMPDEST POP PUSH2 0x1CA PUSH2 0x8AC JUMP JUMPDEST PUSH1 0x40 MLOAD PUSH2 0x1D7 SWAP2 SWAP1 PUSH2 0xC70 JUMP JUMPDEST PUSH1 0x40 MLOAD DUP1 SWAP2 SUB SWAP1 RETURN JUMPDEST CALLVALUE DUP1 ISZERO PUSH2 0x1EB JUMPI PUSH0 PUSH0 REVERT JUMPDEST POP PUSH2 0x1F4 PUSH2 0x8B2 JUMP JUMPDEST PUSH1 0x40 MLOAD PUSH2 0x201 SWAP2 SWAP1 PUSH2 0xCFE JUMP JUMPDEST PUSH1 0x40 MLOAD DUP1 SWAP2 SUB SWAP1 RETURN JUMPDEST CALLVALUE DUP1 ISZERO PUSH2 0x215 JUMPI PUSH0 PUSH0 REVERT JUMPDEST POP PUSH2 0x230 PUSH1 0x4 DUP1 CALLDATASIZE SUB DUP2 ADD SWAP1 PUSH2 0x22B SWAP2 SWAP1 PUSH2 0xBA3 JUMP JUMPDEST PUSH2 0x8DA JUMP JUMPDEST STOP JUMPDEST CALLVALUE DUP1 ISZERO PUSH2 0x23D JUMPI PUSH0 PUSH0 REVERT JUMPDEST POP PUSH2 0x258 PUSH1 0x4 DUP1 CALLDATASIZE SUB DUP2 ADD SWAP1 PUSH2 0x253 SWAP2 SWAP1 PUSH2 0xBA3 JUMP JUMPDEST PUSH2 0x8EC JUMP JUMPDEST STOP JUMPDEST CALLVALUE DUP1 ISZERO PUSH2 0x265 JUMPI PUSH0 PUSH0 REVERT JUMPDEST POP PUSH2 0x26E PUSH2 0x8FE JUMP JUMPDEST PUSH1 0x40 MLOAD PUSH2 0x27B SWAP2 SWAP1 PUSH2 0xC70 JUMP JUMPDEST PUSH1 0x40 MLOAD DUP1 SWAP2 SUB SWAP1 RETURN JUMPDEST CALLVALUE DUP1 ISZERO PUSH2 0x28F JUMPI PUSH0 PUSH0 REVERT JUMPDEST POP PUSH2 0x2AA PUSH1 0x4 DUP1 CALLDATASIZE SUB DUP2 ADD SWAP1 PUSH2 0x2A5 SWAP2 SWAP1 PUSH2 0xCC4 JUMP JUMPDEST PUSH2 0x904 JUMP JUMPDEST STOP JUMPDEST CALLVALUE DUP1 ISZERO PUSH2 0x2B7 JUMPI PUSH0 PUSH0 REVERT JUMPDEST POP PUSH2 0x2D2 PUSH1 0x4 DUP1 CALLDATASIZE SUB DUP2 ADD SWAP1 PUSH2 0x2CD SWAP2 SWAP1 PUSH2 0xCC4 JUMP JUMPDEST PUSH2 0x988 JUMP JUMPDEST PUSH1 0x40 MLOAD PUSH2 0x2DF SWAP2 SWAP1 PUSH2 0xC70 JUMP JUMPDEST PUSH1 0x40 MLOAD DUP1 SWAP2 SUB SWAP1 RETURN JUMPDEST PUSH2 0x2F0 PUSH2 0x9CE JUMP JUMPDEST PUSH0 CALLVALUE GT PUSH2 0x332 JUMPI PUSH1 0x40 MLOAD PUSH32 0x8C379A000000000000000000000000000000000000000000000000000000000 DUP2 MSTORE PUSH1 0x4 ADD PUSH2 0x329 SWAP1 PUSH2 0xD71 JUMP JUMPDEST PUSH1 0x40 MLOAD DUP1 SWAP2 SUB SWAP1 REVERT JUMPDEST PUSH1 0x4 SLOAD CALLVALUE LT ISZERO PUSH2 0x377 JUMPI PUSH1 0x40 MLOAD PUSH32 0x8C379A000000000000000000000000000000000000000000000000000000000 DUP2 MSTORE PUSH1 0x4 ADD PUSH2 0x36E SWAP1 PUSH2 0xDD9 JUMP JUMPDEST PUSH1 0x40 MLOAD DUP1 SWAP2 SUB SWAP1 REVERT JUMPDEST PUSH1 0x5 SLOAD CALLVALUE GT ISZERO PUSH2 0x3BC JUMPI PUSH1 0x40 MLOAD PUSH32 0x8C379A000000000000000000000000000000000000000000000000000000000 DUP2 MSTORE PUSH1 0x4 ADD PUSH2 0x3B3 SWAP1 PUSH2 0xE41 JUMP JUMPDEST PUSH1 0x40 MLOAD DUP1 SWAP2 SUB SWAP1 REVERT JUMPDEST PUSH20 0x4200000000000000000000000000000000000006 PUSH20 0xFFFFFFFFFFFFFFFFFFFFFFFFFFFFFFFFFFFFFFFF AND PUSH4 0xD0E30DB0 CALLVALUE PUSH1 0x40 MLOAD DUP3 PUSH4 0xFFFFFFFF AND PUSH1 0xE0 SHL DUP2 MSTORE PUSH1 0x4 ADD PUSH0 PUSH1 0x40 MLOAD DUP1 DUP4 SUB DUP2 DUP6 DUP9 DUP1 EXTCODESIZE ISZERO DUP1 ISZERO PUSH2 0x416 JUMPI PUSH0 PUSH0 REVERT JUMPDEST POP GAS CALL ISZERO DUP1 ISZERO PUSH2 0x428 JUMPI RETURNDATASIZE PUSH0 PUSH0 RETURNDATACOPY RETURNDATASIZE PUSH0 REVERT JUMPDEST POP POP POP POP POP CALLVALUE PUSH1 0x3 PUSH0 CALLER PUSH20 0xFFFFFFFFFFFFFFFFFFFFFFFFFFFFFFFFFFFFFFFF AND PUSH20 0xFFFFFFFFFFFFFFFFFFFFFFFFFFFFFFFFFFFFFFFF AND DUP2 MSTORE PUSH1 0x20 ADD SWAP1 DUP2 MSTORE PUSH1 0x20 ADD PUSH0 KECCAK256 PUSH0 DUP3 DUP3 SLOAD PUSH2 0x479 SWAP2 SWAP1 PUSH2 0xE8C JUMP JUMPDEST SWAP3 POP POP DUP2 SWAP1 SSTORE POP CALLVALUE PUSH1 0x2 PUSH0 DUP3 DUP3 SLOAD PUSH2 0x491 SWAP2 SWAP1 PUSH2 0xE8C JUMP JUMPDEST SWAP3 POP POP DUP2 SWAP1 SSTORE POP CALLER PUSH20 0xFFFFFFFFFFFFFFFFFFFFFFFFFFFFFFFFFFFFFFFF AND PUSH32 0x9E71BC8EEA02A63969F509818F2DAFB9254532904319F9DBDA79B67BD34A5F3D CALLVALUE PUSH1 0x40 MLOAD PUSH2 0x4DE SWAP2 SWAP1 PUSH2 0xC70 JUMP JUMPDEST PUSH1 0x40 MLOAD DUP1 SWAP2 SUB SWAP1 LOG2 PUSH2 0x4EE PUSH2 0xA12 JUMP JUMPDEST JUMP JUMPDEST PUSH2 0x4F8 PUSH2 0x9CE JUMP JUMPDEST PUSH0 DUP2 GT PUSH2 0x53A JUMPI PUSH1 0x40 MLOAD PUSH32 0x8C379A000000000000000000000000000000000000000000000000000000000 DUP2 MSTORE PUSH1 0x4 ADD PUSH2 0x531 SWAP1 PUSH2 0xF09 JUMP JUMPDEST PUSH1 0x40 MLOAD DUP1 SWAP2 SUB SWAP1 REVERT JUMPDEST DUP1 PUSH1 0x3 PUSH0 CALLER PUSH20 0xFFFFFFFFFFFFFFFFFFFFFFFFFFFFFFFFFFFFFFFF AND PUSH20 0xFFFFFFFFFFFFFFFFFFFFFFFFFFFFFFFFFFFFFFFF AND DUP2 MSTORE PUSH1 0x20 ADD SWAP1 DUP2 MSTORE PUSH1 0x20 ADD PUSH0 KECCAK256 SLOAD LT ISZERO PUSH2 0x5BA JUMPI PUSH1 0x40 MLOAD PUSH32 0x8C379A000000000000000000000000000000000000000000000000000000000 DUP2 MSTORE PUSH1 0x4 ADD PUSH2 0x5B1 SWAP1 PUSH2 0xF71 JUMP JUMPDEST PUSH1 0x40 MLOAD DUP1 SWAP2 SUB SWAP1 REVERT JUMPDEST DUP1 PUSH1 0x3 PUSH0 CALLER PUSH20 0xFFFFFFFFFFFFFFFFFFFFFFFFFFFFFFFFFFFFFFFF AND PUSH20 0xFFFFFFFFFFFFFFFFFFFFFFFFFFFFFFFFFFFFFFFF AND DUP2 MSTORE PUSH1 0x20 ADD SWAP1 DUP2 MSTORE PUSH1 0x20 ADD PUSH0 KECCAK256 PUSH0 DUP3 DUP3 SLOAD PUSH2 0x606 SWAP2 SWAP1 PUSH2 0xF8F JUMP JUMPDEST SWAP3 POP POP DUP2 SWAP1 SSTORE POP DUP1 PUSH1 0x2 PUSH0 DUP3 DUP3 SLOAD PUSH2 0x61E SWAP2 SWAP1 PUSH2 0xF8F JUMP JUMPDEST SWAP3 POP POP DUP2 SWAP1 SSTORE POP PUSH20 0x4200000000000000000000000000000000000006 PUSH20 0xFFFFFFFFFFFFFFFFFFFFFFFFFFFFFFFFFFFFFFFF AND PUSH4 0x2E1A7D4D DUP3 PUSH1 0x40 MLOAD DUP3 PUSH4 0xFFFFFFFF AND PUSH1 0xE0 SHL DUP2 MSTORE PUSH1 0x4 ADD PUSH2 0x672 SWAP2 SWAP1 PUSH2 0xC70 JUMP JUMPDEST PUSH0 PUSH1 0x40 MLOAD DUP1 DUP4 SUB DUP2 PUSH0 DUP8 DUP1 EXTCODESIZE ISZERO DUP1 ISZERO PUSH2 0x689 JUMPI PUSH0 PUSH0 REVERT JUMPDEST POP GAS CALL ISZERO DUP1 ISZERO PUSH2 0x69B JUMPI RETURNDATASIZE PUSH0 PUSH0 RETURNDATACOPY RETURNDATASIZE PUSH0 REVERT JUMPDEST POP POP POP POP PUSH0 CALLER PUSH20 0xFFFFFFFFFFFFFFFFFFFFFFFFFFFFFFFFFFFFFFFF AND DUP3 PUSH1 0x40 MLOAD PUSH2 0x6C4 SWAP1 PUSH2 0xFEF JUMP JUMPDEST PUSH0 PUSH1 0x40 MLOAD DUP1 DUP4 SUB DUP2 DUP6 DUP8 GAS CALL SWAP3 POP POP POP RETURNDATASIZE DUP1 PUSH0 DUP2 EQ PUSH2 0x6FE JUMPI PUSH1 0x40 MLOAD SWAP2 POP PUSH1 0x1F NOT PUSH1 0x3F RETURNDATASIZE ADD AND DUP3 ADD PUSH1 0x40 MSTORE RETURNDATASIZE DUP3 MSTORE RETURNDATASIZE PUSH0 PUSH1 0x20 DUP5 ADD RETURNDATACOPY PUSH2 0x703 JUMP JUMPDEST PUSH1 0x60 SWAP2 POP JUMPDEST POP POP SWAP1 POP DUP1 PUSH2 0x800 JUMPI DUP2 PUSH1 0x3 PUSH0 CALLER PUSH20 0xFFFFFFFFFFFFFFFFFFFFFFFFFFFFFFFFFFFFFFFF AND PUSH20 0xFFFFFFFFFFFFFFFFFFFFFFFFFFFFFFFFFFFFFFFF AND DUP2 MSTORE PUSH1 0x20 ADD SWAP1 DUP2 MSTORE PUSH1 0x20 ADD PUSH0 KECCAK256 PUSH0 DUP3 DUP3 SLOAD PUSH2 0x758 SWAP2 SWAP1 PUSH2 0xE8C JUMP JUMPDEST SWAP3 POP POP DUP2 SWAP1 SSTORE POP DUP2 PUSH1 0x2 PUSH0 DUP3 DUP3 SLOAD PUSH2 0x770 SWAP2 SWAP1 PUSH2 0xE8C JUMP JUMPDEST SWAP3 POP POP DUP2 SWAP1 SSTORE POP CALLER PUSH20 0xFFFFFFFFFFFFFFFFFFFFFFFFFFFFFFFFFFFFFFFF AND PUSH32 0x38B6949F4109CD99EB66C39BC86E5E89F54789F4BD1D100F2C7A9284D3444FA5 DUP4 PUSH1 0x40 MLOAD PUSH2 0x7BD SWAP2 SWAP1 PUSH2 0xC70 JUMP JUMPDEST PUSH1 0x40 MLOAD DUP1 SWAP2 SUB SWAP1 LOG2 PUSH1 0x40 MLOAD PUSH32 0x8C379A000000000000000000000000000000000000000000000000000000000 DUP2 MSTORE PUSH1 0x4 ADD PUSH2 0x7F7 SWAP1 PUSH2 0x104D JUMP JUMPDEST PUSH1 0x40 MLOAD DUP1 SWAP2 SUB SWAP1 REVERT JUMPDEST CALLER PUSH20 0xFFFFFFFFFFFFFFFFFFFFFFFFFFFFFFFFFFFFFFFF AND PUSH32 0xF5BB82176FEB1B5E747E28471AA92156A04D9F3AB9F45F28E2D704232B93F75 DUP4 PUSH1 0x40 MLOAD PUSH2 0x846 SWAP2 SWAP1 PUSH2 0xC70 JUMP JUMPDEST PUSH1 0x40 MLOAD DUP1 SWAP2 SUB SWAP1 LOG2 POP PUSH2 0x857 PUSH2 0xA12 JUMP JUMPDEST POP JUMP JUMPDEST PUSH32 0x0 DUP2 JUMP JUMPDEST PUSH1 0x5 SLOAD DUP2 JUMP JUMPDEST PUSH1 0x3 PUSH1 0x20 MSTORE DUP1 PUSH0 MSTORE PUSH1 0x40 PUSH0 KECCAK256 PUSH0 SWAP2 POP SWAP1 POP SLOAD DUP2 JUMP JUMPDEST PUSH2 0x8A1 PUSH2 0xA1B JUMP JUMPDEST PUSH2 0x8AA PUSH0 PUSH2 0xAA2 JUMP JUMPDEST JUMP JUMPDEST PUSH1 0x2 SLOAD DUP2 JUMP JUMPDEST PUSH0 PUSH1 0x1 PUSH0 SWAP1 SLOAD SWAP1 PUSH2 0x100 EXP SWAP1 DIV PUSH20 0xFFFFFFFFFFFFFFFFFFFFFFFFFFFFFFFFFFFFFFFF AND SWAP1 POP SWAP1 JUMP JUMPDEST PUSH2 0x8E2 PUSH2 0xA1B JUMP JUMPDEST DUP1 PUSH1 0x5 DUP2 SWAP1 SSTORE POP POP JUMP JUMPDEST PUSH2 0x8F4 PUSH2 0xA1B JUMP JUMPDEST DUP1 PUSH1 0x4 DUP2 SWAP1 SSTORE POP POP JUMP JUMPDEST PUSH1 0x4 SLOAD DUP2 JUMP JUMPDEST PUSH2 0x90C PUSH2 0xA1B JUMP JUMPDEST PUSH0 PUSH20 0xFFFFFFFFFFFFFFFFFFFFFFFFFFFFFFFFFFFFFFFF AND DUP2 PUSH20 0xFFFFFFFFFFFFFFFFFFFFFFFFFFFFFFFFFFFFFFFF AND SUB PUSH2 0x97C JUMPI PUSH0 PUSH1 0x40 MLOAD PUSH32 0x1E4FBDF700000000000000000000000000000000000000000000000000000000 DUP2 MSTORE PUSH1 0x4 ADD PUSH2 0x973 SWAP2 SWAP1 PUSH2 0xCFE JUMP JUMPDEST PUSH1 0x40 MLOAD DUP1 SWAP2 SUB SWAP1 REVERT JUMPDEST PUSH2 0x985 DUP2 PUSH2 0xAA2 JUMP JUMPDEST POP JUMP JUMPDEST PUSH0 PUSH1 0x3 PUSH0 DUP4 PUSH20 0xFFFFFFFFFFFFFFFFFFFFFFFFFFFFFFFFFFFFFFFF AND PUSH20 0xFFFFFFFFFFFFFFFFFFFFFFFFFFFFFFFFFFFFFFFF AND DUP2 MSTORE PUSH1 0x20 ADD SWAP1 DUP2 MSTORE PUSH1 0x20 ADD PUSH0 KECCAK256 SLOAD SWAP1 POP SWAP2 SWAP1 POP JUMP JUMPDEST PUSH1 0x2 PUSH0 SLOAD SUB PUSH2 0xA09 JUMPI PUSH1 0x40 MLOAD PUSH32 0x3EE5AEB500000000000000000000000000000000000000000000000000000000 DUP2 MSTORE PUSH1 0x4 ADD PUSH1 0x40 MLOAD DUP1 SWAP2 SUB SWAP1 REVERT JUMPDEST PUSH1 0x2 PUSH0 DUP2 SWAP1 SSTORE POP JUMP JUMPDEST PUSH1 0x1 PUSH0 DUP2 SWAP1 SSTORE POP JUMP JUMPDEST PUSH2 0xA23 PUSH2 0xB65 JUMP JUMPDEST PUSH20 0xFFFFFFFFFFFFFFFFFFFFFFFFFFFFFFFFFFFFFFFF AND PUSH2 0xA41 PUSH2 0x8B2 JUMP JUMPDEST PUSH20 0xFFFFFFFFFFFFFFFFFFFFFFFFFFFFFFFFFFFFFFFF AND EQ PUSH2 0xAA0 JUMPI PUSH2 0xA64 PUSH2 0xB65 JUMP JUMPDEST PUSH1 0x40 MLOAD PUSH32 0x118CDAA700000000000000000000000000000000000000000000000000000000 DUP2 MSTORE PUSH1 0x4 ADD PUSH2 0xA97 SWAP2 SWAP1 PUSH2 0xCFE JUMP JUMPDEST PUSH1 0x40 MLOAD DUP1 SWAP2 SUB SWAP1 REVERT JUMPDEST JUMP JUMPDEST PUSH0 PUSH1 0x1 PUSH0 SWAP1 SLOAD SWAP1 PUSH2 0x100 EXP SWAP1 DIV PUSH20 0xFFFFFFFFFFFFFFFFFFFFFFFFFFFFFFFFFFFFFFFF AND SWAP1 POP DUP2 PUSH1 0x1 PUSH0 PUSH2 0x100 EXP DUP2 SLOAD DUP2 PUSH20 0xFFFFFFFFFFFFFFFFFFFFFFFFFFFFFFFFFFFFFFFF MUL NOT AND SWAP1 DUP4 PUSH20 0xFFFFFFFFFFFFFFFFFFFFFFFFFFFFFFFFFFFFFFFF AND MUL OR SWAP1 SSTORE POP DUP2 PUSH20 0xFFFFFFFFFFFFFFFFFFFFFFFFFFFFFFFFFFFFFFFF AND DUP2 PUSH20 0xFFFFFFFFFFFFFFFFFFFFFFFFFFFFFFFFFFFFFFFF AND PUSH32 0x8BE0079C531659141344CD1FD0A4F28419497F9722A3DAAFE3B4186F6B6457E0 PUSH1 0x40 MLOAD PUSH1 0x40 MLOAD DUP1 SWAP2 SUB SWAP1 LOG3 POP POP JUMP JUMPDEST PUSH0 CALLER SWAP1 POP SWAP1 JUMP JUMPDEST PUSH0 PUSH0 REVERT JUMPDEST PUSH0 DUP2 SWAP1 POP SWAP2 SWAP1 POP JUMP JUMPDEST PUSH2 0xB82 DUP2 PUSH2 0xB70 JUMP JUMPDEST DUP2 EQ PUSH2 0xB8C JUMPI PUSH0 PUSH0 REVERT JUMPDEST POP JUMP JUMPDEST PUSH0 DUP2 CALLDATALOAD SWAP1 POP PUSH2 0xB9D DUP2 PUSH2 0xB79 JUMP JUMPDEST SWAP3 SWAP2 POP POP JUMP JUMPDEST PUSH0 PUSH1 0x20 DUP3 DUP5 SUB SLT ISZERO PUSH2 0xBB8 JUMPI PUSH2 0xBB7 PUSH2 0xB6C JUMP JUMPDEST JUMPDEST PUSH0 PUSH2 0xBC5 DUP5 DUP3 DUP6 ADD PUSH2 0xB8F JUMP JUMPDEST SWAP2 POP POP SWAP3 SWAP2 POP POP JUMP JUMPDEST PUSH0 PUSH20 0xFFFFFFFFFFFFFFFFFFFFFFFFFFFFFFFFFFFFFFFF DUP3 AND SWAP1 POP SWAP2 SWAP1 POP JUMP JUMPDEST PUSH0 DUP2 SWAP1 POP SWAP2 SWAP1 POP JUMP JUMPDEST PUSH0 PUSH2 0xC10 PUSH2 0xC0B PUSH2 0xC06 DUP5 PUSH2 0xBCE JUMP JUMPDEST PUSH2 0xBED JUMP JUMPDEST PUSH2 0xBCE JUMP JUMPDEST SWAP1 POP SWAP2 SWAP1 POP JUMP JUMPDEST PUSH0 PUSH2 0xC21 DUP3 PUSH2 0xBF6 JUMP JUMPDEST SWAP1 POP SWAP2 SWAP1 POP JUMP JUMPDEST PUSH0 PUSH2 0xC32 DUP3 PUSH2 0xC17 JUMP JUMPDEST SWAP1 POP SWAP2 SWAP1 POP JUMP JUMPDEST PUSH2 0xC42 DUP2 PUSH2 0xC28 JUMP JUMPDEST DUP3 MSTORE POP POP JUMP JUMPDEST PUSH0 PUSH1 0x20 DUP3 ADD SWAP1 POP PUSH2 0xC5B PUSH0 DUP4 ADD DUP5 PUSH2 0xC39 JUMP JUMPDEST SWAP3 SWAP2 POP POP JUMP JUMPDEST PUSH2 0xC6A DUP2 PUSH2 0xB70 JUMP JUMPDEST DUP3 MSTORE POP POP JUMP JUMPDEST PUSH0 PUSH1 0x20 DUP3 ADD SWAP1 POP PUSH2 0xC83 PUSH0 DUP4 ADD DUP5 PUSH2 0xC61 JUMP JUMPDEST SWAP3 SWAP2 POP POP JUMP JUMPDEST PUSH0 PUSH2 0xC93 DUP3 PUSH2 0xBCE JUMP JUMPDEST SWAP1 POP SWAP2 SWAP1 POP JUMP JUMPDEST PUSH2 0xCA3 DUP2 PUSH2 0xC89 JUMP JUMPDEST DUP2 EQ PUSH2 0xCAD JUMPI PUSH0 PUSH0 REVERT JUMPDEST POP JUMP JUMPDEST PUSH0 DUP2 CALLDATALOAD SWAP1 POP PUSH2 0xCBE DUP2 PUSH2 0xC9A JUMP JUMPDEST SWAP3 SWAP2 POP POP JUMP JUMPDEST PUSH0 PUSH1 0x20 DUP3 DUP5 SUB SLT ISZERO PUSH2 0xCD9 JUMPI PUSH2 0xCD8 PUSH2 0xB6C JUMP JUMPDEST JUMPDEST PUSH0 PUSH2 0xCE6 DUP5 DUP3 DUP6 ADD PUSH2 0xCB0 JUMP JUMPDEST SWAP2 POP POP SWAP3 SWAP2 POP POP JUMP JUMPDEST PUSH2 0xCF8 DUP2 PUSH2 0xC89 JUMP JUMPDEST DUP3 MSTORE POP POP JUMP JUMPDEST PUSH0 PUSH1 0x20 DUP3 ADD SWAP1 POP PUSH2 0xD11 PUSH0 DUP4 ADD DUP5 PUSH2 0xCEF JUMP JUMPDEST SWAP3 SWAP2 POP POP JUMP JUMPDEST PUSH0 DUP3 DUP3 MSTORE PUSH1 0x20 DUP3 ADD SWAP1 POP SWAP3 SWAP2 POP POP JUMP JUMPDEST PUSH32 0x4E6F204554482073656E74000000000000000000000000000000000000000000 PUSH0 DUP3 ADD MSTORE POP JUMP JUMPDEST PUSH0 PUSH2 0xD5B PUSH1 0xB DUP4 PUSH2 0xD17 JUMP JUMPDEST SWAP2 POP PUSH2 0xD66 DUP3 PUSH2 0xD27 JUMP JUMPDEST PUSH1 0x20 DUP3 ADD SWAP1 POP SWAP2 SWAP1 POP JUMP JUMPDEST PUSH0 PUSH1 0x20 DUP3 ADD SWAP1 POP DUP2 DUP2 SUB PUSH0 DUP4 ADD MSTORE PUSH2 0xD88 DUP2 PUSH2 0xD4F JUMP JUMPDEST SWAP1 POP SWAP2 SWAP1 POP JUMP JUMPDEST PUSH32 0x416D6F756E742062656C6F77206D696E696D756D207374616B65000000000000 PUSH0 DUP3 ADD MSTORE POP JUMP JUMPDEST PUSH0 PUSH2 0xDC3 PUSH1 0x1A DUP4 PUSH2 0xD17 JUMP JUMPDEST SWAP2 POP PUSH2 0xDCE DUP3 PUSH2 0xD8F JUMP JUMPDEST PUSH1 0x20 DUP3 ADD SWAP1 POP SWAP2 SWAP1 POP JUMP JUMPDEST PUSH0 PUSH1 0x20 DUP3 ADD SWAP1 POP DUP2 DUP2 SUB PUSH0 DUP4 ADD MSTORE PUSH2 0xDF0 DUP2 PUSH2 0xDB7 JUMP JUMPDEST SWAP1 POP SWAP2 SWAP1 POP JUMP JUMPDEST PUSH32 0x416D6F756E742061626F7665206D6178696D756D207374616B65000000000000 PUSH0 DUP3 ADD MSTORE POP JUMP JUMPDEST PUSH0 PUSH2 0xE2B PUSH1 0x1A DUP4 PUSH2 0xD17 JUMP JUMPDEST SWAP2 POP PUSH2 0xE36 DUP3 PUSH2 0xDF7 JUMP JUMPDEST PUSH1 0x20 DUP3 ADD SWAP1 POP SWAP2 SWAP1 POP JUMP JUMPDEST PUSH0 PUSH1 0x20 DUP3 ADD SWAP1 POP DUP2 DUP2 SUB PUSH0 DUP4 ADD MSTORE PUSH2 0xE58 DUP2 PUSH2 0xE1F JUMP JUMPDEST SWAP1 POP SWAP2 SWAP1 POP JUMP JUMPDEST PUSH32 0x4E487B7100000000000000000000000000000000000000000000000000000000 PUSH0 MSTORE PUSH1 0x11 PUSH1 0x4 MSTORE PUSH1 0x24 PUSH0 REVERT JUMPDEST PUSH0 PUSH2 0xE96 DUP3 PUSH2 0xB70 JUMP JUMPDEST SWAP2 POP PUSH2 0xEA1 DUP4 PUSH2 0xB70 JUMP JUMPDEST SWAP3 POP DUP3 DUP3 ADD SWAP1 POP DUP1 DUP3 GT ISZERO PUSH2 0xEB9 JUMPI PUSH2 0xEB8 PUSH2 0xE5F JUMP JUMPDEST JUMPDEST SWAP3 SWAP2 POP POP JUMP JUMPDEST PUSH32 0x416D6F756E74206D7573742062652067726561746572207468616E2030000000 PUSH0 DUP3 ADD MSTORE POP JUMP JUMPDEST PUSH0 PUSH2 0xEF3 PUSH1 0x1D DUP4 PUSH2 0xD17 JUMP JUMPDEST SWAP2 POP PUSH2 0xEFE DUP3 PUSH2 0xEBF JUMP JUMPDEST PUSH1 0x20 DUP3 ADD SWAP1 POP SWAP2 SWAP1 POP JUMP JUMPDEST PUSH0 PUSH1 0x20 DUP3 ADD SWAP1 POP DUP2 DUP2 SUB PUSH0 DUP4 ADD MSTORE PUSH2 0xF20 DUP2 PUSH2 0xEE7 JUMP JUMPDEST SWAP1 POP SWAP2 SWAP1 POP JUMP JUMPDEST PUSH32 0x496E73756666696369656E742062616C616E6365000000000000000000000000 PUSH0 DUP3 ADD MSTORE POP JUMP JUMPDEST PUSH0 PUSH2 0xF5B PUSH1 0x14 DUP4 PUSH2 0xD17 JUMP JUMPDEST SWAP2 POP PUSH2 0xF66 DUP3 PUSH2 0xF27 JUMP JUMPDEST PUSH1 0x20 DUP3 ADD SWAP1 POP SWAP2 SWAP1 POP JUMP JUMPDEST PUSH0 PUSH1 0x20 DUP3 ADD SWAP1 POP DUP2 DUP2 SUB PUSH0 DUP4 ADD MSTORE PUSH2 0xF88 DUP2 PUSH2 0xF4F JUMP JUMPDEST SWAP1 POP SWAP2 SWAP1 POP JUMP JUMPDEST PUSH0 PUSH2 0xF99 DUP3 PUSH2 0xB70 JUMP JUMPDEST SWAP2 POP PUSH2 0xFA4 DUP4 PUSH2 0xB70 JUMP JUMPDEST SWAP3 POP DUP3 DUP3 SUB SWAP1 POP DUP2 DUP2 GT ISZERO PUSH2 0xFBC JUMPI PUSH2 0xFBB PUSH2 0xE5F JUMP JUMPDEST JUMPDEST SWAP3 SWAP2 POP POP JUMP JUMPDEST PUSH0 DUP2 SWAP1 POP SWAP3 SWAP2 POP POP JUMP JUMPDEST POP JUMP JUMPDEST PUSH0 PUSH2 0xFDA PUSH0 DUP4 PUSH2 0xFC2 JUMP JUMPDEST SWAP2 POP PUSH2 0xFE5 DUP3 PUSH2 0xFCC JUMP JUMPDEST PUSH0 DUP3 ADD SWAP1 POP SWAP2 SWAP1 POP JUMP JUMPDEST PUSH0 PUSH2 0xFF9 DUP3 PUSH2 0xFCF JUMP JUMPDEST SWAP2 POP DUP2 SWAP1 POP SWAP2 SWAP1 POP JUMP JUMPDEST PUSH32 0x455448207472616E73666572206661696C656400000000000000000000000000 PUSH0 DUP3 ADD MSTORE POP JUMP JUMPDEST PUSH0 PUSH2 0x1037 PUSH1 0x13 DUP4 PUSH2 0xD17 JUMP JUMPDEST SWAP2 POP PUSH2 0x1042 DUP3 PUSH2 0x1003 JUMP JUMPDEST PUSH1 0x20 DUP3 ADD SWAP1 POP SWAP2 SWAP1 POP JUMP JUMPDEST PUSH0 PUSH1 0x20 DUP3 ADD SWAP1 POP DUP2 DUP2 SUB PUSH0 DUP4 ADD MSTORE PUSH2 0x1064 DUP2 PUSH2 0x102B JUMP JUMPDEST SWAP1 POP SWAP2 SWAP1 POP JUMP INVALID LOG2 PUSH5 0x6970667358 0x22 SLT KECCAK256 0xA5 CALLDATACOPY SLOAD 0xE2 DELEGATECALL DUP4 OR JUMPDEST MUL BLOBBASEFEE 0x22 0xAD 0x2F ADDMOD DUP6 SWAP3 SWAP9 EXTSTATICCALL PUSH17 0xC4069C59A84F41EC6873661AA064736F6C PUSH4 0x4300081F STOP CALLER "
				},
				"gasEstimates": {
					"creation": {
						"codeDepositCost": "851400",
						"executionCost": "infinite",
						"totalCost": "infinite"
					},
					"external": {
						"": "infinite",
						"balanceOf(address)": "2891",
						"getBalance(address)": "2917",
						"maxStakeAmount()": "2492",
						"minStakeAmount()": "2469",
						"owner()": "2560",
						"renounceOwnership()": "infinite",
						"setMaxStakeAmount(uint256)": "infinite",
						"setMinStakeAmount(uint256)": "infinite",
						"stake()": "infinite",
						"totalStaked()": "2448",
						"transferOwnership(address)": "infinite",
						"unstake(uint256)": "infinite",
						"weth()": "infinite"
					}
				},
				"methodIdentifiers": {
					"balanceOf(address)": "70a08231",
					"getBalance(address)": "f8b2cb4f",
					"maxStakeAmount()": "5d80ca32",
					"minStakeAmount()": "f1887684",
					"owner()": "8da5cb5b",
					"renounceOwnership()": "715018a6",
					"setMaxStakeAmount(uint256)": "dcc2a55e",
					"setMinStakeAmount(uint256)": "eb4af045",
					"stake()": "3a4b66f1",
					"totalStaked()": "817b1cd2",
					"transferOwnership(address)": "f2fde38b",
					"unstake(uint256)": "2e17de78",
					"weth()": "3fc8cef3"
				}
			},
			"storageLayout": {
				"storage": [
					{
						"astId": 837,
						"contract": "stakbase/deplys.sol:SimpleETHStaking",
						"label": "_status",
						"offset": 0,
						"slot": "0",
						"type": "t_uint256"
					},
					{
						"astId": 8,
						"contract": "stakbase/deplys.sol:SimpleETHStaking",
						"label": "_owner",
						"offset": 0,
						"slot": "1",
						"type": "t_address"
					},
					{
						"astId": 926,
						"contract": "stakbase/deplys.sol:SimpleETHStaking",
						"label": "totalStaked",
						"offset": 0,
						"slot": "2",
						"type": "t_uint256"
					},
					{
						"astId": 930,
						"contract": "stakbase/deplys.sol:SimpleETHStaking",
						"label": "balanceOf",
						"offset": 0,
						"slot": "3",
						"type": "t_mapping(t_address,t_uint256)"
					},
					{
						"astId": 932,
						"contract": "stakbase/deplys.sol:SimpleETHStaking",
						"label": "minStakeAmount",
						"offset": 0,
						"slot": "4",
						"type": "t_uint256"
					},
					{
						"astId": 934,
						"contract": "stakbase/deplys.sol:SimpleETHStaking",
						"label": "maxStakeAmount",
						"offset": 0,
						"slot": "5",
						"type": "t_uint256"
					}
				],
				"types": {
					"t_address": {
						"encoding": "inplace",
						"label": "address",
						"numberOfBytes": "20"
					},
					"t_mapping(t_address,t_uint256)": {
						"encoding": "mapping",
						"key": "t_address",
						"label": "mapping(address => uint256)",
						"numberOfBytes": "32",
						"value": "t_uint256"
					},
					"t_uint256": {
						"encoding": "inplace",
						"label": "uint256",
						"numberOfBytes": "32"
					}
				}
			},
			"userdoc": {
				"kind": "user",
				"methods": {},
				"version": 1
			}
		}
	}
}