{
	"CryptoPunksReborn.sol": {
		"CustomMintToken": {
			"abi": [
				{
					"inputs": [
						{
							"internalType": "string",
							"name": "_name",
							"type": "string"
						},
						{
							"internalType": "string",
							"name": "_symbol",
							"type": "string"
						},
						{
							"internalType": "uint256",
							"name": "_initialSupply",
							"type": "uint256"
						},
						{
							"internalType": "uint256",
							"name": "_maxSupply",
							"type": "uint256"
						}
					],
					"stateMutability": "nonpayable",
					"type": "constructor"
				},
				{
					"inputs": [
						{
							"internalType": "address",
							"name": "spender",
							"type": "address"
						},
						{
							"internalType": "uint256",
							"name": "allowance",
							"type": "uint256"
						},
						{
							"internalType": "uint256",
							"name": "needed",
							"type": "uint256"
						}
					],
					"name": "ERC20InsufficientAllowance",
					"type": "error"
				},
				{
					"inputs": [
						{
							"internalType": "address",
							"name": "sender",
							"type": "address"
						},
						{
							"internalType": "uint256",
							"name": "balance",
							"type": "uint256"
						},
						{
							"internalType": "uint256",
							"name": "needed",
							"type": "uint256"
						}
					],
					"name": "ERC20InsufficientBalance",
					"type": "error"
				},
				{
					"inputs": [
						{
							"internalType": "address",
							"name": "approver",
							"type": "address"
						}
					],
					"name": "ERC20InvalidApprover",
					"type": "error"
				},
				{
					"inputs": [
						{
							"internalType": "address",
							"name": "receiver",
							"type": "address"
						}
					],
					"name": "ERC20InvalidReceiver",
					"type": "error"
				},
				{
					"inputs": [
						{
							"internalType": "address",
							"name": "sender",
							"type": "address"
						}
					],
					"name": "ERC20InvalidSender",
					"type": "error"
				},
				{
					"inputs": [
						{
							"internalType": "address",
							"name": "spender",
							"type": "address"
						}
					],
					"name": "ERC20InvalidSpender",
					"type": "error"
				},
				{
					"inputs": [
						{
							"internalType": "address",
							"name": "owner",
							"type": "address"
						}
					],
					"name": "OwnableInvalidOwner",
					"type": "error"
				},
				{
					"inputs": [
						{
							"internalType": "address",
							"name": "account",
							"type": "address"
						}
					],
					"name": "OwnableUnauthorizedAccount",
					"type": "error"
				},
				{
					"anonymous": false,
					"inputs": [
						{
							"indexed": true,
							"internalType": "address",
							"name": "owner",
							"type": "address"
						},
						{
							"indexed": true,
							"internalType": "address",
							"name": "spender",
							"type": "address"
						},
						{
							"indexed": false,
							"internalType": "uint256",
							"name": "value",
							"type": "uint256"
						}
					],
					"name": "Approval",
					"type": "event"
				},
				{
					"anonymous": false,
					"inputs": [
						{
							"indexed": true,
							"internalType": "address",
							"name": "previousOwner",
							"type": "address"
						},
						{
							"indexed": true,
							"internalType": "address",
							"name": "newOwner",
							"type": "address"
						}
					],
					"name": "OwnershipTransferred",
					"type": "event"
				},
				{
					"anonymous": false,
					"inputs": [
						{
							"indexed": true,
							"internalType": "address",
							"name": "from",
							"type": "address"
						},
						{
							"indexed": true,
							"internalType": "address",
							"name": "to",
							"type": "address"
						},
						{
							"indexed": false,
							"internalType": "uint256",
							"name": "value",
							"type": "uint256"
						}
					],
					"name": "Transfer",
					"type": "event"
				},
				{
					"inputs": [
						{
							"internalType": "address",
							"name": "owner",
							"type": "address"
						},
						{
							"internalType": "address",
							"name": "spender",
							"type": "address"
						}
					],
					"name": "allowance",
					"outputs": [
						{
							"internalType": "uint256",
							"name": "",
							"type": "uint256"
						}
					],
					"stateMutability": "view",
					"type": "function"
				},
				{
					"inputs": [
						{
							"internalType": "address",
							"name": "spender",
							"type": "address"
						},
						{
							"internalType": "uint256",
							"name": "value",
							"type": "uint256"
						}
					],
					"name": "approve",
					"outputs": [
						{
							"internalType": "bool",
							"name": "",
							"type": "bool"
						}
					],
					"stateMutability": "nonpayable",
					"type": "function"
				},
				{
					"inputs": [
						{
							"internalType": "address",
							"name": "account",
							"type": "address"
						}
					],
					"name": "balanceOf",
					"outputs": [
						{
							"internalType": "uint256",
							"name": "",
							"type": "uint256"
						}
					],
					"stateMutability": "view",
					"type": "function"
				},
				{
					"inputs": [],
					"name": "decimals",
					"outputs": [
						{
							"internalType": "uint8",
							"name": "",
							"type": "uint8"
						}
					],
					"stateMutability": "view",
					"type": "function"
				},
				{
					"inputs": [],
					"name": "isMintingOpen",
					"outputs": [
						{
							"internalType": "bool",
							"name": "",
							"type": "bool"
						}
					],
					"stateMutability": "view",
					"type": "function"
				},
				{
					"inputs": [],
					"name": "maxSupply",
					"outputs": [
						{
							"internalType": "uint256",
							"name": "",
							"type": "uint256"
						}
					],
					"stateMutability": "view",
					"type": "function"
				},
				{
					"inputs": [],
					"name": "mintPrice",
					"outputs": [
						{
							"internalType": "uint256",
							"name": "",
							"type": "uint256"
						}
					],
					"stateMutability": "view",
					"type": "function"
				},
				{
					"inputs": [
						{
							"internalType": "uint256",
							"name": "_amount",
							"type": "uint256"
						}
					],
					"name": "mintTokens",
					"outputs": [],
					"stateMutability": "payable",
					"type": "function"
				},
				{
					"inputs": [],
					"name": "name",
					"outputs": [
						{
							"internalType": "string",
							"name": "",
							"type": "string"
						}
					],
					"stateMutability": "view",
					"type": "function"
				},
				{
					"inputs": [],
					"name": "owner",
					"outputs": [
						{
							"internalType": "address",
							"name": "",
							"type": "address"
						}
					],
					"stateMutability": "view",
					"type": "function"
				},
				{
					"inputs": [],
					"name": "renounceOwnership",
					"outputs": [],
					"stateMutability": "nonpayable",
					"type": "function"
				},
				{
					"inputs": [
						{
							"internalType": "uint256",
							"name": "_newMaxSupply",
							"type": "uint256"
						}
					],
					"name": "setMaxSupply",
					"outputs": [],
					"stateMutability": "nonpayable",
					"type": "function"
				},
				{
					"inputs": [
						{
							"internalType": "uint256",
							"name": "_price",
							"type": "uint256"
						}
					],
					"name": "setMintPrice",
					"outputs": [],
					"stateMutability": "nonpayable",
					"type": "function"
				},
				{
					"inputs": [],
					"name": "symbol",
					"outputs": [
						{
							"internalType": "string",
							"name": "",
							"type": "string"
						}
					],
					"stateMutability": "view",
					"type": "function"
				},
				{
					"inputs": [],
					"name": "toggleMinting",
					"outputs": [],
					"stateMutability": "nonpayable",
					"type": "function"
				},
				{
					"inputs": [],
					"name": "tokenDetails",
					"outputs": [
						{
							"internalType": "string",
							"name": "name",
							"type": "string"
						},
						{
							"internalType": "string",
							"name": "symbol",
							"type": "string"
						},
						{
							"internalType": "uint8",
							"name": "decimal",
							"type": "uint8"
						},
						{
							"internalType": "uint256",
							"name": "currentSupply",
							"type": "uint256"
						},
						{
							"internalType": "uint256",
							"name": "maxTokenSupply",
							"type": "uint256"
						},
						{
							"internalType": "uint256",
							"name": "pricePerToken",
							"type": "uint256"
						},
						{
							"internalType": "bool",
							"name": "mintingStatus",
							"type": "bool"
						}
					],
					"stateMutability": "view",
					"type": "function"
				},
				{
					"inputs": [],
					"name": "tokensMinted",
					"outputs": [
						{
							"internalType": "uint256",
							"name": "",
							"type": "uint256"
						}
					],
					"stateMutability": "view",
					"type": "function"
				},
				{
					"inputs": [],
					"name": "totalSupply",
					"outputs": [
						{
							"internalType": "uint256",
							"name": "",
							"type": "uint256"
						}
					],
					"stateMutability": "view",
					"type": "function"
				},
				{
					"inputs": [
						{
							"internalType": "address",
							"name": "to",
							"type": "address"
						},
						{
							"internalType": "uint256",
							"name": "value",
							"type": "uint256"
						}
					],
					"name": "transfer",
					"outputs": [
						{
							"internalType": "bool",
							"name": "",
							"type": "bool"
						}
					],
					"stateMutability": "nonpayable",
					"type": "function"
				},
				{
					"inputs": [
						{
							"internalType": "address",
							"name": "from",
							"type": "address"
						},
						{
							"internalType": "address",
							"name": "to",
							"type": "address"
						},
						{
							"internalType": "uint256",
							"name": "value",
							"type": "uint256"
						}
					],
					"name": "transferFrom",
					"outputs": [
						{
							"internalType": "bool",
							"name": "",
							"type": "bool"
						}
					],
					"stateMutability": "nonpayable",
					"type": "function"
				},
				{
					"inputs": [
						{
							"internalType": "address",
							"name": "newOwner",
							"type": "address"
						}
					],
					"name": "transferOwnership",
					"outputs": [],
					"stateMutability": "nonpayable",
					"type": "function"
				},
				{
					"inputs": [],
					"name": "withdraw",
					"outputs": [],
					"stateMutability": "nonpayable",
					"type": "function"
				}
			],
			"devdoc": {
				"errors": {
					"ERC20InsufficientAllowance(address,uint256,uint256)": [
						{
							"details": "Indicates a failure with the `spender`’s `allowance`. Used in transfers.",
							"params": {
								"allowance": "Amount of tokens a `spender` is allowed to operate with.",
								"needed": "Minimum amount required to perform a transfer.",
								"spender": "Address that may be allowed to operate on tokens without being their owner."
							}
						}
					],
					"ERC20InsufficientBalance(address,uint256,uint256)": [
						{
							"details": "Indicates an error related to the current `balance` of a `sender`. Used in transfers.",
							"params": {
								"balance": "Current balance for the interacting account.",
								"needed": "Minimum amount required to perform a transfer.",
								"sender": "Address whose tokens are being transferred."
							}
						}
					],
					"ERC20InvalidApprover(address)": [
						{
							"details": "Indicates a failure with the `approver` of a token to be approved. Used in approvals.",
							"params": {
								"approver": "Address initiating an approval operation."
							}
						}
					],
					"ERC20InvalidReceiver(address)": [
						{
							"details": "Indicates a failure with the token `receiver`. Used in transfers.",
							"params": {
								"receiver": "Address to which tokens are being transferred."
							}
						}
					],
					"ERC20InvalidSender(address)": [
						{
							"details": "Indicates a failure with the token `sender`. Used in transfers.",
							"params": {
								"sender": "Address whose tokens are being transferred."
							}
						}
					],
					"ERC20InvalidSpender(address)": [
						{
							"details": "Indicates a failure with the `spender` to be approved. Used in approvals.",
							"params": {
								"spender": "Address that may be allowed to operate on tokens without being their owner."
							}
						}
					],
					"OwnableInvalidOwner(address)": [
						{
							"details": "The owner is not a valid owner account. (eg. `address(0)`)"
						}
					],
					"OwnableUnauthorizedAccount(address)": [
						{
							"details": "The caller account is not authorized to perform an operation."
						}
					]
				},
				"events": {
					"Approval(address,address,uint256)": {
						"details": "Emitted when the allowance of a `spender` for an `owner` is set by a call to {approve}. `value` is the new allowance."
					},
					"Transfer(address,address,uint256)": {
						"details": "Emitted when `value` tokens are moved from one account (`from`) to another (`to`). Note that `value` may be zero."
					}
				},
				"kind": "dev",
				"methods": {
					"allowance(address,address)": {
						"details": "Returns the remaining number of tokens that `spender` will be allowed to spend on behalf of `owner` through {transferFrom}. This is zero by default. This value changes when {approve} or {transferFrom} are called."
					},
					"approve(address,uint256)": {
						"details": "See {IERC20-approve}. NOTE: If `value` is the maximum `uint256`, the allowance is not updated on `transferFrom`. This is semantically equivalent to an infinite approval. Requirements: - `spender` cannot be the zero address."
					},
					"balanceOf(address)": {
						"details": "Returns the value of tokens owned by `account`."
					},
					"decimals()": {
						"details": "Returns the number of decimals used to get its user representation. For example, if `decimals` equals `2`, a balance of `505` tokens should be displayed to a user as `5.05` (`505 / 10 ** 2`). Tokens usually opt for a value of 18, imitating the relationship between Ether and Wei. This is the default value returned by this function, unless it's overridden. NOTE: This information is only used for _display_ purposes: it in no way affects any of the arithmetic of the contract, including {IERC20-balanceOf} and {IERC20-transfer}."
					},
					"name()": {
						"details": "Returns the name of the token."
					},
					"owner()": {
						"details": "Returns the address of the current owner."
					},
					"renounceOwnership()": {
						"details": "Leaves the contract without owner. It will not be possible to call `onlyOwner` functions. Can only be called by the current owner. NOTE: Renouncing ownership will leave the contract without an owner, thereby disabling any functionality that is only available to the owner."
					},
					"symbol()": {
						"details": "Returns the symbol of the token, usually a shorter version of the name."
					},
					"totalSupply()": {
						"details": "Returns the value of tokens in existence."
					},
					"transfer(address,uint256)": {
						"details": "See {IERC20-transfer}. Requirements: - `to` cannot be the zero address. - the caller must have a balance of at least `value`."
					},
					"transferFrom(address,address,uint256)": {
						"details": "See {IERC20-transferFrom}. Skips emitting an {Approval} event indicating an allowance update. This is not required by the ERC. See {xref-ERC20-_approve-address-address-uint256-bool-}[_approve]. NOTE: Does not update the allowance if the current allowance is the maximum `uint256`. Requirements: - `from` and `to` cannot be the zero address. - `from` must have a balance of at least `value`. - the caller must have allowance for ``from``'s tokens of at least `value`."
					},
					"transferOwnership(address)": {
						"details": "Transfers ownership of the contract to a new account (`newOwner`). Can only be called by the current owner."
					}
				},
				"version": 1
			},
			"evm": {
				"assembly": "    /* \"CryptoPunksReborn.sol\":167:2277  contract CustomMintToken is ERC20, Ownable {... */\n  mstore(0x40, 0x80)\n    /* \"CryptoPunksReborn.sol\":243:254  0.001 ether */\n  0x038d7ea4c68000\n    /* \"CryptoPunksReborn.sol\":216:254  uint256 public mintPrice = 0.001 ether */\n  0x06\n  sstore\n    /* \"CryptoPunksReborn.sol\":318:322  true */\n  0x01\n    /* \"CryptoPunksReborn.sol\":290:322  bool public isMintingOpen = true */\n  0x08\n  exp(0x0100, 0x00)\n  dup2\n  sload\n  dup2\n  0xff\n  mul\n  not\n  and\n  swap1\n  dup4\n  iszero\n  iszero\n  mul\n  or\n  swap1\n  sstore\n  pop\n    /* \"CryptoPunksReborn.sol\":362:778  constructor(... */\n  callvalue\n  dup1\n  iszero\n  tag_1\n  jumpi\n  0x00\n  dup1\n  revert\ntag_1:\n  pop\n  mload(0x40)\n  sub(codesize, bytecodeSize)\n  dup1\n  bytecodeSize\n  dup4\n  codecopy\n  dup2\n  dup2\n  add\n  0x40\n  mstore\n  dup2\n  add\n  swap1\n  tag_2\n  swap2\n  swap1\n  tag_3\n  jump\t// in\ntag_2:\n    /* \"CryptoPunksReborn.sol\":530:540  msg.sender */\n  caller\n    /* \"CryptoPunksReborn.sol\":506:511  _name */\n  dup5\n    /* \"CryptoPunksReborn.sol\":513:520  _symbol */\n  dup5\n    /* \"@openzeppelin/contracts/token/ERC20/ERC20.sol\":1656:1661  name_ */\n  dup2\n    /* \"@openzeppelin/contracts/token/ERC20/ERC20.sol\":1648:1653  _name */\n  0x03\n    /* \"@openzeppelin/contracts/token/ERC20/ERC20.sol\":1648:1661  _name = name_ */\n  swap1\n  dup2\n  tag_8\n  swap2\n  swap1\n  tag_9\n  jump\t// in\ntag_8:\n  pop\n    /* \"@openzeppelin/contracts/token/ERC20/ERC20.sol\":1681:1688  symbol_ */\n  dup1\n    /* \"@openzeppelin/contracts/token/ERC20/ERC20.sol\":1671:1678  _symbol */\n  0x04\n    /* \"@openzeppelin/contracts/token/ERC20/ERC20.sol\":1671:1688  _symbol = symbol_ */\n  swap1\n  dup2\n  tag_10\n  swap2\n  swap1\n  tag_9\n  jump\t// in\ntag_10:\n  pop\n    /* \"@openzeppelin/contracts/token/ERC20/ERC20.sol\":1582:1695  constructor(string memory name_, string memory symbol_) {... */\n  pop\n  pop\n    /* \"@openzeppelin/contracts/access/Ownable.sol\":1297:1298  0 */\n  0x00\n    /* \"@openzeppelin/contracts/access/Ownable.sol\":1273:1299  initialOwner == address(0) */\n  0xffffffffffffffffffffffffffffffffffffffff\n  and\n    /* \"@openzeppelin/contracts/access/Ownable.sol\":1273:1285  initialOwner */\n  dup2\n    /* \"@openzeppelin/contracts/access/Ownable.sol\":1273:1299  initialOwner == address(0) */\n  0xffffffffffffffffffffffffffffffffffffffff\n  and\n  sub\n    /* \"@openzeppelin/contracts/access/Ownable.sol\":1269:1364  if (initialOwner == address(0)) {... */\n  tag_12\n  jumpi\n    /* \"@openzeppelin/contracts/access/Ownable.sol\":1350:1351  0 */\n  0x00\n    /* \"@openzeppelin/contracts/access/Ownable.sol\":1322:1353  OwnableInvalidOwner(address(0)) */\n  mload(0x40)\n  0x1e4fbdf700000000000000000000000000000000000000000000000000000000\n  dup2\n  mstore\n  0x04\n  add\n  tag_13\n  swap2\n  swap1\n  tag_14\n  jump\t// in\ntag_13:\n  mload(0x40)\n  dup1\n  swap2\n  sub\n  swap1\n  revert\n    /* \"@openzeppelin/contracts/access/Ownable.sol\":1269:1364  if (initialOwner == address(0)) {... */\ntag_12:\n    /* \"@openzeppelin/contracts/access/Ownable.sol\":1373:1405  _transferOwnership(initialOwner) */\n  tag_15\n    /* \"@openzeppelin/contracts/access/Ownable.sol\":1392:1404  initialOwner */\n  dup2\n    /* \"@openzeppelin/contracts/access/Ownable.sol\":1373:1391  _transferOwnership */\n  shl(0x20, tag_16)\n    /* \"@openzeppelin/contracts/access/Ownable.sol\":1373:1405  _transferOwnership(initialOwner) */\n  0x20\n  shr\n  jump\t// in\ntag_15:\n    /* \"@openzeppelin/contracts/access/Ownable.sol\":1225:1412  constructor(address initialOwner) {... */\n  pop\n    /* \"CryptoPunksReborn.sol\":584:594  decimals() */\n  tag_18\n    /* \"CryptoPunksReborn.sol\":584:592  decimals */\n  shl(0x20, tag_19)\n    /* \"CryptoPunksReborn.sol\":584:594  decimals() */\n  0x20\n  shr\n  jump\t// in\ntag_18:\n    /* \"CryptoPunksReborn.sol\":578:580  10 */\n  0x0a\n    /* \"CryptoPunksReborn.sol\":578:594  10 ** decimals() */\n  tag_20\n  swap2\n  swap1\n  tag_21\n  jump\t// in\ntag_20:\n    /* \"CryptoPunksReborn.sol\":564:574  _maxSupply */\n  dup2\n    /* \"CryptoPunksReborn.sol\":564:595  _maxSupply * (10 ** decimals()) */\n  tag_22\n  swap2\n  swap1\n  tag_23\n  jump\t// in\ntag_22:\n    /* \"CryptoPunksReborn.sol\":552:561  maxSupply */\n  0x07\n    /* \"CryptoPunksReborn.sol\":552:595  maxSupply = _maxSupply * (10 ** decimals()) */\n  dup2\n  swap1\n  sstore\n  pop\n    /* \"CryptoPunksReborn.sol\":626:627  0 */\n  0x00\n    /* \"CryptoPunksReborn.sol\":609:623  _initialSupply */\n  dup3\n    /* \"CryptoPunksReborn.sol\":609:627  _initialSupply > 0 */\n  gt\n    /* \"CryptoPunksReborn.sol\":605:772  if (_initialSupply > 0) {... */\n  iszero\n  tag_24\n  jumpi\n    /* \"CryptoPunksReborn.sol\":643:697  _mint(msg.sender, _initialSupply * (10 ** decimals())) */\n  tag_25\n    /* \"CryptoPunksReborn.sol\":649:659  msg.sender */\n  caller\n    /* \"CryptoPunksReborn.sol\":685:695  decimals() */\n  tag_26\n    /* \"CryptoPunksReborn.sol\":685:693  decimals */\n  shl(0x20, tag_19)\n    /* \"CryptoPunksReborn.sol\":685:695  decimals() */\n  0x20\n  shr\n  jump\t// in\ntag_26:\n    /* \"CryptoPunksReborn.sol\":679:681  10 */\n  0x0a\n    /* \"CryptoPunksReborn.sol\":679:695  10 ** decimals() */\n  tag_27\n  swap2\n  swap1\n  tag_21\n  jump\t// in\ntag_27:\n    /* \"CryptoPunksReborn.sol\":661:675  _initialSupply */\n  dup5\n    /* \"CryptoPunksReborn.sol\":661:696  _initialSupply * (10 ** decimals()) */\n  tag_28\n  swap2\n  swap1\n  tag_23\n  jump\t// in\ntag_28:\n    /* \"CryptoPunksReborn.sol\":643:648  _mint */\n  shl(0x20, tag_29)\n    /* \"CryptoPunksReborn.sol\":643:697  _mint(msg.sender, _initialSupply * (10 ** decimals())) */\n  0x20\n  shr\n  jump\t// in\ntag_25:\n    /* \"CryptoPunksReborn.sol\":750:760  decimals() */\n  tag_30\n    /* \"CryptoPunksReborn.sol\":750:758  decimals */\n  shl(0x20, tag_19)\n    /* \"CryptoPunksReborn.sol\":750:760  decimals() */\n  0x20\n  shr\n  jump\t// in\ntag_30:\n    /* \"CryptoPunksReborn.sol\":744:746  10 */\n  0x0a\n    /* \"CryptoPunksReborn.sol\":744:760  10 ** decimals() */\n  tag_31\n  swap2\n  swap1\n  tag_21\n  jump\t// in\ntag_31:\n    /* \"CryptoPunksReborn.sol\":726:740  _initialSupply */\n  dup3\n    /* \"CryptoPunksReborn.sol\":726:761  _initialSupply * (10 ** decimals()) */\n  tag_32\n  swap2\n  swap1\n  tag_23\n  jump\t// in\ntag_32:\n    /* \"CryptoPunksReborn.sol\":711:723  tokensMinted */\n  0x09\n    /* \"CryptoPunksReborn.sol\":711:761  tokensMinted = _initialSupply * (10 ** decimals()) */\n  dup2\n  swap1\n  sstore\n  pop\n    /* \"CryptoPunksReborn.sol\":605:772  if (_initialSupply > 0) {... */\ntag_24:\n    /* \"CryptoPunksReborn.sol\":362:778  constructor(... */\n  pop\n  pop\n  pop\n  pop\n    /* \"CryptoPunksReborn.sol\":167:2277  contract CustomMintToken is ERC20, Ownable {... */\n  jump(tag_33)\n    /* \"@openzeppelin/contracts/access/Ownable.sol\":2912:3099  function _transferOwnership(address newOwner) internal virtual {... */\ntag_16:\n    /* \"@openzeppelin/contracts/access/Ownable.sol\":2985:3001  address oldOwner */\n  0x00\n    /* \"@openzeppelin/contracts/access/Ownable.sol\":3004:3010  _owner */\n  0x05\n  0x00\n  swap1\n  sload\n  swap1\n  0x0100\n  exp\n  swap1\n  div\n  0xffffffffffffffffffffffffffffffffffffffff\n  and\n    /* \"@openzeppelin/contracts/access/Ownable.sol\":2985:3010  address oldOwner = _owner */\n  swap1\n  pop\n    /* \"@openzeppelin/contracts/access/Ownable.sol\":3029:3037  newOwner */\n  dup2\n    /* \"@openzeppelin/contracts/access/Ownable.sol\":3020:3026  _owner */\n  0x05\n  0x00\n    /* \"@openzeppelin/contracts/access/Ownable.sol\":3020:3037  _owner = newOwner */\n  0x0100\n  exp\n  dup2\n  sload\n  dup2\n  0xffffffffffffffffffffffffffffffffffffffff\n  mul\n  not\n  and\n  swap1\n  dup4\n  0xffffffffffffffffffffffffffffffffffffffff\n  and\n  mul\n  or\n  swap1\n  sstore\n  pop\n    /* \"@openzeppelin/contracts/access/Ownable.sol\":3083:3091  newOwner */\n  dup2\n    /* \"@openzeppelin/contracts/access/Ownable.sol\":3052:3092  OwnershipTransferred(oldOwner, newOwner) */\n  0xffffffffffffffffffffffffffffffffffffffff\n  and\n    /* \"@openzeppelin/contracts/access/Ownable.sol\":3073:3081  oldOwner */\n  dup2\n    /* \"@openzeppelin/contracts/access/Ownable.sol\":3052:3092  OwnershipTransferred(oldOwner, newOwner) */\n  0xffffffffffffffffffffffffffffffffffffffff\n  and\n  0x8be0079c531659141344cd1fd0a4f28419497f9722a3daafe3b4186f6b6457e0\n  mload(0x40)\n  mload(0x40)\n  dup1\n  swap2\n  sub\n  swap1\n  log3\n    /* \"@openzeppelin/contracts/access/Ownable.sol\":2975:3099  {... */\n  pop\n    /* \"@openzeppelin/contracts/access/Ownable.sol\":2912:3099  function _transferOwnership(address newOwner) internal virtual {... */\n  pop\n  jump\t// out\n    /* \"@openzeppelin/contracts/token/ERC20/ERC20.sol\":2688:2770  function decimals() public view virtual returns (uint8) {... */\ntag_19:\n    /* \"@openzeppelin/contracts/token/ERC20/ERC20.sol\":2737:2742  uint8 */\n  0x00\n    /* \"@openzeppelin/contracts/token/ERC20/ERC20.sol\":2761:2763  18 */\n  0x12\n    /* \"@openzeppelin/contracts/token/ERC20/ERC20.sol\":2754:2763  return 18 */\n  swap1\n  pop\n    /* \"@openzeppelin/contracts/token/ERC20/ERC20.sol\":2688:2770  function decimals() public view virtual returns (uint8) {... */\n  swap1\n  jump\t// out\n    /* \"@openzeppelin/contracts/token/ERC20/ERC20.sol\":7362:7570  function _mint(address account, uint256 value) internal {... */\ntag_29:\n    /* \"@openzeppelin/contracts/token/ERC20/ERC20.sol\":7451:7452  0 */\n  0x00\n    /* \"@openzeppelin/contracts/token/ERC20/ERC20.sol\":7432:7453  account == address(0) */\n  0xffffffffffffffffffffffffffffffffffffffff\n  and\n    /* \"@openzeppelin/contracts/token/ERC20/ERC20.sol\":7432:7439  account */\n  dup3\n    /* \"@openzeppelin/contracts/token/ERC20/ERC20.sol\":7432:7453  account == address(0) */\n  0xffffffffffffffffffffffffffffffffffffffff\n  and\n  sub\n    /* \"@openzeppelin/contracts/token/ERC20/ERC20.sol\":7428:7519  if (account == address(0)) {... */\n  tag_37\n  jumpi\n    /* \"@openzeppelin/contracts/token/ERC20/ERC20.sol\":7505:7506  0 */\n  0x00\n    /* \"@openzeppelin/contracts/token/ERC20/ERC20.sol\":7476:7508  ERC20InvalidReceiver(address(0)) */\n  mload(0x40)\n  0xec442f0500000000000000000000000000000000000000000000000000000000\n  dup2\n  mstore\n  0x04\n  add\n  tag_38\n  swap2\n  swap1\n  tag_14\n  jump\t// in\ntag_38:\n  mload(0x40)\n  dup1\n  swap2\n  sub\n  swap1\n  revert\n    /* \"@openzeppelin/contracts/token/ERC20/ERC20.sol\":7428:7519  if (account == address(0)) {... */\ntag_37:\n    /* \"@openzeppelin/contracts/token/ERC20/ERC20.sol\":7528:7563  _update(address(0), account, value) */\n  tag_39\n    /* \"@openzeppelin/contracts/token/ERC20/ERC20.sol\":7544:7545  0 */\n  0x00\n    /* \"@openzeppelin/contracts/token/ERC20/ERC20.sol\":7548:7555  account */\n  dup4\n    /* \"@openzeppelin/contracts/token/ERC20/ERC20.sol\":7557:7562  value */\n  dup4\n    /* \"@openzeppelin/contracts/token/ERC20/ERC20.sol\":7528:7535  _update */\n  shl(0x20, tag_40)\n    /* \"@openzeppelin/contracts/token/ERC20/ERC20.sol\":7528:7563  _update(address(0), account, value) */\n  0x20\n  shr\n  jump\t// in\ntag_39:\n    /* \"@openzeppelin/contracts/token/ERC20/ERC20.sol\":7362:7570  function _mint(address account, uint256 value) internal {... */\n  pop\n  pop\n  jump\t// out\n    /* \"@openzeppelin/contracts/token/ERC20/ERC20.sol\":5912:7019  function _update(address from, address to, uint256 value) internal virtual {... */\ntag_40:\n    /* \"@openzeppelin/contracts/token/ERC20/ERC20.sol\":6017:6018  0 */\n  0x00\n    /* \"@openzeppelin/contracts/token/ERC20/ERC20.sol\":6001:6019  from == address(0) */\n  0xffffffffffffffffffffffffffffffffffffffff\n  and\n    /* \"@openzeppelin/contracts/token/ERC20/ERC20.sol\":6001:6005  from */\n  dup4\n    /* \"@openzeppelin/contracts/token/ERC20/ERC20.sol\":6001:6019  from == address(0) */\n  0xffffffffffffffffffffffffffffffffffffffff\n  and\n  sub\n    /* \"@openzeppelin/contracts/token/ERC20/ERC20.sol\":5997:6537  if (from == address(0)) {... */\n  tag_42\n  jumpi\n    /* \"@openzeppelin/contracts/token/ERC20/ERC20.sol\":6153:6158  value */\n  dup1\n    /* \"@openzeppelin/contracts/token/ERC20/ERC20.sol\":6137:6149  _totalSupply */\n  0x02\n  0x00\n    /* \"@openzeppelin/contracts/token/ERC20/ERC20.sol\":6137:6158  _totalSupply += value */\n  dup3\n  dup3\n  sload\n  tag_43\n  swap2\n  swap1\n  tag_44\n  jump\t// in\ntag_43:\n  swap3\n  pop\n  pop\n  dup2\n  swap1\n  sstore\n  pop\n    /* \"@openzeppelin/contracts/token/ERC20/ERC20.sol\":5997:6537  if (from == address(0)) {... */\n  jump(tag_45)\ntag_42:\n    /* \"@openzeppelin/contracts/token/ERC20/ERC20.sol\":6189:6208  uint256 fromBalance */\n  0x00\n    /* \"@openzeppelin/contracts/token/ERC20/ERC20.sol\":6211:6220  _balances */\n  dup1\n    /* \"@openzeppelin/contracts/token/ERC20/ERC20.sol\":6211:6226  _balances[from] */\n  0x00\n    /* \"@openzeppelin/contracts/token/ERC20/ERC20.sol\":6221:6225  from */\n  dup6\n    /* \"@openzeppelin/contracts/token/ERC20/ERC20.sol\":6211:6226  _balances[from] */\n  0xffffffffffffffffffffffffffffffffffffffff\n  and\n  0xffffffffffffffffffffffffffffffffffffffff\n  and\n  dup2\n  mstore\n  0x20\n  add\n  swap1\n  dup2\n  mstore\n  0x20\n  add\n  0x00\n  keccak256\n  sload\n    /* \"@openzeppelin/contracts/token/ERC20/ERC20.sol\":6189:6226  uint256 fromBalance = _balances[from] */\n  swap1\n  pop\n    /* \"@openzeppelin/contracts/token/ERC20/ERC20.sol\":6258:6263  value */\n  dup2\n    /* \"@openzeppelin/contracts/token/ERC20/ERC20.sol\":6244:6255  fromBalance */\n  dup2\n    /* \"@openzeppelin/contracts/token/ERC20/ERC20.sol\":6244:6263  fromBalance < value */\n  lt\n    /* \"@openzeppelin/contracts/token/ERC20/ERC20.sol\":6240:6355  if (fromBalance < value) {... */\n  iszero\n  tag_46\n  jumpi\n    /* \"@openzeppelin/contracts/token/ERC20/ERC20.sol\":6315:6319  from */\n  dup4\n    /* \"@openzeppelin/contracts/token/ERC20/ERC20.sol\":6321:6332  fromBalance */\n  dup2\n    /* \"@openzeppelin/contracts/token/ERC20/ERC20.sol\":6334:6339  value */\n  dup4\n    /* \"@openzeppelin/contracts/token/ERC20/ERC20.sol\":6290:6340  ERC20InsufficientBalance(from, fromBalance, value) */\n  mload(0x40)\n  0xe450d38c00000000000000000000000000000000000000000000000000000000\n  dup2\n  mstore\n  0x04\n  add\n  tag_47\n  swap4\n  swap3\n  swap2\n  swap1\n  tag_48\n  jump\t// in\ntag_47:\n  mload(0x40)\n  dup1\n  swap2\n  sub\n  swap1\n  revert\n    /* \"@openzeppelin/contracts/token/ERC20/ERC20.sol\":6240:6355  if (fromBalance < value) {... */\ntag_46:\n    /* \"@openzeppelin/contracts/token/ERC20/ERC20.sol\":6507:6512  value */\n  dup2\n    /* \"@openzeppelin/contracts/token/ERC20/ERC20.sol\":6493:6504  fromBalance */\n  dup2\n    /* \"@openzeppelin/contracts/token/ERC20/ERC20.sol\":6493:6512  fromBalance - value */\n  sub\n    /* \"@openzeppelin/contracts/token/ERC20/ERC20.sol\":6475:6484  _balances */\n  0x00\n    /* \"@openzeppelin/contracts/token/ERC20/ERC20.sol\":6475:6490  _balances[from] */\n  dup1\n    /* \"@openzeppelin/contracts/token/ERC20/ERC20.sol\":6485:6489  from */\n  dup7\n    /* \"@openzeppelin/contracts/token/ERC20/ERC20.sol\":6475:6490  _balances[from] */\n  0xffffffffffffffffffffffffffffffffffffffff\n  and\n  0xffffffffffffffffffffffffffffffffffffffff\n  and\n  dup2\n  mstore\n  0x20\n  add\n  swap1\n  dup2\n  mstore\n  0x20\n  add\n  0x00\n  keccak256\n    /* \"@openzeppelin/contracts/token/ERC20/ERC20.sol\":6475:6512  _balances[from] = fromBalance - value */\n  dup2\n  swap1\n  sstore\n  pop\n    /* \"@openzeppelin/contracts/token/ERC20/ERC20.sol\":6175:6537  {... */\n  pop\n    /* \"@openzeppelin/contracts/token/ERC20/ERC20.sol\":5997:6537  if (from == address(0)) {... */\ntag_45:\n    /* \"@openzeppelin/contracts/token/ERC20/ERC20.sol\":6565:6566  0 */\n  0x00\n    /* \"@openzeppelin/contracts/token/ERC20/ERC20.sol\":6551:6567  to == address(0) */\n  0xffffffffffffffffffffffffffffffffffffffff\n  and\n    /* \"@openzeppelin/contracts/token/ERC20/ERC20.sol\":6551:6553  to */\n  dup3\n    /* \"@openzeppelin/contracts/token/ERC20/ERC20.sol\":6551:6567  to == address(0) */\n  0xffffffffffffffffffffffffffffffffffffffff\n  and\n  sub\n    /* \"@openzeppelin/contracts/token/ERC20/ERC20.sol\":6547:6972  if (to == address(0)) {... */\n  tag_49\n  jumpi\n    /* \"@openzeppelin/contracts/token/ERC20/ERC20.sol\":6730:6735  value */\n  dup1\n    /* \"@openzeppelin/contracts/token/ERC20/ERC20.sol\":6714:6726  _totalSupply */\n  0x02\n  0x00\n    /* \"@openzeppelin/contracts/token/ERC20/ERC20.sol\":6714:6735  _totalSupply -= value */\n  dup3\n  dup3\n  sload\n  sub\n  swap3\n  pop\n  pop\n  dup2\n  swap1\n  sstore\n  pop\n    /* \"@openzeppelin/contracts/token/ERC20/ERC20.sol\":6547:6972  if (to == address(0)) {... */\n  jump(tag_50)\ntag_49:\n    /* \"@openzeppelin/contracts/token/ERC20/ERC20.sol\":6942:6947  value */\n  dup1\n    /* \"@openzeppelin/contracts/token/ERC20/ERC20.sol\":6925:6934  _balances */\n  0x00\n    /* \"@openzeppelin/contracts/token/ERC20/ERC20.sol\":6925:6938  _balances[to] */\n  dup1\n    /* \"@openzeppelin/contracts/token/ERC20/ERC20.sol\":6935:6937  to */\n  dup5\n    /* \"@openzeppelin/contracts/token/ERC20/ERC20.sol\":6925:6938  _balances[to] */\n  0xffffffffffffffffffffffffffffffffffffffff\n  and\n  0xffffffffffffffffffffffffffffffffffffffff\n  and\n  dup2\n  mstore\n  0x20\n  add\n  swap1\n  dup2\n  mstore\n  0x20\n  add\n  0x00\n  keccak256\n  0x00\n    /* \"@openzeppelin/contracts/token/ERC20/ERC20.sol\":6925:6947  _balances[to] += value */\n  dup3\n  dup3\n  sload\n  add\n  swap3\n  pop\n  pop\n  dup2\n  swap1\n  sstore\n  pop\n    /* \"@openzeppelin/contracts/token/ERC20/ERC20.sol\":6547:6972  if (to == address(0)) {... */\ntag_50:\n    /* \"@openzeppelin/contracts/token/ERC20/ERC20.sol\":7002:7004  to */\n  dup2\n    /* \"@openzeppelin/contracts/token/ERC20/ERC20.sol\":6987:7012  Transfer(from, to, value) */\n  0xffffffffffffffffffffffffffffffffffffffff\n  and\n    /* \"@openzeppelin/contracts/token/ERC20/ERC20.sol\":6996:7000  from */\n  dup4\n    /* \"@openzeppelin/contracts/token/ERC20/ERC20.sol\":6987:7012  Transfer(from, to, value) */\n  0xffffffffffffffffffffffffffffffffffffffff\n  and\n  0xddf252ad1be2c89b69c2b068fc378daa952ba7f163c4a11628f55a4df523b3ef\n    /* \"@openzeppelin/contracts/token/ERC20/ERC20.sol\":7006:7011  value */\n  dup4\n    /* \"@openzeppelin/contracts/token/ERC20/ERC20.sol\":6987:7012  Transfer(from, to, value) */\n  mload(0x40)\n  tag_51\n  swap2\n  swap1\n  tag_52\n  jump\t// in\ntag_51:\n  mload(0x40)\n  dup1\n  swap2\n  sub\n  swap1\n  log3\n    /* \"@openzeppelin/contracts/token/ERC20/ERC20.sol\":5912:7019  function _update(address from, address to, uint256 value) internal virtual {... */\n  pop\n  pop\n  pop\n  jump\t// out\n    /* \"#utility.yul\":7:82   */\ntag_53:\n    /* \"#utility.yul\":40:46   */\n  0x00\n    /* \"#utility.yul\":73:75   */\n  0x40\n    /* \"#utility.yul\":67:76   */\n  mload\n    /* \"#utility.yul\":57:76   */\n  swap1\n  pop\n    /* \"#utility.yul\":7:82   */\n  swap1\n  jump\t// out\n    /* \"#utility.yul\":88:205   */\ntag_54:\n    /* \"#utility.yul\":197:198   */\n  0x00\n    /* \"#utility.yul\":194:195   */\n  dup1\n    /* \"#utility.yul\":187:199   */\n  revert\n    /* \"#utility.yul\":211:328   */\ntag_55:\n    /* \"#utility.yul\":320:321   */\n  0x00\n    /* \"#utility.yul\":317:318   */\n  dup1\n    /* \"#utility.yul\":310:322   */\n  revert\n    /* \"#utility.yul\":334:451   */\ntag_56:\n    /* \"#utility.yul\":443:444   */\n  0x00\n    /* \"#utility.yul\":440:441   */\n  dup1\n    /* \"#utility.yul\":433:445   */\n  revert\n    /* \"#utility.yul\":457:574   */\ntag_57:\n    /* \"#utility.yul\":566:567   */\n  0x00\n    /* \"#utility.yul\":563:564   */\n  dup1\n    /* \"#utility.yul\":556:568   */\n  revert\n    /* \"#utility.yul\":580:682   */\ntag_58:\n    /* \"#utility.yul\":621:627   */\n  0x00\n    /* \"#utility.yul\":672:674   */\n  0x1f\n    /* \"#utility.yul\":668:675   */\n  not\n    /* \"#utility.yul\":663:665   */\n  0x1f\n    /* \"#utility.yul\":656:661   */\n  dup4\n    /* \"#utility.yul\":652:666   */\n  add\n    /* \"#utility.yul\":648:676   */\n  and\n    /* \"#utility.yul\":638:676   */\n  swap1\n  pop\n    /* \"#utility.yul\":580:682   */\n  swap2\n  swap1\n  pop\n  jump\t// out\n    /* \"#utility.yul\":688:868   */\ntag_59:\n    /* \"#utility.yul\":736:813   */\n  0x4e487b7100000000000000000000000000000000000000000000000000000000\n    /* \"#utility.yul\":733:734   */\n  0x00\n    /* \"#utility.yul\":726:814   */\n  mstore\n    /* \"#utility.yul\":833:837   */\n  0x41\n    /* \"#utility.yul\":830:831   */\n  0x04\n    /* \"#utility.yul\":823:838   */\n  mstore\n    /* \"#utility.yul\":857:861   */\n  0x24\n    /* \"#utility.yul\":854:855   */\n  0x00\n    /* \"#utility.yul\":847:862   */\n  revert\n    /* \"#utility.yul\":874:1155   */\ntag_60:\n    /* \"#utility.yul\":957:984   */\n  tag_105\n    /* \"#utility.yul\":979:983   */\n  dup3\n    /* \"#utility.yul\":957:984   */\n  tag_58\n  jump\t// in\ntag_105:\n    /* \"#utility.yul\":949:955   */\n  dup2\n    /* \"#utility.yul\":945:985   */\n  add\n    /* \"#utility.yul\":1087:1093   */\n  dup2\n    /* \"#utility.yul\":1075:1085   */\n  dup2\n    /* \"#utility.yul\":1072:1094   */\n  lt\n    /* \"#utility.yul\":1051:1069   */\n  0xffffffffffffffff\n    /* \"#utility.yul\":1039:1049   */\n  dup3\n    /* \"#utility.yul\":1036:1070   */\n  gt\n    /* \"#utility.yul\":1033:1095   */\n  or\n    /* \"#utility.yul\":1030:1118   */\n  iszero\n  tag_106\n  jumpi\n    /* \"#utility.yul\":1098:1116   */\n  tag_107\n  tag_59\n  jump\t// in\ntag_107:\n    /* \"#utility.yul\":1030:1118   */\ntag_106:\n    /* \"#utility.yul\":1138:1148   */\n  dup1\n    /* \"#utility.yul\":1134:1136   */\n  0x40\n    /* \"#utility.yul\":1127:1149   */\n  mstore\n    /* \"#utility.yul\":917:1155   */\n  pop\n    /* \"#utility.yul\":874:1155   */\n  pop\n  pop\n  jump\t// out\n    /* \"#utility.yul\":1161:1290   */\ntag_61:\n    /* \"#utility.yul\":1195:1201   */\n  0x00\n    /* \"#utility.yul\":1222:1242   */\n  tag_109\n  tag_53\n  jump\t// in\ntag_109:\n    /* \"#utility.yul\":1212:1242   */\n  swap1\n  pop\n    /* \"#utility.yul\":1251:1284   */\n  tag_110\n    /* \"#utility.yul\":1279:1283   */\n  dup3\n    /* \"#utility.yul\":1271:1277   */\n  dup3\n    /* \"#utility.yul\":1251:1284   */\n  tag_60\n  jump\t// in\ntag_110:\n    /* \"#utility.yul\":1161:1290   */\n  swap2\n  swap1\n  pop\n  jump\t// out\n    /* \"#utility.yul\":1296:1604   */\ntag_62:\n    /* \"#utility.yul\":1358:1362   */\n  0x00\n    /* \"#utility.yul\":1448:1466   */\n  0xffffffffffffffff\n    /* \"#utility.yul\":1440:1446   */\n  dup3\n    /* \"#utility.yul\":1437:1467   */\n  gt\n    /* \"#utility.yul\":1434:1490   */\n  iszero\n  tag_112\n  jumpi\n    /* \"#utility.yul\":1470:1488   */\n  tag_113\n  tag_59\n  jump\t// in\ntag_113:\n    /* \"#utility.yul\":1434:1490   */\ntag_112:\n    /* \"#utility.yul\":1508:1537   */\n  tag_114\n    /* \"#utility.yul\":1530:1536   */\n  dup3\n    /* \"#utility.yul\":1508:1537   */\n  tag_58\n  jump\t// in\ntag_114:\n    /* \"#utility.yul\":1500:1537   */\n  swap1\n  pop\n    /* \"#utility.yul\":1592:1596   */\n  0x20\n    /* \"#utility.yul\":1586:1590   */\n  dup2\n    /* \"#utility.yul\":1582:1597   */\n  add\n    /* \"#utility.yul\":1574:1597   */\n  swap1\n  pop\n    /* \"#utility.yul\":1296:1604   */\n  swap2\n  swap1\n  pop\n  jump\t// out\n    /* \"#utility.yul\":1610:1856   */\ntag_63:\n    /* \"#utility.yul\":1691:1692   */\n  0x00\n    /* \"#utility.yul\":1701:1814   */\ntag_116:\n    /* \"#utility.yul\":1715:1721   */\n  dup4\n    /* \"#utility.yul\":1712:1713   */\n  dup2\n    /* \"#utility.yul\":1709:1722   */\n  lt\n    /* \"#utility.yul\":1701:1814   */\n  iszero\n  tag_118\n  jumpi\n    /* \"#utility.yul\":1800:1801   */\n  dup1\n    /* \"#utility.yul\":1795:1798   */\n  dup3\n    /* \"#utility.yul\":1791:1802   */\n  add\n    /* \"#utility.yul\":1785:1803   */\n  mload\n    /* \"#utility.yul\":1781:1782   */\n  dup2\n    /* \"#utility.yul\":1776:1779   */\n  dup5\n    /* \"#utility.yul\":1772:1783   */\n  add\n    /* \"#utility.yul\":1765:1804   */\n  mstore\n    /* \"#utility.yul\":1737:1739   */\n  0x20\n    /* \"#utility.yul\":1734:1735   */\n  dup2\n    /* \"#utility.yul\":1730:1740   */\n  add\n    /* \"#utility.yul\":1725:1740   */\n  swap1\n  pop\n    /* \"#utility.yul\":1701:1814   */\n  jump(tag_116)\ntag_118:\n    /* \"#utility.yul\":1848:1849   */\n  0x00\n    /* \"#utility.yul\":1839:1845   */\n  dup5\n    /* \"#utility.yul\":1834:1837   */\n  dup5\n    /* \"#utility.yul\":1830:1846   */\n  add\n    /* \"#utility.yul\":1823:1850   */\n  mstore\n    /* \"#utility.yul\":1672:1856   */\n  pop\n    /* \"#utility.yul\":1610:1856   */\n  pop\n  pop\n  pop\n  jump\t// out\n    /* \"#utility.yul\":1862:2296   */\ntag_64:\n    /* \"#utility.yul\":1951:1956   */\n  0x00\n    /* \"#utility.yul\":1976:2042   */\n  tag_120\n    /* \"#utility.yul\":1992:2041   */\n  tag_121\n    /* \"#utility.yul\":2034:2040   */\n  dup5\n    /* \"#utility.yul\":1992:2041   */\n  tag_62\n  jump\t// in\ntag_121:\n    /* \"#utility.yul\":1976:2042   */\n  tag_61\n  jump\t// in\ntag_120:\n    /* \"#utility.yul\":1967:2042   */\n  swap1\n  pop\n    /* \"#utility.yul\":2065:2071   */\n  dup3\n    /* \"#utility.yul\":2058:2063   */\n  dup2\n    /* \"#utility.yul\":2051:2072   */\n  mstore\n    /* \"#utility.yul\":2103:2107   */\n  0x20\n    /* \"#utility.yul\":2096:2101   */\n  dup2\n    /* \"#utility.yul\":2092:2108   */\n  add\n    /* \"#utility.yul\":2141:2144   */\n  dup5\n    /* \"#utility.yul\":2132:2138   */\n  dup5\n    /* \"#utility.yul\":2127:2130   */\n  dup5\n    /* \"#utility.yul\":2123:2139   */\n  add\n    /* \"#utility.yul\":2120:2145   */\n  gt\n    /* \"#utility.yul\":2117:2229   */\n  iszero\n  tag_122\n  jumpi\n    /* \"#utility.yul\":2148:2227   */\n  tag_123\n  tag_57\n  jump\t// in\ntag_123:\n    /* \"#utility.yul\":2117:2229   */\ntag_122:\n    /* \"#utility.yul\":2238:2290   */\n  tag_124\n    /* \"#utility.yul\":2283:2289   */\n  dup5\n    /* \"#utility.yul\":2278:2281   */\n  dup3\n    /* \"#utility.yul\":2273:2276   */\n  dup6\n    /* \"#utility.yul\":2238:2290   */\n  tag_63\n  jump\t// in\ntag_124:\n    /* \"#utility.yul\":1957:2296   */\n  pop\n    /* \"#utility.yul\":1862:2296   */\n  swap4\n  swap3\n  pop\n  pop\n  pop\n  jump\t// out\n    /* \"#utility.yul\":2316:2671   */\ntag_65:\n    /* \"#utility.yul\":2383:2388   */\n  0x00\n    /* \"#utility.yul\":2432:2435   */\n  dup3\n    /* \"#utility.yul\":2425:2429   */\n  0x1f\n    /* \"#utility.yul\":2417:2423   */\n  dup4\n    /* \"#utility.yul\":2413:2430   */\n  add\n    /* \"#utility.yul\":2409:2436   */\n  slt\n    /* \"#utility.yul\":2399:2521   */\n  tag_126\n  jumpi\n    /* \"#utility.yul\":2440:2519   */\n  tag_127\n  tag_56\n  jump\t// in\ntag_127:\n    /* \"#utility.yul\":2399:2521   */\ntag_126:\n    /* \"#utility.yul\":2550:2556   */\n  dup2\n    /* \"#utility.yul\":2544:2557   */\n  mload\n    /* \"#utility.yul\":2575:2665   */\n  tag_128\n    /* \"#utility.yul\":2661:2664   */\n  dup5\n    /* \"#utility.yul\":2653:2659   */\n  dup3\n    /* \"#utility.yul\":2646:2650   */\n  0x20\n    /* \"#utility.yul\":2638:2644   */\n  dup7\n    /* \"#utility.yul\":2634:2651   */\n  add\n    /* \"#utility.yul\":2575:2665   */\n  tag_64\n  jump\t// in\ntag_128:\n    /* \"#utility.yul\":2566:2665   */\n  swap2\n  pop\n    /* \"#utility.yul\":2389:2671   */\n  pop\n    /* \"#utility.yul\":2316:2671   */\n  swap3\n  swap2\n  pop\n  pop\n  jump\t// out\n    /* \"#utility.yul\":2677:2754   */\ntag_66:\n    /* \"#utility.yul\":2714:2721   */\n  0x00\n    /* \"#utility.yul\":2743:2748   */\n  dup2\n    /* \"#utility.yul\":2732:2748   */\n  swap1\n  pop\n    /* \"#utility.yul\":2677:2754   */\n  swap2\n  swap1\n  pop\n  jump\t// out\n    /* \"#utility.yul\":2760:2882   */\ntag_67:\n    /* \"#utility.yul\":2833:2857   */\n  tag_131\n    /* \"#utility.yul\":2851:2856   */\n  dup2\n    /* \"#utility.yul\":2833:2857   */\n  tag_66\n  jump\t// in\ntag_131:\n    /* \"#utility.yul\":2826:2831   */\n  dup2\n    /* \"#utility.yul\":2823:2858   */\n  eq\n    /* \"#utility.yul\":2813:2876   */\n  tag_132\n  jumpi\n    /* \"#utility.yul\":2872:2873   */\n  0x00\n    /* \"#utility.yul\":2869:2870   */\n  dup1\n    /* \"#utility.yul\":2862:2874   */\n  revert\n    /* \"#utility.yul\":2813:2876   */\ntag_132:\n    /* \"#utility.yul\":2760:2882   */\n  pop\n  jump\t// out\n    /* \"#utility.yul\":2888:3031   */\ntag_68:\n    /* \"#utility.yul\":2945:2950   */\n  0x00\n    /* \"#utility.yul\":2976:2982   */\n  dup2\n    /* \"#utility.yul\":2970:2983   */\n  mload\n    /* \"#utility.yul\":2961:2983   */\n  swap1\n  pop\n    /* \"#utility.yul\":2992:3025   */\n  tag_134\n    /* \"#utility.yul\":3019:3024   */\n  dup2\n    /* \"#utility.yul\":2992:3025   */\n  tag_67\n  jump\t// in\ntag_134:\n    /* \"#utility.yul\":2888:3031   */\n  swap3\n  swap2\n  pop\n  pop\n  jump\t// out\n    /* \"#utility.yul\":3037:4203   */\ntag_3:\n    /* \"#utility.yul\":3154:3160   */\n  0x00\n    /* \"#utility.yul\":3162:3168   */\n  dup1\n    /* \"#utility.yul\":3170:3176   */\n  0x00\n    /* \"#utility.yul\":3178:3184   */\n  dup1\n    /* \"#utility.yul\":3227:3230   */\n  0x80\n    /* \"#utility.yul\":3215:3224   */\n  dup6\n    /* \"#utility.yul\":3206:3213   */\n  dup8\n    /* \"#utility.yul\":3202:3225   */\n  sub\n    /* \"#utility.yul\":3198:3231   */\n  slt\n    /* \"#utility.yul\":3195:3315   */\n  iszero\n  tag_136\n  jumpi\n    /* \"#utility.yul\":3234:3313   */\n  tag_137\n  tag_54\n  jump\t// in\ntag_137:\n    /* \"#utility.yul\":3195:3315   */\ntag_136:\n    /* \"#utility.yul\":3375:3376   */\n  0x00\n    /* \"#utility.yul\":3364:3373   */\n  dup6\n    /* \"#utility.yul\":3360:3377   */\n  add\n    /* \"#utility.yul\":3354:3378   */\n  mload\n    /* \"#utility.yul\":3405:3423   */\n  0xffffffffffffffff\n    /* \"#utility.yul\":3397:3403   */\n  dup2\n    /* \"#utility.yul\":3394:3424   */\n  gt\n    /* \"#utility.yul\":3391:3508   */\n  iszero\n  tag_138\n  jumpi\n    /* \"#utility.yul\":3427:3506   */\n  tag_139\n  tag_55\n  jump\t// in\ntag_139:\n    /* \"#utility.yul\":3391:3508   */\ntag_138:\n    /* \"#utility.yul\":3532:3606   */\n  tag_140\n    /* \"#utility.yul\":3598:3605   */\n  dup8\n    /* \"#utility.yul\":3589:3595   */\n  dup3\n    /* \"#utility.yul\":3578:3587   */\n  dup9\n    /* \"#utility.yul\":3574:3596   */\n  add\n    /* \"#utility.yul\":3532:3606   */\n  tag_65\n  jump\t// in\ntag_140:\n    /* \"#utility.yul\":3522:3606   */\n  swap5\n  pop\n    /* \"#utility.yul\":3325:3616   */\n  pop\n    /* \"#utility.yul\":3676:3678   */\n  0x20\n    /* \"#utility.yul\":3665:3674   */\n  dup6\n    /* \"#utility.yul\":3661:3679   */\n  add\n    /* \"#utility.yul\":3655:3680   */\n  mload\n    /* \"#utility.yul\":3707:3725   */\n  0xffffffffffffffff\n    /* \"#utility.yul\":3699:3705   */\n  dup2\n    /* \"#utility.yul\":3696:3726   */\n  gt\n    /* \"#utility.yul\":3693:3810   */\n  iszero\n  tag_141\n  jumpi\n    /* \"#utility.yul\":3729:3808   */\n  tag_142\n  tag_55\n  jump\t// in\ntag_142:\n    /* \"#utility.yul\":3693:3810   */\ntag_141:\n    /* \"#utility.yul\":3834:3908   */\n  tag_143\n    /* \"#utility.yul\":3900:3907   */\n  dup8\n    /* \"#utility.yul\":3891:3897   */\n  dup3\n    /* \"#utility.yul\":3880:3889   */\n  dup9\n    /* \"#utility.yul\":3876:3898   */\n  add\n    /* \"#utility.yul\":3834:3908   */\n  tag_65\n  jump\t// in\ntag_143:\n    /* \"#utility.yul\":3824:3908   */\n  swap4\n  pop\n    /* \"#utility.yul\":3626:3918   */\n  pop\n    /* \"#utility.yul\":3957:3959   */\n  0x40\n    /* \"#utility.yul\":3983:4047   */\n  tag_144\n    /* \"#utility.yul\":4039:4046   */\n  dup8\n    /* \"#utility.yul\":4030:4036   */\n  dup3\n    /* \"#utility.yul\":4019:4028   */\n  dup9\n    /* \"#utility.yul\":4015:4037   */\n  add\n    /* \"#utility.yul\":3983:4047   */\n  tag_68\n  jump\t// in\ntag_144:\n    /* \"#utility.yul\":3973:4047   */\n  swap3\n  pop\n    /* \"#utility.yul\":3928:4057   */\n  pop\n    /* \"#utility.yul\":4096:4098   */\n  0x60\n    /* \"#utility.yul\":4122:4186   */\n  tag_145\n    /* \"#utility.yul\":4178:4185   */\n  dup8\n    /* \"#utility.yul\":4169:4175   */\n  dup3\n    /* \"#utility.yul\":4158:4167   */\n  dup9\n    /* \"#utility.yul\":4154:4176   */\n  add\n    /* \"#utility.yul\":4122:4186   */\n  tag_68\n  jump\t// in\ntag_145:\n    /* \"#utility.yul\":4112:4186   */\n  swap2\n  pop\n    /* \"#utility.yul\":4067:4196   */\n  pop\n    /* \"#utility.yul\":3037:4203   */\n  swap3\n  swap6\n  swap2\n  swap5\n  pop\n  swap3\n  pop\n  jump\t// out\n    /* \"#utility.yul\":4209:4308   */\ntag_69:\n    /* \"#utility.yul\":4261:4267   */\n  0x00\n    /* \"#utility.yul\":4295:4300   */\n  dup2\n    /* \"#utility.yul\":4289:4301   */\n  mload\n    /* \"#utility.yul\":4279:4301   */\n  swap1\n  pop\n    /* \"#utility.yul\":4209:4308   */\n  swap2\n  swap1\n  pop\n  jump\t// out\n    /* \"#utility.yul\":4314:4494   */\ntag_70:\n    /* \"#utility.yul\":4362:4439   */\n  0x4e487b7100000000000000000000000000000000000000000000000000000000\n    /* \"#utility.yul\":4359:4360   */\n  0x00\n    /* \"#utility.yul\":4352:4440   */\n  mstore\n    /* \"#utility.yul\":4459:4463   */\n  0x22\n    /* \"#utility.yul\":4456:4457   */\n  0x04\n    /* \"#utility.yul\":4449:4464   */\n  mstore\n    /* \"#utility.yul\":4483:4487   */\n  0x24\n    /* \"#utility.yul\":4480:4481   */\n  0x00\n    /* \"#utility.yul\":4473:4488   */\n  revert\n    /* \"#utility.yul\":4500:4820   */\ntag_71:\n    /* \"#utility.yul\":4544:4550   */\n  0x00\n    /* \"#utility.yul\":4581:4582   */\n  0x02\n    /* \"#utility.yul\":4575:4579   */\n  dup3\n    /* \"#utility.yul\":4571:4583   */\n  div\n    /* \"#utility.yul\":4561:4583   */\n  swap1\n  pop\n    /* \"#utility.yul\":4628:4629   */\n  0x01\n    /* \"#utility.yul\":4622:4626   */\n  dup3\n    /* \"#utility.yul\":4618:4630   */\n  and\n    /* \"#utility.yul\":4649:4667   */\n  dup1\n    /* \"#utility.yul\":4639:4720   */\n  tag_149\n  jumpi\n    /* \"#utility.yul\":4705:4709   */\n  0x7f\n    /* \"#utility.yul\":4697:4703   */\n  dup3\n    /* \"#utility.yul\":4693:4710   */\n  and\n    /* \"#utility.yul\":4683:4710   */\n  swap2\n  pop\n    /* \"#utility.yul\":4639:4720   */\ntag_149:\n    /* \"#utility.yul\":4767:4769   */\n  0x20\n    /* \"#utility.yul\":4759:4765   */\n  dup3\n    /* \"#utility.yul\":4756:4770   */\n  lt\n    /* \"#utility.yul\":4736:4754   */\n  dup2\n    /* \"#utility.yul\":4733:4771   */\n  sub\n    /* \"#utility.yul\":4730:4814   */\n  tag_150\n  jumpi\n    /* \"#utility.yul\":4786:4804   */\n  tag_151\n  tag_70\n  jump\t// in\ntag_151:\n    /* \"#utility.yul\":4730:4814   */\ntag_150:\n    /* \"#utility.yul\":4551:4820   */\n  pop\n    /* \"#utility.yul\":4500:4820   */\n  swap2\n  swap1\n  pop\n  jump\t// out\n    /* \"#utility.yul\":4826:4967   */\ntag_72:\n    /* \"#utility.yul\":4875:4879   */\n  0x00\n    /* \"#utility.yul\":4898:4901   */\n  dup2\n    /* \"#utility.yul\":4890:4901   */\n  swap1\n  pop\n    /* \"#utility.yul\":4921:4924   */\n  dup2\n    /* \"#utility.yul\":4918:4919   */\n  0x00\n    /* \"#utility.yul\":4911:4925   */\n  mstore\n    /* \"#utility.yul\":4955:4959   */\n  0x20\n    /* \"#utility.yul\":4952:4953   */\n  0x00\n    /* \"#utility.yul\":4942:4960   */\n  keccak256\n    /* \"#utility.yul\":4934:4960   */\n  swap1\n  pop\n    /* \"#utility.yul\":4826:4967   */\n  swap2\n  swap1\n  pop\n  jump\t// out\n    /* \"#utility.yul\":4973:5066   */\ntag_73:\n    /* \"#utility.yul\":5010:5016   */\n  0x00\n    /* \"#utility.yul\":5057:5059   */\n  0x20\n    /* \"#utility.yul\":5052:5054   */\n  0x1f\n    /* \"#utility.yul\":5045:5050   */\n  dup4\n    /* \"#utility.yul\":5041:5055   */\n  add\n    /* \"#utility.yul\":5037:5060   */\n  div\n    /* \"#utility.yul\":5027:5060   */\n  swap1\n  pop\n    /* \"#utility.yul\":4973:5066   */\n  swap2\n  swap1\n  pop\n  jump\t// out\n    /* \"#utility.yul\":5072:5179   */\ntag_74:\n    /* \"#utility.yul\":5116:5124   */\n  0x00\n    /* \"#utility.yul\":5166:5171   */\n  dup3\n    /* \"#utility.yul\":5160:5164   */\n  dup3\n    /* \"#utility.yul\":5156:5172   */\n  shl\n    /* \"#utility.yul\":5135:5172   */\n  swap1\n  pop\n    /* \"#utility.yul\":5072:5179   */\n  swap3\n  swap2\n  pop\n  pop\n  jump\t// out\n    /* \"#utility.yul\":5185:5578   */\ntag_75:\n    /* \"#utility.yul\":5254:5260   */\n  0x00\n    /* \"#utility.yul\":5304:5305   */\n  0x08\n    /* \"#utility.yul\":5292:5302   */\n  dup4\n    /* \"#utility.yul\":5288:5306   */\n  mul\n    /* \"#utility.yul\":5327:5424   */\n  tag_156\n    /* \"#utility.yul\":5357:5423   */\n  0xffffffffffffffffffffffffffffffffffffffffffffffffffffffffffffffff\n    /* \"#utility.yul\":5346:5355   */\n  dup3\n    /* \"#utility.yul\":5327:5424   */\n  tag_74\n  jump\t// in\ntag_156:\n    /* \"#utility.yul\":5445:5484   */\n  tag_157\n    /* \"#utility.yul\":5475:5483   */\n  dup7\n    /* \"#utility.yul\":5464:5473   */\n  dup4\n    /* \"#utility.yul\":5445:5484   */\n  tag_74\n  jump\t// in\ntag_157:\n    /* \"#utility.yul\":5433:5484   */\n  swap6\n  pop\n    /* \"#utility.yul\":5517:5521   */\n  dup1\n    /* \"#utility.yul\":5513:5522   */\n  not\n    /* \"#utility.yul\":5506:5511   */\n  dup5\n    /* \"#utility.yul\":5502:5523   */\n  and\n    /* \"#utility.yul\":5493:5523   */\n  swap4\n  pop\n    /* \"#utility.yul\":5566:5570   */\n  dup1\n    /* \"#utility.yul\":5556:5564   */\n  dup7\n    /* \"#utility.yul\":5552:5571   */\n  and\n    /* \"#utility.yul\":5545:5550   */\n  dup5\n    /* \"#utility.yul\":5542:5572   */\n  or\n    /* \"#utility.yul\":5532:5572   */\n  swap3\n  pop\n    /* \"#utility.yul\":5261:5578   */\n  pop\n  pop\n    /* \"#utility.yul\":5185:5578   */\n  swap4\n  swap3\n  pop\n  pop\n  pop\n  jump\t// out\n    /* \"#utility.yul\":5584:5644   */\ntag_76:\n    /* \"#utility.yul\":5612:5615   */\n  0x00\n    /* \"#utility.yul\":5633:5638   */\n  dup2\n    /* \"#utility.yul\":5626:5638   */\n  swap1\n  pop\n    /* \"#utility.yul\":5584:5644   */\n  swap2\n  swap1\n  pop\n  jump\t// out\n    /* \"#utility.yul\":5650:5792   */\ntag_77:\n    /* \"#utility.yul\":5700:5709   */\n  0x00\n    /* \"#utility.yul\":5733:5786   */\n  tag_160\n    /* \"#utility.yul\":5751:5785   */\n  tag_161\n    /* \"#utility.yul\":5760:5784   */\n  tag_162\n    /* \"#utility.yul\":5778:5783   */\n  dup5\n    /* \"#utility.yul\":5760:5784   */\n  tag_66\n  jump\t// in\ntag_162:\n    /* \"#utility.yul\":5751:5785   */\n  tag_76\n  jump\t// in\ntag_161:\n    /* \"#utility.yul\":5733:5786   */\n  tag_66\n  jump\t// in\ntag_160:\n    /* \"#utility.yul\":5720:5786   */\n  swap1\n  pop\n    /* \"#utility.yul\":5650:5792   */\n  swap2\n  swap1\n  pop\n  jump\t// out\n    /* \"#utility.yul\":5798:5873   */\ntag_78:\n    /* \"#utility.yul\":5841:5844   */\n  0x00\n    /* \"#utility.yul\":5862:5867   */\n  dup2\n    /* \"#utility.yul\":5855:5867   */\n  swap1\n  pop\n    /* \"#utility.yul\":5798:5873   */\n  swap2\n  swap1\n  pop\n  jump\t// out\n    /* \"#utility.yul\":5879:6148   */\ntag_79:\n    /* \"#utility.yul\":5989:6028   */\n  tag_165\n    /* \"#utility.yul\":6020:6027   */\n  dup4\n    /* \"#utility.yul\":5989:6028   */\n  tag_77\n  jump\t// in\ntag_165:\n    /* \"#utility.yul\":6050:6141   */\n  tag_166\n    /* \"#utility.yul\":6099:6140   */\n  tag_167\n    /* \"#utility.yul\":6123:6139   */\n  dup3\n    /* \"#utility.yul\":6099:6140   */\n  tag_78\n  jump\t// in\ntag_167:\n    /* \"#utility.yul\":6091:6097   */\n  dup5\n    /* \"#utility.yul\":6084:6088   */\n  dup5\n    /* \"#utility.yul\":6078:6089   */\n  sload\n    /* \"#utility.yul\":6050:6141   */\n  tag_75\n  jump\t// in\ntag_166:\n    /* \"#utility.yul\":6044:6048   */\n  dup3\n    /* \"#utility.yul\":6037:6142   */\n  sstore\n    /* \"#utility.yul\":5955:6148   */\n  pop\n    /* \"#utility.yul\":5879:6148   */\n  pop\n  pop\n  pop\n  jump\t// out\n    /* \"#utility.yul\":6154:6227   */\ntag_80:\n    /* \"#utility.yul\":6199:6202   */\n  0x00\n    /* \"#utility.yul\":6154:6227   */\n  swap1\n  jump\t// out\n    /* \"#utility.yul\":6233:6422   */\ntag_81:\n    /* \"#utility.yul\":6310:6342   */\n  tag_170\n  tag_80\n  jump\t// in\ntag_170:\n    /* \"#utility.yul\":6351:6416   */\n  tag_171\n    /* \"#utility.yul\":6409:6415   */\n  dup2\n    /* \"#utility.yul\":6401:6407   */\n  dup5\n    /* \"#utility.yul\":6395:6399   */\n  dup5\n    /* \"#utility.yul\":6351:6416   */\n  tag_79\n  jump\t// in\ntag_171:\n    /* \"#utility.yul\":6286:6422   */\n  pop\n    /* \"#utility.yul\":6233:6422   */\n  pop\n  pop\n  jump\t// out\n    /* \"#utility.yul\":6428:6614   */\ntag_82:\n    /* \"#utility.yul\":6488:6608   */\ntag_173:\n    /* \"#utility.yul\":6505:6508   */\n  dup2\n    /* \"#utility.yul\":6498:6503   */\n  dup2\n    /* \"#utility.yul\":6495:6509   */\n  lt\n    /* \"#utility.yul\":6488:6608   */\n  iszero\n  tag_175\n  jumpi\n    /* \"#utility.yul\":6559:6598   */\n  tag_176\n    /* \"#utility.yul\":6596:6597   */\n  0x00\n    /* \"#utility.yul\":6589:6594   */\n  dup3\n    /* \"#utility.yul\":6559:6598   */\n  tag_81\n  jump\t// in\ntag_176:\n    /* \"#utility.yul\":6532:6533   */\n  0x01\n    /* \"#utility.yul\":6525:6530   */\n  dup2\n    /* \"#utility.yul\":6521:6534   */\n  add\n    /* \"#utility.yul\":6512:6534   */\n  swap1\n  pop\n    /* \"#utility.yul\":6488:6608   */\n  jump(tag_173)\ntag_175:\n    /* \"#utility.yul\":6428:6614   */\n  pop\n  pop\n  jump\t// out\n    /* \"#utility.yul\":6620:7163   */\ntag_83:\n    /* \"#utility.yul\":6721:6723   */\n  0x1f\n    /* \"#utility.yul\":6716:6719   */\n  dup3\n    /* \"#utility.yul\":6713:6724   */\n  gt\n    /* \"#utility.yul\":6710:7156   */\n  iszero\n  tag_178\n  jumpi\n    /* \"#utility.yul\":6755:6793   */\n  tag_179\n    /* \"#utility.yul\":6787:6792   */\n  dup2\n    /* \"#utility.yul\":6755:6793   */\n  tag_72\n  jump\t// in\ntag_179:\n    /* \"#utility.yul\":6839:6868   */\n  tag_180\n    /* \"#utility.yul\":6857:6867   */\n  dup5\n    /* \"#utility.yul\":6839:6868   */\n  tag_73\n  jump\t// in\ntag_180:\n    /* \"#utility.yul\":6829:6837   */\n  dup2\n    /* \"#utility.yul\":6825:6869   */\n  add\n    /* \"#utility.yul\":7022:7024   */\n  0x20\n    /* \"#utility.yul\":7010:7020   */\n  dup6\n    /* \"#utility.yul\":7007:7025   */\n  lt\n    /* \"#utility.yul\":7004:7053   */\n  iszero\n  tag_181\n  jumpi\n    /* \"#utility.yul\":7043:7051   */\n  dup2\n    /* \"#utility.yul\":7028:7051   */\n  swap1\n  pop\n    /* \"#utility.yul\":7004:7053   */\ntag_181:\n    /* \"#utility.yul\":7066:7146   */\n  tag_182\n    /* \"#utility.yul\":7122:7144   */\n  tag_183\n    /* \"#utility.yul\":7140:7143   */\n  dup6\n    /* \"#utility.yul\":7122:7144   */\n  tag_73\n  jump\t// in\ntag_183:\n    /* \"#utility.yul\":7112:7120   */\n  dup4\n    /* \"#utility.yul\":7108:7145   */\n  add\n    /* \"#utility.yul\":7095:7106   */\n  dup3\n    /* \"#utility.yul\":7066:7146   */\n  tag_82\n  jump\t// in\ntag_182:\n    /* \"#utility.yul\":6725:7156   */\n  pop\n  pop\n    /* \"#utility.yul\":6710:7156   */\ntag_178:\n    /* \"#utility.yul\":6620:7163   */\n  pop\n  pop\n  pop\n  jump\t// out\n    /* \"#utility.yul\":7169:7286   */\ntag_84:\n    /* \"#utility.yul\":7223:7231   */\n  0x00\n    /* \"#utility.yul\":7273:7278   */\n  dup3\n    /* \"#utility.yul\":7267:7271   */\n  dup3\n    /* \"#utility.yul\":7263:7279   */\n  shr\n    /* \"#utility.yul\":7242:7279   */\n  swap1\n  pop\n    /* \"#utility.yul\":7169:7286   */\n  swap3\n  swap2\n  pop\n  pop\n  jump\t// out\n    /* \"#utility.yul\":7292:7461   */\ntag_85:\n    /* \"#utility.yul\":7336:7342   */\n  0x00\n    /* \"#utility.yul\":7369:7420   */\n  tag_186\n    /* \"#utility.yul\":7417:7418   */\n  0x00\n    /* \"#utility.yul\":7413:7419   */\n  not\n    /* \"#utility.yul\":7405:7410   */\n  dup5\n    /* \"#utility.yul\":7402:7403   */\n  0x08\n    /* \"#utility.yul\":7398:7411   */\n  mul\n    /* \"#utility.yul\":7369:7420   */\n  tag_84\n  jump\t// in\ntag_186:\n    /* \"#utility.yul\":7365:7421   */\n  not\n    /* \"#utility.yul\":7450:7454   */\n  dup1\n    /* \"#utility.yul\":7444:7448   */\n  dup4\n    /* \"#utility.yul\":7440:7455   */\n  and\n    /* \"#utility.yul\":7430:7455   */\n  swap2\n  pop\n    /* \"#utility.yul\":7343:7461   */\n  pop\n    /* \"#utility.yul\":7292:7461   */\n  swap3\n  swap2\n  pop\n  pop\n  jump\t// out\n    /* \"#utility.yul\":7466:7761   */\ntag_86:\n    /* \"#utility.yul\":7542:7546   */\n  0x00\n    /* \"#utility.yul\":7688:7717   */\n  tag_188\n    /* \"#utility.yul\":7713:7716   */\n  dup4\n    /* \"#utility.yul\":7707:7711   */\n  dup4\n    /* \"#utility.yul\":7688:7717   */\n  tag_85\n  jump\t// in\ntag_188:\n    /* \"#utility.yul\":7680:7717   */\n  swap2\n  pop\n    /* \"#utility.yul\":7750:7753   */\n  dup3\n    /* \"#utility.yul\":7747:7748   */\n  0x02\n    /* \"#utility.yul\":7743:7754   */\n  mul\n    /* \"#utility.yul\":7737:7741   */\n  dup3\n    /* \"#utility.yul\":7734:7755   */\n  or\n    /* \"#utility.yul\":7726:7755   */\n  swap1\n  pop\n    /* \"#utility.yul\":7466:7761   */\n  swap3\n  swap2\n  pop\n  pop\n  jump\t// out\n    /* \"#utility.yul\":7766:9161   */\ntag_9:\n    /* \"#utility.yul\":7883:7920   */\n  tag_190\n    /* \"#utility.yul\":7916:7919   */\n  dup3\n    /* \"#utility.yul\":7883:7920   */\n  tag_69\n  jump\t// in\ntag_190:\n    /* \"#utility.yul\":7985:8003   */\n  0xffffffffffffffff\n    /* \"#utility.yul\":7977:7983   */\n  dup2\n    /* \"#utility.yul\":7974:8004   */\n  gt\n    /* \"#utility.yul\":7971:8027   */\n  iszero\n  tag_191\n  jumpi\n    /* \"#utility.yul\":8007:8025   */\n  tag_192\n  tag_59\n  jump\t// in\ntag_192:\n    /* \"#utility.yul\":7971:8027   */\ntag_191:\n    /* \"#utility.yul\":8051:8089   */\n  tag_193\n    /* \"#utility.yul\":8083:8087   */\n  dup3\n    /* \"#utility.yul\":8077:8088   */\n  sload\n    /* \"#utility.yul\":8051:8089   */\n  tag_71\n  jump\t// in\ntag_193:\n    /* \"#utility.yul\":8136:8203   */\n  tag_194\n    /* \"#utility.yul\":8196:8202   */\n  dup3\n    /* \"#utility.yul\":8188:8194   */\n  dup3\n    /* \"#utility.yul\":8182:8186   */\n  dup6\n    /* \"#utility.yul\":8136:8203   */\n  tag_83\n  jump\t// in\ntag_194:\n    /* \"#utility.yul\":8230:8231   */\n  0x00\n    /* \"#utility.yul\":8254:8258   */\n  0x20\n    /* \"#utility.yul\":8241:8258   */\n  swap1\n  pop\n    /* \"#utility.yul\":8286:8288   */\n  0x1f\n    /* \"#utility.yul\":8278:8284   */\n  dup4\n    /* \"#utility.yul\":8275:8289   */\n  gt\n    /* \"#utility.yul\":8303:8304   */\n  0x01\n    /* \"#utility.yul\":8298:8916   */\n  dup2\n  eq\n  tag_196\n  jumpi\n    /* \"#utility.yul\":8960:8961   */\n  0x00\n    /* \"#utility.yul\":8977:8983   */\n  dup5\n    /* \"#utility.yul\":8974:9051   */\n  iszero\n  tag_197\n  jumpi\n    /* \"#utility.yul\":9026:9035   */\n  dup3\n    /* \"#utility.yul\":9021:9024   */\n  dup8\n    /* \"#utility.yul\":9017:9036   */\n  add\n    /* \"#utility.yul\":9011:9037   */\n  mload\n    /* \"#utility.yul\":9002:9037   */\n  swap1\n  pop\n    /* \"#utility.yul\":8974:9051   */\ntag_197:\n    /* \"#utility.yul\":9077:9144   */\n  tag_198\n    /* \"#utility.yul\":9137:9143   */\n  dup6\n    /* \"#utility.yul\":9130:9135   */\n  dup3\n    /* \"#utility.yul\":9077:9144   */\n  tag_86\n  jump\t// in\ntag_198:\n    /* \"#utility.yul\":9071:9075   */\n  dup7\n    /* \"#utility.yul\":9064:9145   */\n  sstore\n    /* \"#utility.yul\":8933:9155   */\n  pop\n    /* \"#utility.yul\":8268:9155   */\n  jump(tag_195)\n    /* \"#utility.yul\":8298:8916   */\ntag_196:\n    /* \"#utility.yul\":8350:8354   */\n  0x1f\n    /* \"#utility.yul\":8346:8355   */\n  not\n    /* \"#utility.yul\":8338:8344   */\n  dup5\n    /* \"#utility.yul\":8334:8356   */\n  and\n    /* \"#utility.yul\":8384:8421   */\n  tag_199\n    /* \"#utility.yul\":8416:8420   */\n  dup7\n    /* \"#utility.yul\":8384:8421   */\n  tag_72\n  jump\t// in\ntag_199:\n    /* \"#utility.yul\":8443:8444   */\n  0x00\n    /* \"#utility.yul\":8457:8665   */\ntag_200:\n    /* \"#utility.yul\":8471:8478   */\n  dup3\n    /* \"#utility.yul\":8468:8469   */\n  dup2\n    /* \"#utility.yul\":8465:8479   */\n  lt\n    /* \"#utility.yul\":8457:8665   */\n  iszero\n  tag_202\n  jumpi\n    /* \"#utility.yul\":8550:8559   */\n  dup5\n    /* \"#utility.yul\":8545:8548   */\n  dup10\n    /* \"#utility.yul\":8541:8560   */\n  add\n    /* \"#utility.yul\":8535:8561   */\n  mload\n    /* \"#utility.yul\":8527:8533   */\n  dup3\n    /* \"#utility.yul\":8520:8562   */\n  sstore\n    /* \"#utility.yul\":8601:8602   */\n  0x01\n    /* \"#utility.yul\":8593:8599   */\n  dup3\n    /* \"#utility.yul\":8589:8603   */\n  add\n    /* \"#utility.yul\":8579:8603   */\n  swap2\n  pop\n    /* \"#utility.yul\":8648:8650   */\n  0x20\n    /* \"#utility.yul\":8637:8646   */\n  dup6\n    /* \"#utility.yul\":8633:8651   */\n  add\n    /* \"#utility.yul\":8620:8651   */\n  swap5\n  pop\n    /* \"#utility.yul\":8494:8498   */\n  0x20\n    /* \"#utility.yul\":8491:8492   */\n  dup2\n    /* \"#utility.yul\":8487:8499   */\n  add\n    /* \"#utility.yul\":8482:8499   */\n  swap1\n  pop\n    /* \"#utility.yul\":8457:8665   */\n  jump(tag_200)\ntag_202:\n    /* \"#utility.yul\":8693:8699   */\n  dup7\n    /* \"#utility.yul\":8684:8691   */\n  dup4\n    /* \"#utility.yul\":8681:8700   */\n  lt\n    /* \"#utility.yul\":8678:8857   */\n  iszero\n  tag_203\n  jumpi\n    /* \"#utility.yul\":8751:8760   */\n  dup5\n    /* \"#utility.yul\":8746:8749   */\n  dup10\n    /* \"#utility.yul\":8742:8761   */\n  add\n    /* \"#utility.yul\":8736:8762   */\n  mload\n    /* \"#utility.yul\":8794:8842   */\n  tag_204\n    /* \"#utility.yul\":8836:8840   */\n  0x1f\n    /* \"#utility.yul\":8828:8834   */\n  dup10\n    /* \"#utility.yul\":8824:8841   */\n  and\n    /* \"#utility.yul\":8813:8822   */\n  dup3\n    /* \"#utility.yul\":8794:8842   */\n  tag_85\n  jump\t// in\ntag_204:\n    /* \"#utility.yul\":8786:8792   */\n  dup4\n    /* \"#utility.yul\":8779:8843   */\n  sstore\n    /* \"#utility.yul\":8701:8857   */\n  pop\n    /* \"#utility.yul\":8678:8857   */\ntag_203:\n    /* \"#utility.yul\":8903:8904   */\n  0x01\n    /* \"#utility.yul\":8899:8900   */\n  0x02\n    /* \"#utility.yul\":8891:8897   */\n  dup9\n    /* \"#utility.yul\":8887:8901   */\n  mul\n    /* \"#utility.yul\":8883:8905   */\n  add\n    /* \"#utility.yul\":8877:8881   */\n  dup9\n    /* \"#utility.yul\":8870:8906   */\n  sstore\n    /* \"#utility.yul\":8305:8916   */\n  pop\n  pop\n  pop\n    /* \"#utility.yul\":8268:9155   */\ntag_195:\n  pop\n    /* \"#utility.yul\":7858:9161   */\n  pop\n  pop\n  pop\n    /* \"#utility.yul\":7766:9161   */\n  pop\n  pop\n  jump\t// out\n    /* \"#utility.yul\":9167:9293   */\ntag_87:\n    /* \"#utility.yul\":9204:9211   */\n  0x00\n    /* \"#utility.yul\":9244:9286   */\n  0xffffffffffffffffffffffffffffffffffffffff\n    /* \"#utility.yul\":9237:9242   */\n  dup3\n    /* \"#utility.yul\":9233:9287   */\n  and\n    /* \"#utility.yul\":9222:9287   */\n  swap1\n  pop\n    /* \"#utility.yul\":9167:9293   */\n  swap2\n  swap1\n  pop\n  jump\t// out\n    /* \"#utility.yul\":9299:9395   */\ntag_88:\n    /* \"#utility.yul\":9336:9343   */\n  0x00\n    /* \"#utility.yul\":9365:9389   */\n  tag_207\n    /* \"#utility.yul\":9383:9388   */\n  dup3\n    /* \"#utility.yul\":9365:9389   */\n  tag_87\n  jump\t// in\ntag_207:\n    /* \"#utility.yul\":9354:9389   */\n  swap1\n  pop\n    /* \"#utility.yul\":9299:9395   */\n  swap2\n  swap1\n  pop\n  jump\t// out\n    /* \"#utility.yul\":9401:9519   */\ntag_89:\n    /* \"#utility.yul\":9488:9512   */\n  tag_209\n    /* \"#utility.yul\":9506:9511   */\n  dup2\n    /* \"#utility.yul\":9488:9512   */\n  tag_88\n  jump\t// in\ntag_209:\n    /* \"#utility.yul\":9483:9486   */\n  dup3\n    /* \"#utility.yul\":9476:9513   */\n  mstore\n    /* \"#utility.yul\":9401:9519   */\n  pop\n  pop\n  jump\t// out\n    /* \"#utility.yul\":9525:9747   */\ntag_14:\n    /* \"#utility.yul\":9618:9622   */\n  0x00\n    /* \"#utility.yul\":9656:9658   */\n  0x20\n    /* \"#utility.yul\":9645:9654   */\n  dup3\n    /* \"#utility.yul\":9641:9659   */\n  add\n    /* \"#utility.yul\":9633:9659   */\n  swap1\n  pop\n    /* \"#utility.yul\":9669:9740   */\n  tag_211\n    /* \"#utility.yul\":9737:9738   */\n  0x00\n    /* \"#utility.yul\":9726:9735   */\n  dup4\n    /* \"#utility.yul\":9722:9739   */\n  add\n    /* \"#utility.yul\":9713:9719   */\n  dup5\n    /* \"#utility.yul\":9669:9740   */\n  tag_89\n  jump\t// in\ntag_211:\n    /* \"#utility.yul\":9525:9747   */\n  swap3\n  swap2\n  pop\n  pop\n  jump\t// out\n    /* \"#utility.yul\":9753:9933   */\ntag_90:\n    /* \"#utility.yul\":9801:9878   */\n  0x4e487b7100000000000000000000000000000000000000000000000000000000\n    /* \"#utility.yul\":9798:9799   */\n  0x00\n    /* \"#utility.yul\":9791:9879   */\n  mstore\n    /* \"#utility.yul\":9898:9902   */\n  0x11\n    /* \"#utility.yul\":9895:9896   */\n  0x04\n    /* \"#utility.yul\":9888:9903   */\n  mstore\n    /* \"#utility.yul\":9922:9926   */\n  0x24\n    /* \"#utility.yul\":9919:9920   */\n  0x00\n    /* \"#utility.yul\":9912:9927   */\n  revert\n    /* \"#utility.yul\":9939:10041   */\ntag_91:\n    /* \"#utility.yul\":9981:9989   */\n  0x00\n    /* \"#utility.yul\":10028:10033   */\n  dup2\n    /* \"#utility.yul\":10025:10026   */\n  0x01\n    /* \"#utility.yul\":10021:10034   */\n  shr\n    /* \"#utility.yul\":10000:10034   */\n  swap1\n  pop\n    /* \"#utility.yul\":9939:10041   */\n  swap2\n  swap1\n  pop\n  jump\t// out\n    /* \"#utility.yul\":10047:10895   */\ntag_92:\n    /* \"#utility.yul\":10108:10113   */\n  0x00\n    /* \"#utility.yul\":10115:10119   */\n  dup1\n    /* \"#utility.yul\":10139:10145   */\n  dup3\n    /* \"#utility.yul\":10130:10145   */\n  swap2\n  pop\n    /* \"#utility.yul\":10163:10168   */\n  dup4\n    /* \"#utility.yul\":10154:10168   */\n  swap1\n  pop\n    /* \"#utility.yul\":10177:10889   */\ntag_215:\n    /* \"#utility.yul\":10198:10199   */\n  0x01\n    /* \"#utility.yul\":10188:10196   */\n  dup6\n    /* \"#utility.yul\":10185:10200   */\n  gt\n    /* \"#utility.yul\":10177:10889   */\n  iszero\n  tag_217\n  jumpi\n    /* \"#utility.yul\":10293:10297   */\n  dup1\n    /* \"#utility.yul\":10288:10291   */\n  dup7\n    /* \"#utility.yul\":10284:10298   */\n  div\n    /* \"#utility.yul\":10278:10282   */\n  dup2\n    /* \"#utility.yul\":10275:10299   */\n  gt\n    /* \"#utility.yul\":10272:10322   */\n  iszero\n  tag_218\n  jumpi\n    /* \"#utility.yul\":10302:10320   */\n  tag_219\n  tag_90\n  jump\t// in\ntag_219:\n    /* \"#utility.yul\":10272:10322   */\ntag_218:\n    /* \"#utility.yul\":10352:10353   */\n  0x01\n    /* \"#utility.yul\":10342:10350   */\n  dup6\n    /* \"#utility.yul\":10338:10354   */\n  and\n    /* \"#utility.yul\":10335:10786   */\n  iszero\n  tag_220\n  jumpi\n    /* \"#utility.yul\":10767:10771   */\n  dup1\n    /* \"#utility.yul\":10760:10765   */\n  dup3\n    /* \"#utility.yul\":10756:10772   */\n  mul\n    /* \"#utility.yul\":10747:10772   */\n  swap2\n  pop\n    /* \"#utility.yul\":10335:10786   */\ntag_220:\n    /* \"#utility.yul\":10817:10821   */\n  dup1\n    /* \"#utility.yul\":10811:10815   */\n  dup2\n    /* \"#utility.yul\":10807:10822   */\n  mul\n    /* \"#utility.yul\":10799:10822   */\n  swap1\n  pop\n    /* \"#utility.yul\":10847:10879   */\n  tag_221\n    /* \"#utility.yul\":10870:10878   */\n  dup6\n    /* \"#utility.yul\":10847:10879   */\n  tag_91\n  jump\t// in\ntag_221:\n    /* \"#utility.yul\":10835:10879   */\n  swap5\n  pop\n    /* \"#utility.yul\":10177:10889   */\n  jump(tag_215)\ntag_217:\n    /* \"#utility.yul\":10047:10895   */\n  swap5\n  pop\n  swap5\n  swap3\n  pop\n  pop\n  pop\n  jump\t// out\n    /* \"#utility.yul\":10901:11974   */\ntag_93:\n    /* \"#utility.yul\":10955:10960   */\n  0x00\n    /* \"#utility.yul\":11146:11154   */\n  dup3\n    /* \"#utility.yul\":11136:11176   */\n  tag_223\n  jumpi\n    /* \"#utility.yul\":11167:11168   */\n  0x01\n    /* \"#utility.yul\":11158:11168   */\n  swap1\n  pop\n    /* \"#utility.yul\":11169:11174   */\n  jump(tag_222)\n    /* \"#utility.yul\":11136:11176   */\ntag_223:\n    /* \"#utility.yul\":11195:11199   */\n  dup2\n    /* \"#utility.yul\":11185:11221   */\n  tag_224\n  jumpi\n    /* \"#utility.yul\":11212:11213   */\n  0x00\n    /* \"#utility.yul\":11203:11213   */\n  swap1\n  pop\n    /* \"#utility.yul\":11214:11219   */\n  jump(tag_222)\n    /* \"#utility.yul\":11185:11221   */\ntag_224:\n    /* \"#utility.yul\":11281:11285   */\n  dup2\n    /* \"#utility.yul\":11329:11330   */\n  0x01\n    /* \"#utility.yul\":11324:11351   */\n  dup2\n  eq\n  tag_226\n  jumpi\n    /* \"#utility.yul\":11365:11366   */\n  0x02\n    /* \"#utility.yul\":11360:11551   */\n  dup2\n  eq\n  tag_227\n  jumpi\n    /* \"#utility.yul\":11274:11551   */\n  jump(tag_225)\n    /* \"#utility.yul\":11324:11351   */\ntag_226:\n    /* \"#utility.yul\":11342:11343   */\n  0x01\n    /* \"#utility.yul\":11333:11343   */\n  swap2\n  pop\n    /* \"#utility.yul\":11344:11349   */\n  pop\n  jump(tag_222)\n    /* \"#utility.yul\":11360:11551   */\ntag_227:\n    /* \"#utility.yul\":11405:11408   */\n  0xff\n    /* \"#utility.yul\":11395:11403   */\n  dup5\n    /* \"#utility.yul\":11392:11409   */\n  gt\n    /* \"#utility.yul\":11389:11432   */\n  iszero\n  tag_228\n  jumpi\n    /* \"#utility.yul\":11412:11430   */\n  tag_229\n  tag_90\n  jump\t// in\ntag_229:\n    /* \"#utility.yul\":11389:11432   */\ntag_228:\n    /* \"#utility.yul\":11461:11469   */\n  dup4\n    /* \"#utility.yul\":11458:11459   */\n  0x02\n    /* \"#utility.yul\":11454:11470   */\n  exp\n    /* \"#utility.yul\":11445:11470   */\n  swap2\n  pop\n    /* \"#utility.yul\":11496:11499   */\n  dup5\n    /* \"#utility.yul\":11489:11494   */\n  dup3\n    /* \"#utility.yul\":11486:11500   */\n  gt\n    /* \"#utility.yul\":11483:11523   */\n  iszero\n  tag_230\n  jumpi\n    /* \"#utility.yul\":11503:11521   */\n  tag_231\n  tag_90\n  jump\t// in\ntag_231:\n    /* \"#utility.yul\":11483:11523   */\ntag_230:\n    /* \"#utility.yul\":11536:11541   */\n  pop\n  jump(tag_222)\n    /* \"#utility.yul\":11274:11551   */\ntag_225:\n  pop\n    /* \"#utility.yul\":11660:11662   */\n  0x20\n    /* \"#utility.yul\":11650:11658   */\n  dup4\n    /* \"#utility.yul\":11647:11663   */\n  lt\n    /* \"#utility.yul\":11641:11644   */\n  0x0133\n    /* \"#utility.yul\":11635:11639   */\n  dup4\n    /* \"#utility.yul\":11632:11645   */\n  lt\n    /* \"#utility.yul\":11628:11664   */\n  and\n    /* \"#utility.yul\":11610:11612   */\n  0x4e\n    /* \"#utility.yul\":11600:11608   */\n  dup5\n    /* \"#utility.yul\":11597:11613   */\n  lt\n    /* \"#utility.yul\":11592:11594   */\n  0x0b\n    /* \"#utility.yul\":11586:11590   */\n  dup5\n    /* \"#utility.yul\":11583:11595   */\n  lt\n    /* \"#utility.yul\":11579:11614   */\n  and\n    /* \"#utility.yul\":11563:11674   */\n  or\n    /* \"#utility.yul\":11560:11806   */\n  iszero\n  tag_232\n  jumpi\n    /* \"#utility.yul\":11716:11724   */\n  dup3\n    /* \"#utility.yul\":11710:11714   */\n  dup3\n    /* \"#utility.yul\":11706:11725   */\n  exp\n    /* \"#utility.yul\":11697:11725   */\n  swap1\n  pop\n    /* \"#utility.yul\":11751:11754   */\n  dup4\n    /* \"#utility.yul\":11744:11749   */\n  dup2\n    /* \"#utility.yul\":11741:11755   */\n  gt\n    /* \"#utility.yul\":11738:11778   */\n  iszero\n  tag_233\n  jumpi\n    /* \"#utility.yul\":11758:11776   */\n  tag_234\n  tag_90\n  jump\t// in\ntag_234:\n    /* \"#utility.yul\":11738:11778   */\ntag_233:\n    /* \"#utility.yul\":11791:11796   */\n  jump(tag_222)\n    /* \"#utility.yul\":11560:11806   */\ntag_232:\n    /* \"#utility.yul\":11831:11873   */\n  tag_235\n    /* \"#utility.yul\":11869:11872   */\n  dup5\n    /* \"#utility.yul\":11859:11867   */\n  dup5\n    /* \"#utility.yul\":11853:11857   */\n  dup5\n    /* \"#utility.yul\":11850:11851   */\n  0x01\n    /* \"#utility.yul\":11831:11873   */\n  tag_92\n  jump\t// in\ntag_235:\n    /* \"#utility.yul\":11816:11873   */\n  swap3\n  pop\n  swap1\n  pop\n    /* \"#utility.yul\":11905:11909   */\n  dup2\n    /* \"#utility.yul\":11900:11903   */\n  dup5\n    /* \"#utility.yul\":11896:11910   */\n  div\n    /* \"#utility.yul\":11889:11894   */\n  dup2\n    /* \"#utility.yul\":11886:11911   */\n  gt\n    /* \"#utility.yul\":11883:11934   */\n  iszero\n  tag_236\n  jumpi\n    /* \"#utility.yul\":11914:11932   */\n  tag_237\n  tag_90\n  jump\t// in\ntag_237:\n    /* \"#utility.yul\":11883:11934   */\ntag_236:\n    /* \"#utility.yul\":11963:11967   */\n  dup2\n    /* \"#utility.yul\":11956:11961   */\n  dup2\n    /* \"#utility.yul\":11952:11968   */\n  mul\n    /* \"#utility.yul\":11943:11968   */\n  swap1\n  pop\n    /* \"#utility.yul\":10901:11974   */\ntag_222:\n  swap4\n  swap3\n  pop\n  pop\n  pop\n  jump\t// out\n    /* \"#utility.yul\":11980:12066   */\ntag_94:\n    /* \"#utility.yul\":12015:12022   */\n  0x00\n    /* \"#utility.yul\":12055:12059   */\n  0xff\n    /* \"#utility.yul\":12048:12053   */\n  dup3\n    /* \"#utility.yul\":12044:12060   */\n  and\n    /* \"#utility.yul\":12033:12060   */\n  swap1\n  pop\n    /* \"#utility.yul\":11980:12066   */\n  swap2\n  swap1\n  pop\n  jump\t// out\n    /* \"#utility.yul\":12072:12353   */\ntag_21:\n    /* \"#utility.yul\":12130:12135   */\n  0x00\n    /* \"#utility.yul\":12154:12177   */\n  tag_240\n    /* \"#utility.yul\":12172:12176   */\n  dup3\n    /* \"#utility.yul\":12154:12177   */\n  tag_66\n  jump\t// in\ntag_240:\n    /* \"#utility.yul\":12146:12177   */\n  swap2\n  pop\n    /* \"#utility.yul\":12198:12223   */\n  tag_241\n    /* \"#utility.yul\":12214:12222   */\n  dup4\n    /* \"#utility.yul\":12198:12223   */\n  tag_94\n  jump\t// in\ntag_241:\n    /* \"#utility.yul\":12186:12223   */\n  swap3\n  pop\n    /* \"#utility.yul\":12242:12346   */\n  tag_242\n    /* \"#utility.yul\":12279:12345   */\n  0xffffffffffffffffffffffffffffffffffffffffffffffffffffffffffffffff\n    /* \"#utility.yul\":12269:12277   */\n  dup5\n    /* \"#utility.yul\":12263:12267   */\n  dup5\n    /* \"#utility.yul\":12242:12346   */\n  tag_93\n  jump\t// in\ntag_242:\n    /* \"#utility.yul\":12233:12346   */\n  swap1\n  pop\n    /* \"#utility.yul\":12072:12353   */\n  swap3\n  swap2\n  pop\n  pop\n  jump\t// out\n    /* \"#utility.yul\":12359:12769   */\ntag_23:\n    /* \"#utility.yul\":12399:12406   */\n  0x00\n    /* \"#utility.yul\":12422:12442   */\n  tag_244\n    /* \"#utility.yul\":12440:12441   */\n  dup3\n    /* \"#utility.yul\":12422:12442   */\n  tag_66\n  jump\t// in\ntag_244:\n    /* \"#utility.yul\":12417:12442   */\n  swap2\n  pop\n    /* \"#utility.yul\":12456:12476   */\n  tag_245\n    /* \"#utility.yul\":12474:12475   */\n  dup4\n    /* \"#utility.yul\":12456:12476   */\n  tag_66\n  jump\t// in\ntag_245:\n    /* \"#utility.yul\":12451:12476   */\n  swap3\n  pop\n    /* \"#utility.yul\":12511:12512   */\n  dup3\n    /* \"#utility.yul\":12508:12509   */\n  dup3\n    /* \"#utility.yul\":12504:12513   */\n  mul\n    /* \"#utility.yul\":12533:12563   */\n  tag_246\n    /* \"#utility.yul\":12551:12562   */\n  dup2\n    /* \"#utility.yul\":12533:12563   */\n  tag_66\n  jump\t// in\ntag_246:\n    /* \"#utility.yul\":12522:12563   */\n  swap2\n  pop\n    /* \"#utility.yul\":12712:12713   */\n  dup3\n    /* \"#utility.yul\":12703:12710   */\n  dup3\n    /* \"#utility.yul\":12699:12714   */\n  div\n    /* \"#utility.yul\":12696:12697   */\n  dup5\n    /* \"#utility.yul\":12693:12715   */\n  eq\n    /* \"#utility.yul\":12673:12674   */\n  dup4\n    /* \"#utility.yul\":12666:12675   */\n  iszero\n    /* \"#utility.yul\":12646:12729   */\n  or\n    /* \"#utility.yul\":12623:12762   */\n  tag_247\n  jumpi\n    /* \"#utility.yul\":12742:12760   */\n  tag_248\n  tag_90\n  jump\t// in\ntag_248:\n    /* \"#utility.yul\":12623:12762   */\ntag_247:\n    /* \"#utility.yul\":12407:12769   */\n  pop\n    /* \"#utility.yul\":12359:12769   */\n  swap3\n  swap2\n  pop\n  pop\n  jump\t// out\n    /* \"#utility.yul\":12775:12966   */\ntag_44:\n    /* \"#utility.yul\":12815:12818   */\n  0x00\n    /* \"#utility.yul\":12834:12854   */\n  tag_250\n    /* \"#utility.yul\":12852:12853   */\n  dup3\n    /* \"#utility.yul\":12834:12854   */\n  tag_66\n  jump\t// in\ntag_250:\n    /* \"#utility.yul\":12829:12854   */\n  swap2\n  pop\n    /* \"#utility.yul\":12868:12888   */\n  tag_251\n    /* \"#utility.yul\":12886:12887   */\n  dup4\n    /* \"#utility.yul\":12868:12888   */\n  tag_66\n  jump\t// in\ntag_251:\n    /* \"#utility.yul\":12863:12888   */\n  swap3\n  pop\n    /* \"#utility.yul\":12911:12912   */\n  dup3\n    /* \"#utility.yul\":12908:12909   */\n  dup3\n    /* \"#utility.yul\":12904:12913   */\n  add\n    /* \"#utility.yul\":12897:12913   */\n  swap1\n  pop\n    /* \"#utility.yul\":12932:12935   */\n  dup1\n    /* \"#utility.yul\":12929:12930   */\n  dup3\n    /* \"#utility.yul\":12926:12936   */\n  gt\n    /* \"#utility.yul\":12923:12959   */\n  iszero\n  tag_252\n  jumpi\n    /* \"#utility.yul\":12939:12957   */\n  tag_253\n  tag_90\n  jump\t// in\ntag_253:\n    /* \"#utility.yul\":12923:12959   */\ntag_252:\n    /* \"#utility.yul\":12775:12966   */\n  swap3\n  swap2\n  pop\n  pop\n  jump\t// out\n    /* \"#utility.yul\":12972:13090   */\ntag_95:\n    /* \"#utility.yul\":13059:13083   */\n  tag_255\n    /* \"#utility.yul\":13077:13082   */\n  dup2\n    /* \"#utility.yul\":13059:13083   */\n  tag_66\n  jump\t// in\ntag_255:\n    /* \"#utility.yul\":13054:13057   */\n  dup3\n    /* \"#utility.yul\":13047:13084   */\n  mstore\n    /* \"#utility.yul\":12972:13090   */\n  pop\n  pop\n  jump\t// out\n    /* \"#utility.yul\":13096:13538   */\ntag_48:\n    /* \"#utility.yul\":13245:13249   */\n  0x00\n    /* \"#utility.yul\":13283:13285   */\n  0x60\n    /* \"#utility.yul\":13272:13281   */\n  dup3\n    /* \"#utility.yul\":13268:13286   */\n  add\n    /* \"#utility.yul\":13260:13286   */\n  swap1\n  pop\n    /* \"#utility.yul\":13296:13367   */\n  tag_257\n    /* \"#utility.yul\":13364:13365   */\n  0x00\n    /* \"#utility.yul\":13353:13362   */\n  dup4\n    /* \"#utility.yul\":13349:13366   */\n  add\n    /* \"#utility.yul\":13340:13346   */\n  dup7\n    /* \"#utility.yul\":13296:13367   */\n  tag_89\n  jump\t// in\ntag_257:\n    /* \"#utility.yul\":13377:13449   */\n  tag_258\n    /* \"#utility.yul\":13445:13447   */\n  0x20\n    /* \"#utility.yul\":13434:13443   */\n  dup4\n    /* \"#utility.yul\":13430:13448   */\n  add\n    /* \"#utility.yul\":13421:13427   */\n  dup6\n    /* \"#utility.yul\":13377:13449   */\n  tag_95\n  jump\t// in\ntag_258:\n    /* \"#utility.yul\":13459:13531   */\n  tag_259\n    /* \"#utility.yul\":13527:13529   */\n  0x40\n    /* \"#utility.yul\":13516:13525   */\n  dup4\n    /* \"#utility.yul\":13512:13530   */\n  add\n    /* \"#utility.yul\":13503:13509   */\n  dup5\n    /* \"#utility.yul\":13459:13531   */\n  tag_95\n  jump\t// in\ntag_259:\n    /* \"#utility.yul\":13096:13538   */\n  swap5\n  swap4\n  pop\n  pop\n  pop\n  pop\n  jump\t// out\n    /* \"#utility.yul\":13544:13766   */\ntag_52:\n    /* \"#utility.yul\":13637:13641   */\n  0x00\n    /* \"#utility.yul\":13675:13677   */\n  0x20\n    /* \"#utility.yul\":13664:13673   */\n  dup3\n    /* \"#utility.yul\":13660:13678   */\n  add\n    /* \"#utility.yul\":13652:13678   */\n  swap1\n  pop\n    /* \"#utility.yul\":13688:13759   */\n  tag_261\n    /* \"#utility.yul\":13756:13757   */\n  0x00\n    /* \"#utility.yul\":13745:13754   */\n  dup4\n    /* \"#utility.yul\":13741:13758   */\n  add\n    /* \"#utility.yul\":13732:13738   */\n  dup5\n    /* \"#utility.yul\":13688:13759   */\n  tag_95\n  jump\t// in\ntag_261:\n    /* \"#utility.yul\":13544:13766   */\n  swap3\n  swap2\n  pop\n  pop\n  jump\t// out\n    /* \"CryptoPunksReborn.sol\":167:2277  contract CustomMintToken is ERC20, Ownable {... */\ntag_33:\n  dataSize(sub_0)\n  dup1\n  dataOffset(sub_0)\n  0x00\n  codecopy\n  0x00\n  return\nstop\n\nsub_0: assembly {\n        /* \"CryptoPunksReborn.sol\":167:2277  contract CustomMintToken is ERC20, Ownable {... */\n      mstore(0x40, 0x80)\n      jumpi(tag_1, lt(calldatasize, 0x04))\n      shr(0xe0, calldataload(0x00))\n      dup1\n      0x715018a6\n      gt\n      tag_24\n      jumpi\n      dup1\n      0xa9059cbb\n      gt\n      tag_25\n      jumpi\n      dup1\n      0xa9059cbb\n      eq\n      tag_18\n      jumpi\n      dup1\n      0xd5abeb01\n      eq\n      tag_19\n      jumpi\n      dup1\n      0xd6abe110\n      eq\n      tag_20\n      jumpi\n      dup1\n      0xdd62ed3e\n      eq\n      tag_21\n      jumpi\n      dup1\n      0xf2fde38b\n      eq\n      tag_22\n      jumpi\n      dup1\n      0xf4a0a528\n      eq\n      tag_23\n      jumpi\n      jump(tag_1)\n    tag_25:\n      dup1\n      0x715018a6\n      eq\n      tag_13\n      jumpi\n      dup1\n      0x7d55094d\n      eq\n      tag_14\n      jumpi\n      dup1\n      0x8da5cb5b\n      eq\n      tag_15\n      jumpi\n      dup1\n      0x95d89b41\n      eq\n      tag_16\n      jumpi\n      dup1\n      0x97304ced\n      eq\n      tag_17\n      jumpi\n      jump(tag_1)\n    tag_24:\n      dup1\n      0x313ce567\n      gt\n      tag_26\n      jumpi\n      dup1\n      0x313ce567\n      eq\n      tag_7\n      jumpi\n      dup1\n      0x3ccfd60b\n      eq\n      tag_8\n      jumpi\n      dup1\n      0x6817c76c\n      eq\n      tag_9\n      jumpi\n      dup1\n      0x6de9f32b\n      eq\n      tag_10\n      jumpi\n      dup1\n      0x6f8b44b0\n      eq\n      tag_11\n      jumpi\n      dup1\n      0x70a08231\n      eq\n      tag_12\n      jumpi\n      jump(tag_1)\n    tag_26:\n      dup1\n      0x06fdde03\n      eq\n      tag_2\n      jumpi\n      dup1\n      0x095ea7b3\n      eq\n      tag_3\n      jumpi\n      dup1\n      0x18160ddd\n      eq\n      tag_4\n      jumpi\n      dup1\n      0x1a206910\n      eq\n      tag_5\n      jumpi\n      dup1\n      0x23b872dd\n      eq\n      tag_6\n      jumpi\n    tag_1:\n      0x00\n      dup1\n      revert\n        /* \"@openzeppelin/contracts/token/ERC20/ERC20.sol\":1760:1849  function name() public view virtual returns (string memory) {... */\n    tag_2:\n      callvalue\n      dup1\n      iszero\n      tag_27\n      jumpi\n      0x00\n      dup1\n      revert\n    tag_27:\n      pop\n      tag_28\n      tag_29\n      jump\t// in\n    tag_28:\n      mload(0x40)\n      tag_30\n      swap2\n      swap1\n      tag_31\n      jump\t// in\n    tag_30:\n      mload(0x40)\n      dup1\n      swap2\n      sub\n      swap1\n      return\n        /* \"@openzeppelin/contracts/token/ERC20/ERC20.sol\":3902:4088  function approve(address spender, uint256 value) public virtual returns (bool) {... */\n    tag_3:\n      callvalue\n      dup1\n      iszero\n      tag_32\n      jumpi\n      0x00\n      dup1\n      revert\n    tag_32:\n      pop\n      tag_33\n      0x04\n      dup1\n      calldatasize\n      sub\n      dup2\n      add\n      swap1\n      tag_34\n      swap2\n      swap1\n      tag_35\n      jump\t// in\n    tag_34:\n      tag_36\n      jump\t// in\n    tag_33:\n      mload(0x40)\n      tag_37\n      swap2\n      swap1\n      tag_38\n      jump\t// in\n    tag_37:\n      mload(0x40)\n      dup1\n      swap2\n      sub\n      swap1\n      return\n        /* \"@openzeppelin/contracts/token/ERC20/ERC20.sol\":2803:2900  function totalSupply() public view virtual returns (uint256) {... */\n    tag_4:\n      callvalue\n      dup1\n      iszero\n      tag_39\n      jumpi\n      0x00\n      dup1\n      revert\n    tag_39:\n      pop\n      tag_40\n      tag_41\n      jump\t// in\n    tag_40:\n      mload(0x40)\n      tag_42\n      swap2\n      swap1\n      tag_43\n      jump\t// in\n    tag_42:\n      mload(0x40)\n      dup1\n      swap2\n      sub\n      swap1\n      return\n        /* \"CryptoPunksReborn.sol\":290:322  bool public isMintingOpen = true */\n    tag_5:\n      callvalue\n      dup1\n      iszero\n      tag_44\n      jumpi\n      0x00\n      dup1\n      revert\n    tag_44:\n      pop\n      tag_45\n      tag_46\n      jump\t// in\n    tag_45:\n      mload(0x40)\n      tag_47\n      swap2\n      swap1\n      tag_38\n      jump\t// in\n    tag_47:\n      mload(0x40)\n      dup1\n      swap2\n      sub\n      swap1\n      return\n        /* \"@openzeppelin/contracts/token/ERC20/ERC20.sol\":4680:4924  function transferFrom(address from, address to, uint256 value) public virtual returns (bool) {... */\n    tag_6:\n      callvalue\n      dup1\n      iszero\n      tag_48\n      jumpi\n      0x00\n      dup1\n      revert\n    tag_48:\n      pop\n      tag_49\n      0x04\n      dup1\n      calldatasize\n      sub\n      dup2\n      add\n      swap1\n      tag_50\n      swap2\n      swap1\n      tag_51\n      jump\t// in\n    tag_50:\n      tag_52\n      jump\t// in\n    tag_49:\n      mload(0x40)\n      tag_53\n      swap2\n      swap1\n      tag_38\n      jump\t// in\n    tag_53:\n      mload(0x40)\n      dup1\n      swap2\n      sub\n      swap1\n      return\n        /* \"@openzeppelin/contracts/token/ERC20/ERC20.sol\":2688:2770  function decimals() public view virtual returns (uint8) {... */\n    tag_7:\n      callvalue\n      dup1\n      iszero\n      tag_54\n      jumpi\n      0x00\n      dup1\n      revert\n    tag_54:\n      pop\n      tag_55\n      tag_56\n      jump\t// in\n    tag_55:\n      mload(0x40)\n      tag_57\n      swap2\n      swap1\n      tag_58\n      jump\t// in\n    tag_57:\n      mload(0x40)\n      dup1\n      swap2\n      sub\n      swap1\n      return\n        /* \"CryptoPunksReborn.sol\":1227:1331  function withdraw() external onlyOwner {... */\n    tag_8:\n      callvalue\n      dup1\n      iszero\n      tag_59\n      jumpi\n      0x00\n      dup1\n      revert\n    tag_59:\n      pop\n      tag_60\n      tag_61\n      jump\t// in\n    tag_60:\n      stop\n        /* \"CryptoPunksReborn.sol\":216:254  uint256 public mintPrice = 0.001 ether */\n    tag_9:\n      callvalue\n      dup1\n      iszero\n      tag_62\n      jumpi\n      0x00\n      dup1\n      revert\n    tag_62:\n      pop\n      tag_63\n      tag_64\n      jump\t// in\n    tag_63:\n      mload(0x40)\n      tag_65\n      swap2\n      swap1\n      tag_43\n      jump\t// in\n    tag_65:\n      mload(0x40)\n      dup1\n      swap2\n      sub\n      swap1\n      return\n        /* \"CryptoPunksReborn.sol\":328:355  uint256 public tokensMinted */\n    tag_10:\n      callvalue\n      dup1\n      iszero\n      tag_66\n      jumpi\n      0x00\n      dup1\n      revert\n    tag_66:\n      pop\n      tag_67\n      tag_68\n      jump\t// in\n    tag_67:\n      mload(0x40)\n      tag_69\n      swap2\n      swap1\n      tag_43\n      jump\t// in\n    tag_69:\n      mload(0x40)\n      dup1\n      swap2\n      sub\n      swap1\n      return\n        /* \"CryptoPunksReborn.sol\":1532:1776  function setMaxSupply(uint256 _newMaxSupply) external onlyOwner {... */\n    tag_11:\n      callvalue\n      dup1\n      iszero\n      tag_70\n      jumpi\n      0x00\n      dup1\n      revert\n    tag_70:\n      pop\n      tag_71\n      0x04\n      dup1\n      calldatasize\n      sub\n      dup2\n      add\n      swap1\n      tag_72\n      swap2\n      swap1\n      tag_73\n      jump\t// in\n    tag_72:\n      tag_74\n      jump\t// in\n    tag_71:\n      stop\n        /* \"@openzeppelin/contracts/token/ERC20/ERC20.sol\":2933:3049  function balanceOf(address account) public view virtual returns (uint256) {... */\n    tag_12:\n      callvalue\n      dup1\n      iszero\n      tag_75\n      jumpi\n      0x00\n      dup1\n      revert\n    tag_75:\n      pop\n      tag_76\n      0x04\n      dup1\n      calldatasize\n      sub\n      dup2\n      add\n      swap1\n      tag_77\n      swap2\n      swap1\n      tag_78\n      jump\t// in\n    tag_77:\n      tag_79\n      jump\t// in\n    tag_76:\n      mload(0x40)\n      tag_80\n      swap2\n      swap1\n      tag_43\n      jump\t// in\n    tag_80:\n      mload(0x40)\n      dup1\n      swap2\n      sub\n      swap1\n      return\n        /* \"@openzeppelin/contracts/access/Ownable.sol\":2293:2394  function renounceOwnership() public virtual onlyOwner {... */\n    tag_13:\n      callvalue\n      dup1\n      iszero\n      tag_81\n      jumpi\n      0x00\n      dup1\n      revert\n    tag_81:\n      pop\n      tag_82\n      tag_83\n      jump\t// in\n    tag_82:\n      stop\n        /* \"CryptoPunksReborn.sol\":1435:1526  function toggleMinting() external onlyOwner {... */\n    tag_14:\n      callvalue\n      dup1\n      iszero\n      tag_84\n      jumpi\n      0x00\n      dup1\n      revert\n    tag_84:\n      pop\n      tag_85\n      tag_86\n      jump\t// in\n    tag_85:\n      stop\n        /* \"@openzeppelin/contracts/access/Ownable.sol\":1638:1723  function owner() public view virtual returns (address) {... */\n    tag_15:\n      callvalue\n      dup1\n      iszero\n      tag_87\n      jumpi\n      0x00\n      dup1\n      revert\n    tag_87:\n      pop\n      tag_88\n      tag_89\n      jump\t// in\n    tag_88:\n      mload(0x40)\n      tag_90\n      swap2\n      swap1\n      tag_91\n      jump\t// in\n    tag_90:\n      mload(0x40)\n      dup1\n      swap2\n      sub\n      swap1\n      return\n        /* \"@openzeppelin/contracts/token/ERC20/ERC20.sol\":1962:2055  function symbol() public view virtual returns (string memory) {... */\n    tag_16:\n      callvalue\n      dup1\n      iszero\n      tag_92\n      jumpi\n      0x00\n      dup1\n      revert\n    tag_92:\n      pop\n      tag_93\n      tag_94\n      jump\t// in\n    tag_93:\n      mload(0x40)\n      tag_95\n      swap2\n      swap1\n      tag_31\n      jump\t// in\n    tag_95:\n      mload(0x40)\n      dup1\n      swap2\n      sub\n      swap1\n      return\n        /* \"CryptoPunksReborn.sol\":784:1221  function mintTokens(uint256 _amount) external payable {... */\n    tag_17:\n      tag_96\n      0x04\n      dup1\n      calldatasize\n      sub\n      dup2\n      add\n      swap1\n      tag_97\n      swap2\n      swap1\n      tag_73\n      jump\t// in\n    tag_97:\n      tag_98\n      jump\t// in\n    tag_96:\n      stop\n        /* \"@openzeppelin/contracts/token/ERC20/ERC20.sol\":3244:3422  function transfer(address to, uint256 value) public virtual returns (bool) {... */\n    tag_18:\n      callvalue\n      dup1\n      iszero\n      tag_99\n      jumpi\n      0x00\n      dup1\n      revert\n    tag_99:\n      pop\n      tag_100\n      0x04\n      dup1\n      calldatasize\n      sub\n      dup2\n      add\n      swap1\n      tag_101\n      swap2\n      swap1\n      tag_35\n      jump\t// in\n    tag_101:\n      tag_102\n      jump\t// in\n    tag_100:\n      mload(0x40)\n      tag_103\n      swap2\n      swap1\n      tag_38\n      jump\t// in\n    tag_103:\n      mload(0x40)\n      dup1\n      swap2\n      sub\n      swap1\n      return\n        /* \"CryptoPunksReborn.sol\":260:284  uint256 public maxSupply */\n    tag_19:\n      callvalue\n      dup1\n      iszero\n      tag_104\n      jumpi\n      0x00\n      dup1\n      revert\n    tag_104:\n      pop\n      tag_105\n      tag_106\n      jump\t// in\n    tag_105:\n      mload(0x40)\n      tag_107\n      swap2\n      swap1\n      tag_43\n      jump\t// in\n    tag_107:\n      mload(0x40)\n      dup1\n      swap2\n      sub\n      swap1\n      return\n        /* \"CryptoPunksReborn.sol\":1782:2275  function tokenDetails() external view returns (... */\n    tag_20:\n      callvalue\n      dup1\n      iszero\n      tag_108\n      jumpi\n      0x00\n      dup1\n      revert\n    tag_108:\n      pop\n      tag_109\n      tag_110\n      jump\t// in\n    tag_109:\n      mload(0x40)\n      tag_111\n      swap8\n      swap7\n      swap6\n      swap5\n      swap4\n      swap3\n      swap2\n      swap1\n      tag_112\n      jump\t// in\n    tag_111:\n      mload(0x40)\n      dup1\n      swap2\n      sub\n      swap1\n      return\n        /* \"@openzeppelin/contracts/token/ERC20/ERC20.sol\":3455:3595  function allowance(address owner, address spender) public view virtual returns (uint256) {... */\n    tag_21:\n      callvalue\n      dup1\n      iszero\n      tag_113\n      jumpi\n      0x00\n      dup1\n      revert\n    tag_113:\n      pop\n      tag_114\n      0x04\n      dup1\n      calldatasize\n      sub\n      dup2\n      add\n      swap1\n      tag_115\n      swap2\n      swap1\n      tag_116\n      jump\t// in\n    tag_115:\n      tag_117\n      jump\t// in\n    tag_114:\n      mload(0x40)\n      tag_118\n      swap2\n      swap1\n      tag_43\n      jump\t// in\n    tag_118:\n      mload(0x40)\n      dup1\n      swap2\n      sub\n      swap1\n      return\n        /* \"@openzeppelin/contracts/access/Ownable.sol\":2543:2758  function transferOwnership(address newOwner) public virtual onlyOwner {... */\n    tag_22:\n      callvalue\n      dup1\n      iszero\n      tag_119\n      jumpi\n      0x00\n      dup1\n      revert\n    tag_119:\n      pop\n      tag_120\n      0x04\n      dup1\n      calldatasize\n      sub\n      dup2\n      add\n      swap1\n      tag_121\n      swap2\n      swap1\n      tag_78\n      jump\t// in\n    tag_121:\n      tag_122\n      jump\t// in\n    tag_120:\n      stop\n        /* \"CryptoPunksReborn.sol\":1337:1429  function setMintPrice(uint256 _price) external onlyOwner {... */\n    tag_23:\n      callvalue\n      dup1\n      iszero\n      tag_123\n      jumpi\n      0x00\n      dup1\n      revert\n    tag_123:\n      pop\n      tag_124\n      0x04\n      dup1\n      calldatasize\n      sub\n      dup2\n      add\n      swap1\n      tag_125\n      swap2\n      swap1\n      tag_73\n      jump\t// in\n    tag_125:\n      tag_126\n      jump\t// in\n    tag_124:\n      stop\n        /* \"@openzeppelin/contracts/token/ERC20/ERC20.sol\":1760:1849  function name() public view virtual returns (string memory) {... */\n    tag_29:\n        /* \"@openzeppelin/contracts/token/ERC20/ERC20.sol\":1805:1818  string memory */\n      0x60\n        /* \"@openzeppelin/contracts/token/ERC20/ERC20.sol\":1837:1842  _name */\n      0x03\n        /* \"@openzeppelin/contracts/token/ERC20/ERC20.sol\":1830:1842  return _name */\n      dup1\n      sload\n      tag_128\n      swap1\n      tag_129\n      jump\t// in\n    tag_128:\n      dup1\n      0x1f\n      add\n      0x20\n      dup1\n      swap2\n      div\n      mul\n      0x20\n      add\n      mload(0x40)\n      swap1\n      dup2\n      add\n      0x40\n      mstore\n      dup1\n      swap3\n      swap2\n      swap1\n      dup2\n      dup2\n      mstore\n      0x20\n      add\n      dup3\n      dup1\n      sload\n      tag_130\n      swap1\n      tag_129\n      jump\t// in\n    tag_130:\n      dup1\n      iszero\n      tag_131\n      jumpi\n      dup1\n      0x1f\n      lt\n      tag_132\n      jumpi\n      0x0100\n      dup1\n      dup4\n      sload\n      div\n      mul\n      dup4\n      mstore\n      swap2\n      0x20\n      add\n      swap2\n      jump(tag_131)\n    tag_132:\n      dup3\n      add\n      swap2\n      swap1\n      0x00\n      mstore\n      keccak256(0x00, 0x20)\n      swap1\n    tag_133:\n      dup2\n      sload\n      dup2\n      mstore\n      swap1\n      0x01\n      add\n      swap1\n      0x20\n      add\n      dup1\n      dup4\n      gt\n      tag_133\n      jumpi\n      dup3\n      swap1\n      sub\n      0x1f\n      and\n      dup3\n      add\n      swap2\n    tag_131:\n      pop\n      pop\n      pop\n      pop\n      pop\n      swap1\n      pop\n        /* \"@openzeppelin/contracts/token/ERC20/ERC20.sol\":1760:1849  function name() public view virtual returns (string memory) {... */\n      swap1\n      jump\t// out\n        /* \"@openzeppelin/contracts/token/ERC20/ERC20.sol\":3902:4088  function approve(address spender, uint256 value) public virtual returns (bool) {... */\n    tag_36:\n        /* \"@openzeppelin/contracts/token/ERC20/ERC20.sol\":3975:3979  bool */\n      0x00\n        /* \"@openzeppelin/contracts/token/ERC20/ERC20.sol\":3991:4004  address owner */\n      dup1\n        /* \"@openzeppelin/contracts/token/ERC20/ERC20.sol\":4007:4019  _msgSender() */\n      tag_135\n        /* \"@openzeppelin/contracts/token/ERC20/ERC20.sol\":4007:4017  _msgSender */\n      tag_136\n        /* \"@openzeppelin/contracts/token/ERC20/ERC20.sol\":4007:4019  _msgSender() */\n      jump\t// in\n    tag_135:\n        /* \"@openzeppelin/contracts/token/ERC20/ERC20.sol\":3991:4019  address owner = _msgSender() */\n      swap1\n      pop\n        /* \"@openzeppelin/contracts/token/ERC20/ERC20.sol\":4029:4060  _approve(owner, spender, value) */\n      tag_137\n        /* \"@openzeppelin/contracts/token/ERC20/ERC20.sol\":4038:4043  owner */\n      dup2\n        /* \"@openzeppelin/contracts/token/ERC20/ERC20.sol\":4045:4052  spender */\n      dup6\n        /* \"@openzeppelin/contracts/token/ERC20/ERC20.sol\":4054:4059  value */\n      dup6\n        /* \"@openzeppelin/contracts/token/ERC20/ERC20.sol\":4029:4037  _approve */\n      tag_138\n        /* \"@openzeppelin/contracts/token/ERC20/ERC20.sol\":4029:4060  _approve(owner, spender, value) */\n      jump\t// in\n    tag_137:\n        /* \"@openzeppelin/contracts/token/ERC20/ERC20.sol\":4077:4081  true */\n      0x01\n        /* \"@openzeppelin/contracts/token/ERC20/ERC20.sol\":4070:4081  return true */\n      swap2\n      pop\n      pop\n        /* \"@openzeppelin/contracts/token/ERC20/ERC20.sol\":3902:4088  function approve(address spender, uint256 value) public virtual returns (bool) {... */\n      swap3\n      swap2\n      pop\n      pop\n      jump\t// out\n        /* \"@openzeppelin/contracts/token/ERC20/ERC20.sol\":2803:2900  function totalSupply() public view virtual returns (uint256) {... */\n    tag_41:\n        /* \"@openzeppelin/contracts/token/ERC20/ERC20.sol\":2855:2862  uint256 */\n      0x00\n        /* \"@openzeppelin/contracts/token/ERC20/ERC20.sol\":2881:2893  _totalSupply */\n      sload(0x02)\n        /* \"@openzeppelin/contracts/token/ERC20/ERC20.sol\":2874:2893  return _totalSupply */\n      swap1\n      pop\n        /* \"@openzeppelin/contracts/token/ERC20/ERC20.sol\":2803:2900  function totalSupply() public view virtual returns (uint256) {... */\n      swap1\n      jump\t// out\n        /* \"CryptoPunksReborn.sol\":290:322  bool public isMintingOpen = true */\n    tag_46:\n      0x08\n      0x00\n      swap1\n      sload\n      swap1\n      0x0100\n      exp\n      swap1\n      div\n      0xff\n      and\n      dup2\n      jump\t// out\n        /* \"@openzeppelin/contracts/token/ERC20/ERC20.sol\":4680:4924  function transferFrom(address from, address to, uint256 value) public virtual returns (bool) {... */\n    tag_52:\n        /* \"@openzeppelin/contracts/token/ERC20/ERC20.sol\":4767:4771  bool */\n      0x00\n        /* \"@openzeppelin/contracts/token/ERC20/ERC20.sol\":4783:4798  address spender */\n      dup1\n        /* \"@openzeppelin/contracts/token/ERC20/ERC20.sol\":4801:4813  _msgSender() */\n      tag_141\n        /* \"@openzeppelin/contracts/token/ERC20/ERC20.sol\":4801:4811  _msgSender */\n      tag_136\n        /* \"@openzeppelin/contracts/token/ERC20/ERC20.sol\":4801:4813  _msgSender() */\n      jump\t// in\n    tag_141:\n        /* \"@openzeppelin/contracts/token/ERC20/ERC20.sol\":4783:4813  address spender = _msgSender() */\n      swap1\n      pop\n        /* \"@openzeppelin/contracts/token/ERC20/ERC20.sol\":4823:4860  _spendAllowance(from, spender, value) */\n      tag_142\n        /* \"@openzeppelin/contracts/token/ERC20/ERC20.sol\":4839:4843  from */\n      dup6\n        /* \"@openzeppelin/contracts/token/ERC20/ERC20.sol\":4845:4852  spender */\n      dup3\n        /* \"@openzeppelin/contracts/token/ERC20/ERC20.sol\":4854:4859  value */\n      dup6\n        /* \"@openzeppelin/contracts/token/ERC20/ERC20.sol\":4823:4838  _spendAllowance */\n      tag_143\n        /* \"@openzeppelin/contracts/token/ERC20/ERC20.sol\":4823:4860  _spendAllowance(from, spender, value) */\n      jump\t// in\n    tag_142:\n        /* \"@openzeppelin/contracts/token/ERC20/ERC20.sol\":4870:4896  _transfer(from, to, value) */\n      tag_144\n        /* \"@openzeppelin/contracts/token/ERC20/ERC20.sol\":4880:4884  from */\n      dup6\n        /* \"@openzeppelin/contracts/token/ERC20/ERC20.sol\":4886:4888  to */\n      dup6\n        /* \"@openzeppelin/contracts/token/ERC20/ERC20.sol\":4890:4895  value */\n      dup6\n        /* \"@openzeppelin/contracts/token/ERC20/ERC20.sol\":4870:4879  _transfer */\n      tag_145\n        /* \"@openzeppelin/contracts/token/ERC20/ERC20.sol\":4870:4896  _transfer(from, to, value) */\n      jump\t// in\n    tag_144:\n        /* \"@openzeppelin/contracts/token/ERC20/ERC20.sol\":4913:4917  true */\n      0x01\n        /* \"@openzeppelin/contracts/token/ERC20/ERC20.sol\":4906:4917  return true */\n      swap2\n      pop\n      pop\n        /* \"@openzeppelin/contracts/token/ERC20/ERC20.sol\":4680:4924  function transferFrom(address from, address to, uint256 value) public virtual returns (bool) {... */\n      swap4\n      swap3\n      pop\n      pop\n      pop\n      jump\t// out\n        /* \"@openzeppelin/contracts/token/ERC20/ERC20.sol\":2688:2770  function decimals() public view virtual returns (uint8) {... */\n    tag_56:\n        /* \"@openzeppelin/contracts/token/ERC20/ERC20.sol\":2737:2742  uint8 */\n      0x00\n        /* \"@openzeppelin/contracts/token/ERC20/ERC20.sol\":2761:2763  18 */\n      0x12\n        /* \"@openzeppelin/contracts/token/ERC20/ERC20.sol\":2754:2763  return 18 */\n      swap1\n      pop\n        /* \"@openzeppelin/contracts/token/ERC20/ERC20.sol\":2688:2770  function decimals() public view virtual returns (uint8) {... */\n      swap1\n      jump\t// out\n        /* \"CryptoPunksReborn.sol\":1227:1331  function withdraw() external onlyOwner {... */\n    tag_61:\n        /* \"@openzeppelin/contracts/access/Ownable.sol\":1531:1544  _checkOwner() */\n      tag_148\n        /* \"@openzeppelin/contracts/access/Ownable.sol\":1531:1542  _checkOwner */\n      tag_149\n        /* \"@openzeppelin/contracts/access/Ownable.sol\":1531:1544  _checkOwner() */\n      jump\t// in\n    tag_148:\n        /* \"CryptoPunksReborn.sol\":1284:1291  owner() */\n      tag_151\n        /* \"CryptoPunksReborn.sol\":1284:1289  owner */\n      tag_89\n        /* \"CryptoPunksReborn.sol\":1284:1291  owner() */\n      jump\t// in\n    tag_151:\n        /* \"CryptoPunksReborn.sol\":1276:1301  payable(owner()).transfer */\n      0xffffffffffffffffffffffffffffffffffffffff\n      and\n        /* \"CryptoPunksReborn.sol\":1276:1324  payable(owner()).transfer(address(this).balance) */\n      0x08fc\n        /* \"CryptoPunksReborn.sol\":1302:1323  address(this).balance */\n      selfbalance\n        /* \"CryptoPunksReborn.sol\":1276:1324  payable(owner()).transfer(address(this).balance) */\n      swap1\n      dup2\n      iszero\n      mul\n      swap1\n      mload(0x40)\n      0x00\n      mload(0x40)\n      dup1\n      dup4\n      sub\n      dup2\n      dup6\n      dup9\n      dup9\n      call\n      swap4\n      pop\n      pop\n      pop\n      pop\n      iszero\n      dup1\n      iszero\n      tag_153\n      jumpi\n      returndatasize\n      0x00\n      dup1\n      returndatacopy\n      revert(0x00, returndatasize)\n    tag_153:\n      pop\n        /* \"CryptoPunksReborn.sol\":1227:1331  function withdraw() external onlyOwner {... */\n      jump\t// out\n        /* \"CryptoPunksReborn.sol\":216:254  uint256 public mintPrice = 0.001 ether */\n    tag_64:\n      sload(0x06)\n      dup2\n      jump\t// out\n        /* \"CryptoPunksReborn.sol\":328:355  uint256 public tokensMinted */\n    tag_68:\n      sload(0x09)\n      dup2\n      jump\t// out\n        /* \"CryptoPunksReborn.sol\":1532:1776  function setMaxSupply(uint256 _newMaxSupply) external onlyOwner {... */\n    tag_74:\n        /* \"@openzeppelin/contracts/access/Ownable.sol\":1531:1544  _checkOwner() */\n      tag_155\n        /* \"@openzeppelin/contracts/access/Ownable.sol\":1531:1542  _checkOwner */\n      tag_149\n        /* \"@openzeppelin/contracts/access/Ownable.sol\":1531:1544  _checkOwner() */\n      jump\t// in\n    tag_155:\n        /* \"CryptoPunksReborn.sol\":1652:1664  tokensMinted */\n      sload(0x09)\n        /* \"CryptoPunksReborn.sol\":1637:1647  decimals() */\n      tag_157\n        /* \"CryptoPunksReborn.sol\":1637:1645  decimals */\n      tag_56\n        /* \"CryptoPunksReborn.sol\":1637:1647  decimals() */\n      jump\t// in\n    tag_157:\n        /* \"CryptoPunksReborn.sol\":1631:1633  10 */\n      0x0a\n        /* \"CryptoPunksReborn.sol\":1631:1647  10 ** decimals() */\n      tag_158\n      swap2\n      swap1\n      tag_159\n      jump\t// in\n    tag_158:\n        /* \"CryptoPunksReborn.sol\":1614:1627  _newMaxSupply */\n      dup3\n        /* \"CryptoPunksReborn.sol\":1614:1648  _newMaxSupply * (10 ** decimals()) */\n      tag_160\n      swap2\n      swap1\n      tag_161\n      jump\t// in\n    tag_160:\n        /* \"CryptoPunksReborn.sol\":1614:1664  _newMaxSupply * (10 ** decimals()) >= tokensMinted */\n      lt\n      iszero\n        /* \"CryptoPunksReborn.sol\":1606:1713  require(_newMaxSupply * (10 ** decimals()) >= tokensMinted, \"Cannot reduce max supply below minted tokens\") */\n      tag_162\n      jumpi\n      mload(0x40)\n      0x08c379a000000000000000000000000000000000000000000000000000000000\n      dup2\n      mstore\n      0x04\n      add\n      tag_163\n      swap1\n      tag_164\n      jump\t// in\n    tag_163:\n      mload(0x40)\n      dup1\n      swap2\n      sub\n      swap1\n      revert\n    tag_162:\n        /* \"CryptoPunksReborn.sol\":1758:1768  decimals() */\n      tag_165\n        /* \"CryptoPunksReborn.sol\":1758:1766  decimals */\n      tag_56\n        /* \"CryptoPunksReborn.sol\":1758:1768  decimals() */\n      jump\t// in\n    tag_165:\n        /* \"CryptoPunksReborn.sol\":1752:1754  10 */\n      0x0a\n        /* \"CryptoPunksReborn.sol\":1752:1768  10 ** decimals() */\n      tag_166\n      swap2\n      swap1\n      tag_159\n      jump\t// in\n    tag_166:\n        /* \"CryptoPunksReborn.sol\":1735:1748  _newMaxSupply */\n      dup2\n        /* \"CryptoPunksReborn.sol\":1735:1769  _newMaxSupply * (10 ** decimals()) */\n      tag_167\n      swap2\n      swap1\n      tag_161\n      jump\t// in\n    tag_167:\n        /* \"CryptoPunksReborn.sol\":1723:1732  maxSupply */\n      0x07\n        /* \"CryptoPunksReborn.sol\":1723:1769  maxSupply = _newMaxSupply * (10 ** decimals()) */\n      dup2\n      swap1\n      sstore\n      pop\n        /* \"CryptoPunksReborn.sol\":1532:1776  function setMaxSupply(uint256 _newMaxSupply) external onlyOwner {... */\n      pop\n      jump\t// out\n        /* \"@openzeppelin/contracts/token/ERC20/ERC20.sol\":2933:3049  function balanceOf(address account) public view virtual returns (uint256) {... */\n    tag_79:\n        /* \"@openzeppelin/contracts/token/ERC20/ERC20.sol\":2998:3005  uint256 */\n      0x00\n        /* \"@openzeppelin/contracts/token/ERC20/ERC20.sol\":3024:3033  _balances */\n      dup1\n        /* \"@openzeppelin/contracts/token/ERC20/ERC20.sol\":3024:3042  _balances[account] */\n      0x00\n        /* \"@openzeppelin/contracts/token/ERC20/ERC20.sol\":3034:3041  account */\n      dup4\n        /* \"@openzeppelin/contracts/token/ERC20/ERC20.sol\":3024:3042  _balances[account] */\n      0xffffffffffffffffffffffffffffffffffffffff\n      and\n      0xffffffffffffffffffffffffffffffffffffffff\n      and\n      dup2\n      mstore\n      0x20\n      add\n      swap1\n      dup2\n      mstore\n      0x20\n      add\n      0x00\n      keccak256\n      sload\n        /* \"@openzeppelin/contracts/token/ERC20/ERC20.sol\":3017:3042  return _balances[account] */\n      swap1\n      pop\n        /* \"@openzeppelin/contracts/token/ERC20/ERC20.sol\":2933:3049  function balanceOf(address account) public view virtual returns (uint256) {... */\n      swap2\n      swap1\n      pop\n      jump\t// out\n        /* \"@openzeppelin/contracts/access/Ownable.sol\":2293:2394  function renounceOwnership() public virtual onlyOwner {... */\n    tag_83:\n        /* \"@openzeppelin/contracts/access/Ownable.sol\":1531:1544  _checkOwner() */\n      tag_170\n        /* \"@openzeppelin/contracts/access/Ownable.sol\":1531:1542  _checkOwner */\n      tag_149\n        /* \"@openzeppelin/contracts/access/Ownable.sol\":1531:1544  _checkOwner() */\n      jump\t// in\n    tag_170:\n        /* \"@openzeppelin/contracts/access/Ownable.sol\":2357:2387  _transferOwnership(address(0)) */\n      tag_172\n        /* \"@openzeppelin/contracts/access/Ownable.sol\":2384:2385  0 */\n      0x00\n        /* \"@openzeppelin/contracts/access/Ownable.sol\":2357:2375  _transferOwnership */\n      tag_173\n        /* \"@openzeppelin/contracts/access/Ownable.sol\":2357:2387  _transferOwnership(address(0)) */\n      jump\t// in\n    tag_172:\n        /* \"@openzeppelin/contracts/access/Ownable.sol\":2293:2394  function renounceOwnership() public virtual onlyOwner {... */\n      jump\t// out\n        /* \"CryptoPunksReborn.sol\":1435:1526  function toggleMinting() external onlyOwner {... */\n    tag_86:\n        /* \"@openzeppelin/contracts/access/Ownable.sol\":1531:1544  _checkOwner() */\n      tag_175\n        /* \"@openzeppelin/contracts/access/Ownable.sol\":1531:1542  _checkOwner */\n      tag_149\n        /* \"@openzeppelin/contracts/access/Ownable.sol\":1531:1544  _checkOwner() */\n      jump\t// in\n    tag_175:\n        /* \"CryptoPunksReborn.sol\":1506:1519  isMintingOpen */\n      0x08\n      0x00\n      swap1\n      sload\n      swap1\n      0x0100\n      exp\n      swap1\n      div\n      0xff\n      and\n        /* \"CryptoPunksReborn.sol\":1505:1519  !isMintingOpen */\n      iszero\n        /* \"CryptoPunksReborn.sol\":1489:1502  isMintingOpen */\n      0x08\n      0x00\n        /* \"CryptoPunksReborn.sol\":1489:1519  isMintingOpen = !isMintingOpen */\n      0x0100\n      exp\n      dup2\n      sload\n      dup2\n      0xff\n      mul\n      not\n      and\n      swap1\n      dup4\n      iszero\n      iszero\n      mul\n      or\n      swap1\n      sstore\n      pop\n        /* \"CryptoPunksReborn.sol\":1435:1526  function toggleMinting() external onlyOwner {... */\n      jump\t// out\n        /* \"@openzeppelin/contracts/access/Ownable.sol\":1638:1723  function owner() public view virtual returns (address) {... */\n    tag_89:\n        /* \"@openzeppelin/contracts/access/Ownable.sol\":1684:1691  address */\n      0x00\n        /* \"@openzeppelin/contracts/access/Ownable.sol\":1710:1716  _owner */\n      0x05\n      0x00\n      swap1\n      sload\n      swap1\n      0x0100\n      exp\n      swap1\n      div\n      0xffffffffffffffffffffffffffffffffffffffff\n      and\n        /* \"@openzeppelin/contracts/access/Ownable.sol\":1703:1716  return _owner */\n      swap1\n      pop\n        /* \"@openzeppelin/contracts/access/Ownable.sol\":1638:1723  function owner() public view virtual returns (address) {... */\n      swap1\n      jump\t// out\n        /* \"@openzeppelin/contracts/token/ERC20/ERC20.sol\":1962:2055  function symbol() public view virtual returns (string memory) {... */\n    tag_94:\n        /* \"@openzeppelin/contracts/token/ERC20/ERC20.sol\":2009:2022  string memory */\n      0x60\n        /* \"@openzeppelin/contracts/token/ERC20/ERC20.sol\":2041:2048  _symbol */\n      0x04\n        /* \"@openzeppelin/contracts/token/ERC20/ERC20.sol\":2034:2048  return _symbol */\n      dup1\n      sload\n      tag_179\n      swap1\n      tag_129\n      jump\t// in\n    tag_179:\n      dup1\n      0x1f\n      add\n      0x20\n      dup1\n      swap2\n      div\n      mul\n      0x20\n      add\n      mload(0x40)\n      swap1\n      dup2\n      add\n      0x40\n      mstore\n      dup1\n      swap3\n      swap2\n      swap1\n      dup2\n      dup2\n      mstore\n      0x20\n      add\n      dup3\n      dup1\n      sload\n      tag_180\n      swap1\n      tag_129\n      jump\t// in\n    tag_180:\n      dup1\n      iszero\n      tag_181\n      jumpi\n      dup1\n      0x1f\n      lt\n      tag_182\n      jumpi\n      0x0100\n      dup1\n      dup4\n      sload\n      div\n      mul\n      dup4\n      mstore\n      swap2\n      0x20\n      add\n      swap2\n      jump(tag_181)\n    tag_182:\n      dup3\n      add\n      swap2\n      swap1\n      0x00\n      mstore\n      keccak256(0x00, 0x20)\n      swap1\n    tag_183:\n      dup2\n      sload\n      dup2\n      mstore\n      swap1\n      0x01\n      add\n      swap1\n      0x20\n      add\n      dup1\n      dup4\n      gt\n      tag_183\n      jumpi\n      dup3\n      swap1\n      sub\n      0x1f\n      and\n      dup3\n      add\n      swap2\n    tag_181:\n      pop\n      pop\n      pop\n      pop\n      pop\n      swap1\n      pop\n        /* \"@openzeppelin/contracts/token/ERC20/ERC20.sol\":1962:2055  function symbol() public view virtual returns (string memory) {... */\n      swap1\n      jump\t// out\n        /* \"CryptoPunksReborn.sol\":784:1221  function mintTokens(uint256 _amount) external payable {... */\n    tag_98:\n        /* \"CryptoPunksReborn.sol\":856:869  isMintingOpen */\n      0x08\n      0x00\n      swap1\n      sload\n      swap1\n      0x0100\n      exp\n      swap1\n      div\n      0xff\n      and\n        /* \"CryptoPunksReborn.sol\":848:891  require(isMintingOpen, \"Minting is closed\") */\n      tag_185\n      jumpi\n      mload(0x40)\n      0x08c379a000000000000000000000000000000000000000000000000000000000\n      dup2\n      mstore\n      0x04\n      add\n      tag_186\n      swap1\n      tag_187\n      jump\t// in\n    tag_186:\n      mload(0x40)\n      dup1\n      swap2\n      sub\n      swap1\n      revert\n    tag_185:\n        /* \"CryptoPunksReborn.sol\":934:941  _amount */\n      dup1\n        /* \"CryptoPunksReborn.sol\":922:931  mintPrice */\n      sload(0x06)\n        /* \"CryptoPunksReborn.sol\":922:941  mintPrice * _amount */\n      tag_188\n      swap2\n      swap1\n      tag_161\n      jump\t// in\n    tag_188:\n        /* \"CryptoPunksReborn.sol\":909:918  msg.value */\n      callvalue\n        /* \"CryptoPunksReborn.sol\":909:941  msg.value >= mintPrice * _amount */\n      lt\n      iszero\n        /* \"CryptoPunksReborn.sol\":901:967  require(msg.value >= mintPrice * _amount, \"Insufficient ETH sent\") */\n      tag_189\n      jumpi\n      mload(0x40)\n      0x08c379a000000000000000000000000000000000000000000000000000000000\n      dup2\n      mstore\n      0x04\n      add\n      tag_190\n      swap1\n      tag_191\n      jump\t// in\n    tag_190:\n      mload(0x40)\n      dup1\n      swap2\n      sub\n      swap1\n      revert\n    tag_189:\n        /* \"CryptoPunksReborn.sol\":978:1004  uint256 amountWithDecimals */\n      0x00\n        /* \"CryptoPunksReborn.sol\":1024:1034  decimals() */\n      tag_192\n        /* \"CryptoPunksReborn.sol\":1024:1032  decimals */\n      tag_56\n        /* \"CryptoPunksReborn.sol\":1024:1034  decimals() */\n      jump\t// in\n    tag_192:\n        /* \"CryptoPunksReborn.sol\":1018:1020  10 */\n      0x0a\n        /* \"CryptoPunksReborn.sol\":1018:1034  10 ** decimals() */\n      tag_193\n      swap2\n      swap1\n      tag_159\n      jump\t// in\n    tag_193:\n        /* \"CryptoPunksReborn.sol\":1007:1014  _amount */\n      dup3\n        /* \"CryptoPunksReborn.sol\":1007:1035  _amount * (10 ** decimals()) */\n      tag_194\n      swap2\n      swap1\n      tag_161\n      jump\t// in\n    tag_194:\n        /* \"CryptoPunksReborn.sol\":978:1035  uint256 amountWithDecimals = _amount * (10 ** decimals()) */\n      swap1\n      pop\n        /* \"CryptoPunksReborn.sol\":1090:1099  maxSupply */\n      sload(0x07)\n        /* \"CryptoPunksReborn.sol\":1068:1086  amountWithDecimals */\n      dup2\n        /* \"CryptoPunksReborn.sol\":1053:1065  tokensMinted */\n      sload(0x09)\n        /* \"CryptoPunksReborn.sol\":1053:1086  tokensMinted + amountWithDecimals */\n      tag_195\n      swap2\n      swap1\n      tag_196\n      jump\t// in\n    tag_195:\n        /* \"CryptoPunksReborn.sol\":1053:1099  tokensMinted + amountWithDecimals <= maxSupply */\n      gt\n      iszero\n        /* \"CryptoPunksReborn.sol\":1045:1122  require(tokensMinted + amountWithDecimals <= maxSupply, \"Max supply reached\") */\n      tag_197\n      jumpi\n      mload(0x40)\n      0x08c379a000000000000000000000000000000000000000000000000000000000\n      dup2\n      mstore\n      0x04\n      add\n      tag_198\n      swap1\n      tag_199\n      jump\t// in\n    tag_198:\n      mload(0x40)\n      dup1\n      swap2\n      sub\n      swap1\n      revert\n    tag_197:\n        /* \"CryptoPunksReborn.sol\":1133:1170  _mint(msg.sender, amountWithDecimals) */\n      tag_200\n        /* \"CryptoPunksReborn.sol\":1139:1149  msg.sender */\n      caller\n        /* \"CryptoPunksReborn.sol\":1151:1169  amountWithDecimals */\n      dup3\n        /* \"CryptoPunksReborn.sol\":1133:1138  _mint */\n      tag_201\n        /* \"CryptoPunksReborn.sol\":1133:1170  _mint(msg.sender, amountWithDecimals) */\n      jump\t// in\n    tag_200:\n        /* \"CryptoPunksReborn.sol\":1196:1214  amountWithDecimals */\n      dup1\n        /* \"CryptoPunksReborn.sol\":1180:1192  tokensMinted */\n      0x09\n      0x00\n        /* \"CryptoPunksReborn.sol\":1180:1214  tokensMinted += amountWithDecimals */\n      dup3\n      dup3\n      sload\n      tag_202\n      swap2\n      swap1\n      tag_196\n      jump\t// in\n    tag_202:\n      swap3\n      pop\n      pop\n      dup2\n      swap1\n      sstore\n      pop\n        /* \"CryptoPunksReborn.sol\":838:1221  {... */\n      pop\n        /* \"CryptoPunksReborn.sol\":784:1221  function mintTokens(uint256 _amount) external payable {... */\n      pop\n      jump\t// out\n        /* \"@openzeppelin/contracts/token/ERC20/ERC20.sol\":3244:3422  function transfer(address to, uint256 value) public virtual returns (bool) {... */\n    tag_102:\n        /* \"@openzeppelin/contracts/token/ERC20/ERC20.sol\":3313:3317  bool */\n      0x00\n        /* \"@openzeppelin/contracts/token/ERC20/ERC20.sol\":3329:3342  address owner */\n      dup1\n        /* \"@openzeppelin/contracts/token/ERC20/ERC20.sol\":3345:3357  _msgSender() */\n      tag_204\n        /* \"@openzeppelin/contracts/token/ERC20/ERC20.sol\":3345:3355  _msgSender */\n      tag_136\n        /* \"@openzeppelin/contracts/token/ERC20/ERC20.sol\":3345:3357  _msgSender() */\n      jump\t// in\n    tag_204:\n        /* \"@openzeppelin/contracts/token/ERC20/ERC20.sol\":3329:3357  address owner = _msgSender() */\n      swap1\n      pop\n        /* \"@openzeppelin/contracts/token/ERC20/ERC20.sol\":3367:3394  _transfer(owner, to, value) */\n      tag_205\n        /* \"@openzeppelin/contracts/token/ERC20/ERC20.sol\":3377:3382  owner */\n      dup2\n        /* \"@openzeppelin/contracts/token/ERC20/ERC20.sol\":3384:3386  to */\n      dup6\n        /* \"@openzeppelin/contracts/token/ERC20/ERC20.sol\":3388:3393  value */\n      dup6\n        /* \"@openzeppelin/contracts/token/ERC20/ERC20.sol\":3367:3376  _transfer */\n      tag_145\n        /* \"@openzeppelin/contracts/token/ERC20/ERC20.sol\":3367:3394  _transfer(owner, to, value) */\n      jump\t// in\n    tag_205:\n        /* \"@openzeppelin/contracts/token/ERC20/ERC20.sol\":3411:3415  true */\n      0x01\n        /* \"@openzeppelin/contracts/token/ERC20/ERC20.sol\":3404:3415  return true */\n      swap2\n      pop\n      pop\n        /* \"@openzeppelin/contracts/token/ERC20/ERC20.sol\":3244:3422  function transfer(address to, uint256 value) public virtual returns (bool) {... */\n      swap3\n      swap2\n      pop\n      pop\n      jump\t// out\n        /* \"CryptoPunksReborn.sol\":260:284  uint256 public maxSupply */\n    tag_106:\n      sload(0x07)\n      dup2\n      jump\t// out\n        /* \"CryptoPunksReborn.sol\":1782:2275  function tokenDetails() external view returns (... */\n    tag_110:\n        /* \"CryptoPunksReborn.sol\":1838:1856  string memory name */\n      0x60\n        /* \"CryptoPunksReborn.sol\":1866:1886  string memory symbol */\n      dup1\n        /* \"CryptoPunksReborn.sol\":1896:1909  uint8 decimal */\n      0x00\n        /* \"CryptoPunksReborn.sol\":1919:1940  uint256 currentSupply */\n      dup1\n        /* \"CryptoPunksReborn.sol\":1950:1972  uint256 maxTokenSupply */\n      0x00\n        /* \"CryptoPunksReborn.sol\":1982:2003  uint256 pricePerToken */\n      dup1\n        /* \"CryptoPunksReborn.sol\":2013:2031  bool mintingStatus */\n      0x00\n        /* \"CryptoPunksReborn.sol\":2069:2073  name */\n      dup7\n        /* \"CryptoPunksReborn.sol\":2087:2093  symbol */\n      dup7\n        /* \"CryptoPunksReborn.sol\":2107:2117  decimals() */\n      tag_207\n        /* \"CryptoPunksReborn.sol\":2107:2115  decimals */\n      tag_56\n        /* \"CryptoPunksReborn.sol\":2107:2117  decimals() */\n      jump\t// in\n    tag_207:\n        /* \"CryptoPunksReborn.sol\":2153:2163  decimals() */\n      tag_208\n        /* \"CryptoPunksReborn.sol\":2153:2161  decimals */\n      tag_56\n        /* \"CryptoPunksReborn.sol\":2153:2163  decimals() */\n      jump\t// in\n    tag_208:\n        /* \"CryptoPunksReborn.sol\":2147:2149  10 */\n      0x0a\n        /* \"CryptoPunksReborn.sol\":2147:2163  10 ** decimals() */\n      tag_209\n      swap2\n      swap1\n      tag_159\n      jump\t// in\n    tag_209:\n        /* \"CryptoPunksReborn.sol\":2131:2143  tokensMinted */\n      sload(0x09)\n        /* \"CryptoPunksReborn.sol\":2131:2164  tokensMinted / (10 ** decimals()) */\n      tag_210\n      swap2\n      swap1\n      tag_211\n      jump\t// in\n    tag_210:\n        /* \"CryptoPunksReborn.sol\":2197:2207  decimals() */\n      tag_212\n        /* \"CryptoPunksReborn.sol\":2197:2205  decimals */\n      tag_56\n        /* \"CryptoPunksReborn.sol\":2197:2207  decimals() */\n      jump\t// in\n    tag_212:\n        /* \"CryptoPunksReborn.sol\":2191:2193  10 */\n      0x0a\n        /* \"CryptoPunksReborn.sol\":2191:2207  10 ** decimals() */\n      tag_213\n      swap2\n      swap1\n      tag_159\n      jump\t// in\n    tag_213:\n        /* \"CryptoPunksReborn.sol\":2178:2187  maxSupply */\n      sload(0x07)\n        /* \"CryptoPunksReborn.sol\":2178:2208  maxSupply / (10 ** decimals()) */\n      tag_214\n      swap2\n      swap1\n      tag_211\n      jump\t// in\n    tag_214:\n        /* \"CryptoPunksReborn.sol\":2222:2231  mintPrice */\n      sload(0x06)\n        /* \"CryptoPunksReborn.sol\":2245:2258  isMintingOpen */\n      0x08\n      0x00\n      swap1\n      sload\n      swap1\n      0x0100\n      exp\n      swap1\n      div\n      0xff\n      and\n        /* \"CryptoPunksReborn.sol\":2048:2268  return (... */\n      swap7\n      pop\n      swap7\n      pop\n      swap7\n      pop\n      swap7\n      pop\n      swap7\n      pop\n      swap7\n      pop\n      swap7\n      pop\n        /* \"CryptoPunksReborn.sol\":1782:2275  function tokenDetails() external view returns (... */\n      swap1\n      swap2\n      swap3\n      swap4\n      swap5\n      swap6\n      swap7\n      jump\t// out\n        /* \"@openzeppelin/contracts/token/ERC20/ERC20.sol\":3455:3595  function allowance(address owner, address spender) public view virtual returns (uint256) {... */\n    tag_117:\n        /* \"@openzeppelin/contracts/token/ERC20/ERC20.sol\":3535:3542  uint256 */\n      0x00\n        /* \"@openzeppelin/contracts/token/ERC20/ERC20.sol\":3561:3572  _allowances */\n      0x01\n        /* \"@openzeppelin/contracts/token/ERC20/ERC20.sol\":3561:3579  _allowances[owner] */\n      0x00\n        /* \"@openzeppelin/contracts/token/ERC20/ERC20.sol\":3573:3578  owner */\n      dup5\n        /* \"@openzeppelin/contracts/token/ERC20/ERC20.sol\":3561:3579  _allowances[owner] */\n      0xffffffffffffffffffffffffffffffffffffffff\n      and\n      0xffffffffffffffffffffffffffffffffffffffff\n      and\n      dup2\n      mstore\n      0x20\n      add\n      swap1\n      dup2\n      mstore\n      0x20\n      add\n      0x00\n      keccak256\n        /* \"@openzeppelin/contracts/token/ERC20/ERC20.sol\":3561:3588  _allowances[owner][spender] */\n      0x00\n        /* \"@openzeppelin/contracts/token/ERC20/ERC20.sol\":3580:3587  spender */\n      dup4\n        /* \"@openzeppelin/contracts/token/ERC20/ERC20.sol\":3561:3588  _allowances[owner][spender] */\n      0xffffffffffffffffffffffffffffffffffffffff\n      and\n      0xffffffffffffffffffffffffffffffffffffffff\n      and\n      dup2\n      mstore\n      0x20\n      add\n      swap1\n      dup2\n      mstore\n      0x20\n      add\n      0x00\n      keccak256\n      sload\n        /* \"@openzeppelin/contracts/token/ERC20/ERC20.sol\":3554:3588  return _allowances[owner][spender] */\n      swap1\n      pop\n        /* \"@openzeppelin/contracts/token/ERC20/ERC20.sol\":3455:3595  function allowance(address owner, address spender) public view virtual returns (uint256) {... */\n      swap3\n      swap2\n      pop\n      pop\n      jump\t// out\n        /* \"@openzeppelin/contracts/access/Ownable.sol\":2543:2758  function transferOwnership(address newOwner) public virtual onlyOwner {... */\n    tag_122:\n        /* \"@openzeppelin/contracts/access/Ownable.sol\":1531:1544  _checkOwner() */\n      tag_217\n        /* \"@openzeppelin/contracts/access/Ownable.sol\":1531:1542  _checkOwner */\n      tag_149\n        /* \"@openzeppelin/contracts/access/Ownable.sol\":1531:1544  _checkOwner() */\n      jump\t// in\n    tag_217:\n        /* \"@openzeppelin/contracts/access/Ownable.sol\":2647:2648  0 */\n      0x00\n        /* \"@openzeppelin/contracts/access/Ownable.sol\":2627:2649  newOwner == address(0) */\n      0xffffffffffffffffffffffffffffffffffffffff\n      and\n        /* \"@openzeppelin/contracts/access/Ownable.sol\":2627:2635  newOwner */\n      dup2\n        /* \"@openzeppelin/contracts/access/Ownable.sol\":2627:2649  newOwner == address(0) */\n      0xffffffffffffffffffffffffffffffffffffffff\n      and\n      sub\n        /* \"@openzeppelin/contracts/access/Ownable.sol\":2623:2714  if (newOwner == address(0)) {... */\n      tag_219\n      jumpi\n        /* \"@openzeppelin/contracts/access/Ownable.sol\":2700:2701  0 */\n      0x00\n        /* \"@openzeppelin/contracts/access/Ownable.sol\":2672:2703  OwnableInvalidOwner(address(0)) */\n      mload(0x40)\n      0x1e4fbdf700000000000000000000000000000000000000000000000000000000\n      dup2\n      mstore\n      0x04\n      add\n      tag_220\n      swap2\n      swap1\n      tag_91\n      jump\t// in\n    tag_220:\n      mload(0x40)\n      dup1\n      swap2\n      sub\n      swap1\n      revert\n        /* \"@openzeppelin/contracts/access/Ownable.sol\":2623:2714  if (newOwner == address(0)) {... */\n    tag_219:\n        /* \"@openzeppelin/contracts/access/Ownable.sol\":2723:2751  _transferOwnership(newOwner) */\n      tag_221\n        /* \"@openzeppelin/contracts/access/Ownable.sol\":2742:2750  newOwner */\n      dup2\n        /* \"@openzeppelin/contracts/access/Ownable.sol\":2723:2741  _transferOwnership */\n      tag_173\n        /* \"@openzeppelin/contracts/access/Ownable.sol\":2723:2751  _transferOwnership(newOwner) */\n      jump\t// in\n    tag_221:\n        /* \"@openzeppelin/contracts/access/Ownable.sol\":2543:2758  function transferOwnership(address newOwner) public virtual onlyOwner {... */\n      pop\n      jump\t// out\n        /* \"CryptoPunksReborn.sol\":1337:1429  function setMintPrice(uint256 _price) external onlyOwner {... */\n    tag_126:\n        /* \"@openzeppelin/contracts/access/Ownable.sol\":1531:1544  _checkOwner() */\n      tag_223\n        /* \"@openzeppelin/contracts/access/Ownable.sol\":1531:1542  _checkOwner */\n      tag_149\n        /* \"@openzeppelin/contracts/access/Ownable.sol\":1531:1544  _checkOwner() */\n      jump\t// in\n    tag_223:\n        /* \"CryptoPunksReborn.sol\":1416:1422  _price */\n      dup1\n        /* \"CryptoPunksReborn.sol\":1404:1413  mintPrice */\n      0x06\n        /* \"CryptoPunksReborn.sol\":1404:1422  mintPrice = _price */\n      dup2\n      swap1\n      sstore\n      pop\n        /* \"CryptoPunksReborn.sol\":1337:1429  function setMintPrice(uint256 _price) external onlyOwner {... */\n      pop\n      jump\t// out\n        /* \"@openzeppelin/contracts/utils/Context.sol\":656:752  function _msgSender() internal view virtual returns (address) {... */\n    tag_136:\n        /* \"@openzeppelin/contracts/utils/Context.sol\":709:716  address */\n      0x00\n        /* \"@openzeppelin/contracts/utils/Context.sol\":735:745  msg.sender */\n      caller\n        /* \"@openzeppelin/contracts/utils/Context.sol\":728:745  return msg.sender */\n      swap1\n      pop\n        /* \"@openzeppelin/contracts/utils/Context.sol\":656:752  function _msgSender() internal view virtual returns (address) {... */\n      swap1\n      jump\t// out\n        /* \"@openzeppelin/contracts/token/ERC20/ERC20.sol\":8630:8758  function _approve(address owner, address spender, uint256 value) internal {... */\n    tag_138:\n        /* \"@openzeppelin/contracts/token/ERC20/ERC20.sol\":8714:8751  _approve(owner, spender, value, true) */\n      tag_227\n        /* \"@openzeppelin/contracts/token/ERC20/ERC20.sol\":8723:8728  owner */\n      dup4\n        /* \"@openzeppelin/contracts/token/ERC20/ERC20.sol\":8730:8737  spender */\n      dup4\n        /* \"@openzeppelin/contracts/token/ERC20/ERC20.sol\":8739:8744  value */\n      dup4\n        /* \"@openzeppelin/contracts/token/ERC20/ERC20.sol\":8746:8750  true */\n      0x01\n        /* \"@openzeppelin/contracts/token/ERC20/ERC20.sol\":8714:8722  _approve */\n      tag_228\n        /* \"@openzeppelin/contracts/token/ERC20/ERC20.sol\":8714:8751  _approve(owner, spender, value, true) */\n      jump\t// in\n    tag_227:\n        /* \"@openzeppelin/contracts/token/ERC20/ERC20.sol\":8630:8758  function _approve(address owner, address spender, uint256 value) internal {... */\n      pop\n      pop\n      pop\n      jump\t// out\n        /* \"@openzeppelin/contracts/token/ERC20/ERC20.sol\":10319:10795  function _spendAllowance(address owner, address spender, uint256 value) internal virtual {... */\n    tag_143:\n        /* \"@openzeppelin/contracts/token/ERC20/ERC20.sol\":10418:10442  uint256 currentAllowance */\n      0x00\n        /* \"@openzeppelin/contracts/token/ERC20/ERC20.sol\":10445:10470  allowance(owner, spender) */\n      tag_230\n        /* \"@openzeppelin/contracts/token/ERC20/ERC20.sol\":10455:10460  owner */\n      dup5\n        /* \"@openzeppelin/contracts/token/ERC20/ERC20.sol\":10462:10469  spender */\n      dup5\n        /* \"@openzeppelin/contracts/token/ERC20/ERC20.sol\":10445:10454  allowance */\n      tag_117\n        /* \"@openzeppelin/contracts/token/ERC20/ERC20.sol\":10445:10470  allowance(owner, spender) */\n      jump\t// in\n    tag_230:\n        /* \"@openzeppelin/contracts/token/ERC20/ERC20.sol\":10418:10470  uint256 currentAllowance = allowance(owner, spender) */\n      swap1\n      pop\n        /* \"@openzeppelin/contracts/token/ERC20/ERC20.sol\":10503:10520  type(uint256).max */\n      0xffffffffffffffffffffffffffffffffffffffffffffffffffffffffffffffff\n        /* \"@openzeppelin/contracts/token/ERC20/ERC20.sol\":10484:10500  currentAllowance */\n      dup2\n        /* \"@openzeppelin/contracts/token/ERC20/ERC20.sol\":10484:10520  currentAllowance < type(uint256).max */\n      lt\n        /* \"@openzeppelin/contracts/token/ERC20/ERC20.sol\":10480:10789  if (currentAllowance < type(uint256).max) {... */\n      iszero\n      tag_231\n      jumpi\n        /* \"@openzeppelin/contracts/token/ERC20/ERC20.sol\":10559:10564  value */\n      dup2\n        /* \"@openzeppelin/contracts/token/ERC20/ERC20.sol\":10540:10556  currentAllowance */\n      dup2\n        /* \"@openzeppelin/contracts/token/ERC20/ERC20.sol\":10540:10564  currentAllowance < value */\n      lt\n        /* \"@openzeppelin/contracts/token/ERC20/ERC20.sol\":10536:10666  if (currentAllowance < value) {... */\n      iszero\n      tag_232\n      jumpi\n        /* \"@openzeppelin/contracts/token/ERC20/ERC20.sol\":10618:10625  spender */\n      dup3\n        /* \"@openzeppelin/contracts/token/ERC20/ERC20.sol\":10627:10643  currentAllowance */\n      dup2\n        /* \"@openzeppelin/contracts/token/ERC20/ERC20.sol\":10645:10650  value */\n      dup4\n        /* \"@openzeppelin/contracts/token/ERC20/ERC20.sol\":10591:10651  ERC20InsufficientAllowance(spender, currentAllowance, value) */\n      mload(0x40)\n      0xfb8f41b200000000000000000000000000000000000000000000000000000000\n      dup2\n      mstore\n      0x04\n      add\n      tag_233\n      swap4\n      swap3\n      swap2\n      swap1\n      tag_234\n      jump\t// in\n    tag_233:\n      mload(0x40)\n      dup1\n      swap2\n      sub\n      swap1\n      revert\n        /* \"@openzeppelin/contracts/token/ERC20/ERC20.sol\":10536:10666  if (currentAllowance < value) {... */\n    tag_232:\n        /* \"@openzeppelin/contracts/token/ERC20/ERC20.sol\":10707:10764  _approve(owner, spender, currentAllowance - value, false) */\n      tag_235\n        /* \"@openzeppelin/contracts/token/ERC20/ERC20.sol\":10716:10721  owner */\n      dup5\n        /* \"@openzeppelin/contracts/token/ERC20/ERC20.sol\":10723:10730  spender */\n      dup5\n        /* \"@openzeppelin/contracts/token/ERC20/ERC20.sol\":10751:10756  value */\n      dup5\n        /* \"@openzeppelin/contracts/token/ERC20/ERC20.sol\":10732:10748  currentAllowance */\n      dup5\n        /* \"@openzeppelin/contracts/token/ERC20/ERC20.sol\":10732:10756  currentAllowance - value */\n      sub\n        /* \"@openzeppelin/contracts/token/ERC20/ERC20.sol\":10758:10763  false */\n      0x00\n        /* \"@openzeppelin/contracts/token/ERC20/ERC20.sol\":10707:10715  _approve */\n      tag_228\n        /* \"@openzeppelin/contracts/token/ERC20/ERC20.sol\":10707:10764  _approve(owner, spender, currentAllowance - value, false) */\n      jump\t// in\n    tag_235:\n        /* \"@openzeppelin/contracts/token/ERC20/ERC20.sol\":10480:10789  if (currentAllowance < type(uint256).max) {... */\n    tag_231:\n        /* \"@openzeppelin/contracts/token/ERC20/ERC20.sol\":10408:10795  {... */\n      pop\n        /* \"@openzeppelin/contracts/token/ERC20/ERC20.sol\":10319:10795  function _spendAllowance(address owner, address spender, uint256 value) internal virtual {... */\n      pop\n      pop\n      pop\n      jump\t// out\n        /* \"@openzeppelin/contracts/token/ERC20/ERC20.sol\":5297:5597  function _transfer(address from, address to, uint256 value) internal {... */\n    tag_145:\n        /* \"@openzeppelin/contracts/token/ERC20/ERC20.sol\":5396:5397  0 */\n      0x00\n        /* \"@openzeppelin/contracts/token/ERC20/ERC20.sol\":5380:5398  from == address(0) */\n      0xffffffffffffffffffffffffffffffffffffffff\n      and\n        /* \"@openzeppelin/contracts/token/ERC20/ERC20.sol\":5380:5384  from */\n      dup4\n        /* \"@openzeppelin/contracts/token/ERC20/ERC20.sol\":5380:5398  from == address(0) */\n      0xffffffffffffffffffffffffffffffffffffffff\n      and\n      sub\n        /* \"@openzeppelin/contracts/token/ERC20/ERC20.sol\":5376:5462  if (from == address(0)) {... */\n      tag_237\n      jumpi\n        /* \"@openzeppelin/contracts/token/ERC20/ERC20.sol\":5448:5449  0 */\n      0x00\n        /* \"@openzeppelin/contracts/token/ERC20/ERC20.sol\":5421:5451  ERC20InvalidSender(address(0)) */\n      mload(0x40)\n      0x96c6fd1e00000000000000000000000000000000000000000000000000000000\n      dup2\n      mstore\n      0x04\n      add\n      tag_238\n      swap2\n      swap1\n      tag_91\n      jump\t// in\n    tag_238:\n      mload(0x40)\n      dup1\n      swap2\n      sub\n      swap1\n      revert\n        /* \"@openzeppelin/contracts/token/ERC20/ERC20.sol\":5376:5462  if (from == address(0)) {... */\n    tag_237:\n        /* \"@openzeppelin/contracts/token/ERC20/ERC20.sol\":5489:5490  0 */\n      0x00\n        /* \"@openzeppelin/contracts/token/ERC20/ERC20.sol\":5475:5491  to == address(0) */\n      0xffffffffffffffffffffffffffffffffffffffff\n      and\n        /* \"@openzeppelin/contracts/token/ERC20/ERC20.sol\":5475:5477  to */\n      dup3\n        /* \"@openzeppelin/contracts/token/ERC20/ERC20.sol\":5475:5491  to == address(0) */\n      0xffffffffffffffffffffffffffffffffffffffff\n      and\n      sub\n        /* \"@openzeppelin/contracts/token/ERC20/ERC20.sol\":5471:5557  if (to == address(0)) {... */\n      tag_239\n      jumpi\n        /* \"@openzeppelin/contracts/token/ERC20/ERC20.sol\":5543:5544  0 */\n      0x00\n        /* \"@openzeppelin/contracts/token/ERC20/ERC20.sol\":5514:5546  ERC20InvalidReceiver(address(0)) */\n      mload(0x40)\n      0xec442f0500000000000000000000000000000000000000000000000000000000\n      dup2\n      mstore\n      0x04\n      add\n      tag_240\n      swap2\n      swap1\n      tag_91\n      jump\t// in\n    tag_240:\n      mload(0x40)\n      dup1\n      swap2\n      sub\n      swap1\n      revert\n        /* \"@openzeppelin/contracts/token/ERC20/ERC20.sol\":5471:5557  if (to == address(0)) {... */\n    tag_239:\n        /* \"@openzeppelin/contracts/token/ERC20/ERC20.sol\":5566:5590  _update(from, to, value) */\n      tag_241\n        /* \"@openzeppelin/contracts/token/ERC20/ERC20.sol\":5574:5578  from */\n      dup4\n        /* \"@openzeppelin/contracts/token/ERC20/ERC20.sol\":5580:5582  to */\n      dup4\n        /* \"@openzeppelin/contracts/token/ERC20/ERC20.sol\":5584:5589  value */\n      dup4\n        /* \"@openzeppelin/contracts/token/ERC20/ERC20.sol\":5566:5573  _update */\n      tag_242\n        /* \"@openzeppelin/contracts/token/ERC20/ERC20.sol\":5566:5590  _update(from, to, value) */\n      jump\t// in\n    tag_241:\n        /* \"@openzeppelin/contracts/token/ERC20/ERC20.sol\":5297:5597  function _transfer(address from, address to, uint256 value) internal {... */\n      pop\n      pop\n      pop\n      jump\t// out\n        /* \"@openzeppelin/contracts/access/Ownable.sol\":1796:1958  function _checkOwner() internal view virtual {... */\n    tag_149:\n        /* \"@openzeppelin/contracts/access/Ownable.sol\":1866:1878  _msgSender() */\n      tag_244\n        /* \"@openzeppelin/contracts/access/Ownable.sol\":1866:1876  _msgSender */\n      tag_136\n        /* \"@openzeppelin/contracts/access/Ownable.sol\":1866:1878  _msgSender() */\n      jump\t// in\n    tag_244:\n        /* \"@openzeppelin/contracts/access/Ownable.sol\":1855:1878  owner() != _msgSender() */\n      0xffffffffffffffffffffffffffffffffffffffff\n      and\n        /* \"@openzeppelin/contracts/access/Ownable.sol\":1855:1862  owner() */\n      tag_245\n        /* \"@openzeppelin/contracts/access/Ownable.sol\":1855:1860  owner */\n      tag_89\n        /* \"@openzeppelin/contracts/access/Ownable.sol\":1855:1862  owner() */\n      jump\t// in\n    tag_245:\n        /* \"@openzeppelin/contracts/access/Ownable.sol\":1855:1878  owner() != _msgSender() */\n      0xffffffffffffffffffffffffffffffffffffffff\n      and\n      eq\n        /* \"@openzeppelin/contracts/access/Ownable.sol\":1851:1952  if (owner() != _msgSender()) {... */\n      tag_246\n      jumpi\n        /* \"@openzeppelin/contracts/access/Ownable.sol\":1928:1940  _msgSender() */\n      tag_247\n        /* \"@openzeppelin/contracts/access/Ownable.sol\":1928:1938  _msgSender */\n      tag_136\n        /* \"@openzeppelin/contracts/access/Ownable.sol\":1928:1940  _msgSender() */\n      jump\t// in\n    tag_247:\n        /* \"@openzeppelin/contracts/access/Ownable.sol\":1901:1941  OwnableUnauthorizedAccount(_msgSender()) */\n      mload(0x40)\n      0x118cdaa700000000000000000000000000000000000000000000000000000000\n      dup2\n      mstore\n      0x04\n      add\n      tag_248\n      swap2\n      swap1\n      tag_91\n      jump\t// in\n    tag_248:\n      mload(0x40)\n      dup1\n      swap2\n      sub\n      swap1\n      revert\n        /* \"@openzeppelin/contracts/access/Ownable.sol\":1851:1952  if (owner() != _msgSender()) {... */\n    tag_246:\n        /* \"@openzeppelin/contracts/access/Ownable.sol\":1796:1958  function _checkOwner() internal view virtual {... */\n      jump\t// out\n        /* \"@openzeppelin/contracts/access/Ownable.sol\":2912:3099  function _transferOwnership(address newOwner) internal virtual {... */\n    tag_173:\n        /* \"@openzeppelin/contracts/access/Ownable.sol\":2985:3001  address oldOwner */\n      0x00\n        /* \"@openzeppelin/contracts/access/Ownable.sol\":3004:3010  _owner */\n      0x05\n      0x00\n      swap1\n      sload\n      swap1\n      0x0100\n      exp\n      swap1\n      div\n      0xffffffffffffffffffffffffffffffffffffffff\n      and\n        /* \"@openzeppelin/contracts/access/Ownable.sol\":2985:3010  address oldOwner = _owner */\n      swap1\n      pop\n        /* \"@openzeppelin/contracts/access/Ownable.sol\":3029:3037  newOwner */\n      dup2\n        /* \"@openzeppelin/contracts/access/Ownable.sol\":3020:3026  _owner */\n      0x05\n      0x00\n        /* \"@openzeppelin/contracts/access/Ownable.sol\":3020:3037  _owner = newOwner */\n      0x0100\n      exp\n      dup2\n      sload\n      dup2\n      0xffffffffffffffffffffffffffffffffffffffff\n      mul\n      not\n      and\n      swap1\n      dup4\n      0xffffffffffffffffffffffffffffffffffffffff\n      and\n      mul\n      or\n      swap1\n      sstore\n      pop\n        /* \"@openzeppelin/contracts/access/Ownable.sol\":3083:3091  newOwner */\n      dup2\n        /* \"@openzeppelin/contracts/access/Ownable.sol\":3052:3092  OwnershipTransferred(oldOwner, newOwner) */\n      0xffffffffffffffffffffffffffffffffffffffff\n      and\n        /* \"@openzeppelin/contracts/access/Ownable.sol\":3073:3081  oldOwner */\n      dup2\n        /* \"@openzeppelin/contracts/access/Ownable.sol\":3052:3092  OwnershipTransferred(oldOwner, newOwner) */\n      0xffffffffffffffffffffffffffffffffffffffff\n      and\n      0x8be0079c531659141344cd1fd0a4f28419497f9722a3daafe3b4186f6b6457e0\n      mload(0x40)\n      mload(0x40)\n      dup1\n      swap2\n      sub\n      swap1\n      log3\n        /* \"@openzeppelin/contracts/access/Ownable.sol\":2975:3099  {... */\n      pop\n        /* \"@openzeppelin/contracts/access/Ownable.sol\":2912:3099  function _transferOwnership(address newOwner) internal virtual {... */\n      pop\n      jump\t// out\n        /* \"@openzeppelin/contracts/token/ERC20/ERC20.sol\":7362:7570  function _mint(address account, uint256 value) internal {... */\n    tag_201:\n        /* \"@openzeppelin/contracts/token/ERC20/ERC20.sol\":7451:7452  0 */\n      0x00\n        /* \"@openzeppelin/contracts/token/ERC20/ERC20.sol\":7432:7453  account == address(0) */\n      0xffffffffffffffffffffffffffffffffffffffff\n      and\n        /* \"@openzeppelin/contracts/token/ERC20/ERC20.sol\":7432:7439  account */\n      dup3\n        /* \"@openzeppelin/contracts/token/ERC20/ERC20.sol\":7432:7453  account == address(0) */\n      0xffffffffffffffffffffffffffffffffffffffff\n      and\n      sub\n        /* \"@openzeppelin/contracts/token/ERC20/ERC20.sol\":7428:7519  if (account == address(0)) {... */\n      tag_251\n      jumpi\n        /* \"@openzeppelin/contracts/token/ERC20/ERC20.sol\":7505:7506  0 */\n      0x00\n        /* \"@openzeppelin/contracts/token/ERC20/ERC20.sol\":7476:7508  ERC20InvalidReceiver(address(0)) */\n      mload(0x40)\n      0xec442f0500000000000000000000000000000000000000000000000000000000\n      dup2\n      mstore\n      0x04\n      add\n      tag_252\n      swap2\n      swap1\n      tag_91\n      jump\t// in\n    tag_252:\n      mload(0x40)\n      dup1\n      swap2\n      sub\n      swap1\n      revert\n        /* \"@openzeppelin/contracts/token/ERC20/ERC20.sol\":7428:7519  if (account == address(0)) {... */\n    tag_251:\n        /* \"@openzeppelin/contracts/token/ERC20/ERC20.sol\":7528:7563  _update(address(0), account, value) */\n      tag_253\n        /* \"@openzeppelin/contracts/token/ERC20/ERC20.sol\":7544:7545  0 */\n      0x00\n        /* \"@openzeppelin/contracts/token/ERC20/ERC20.sol\":7548:7555  account */\n      dup4\n        /* \"@openzeppelin/contracts/token/ERC20/ERC20.sol\":7557:7562  value */\n      dup4\n        /* \"@openzeppelin/contracts/token/ERC20/ERC20.sol\":7528:7535  _update */\n      tag_242\n        /* \"@openzeppelin/contracts/token/ERC20/ERC20.sol\":7528:7563  _update(address(0), account, value) */\n      jump\t// in\n    tag_253:\n        /* \"@openzeppelin/contracts/token/ERC20/ERC20.sol\":7362:7570  function _mint(address account, uint256 value) internal {... */\n      pop\n      pop\n      jump\t// out\n        /* \"@openzeppelin/contracts/token/ERC20/ERC20.sol\":9605:10037  function _approve(address owner, address spender, uint256 value, bool emitEvent) internal virtual {... */\n    tag_228:\n        /* \"@openzeppelin/contracts/token/ERC20/ERC20.sol\":9734:9735  0 */\n      0x00\n        /* \"@openzeppelin/contracts/token/ERC20/ERC20.sol\":9717:9736  owner == address(0) */\n      0xffffffffffffffffffffffffffffffffffffffff\n      and\n        /* \"@openzeppelin/contracts/token/ERC20/ERC20.sol\":9717:9722  owner */\n      dup5\n        /* \"@openzeppelin/contracts/token/ERC20/ERC20.sol\":9717:9736  owner == address(0) */\n      0xffffffffffffffffffffffffffffffffffffffff\n      and\n      sub\n        /* \"@openzeppelin/contracts/token/ERC20/ERC20.sol\":9713:9802  if (owner == address(0)) {... */\n      tag_255\n      jumpi\n        /* \"@openzeppelin/contracts/token/ERC20/ERC20.sol\":9788:9789  0 */\n      0x00\n        /* \"@openzeppelin/contracts/token/ERC20/ERC20.sol\":9759:9791  ERC20InvalidApprover(address(0)) */\n      mload(0x40)\n      0xe602df0500000000000000000000000000000000000000000000000000000000\n      dup2\n      mstore\n      0x04\n      add\n      tag_256\n      swap2\n      swap1\n      tag_91\n      jump\t// in\n    tag_256:\n      mload(0x40)\n      dup1\n      swap2\n      sub\n      swap1\n      revert\n        /* \"@openzeppelin/contracts/token/ERC20/ERC20.sol\":9713:9802  if (owner == address(0)) {... */\n    tag_255:\n        /* \"@openzeppelin/contracts/token/ERC20/ERC20.sol\":9834:9835  0 */\n      0x00\n        /* \"@openzeppelin/contracts/token/ERC20/ERC20.sol\":9815:9836  spender == address(0) */\n      0xffffffffffffffffffffffffffffffffffffffff\n      and\n        /* \"@openzeppelin/contracts/token/ERC20/ERC20.sol\":9815:9822  spender */\n      dup4\n        /* \"@openzeppelin/contracts/token/ERC20/ERC20.sol\":9815:9836  spender == address(0) */\n      0xffffffffffffffffffffffffffffffffffffffff\n      and\n      sub\n        /* \"@openzeppelin/contracts/token/ERC20/ERC20.sol\":9811:9901  if (spender == address(0)) {... */\n      tag_257\n      jumpi\n        /* \"@openzeppelin/contracts/token/ERC20/ERC20.sol\":9887:9888  0 */\n      0x00\n        /* \"@openzeppelin/contracts/token/ERC20/ERC20.sol\":9859:9890  ERC20InvalidSpender(address(0)) */\n      mload(0x40)\n      0x94280d6200000000000000000000000000000000000000000000000000000000\n      dup2\n      mstore\n      0x04\n      add\n      tag_258\n      swap2\n      swap1\n      tag_91\n      jump\t// in\n    tag_258:\n      mload(0x40)\n      dup1\n      swap2\n      sub\n      swap1\n      revert\n        /* \"@openzeppelin/contracts/token/ERC20/ERC20.sol\":9811:9901  if (spender == address(0)) {... */\n    tag_257:\n        /* \"@openzeppelin/contracts/token/ERC20/ERC20.sol\":9940:9945  value */\n      dup2\n        /* \"@openzeppelin/contracts/token/ERC20/ERC20.sol\":9910:9921  _allowances */\n      0x01\n        /* \"@openzeppelin/contracts/token/ERC20/ERC20.sol\":9910:9928  _allowances[owner] */\n      0x00\n        /* \"@openzeppelin/contracts/token/ERC20/ERC20.sol\":9922:9927  owner */\n      dup7\n        /* \"@openzeppelin/contracts/token/ERC20/ERC20.sol\":9910:9928  _allowances[owner] */\n      0xffffffffffffffffffffffffffffffffffffffff\n      and\n      0xffffffffffffffffffffffffffffffffffffffff\n      and\n      dup2\n      mstore\n      0x20\n      add\n      swap1\n      dup2\n      mstore\n      0x20\n      add\n      0x00\n      keccak256\n        /* \"@openzeppelin/contracts/token/ERC20/ERC20.sol\":9910:9937  _allowances[owner][spender] */\n      0x00\n        /* \"@openzeppelin/contracts/token/ERC20/ERC20.sol\":9929:9936  spender */\n      dup6\n        /* \"@openzeppelin/contracts/token/ERC20/ERC20.sol\":9910:9937  _allowances[owner][spender] */\n      0xffffffffffffffffffffffffffffffffffffffff\n      and\n      0xffffffffffffffffffffffffffffffffffffffff\n      and\n      dup2\n      mstore\n      0x20\n      add\n      swap1\n      dup2\n      mstore\n      0x20\n      add\n      0x00\n      keccak256\n        /* \"@openzeppelin/contracts/token/ERC20/ERC20.sol\":9910:9945  _allowances[owner][spender] = value */\n      dup2\n      swap1\n      sstore\n      pop\n        /* \"@openzeppelin/contracts/token/ERC20/ERC20.sol\":9959:9968  emitEvent */\n      dup1\n        /* \"@openzeppelin/contracts/token/ERC20/ERC20.sol\":9955:10031  if (emitEvent) {... */\n      iszero\n      tag_259\n      jumpi\n        /* \"@openzeppelin/contracts/token/ERC20/ERC20.sol\":10005:10012  spender */\n      dup3\n        /* \"@openzeppelin/contracts/token/ERC20/ERC20.sol\":9989:10020  Approval(owner, spender, value) */\n      0xffffffffffffffffffffffffffffffffffffffff\n      and\n        /* \"@openzeppelin/contracts/token/ERC20/ERC20.sol\":9998:10003  owner */\n      dup5\n        /* \"@openzeppelin/contracts/token/ERC20/ERC20.sol\":9989:10020  Approval(owner, spender, value) */\n      0xffffffffffffffffffffffffffffffffffffffff\n      and\n      0x8c5be1e5ebec7d5bd14f71427d1e84f3dd0314c0f7b2291e5b200ac8c7c3b925\n        /* \"@openzeppelin/contracts/token/ERC20/ERC20.sol\":10014:10019  value */\n      dup5\n        /* \"@openzeppelin/contracts/token/ERC20/ERC20.sol\":9989:10020  Approval(owner, spender, value) */\n      mload(0x40)\n      tag_260\n      swap2\n      swap1\n      tag_43\n      jump\t// in\n    tag_260:\n      mload(0x40)\n      dup1\n      swap2\n      sub\n      swap1\n      log3\n        /* \"@openzeppelin/contracts/token/ERC20/ERC20.sol\":9955:10031  if (emitEvent) {... */\n    tag_259:\n        /* \"@openzeppelin/contracts/token/ERC20/ERC20.sol\":9605:10037  function _approve(address owner, address spender, uint256 value, bool emitEvent) internal virtual {... */\n      pop\n      pop\n      pop\n      pop\n      jump\t// out\n        /* \"@openzeppelin/contracts/token/ERC20/ERC20.sol\":5912:7019  function _update(address from, address to, uint256 value) internal virtual {... */\n    tag_242:\n        /* \"@openzeppelin/contracts/token/ERC20/ERC20.sol\":6017:6018  0 */\n      0x00\n        /* \"@openzeppelin/contracts/token/ERC20/ERC20.sol\":6001:6019  from == address(0) */\n      0xffffffffffffffffffffffffffffffffffffffff\n      and\n        /* \"@openzeppelin/contracts/token/ERC20/ERC20.sol\":6001:6005  from */\n      dup4\n        /* \"@openzeppelin/contracts/token/ERC20/ERC20.sol\":6001:6019  from == address(0) */\n      0xffffffffffffffffffffffffffffffffffffffff\n      and\n      sub\n        /* \"@openzeppelin/contracts/token/ERC20/ERC20.sol\":5997:6537  if (from == address(0)) {... */\n      tag_262\n      jumpi\n        /* \"@openzeppelin/contracts/token/ERC20/ERC20.sol\":6153:6158  value */\n      dup1\n        /* \"@openzeppelin/contracts/token/ERC20/ERC20.sol\":6137:6149  _totalSupply */\n      0x02\n      0x00\n        /* \"@openzeppelin/contracts/token/ERC20/ERC20.sol\":6137:6158  _totalSupply += value */\n      dup3\n      dup3\n      sload\n      tag_263\n      swap2\n      swap1\n      tag_196\n      jump\t// in\n    tag_263:\n      swap3\n      pop\n      pop\n      dup2\n      swap1\n      sstore\n      pop\n        /* \"@openzeppelin/contracts/token/ERC20/ERC20.sol\":5997:6537  if (from == address(0)) {... */\n      jump(tag_264)\n    tag_262:\n        /* \"@openzeppelin/contracts/token/ERC20/ERC20.sol\":6189:6208  uint256 fromBalance */\n      0x00\n        /* \"@openzeppelin/contracts/token/ERC20/ERC20.sol\":6211:6220  _balances */\n      dup1\n        /* \"@openzeppelin/contracts/token/ERC20/ERC20.sol\":6211:6226  _balances[from] */\n      0x00\n        /* \"@openzeppelin/contracts/token/ERC20/ERC20.sol\":6221:6225  from */\n      dup6\n        /* \"@openzeppelin/contracts/token/ERC20/ERC20.sol\":6211:6226  _balances[from] */\n      0xffffffffffffffffffffffffffffffffffffffff\n      and\n      0xffffffffffffffffffffffffffffffffffffffff\n      and\n      dup2\n      mstore\n      0x20\n      add\n      swap1\n      dup2\n      mstore\n      0x20\n      add\n      0x00\n      keccak256\n      sload\n        /* \"@openzeppelin/contracts/token/ERC20/ERC20.sol\":6189:6226  uint256 fromBalance = _balances[from] */\n      swap1\n      pop\n        /* \"@openzeppelin/contracts/token/ERC20/ERC20.sol\":6258:6263  value */\n      dup2\n        /* \"@openzeppelin/contracts/token/ERC20/ERC20.sol\":6244:6255  fromBalance */\n      dup2\n        /* \"@openzeppelin/contracts/token/ERC20/ERC20.sol\":6244:6263  fromBalance < value */\n      lt\n        /* \"@openzeppelin/contracts/token/ERC20/ERC20.sol\":6240:6355  if (fromBalance < value) {... */\n      iszero\n      tag_265\n      jumpi\n        /* \"@openzeppelin/contracts/token/ERC20/ERC20.sol\":6315:6319  from */\n      dup4\n        /* \"@openzeppelin/contracts/token/ERC20/ERC20.sol\":6321:6332  fromBalance */\n      dup2\n        /* \"@openzeppelin/contracts/token/ERC20/ERC20.sol\":6334:6339  value */\n      dup4\n        /* \"@openzeppelin/contracts/token/ERC20/ERC20.sol\":6290:6340  ERC20InsufficientBalance(from, fromBalance, value) */\n      mload(0x40)\n      0xe450d38c00000000000000000000000000000000000000000000000000000000\n      dup2\n      mstore\n      0x04\n      add\n      tag_266\n      swap4\n      swap3\n      swap2\n      swap1\n      tag_234\n      jump\t// in\n    tag_266:\n      mload(0x40)\n      dup1\n      swap2\n      sub\n      swap1\n      revert\n        /* \"@openzeppelin/contracts/token/ERC20/ERC20.sol\":6240:6355  if (fromBalance < value) {... */\n    tag_265:\n        /* \"@openzeppelin/contracts/token/ERC20/ERC20.sol\":6507:6512  value */\n      dup2\n        /* \"@openzeppelin/contracts/token/ERC20/ERC20.sol\":6493:6504  fromBalance */\n      dup2\n        /* \"@openzeppelin/contracts/token/ERC20/ERC20.sol\":6493:6512  fromBalance - value */\n      sub\n        /* \"@openzeppelin/contracts/token/ERC20/ERC20.sol\":6475:6484  _balances */\n      0x00\n        /* \"@openzeppelin/contracts/token/ERC20/ERC20.sol\":6475:6490  _balances[from] */\n      dup1\n        /* \"@openzeppelin/contracts/token/ERC20/ERC20.sol\":6485:6489  from */\n      dup7\n        /* \"@openzeppelin/contracts/token/ERC20/ERC20.sol\":6475:6490  _balances[from] */\n      0xffffffffffffffffffffffffffffffffffffffff\n      and\n      0xffffffffffffffffffffffffffffffffffffffff\n      and\n      dup2\n      mstore\n      0x20\n      add\n      swap1\n      dup2\n      mstore\n      0x20\n      add\n      0x00\n      keccak256\n        /* \"@openzeppelin/contracts/token/ERC20/ERC20.sol\":6475:6512  _balances[from] = fromBalance - value */\n      dup2\n      swap1\n      sstore\n      pop\n        /* \"@openzeppelin/contracts/token/ERC20/ERC20.sol\":6175:6537  {... */\n      pop\n        /* \"@openzeppelin/contracts/token/ERC20/ERC20.sol\":5997:6537  if (from == address(0)) {... */\n    tag_264:\n        /* \"@openzeppelin/contracts/token/ERC20/ERC20.sol\":6565:6566  0 */\n      0x00\n        /* \"@openzeppelin/contracts/token/ERC20/ERC20.sol\":6551:6567  to == address(0) */\n      0xffffffffffffffffffffffffffffffffffffffff\n      and\n        /* \"@openzeppelin/contracts/token/ERC20/ERC20.sol\":6551:6553  to */\n      dup3\n        /* \"@openzeppelin/contracts/token/ERC20/ERC20.sol\":6551:6567  to == address(0) */\n      0xffffffffffffffffffffffffffffffffffffffff\n      and\n      sub\n        /* \"@openzeppelin/contracts/token/ERC20/ERC20.sol\":6547:6972  if (to == address(0)) {... */\n      tag_267\n      jumpi\n        /* \"@openzeppelin/contracts/token/ERC20/ERC20.sol\":6730:6735  value */\n      dup1\n        /* \"@openzeppelin/contracts/token/ERC20/ERC20.sol\":6714:6726  _totalSupply */\n      0x02\n      0x00\n        /* \"@openzeppelin/contracts/token/ERC20/ERC20.sol\":6714:6735  _totalSupply -= value */\n      dup3\n      dup3\n      sload\n      sub\n      swap3\n      pop\n      pop\n      dup2\n      swap1\n      sstore\n      pop\n        /* \"@openzeppelin/contracts/token/ERC20/ERC20.sol\":6547:6972  if (to == address(0)) {... */\n      jump(tag_268)\n    tag_267:\n        /* \"@openzeppelin/contracts/token/ERC20/ERC20.sol\":6942:6947  value */\n      dup1\n        /* \"@openzeppelin/contracts/token/ERC20/ERC20.sol\":6925:6934  _balances */\n      0x00\n        /* \"@openzeppelin/contracts/token/ERC20/ERC20.sol\":6925:6938  _balances[to] */\n      dup1\n        /* \"@openzeppelin/contracts/token/ERC20/ERC20.sol\":6935:6937  to */\n      dup5\n        /* \"@openzeppelin/contracts/token/ERC20/ERC20.sol\":6925:6938  _balances[to] */\n      0xffffffffffffffffffffffffffffffffffffffff\n      and\n      0xffffffffffffffffffffffffffffffffffffffff\n      and\n      dup2\n      mstore\n      0x20\n      add\n      swap1\n      dup2\n      mstore\n      0x20\n      add\n      0x00\n      keccak256\n      0x00\n        /* \"@openzeppelin/contracts/token/ERC20/ERC20.sol\":6925:6947  _balances[to] += value */\n      dup3\n      dup3\n      sload\n      add\n      swap3\n      pop\n      pop\n      dup2\n      swap1\n      sstore\n      pop\n        /* \"@openzeppelin/contracts/token/ERC20/ERC20.sol\":6547:6972  if (to == address(0)) {... */\n    tag_268:\n        /* \"@openzeppelin/contracts/token/ERC20/ERC20.sol\":7002:7004  to */\n      dup2\n        /* \"@openzeppelin/contracts/token/ERC20/ERC20.sol\":6987:7012  Transfer(from, to, value) */\n      0xffffffffffffffffffffffffffffffffffffffff\n      and\n        /* \"@openzeppelin/contracts/token/ERC20/ERC20.sol\":6996:7000  from */\n      dup4\n        /* \"@openzeppelin/contracts/token/ERC20/ERC20.sol\":6987:7012  Transfer(from, to, value) */\n      0xffffffffffffffffffffffffffffffffffffffff\n      and\n      0xddf252ad1be2c89b69c2b068fc378daa952ba7f163c4a11628f55a4df523b3ef\n        /* \"@openzeppelin/contracts/token/ERC20/ERC20.sol\":7006:7011  value */\n      dup4\n        /* \"@openzeppelin/contracts/token/ERC20/ERC20.sol\":6987:7012  Transfer(from, to, value) */\n      mload(0x40)\n      tag_269\n      swap2\n      swap1\n      tag_43\n      jump\t// in\n    tag_269:\n      mload(0x40)\n      dup1\n      swap2\n      sub\n      swap1\n      log3\n        /* \"@openzeppelin/contracts/token/ERC20/ERC20.sol\":5912:7019  function _update(address from, address to, uint256 value) internal virtual {... */\n      pop\n      pop\n      pop\n      jump\t// out\n        /* \"#utility.yul\":7:106   */\n    tag_270:\n        /* \"#utility.yul\":59:65   */\n      0x00\n        /* \"#utility.yul\":93:98   */\n      dup2\n        /* \"#utility.yul\":87:99   */\n      mload\n        /* \"#utility.yul\":77:99   */\n      swap1\n      pop\n        /* \"#utility.yul\":7:106   */\n      swap2\n      swap1\n      pop\n      jump\t// out\n        /* \"#utility.yul\":112:281   */\n    tag_271:\n        /* \"#utility.yul\":196:207   */\n      0x00\n        /* \"#utility.yul\":230:236   */\n      dup3\n        /* \"#utility.yul\":225:228   */\n      dup3\n        /* \"#utility.yul\":218:237   */\n      mstore\n        /* \"#utility.yul\":270:274   */\n      0x20\n        /* \"#utility.yul\":265:268   */\n      dup3\n        /* \"#utility.yul\":261:275   */\n      add\n        /* \"#utility.yul\":246:275   */\n      swap1\n      pop\n        /* \"#utility.yul\":112:281   */\n      swap3\n      swap2\n      pop\n      pop\n      jump\t// out\n        /* \"#utility.yul\":287:533   */\n    tag_272:\n        /* \"#utility.yul\":368:369   */\n      0x00\n        /* \"#utility.yul\":378:491   */\n    tag_309:\n        /* \"#utility.yul\":392:398   */\n      dup4\n        /* \"#utility.yul\":389:390   */\n      dup2\n        /* \"#utility.yul\":386:399   */\n      lt\n        /* \"#utility.yul\":378:491   */\n      iszero\n      tag_311\n      jumpi\n        /* \"#utility.yul\":477:478   */\n      dup1\n        /* \"#utility.yul\":472:475   */\n      dup3\n        /* \"#utility.yul\":468:479   */\n      add\n        /* \"#utility.yul\":462:480   */\n      mload\n        /* \"#utility.yul\":458:459   */\n      dup2\n        /* \"#utility.yul\":453:456   */\n      dup5\n        /* \"#utility.yul\":449:460   */\n      add\n        /* \"#utility.yul\":442:481   */\n      mstore\n        /* \"#utility.yul\":414:416   */\n      0x20\n        /* \"#utility.yul\":411:412   */\n      dup2\n        /* \"#utility.yul\":407:417   */\n      add\n        /* \"#utility.yul\":402:417   */\n      swap1\n      pop\n        /* \"#utility.yul\":378:491   */\n      jump(tag_309)\n    tag_311:\n        /* \"#utility.yul\":525:526   */\n      0x00\n        /* \"#utility.yul\":516:522   */\n      dup5\n        /* \"#utility.yul\":511:514   */\n      dup5\n        /* \"#utility.yul\":507:523   */\n      add\n        /* \"#utility.yul\":500:527   */\n      mstore\n        /* \"#utility.yul\":349:533   */\n      pop\n        /* \"#utility.yul\":287:533   */\n      pop\n      pop\n      pop\n      jump\t// out\n        /* \"#utility.yul\":539:641   */\n    tag_273:\n        /* \"#utility.yul\":580:586   */\n      0x00\n        /* \"#utility.yul\":631:633   */\n      0x1f\n        /* \"#utility.yul\":627:634   */\n      not\n        /* \"#utility.yul\":622:624   */\n      0x1f\n        /* \"#utility.yul\":615:620   */\n      dup4\n        /* \"#utility.yul\":611:625   */\n      add\n        /* \"#utility.yul\":607:635   */\n      and\n        /* \"#utility.yul\":597:635   */\n      swap1\n      pop\n        /* \"#utility.yul\":539:641   */\n      swap2\n      swap1\n      pop\n      jump\t// out\n        /* \"#utility.yul\":647:1024   */\n    tag_274:\n        /* \"#utility.yul\":735:738   */\n      0x00\n        /* \"#utility.yul\":763:802   */\n      tag_314\n        /* \"#utility.yul\":796:801   */\n      dup3\n        /* \"#utility.yul\":763:802   */\n      tag_270\n      jump\t// in\n    tag_314:\n        /* \"#utility.yul\":818:889   */\n      tag_315\n        /* \"#utility.yul\":882:888   */\n      dup2\n        /* \"#utility.yul\":877:880   */\n      dup6\n        /* \"#utility.yul\":818:889   */\n      tag_271\n      jump\t// in\n    tag_315:\n        /* \"#utility.yul\":811:889   */\n      swap4\n      pop\n        /* \"#utility.yul\":898:963   */\n      tag_316\n        /* \"#utility.yul\":956:962   */\n      dup2\n        /* \"#utility.yul\":951:954   */\n      dup6\n        /* \"#utility.yul\":944:948   */\n      0x20\n        /* \"#utility.yul\":937:942   */\n      dup7\n        /* \"#utility.yul\":933:949   */\n      add\n        /* \"#utility.yul\":898:963   */\n      tag_272\n      jump\t// in\n    tag_316:\n        /* \"#utility.yul\":988:1017   */\n      tag_317\n        /* \"#utility.yul\":1010:1016   */\n      dup2\n        /* \"#utility.yul\":988:1017   */\n      tag_273\n      jump\t// in\n    tag_317:\n        /* \"#utility.yul\":983:986   */\n      dup5\n        /* \"#utility.yul\":979:1018   */\n      add\n        /* \"#utility.yul\":972:1018   */\n      swap2\n      pop\n        /* \"#utility.yul\":739:1024   */\n      pop\n        /* \"#utility.yul\":647:1024   */\n      swap3\n      swap2\n      pop\n      pop\n      jump\t// out\n        /* \"#utility.yul\":1030:1343   */\n    tag_31:\n        /* \"#utility.yul\":1143:1147   */\n      0x00\n        /* \"#utility.yul\":1181:1183   */\n      0x20\n        /* \"#utility.yul\":1170:1179   */\n      dup3\n        /* \"#utility.yul\":1166:1184   */\n      add\n        /* \"#utility.yul\":1158:1184   */\n      swap1\n      pop\n        /* \"#utility.yul\":1230:1239   */\n      dup2\n        /* \"#utility.yul\":1224:1228   */\n      dup2\n        /* \"#utility.yul\":1220:1240   */\n      sub\n        /* \"#utility.yul\":1216:1217   */\n      0x00\n        /* \"#utility.yul\":1205:1214   */\n      dup4\n        /* \"#utility.yul\":1201:1218   */\n      add\n        /* \"#utility.yul\":1194:1241   */\n      mstore\n        /* \"#utility.yul\":1258:1336   */\n      tag_319\n        /* \"#utility.yul\":1331:1335   */\n      dup2\n        /* \"#utility.yul\":1322:1328   */\n      dup5\n        /* \"#utility.yul\":1258:1336   */\n      tag_274\n      jump\t// in\n    tag_319:\n        /* \"#utility.yul\":1250:1336   */\n      swap1\n      pop\n        /* \"#utility.yul\":1030:1343   */\n      swap3\n      swap2\n      pop\n      pop\n      jump\t// out\n        /* \"#utility.yul\":1430:1547   */\n    tag_276:\n        /* \"#utility.yul\":1539:1540   */\n      0x00\n        /* \"#utility.yul\":1536:1537   */\n      dup1\n        /* \"#utility.yul\":1529:1541   */\n      revert\n        /* \"#utility.yul\":1676:1802   */\n    tag_278:\n        /* \"#utility.yul\":1713:1720   */\n      0x00\n        /* \"#utility.yul\":1753:1795   */\n      0xffffffffffffffffffffffffffffffffffffffff\n        /* \"#utility.yul\":1746:1751   */\n      dup3\n        /* \"#utility.yul\":1742:1796   */\n      and\n        /* \"#utility.yul\":1731:1796   */\n      swap1\n      pop\n        /* \"#utility.yul\":1676:1802   */\n      swap2\n      swap1\n      pop\n      jump\t// out\n        /* \"#utility.yul\":1808:1904   */\n    tag_279:\n        /* \"#utility.yul\":1845:1852   */\n      0x00\n        /* \"#utility.yul\":1874:1898   */\n      tag_325\n        /* \"#utility.yul\":1892:1897   */\n      dup3\n        /* \"#utility.yul\":1874:1898   */\n      tag_278\n      jump\t// in\n    tag_325:\n        /* \"#utility.yul\":1863:1898   */\n      swap1\n      pop\n        /* \"#utility.yul\":1808:1904   */\n      swap2\n      swap1\n      pop\n      jump\t// out\n        /* \"#utility.yul\":1910:2032   */\n    tag_280:\n        /* \"#utility.yul\":1983:2007   */\n      tag_327\n        /* \"#utility.yul\":2001:2006   */\n      dup2\n        /* \"#utility.yul\":1983:2007   */\n      tag_279\n      jump\t// in\n    tag_327:\n        /* \"#utility.yul\":1976:1981   */\n      dup2\n        /* \"#utility.yul\":1973:2008   */\n      eq\n        /* \"#utility.yul\":1963:2026   */\n      tag_328\n      jumpi\n        /* \"#utility.yul\":2022:2023   */\n      0x00\n        /* \"#utility.yul\":2019:2020   */\n      dup1\n        /* \"#utility.yul\":2012:2024   */\n      revert\n        /* \"#utility.yul\":1963:2026   */\n    tag_328:\n        /* \"#utility.yul\":1910:2032   */\n      pop\n      jump\t// out\n        /* \"#utility.yul\":2038:2177   */\n    tag_281:\n        /* \"#utility.yul\":2084:2089   */\n      0x00\n        /* \"#utility.yul\":2122:2128   */\n      dup2\n        /* \"#utility.yul\":2109:2129   */\n      calldataload\n        /* \"#utility.yul\":2100:2129   */\n      swap1\n      pop\n        /* \"#utility.yul\":2138:2171   */\n      tag_330\n        /* \"#utility.yul\":2165:2170   */\n      dup2\n        /* \"#utility.yul\":2138:2171   */\n      tag_280\n      jump\t// in\n    tag_330:\n        /* \"#utility.yul\":2038:2177   */\n      swap3\n      swap2\n      pop\n      pop\n      jump\t// out\n        /* \"#utility.yul\":2183:2260   */\n    tag_282:\n        /* \"#utility.yul\":2220:2227   */\n      0x00\n        /* \"#utility.yul\":2249:2254   */\n      dup2\n        /* \"#utility.yul\":2238:2254   */\n      swap1\n      pop\n        /* \"#utility.yul\":2183:2260   */\n      swap2\n      swap1\n      pop\n      jump\t// out\n        /* \"#utility.yul\":2266:2388   */\n    tag_283:\n        /* \"#utility.yul\":2339:2363   */\n      tag_333\n        /* \"#utility.yul\":2357:2362   */\n      dup2\n        /* \"#utility.yul\":2339:2363   */\n      tag_282\n      jump\t// in\n    tag_333:\n        /* \"#utility.yul\":2332:2337   */\n      dup2\n        /* \"#utility.yul\":2329:2364   */\n      eq\n        /* \"#utility.yul\":2319:2382   */\n      tag_334\n      jumpi\n        /* \"#utility.yul\":2378:2379   */\n      0x00\n        /* \"#utility.yul\":2375:2376   */\n      dup1\n        /* \"#utility.yul\":2368:2380   */\n      revert\n        /* \"#utility.yul\":2319:2382   */\n    tag_334:\n        /* \"#utility.yul\":2266:2388   */\n      pop\n      jump\t// out\n        /* \"#utility.yul\":2394:2533   */\n    tag_284:\n        /* \"#utility.yul\":2440:2445   */\n      0x00\n        /* \"#utility.yul\":2478:2484   */\n      dup2\n        /* \"#utility.yul\":2465:2485   */\n      calldataload\n        /* \"#utility.yul\":2456:2485   */\n      swap1\n      pop\n        /* \"#utility.yul\":2494:2527   */\n      tag_336\n        /* \"#utility.yul\":2521:2526   */\n      dup2\n        /* \"#utility.yul\":2494:2527   */\n      tag_283\n      jump\t// in\n    tag_336:\n        /* \"#utility.yul\":2394:2533   */\n      swap3\n      swap2\n      pop\n      pop\n      jump\t// out\n        /* \"#utility.yul\":2539:3013   */\n    tag_35:\n        /* \"#utility.yul\":2607:2613   */\n      0x00\n        /* \"#utility.yul\":2615:2621   */\n      dup1\n        /* \"#utility.yul\":2664:2666   */\n      0x40\n        /* \"#utility.yul\":2652:2661   */\n      dup4\n        /* \"#utility.yul\":2643:2650   */\n      dup6\n        /* \"#utility.yul\":2639:2662   */\n      sub\n        /* \"#utility.yul\":2635:2667   */\n      slt\n        /* \"#utility.yul\":2632:2751   */\n      iszero\n      tag_338\n      jumpi\n        /* \"#utility.yul\":2670:2749   */\n      tag_339\n      tag_276\n      jump\t// in\n    tag_339:\n        /* \"#utility.yul\":2632:2751   */\n    tag_338:\n        /* \"#utility.yul\":2790:2791   */\n      0x00\n        /* \"#utility.yul\":2815:2868   */\n      tag_340\n        /* \"#utility.yul\":2860:2867   */\n      dup6\n        /* \"#utility.yul\":2851:2857   */\n      dup3\n        /* \"#utility.yul\":2840:2849   */\n      dup7\n        /* \"#utility.yul\":2836:2858   */\n      add\n        /* \"#utility.yul\":2815:2868   */\n      tag_281\n      jump\t// in\n    tag_340:\n        /* \"#utility.yul\":2805:2868   */\n      swap3\n      pop\n        /* \"#utility.yul\":2761:2878   */\n      pop\n        /* \"#utility.yul\":2917:2919   */\n      0x20\n        /* \"#utility.yul\":2943:2996   */\n      tag_341\n        /* \"#utility.yul\":2988:2995   */\n      dup6\n        /* \"#utility.yul\":2979:2985   */\n      dup3\n        /* \"#utility.yul\":2968:2977   */\n      dup7\n        /* \"#utility.yul\":2964:2986   */\n      add\n        /* \"#utility.yul\":2943:2996   */\n      tag_284\n      jump\t// in\n    tag_341:\n        /* \"#utility.yul\":2933:2996   */\n      swap2\n      pop\n        /* \"#utility.yul\":2888:3006   */\n      pop\n        /* \"#utility.yul\":2539:3013   */\n      swap3\n      pop\n      swap3\n      swap1\n      pop\n      jump\t// out\n        /* \"#utility.yul\":3019:3109   */\n    tag_285:\n        /* \"#utility.yul\":3053:3060   */\n      0x00\n        /* \"#utility.yul\":3096:3101   */\n      dup2\n        /* \"#utility.yul\":3089:3102   */\n      iszero\n        /* \"#utility.yul\":3082:3103   */\n      iszero\n        /* \"#utility.yul\":3071:3103   */\n      swap1\n      pop\n        /* \"#utility.yul\":3019:3109   */\n      swap2\n      swap1\n      pop\n      jump\t// out\n        /* \"#utility.yul\":3115:3224   */\n    tag_286:\n        /* \"#utility.yul\":3196:3217   */\n      tag_344\n        /* \"#utility.yul\":3211:3216   */\n      dup2\n        /* \"#utility.yul\":3196:3217   */\n      tag_285\n      jump\t// in\n    tag_344:\n        /* \"#utility.yul\":3191:3194   */\n      dup3\n        /* \"#utility.yul\":3184:3218   */\n      mstore\n        /* \"#utility.yul\":3115:3224   */\n      pop\n      pop\n      jump\t// out\n        /* \"#utility.yul\":3230:3440   */\n    tag_38:\n        /* \"#utility.yul\":3317:3321   */\n      0x00\n        /* \"#utility.yul\":3355:3357   */\n      0x20\n        /* \"#utility.yul\":3344:3353   */\n      dup3\n        /* \"#utility.yul\":3340:3358   */\n      add\n        /* \"#utility.yul\":3332:3358   */\n      swap1\n      pop\n        /* \"#utility.yul\":3368:3433   */\n      tag_346\n        /* \"#utility.yul\":3430:3431   */\n      0x00\n        /* \"#utility.yul\":3419:3428   */\n      dup4\n        /* \"#utility.yul\":3415:3432   */\n      add\n        /* \"#utility.yul\":3406:3412   */\n      dup5\n        /* \"#utility.yul\":3368:3433   */\n      tag_286\n      jump\t// in\n    tag_346:\n        /* \"#utility.yul\":3230:3440   */\n      swap3\n      swap2\n      pop\n      pop\n      jump\t// out\n        /* \"#utility.yul\":3446:3564   */\n    tag_287:\n        /* \"#utility.yul\":3533:3557   */\n      tag_348\n        /* \"#utility.yul\":3551:3556   */\n      dup2\n        /* \"#utility.yul\":3533:3557   */\n      tag_282\n      jump\t// in\n    tag_348:\n        /* \"#utility.yul\":3528:3531   */\n      dup3\n        /* \"#utility.yul\":3521:3558   */\n      mstore\n        /* \"#utility.yul\":3446:3564   */\n      pop\n      pop\n      jump\t// out\n        /* \"#utility.yul\":3570:3792   */\n    tag_43:\n        /* \"#utility.yul\":3663:3667   */\n      0x00\n        /* \"#utility.yul\":3701:3703   */\n      0x20\n        /* \"#utility.yul\":3690:3699   */\n      dup3\n        /* \"#utility.yul\":3686:3704   */\n      add\n        /* \"#utility.yul\":3678:3704   */\n      swap1\n      pop\n        /* \"#utility.yul\":3714:3785   */\n      tag_350\n        /* \"#utility.yul\":3782:3783   */\n      0x00\n        /* \"#utility.yul\":3771:3780   */\n      dup4\n        /* \"#utility.yul\":3767:3784   */\n      add\n        /* \"#utility.yul\":3758:3764   */\n      dup5\n        /* \"#utility.yul\":3714:3785   */\n      tag_287\n      jump\t// in\n    tag_350:\n        /* \"#utility.yul\":3570:3792   */\n      swap3\n      swap2\n      pop\n      pop\n      jump\t// out\n        /* \"#utility.yul\":3798:4417   */\n    tag_51:\n        /* \"#utility.yul\":3875:3881   */\n      0x00\n        /* \"#utility.yul\":3883:3889   */\n      dup1\n        /* \"#utility.yul\":3891:3897   */\n      0x00\n        /* \"#utility.yul\":3940:3942   */\n      0x60\n        /* \"#utility.yul\":3928:3937   */\n      dup5\n        /* \"#utility.yul\":3919:3926   */\n      dup7\n        /* \"#utility.yul\":3915:3938   */\n      sub\n        /* \"#utility.yul\":3911:3943   */\n      slt\n        /* \"#utility.yul\":3908:4027   */\n      iszero\n      tag_352\n      jumpi\n        /* \"#utility.yul\":3946:4025   */\n      tag_353\n      tag_276\n      jump\t// in\n    tag_353:\n        /* \"#utility.yul\":3908:4027   */\n    tag_352:\n        /* \"#utility.yul\":4066:4067   */\n      0x00\n        /* \"#utility.yul\":4091:4144   */\n      tag_354\n        /* \"#utility.yul\":4136:4143   */\n      dup7\n        /* \"#utility.yul\":4127:4133   */\n      dup3\n        /* \"#utility.yul\":4116:4125   */\n      dup8\n        /* \"#utility.yul\":4112:4134   */\n      add\n        /* \"#utility.yul\":4091:4144   */\n      tag_281\n      jump\t// in\n    tag_354:\n        /* \"#utility.yul\":4081:4144   */\n      swap4\n      pop\n        /* \"#utility.yul\":4037:4154   */\n      pop\n        /* \"#utility.yul\":4193:4195   */\n      0x20\n        /* \"#utility.yul\":4219:4272   */\n      tag_355\n        /* \"#utility.yul\":4264:4271   */\n      dup7\n        /* \"#utility.yul\":4255:4261   */\n      dup3\n        /* \"#utility.yul\":4244:4253   */\n      dup8\n        /* \"#utility.yul\":4240:4262   */\n      add\n        /* \"#utility.yul\":4219:4272   */\n      tag_281\n      jump\t// in\n    tag_355:\n        /* \"#utility.yul\":4209:4272   */\n      swap3\n      pop\n        /* \"#utility.yul\":4164:4282   */\n      pop\n        /* \"#utility.yul\":4321:4323   */\n      0x40\n        /* \"#utility.yul\":4347:4400   */\n      tag_356\n        /* \"#utility.yul\":4392:4399   */\n      dup7\n        /* \"#utility.yul\":4383:4389   */\n      dup3\n        /* \"#utility.yul\":4372:4381   */\n      dup8\n        /* \"#utility.yul\":4368:4390   */\n      add\n        /* \"#utility.yul\":4347:4400   */\n      tag_284\n      jump\t// in\n    tag_356:\n        /* \"#utility.yul\":4337:4400   */\n      swap2\n      pop\n        /* \"#utility.yul\":4292:4410   */\n      pop\n        /* \"#utility.yul\":3798:4417   */\n      swap3\n      pop\n      swap3\n      pop\n      swap3\n      jump\t// out\n        /* \"#utility.yul\":4423:4509   */\n    tag_288:\n        /* \"#utility.yul\":4458:4465   */\n      0x00\n        /* \"#utility.yul\":4498:4502   */\n      0xff\n        /* \"#utility.yul\":4491:4496   */\n      dup3\n        /* \"#utility.yul\":4487:4503   */\n      and\n        /* \"#utility.yul\":4476:4503   */\n      swap1\n      pop\n        /* \"#utility.yul\":4423:4509   */\n      swap2\n      swap1\n      pop\n      jump\t// out\n        /* \"#utility.yul\":4515:4627   */\n    tag_289:\n        /* \"#utility.yul\":4598:4620   */\n      tag_359\n        /* \"#utility.yul\":4614:4619   */\n      dup2\n        /* \"#utility.yul\":4598:4620   */\n      tag_288\n      jump\t// in\n    tag_359:\n        /* \"#utility.yul\":4593:4596   */\n      dup3\n        /* \"#utility.yul\":4586:4621   */\n      mstore\n        /* \"#utility.yul\":4515:4627   */\n      pop\n      pop\n      jump\t// out\n        /* \"#utility.yul\":4633:4847   */\n    tag_58:\n        /* \"#utility.yul\":4722:4726   */\n      0x00\n        /* \"#utility.yul\":4760:4762   */\n      0x20\n        /* \"#utility.yul\":4749:4758   */\n      dup3\n        /* \"#utility.yul\":4745:4763   */\n      add\n        /* \"#utility.yul\":4737:4763   */\n      swap1\n      pop\n        /* \"#utility.yul\":4773:4840   */\n      tag_361\n        /* \"#utility.yul\":4837:4838   */\n      0x00\n        /* \"#utility.yul\":4826:4835   */\n      dup4\n        /* \"#utility.yul\":4822:4839   */\n      add\n        /* \"#utility.yul\":4813:4819   */\n      dup5\n        /* \"#utility.yul\":4773:4840   */\n      tag_289\n      jump\t// in\n    tag_361:\n        /* \"#utility.yul\":4633:4847   */\n      swap3\n      swap2\n      pop\n      pop\n      jump\t// out\n        /* \"#utility.yul\":4853:5182   */\n    tag_73:\n        /* \"#utility.yul\":4912:4918   */\n      0x00\n        /* \"#utility.yul\":4961:4963   */\n      0x20\n        /* \"#utility.yul\":4949:4958   */\n      dup3\n        /* \"#utility.yul\":4940:4947   */\n      dup5\n        /* \"#utility.yul\":4936:4959   */\n      sub\n        /* \"#utility.yul\":4932:4964   */\n      slt\n        /* \"#utility.yul\":4929:5048   */\n      iszero\n      tag_363\n      jumpi\n        /* \"#utility.yul\":4967:5046   */\n      tag_364\n      tag_276\n      jump\t// in\n    tag_364:\n        /* \"#utility.yul\":4929:5048   */\n    tag_363:\n        /* \"#utility.yul\":5087:5088   */\n      0x00\n        /* \"#utility.yul\":5112:5165   */\n      tag_365\n        /* \"#utility.yul\":5157:5164   */\n      dup5\n        /* \"#utility.yul\":5148:5154   */\n      dup3\n        /* \"#utility.yul\":5137:5146   */\n      dup6\n        /* \"#utility.yul\":5133:5155   */\n      add\n        /* \"#utility.yul\":5112:5165   */\n      tag_284\n      jump\t// in\n    tag_365:\n        /* \"#utility.yul\":5102:5165   */\n      swap2\n      pop\n        /* \"#utility.yul\":5058:5175   */\n      pop\n        /* \"#utility.yul\":4853:5182   */\n      swap3\n      swap2\n      pop\n      pop\n      jump\t// out\n        /* \"#utility.yul\":5188:5517   */\n    tag_78:\n        /* \"#utility.yul\":5247:5253   */\n      0x00\n        /* \"#utility.yul\":5296:5298   */\n      0x20\n        /* \"#utility.yul\":5284:5293   */\n      dup3\n        /* \"#utility.yul\":5275:5282   */\n      dup5\n        /* \"#utility.yul\":5271:5294   */\n      sub\n        /* \"#utility.yul\":5267:5299   */\n      slt\n        /* \"#utility.yul\":5264:5383   */\n      iszero\n      tag_367\n      jumpi\n        /* \"#utility.yul\":5302:5381   */\n      tag_368\n      tag_276\n      jump\t// in\n    tag_368:\n        /* \"#utility.yul\":5264:5383   */\n    tag_367:\n        /* \"#utility.yul\":5422:5423   */\n      0x00\n        /* \"#utility.yul\":5447:5500   */\n      tag_369\n        /* \"#utility.yul\":5492:5499   */\n      dup5\n        /* \"#utility.yul\":5483:5489   */\n      dup3\n        /* \"#utility.yul\":5472:5481   */\n      dup6\n        /* \"#utility.yul\":5468:5490   */\n      add\n        /* \"#utility.yul\":5447:5500   */\n      tag_281\n      jump\t// in\n    tag_369:\n        /* \"#utility.yul\":5437:5500   */\n      swap2\n      pop\n        /* \"#utility.yul\":5393:5510   */\n      pop\n        /* \"#utility.yul\":5188:5517   */\n      swap3\n      swap2\n      pop\n      pop\n      jump\t// out\n        /* \"#utility.yul\":5523:5641   */\n    tag_290:\n        /* \"#utility.yul\":5610:5634   */\n      tag_371\n        /* \"#utility.yul\":5628:5633   */\n      dup2\n        /* \"#utility.yul\":5610:5634   */\n      tag_279\n      jump\t// in\n    tag_371:\n        /* \"#utility.yul\":5605:5608   */\n      dup3\n        /* \"#utility.yul\":5598:5635   */\n      mstore\n        /* \"#utility.yul\":5523:5641   */\n      pop\n      pop\n      jump\t// out\n        /* \"#utility.yul\":5647:5869   */\n    tag_91:\n        /* \"#utility.yul\":5740:5744   */\n      0x00\n        /* \"#utility.yul\":5778:5780   */\n      0x20\n        /* \"#utility.yul\":5767:5776   */\n      dup3\n        /* \"#utility.yul\":5763:5781   */\n      add\n        /* \"#utility.yul\":5755:5781   */\n      swap1\n      pop\n        /* \"#utility.yul\":5791:5862   */\n      tag_373\n        /* \"#utility.yul\":5859:5860   */\n      0x00\n        /* \"#utility.yul\":5848:5857   */\n      dup4\n        /* \"#utility.yul\":5844:5861   */\n      add\n        /* \"#utility.yul\":5835:5841   */\n      dup5\n        /* \"#utility.yul\":5791:5862   */\n      tag_290\n      jump\t// in\n    tag_373:\n        /* \"#utility.yul\":5647:5869   */\n      swap3\n      swap2\n      pop\n      pop\n      jump\t// out\n        /* \"#utility.yul\":5875:6923   */\n    tag_112:\n        /* \"#utility.yul\":6166:6170   */\n      0x00\n        /* \"#utility.yul\":6204:6207   */\n      0xe0\n        /* \"#utility.yul\":6193:6202   */\n      dup3\n        /* \"#utility.yul\":6189:6208   */\n      add\n        /* \"#utility.yul\":6181:6208   */\n      swap1\n      pop\n        /* \"#utility.yul\":6254:6263   */\n      dup2\n        /* \"#utility.yul\":6248:6252   */\n      dup2\n        /* \"#utility.yul\":6244:6264   */\n      sub\n        /* \"#utility.yul\":6240:6241   */\n      0x00\n        /* \"#utility.yul\":6229:6238   */\n      dup4\n        /* \"#utility.yul\":6225:6242   */\n      add\n        /* \"#utility.yul\":6218:6265   */\n      mstore\n        /* \"#utility.yul\":6282:6360   */\n      tag_375\n        /* \"#utility.yul\":6355:6359   */\n      dup2\n        /* \"#utility.yul\":6346:6352   */\n      dup11\n        /* \"#utility.yul\":6282:6360   */\n      tag_274\n      jump\t// in\n    tag_375:\n        /* \"#utility.yul\":6274:6360   */\n      swap1\n      pop\n        /* \"#utility.yul\":6407:6416   */\n      dup2\n        /* \"#utility.yul\":6401:6405   */\n      dup2\n        /* \"#utility.yul\":6397:6417   */\n      sub\n        /* \"#utility.yul\":6392:6394   */\n      0x20\n        /* \"#utility.yul\":6381:6390   */\n      dup4\n        /* \"#utility.yul\":6377:6395   */\n      add\n        /* \"#utility.yul\":6370:6418   */\n      mstore\n        /* \"#utility.yul\":6435:6513   */\n      tag_376\n        /* \"#utility.yul\":6508:6512   */\n      dup2\n        /* \"#utility.yul\":6499:6505   */\n      dup10\n        /* \"#utility.yul\":6435:6513   */\n      tag_274\n      jump\t// in\n    tag_376:\n        /* \"#utility.yul\":6427:6513   */\n      swap1\n      pop\n        /* \"#utility.yul\":6523:6591   */\n      tag_377\n        /* \"#utility.yul\":6587:6589   */\n      0x40\n        /* \"#utility.yul\":6576:6585   */\n      dup4\n        /* \"#utility.yul\":6572:6590   */\n      add\n        /* \"#utility.yul\":6563:6569   */\n      dup9\n        /* \"#utility.yul\":6523:6591   */\n      tag_289\n      jump\t// in\n    tag_377:\n        /* \"#utility.yul\":6601:6673   */\n      tag_378\n        /* \"#utility.yul\":6669:6671   */\n      0x60\n        /* \"#utility.yul\":6658:6667   */\n      dup4\n        /* \"#utility.yul\":6654:6672   */\n      add\n        /* \"#utility.yul\":6645:6651   */\n      dup8\n        /* \"#utility.yul\":6601:6673   */\n      tag_287\n      jump\t// in\n    tag_378:\n        /* \"#utility.yul\":6683:6756   */\n      tag_379\n        /* \"#utility.yul\":6751:6754   */\n      0x80\n        /* \"#utility.yul\":6740:6749   */\n      dup4\n        /* \"#utility.yul\":6736:6755   */\n      add\n        /* \"#utility.yul\":6727:6733   */\n      dup7\n        /* \"#utility.yul\":6683:6756   */\n      tag_287\n      jump\t// in\n    tag_379:\n        /* \"#utility.yul\":6766:6839   */\n      tag_380\n        /* \"#utility.yul\":6834:6837   */\n      0xa0\n        /* \"#utility.yul\":6823:6832   */\n      dup4\n        /* \"#utility.yul\":6819:6838   */\n      add\n        /* \"#utility.yul\":6810:6816   */\n      dup6\n        /* \"#utility.yul\":6766:6839   */\n      tag_287\n      jump\t// in\n    tag_380:\n        /* \"#utility.yul\":6849:6916   */\n      tag_381\n        /* \"#utility.yul\":6911:6914   */\n      0xc0\n        /* \"#utility.yul\":6900:6909   */\n      dup4\n        /* \"#utility.yul\":6896:6915   */\n      add\n        /* \"#utility.yul\":6887:6893   */\n      dup5\n        /* \"#utility.yul\":6849:6916   */\n      tag_286\n      jump\t// in\n    tag_381:\n        /* \"#utility.yul\":5875:6923   */\n      swap9\n      swap8\n      pop\n      pop\n      pop\n      pop\n      pop\n      pop\n      pop\n      pop\n      jump\t// out\n        /* \"#utility.yul\":6929:7403   */\n    tag_116:\n        /* \"#utility.yul\":6997:7003   */\n      0x00\n        /* \"#utility.yul\":7005:7011   */\n      dup1\n        /* \"#utility.yul\":7054:7056   */\n      0x40\n        /* \"#utility.yul\":7042:7051   */\n      dup4\n        /* \"#utility.yul\":7033:7040   */\n      dup6\n        /* \"#utility.yul\":7029:7052   */\n      sub\n        /* \"#utility.yul\":7025:7057   */\n      slt\n        /* \"#utility.yul\":7022:7141   */\n      iszero\n      tag_383\n      jumpi\n        /* \"#utility.yul\":7060:7139   */\n      tag_384\n      tag_276\n      jump\t// in\n    tag_384:\n        /* \"#utility.yul\":7022:7141   */\n    tag_383:\n        /* \"#utility.yul\":7180:7181   */\n      0x00\n        /* \"#utility.yul\":7205:7258   */\n      tag_385\n        /* \"#utility.yul\":7250:7257   */\n      dup6\n        /* \"#utility.yul\":7241:7247   */\n      dup3\n        /* \"#utility.yul\":7230:7239   */\n      dup7\n        /* \"#utility.yul\":7226:7248   */\n      add\n        /* \"#utility.yul\":7205:7258   */\n      tag_281\n      jump\t// in\n    tag_385:\n        /* \"#utility.yul\":7195:7258   */\n      swap3\n      pop\n        /* \"#utility.yul\":7151:7268   */\n      pop\n        /* \"#utility.yul\":7307:7309   */\n      0x20\n        /* \"#utility.yul\":7333:7386   */\n      tag_386\n        /* \"#utility.yul\":7378:7385   */\n      dup6\n        /* \"#utility.yul\":7369:7375   */\n      dup3\n        /* \"#utility.yul\":7358:7367   */\n      dup7\n        /* \"#utility.yul\":7354:7376   */\n      add\n        /* \"#utility.yul\":7333:7386   */\n      tag_281\n      jump\t// in\n    tag_386:\n        /* \"#utility.yul\":7323:7386   */\n      swap2\n      pop\n        /* \"#utility.yul\":7278:7396   */\n      pop\n        /* \"#utility.yul\":6929:7403   */\n      swap3\n      pop\n      swap3\n      swap1\n      pop\n      jump\t// out\n        /* \"#utility.yul\":7409:7589   */\n    tag_291:\n        /* \"#utility.yul\":7457:7534   */\n      0x4e487b7100000000000000000000000000000000000000000000000000000000\n        /* \"#utility.yul\":7454:7455   */\n      0x00\n        /* \"#utility.yul\":7447:7535   */\n      mstore\n        /* \"#utility.yul\":7554:7558   */\n      0x22\n        /* \"#utility.yul\":7551:7552   */\n      0x04\n        /* \"#utility.yul\":7544:7559   */\n      mstore\n        /* \"#utility.yul\":7578:7582   */\n      0x24\n        /* \"#utility.yul\":7575:7576   */\n      0x00\n        /* \"#utility.yul\":7568:7583   */\n      revert\n        /* \"#utility.yul\":7595:7915   */\n    tag_129:\n        /* \"#utility.yul\":7639:7645   */\n      0x00\n        /* \"#utility.yul\":7676:7677   */\n      0x02\n        /* \"#utility.yul\":7670:7674   */\n      dup3\n        /* \"#utility.yul\":7666:7678   */\n      div\n        /* \"#utility.yul\":7656:7678   */\n      swap1\n      pop\n        /* \"#utility.yul\":7723:7724   */\n      0x01\n        /* \"#utility.yul\":7717:7721   */\n      dup3\n        /* \"#utility.yul\":7713:7725   */\n      and\n        /* \"#utility.yul\":7744:7762   */\n      dup1\n        /* \"#utility.yul\":7734:7815   */\n      tag_389\n      jumpi\n        /* \"#utility.yul\":7800:7804   */\n      0x7f\n        /* \"#utility.yul\":7792:7798   */\n      dup3\n        /* \"#utility.yul\":7788:7805   */\n      and\n        /* \"#utility.yul\":7778:7805   */\n      swap2\n      pop\n        /* \"#utility.yul\":7734:7815   */\n    tag_389:\n        /* \"#utility.yul\":7862:7864   */\n      0x20\n        /* \"#utility.yul\":7854:7860   */\n      dup3\n        /* \"#utility.yul\":7851:7865   */\n      lt\n        /* \"#utility.yul\":7831:7849   */\n      dup2\n        /* \"#utility.yul\":7828:7866   */\n      sub\n        /* \"#utility.yul\":7825:7909   */\n      tag_390\n      jumpi\n        /* \"#utility.yul\":7881:7899   */\n      tag_391\n      tag_291\n      jump\t// in\n    tag_391:\n        /* \"#utility.yul\":7825:7909   */\n    tag_390:\n        /* \"#utility.yul\":7646:7915   */\n      pop\n        /* \"#utility.yul\":7595:7915   */\n      swap2\n      swap1\n      pop\n      jump\t// out\n        /* \"#utility.yul\":7921:8101   */\n    tag_292:\n        /* \"#utility.yul\":7969:8046   */\n      0x4e487b7100000000000000000000000000000000000000000000000000000000\n        /* \"#utility.yul\":7966:7967   */\n      0x00\n        /* \"#utility.yul\":7959:8047   */\n      mstore\n        /* \"#utility.yul\":8066:8070   */\n      0x11\n        /* \"#utility.yul\":8063:8064   */\n      0x04\n        /* \"#utility.yul\":8056:8071   */\n      mstore\n        /* \"#utility.yul\":8090:8094   */\n      0x24\n        /* \"#utility.yul\":8087:8088   */\n      0x00\n        /* \"#utility.yul\":8080:8095   */\n      revert\n        /* \"#utility.yul\":8107:8209   */\n    tag_293:\n        /* \"#utility.yul\":8149:8157   */\n      0x00\n        /* \"#utility.yul\":8196:8201   */\n      dup2\n        /* \"#utility.yul\":8193:8194   */\n      0x01\n        /* \"#utility.yul\":8189:8202   */\n      shr\n        /* \"#utility.yul\":8168:8202   */\n      swap1\n      pop\n        /* \"#utility.yul\":8107:8209   */\n      swap2\n      swap1\n      pop\n      jump\t// out\n        /* \"#utility.yul\":8215:9063   */\n    tag_294:\n        /* \"#utility.yul\":8276:8281   */\n      0x00\n        /* \"#utility.yul\":8283:8287   */\n      dup1\n        /* \"#utility.yul\":8307:8313   */\n      dup3\n        /* \"#utility.yul\":8298:8313   */\n      swap2\n      pop\n        /* \"#utility.yul\":8331:8336   */\n      dup4\n        /* \"#utility.yul\":8322:8336   */\n      swap1\n      pop\n        /* \"#utility.yul\":8345:9057   */\n    tag_395:\n        /* \"#utility.yul\":8366:8367   */\n      0x01\n        /* \"#utility.yul\":8356:8364   */\n      dup6\n        /* \"#utility.yul\":8353:8368   */\n      gt\n        /* \"#utility.yul\":8345:9057   */\n      iszero\n      tag_397\n      jumpi\n        /* \"#utility.yul\":8461:8465   */\n      dup1\n        /* \"#utility.yul\":8456:8459   */\n      dup7\n        /* \"#utility.yul\":8452:8466   */\n      div\n        /* \"#utility.yul\":8446:8450   */\n      dup2\n        /* \"#utility.yul\":8443:8467   */\n      gt\n        /* \"#utility.yul\":8440:8490   */\n      iszero\n      tag_398\n      jumpi\n        /* \"#utility.yul\":8470:8488   */\n      tag_399\n      tag_292\n      jump\t// in\n    tag_399:\n        /* \"#utility.yul\":8440:8490   */\n    tag_398:\n        /* \"#utility.yul\":8520:8521   */\n      0x01\n        /* \"#utility.yul\":8510:8518   */\n      dup6\n        /* \"#utility.yul\":8506:8522   */\n      and\n        /* \"#utility.yul\":8503:8954   */\n      iszero\n      tag_400\n      jumpi\n        /* \"#utility.yul\":8935:8939   */\n      dup1\n        /* \"#utility.yul\":8928:8933   */\n      dup3\n        /* \"#utility.yul\":8924:8940   */\n      mul\n        /* \"#utility.yul\":8915:8940   */\n      swap2\n      pop\n        /* \"#utility.yul\":8503:8954   */\n    tag_400:\n        /* \"#utility.yul\":8985:8989   */\n      dup1\n        /* \"#utility.yul\":8979:8983   */\n      dup2\n        /* \"#utility.yul\":8975:8990   */\n      mul\n        /* \"#utility.yul\":8967:8990   */\n      swap1\n      pop\n        /* \"#utility.yul\":9015:9047   */\n      tag_401\n        /* \"#utility.yul\":9038:9046   */\n      dup6\n        /* \"#utility.yul\":9015:9047   */\n      tag_293\n      jump\t// in\n    tag_401:\n        /* \"#utility.yul\":9003:9047   */\n      swap5\n      pop\n        /* \"#utility.yul\":8345:9057   */\n      jump(tag_395)\n    tag_397:\n        /* \"#utility.yul\":8215:9063   */\n      swap5\n      pop\n      swap5\n      swap3\n      pop\n      pop\n      pop\n      jump\t// out\n        /* \"#utility.yul\":9069:10142   */\n    tag_295:\n        /* \"#utility.yul\":9123:9128   */\n      0x00\n        /* \"#utility.yul\":9314:9322   */\n      dup3\n        /* \"#utility.yul\":9304:9344   */\n      tag_403\n      jumpi\n        /* \"#utility.yul\":9335:9336   */\n      0x01\n        /* \"#utility.yul\":9326:9336   */\n      swap1\n      pop\n        /* \"#utility.yul\":9337:9342   */\n      jump(tag_402)\n        /* \"#utility.yul\":9304:9344   */\n    tag_403:\n        /* \"#utility.yul\":9363:9367   */\n      dup2\n        /* \"#utility.yul\":9353:9389   */\n      tag_404\n      jumpi\n        /* \"#utility.yul\":9380:9381   */\n      0x00\n        /* \"#utility.yul\":9371:9381   */\n      swap1\n      pop\n        /* \"#utility.yul\":9382:9387   */\n      jump(tag_402)\n        /* \"#utility.yul\":9353:9389   */\n    tag_404:\n        /* \"#utility.yul\":9449:9453   */\n      dup2\n        /* \"#utility.yul\":9497:9498   */\n      0x01\n        /* \"#utility.yul\":9492:9519   */\n      dup2\n      eq\n      tag_406\n      jumpi\n        /* \"#utility.yul\":9533:9534   */\n      0x02\n        /* \"#utility.yul\":9528:9719   */\n      dup2\n      eq\n      tag_407\n      jumpi\n        /* \"#utility.yul\":9442:9719   */\n      jump(tag_405)\n        /* \"#utility.yul\":9492:9519   */\n    tag_406:\n        /* \"#utility.yul\":9510:9511   */\n      0x01\n        /* \"#utility.yul\":9501:9511   */\n      swap2\n      pop\n        /* \"#utility.yul\":9512:9517   */\n      pop\n      jump(tag_402)\n        /* \"#utility.yul\":9528:9719   */\n    tag_407:\n        /* \"#utility.yul\":9573:9576   */\n      0xff\n        /* \"#utility.yul\":9563:9571   */\n      dup5\n        /* \"#utility.yul\":9560:9577   */\n      gt\n        /* \"#utility.yul\":9557:9600   */\n      iszero\n      tag_408\n      jumpi\n        /* \"#utility.yul\":9580:9598   */\n      tag_409\n      tag_292\n      jump\t// in\n    tag_409:\n        /* \"#utility.yul\":9557:9600   */\n    tag_408:\n        /* \"#utility.yul\":9629:9637   */\n      dup4\n        /* \"#utility.yul\":9626:9627   */\n      0x02\n        /* \"#utility.yul\":9622:9638   */\n      exp\n        /* \"#utility.yul\":9613:9638   */\n      swap2\n      pop\n        /* \"#utility.yul\":9664:9667   */\n      dup5\n        /* \"#utility.yul\":9657:9662   */\n      dup3\n        /* \"#utility.yul\":9654:9668   */\n      gt\n        /* \"#utility.yul\":9651:9691   */\n      iszero\n      tag_410\n      jumpi\n        /* \"#utility.yul\":9671:9689   */\n      tag_411\n      tag_292\n      jump\t// in\n    tag_411:\n        /* \"#utility.yul\":9651:9691   */\n    tag_410:\n        /* \"#utility.yul\":9704:9709   */\n      pop\n      jump(tag_402)\n        /* \"#utility.yul\":9442:9719   */\n    tag_405:\n      pop\n        /* \"#utility.yul\":9828:9830   */\n      0x20\n        /* \"#utility.yul\":9818:9826   */\n      dup4\n        /* \"#utility.yul\":9815:9831   */\n      lt\n        /* \"#utility.yul\":9809:9812   */\n      0x0133\n        /* \"#utility.yul\":9803:9807   */\n      dup4\n        /* \"#utility.yul\":9800:9813   */\n      lt\n        /* \"#utility.yul\":9796:9832   */\n      and\n        /* \"#utility.yul\":9778:9780   */\n      0x4e\n        /* \"#utility.yul\":9768:9776   */\n      dup5\n        /* \"#utility.yul\":9765:9781   */\n      lt\n        /* \"#utility.yul\":9760:9762   */\n      0x0b\n        /* \"#utility.yul\":9754:9758   */\n      dup5\n        /* \"#utility.yul\":9751:9763   */\n      lt\n        /* \"#utility.yul\":9747:9782   */\n      and\n        /* \"#utility.yul\":9731:9842   */\n      or\n        /* \"#utility.yul\":9728:9974   */\n      iszero\n      tag_412\n      jumpi\n        /* \"#utility.yul\":9884:9892   */\n      dup3\n        /* \"#utility.yul\":9878:9882   */\n      dup3\n        /* \"#utility.yul\":9874:9893   */\n      exp\n        /* \"#utility.yul\":9865:9893   */\n      swap1\n      pop\n        /* \"#utility.yul\":9919:9922   */\n      dup4\n        /* \"#utility.yul\":9912:9917   */\n      dup2\n        /* \"#utility.yul\":9909:9923   */\n      gt\n        /* \"#utility.yul\":9906:9946   */\n      iszero\n      tag_413\n      jumpi\n        /* \"#utility.yul\":9926:9944   */\n      tag_414\n      tag_292\n      jump\t// in\n    tag_414:\n        /* \"#utility.yul\":9906:9946   */\n    tag_413:\n        /* \"#utility.yul\":9959:9964   */\n      jump(tag_402)\n        /* \"#utility.yul\":9728:9974   */\n    tag_412:\n        /* \"#utility.yul\":9999:10041   */\n      tag_415\n        /* \"#utility.yul\":10037:10040   */\n      dup5\n        /* \"#utility.yul\":10027:10035   */\n      dup5\n        /* \"#utility.yul\":10021:10025   */\n      dup5\n        /* \"#utility.yul\":10018:10019   */\n      0x01\n        /* \"#utility.yul\":9999:10041   */\n      tag_294\n      jump\t// in\n    tag_415:\n        /* \"#utility.yul\":9984:10041   */\n      swap3\n      pop\n      swap1\n      pop\n        /* \"#utility.yul\":10073:10077   */\n      dup2\n        /* \"#utility.yul\":10068:10071   */\n      dup5\n        /* \"#utility.yul\":10064:10078   */\n      div\n        /* \"#utility.yul\":10057:10062   */\n      dup2\n        /* \"#utility.yul\":10054:10079   */\n      gt\n        /* \"#utility.yul\":10051:10102   */\n      iszero\n      tag_416\n      jumpi\n        /* \"#utility.yul\":10082:10100   */\n      tag_417\n      tag_292\n      jump\t// in\n    tag_417:\n        /* \"#utility.yul\":10051:10102   */\n    tag_416:\n        /* \"#utility.yul\":10131:10135   */\n      dup2\n        /* \"#utility.yul\":10124:10129   */\n      dup2\n        /* \"#utility.yul\":10120:10136   */\n      mul\n        /* \"#utility.yul\":10111:10136   */\n      swap1\n      pop\n        /* \"#utility.yul\":9069:10142   */\n    tag_402:\n      swap4\n      swap3\n      pop\n      pop\n      pop\n      jump\t// out\n        /* \"#utility.yul\":10148:10429   */\n    tag_159:\n        /* \"#utility.yul\":10206:10211   */\n      0x00\n        /* \"#utility.yul\":10230:10253   */\n      tag_419\n        /* \"#utility.yul\":10248:10252   */\n      dup3\n        /* \"#utility.yul\":10230:10253   */\n      tag_282\n      jump\t// in\n    tag_419:\n        /* \"#utility.yul\":10222:10253   */\n      swap2\n      pop\n        /* \"#utility.yul\":10274:10299   */\n      tag_420\n        /* \"#utility.yul\":10290:10298   */\n      dup4\n        /* \"#utility.yul\":10274:10299   */\n      tag_288\n      jump\t// in\n    tag_420:\n        /* \"#utility.yul\":10262:10299   */\n      swap3\n      pop\n        /* \"#utility.yul\":10318:10422   */\n      tag_421\n        /* \"#utility.yul\":10355:10421   */\n      0xffffffffffffffffffffffffffffffffffffffffffffffffffffffffffffffff\n        /* \"#utility.yul\":10345:10353   */\n      dup5\n        /* \"#utility.yul\":10339:10343   */\n      dup5\n        /* \"#utility.yul\":10318:10422   */\n      tag_295\n      jump\t// in\n    tag_421:\n        /* \"#utility.yul\":10309:10422   */\n      swap1\n      pop\n        /* \"#utility.yul\":10148:10429   */\n      swap3\n      swap2\n      pop\n      pop\n      jump\t// out\n        /* \"#utility.yul\":10435:10845   */\n    tag_161:\n        /* \"#utility.yul\":10475:10482   */\n      0x00\n        /* \"#utility.yul\":10498:10518   */\n      tag_423\n        /* \"#utility.yul\":10516:10517   */\n      dup3\n        /* \"#utility.yul\":10498:10518   */\n      tag_282\n      jump\t// in\n    tag_423:\n        /* \"#utility.yul\":10493:10518   */\n      swap2\n      pop\n        /* \"#utility.yul\":10532:10552   */\n      tag_424\n        /* \"#utility.yul\":10550:10551   */\n      dup4\n        /* \"#utility.yul\":10532:10552   */\n      tag_282\n      jump\t// in\n    tag_424:\n        /* \"#utility.yul\":10527:10552   */\n      swap3\n      pop\n        /* \"#utility.yul\":10587:10588   */\n      dup3\n        /* \"#utility.yul\":10584:10585   */\n      dup3\n        /* \"#utility.yul\":10580:10589   */\n      mul\n        /* \"#utility.yul\":10609:10639   */\n      tag_425\n        /* \"#utility.yul\":10627:10638   */\n      dup2\n        /* \"#utility.yul\":10609:10639   */\n      tag_282\n      jump\t// in\n    tag_425:\n        /* \"#utility.yul\":10598:10639   */\n      swap2\n      pop\n        /* \"#utility.yul\":10788:10789   */\n      dup3\n        /* \"#utility.yul\":10779:10786   */\n      dup3\n        /* \"#utility.yul\":10775:10790   */\n      div\n        /* \"#utility.yul\":10772:10773   */\n      dup5\n        /* \"#utility.yul\":10769:10791   */\n      eq\n        /* \"#utility.yul\":10749:10750   */\n      dup4\n        /* \"#utility.yul\":10742:10751   */\n      iszero\n        /* \"#utility.yul\":10722:10805   */\n      or\n        /* \"#utility.yul\":10699:10838   */\n      tag_426\n      jumpi\n        /* \"#utility.yul\":10818:10836   */\n      tag_427\n      tag_292\n      jump\t// in\n    tag_427:\n        /* \"#utility.yul\":10699:10838   */\n    tag_426:\n        /* \"#utility.yul\":10483:10845   */\n      pop\n        /* \"#utility.yul\":10435:10845   */\n      swap3\n      swap2\n      pop\n      pop\n      jump\t// out\n        /* \"#utility.yul\":10851:11082   */\n    tag_296:\n        /* \"#utility.yul\":10991:11025   */\n      0x43616e6e6f7420726564756365206d617820737570706c792062656c6f77206d\n        /* \"#utility.yul\":10987:10988   */\n      0x00\n        /* \"#utility.yul\":10979:10985   */\n      dup3\n        /* \"#utility.yul\":10975:10989   */\n      add\n        /* \"#utility.yul\":10968:11026   */\n      mstore\n        /* \"#utility.yul\":11060:11074   */\n      0x696e74656420746f6b656e730000000000000000000000000000000000000000\n        /* \"#utility.yul\":11055:11057   */\n      0x20\n        /* \"#utility.yul\":11047:11053   */\n      dup3\n        /* \"#utility.yul\":11043:11058   */\n      add\n        /* \"#utility.yul\":11036:11075   */\n      mstore\n        /* \"#utility.yul\":10851:11082   */\n      pop\n      jump\t// out\n        /* \"#utility.yul\":11088:11454   */\n    tag_297:\n        /* \"#utility.yul\":11230:11233   */\n      0x00\n        /* \"#utility.yul\":11251:11318   */\n      tag_430\n        /* \"#utility.yul\":11315:11317   */\n      0x2c\n        /* \"#utility.yul\":11310:11313   */\n      dup4\n        /* \"#utility.yul\":11251:11318   */\n      tag_271\n      jump\t// in\n    tag_430:\n        /* \"#utility.yul\":11244:11318   */\n      swap2\n      pop\n        /* \"#utility.yul\":11327:11420   */\n      tag_431\n        /* \"#utility.yul\":11416:11419   */\n      dup3\n        /* \"#utility.yul\":11327:11420   */\n      tag_296\n      jump\t// in\n    tag_431:\n        /* \"#utility.yul\":11445:11447   */\n      0x40\n        /* \"#utility.yul\":11440:11443   */\n      dup3\n        /* \"#utility.yul\":11436:11448   */\n      add\n        /* \"#utility.yul\":11429:11448   */\n      swap1\n      pop\n        /* \"#utility.yul\":11088:11454   */\n      swap2\n      swap1\n      pop\n      jump\t// out\n        /* \"#utility.yul\":11460:11879   */\n    tag_164:\n        /* \"#utility.yul\":11626:11630   */\n      0x00\n        /* \"#utility.yul\":11664:11666   */\n      0x20\n        /* \"#utility.yul\":11653:11662   */\n      dup3\n        /* \"#utility.yul\":11649:11667   */\n      add\n        /* \"#utility.yul\":11641:11667   */\n      swap1\n      pop\n        /* \"#utility.yul\":11713:11722   */\n      dup2\n        /* \"#utility.yul\":11707:11711   */\n      dup2\n        /* \"#utility.yul\":11703:11723   */\n      sub\n        /* \"#utility.yul\":11699:11700   */\n      0x00\n        /* \"#utility.yul\":11688:11697   */\n      dup4\n        /* \"#utility.yul\":11684:11701   */\n      add\n        /* \"#utility.yul\":11677:11724   */\n      mstore\n        /* \"#utility.yul\":11741:11872   */\n      tag_433\n        /* \"#utility.yul\":11867:11871   */\n      dup2\n        /* \"#utility.yul\":11741:11872   */\n      tag_297\n      jump\t// in\n    tag_433:\n        /* \"#utility.yul\":11733:11872   */\n      swap1\n      pop\n        /* \"#utility.yul\":11460:11879   */\n      swap2\n      swap1\n      pop\n      jump\t// out\n        /* \"#utility.yul\":11885:12052   */\n    tag_298:\n        /* \"#utility.yul\":12025:12044   */\n      0x4d696e74696e6720697320636c6f736564000000000000000000000000000000\n        /* \"#utility.yul\":12021:12022   */\n      0x00\n        /* \"#utility.yul\":12013:12019   */\n      dup3\n        /* \"#utility.yul\":12009:12023   */\n      add\n        /* \"#utility.yul\":12002:12045   */\n      mstore\n        /* \"#utility.yul\":11885:12052   */\n      pop\n      jump\t// out\n        /* \"#utility.yul\":12058:12424   */\n    tag_299:\n        /* \"#utility.yul\":12200:12203   */\n      0x00\n        /* \"#utility.yul\":12221:12288   */\n      tag_436\n        /* \"#utility.yul\":12285:12287   */\n      0x11\n        /* \"#utility.yul\":12280:12283   */\n      dup4\n        /* \"#utility.yul\":12221:12288   */\n      tag_271\n      jump\t// in\n    tag_436:\n        /* \"#utility.yul\":12214:12288   */\n      swap2\n      pop\n        /* \"#utility.yul\":12297:12390   */\n      tag_437\n        /* \"#utility.yul\":12386:12389   */\n      dup3\n        /* \"#utility.yul\":12297:12390   */\n      tag_298\n      jump\t// in\n    tag_437:\n        /* \"#utility.yul\":12415:12417   */\n      0x20\n        /* \"#utility.yul\":12410:12413   */\n      dup3\n        /* \"#utility.yul\":12406:12418   */\n      add\n        /* \"#utility.yul\":12399:12418   */\n      swap1\n      pop\n        /* \"#utility.yul\":12058:12424   */\n      swap2\n      swap1\n      pop\n      jump\t// out\n        /* \"#utility.yul\":12430:12849   */\n    tag_187:\n        /* \"#utility.yul\":12596:12600   */\n      0x00\n        /* \"#utility.yul\":12634:12636   */\n      0x20\n        /* \"#utility.yul\":12623:12632   */\n      dup3\n        /* \"#utility.yul\":12619:12637   */\n      add\n        /* \"#utility.yul\":12611:12637   */\n      swap1\n      pop\n        /* \"#utility.yul\":12683:12692   */\n      dup2\n        /* \"#utility.yul\":12677:12681   */\n      dup2\n        /* \"#utility.yul\":12673:12693   */\n      sub\n        /* \"#utility.yul\":12669:12670   */\n      0x00\n        /* \"#utility.yul\":12658:12667   */\n      dup4\n        /* \"#utility.yul\":12654:12671   */\n      add\n        /* \"#utility.yul\":12647:12694   */\n      mstore\n        /* \"#utility.yul\":12711:12842   */\n      tag_439\n        /* \"#utility.yul\":12837:12841   */\n      dup2\n        /* \"#utility.yul\":12711:12842   */\n      tag_299\n      jump\t// in\n    tag_439:\n        /* \"#utility.yul\":12703:12842   */\n      swap1\n      pop\n        /* \"#utility.yul\":12430:12849   */\n      swap2\n      swap1\n      pop\n      jump\t// out\n        /* \"#utility.yul\":12855:13026   */\n    tag_300:\n        /* \"#utility.yul\":12995:13018   */\n      0x496e73756666696369656e74204554482073656e740000000000000000000000\n        /* \"#utility.yul\":12991:12992   */\n      0x00\n        /* \"#utility.yul\":12983:12989   */\n      dup3\n        /* \"#utility.yul\":12979:12993   */\n      add\n        /* \"#utility.yul\":12972:13019   */\n      mstore\n        /* \"#utility.yul\":12855:13026   */\n      pop\n      jump\t// out\n        /* \"#utility.yul\":13032:13398   */\n    tag_301:\n        /* \"#utility.yul\":13174:13177   */\n      0x00\n        /* \"#utility.yul\":13195:13262   */\n      tag_442\n        /* \"#utility.yul\":13259:13261   */\n      0x15\n        /* \"#utility.yul\":13254:13257   */\n      dup4\n        /* \"#utility.yul\":13195:13262   */\n      tag_271\n      jump\t// in\n    tag_442:\n        /* \"#utility.yul\":13188:13262   */\n      swap2\n      pop\n        /* \"#utility.yul\":13271:13364   */\n      tag_443\n        /* \"#utility.yul\":13360:13363   */\n      dup3\n        /* \"#utility.yul\":13271:13364   */\n      tag_300\n      jump\t// in\n    tag_443:\n        /* \"#utility.yul\":13389:13391   */\n      0x20\n        /* \"#utility.yul\":13384:13387   */\n      dup3\n        /* \"#utility.yul\":13380:13392   */\n      add\n        /* \"#utility.yul\":13373:13392   */\n      swap1\n      pop\n        /* \"#utility.yul\":13032:13398   */\n      swap2\n      swap1\n      pop\n      jump\t// out\n        /* \"#utility.yul\":13404:13823   */\n    tag_191:\n        /* \"#utility.yul\":13570:13574   */\n      0x00\n        /* \"#utility.yul\":13608:13610   */\n      0x20\n        /* \"#utility.yul\":13597:13606   */\n      dup3\n        /* \"#utility.yul\":13593:13611   */\n      add\n        /* \"#utility.yul\":13585:13611   */\n      swap1\n      pop\n        /* \"#utility.yul\":13657:13666   */\n      dup2\n        /* \"#utility.yul\":13651:13655   */\n      dup2\n        /* \"#utility.yul\":13647:13667   */\n      sub\n        /* \"#utility.yul\":13643:13644   */\n      0x00\n        /* \"#utility.yul\":13632:13641   */\n      dup4\n        /* \"#utility.yul\":13628:13645   */\n      add\n        /* \"#utility.yul\":13621:13668   */\n      mstore\n        /* \"#utility.yul\":13685:13816   */\n      tag_445\n        /* \"#utility.yul\":13811:13815   */\n      dup2\n        /* \"#utility.yul\":13685:13816   */\n      tag_301\n      jump\t// in\n    tag_445:\n        /* \"#utility.yul\":13677:13816   */\n      swap1\n      pop\n        /* \"#utility.yul\":13404:13823   */\n      swap2\n      swap1\n      pop\n      jump\t// out\n        /* \"#utility.yul\":13829:14020   */\n    tag_196:\n        /* \"#utility.yul\":13869:13872   */\n      0x00\n        /* \"#utility.yul\":13888:13908   */\n      tag_447\n        /* \"#utility.yul\":13906:13907   */\n      dup3\n        /* \"#utility.yul\":13888:13908   */\n      tag_282\n      jump\t// in\n    tag_447:\n        /* \"#utility.yul\":13883:13908   */\n      swap2\n      pop\n        /* \"#utility.yul\":13922:13942   */\n      tag_448\n        /* \"#utility.yul\":13940:13941   */\n      dup4\n        /* \"#utility.yul\":13922:13942   */\n      tag_282\n      jump\t// in\n    tag_448:\n        /* \"#utility.yul\":13917:13942   */\n      swap3\n      pop\n        /* \"#utility.yul\":13965:13966   */\n      dup3\n        /* \"#utility.yul\":13962:13963   */\n      dup3\n        /* \"#utility.yul\":13958:13967   */\n      add\n        /* \"#utility.yul\":13951:13967   */\n      swap1\n      pop\n        /* \"#utility.yul\":13986:13989   */\n      dup1\n        /* \"#utility.yul\":13983:13984   */\n      dup3\n        /* \"#utility.yul\":13980:13990   */\n      gt\n        /* \"#utility.yul\":13977:14013   */\n      iszero\n      tag_449\n      jumpi\n        /* \"#utility.yul\":13993:14011   */\n      tag_450\n      tag_292\n      jump\t// in\n    tag_450:\n        /* \"#utility.yul\":13977:14013   */\n    tag_449:\n        /* \"#utility.yul\":13829:14020   */\n      swap3\n      swap2\n      pop\n      pop\n      jump\t// out\n        /* \"#utility.yul\":14026:14194   */\n    tag_302:\n        /* \"#utility.yul\":14166:14186   */\n      0x4d617820737570706c7920726561636865640000000000000000000000000000\n        /* \"#utility.yul\":14162:14163   */\n      0x00\n        /* \"#utility.yul\":14154:14160   */\n      dup3\n        /* \"#utility.yul\":14150:14164   */\n      add\n        /* \"#utility.yul\":14143:14187   */\n      mstore\n        /* \"#utility.yul\":14026:14194   */\n      pop\n      jump\t// out\n        /* \"#utility.yul\":14200:14566   */\n    tag_303:\n        /* \"#utility.yul\":14342:14345   */\n      0x00\n        /* \"#utility.yul\":14363:14430   */\n      tag_453\n        /* \"#utility.yul\":14427:14429   */\n      0x12\n        /* \"#utility.yul\":14422:14425   */\n      dup4\n        /* \"#utility.yul\":14363:14430   */\n      tag_271\n      jump\t// in\n    tag_453:\n        /* \"#utility.yul\":14356:14430   */\n      swap2\n      pop\n        /* \"#utility.yul\":14439:14532   */\n      tag_454\n        /* \"#utility.yul\":14528:14531   */\n      dup3\n        /* \"#utility.yul\":14439:14532   */\n      tag_302\n      jump\t// in\n    tag_454:\n        /* \"#utility.yul\":14557:14559   */\n      0x20\n        /* \"#utility.yul\":14552:14555   */\n      dup3\n        /* \"#utility.yul\":14548:14560   */\n      add\n        /* \"#utility.yul\":14541:14560   */\n      swap1\n      pop\n        /* \"#utility.yul\":14200:14566   */\n      swap2\n      swap1\n      pop\n      jump\t// out\n        /* \"#utility.yul\":14572:14991   */\n    tag_199:\n        /* \"#utility.yul\":14738:14742   */\n      0x00\n        /* \"#utility.yul\":14776:14778   */\n      0x20\n        /* \"#utility.yul\":14765:14774   */\n      dup3\n        /* \"#utility.yul\":14761:14779   */\n      add\n        /* \"#utility.yul\":14753:14779   */\n      swap1\n      pop\n        /* \"#utility.yul\":14825:14834   */\n      dup2\n        /* \"#utility.yul\":14819:14823   */\n      dup2\n        /* \"#utility.yul\":14815:14835   */\n      sub\n        /* \"#utility.yul\":14811:14812   */\n      0x00\n        /* \"#utility.yul\":14800:14809   */\n      dup4\n        /* \"#utility.yul\":14796:14813   */\n      add\n        /* \"#utility.yul\":14789:14836   */\n      mstore\n        /* \"#utility.yul\":14853:14984   */\n      tag_456\n        /* \"#utility.yul\":14979:14983   */\n      dup2\n        /* \"#utility.yul\":14853:14984   */\n      tag_303\n      jump\t// in\n    tag_456:\n        /* \"#utility.yul\":14845:14984   */\n      swap1\n      pop\n        /* \"#utility.yul\":14572:14991   */\n      swap2\n      swap1\n      pop\n      jump\t// out\n        /* \"#utility.yul\":14997:15177   */\n    tag_304:\n        /* \"#utility.yul\":15045:15122   */\n      0x4e487b7100000000000000000000000000000000000000000000000000000000\n        /* \"#utility.yul\":15042:15043   */\n      0x00\n        /* \"#utility.yul\":15035:15123   */\n      mstore\n        /* \"#utility.yul\":15142:15146   */\n      0x12\n        /* \"#utility.yul\":15139:15140   */\n      0x04\n        /* \"#utility.yul\":15132:15147   */\n      mstore\n        /* \"#utility.yul\":15166:15170   */\n      0x24\n        /* \"#utility.yul\":15163:15164   */\n      0x00\n        /* \"#utility.yul\":15156:15171   */\n      revert\n        /* \"#utility.yul\":15183:15368   */\n    tag_211:\n        /* \"#utility.yul\":15223:15224   */\n      0x00\n        /* \"#utility.yul\":15240:15260   */\n      tag_459\n        /* \"#utility.yul\":15258:15259   */\n      dup3\n        /* \"#utility.yul\":15240:15260   */\n      tag_282\n      jump\t// in\n    tag_459:\n        /* \"#utility.yul\":15235:15260   */\n      swap2\n      pop\n        /* \"#utility.yul\":15274:15294   */\n      tag_460\n        /* \"#utility.yul\":15292:15293   */\n      dup4\n        /* \"#utility.yul\":15274:15294   */\n      tag_282\n      jump\t// in\n    tag_460:\n        /* \"#utility.yul\":15269:15294   */\n      swap3\n      pop\n        /* \"#utility.yul\":15313:15314   */\n      dup3\n        /* \"#utility.yul\":15303:15338   */\n      tag_461\n      jumpi\n        /* \"#utility.yul\":15318:15336   */\n      tag_462\n      tag_304\n      jump\t// in\n    tag_462:\n        /* \"#utility.yul\":15303:15338   */\n    tag_461:\n        /* \"#utility.yul\":15360:15361   */\n      dup3\n        /* \"#utility.yul\":15357:15358   */\n      dup3\n        /* \"#utility.yul\":15353:15362   */\n      div\n        /* \"#utility.yul\":15348:15362   */\n      swap1\n      pop\n        /* \"#utility.yul\":15183:15368   */\n      swap3\n      swap2\n      pop\n      pop\n      jump\t// out\n        /* \"#utility.yul\":15374:15816   */\n    tag_234:\n        /* \"#utility.yul\":15523:15527   */\n      0x00\n        /* \"#utility.yul\":15561:15563   */\n      0x60\n        /* \"#utility.yul\":15550:15559   */\n      dup3\n        /* \"#utility.yul\":15546:15564   */\n      add\n        /* \"#utility.yul\":15538:15564   */\n      swap1\n      pop\n        /* \"#utility.yul\":15574:15645   */\n      tag_464\n        /* \"#utility.yul\":15642:15643   */\n      0x00\n        /* \"#utility.yul\":15631:15640   */\n      dup4\n        /* \"#utility.yul\":15627:15644   */\n      add\n        /* \"#utility.yul\":15618:15624   */\n      dup7\n        /* \"#utility.yul\":15574:15645   */\n      tag_290\n      jump\t// in\n    tag_464:\n        /* \"#utility.yul\":15655:15727   */\n      tag_465\n        /* \"#utility.yul\":15723:15725   */\n      0x20\n        /* \"#utility.yul\":15712:15721   */\n      dup4\n        /* \"#utility.yul\":15708:15726   */\n      add\n        /* \"#utility.yul\":15699:15705   */\n      dup6\n        /* \"#utility.yul\":15655:15727   */\n      tag_287\n      jump\t// in\n    tag_465:\n        /* \"#utility.yul\":15737:15809   */\n      tag_466\n        /* \"#utility.yul\":15805:15807   */\n      0x40\n        /* \"#utility.yul\":15794:15803   */\n      dup4\n        /* \"#utility.yul\":15790:15808   */\n      add\n        /* \"#utility.yul\":15781:15787   */\n      dup5\n        /* \"#utility.yul\":15737:15809   */\n      tag_287\n      jump\t// in\n    tag_466:\n        /* \"#utility.yul\":15374:15816   */\n      swap5\n      swap4\n      pop\n      pop\n      pop\n      pop\n      jump\t// out\n\n    auxdata: 0xa2646970667358221220f643a14a9684e1a1674d6176ece7e35b40d9596021c90bf2a7171cbf92e55fc564736f6c63430008140033\n}\n",
				"bytecode": {
					"linkReferences": {},
					"object": "608060405266038d7ea4c68000600655600160085f6101000a81548160ff02191690831515021790555034801562000035575f80fd5b50604051620028d3380380620028d383398181016040528101906200005b9190620006f1565b33848481600390816200006f9190620009cc565b508060049081620000819190620009cc565b5050505f73ffffffffffffffffffffffffffffffffffffffff168173ffffffffffffffffffffffffffffffffffffffff1603620000f7575f6040517f1e4fbdf7000000000000000000000000000000000000000000000000000000008152600401620000ee919062000af3565b60405180910390fd5b6200010881620001bb60201b60201c565b50620001196200027e60201b60201c565b600a62000127919062000c97565b8162000134919062000ce7565b6007819055505f821115620001b1576200017f33620001586200027e60201b60201c565b600a62000166919062000c97565b8462000173919062000ce7565b6200028660201b60201c565b6200018f6200027e60201b60201c565b600a6200019d919062000c97565b82620001aa919062000ce7565b6009819055505b5050505062000dd2565b5f60055f9054906101000a900473ffffffffffffffffffffffffffffffffffffffff1690508160055f6101000a81548173ffffffffffffffffffffffffffffffffffffffff021916908373ffffffffffffffffffffffffffffffffffffffff1602179055508173ffffffffffffffffffffffffffffffffffffffff168173ffffffffffffffffffffffffffffffffffffffff167f8be0079c531659141344cd1fd0a4f28419497f9722a3daafe3b4186f6b6457e060405160405180910390a35050565b5f6012905090565b5f73ffffffffffffffffffffffffffffffffffffffff168273ffffffffffffffffffffffffffffffffffffffff1603620002f9575f6040517fec442f05000000000000000000000000000000000000000000000000000000008152600401620002f0919062000af3565b60405180910390fd5b6200030c5f83836200031060201b60201c565b5050565b5f73ffffffffffffffffffffffffffffffffffffffff168373ffffffffffffffffffffffffffffffffffffffff160362000364578060025f82825462000357919062000d31565b9250508190555062000435565b5f805f8573ffffffffffffffffffffffffffffffffffffffff1673ffffffffffffffffffffffffffffffffffffffff1681526020019081526020015f2054905081811015620003f0578381836040517fe450d38c000000000000000000000000000000000000000000000000000000008152600401620003e79392919062000d7c565b60405180910390fd5b8181035f808673ffffffffffffffffffffffffffffffffffffffff1673ffffffffffffffffffffffffffffffffffffffff1681526020019081526020015f2081905550505b5f73ffffffffffffffffffffffffffffffffffffffff168273ffffffffffffffffffffffffffffffffffffffff16036200047e578060025f8282540392505081905550620004c8565b805f808473ffffffffffffffffffffffffffffffffffffffff1673ffffffffffffffffffffffffffffffffffffffff1681526020019081526020015f205f82825401925050819055505b8173ffffffffffffffffffffffffffffffffffffffff168373ffffffffffffffffffffffffffffffffffffffff167fddf252ad1be2c89b69c2b068fc378daa952ba7f163c4a11628f55a4df523b3ef8360405162000527919062000db7565b60405180910390a3505050565b5f604051905090565b5f80fd5b5f80fd5b5f80fd5b5f80fd5b5f601f19601f8301169050919050565b7f4e487b71000000000000000000000000000000000000000000000000000000005f52604160045260245ffd5b62000595826200054d565b810181811067ffffffffffffffff82111715620005b757620005b66200055d565b5b80604052505050565b5f620005cb62000534565b9050620005d982826200058a565b919050565b5f67ffffffffffffffff821115620005fb57620005fa6200055d565b5b62000606826200054d565b9050602081019050919050565b5f5b838110156200063257808201518184015260208101905062000615565b5f8484015250505050565b5f620006536200064d84620005de565b620005c0565b90508281526020810184848401111562000672576200067162000549565b5b6200067f84828562000613565b509392505050565b5f82601f8301126200069e576200069d62000545565b5b8151620006b08482602086016200063d565b91505092915050565b5f819050919050565b620006cd81620006b9565b8114620006d8575f80fd5b50565b5f81519050620006eb81620006c2565b92915050565b5f805f80608085870312156200070c576200070b6200053d565b5b5f85015167ffffffffffffffff8111156200072c576200072b62000541565b5b6200073a8782880162000687565b945050602085015167ffffffffffffffff8111156200075e576200075d62000541565b5b6200076c8782880162000687565b93505060406200077f87828801620006db565b92505060606200079287828801620006db565b91505092959194509250565b5f81519050919050565b7f4e487b71000000000000000000000000000000000000000000000000000000005f52602260045260245ffd5b5f6002820490506001821680620007ed57607f821691505b602082108103620008035762000802620007a8565b5b50919050565b5f819050815f5260205f209050919050565b5f6020601f8301049050919050565b5f82821b905092915050565b5f60088302620008677fffffffffffffffffffffffffffffffffffffffffffffffffffffffffffffffff826200082a565b6200087386836200082a565b95508019841693508086168417925050509392505050565b5f819050919050565b5f620008b4620008ae620008a884620006b9565b6200088b565b620006b9565b9050919050565b5f819050919050565b620008cf8362000894565b620008e7620008de82620008bb565b84845462000836565b825550505050565b5f90565b620008fd620008ef565b6200090a818484620008c4565b505050565b5b818110156200093157620009255f82620008f3565b60018101905062000910565b5050565b601f82111562000980576200094a8162000809565b62000955846200081b565b8101602085101562000965578190505b6200097d62000974856200081b565b8301826200090f565b50505b505050565b5f82821c905092915050565b5f620009a25f198460080262000985565b1980831691505092915050565b5f620009bc838362000991565b9150826002028217905092915050565b620009d7826200079e565b67ffffffffffffffff811115620009f357620009f26200055d565b5b620009ff8254620007d5565b62000a0c82828562000935565b5f60209050601f83116001811462000a42575f841562000a2d578287015190505b62000a398582620009af565b86555062000aa8565b601f19841662000a528662000809565b5f5b8281101562000a7b5784890151825560018201915060208501945060208101905062000a54565b8683101562000a9b578489015162000a97601f89168262000991565b8355505b6001600288020188555050505b505050505050565b5f73ffffffffffffffffffffffffffffffffffffffff82169050919050565b5f62000adb8262000ab0565b9050919050565b62000aed8162000acf565b82525050565b5f60208201905062000b085f83018462000ae2565b92915050565b7f4e487b71000000000000000000000000000000000000000000000000000000005f52601160045260245ffd5b5f8160011c9050919050565b5f808291508390505b600185111562000b985780860481111562000b705762000b6f62000b0e565b5b600185161562000b805780820291505b808102905062000b908562000b3b565b945062000b50565b94509492505050565b5f8262000bb2576001905062000c84565b8162000bc1575f905062000c84565b816001811462000bda576002811462000be55762000c1b565b600191505062000c84565b60ff84111562000bfa5762000bf962000b0e565b5b8360020a91508482111562000c145762000c1362000b0e565b5b5062000c84565b5060208310610133831016604e8410600b841016171562000c555782820a90508381111562000c4f5762000c4e62000b0e565b5b62000c84565b62000c64848484600162000b47565b9250905081840481111562000c7e5762000c7d62000b0e565b5b81810290505b9392505050565b5f60ff82169050919050565b5f62000ca382620006b9565b915062000cb08362000c8b565b925062000cdf7fffffffffffffffffffffffffffffffffffffffffffffffffffffffffffffffff848462000ba1565b905092915050565b5f62000cf382620006b9565b915062000d0083620006b9565b925082820262000d1081620006b9565b9150828204841483151762000d2a5762000d2962000b0e565b5b5092915050565b5f62000d3d82620006b9565b915062000d4a83620006b9565b925082820190508082111562000d655762000d6462000b0e565b5b92915050565b62000d7681620006b9565b82525050565b5f60608201905062000d915f83018662000ae2565b62000da0602083018562000d6b565b62000daf604083018462000d6b565b949350505050565b5f60208201905062000dcc5f83018462000d6b565b92915050565b611af38062000de05f395ff3fe608060405260043610610134575f3560e01c8063715018a6116100aa578063a9059cbb1161006e578063a9059cbb146103c2578063d5abeb01146103fe578063d6abe11014610428578063dd62ed3e14610458578063f2fde38b14610494578063f4a0a528146104bc57610134565b8063715018a6146103265780637d55094d1461033c5780638da5cb5b1461035257806395d89b411461037c57806397304ced146103a657610134565b8063313ce567116100fc578063313ce5671461022e5780633ccfd60b146102585780636817c76c1461026e5780636de9f32b146102985780636f8b44b0146102c257806370a08231146102ea57610134565b806306fdde0314610138578063095ea7b31461016257806318160ddd1461019e5780631a206910146101c857806323b872dd146101f2575b5f80fd5b348015610143575f80fd5b5061014c6104e4565b60405161015991906112e9565b60405180910390f35b34801561016d575f80fd5b506101886004803603810190610183919061139a565b610574565b60405161019591906113f2565b60405180910390f35b3480156101a9575f80fd5b506101b2610596565b6040516101bf919061141a565b60405180910390f35b3480156101d3575f80fd5b506101dc61059f565b6040516101e991906113f2565b60405180910390f35b3480156101fd575f80fd5b5061021860048036038101906102139190611433565b6105b1565b60405161022591906113f2565b60405180910390f35b348015610239575f80fd5b506102426105df565b60405161024f919061149e565b60405180910390f35b348015610263575f80fd5b5061026c6105e7565b005b348015610279575f80fd5b5061028261063c565b60405161028f919061141a565b60405180910390f35b3480156102a3575f80fd5b506102ac610642565b6040516102b9919061141a565b60405180910390f35b3480156102cd575f80fd5b506102e860048036038101906102e391906114b7565b610648565b005b3480156102f5575f80fd5b50610310600480360381019061030b91906114e2565b6106db565b60405161031d919061141a565b60405180910390f35b348015610331575f80fd5b5061033a610720565b005b348015610347575f80fd5b50610350610733565b005b34801561035d575f80fd5b50610366610765565b604051610373919061151c565b60405180910390f35b348015610387575f80fd5b5061039061078d565b60405161039d91906112e9565b60405180910390f35b6103c060048036038101906103bb91906114b7565b61081d565b005b3480156103cd575f80fd5b506103e860048036038101906103e3919061139a565b610955565b6040516103f591906113f2565b60405180910390f35b348015610409575f80fd5b50610412610977565b60405161041f919061141a565b60405180910390f35b348015610433575f80fd5b5061043c61097d565b60405161044f9796959493929190611535565b60405180910390f35b348015610463575f80fd5b5061047e600480360381019061047991906115b0565b6109fa565b60405161048b919061141a565b60405180910390f35b34801561049f575f80fd5b506104ba60048036038101906104b591906114e2565b610a7c565b005b3480156104c7575f80fd5b506104e260048036038101906104dd91906114b7565b610b00565b005b6060600380546104f39061161b565b80601f016020809104026020016040519081016040528092919081815260200182805461051f9061161b565b801561056a5780601f106105415761010080835404028352916020019161056a565b820191905f5260205f20905b81548152906001019060200180831161054d57829003601f168201915b5050505050905090565b5f8061057e610b12565b905061058b818585610b19565b600191505092915050565b5f600254905090565b60085f9054906101000a900460ff1681565b5f806105bb610b12565b90506105c8858285610b2b565b6105d3858585610bbe565b60019150509392505050565b5f6012905090565b6105ef610cae565b6105f7610765565b73ffffffffffffffffffffffffffffffffffffffff166108fc4790811502906040515f60405180830381858888f19350505050158015610639573d5f803e3d5ffd5b50565b60065481565b60095481565b610650610cae565b60095461065b6105df565b600a61066791906117a7565b8261067291906117f1565b10156106b3576040517f08c379a00000000000000000000000000000000000000000000000000000000081526004016106aa906118a2565b60405180910390fd5b6106bb6105df565b600a6106c791906117a7565b816106d291906117f1565b60078190555050565b5f805f8373ffffffffffffffffffffffffffffffffffffffff1673ffffffffffffffffffffffffffffffffffffffff1681526020019081526020015f20549050919050565b610728610cae565b6107315f610d35565b565b61073b610cae565b60085f9054906101000a900460ff161560085f6101000a81548160ff021916908315150217905550565b5f60055f9054906101000a900473ffffffffffffffffffffffffffffffffffffffff16905090565b60606004805461079c9061161b565b80601f01602080910402602001604051908101604052809291908181526020018280546107c89061161b565b80156108135780601f106107ea57610100808354040283529160200191610813565b820191905f5260205f20905b8154815290600101906020018083116107f657829003601f168201915b5050505050905090565b60085f9054906101000a900460ff1661086b576040517f08c379a00000000000000000000000000000000000000000000000000000000081526004016108629061190a565b60405180910390fd5b8060065461087991906117f1565b3410156108bb576040517f08c379a00000000000000000000000000000000000000000000000000000000081526004016108b290611972565b60405180910390fd5b5f6108c46105df565b600a6108d091906117a7565b826108db91906117f1565b9050600754816009546108ee9190611990565b111561092f576040517f08c379a000000000000000000000000000000000000000000000000000000000815260040161092690611a0d565b60405180910390fd5b6109393382610df8565b8060095f82825461094a9190611990565b925050819055505050565b5f8061095f610b12565b905061096c818585610bbe565b600191505092915050565b60075481565b6060805f805f805f868661098f6105df565b6109976105df565b600a6109a391906117a7565b6009546109b09190611a58565b6109b86105df565b600a6109c491906117a7565b6007546109d19190611a58565b60065460085f9054906101000a900460ff16965096509650965096509650965090919293949596565b5f60015f8473ffffffffffffffffffffffffffffffffffffffff1673ffffffffffffffffffffffffffffffffffffffff1681526020019081526020015f205f8373ffffffffffffffffffffffffffffffffffffffff1673ffffffffffffffffffffffffffffffffffffffff1681526020019081526020015f2054905092915050565b610a84610cae565b5f73ffffffffffffffffffffffffffffffffffffffff168173ffffffffffffffffffffffffffffffffffffffff1603610af4575f6040517f1e4fbdf7000000000000000000000000000000000000000000000000000000008152600401610aeb919061151c565b60405180910390fd5b610afd81610d35565b50565b610b08610cae565b8060068190555050565b5f33905090565b610b268383836001610e77565b505050565b5f610b3684846109fa565b90507fffffffffffffffffffffffffffffffffffffffffffffffffffffffffffffffff811015610bb85781811015610ba9578281836040517ffb8f41b2000000000000000000000000000000000000000000000000000000008152600401610ba093929190611a88565b60405180910390fd5b610bb784848484035f610e77565b5b50505050565b5f73ffffffffffffffffffffffffffffffffffffffff168373ffffffffffffffffffffffffffffffffffffffff1603610c2e575f6040517f96c6fd1e000000000000000000000000000000000000000000000000000000008152600401610c25919061151c565b60405180910390fd5b5f73ffffffffffffffffffffffffffffffffffffffff168273ffffffffffffffffffffffffffffffffffffffff1603610c9e575f6040517fec442f05000000000000000000000000000000000000000000000000000000008152600401610c95919061151c565b60405180910390fd5b610ca9838383611046565b505050565b610cb6610b12565b73ffffffffffffffffffffffffffffffffffffffff16610cd4610765565b73ffffffffffffffffffffffffffffffffffffffff1614610d3357610cf7610b12565b6040517f118cdaa7000000000000000000000000000000000000000000000000000000008152600401610d2a919061151c565b60405180910390fd5b565b5f60055f9054906101000a900473ffffffffffffffffffffffffffffffffffffffff1690508160055f6101000a81548173ffffffffffffffffffffffffffffffffffffffff021916908373ffffffffffffffffffffffffffffffffffffffff1602179055508173ffffffffffffffffffffffffffffffffffffffff168173ffffffffffffffffffffffffffffffffffffffff167f8be0079c531659141344cd1fd0a4f28419497f9722a3daafe3b4186f6b6457e060405160405180910390a35050565b5f73ffffffffffffffffffffffffffffffffffffffff168273ffffffffffffffffffffffffffffffffffffffff1603610e68575f6040517fec442f05000000000000000000000000000000000000000000000000000000008152600401610e5f919061151c565b60405180910390fd5b610e735f8383611046565b5050565b5f73ffffffffffffffffffffffffffffffffffffffff168473ffffffffffffffffffffffffffffffffffffffff1603610ee7575f6040517fe602df05000000000000000000000000000000000000000000000000000000008152600401610ede919061151c565b60405180910390fd5b5f73ffffffffffffffffffffffffffffffffffffffff168373ffffffffffffffffffffffffffffffffffffffff1603610f57575f6040517f94280d62000000000000000000000000000000000000000000000000000000008152600401610f4e919061151c565b60405180910390fd5b8160015f8673ffffffffffffffffffffffffffffffffffffffff1673ffffffffffffffffffffffffffffffffffffffff1681526020019081526020015f205f8573ffffffffffffffffffffffffffffffffffffffff1673ffffffffffffffffffffffffffffffffffffffff1681526020019081526020015f20819055508015611040578273ffffffffffffffffffffffffffffffffffffffff168473ffffffffffffffffffffffffffffffffffffffff167f8c5be1e5ebec7d5bd14f71427d1e84f3dd0314c0f7b2291e5b200ac8c7c3b92584604051611037919061141a565b60405180910390a35b50505050565b5f73ffffffffffffffffffffffffffffffffffffffff168373ffffffffffffffffffffffffffffffffffffffff1603611096578060025f82825461108a9190611990565b92505081905550611164565b5f805f8573ffffffffffffffffffffffffffffffffffffffff1673ffffffffffffffffffffffffffffffffffffffff1681526020019081526020015f205490508181101561111f578381836040517fe450d38c00000000000000000000000000000000000000000000000000000000815260040161111693929190611a88565b60405180910390fd5b8181035f808673ffffffffffffffffffffffffffffffffffffffff1673ffffffffffffffffffffffffffffffffffffffff1681526020019081526020015f2081905550505b5f73ffffffffffffffffffffffffffffffffffffffff168273ffffffffffffffffffffffffffffffffffffffff16036111ab578060025f82825403925050819055506111f5565b805f808473ffffffffffffffffffffffffffffffffffffffff1673ffffffffffffffffffffffffffffffffffffffff1681526020019081526020015f205f82825401925050819055505b8173ffffffffffffffffffffffffffffffffffffffff168373ffffffffffffffffffffffffffffffffffffffff167fddf252ad1be2c89b69c2b068fc378daa952ba7f163c4a11628f55a4df523b3ef83604051611252919061141a565b60405180910390a3505050565b5f81519050919050565b5f82825260208201905092915050565b5f5b8381101561129657808201518184015260208101905061127b565b5f8484015250505050565b5f601f19601f8301169050919050565b5f6112bb8261125f565b6112c58185611269565b93506112d5818560208601611279565b6112de816112a1565b840191505092915050565b5f6020820190508181035f83015261130181846112b1565b905092915050565b5f80fd5b5f73ffffffffffffffffffffffffffffffffffffffff82169050919050565b5f6113368261130d565b9050919050565b6113468161132c565b8114611350575f80fd5b50565b5f813590506113618161133d565b92915050565b5f819050919050565b61137981611367565b8114611383575f80fd5b50565b5f8135905061139481611370565b92915050565b5f80604083850312156113b0576113af611309565b5b5f6113bd85828601611353565b92505060206113ce85828601611386565b9150509250929050565b5f8115159050919050565b6113ec816113d8565b82525050565b5f6020820190506114055f8301846113e3565b92915050565b61141481611367565b82525050565b5f60208201905061142d5f83018461140b565b92915050565b5f805f6060848603121561144a57611449611309565b5b5f61145786828701611353565b935050602061146886828701611353565b925050604061147986828701611386565b9150509250925092565b5f60ff82169050919050565b61149881611483565b82525050565b5f6020820190506114b15f83018461148f565b92915050565b5f602082840312156114cc576114cb611309565b5b5f6114d984828501611386565b91505092915050565b5f602082840312156114f7576114f6611309565b5b5f61150484828501611353565b91505092915050565b6115168161132c565b82525050565b5f60208201905061152f5f83018461150d565b92915050565b5f60e0820190508181035f83015261154d818a6112b1565b9050818103602083015261156181896112b1565b9050611570604083018861148f565b61157d606083018761140b565b61158a608083018661140b565b61159760a083018561140b565b6115a460c08301846113e3565b98975050505050505050565b5f80604083850312156115c6576115c5611309565b5b5f6115d385828601611353565b92505060206115e485828601611353565b9150509250929050565b7f4e487b71000000000000000000000000000000000000000000000000000000005f52602260045260245ffd5b5f600282049050600182168061163257607f821691505b602082108103611645576116446115ee565b5b50919050565b7f4e487b71000000000000000000000000000000000000000000000000000000005f52601160045260245ffd5b5f8160011c9050919050565b5f808291508390505b60018511156116cd578086048111156116a9576116a861164b565b5b60018516156116b85780820291505b80810290506116c685611678565b945061168d565b94509492505050565b5f826116e557600190506117a0565b816116f2575f90506117a0565b8160018114611708576002811461171257611741565b60019150506117a0565b60ff8411156117245761172361164b565b5b8360020a91508482111561173b5761173a61164b565b5b506117a0565b5060208310610133831016604e8410600b84101617156117765782820a9050838111156117715761177061164b565b5b6117a0565b6117838484846001611684565b9250905081840481111561179a5761179961164b565b5b81810290505b9392505050565b5f6117b182611367565b91506117bc83611483565b92506117e97fffffffffffffffffffffffffffffffffffffffffffffffffffffffffffffffff84846116d6565b905092915050565b5f6117fb82611367565b915061180683611367565b925082820261181481611367565b9150828204841483151761182b5761182a61164b565b5b5092915050565b7f43616e6e6f7420726564756365206d617820737570706c792062656c6f77206d5f8201527f696e74656420746f6b656e730000000000000000000000000000000000000000602082015250565b5f61188c602c83611269565b915061189782611832565b604082019050919050565b5f6020820190508181035f8301526118b981611880565b9050919050565b7f4d696e74696e6720697320636c6f7365640000000000000000000000000000005f82015250565b5f6118f4601183611269565b91506118ff826118c0565b602082019050919050565b5f6020820190508181035f830152611921816118e8565b9050919050565b7f496e73756666696369656e74204554482073656e7400000000000000000000005f82015250565b5f61195c601583611269565b915061196782611928565b602082019050919050565b5f6020820190508181035f83015261198981611950565b9050919050565b5f61199a82611367565b91506119a583611367565b92508282019050808211156119bd576119bc61164b565b5b92915050565b7f4d617820737570706c79207265616368656400000000000000000000000000005f82015250565b5f6119f7601283611269565b9150611a02826119c3565b602082019050919050565b5f6020820190508181035f830152611a24816119eb565b9050919050565b7f4e487b71000000000000000000000000000000000000000000000000000000005f52601260045260245ffd5b5f611a6282611367565b9150611a6d83611367565b925082611a7d57611a7c611a2b565b5b828204905092915050565b5f606082019050611a9b5f83018661150d565b611aa8602083018561140b565b611ab5604083018461140b565b94935050505056fea2646970667358221220f643a14a9684e1a1674d6176ece7e35b40d9596021c90bf2a7171cbf92e55fc564736f6c63430008140033",
					"opcodes": "PUSH1 0x80 PUSH1 0x40 MSTORE PUSH7 0x38D7EA4C68000 PUSH1 0x6 SSTORE PUSH1 0x1 PUSH1 0x8 PUSH0 PUSH2 0x100 EXP DUP2 SLOAD DUP2 PUSH1 0xFF MUL NOT AND SWAP1 DUP4 ISZERO ISZERO MUL OR SWAP1 SSTORE POP CALLVALUE DUP1 ISZERO PUSH3 0x35 JUMPI PUSH0 DUP1 REVERT JUMPDEST POP PUSH1 0x40 MLOAD PUSH3 0x28D3 CODESIZE SUB DUP1 PUSH3 0x28D3 DUP4 CODECOPY DUP2 DUP2 ADD PUSH1 0x40 MSTORE DUP2 ADD SWAP1 PUSH3 0x5B SWAP2 SWAP1 PUSH3 0x6F1 JUMP JUMPDEST CALLER DUP5 DUP5 DUP2 PUSH1 0x3 SWAP1 DUP2 PUSH3 0x6F SWAP2 SWAP1 PUSH3 0x9CC JUMP JUMPDEST POP DUP1 PUSH1 0x4 SWAP1 DUP2 PUSH3 0x81 SWAP2 SWAP1 PUSH3 0x9CC JUMP JUMPDEST POP POP POP PUSH0 PUSH20 0xFFFFFFFFFFFFFFFFFFFFFFFFFFFFFFFFFFFFFFFF AND DUP2 PUSH20 0xFFFFFFFFFFFFFFFFFFFFFFFFFFFFFFFFFFFFFFFF AND SUB PUSH3 0xF7 JUMPI PUSH0 PUSH1 0x40 MLOAD PUSH32 0x1E4FBDF700000000000000000000000000000000000000000000000000000000 DUP2 MSTORE PUSH1 0x4 ADD PUSH3 0xEE SWAP2 SWAP1 PUSH3 0xAF3 JUMP JUMPDEST PUSH1 0x40 MLOAD DUP1 SWAP2 SUB SWAP1 REVERT JUMPDEST PUSH3 0x108 DUP2 PUSH3 0x1BB PUSH1 0x20 SHL PUSH1 0x20 SHR JUMP JUMPDEST POP PUSH3 0x119 PUSH3 0x27E PUSH1 0x20 SHL PUSH1 0x20 SHR JUMP JUMPDEST PUSH1 0xA PUSH3 0x127 SWAP2 SWAP1 PUSH3 0xC97 JUMP JUMPDEST DUP2 PUSH3 0x134 SWAP2 SWAP1 PUSH3 0xCE7 JUMP JUMPDEST PUSH1 0x7 DUP2 SWAP1 SSTORE POP PUSH0 DUP3 GT ISZERO PUSH3 0x1B1 JUMPI PUSH3 0x17F CALLER PUSH3 0x158 PUSH3 0x27E PUSH1 0x20 SHL PUSH1 0x20 SHR JUMP JUMPDEST PUSH1 0xA PUSH3 0x166 SWAP2 SWAP1 PUSH3 0xC97 JUMP JUMPDEST DUP5 PUSH3 0x173 SWAP2 SWAP1 PUSH3 0xCE7 JUMP JUMPDEST PUSH3 0x286 PUSH1 0x20 SHL PUSH1 0x20 SHR JUMP JUMPDEST PUSH3 0x18F PUSH3 0x27E PUSH1 0x20 SHL PUSH1 0x20 SHR JUMP JUMPDEST PUSH1 0xA PUSH3 0x19D SWAP2 SWAP1 PUSH3 0xC97 JUMP JUMPDEST DUP3 PUSH3 0x1AA SWAP2 SWAP1 PUSH3 0xCE7 JUMP JUMPDEST PUSH1 0x9 DUP2 SWAP1 SSTORE POP JUMPDEST POP POP POP POP PUSH3 0xDD2 JUMP JUMPDEST PUSH0 PUSH1 0x5 PUSH0 SWAP1 SLOAD SWAP1 PUSH2 0x100 EXP SWAP1 DIV PUSH20 0xFFFFFFFFFFFFFFFFFFFFFFFFFFFFFFFFFFFFFFFF AND SWAP1 POP DUP2 PUSH1 0x5 PUSH0 PUSH2 0x100 EXP DUP2 SLOAD DUP2 PUSH20 0xFFFFFFFFFFFFFFFFFFFFFFFFFFFFFFFFFFFFFFFF MUL NOT AND SWAP1 DUP4 PUSH20 0xFFFFFFFFFFFFFFFFFFFFFFFFFFFFFFFFFFFFFFFF AND MUL OR SWAP1 SSTORE POP DUP2 PUSH20 0xFFFFFFFFFFFFFFFFFFFFFFFFFFFFFFFFFFFFFFFF AND DUP2 PUSH20 0xFFFFFFFFFFFFFFFFFFFFFFFFFFFFFFFFFFFFFFFF AND PUSH32 0x8BE0079C531659141344CD1FD0A4F28419497F9722A3DAAFE3B4186F6B6457E0 PUSH1 0x40 MLOAD PUSH1 0x40 MLOAD DUP1 SWAP2 SUB SWAP1 LOG3 POP POP JUMP JUMPDEST PUSH0 PUSH1 0x12 SWAP1 POP SWAP1 JUMP JUMPDEST PUSH0 PUSH20 0xFFFFFFFFFFFFFFFFFFFFFFFFFFFFFFFFFFFFFFFF AND DUP3 PUSH20 0xFFFFFFFFFFFFFFFFFFFFFFFFFFFFFFFFFFFFFFFF AND SUB PUSH3 0x2F9 JUMPI PUSH0 PUSH1 0x40 MLOAD PUSH32 0xEC442F0500000000000000000000000000000000000000000000000000000000 DUP2 MSTORE PUSH1 0x4 ADD PUSH3 0x2F0 SWAP2 SWAP1 PUSH3 0xAF3 JUMP JUMPDEST PUSH1 0x40 MLOAD DUP1 SWAP2 SUB SWAP1 REVERT JUMPDEST PUSH3 0x30C PUSH0 DUP4 DUP4 PUSH3 0x310 PUSH1 0x20 SHL PUSH1 0x20 SHR JUMP JUMPDEST POP POP JUMP JUMPDEST PUSH0 PUSH20 0xFFFFFFFFFFFFFFFFFFFFFFFFFFFFFFFFFFFFFFFF AND DUP4 PUSH20 0xFFFFFFFFFFFFFFFFFFFFFFFFFFFFFFFFFFFFFFFF AND SUB PUSH3 0x364 JUMPI DUP1 PUSH1 0x2 PUSH0 DUP3 DUP3 SLOAD PUSH3 0x357 SWAP2 SWAP1 PUSH3 0xD31 JUMP JUMPDEST SWAP3 POP POP DUP2 SWAP1 SSTORE POP PUSH3 0x435 JUMP JUMPDEST PUSH0 DUP1 PUSH0 DUP6 PUSH20 0xFFFFFFFFFFFFFFFFFFFFFFFFFFFFFFFFFFFFFFFF AND PUSH20 0xFFFFFFFFFFFFFFFFFFFFFFFFFFFFFFFFFFFFFFFF AND DUP2 MSTORE PUSH1 0x20 ADD SWAP1 DUP2 MSTORE PUSH1 0x20 ADD PUSH0 KECCAK256 SLOAD SWAP1 POP DUP2 DUP2 LT ISZERO PUSH3 0x3F0 JUMPI DUP4 DUP2 DUP4 PUSH1 0x40 MLOAD PUSH32 0xE450D38C00000000000000000000000000000000000000000000000000000000 DUP2 MSTORE PUSH1 0x4 ADD PUSH3 0x3E7 SWAP4 SWAP3 SWAP2 SWAP1 PUSH3 0xD7C JUMP JUMPDEST PUSH1 0x40 MLOAD DUP1 SWAP2 SUB SWAP1 REVERT JUMPDEST DUP2 DUP2 SUB PUSH0 DUP1 DUP7 PUSH20 0xFFFFFFFFFFFFFFFFFFFFFFFFFFFFFFFFFFFFFFFF AND PUSH20 0xFFFFFFFFFFFFFFFFFFFFFFFFFFFFFFFFFFFFFFFF AND DUP2 MSTORE PUSH1 0x20 ADD SWAP1 DUP2 MSTORE PUSH1 0x20 ADD PUSH0 KECCAK256 DUP2 SWAP1 SSTORE POP POP JUMPDEST PUSH0 PUSH20 0xFFFFFFFFFFFFFFFFFFFFFFFFFFFFFFFFFFFFFFFF AND DUP3 PUSH20 0xFFFFFFFFFFFFFFFFFFFFFFFFFFFFFFFFFFFFFFFF AND SUB PUSH3 0x47E JUMPI DUP1 PUSH1 0x2 PUSH0 DUP3 DUP3 SLOAD SUB SWAP3 POP POP DUP2 SWAP1 SSTORE POP PUSH3 0x4C8 JUMP JUMPDEST DUP1 PUSH0 DUP1 DUP5 PUSH20 0xFFFFFFFFFFFFFFFFFFFFFFFFFFFFFFFFFFFFFFFF AND PUSH20 0xFFFFFFFFFFFFFFFFFFFFFFFFFFFFFFFFFFFFFFFF AND DUP2 MSTORE PUSH1 0x20 ADD SWAP1 DUP2 MSTORE PUSH1 0x20 ADD PUSH0 KECCAK256 PUSH0 DUP3 DUP3 SLOAD ADD SWAP3 POP POP DUP2 SWAP1 SSTORE POP JUMPDEST DUP2 PUSH20 0xFFFFFFFFFFFFFFFFFFFFFFFFFFFFFFFFFFFFFFFF AND DUP4 PUSH20 0xFFFFFFFFFFFFFFFFFFFFFFFFFFFFFFFFFFFFFFFF AND PUSH32 0xDDF252AD1BE2C89B69C2B068FC378DAA952BA7F163C4A11628F55A4DF523B3EF DUP4 PUSH1 0x40 MLOAD PUSH3 0x527 SWAP2 SWAP1 PUSH3 0xDB7 JUMP JUMPDEST PUSH1 0x40 MLOAD DUP1 SWAP2 SUB SWAP1 LOG3 POP POP POP JUMP JUMPDEST PUSH0 PUSH1 0x40 MLOAD SWAP1 POP SWAP1 JUMP JUMPDEST PUSH0 DUP1 REVERT JUMPDEST PUSH0 DUP1 REVERT JUMPDEST PUSH0 DUP1 REVERT JUMPDEST PUSH0 DUP1 REVERT JUMPDEST PUSH0 PUSH1 0x1F NOT PUSH1 0x1F DUP4 ADD AND SWAP1 POP SWAP2 SWAP1 POP JUMP JUMPDEST PUSH32 0x4E487B7100000000000000000000000000000000000000000000000000000000 PUSH0 MSTORE PUSH1 0x41 PUSH1 0x4 MSTORE PUSH1 0x24 PUSH0 REVERT JUMPDEST PUSH3 0x595 DUP3 PUSH3 0x54D JUMP JUMPDEST DUP2 ADD DUP2 DUP2 LT PUSH8 0xFFFFFFFFFFFFFFFF DUP3 GT OR ISZERO PUSH3 0x5B7 JUMPI PUSH3 0x5B6 PUSH3 0x55D JUMP JUMPDEST JUMPDEST DUP1 PUSH1 0x40 MSTORE POP POP POP JUMP JUMPDEST PUSH0 PUSH3 0x5CB PUSH3 0x534 JUMP JUMPDEST SWAP1 POP PUSH3 0x5D9 DUP3 DUP3 PUSH3 0x58A JUMP JUMPDEST SWAP2 SWAP1 POP JUMP JUMPDEST PUSH0 PUSH8 0xFFFFFFFFFFFFFFFF DUP3 GT ISZERO PUSH3 0x5FB JUMPI PUSH3 0x5FA PUSH3 0x55D JUMP JUMPDEST JUMPDEST PUSH3 0x606 DUP3 PUSH3 0x54D JUMP JUMPDEST SWAP1 POP PUSH1 0x20 DUP2 ADD SWAP1 POP SWAP2 SWAP1 POP JUMP JUMPDEST PUSH0 JUMPDEST DUP4 DUP2 LT ISZERO PUSH3 0x632 JUMPI DUP1 DUP3 ADD MLOAD DUP2 DUP5 ADD MSTORE PUSH1 0x20 DUP2 ADD SWAP1 POP PUSH3 0x615 JUMP JUMPDEST PUSH0 DUP5 DUP5 ADD MSTORE POP POP POP POP JUMP JUMPDEST PUSH0 PUSH3 0x653 PUSH3 0x64D DUP5 PUSH3 0x5DE JUMP JUMPDEST PUSH3 0x5C0 JUMP JUMPDEST SWAP1 POP DUP3 DUP2 MSTORE PUSH1 0x20 DUP2 ADD DUP5 DUP5 DUP5 ADD GT ISZERO PUSH3 0x672 JUMPI PUSH3 0x671 PUSH3 0x549 JUMP JUMPDEST JUMPDEST PUSH3 0x67F DUP5 DUP3 DUP6 PUSH3 0x613 JUMP JUMPDEST POP SWAP4 SWAP3 POP POP POP JUMP JUMPDEST PUSH0 DUP3 PUSH1 0x1F DUP4 ADD SLT PUSH3 0x69E JUMPI PUSH3 0x69D PUSH3 0x545 JUMP JUMPDEST JUMPDEST DUP2 MLOAD PUSH3 0x6B0 DUP5 DUP3 PUSH1 0x20 DUP7 ADD PUSH3 0x63D JUMP JUMPDEST SWAP2 POP POP SWAP3 SWAP2 POP POP JUMP JUMPDEST PUSH0 DUP2 SWAP1 POP SWAP2 SWAP1 POP JUMP JUMPDEST PUSH3 0x6CD DUP2 PUSH3 0x6B9 JUMP JUMPDEST DUP2 EQ PUSH3 0x6D8 JUMPI PUSH0 DUP1 REVERT JUMPDEST POP JUMP JUMPDEST PUSH0 DUP2 MLOAD SWAP1 POP PUSH3 0x6EB DUP2 PUSH3 0x6C2 JUMP JUMPDEST SWAP3 SWAP2 POP POP JUMP JUMPDEST PUSH0 DUP1 PUSH0 DUP1 PUSH1 0x80 DUP6 DUP8 SUB SLT ISZERO PUSH3 0x70C JUMPI PUSH3 0x70B PUSH3 0x53D JUMP JUMPDEST JUMPDEST PUSH0 DUP6 ADD MLOAD PUSH8 0xFFFFFFFFFFFFFFFF DUP2 GT ISZERO PUSH3 0x72C JUMPI PUSH3 0x72B PUSH3 0x541 JUMP JUMPDEST JUMPDEST PUSH3 0x73A DUP8 DUP3 DUP9 ADD PUSH3 0x687 JUMP JUMPDEST SWAP5 POP POP PUSH1 0x20 DUP6 ADD MLOAD PUSH8 0xFFFFFFFFFFFFFFFF DUP2 GT ISZERO PUSH3 0x75E JUMPI PUSH3 0x75D PUSH3 0x541 JUMP JUMPDEST JUMPDEST PUSH3 0x76C DUP8 DUP3 DUP9 ADD PUSH3 0x687 JUMP JUMPDEST SWAP4 POP POP PUSH1 0x40 PUSH3 0x77F DUP8 DUP3 DUP9 ADD PUSH3 0x6DB JUMP JUMPDEST SWAP3 POP POP PUSH1 0x60 PUSH3 0x792 DUP8 DUP3 DUP9 ADD PUSH3 0x6DB JUMP JUMPDEST SWAP2 POP POP SWAP3 SWAP6 SWAP2 SWAP5 POP SWAP3 POP JUMP JUMPDEST PUSH0 DUP2 MLOAD SWAP1 POP SWAP2 SWAP1 POP JUMP JUMPDEST PUSH32 0x4E487B7100000000000000000000000000000000000000000000000000000000 PUSH0 MSTORE PUSH1 0x22 PUSH1 0x4 MSTORE PUSH1 0x24 PUSH0 REVERT JUMPDEST PUSH0 PUSH1 0x2 DUP3 DIV SWAP1 POP PUSH1 0x1 DUP3 AND DUP1 PUSH3 0x7ED JUMPI PUSH1 0x7F DUP3 AND SWAP2 POP JUMPDEST PUSH1 0x20 DUP3 LT DUP2 SUB PUSH3 0x803 JUMPI PUSH3 0x802 PUSH3 0x7A8 JUMP JUMPDEST JUMPDEST POP SWAP2 SWAP1 POP JUMP JUMPDEST PUSH0 DUP2 SWAP1 POP DUP2 PUSH0 MSTORE PUSH1 0x20 PUSH0 KECCAK256 SWAP1 POP SWAP2 SWAP1 POP JUMP JUMPDEST PUSH0 PUSH1 0x20 PUSH1 0x1F DUP4 ADD DIV SWAP1 POP SWAP2 SWAP1 POP JUMP JUMPDEST PUSH0 DUP3 DUP3 SHL SWAP1 POP SWAP3 SWAP2 POP POP JUMP JUMPDEST PUSH0 PUSH1 0x8 DUP4 MUL PUSH3 0x867 PUSH32 0xFFFFFFFFFFFFFFFFFFFFFFFFFFFFFFFFFFFFFFFFFFFFFFFFFFFFFFFFFFFFFFFF DUP3 PUSH3 0x82A JUMP JUMPDEST PUSH3 0x873 DUP7 DUP4 PUSH3 0x82A JUMP JUMPDEST SWAP6 POP DUP1 NOT DUP5 AND SWAP4 POP DUP1 DUP7 AND DUP5 OR SWAP3 POP POP POP SWAP4 SWAP3 POP POP POP JUMP JUMPDEST PUSH0 DUP2 SWAP1 POP SWAP2 SWAP1 POP JUMP JUMPDEST PUSH0 PUSH3 0x8B4 PUSH3 0x8AE PUSH3 0x8A8 DUP5 PUSH3 0x6B9 JUMP JUMPDEST PUSH3 0x88B JUMP JUMPDEST PUSH3 0x6B9 JUMP JUMPDEST SWAP1 POP SWAP2 SWAP1 POP JUMP JUMPDEST PUSH0 DUP2 SWAP1 POP SWAP2 SWAP1 POP JUMP JUMPDEST PUSH3 0x8CF DUP4 PUSH3 0x894 JUMP JUMPDEST PUSH3 0x8E7 PUSH3 0x8DE DUP3 PUSH3 0x8BB JUMP JUMPDEST DUP5 DUP5 SLOAD PUSH3 0x836 JUMP JUMPDEST DUP3 SSTORE POP POP POP POP JUMP JUMPDEST PUSH0 SWAP1 JUMP JUMPDEST PUSH3 0x8FD PUSH3 0x8EF JUMP JUMPDEST PUSH3 0x90A DUP2 DUP5 DUP5 PUSH3 0x8C4 JUMP JUMPDEST POP POP POP JUMP JUMPDEST JUMPDEST DUP2 DUP2 LT ISZERO PUSH3 0x931 JUMPI PUSH3 0x925 PUSH0 DUP3 PUSH3 0x8F3 JUMP JUMPDEST PUSH1 0x1 DUP2 ADD SWAP1 POP PUSH3 0x910 JUMP JUMPDEST POP POP JUMP JUMPDEST PUSH1 0x1F DUP3 GT ISZERO PUSH3 0x980 JUMPI PUSH3 0x94A DUP2 PUSH3 0x809 JUMP JUMPDEST PUSH3 0x955 DUP5 PUSH3 0x81B JUMP JUMPDEST DUP2 ADD PUSH1 0x20 DUP6 LT ISZERO PUSH3 0x965 JUMPI DUP2 SWAP1 POP JUMPDEST PUSH3 0x97D PUSH3 0x974 DUP6 PUSH3 0x81B JUMP JUMPDEST DUP4 ADD DUP3 PUSH3 0x90F JUMP JUMPDEST POP POP JUMPDEST POP POP POP JUMP JUMPDEST PUSH0 DUP3 DUP3 SHR SWAP1 POP SWAP3 SWAP2 POP POP JUMP JUMPDEST PUSH0 PUSH3 0x9A2 PUSH0 NOT DUP5 PUSH1 0x8 MUL PUSH3 0x985 JUMP JUMPDEST NOT DUP1 DUP4 AND SWAP2 POP POP SWAP3 SWAP2 POP POP JUMP JUMPDEST PUSH0 PUSH3 0x9BC DUP4 DUP4 PUSH3 0x991 JUMP JUMPDEST SWAP2 POP DUP3 PUSH1 0x2 MUL DUP3 OR SWAP1 POP SWAP3 SWAP2 POP POP JUMP JUMPDEST PUSH3 0x9D7 DUP3 PUSH3 0x79E JUMP JUMPDEST PUSH8 0xFFFFFFFFFFFFFFFF DUP2 GT ISZERO PUSH3 0x9F3 JUMPI PUSH3 0x9F2 PUSH3 0x55D JUMP JUMPDEST JUMPDEST PUSH3 0x9FF DUP3 SLOAD PUSH3 0x7D5 JUMP JUMPDEST PUSH3 0xA0C DUP3 DUP3 DUP6 PUSH3 0x935 JUMP JUMPDEST PUSH0 PUSH1 0x20 SWAP1 POP PUSH1 0x1F DUP4 GT PUSH1 0x1 DUP2 EQ PUSH3 0xA42 JUMPI PUSH0 DUP5 ISZERO PUSH3 0xA2D JUMPI DUP3 DUP8 ADD MLOAD SWAP1 POP JUMPDEST PUSH3 0xA39 DUP6 DUP3 PUSH3 0x9AF JUMP JUMPDEST DUP7 SSTORE POP PUSH3 0xAA8 JUMP JUMPDEST PUSH1 0x1F NOT DUP5 AND PUSH3 0xA52 DUP7 PUSH3 0x809 JUMP JUMPDEST PUSH0 JUMPDEST DUP3 DUP2 LT ISZERO PUSH3 0xA7B JUMPI DUP5 DUP10 ADD MLOAD DUP3 SSTORE PUSH1 0x1 DUP3 ADD SWAP2 POP PUSH1 0x20 DUP6 ADD SWAP5 POP PUSH1 0x20 DUP2 ADD SWAP1 POP PUSH3 0xA54 JUMP JUMPDEST DUP7 DUP4 LT ISZERO PUSH3 0xA9B JUMPI DUP5 DUP10 ADD MLOAD PUSH3 0xA97 PUSH1 0x1F DUP10 AND DUP3 PUSH3 0x991 JUMP JUMPDEST DUP4 SSTORE POP JUMPDEST PUSH1 0x1 PUSH1 0x2 DUP9 MUL ADD DUP9 SSTORE POP POP POP JUMPDEST POP POP POP POP POP POP JUMP JUMPDEST PUSH0 PUSH20 0xFFFFFFFFFFFFFFFFFFFFFFFFFFFFFFFFFFFFFFFF DUP3 AND SWAP1 POP SWAP2 SWAP1 POP JUMP JUMPDEST PUSH0 PUSH3 0xADB DUP3 PUSH3 0xAB0 JUMP JUMPDEST SWAP1 POP SWAP2 SWAP1 POP JUMP JUMPDEST PUSH3 0xAED DUP2 PUSH3 0xACF JUMP JUMPDEST DUP3 MSTORE POP POP JUMP JUMPDEST PUSH0 PUSH1 0x20 DUP3 ADD SWAP1 POP PUSH3 0xB08 PUSH0 DUP4 ADD DUP5 PUSH3 0xAE2 JUMP JUMPDEST SWAP3 SWAP2 POP POP JUMP JUMPDEST PUSH32 0x4E487B7100000000000000000000000000000000000000000000000000000000 PUSH0 MSTORE PUSH1 0x11 PUSH1 0x4 MSTORE PUSH1 0x24 PUSH0 REVERT JUMPDEST PUSH0 DUP2 PUSH1 0x1 SHR SWAP1 POP SWAP2 SWAP1 POP JUMP JUMPDEST PUSH0 DUP1 DUP3 SWAP2 POP DUP4 SWAP1 POP JUMPDEST PUSH1 0x1 DUP6 GT ISZERO PUSH3 0xB98 JUMPI DUP1 DUP7 DIV DUP2 GT ISZERO PUSH3 0xB70 JUMPI PUSH3 0xB6F PUSH3 0xB0E JUMP JUMPDEST JUMPDEST PUSH1 0x1 DUP6 AND ISZERO PUSH3 0xB80 JUMPI DUP1 DUP3 MUL SWAP2 POP JUMPDEST DUP1 DUP2 MUL SWAP1 POP PUSH3 0xB90 DUP6 PUSH3 0xB3B JUMP JUMPDEST SWAP5 POP PUSH3 0xB50 JUMP JUMPDEST SWAP5 POP SWAP5 SWAP3 POP POP POP JUMP JUMPDEST PUSH0 DUP3 PUSH3 0xBB2 JUMPI PUSH1 0x1 SWAP1 POP PUSH3 0xC84 JUMP JUMPDEST DUP2 PUSH3 0xBC1 JUMPI PUSH0 SWAP1 POP PUSH3 0xC84 JUMP JUMPDEST DUP2 PUSH1 0x1 DUP2 EQ PUSH3 0xBDA JUMPI PUSH1 0x2 DUP2 EQ PUSH3 0xBE5 JUMPI PUSH3 0xC1B JUMP JUMPDEST PUSH1 0x1 SWAP2 POP POP PUSH3 0xC84 JUMP JUMPDEST PUSH1 0xFF DUP5 GT ISZERO PUSH3 0xBFA JUMPI PUSH3 0xBF9 PUSH3 0xB0E JUMP JUMPDEST JUMPDEST DUP4 PUSH1 0x2 EXP SWAP2 POP DUP5 DUP3 GT ISZERO PUSH3 0xC14 JUMPI PUSH3 0xC13 PUSH3 0xB0E JUMP JUMPDEST JUMPDEST POP PUSH3 0xC84 JUMP JUMPDEST POP PUSH1 0x20 DUP4 LT PUSH2 0x133 DUP4 LT AND PUSH1 0x4E DUP5 LT PUSH1 0xB DUP5 LT AND OR ISZERO PUSH3 0xC55 JUMPI DUP3 DUP3 EXP SWAP1 POP DUP4 DUP2 GT ISZERO PUSH3 0xC4F JUMPI PUSH3 0xC4E PUSH3 0xB0E JUMP JUMPDEST JUMPDEST PUSH3 0xC84 JUMP JUMPDEST PUSH3 0xC64 DUP5 DUP5 DUP5 PUSH1 0x1 PUSH3 0xB47 JUMP JUMPDEST SWAP3 POP SWAP1 POP DUP2 DUP5 DIV DUP2 GT ISZERO PUSH3 0xC7E JUMPI PUSH3 0xC7D PUSH3 0xB0E JUMP JUMPDEST JUMPDEST DUP2 DUP2 MUL SWAP1 POP JUMPDEST SWAP4 SWAP3 POP POP POP JUMP JUMPDEST PUSH0 PUSH1 0xFF DUP3 AND SWAP1 POP SWAP2 SWAP1 POP JUMP JUMPDEST PUSH0 PUSH3 0xCA3 DUP3 PUSH3 0x6B9 JUMP JUMPDEST SWAP2 POP PUSH3 0xCB0 DUP4 PUSH3 0xC8B JUMP JUMPDEST SWAP3 POP PUSH3 0xCDF PUSH32 0xFFFFFFFFFFFFFFFFFFFFFFFFFFFFFFFFFFFFFFFFFFFFFFFFFFFFFFFFFFFFFFFF DUP5 DUP5 PUSH3 0xBA1 JUMP JUMPDEST SWAP1 POP SWAP3 SWAP2 POP POP JUMP JUMPDEST PUSH0 PUSH3 0xCF3 DUP3 PUSH3 0x6B9 JUMP JUMPDEST SWAP2 POP PUSH3 0xD00 DUP4 PUSH3 0x6B9 JUMP JUMPDEST SWAP3 POP DUP3 DUP3 MUL PUSH3 0xD10 DUP2 PUSH3 0x6B9 JUMP JUMPDEST SWAP2 POP DUP3 DUP3 DIV DUP5 EQ DUP4 ISZERO OR PUSH3 0xD2A JUMPI PUSH3 0xD29 PUSH3 0xB0E JUMP JUMPDEST JUMPDEST POP SWAP3 SWAP2 POP POP JUMP JUMPDEST PUSH0 PUSH3 0xD3D DUP3 PUSH3 0x6B9 JUMP JUMPDEST SWAP2 POP PUSH3 0xD4A DUP4 PUSH3 0x6B9 JUMP JUMPDEST SWAP3 POP DUP3 DUP3 ADD SWAP1 POP DUP1 DUP3 GT ISZERO PUSH3 0xD65 JUMPI PUSH3 0xD64 PUSH3 0xB0E JUMP JUMPDEST JUMPDEST SWAP3 SWAP2 POP POP JUMP JUMPDEST PUSH3 0xD76 DUP2 PUSH3 0x6B9 JUMP JUMPDEST DUP3 MSTORE POP POP JUMP JUMPDEST PUSH0 PUSH1 0x60 DUP3 ADD SWAP1 POP PUSH3 0xD91 PUSH0 DUP4 ADD DUP7 PUSH3 0xAE2 JUMP JUMPDEST PUSH3 0xDA0 PUSH1 0x20 DUP4 ADD DUP6 PUSH3 0xD6B JUMP JUMPDEST PUSH3 0xDAF PUSH1 0x40 DUP4 ADD DUP5 PUSH3 0xD6B JUMP JUMPDEST SWAP5 SWAP4 POP POP POP POP JUMP JUMPDEST PUSH0 PUSH1 0x20 DUP3 ADD SWAP1 POP PUSH3 0xDCC PUSH0 DUP4 ADD DUP5 PUSH3 0xD6B JUMP JUMPDEST SWAP3 SWAP2 POP POP JUMP JUMPDEST PUSH2 0x1AF3 DUP1 PUSH3 0xDE0 PUSH0 CODECOPY PUSH0 RETURN INVALID PUSH1 0x80 PUSH1 0x40 MSTORE PUSH1 0x4 CALLDATASIZE LT PUSH2 0x134 JUMPI PUSH0 CALLDATALOAD PUSH1 0xE0 SHR DUP1 PUSH4 0x715018A6 GT PUSH2 0xAA JUMPI DUP1 PUSH4 0xA9059CBB GT PUSH2 0x6E JUMPI DUP1 PUSH4 0xA9059CBB EQ PUSH2 0x3C2 JUMPI DUP1 PUSH4 0xD5ABEB01 EQ PUSH2 0x3FE JUMPI DUP1 PUSH4 0xD6ABE110 EQ PUSH2 0x428 JUMPI DUP1 PUSH4 0xDD62ED3E EQ PUSH2 0x458 JUMPI DUP1 PUSH4 0xF2FDE38B EQ PUSH2 0x494 JUMPI DUP1 PUSH4 0xF4A0A528 EQ PUSH2 0x4BC JUMPI PUSH2 0x134 JUMP JUMPDEST DUP1 PUSH4 0x715018A6 EQ PUSH2 0x326 JUMPI DUP1 PUSH4 0x7D55094D EQ PUSH2 0x33C JUMPI DUP1 PUSH4 0x8DA5CB5B EQ PUSH2 0x352 JUMPI DUP1 PUSH4 0x95D89B41 EQ PUSH2 0x37C JUMPI DUP1 PUSH4 0x97304CED EQ PUSH2 0x3A6 JUMPI PUSH2 0x134 JUMP JUMPDEST DUP1 PUSH4 0x313CE567 GT PUSH2 0xFC JUMPI DUP1 PUSH4 0x313CE567 EQ PUSH2 0x22E JUMPI DUP1 PUSH4 0x3CCFD60B EQ PUSH2 0x258 JUMPI DUP1 PUSH4 0x6817C76C EQ PUSH2 0x26E JUMPI DUP1 PUSH4 0x6DE9F32B EQ PUSH2 0x298 JUMPI DUP1 PUSH4 0x6F8B44B0 EQ PUSH2 0x2C2 JUMPI DUP1 PUSH4 0x70A08231 EQ PUSH2 0x2EA JUMPI PUSH2 0x134 JUMP JUMPDEST DUP1 PUSH4 0x6FDDE03 EQ PUSH2 0x138 JUMPI DUP1 PUSH4 0x95EA7B3 EQ PUSH2 0x162 JUMPI DUP1 PUSH4 0x18160DDD EQ PUSH2 0x19E JUMPI DUP1 PUSH4 0x1A206910 EQ PUSH2 0x1C8 JUMPI DUP1 PUSH4 0x23B872DD EQ PUSH2 0x1F2 JUMPI JUMPDEST PUSH0 DUP1 REVERT JUMPDEST CALLVALUE DUP1 ISZERO PUSH2 0x143 JUMPI PUSH0 DUP1 REVERT JUMPDEST POP PUSH2 0x14C PUSH2 0x4E4 JUMP JUMPDEST PUSH1 0x40 MLOAD PUSH2 0x159 SWAP2 SWAP1 PUSH2 0x12E9 JUMP JUMPDEST PUSH1 0x40 MLOAD DUP1 SWAP2 SUB SWAP1 RETURN JUMPDEST CALLVALUE DUP1 ISZERO PUSH2 0x16D JUMPI PUSH0 DUP1 REVERT JUMPDEST POP PUSH2 0x188 PUSH1 0x4 DUP1 CALLDATASIZE SUB DUP2 ADD SWAP1 PUSH2 0x183 SWAP2 SWAP1 PUSH2 0x139A JUMP JUMPDEST PUSH2 0x574 JUMP JUMPDEST PUSH1 0x40 MLOAD PUSH2 0x195 SWAP2 SWAP1 PUSH2 0x13F2 JUMP JUMPDEST PUSH1 0x40 MLOAD DUP1 SWAP2 SUB SWAP1 RETURN JUMPDEST CALLVALUE DUP1 ISZERO PUSH2 0x1A9 JUMPI PUSH0 DUP1 REVERT JUMPDEST POP PUSH2 0x1B2 PUSH2 0x596 JUMP JUMPDEST PUSH1 0x40 MLOAD PUSH2 0x1BF SWAP2 SWAP1 PUSH2 0x141A JUMP JUMPDEST PUSH1 0x40 MLOAD DUP1 SWAP2 SUB SWAP1 RETURN JUMPDEST CALLVALUE DUP1 ISZERO PUSH2 0x1D3 JUMPI PUSH0 DUP1 REVERT JUMPDEST POP PUSH2 0x1DC PUSH2 0x59F JUMP JUMPDEST PUSH1 0x40 MLOAD PUSH2 0x1E9 SWAP2 SWAP1 PUSH2 0x13F2 JUMP JUMPDEST PUSH1 0x40 MLOAD DUP1 SWAP2 SUB SWAP1 RETURN JUMPDEST CALLVALUE DUP1 ISZERO PUSH2 0x1FD JUMPI PUSH0 DUP1 REVERT JUMPDEST POP PUSH2 0x218 PUSH1 0x4 DUP1 CALLDATASIZE SUB DUP2 ADD SWAP1 PUSH2 0x213 SWAP2 SWAP1 PUSH2 0x1433 JUMP JUMPDEST PUSH2 0x5B1 JUMP JUMPDEST PUSH1 0x40 MLOAD PUSH2 0x225 SWAP2 SWAP1 PUSH2 0x13F2 JUMP JUMPDEST PUSH1 0x40 MLOAD DUP1 SWAP2 SUB SWAP1 RETURN JUMPDEST CALLVALUE DUP1 ISZERO PUSH2 0x239 JUMPI PUSH0 DUP1 REVERT JUMPDEST POP PUSH2 0x242 PUSH2 0x5DF JUMP JUMPDEST PUSH1 0x40 MLOAD PUSH2 0x24F SWAP2 SWAP1 PUSH2 0x149E JUMP JUMPDEST PUSH1 0x40 MLOAD DUP1 SWAP2 SUB SWAP1 RETURN JUMPDEST CALLVALUE DUP1 ISZERO PUSH2 0x263 JUMPI PUSH0 DUP1 REVERT JUMPDEST POP PUSH2 0x26C PUSH2 0x5E7 JUMP JUMPDEST STOP JUMPDEST CALLVALUE DUP1 ISZERO PUSH2 0x279 JUMPI PUSH0 DUP1 REVERT JUMPDEST POP PUSH2 0x282 PUSH2 0x63C JUMP JUMPDEST PUSH1 0x40 MLOAD PUSH2 0x28F SWAP2 SWAP1 PUSH2 0x141A JUMP JUMPDEST PUSH1 0x40 MLOAD DUP1 SWAP2 SUB SWAP1 RETURN JUMPDEST CALLVALUE DUP1 ISZERO PUSH2 0x2A3 JUMPI PUSH0 DUP1 REVERT JUMPDEST POP PUSH2 0x2AC PUSH2 0x642 JUMP JUMPDEST PUSH1 0x40 MLOAD PUSH2 0x2B9 SWAP2 SWAP1 PUSH2 0x141A JUMP JUMPDEST PUSH1 0x40 MLOAD DUP1 SWAP2 SUB SWAP1 RETURN JUMPDEST CALLVALUE DUP1 ISZERO PUSH2 0x2CD JUMPI PUSH0 DUP1 REVERT JUMPDEST POP PUSH2 0x2E8 PUSH1 0x4 DUP1 CALLDATASIZE SUB DUP2 ADD SWAP1 PUSH2 0x2E3 SWAP2 SWAP1 PUSH2 0x14B7 JUMP JUMPDEST PUSH2 0x648 JUMP JUMPDEST STOP JUMPDEST CALLVALUE DUP1 ISZERO PUSH2 0x2F5 JUMPI PUSH0 DUP1 REVERT JUMPDEST POP PUSH2 0x310 PUSH1 0x4 DUP1 CALLDATASIZE SUB DUP2 ADD SWAP1 PUSH2 0x30B SWAP2 SWAP1 PUSH2 0x14E2 JUMP JUMPDEST PUSH2 0x6DB JUMP JUMPDEST PUSH1 0x40 MLOAD PUSH2 0x31D SWAP2 SWAP1 PUSH2 0x141A JUMP JUMPDEST PUSH1 0x40 MLOAD DUP1 SWAP2 SUB SWAP1 RETURN JUMPDEST CALLVALUE DUP1 ISZERO PUSH2 0x331 JUMPI PUSH0 DUP1 REVERT JUMPDEST POP PUSH2 0x33A PUSH2 0x720 JUMP JUMPDEST STOP JUMPDEST CALLVALUE DUP1 ISZERO PUSH2 0x347 JUMPI PUSH0 DUP1 REVERT JUMPDEST POP PUSH2 0x350 PUSH2 0x733 JUMP JUMPDEST STOP JUMPDEST CALLVALUE DUP1 ISZERO PUSH2 0x35D JUMPI PUSH0 DUP1 REVERT JUMPDEST POP PUSH2 0x366 PUSH2 0x765 JUMP JUMPDEST PUSH1 0x40 MLOAD PUSH2 0x373 SWAP2 SWAP1 PUSH2 0x151C JUMP JUMPDEST PUSH1 0x40 MLOAD DUP1 SWAP2 SUB SWAP1 RETURN JUMPDEST CALLVALUE DUP1 ISZERO PUSH2 0x387 JUMPI PUSH0 DUP1 REVERT JUMPDEST POP PUSH2 0x390 PUSH2 0x78D JUMP JUMPDEST PUSH1 0x40 MLOAD PUSH2 0x39D SWAP2 SWAP1 PUSH2 0x12E9 JUMP JUMPDEST PUSH1 0x40 MLOAD DUP1 SWAP2 SUB SWAP1 RETURN JUMPDEST PUSH2 0x3C0 PUSH1 0x4 DUP1 CALLDATASIZE SUB DUP2 ADD SWAP1 PUSH2 0x3BB SWAP2 SWAP1 PUSH2 0x14B7 JUMP JUMPDEST PUSH2 0x81D JUMP JUMPDEST STOP JUMPDEST CALLVALUE DUP1 ISZERO PUSH2 0x3CD JUMPI PUSH0 DUP1 REVERT JUMPDEST POP PUSH2 0x3E8 PUSH1 0x4 DUP1 CALLDATASIZE SUB DUP2 ADD SWAP1 PUSH2 0x3E3 SWAP2 SWAP1 PUSH2 0x139A JUMP JUMPDEST PUSH2 0x955 JUMP JUMPDEST PUSH1 0x40 MLOAD PUSH2 0x3F5 SWAP2 SWAP1 PUSH2 0x13F2 JUMP JUMPDEST PUSH1 0x40 MLOAD DUP1 SWAP2 SUB SWAP1 RETURN JUMPDEST CALLVALUE DUP1 ISZERO PUSH2 0x409 JUMPI PUSH0 DUP1 REVERT JUMPDEST POP PUSH2 0x412 PUSH2 0x977 JUMP JUMPDEST PUSH1 0x40 MLOAD PUSH2 0x41F SWAP2 SWAP1 PUSH2 0x141A JUMP JUMPDEST PUSH1 0x40 MLOAD DUP1 SWAP2 SUB SWAP1 RETURN JUMPDEST CALLVALUE DUP1 ISZERO PUSH2 0x433 JUMPI PUSH0 DUP1 REVERT JUMPDEST POP PUSH2 0x43C PUSH2 0x97D JUMP JUMPDEST PUSH1 0x40 MLOAD PUSH2 0x44F SWAP8 SWAP7 SWAP6 SWAP5 SWAP4 SWAP3 SWAP2 SWAP1 PUSH2 0x1535 JUMP JUMPDEST PUSH1 0x40 MLOAD DUP1 SWAP2 SUB SWAP1 RETURN JUMPDEST CALLVALUE DUP1 ISZERO PUSH2 0x463 JUMPI PUSH0 DUP1 REVERT JUMPDEST POP PUSH2 0x47E PUSH1 0x4 DUP1 CALLDATASIZE SUB DUP2 ADD SWAP1 PUSH2 0x479 SWAP2 SWAP1 PUSH2 0x15B0 JUMP JUMPDEST PUSH2 0x9FA JUMP JUMPDEST PUSH1 0x40 MLOAD PUSH2 0x48B SWAP2 SWAP1 PUSH2 0x141A JUMP JUMPDEST PUSH1 0x40 MLOAD DUP1 SWAP2 SUB SWAP1 RETURN JUMPDEST CALLVALUE DUP1 ISZERO PUSH2 0x49F JUMPI PUSH0 DUP1 REVERT JUMPDEST POP PUSH2 0x4BA PUSH1 0x4 DUP1 CALLDATASIZE SUB DUP2 ADD SWAP1 PUSH2 0x4B5 SWAP2 SWAP1 PUSH2 0x14E2 JUMP JUMPDEST PUSH2 0xA7C JUMP JUMPDEST STOP JUMPDEST CALLVALUE DUP1 ISZERO PUSH2 0x4C7 JUMPI PUSH0 DUP1 REVERT JUMPDEST POP PUSH2 0x4E2 PUSH1 0x4 DUP1 CALLDATASIZE SUB DUP2 ADD SWAP1 PUSH2 0x4DD SWAP2 SWAP1 PUSH2 0x14B7 JUMP JUMPDEST PUSH2 0xB00 JUMP JUMPDEST STOP JUMPDEST PUSH1 0x60 PUSH1 0x3 DUP1 SLOAD PUSH2 0x4F3 SWAP1 PUSH2 0x161B JUMP JUMPDEST DUP1 PUSH1 0x1F ADD PUSH1 0x20 DUP1 SWAP2 DIV MUL PUSH1 0x20 ADD PUSH1 0x40 MLOAD SWAP1 DUP2 ADD PUSH1 0x40 MSTORE DUP1 SWAP3 SWAP2 SWAP1 DUP2 DUP2 MSTORE PUSH1 0x20 ADD DUP3 DUP1 SLOAD PUSH2 0x51F SWAP1 PUSH2 0x161B JUMP JUMPDEST DUP1 ISZERO PUSH2 0x56A JUMPI DUP1 PUSH1 0x1F LT PUSH2 0x541 JUMPI PUSH2 0x100 DUP1 DUP4 SLOAD DIV MUL DUP4 MSTORE SWAP2 PUSH1 0x20 ADD SWAP2 PUSH2 0x56A JUMP JUMPDEST DUP3 ADD SWAP2 SWAP1 PUSH0 MSTORE PUSH1 0x20 PUSH0 KECCAK256 SWAP1 JUMPDEST DUP2 SLOAD DUP2 MSTORE SWAP1 PUSH1 0x1 ADD SWAP1 PUSH1 0x20 ADD DUP1 DUP4 GT PUSH2 0x54D JUMPI DUP3 SWAP1 SUB PUSH1 0x1F AND DUP3 ADD SWAP2 JUMPDEST POP POP POP POP POP SWAP1 POP SWAP1 JUMP JUMPDEST PUSH0 DUP1 PUSH2 0x57E PUSH2 0xB12 JUMP JUMPDEST SWAP1 POP PUSH2 0x58B DUP2 DUP6 DUP6 PUSH2 0xB19 JUMP JUMPDEST PUSH1 0x1 SWAP2 POP POP SWAP3 SWAP2 POP POP JUMP JUMPDEST PUSH0 PUSH1 0x2 SLOAD SWAP1 POP SWAP1 JUMP JUMPDEST PUSH1 0x8 PUSH0 SWAP1 SLOAD SWAP1 PUSH2 0x100 EXP SWAP1 DIV PUSH1 0xFF AND DUP2 JUMP JUMPDEST PUSH0 DUP1 PUSH2 0x5BB PUSH2 0xB12 JUMP JUMPDEST SWAP1 POP PUSH2 0x5C8 DUP6 DUP3 DUP6 PUSH2 0xB2B JUMP JUMPDEST PUSH2 0x5D3 DUP6 DUP6 DUP6 PUSH2 0xBBE JUMP JUMPDEST PUSH1 0x1 SWAP2 POP POP SWAP4 SWAP3 POP POP POP JUMP JUMPDEST PUSH0 PUSH1 0x12 SWAP1 POP SWAP1 JUMP JUMPDEST PUSH2 0x5EF PUSH2 0xCAE JUMP JUMPDEST PUSH2 0x5F7 PUSH2 0x765 JUMP JUMPDEST PUSH20 0xFFFFFFFFFFFFFFFFFFFFFFFFFFFFFFFFFFFFFFFF AND PUSH2 0x8FC SELFBALANCE SWAP1 DUP2 ISZERO MUL SWAP1 PUSH1 0x40 MLOAD PUSH0 PUSH1 0x40 MLOAD DUP1 DUP4 SUB DUP2 DUP6 DUP9 DUP9 CALL SWAP4 POP POP POP POP ISZERO DUP1 ISZERO PUSH2 0x639 JUMPI RETURNDATASIZE PUSH0 DUP1 RETURNDATACOPY RETURNDATASIZE PUSH0 REVERT JUMPDEST POP JUMP JUMPDEST PUSH1 0x6 SLOAD DUP2 JUMP JUMPDEST PUSH1 0x9 SLOAD DUP2 JUMP JUMPDEST PUSH2 0x650 PUSH2 0xCAE JUMP JUMPDEST PUSH1 0x9 SLOAD PUSH2 0x65B PUSH2 0x5DF JUMP JUMPDEST PUSH1 0xA PUSH2 0x667 SWAP2 SWAP1 PUSH2 0x17A7 JUMP JUMPDEST DUP3 PUSH2 0x672 SWAP2 SWAP1 PUSH2 0x17F1 JUMP JUMPDEST LT ISZERO PUSH2 0x6B3 JUMPI PUSH1 0x40 MLOAD PUSH32 0x8C379A000000000000000000000000000000000000000000000000000000000 DUP2 MSTORE PUSH1 0x4 ADD PUSH2 0x6AA SWAP1 PUSH2 0x18A2 JUMP JUMPDEST PUSH1 0x40 MLOAD DUP1 SWAP2 SUB SWAP1 REVERT JUMPDEST PUSH2 0x6BB PUSH2 0x5DF JUMP JUMPDEST PUSH1 0xA PUSH2 0x6C7 SWAP2 SWAP1 PUSH2 0x17A7 JUMP JUMPDEST DUP2 PUSH2 0x6D2 SWAP2 SWAP1 PUSH2 0x17F1 JUMP JUMPDEST PUSH1 0x7 DUP2 SWAP1 SSTORE POP POP JUMP JUMPDEST PUSH0 DUP1 PUSH0 DUP4 PUSH20 0xFFFFFFFFFFFFFFFFFFFFFFFFFFFFFFFFFFFFFFFF AND PUSH20 0xFFFFFFFFFFFFFFFFFFFFFFFFFFFFFFFFFFFFFFFF AND DUP2 MSTORE PUSH1 0x20 ADD SWAP1 DUP2 MSTORE PUSH1 0x20 ADD PUSH0 KECCAK256 SLOAD SWAP1 POP SWAP2 SWAP1 POP JUMP JUMPDEST PUSH2 0x728 PUSH2 0xCAE JUMP JUMPDEST PUSH2 0x731 PUSH0 PUSH2 0xD35 JUMP JUMPDEST JUMP JUMPDEST PUSH2 0x73B PUSH2 0xCAE JUMP JUMPDEST PUSH1 0x8 PUSH0 SWAP1 SLOAD SWAP1 PUSH2 0x100 EXP SWAP1 DIV PUSH1 0xFF AND ISZERO PUSH1 0x8 PUSH0 PUSH2 0x100 EXP DUP2 SLOAD DUP2 PUSH1 0xFF MUL NOT AND SWAP1 DUP4 ISZERO ISZERO MUL OR SWAP1 SSTORE POP JUMP JUMPDEST PUSH0 PUSH1 0x5 PUSH0 SWAP1 SLOAD SWAP1 PUSH2 0x100 EXP SWAP1 DIV PUSH20 0xFFFFFFFFFFFFFFFFFFFFFFFFFFFFFFFFFFFFFFFF AND SWAP1 POP SWAP1 JUMP JUMPDEST PUSH1 0x60 PUSH1 0x4 DUP1 SLOAD PUSH2 0x79C SWAP1 PUSH2 0x161B JUMP JUMPDEST DUP1 PUSH1 0x1F ADD PUSH1 0x20 DUP1 SWAP2 DIV MUL PUSH1 0x20 ADD PUSH1 0x40 MLOAD SWAP1 DUP2 ADD PUSH1 0x40 MSTORE DUP1 SWAP3 SWAP2 SWAP1 DUP2 DUP2 MSTORE PUSH1 0x20 ADD DUP3 DUP1 SLOAD PUSH2 0x7C8 SWAP1 PUSH2 0x161B JUMP JUMPDEST DUP1 ISZERO PUSH2 0x813 JUMPI DUP1 PUSH1 0x1F LT PUSH2 0x7EA JUMPI PUSH2 0x100 DUP1 DUP4 SLOAD DIV MUL DUP4 MSTORE SWAP2 PUSH1 0x20 ADD SWAP2 PUSH2 0x813 JUMP JUMPDEST DUP3 ADD SWAP2 SWAP1 PUSH0 MSTORE PUSH1 0x20 PUSH0 KECCAK256 SWAP1 JUMPDEST DUP2 SLOAD DUP2 MSTORE SWAP1 PUSH1 0x1 ADD SWAP1 PUSH1 0x20 ADD DUP1 DUP4 GT PUSH2 0x7F6 JUMPI DUP3 SWAP1 SUB PUSH1 0x1F AND DUP3 ADD SWAP2 JUMPDEST POP POP POP POP POP SWAP1 POP SWAP1 JUMP JUMPDEST PUSH1 0x8 PUSH0 SWAP1 SLOAD SWAP1 PUSH2 0x100 EXP SWAP1 DIV PUSH1 0xFF AND PUSH2 0x86B JUMPI PUSH1 0x40 MLOAD PUSH32 0x8C379A000000000000000000000000000000000000000000000000000000000 DUP2 MSTORE PUSH1 0x4 ADD PUSH2 0x862 SWAP1 PUSH2 0x190A JUMP JUMPDEST PUSH1 0x40 MLOAD DUP1 SWAP2 SUB SWAP1 REVERT JUMPDEST DUP1 PUSH1 0x6 SLOAD PUSH2 0x879 SWAP2 SWAP1 PUSH2 0x17F1 JUMP JUMPDEST CALLVALUE LT ISZERO PUSH2 0x8BB JUMPI PUSH1 0x40 MLOAD PUSH32 0x8C379A000000000000000000000000000000000000000000000000000000000 DUP2 MSTORE PUSH1 0x4 ADD PUSH2 0x8B2 SWAP1 PUSH2 0x1972 JUMP JUMPDEST PUSH1 0x40 MLOAD DUP1 SWAP2 SUB SWAP1 REVERT JUMPDEST PUSH0 PUSH2 0x8C4 PUSH2 0x5DF JUMP JUMPDEST PUSH1 0xA PUSH2 0x8D0 SWAP2 SWAP1 PUSH2 0x17A7 JUMP JUMPDEST DUP3 PUSH2 0x8DB SWAP2 SWAP1 PUSH2 0x17F1 JUMP JUMPDEST SWAP1 POP PUSH1 0x7 SLOAD DUP2 PUSH1 0x9 SLOAD PUSH2 0x8EE SWAP2 SWAP1 PUSH2 0x1990 JUMP JUMPDEST GT ISZERO PUSH2 0x92F JUMPI PUSH1 0x40 MLOAD PUSH32 0x8C379A000000000000000000000000000000000000000000000000000000000 DUP2 MSTORE PUSH1 0x4 ADD PUSH2 0x926 SWAP1 PUSH2 0x1A0D JUMP JUMPDEST PUSH1 0x40 MLOAD DUP1 SWAP2 SUB SWAP1 REVERT JUMPDEST PUSH2 0x939 CALLER DUP3 PUSH2 0xDF8 JUMP JUMPDEST DUP1 PUSH1 0x9 PUSH0 DUP3 DUP3 SLOAD PUSH2 0x94A SWAP2 SWAP1 PUSH2 0x1990 JUMP JUMPDEST SWAP3 POP POP DUP2 SWAP1 SSTORE POP POP POP JUMP JUMPDEST PUSH0 DUP1 PUSH2 0x95F PUSH2 0xB12 JUMP JUMPDEST SWAP1 POP PUSH2 0x96C DUP2 DUP6 DUP6 PUSH2 0xBBE JUMP JUMPDEST PUSH1 0x1 SWAP2 POP POP SWAP3 SWAP2 POP POP JUMP JUMPDEST PUSH1 0x7 SLOAD DUP2 JUMP JUMPDEST PUSH1 0x60 DUP1 PUSH0 DUP1 PUSH0 DUP1 PUSH0 DUP7 DUP7 PUSH2 0x98F PUSH2 0x5DF JUMP JUMPDEST PUSH2 0x997 PUSH2 0x5DF JUMP JUMPDEST PUSH1 0xA PUSH2 0x9A3 SWAP2 SWAP1 PUSH2 0x17A7 JUMP JUMPDEST PUSH1 0x9 SLOAD PUSH2 0x9B0 SWAP2 SWAP1 PUSH2 0x1A58 JUMP JUMPDEST PUSH2 0x9B8 PUSH2 0x5DF JUMP JUMPDEST PUSH1 0xA PUSH2 0x9C4 SWAP2 SWAP1 PUSH2 0x17A7 JUMP JUMPDEST PUSH1 0x7 SLOAD PUSH2 0x9D1 SWAP2 SWAP1 PUSH2 0x1A58 JUMP JUMPDEST PUSH1 0x6 SLOAD PUSH1 0x8 PUSH0 SWAP1 SLOAD SWAP1 PUSH2 0x100 EXP SWAP1 DIV PUSH1 0xFF AND SWAP7 POP SWAP7 POP SWAP7 POP SWAP7 POP SWAP7 POP SWAP7 POP SWAP7 POP SWAP1 SWAP2 SWAP3 SWAP4 SWAP5 SWAP6 SWAP7 JUMP JUMPDEST PUSH0 PUSH1 0x1 PUSH0 DUP5 PUSH20 0xFFFFFFFFFFFFFFFFFFFFFFFFFFFFFFFFFFFFFFFF AND PUSH20 0xFFFFFFFFFFFFFFFFFFFFFFFFFFFFFFFFFFFFFFFF AND DUP2 MSTORE PUSH1 0x20 ADD SWAP1 DUP2 MSTORE PUSH1 0x20 ADD PUSH0 KECCAK256 PUSH0 DUP4 PUSH20 0xFFFFFFFFFFFFFFFFFFFFFFFFFFFFFFFFFFFFFFFF AND PUSH20 0xFFFFFFFFFFFFFFFFFFFFFFFFFFFFFFFFFFFFFFFF AND DUP2 MSTORE PUSH1 0x20 ADD SWAP1 DUP2 MSTORE PUSH1 0x20 ADD PUSH0 KECCAK256 SLOAD SWAP1 POP SWAP3 SWAP2 POP POP JUMP JUMPDEST PUSH2 0xA84 PUSH2 0xCAE JUMP JUMPDEST PUSH0 PUSH20 0xFFFFFFFFFFFFFFFFFFFFFFFFFFFFFFFFFFFFFFFF AND DUP2 PUSH20 0xFFFFFFFFFFFFFFFFFFFFFFFFFFFFFFFFFFFFFFFF AND SUB PUSH2 0xAF4 JUMPI PUSH0 PUSH1 0x40 MLOAD PUSH32 0x1E4FBDF700000000000000000000000000000000000000000000000000000000 DUP2 MSTORE PUSH1 0x4 ADD PUSH2 0xAEB SWAP2 SWAP1 PUSH2 0x151C JUMP JUMPDEST PUSH1 0x40 MLOAD DUP1 SWAP2 SUB SWAP1 REVERT JUMPDEST PUSH2 0xAFD DUP2 PUSH2 0xD35 JUMP JUMPDEST POP JUMP JUMPDEST PUSH2 0xB08 PUSH2 0xCAE JUMP JUMPDEST DUP1 PUSH1 0x6 DUP2 SWAP1 SSTORE POP POP JUMP JUMPDEST PUSH0 CALLER SWAP1 POP SWAP1 JUMP JUMPDEST PUSH2 0xB26 DUP4 DUP4 DUP4 PUSH1 0x1 PUSH2 0xE77 JUMP JUMPDEST POP POP POP JUMP JUMPDEST PUSH0 PUSH2 0xB36 DUP5 DUP5 PUSH2 0x9FA JUMP JUMPDEST SWAP1 POP PUSH32 0xFFFFFFFFFFFFFFFFFFFFFFFFFFFFFFFFFFFFFFFFFFFFFFFFFFFFFFFFFFFFFFFF DUP2 LT ISZERO PUSH2 0xBB8 JUMPI DUP2 DUP2 LT ISZERO PUSH2 0xBA9 JUMPI DUP3 DUP2 DUP4 PUSH1 0x40 MLOAD PUSH32 0xFB8F41B200000000000000000000000000000000000000000000000000000000 DUP2 MSTORE PUSH1 0x4 ADD PUSH2 0xBA0 SWAP4 SWAP3 SWAP2 SWAP1 PUSH2 0x1A88 JUMP JUMPDEST PUSH1 0x40 MLOAD DUP1 SWAP2 SUB SWAP1 REVERT JUMPDEST PUSH2 0xBB7 DUP5 DUP5 DUP5 DUP5 SUB PUSH0 PUSH2 0xE77 JUMP JUMPDEST JUMPDEST POP POP POP POP JUMP JUMPDEST PUSH0 PUSH20 0xFFFFFFFFFFFFFFFFFFFFFFFFFFFFFFFFFFFFFFFF AND DUP4 PUSH20 0xFFFFFFFFFFFFFFFFFFFFFFFFFFFFFFFFFFFFFFFF AND SUB PUSH2 0xC2E JUMPI PUSH0 PUSH1 0x40 MLOAD PUSH32 0x96C6FD1E00000000000000000000000000000000000000000000000000000000 DUP2 MSTORE PUSH1 0x4 ADD PUSH2 0xC25 SWAP2 SWAP1 PUSH2 0x151C JUMP JUMPDEST PUSH1 0x40 MLOAD DUP1 SWAP2 SUB SWAP1 REVERT JUMPDEST PUSH0 PUSH20 0xFFFFFFFFFFFFFFFFFFFFFFFFFFFFFFFFFFFFFFFF AND DUP3 PUSH20 0xFFFFFFFFFFFFFFFFFFFFFFFFFFFFFFFFFFFFFFFF AND SUB PUSH2 0xC9E JUMPI PUSH0 PUSH1 0x40 MLOAD PUSH32 0xEC442F0500000000000000000000000000000000000000000000000000000000 DUP2 MSTORE PUSH1 0x4 ADD PUSH2 0xC95 SWAP2 SWAP1 PUSH2 0x151C JUMP JUMPDEST PUSH1 0x40 MLOAD DUP1 SWAP2 SUB SWAP1 REVERT JUMPDEST PUSH2 0xCA9 DUP4 DUP4 DUP4 PUSH2 0x1046 JUMP JUMPDEST POP POP POP JUMP JUMPDEST PUSH2 0xCB6 PUSH2 0xB12 JUMP JUMPDEST PUSH20 0xFFFFFFFFFFFFFFFFFFFFFFFFFFFFFFFFFFFFFFFF AND PUSH2 0xCD4 PUSH2 0x765 JUMP JUMPDEST PUSH20 0xFFFFFFFFFFFFFFFFFFFFFFFFFFFFFFFFFFFFFFFF AND EQ PUSH2 0xD33 JUMPI PUSH2 0xCF7 PUSH2 0xB12 JUMP JUMPDEST PUSH1 0x40 MLOAD PUSH32 0x118CDAA700000000000000000000000000000000000000000000000000000000 DUP2 MSTORE PUSH1 0x4 ADD PUSH2 0xD2A SWAP2 SWAP1 PUSH2 0x151C JUMP JUMPDEST PUSH1 0x40 MLOAD DUP1 SWAP2 SUB SWAP1 REVERT JUMPDEST JUMP JUMPDEST PUSH0 PUSH1 0x5 PUSH0 SWAP1 SLOAD SWAP1 PUSH2 0x100 EXP SWAP1 DIV PUSH20 0xFFFFFFFFFFFFFFFFFFFFFFFFFFFFFFFFFFFFFFFF AND SWAP1 POP DUP2 PUSH1 0x5 PUSH0 PUSH2 0x100 EXP DUP2 SLOAD DUP2 PUSH20 0xFFFFFFFFFFFFFFFFFFFFFFFFFFFFFFFFFFFFFFFF MUL NOT AND SWAP1 DUP4 PUSH20 0xFFFFFFFFFFFFFFFFFFFFFFFFFFFFFFFFFFFFFFFF AND MUL OR SWAP1 SSTORE POP DUP2 PUSH20 0xFFFFFFFFFFFFFFFFFFFFFFFFFFFFFFFFFFFFFFFF AND DUP2 PUSH20 0xFFFFFFFFFFFFFFFFFFFFFFFFFFFFFFFFFFFFFFFF AND PUSH32 0x8BE0079C531659141344CD1FD0A4F28419497F9722A3DAAFE3B4186F6B6457E0 PUSH1 0x40 MLOAD PUSH1 0x40 MLOAD DUP1 SWAP2 SUB SWAP1 LOG3 POP POP JUMP JUMPDEST PUSH0 PUSH20 0xFFFFFFFFFFFFFFFFFFFFFFFFFFFFFFFFFFFFFFFF AND DUP3 PUSH20 0xFFFFFFFFFFFFFFFFFFFFFFFFFFFFFFFFFFFFFFFF AND SUB PUSH2 0xE68 JUMPI PUSH0 PUSH1 0x40 MLOAD PUSH32 0xEC442F0500000000000000000000000000000000000000000000000000000000 DUP2 MSTORE PUSH1 0x4 ADD PUSH2 0xE5F SWAP2 SWAP1 PUSH2 0x151C JUMP JUMPDEST PUSH1 0x40 MLOAD DUP1 SWAP2 SUB SWAP1 REVERT JUMPDEST PUSH2 0xE73 PUSH0 DUP4 DUP4 PUSH2 0x1046 JUMP JUMPDEST POP POP JUMP JUMPDEST PUSH0 PUSH20 0xFFFFFFFFFFFFFFFFFFFFFFFFFFFFFFFFFFFFFFFF AND DUP5 PUSH20 0xFFFFFFFFFFFFFFFFFFFFFFFFFFFFFFFFFFFFFFFF AND SUB PUSH2 0xEE7 JUMPI PUSH0 PUSH1 0x40 MLOAD PUSH32 0xE602DF0500000000000000000000000000000000000000000000000000000000 DUP2 MSTORE PUSH1 0x4 ADD PUSH2 0xEDE SWAP2 SWAP1 PUSH2 0x151C JUMP JUMPDEST PUSH1 0x40 MLOAD DUP1 SWAP2 SUB SWAP1 REVERT JUMPDEST PUSH0 PUSH20 0xFFFFFFFFFFFFFFFFFFFFFFFFFFFFFFFFFFFFFFFF AND DUP4 PUSH20 0xFFFFFFFFFFFFFFFFFFFFFFFFFFFFFFFFFFFFFFFF AND SUB PUSH2 0xF57 JUMPI PUSH0 PUSH1 0x40 MLOAD PUSH32 0x94280D6200000000000000000000000000000000000000000000000000000000 DUP2 MSTORE PUSH1 0x4 ADD PUSH2 0xF4E SWAP2 SWAP1 PUSH2 0x151C JUMP JUMPDEST PUSH1 0x40 MLOAD DUP1 SWAP2 SUB SWAP1 REVERT JUMPDEST DUP2 PUSH1 0x1 PUSH0 DUP7 PUSH20 0xFFFFFFFFFFFFFFFFFFFFFFFFFFFFFFFFFFFFFFFF AND PUSH20 0xFFFFFFFFFFFFFFFFFFFFFFFFFFFFFFFFFFFFFFFF AND DUP2 MSTORE PUSH1 0x20 ADD SWAP1 DUP2 MSTORE PUSH1 0x20 ADD PUSH0 KECCAK256 PUSH0 DUP6 PUSH20 0xFFFFFFFFFFFFFFFFFFFFFFFFFFFFFFFFFFFFFFFF AND PUSH20 0xFFFFFFFFFFFFFFFFFFFFFFFFFFFFFFFFFFFFFFFF AND DUP2 MSTORE PUSH1 0x20 ADD SWAP1 DUP2 MSTORE PUSH1 0x20 ADD PUSH0 KECCAK256 DUP2 SWAP1 SSTORE POP DUP1 ISZERO PUSH2 0x1040 JUMPI DUP3 PUSH20 0xFFFFFFFFFFFFFFFFFFFFFFFFFFFFFFFFFFFFFFFF AND DUP5 PUSH20 0xFFFFFFFFFFFFFFFFFFFFFFFFFFFFFFFFFFFFFFFF AND PUSH32 0x8C5BE1E5EBEC7D5BD14F71427D1E84F3DD0314C0F7B2291E5B200AC8C7C3B925 DUP5 PUSH1 0x40 MLOAD PUSH2 0x1037 SWAP2 SWAP1 PUSH2 0x141A JUMP JUMPDEST PUSH1 0x40 MLOAD DUP1 SWAP2 SUB SWAP1 LOG3 JUMPDEST POP POP POP POP JUMP JUMPDEST PUSH0 PUSH20 0xFFFFFFFFFFFFFFFFFFFFFFFFFFFFFFFFFFFFFFFF AND DUP4 PUSH20 0xFFFFFFFFFFFFFFFFFFFFFFFFFFFFFFFFFFFFFFFF AND SUB PUSH2 0x1096 JUMPI DUP1 PUSH1 0x2 PUSH0 DUP3 DUP3 SLOAD PUSH2 0x108A SWAP2 SWAP1 PUSH2 0x1990 JUMP JUMPDEST SWAP3 POP POP DUP2 SWAP1 SSTORE POP PUSH2 0x1164 JUMP JUMPDEST PUSH0 DUP1 PUSH0 DUP6 PUSH20 0xFFFFFFFFFFFFFFFFFFFFFFFFFFFFFFFFFFFFFFFF AND PUSH20 0xFFFFFFFFFFFFFFFFFFFFFFFFFFFFFFFFFFFFFFFF AND DUP2 MSTORE PUSH1 0x20 ADD SWAP1 DUP2 MSTORE PUSH1 0x20 ADD PUSH0 KECCAK256 SLOAD SWAP1 POP DUP2 DUP2 LT ISZERO PUSH2 0x111F JUMPI DUP4 DUP2 DUP4 PUSH1 0x40 MLOAD PUSH32 0xE450D38C00000000000000000000000000000000000000000000000000000000 DUP2 MSTORE PUSH1 0x4 ADD PUSH2 0x1116 SWAP4 SWAP3 SWAP2 SWAP1 PUSH2 0x1A88 JUMP JUMPDEST PUSH1 0x40 MLOAD DUP1 SWAP2 SUB SWAP1 REVERT JUMPDEST DUP2 DUP2 SUB PUSH0 DUP1 DUP7 PUSH20 0xFFFFFFFFFFFFFFFFFFFFFFFFFFFFFFFFFFFFFFFF AND PUSH20 0xFFFFFFFFFFFFFFFFFFFFFFFFFFFFFFFFFFFFFFFF AND DUP2 MSTORE PUSH1 0x20 ADD SWAP1 DUP2 MSTORE PUSH1 0x20 ADD PUSH0 KECCAK256 DUP2 SWAP1 SSTORE POP POP JUMPDEST PUSH0 PUSH20 0xFFFFFFFFFFFFFFFFFFFFFFFFFFFFFFFFFFFFFFFF AND DUP3 PUSH20 0xFFFFFFFFFFFFFFFFFFFFFFFFFFFFFFFFFFFFFFFF AND SUB PUSH2 0x11AB JUMPI DUP1 PUSH1 0x2 PUSH0 DUP3 DUP3 SLOAD SUB SWAP3 POP POP DUP2 SWAP1 SSTORE POP PUSH2 0x11F5 JUMP JUMPDEST DUP1 PUSH0 DUP1 DUP5 PUSH20 0xFFFFFFFFFFFFFFFFFFFFFFFFFFFFFFFFFFFFFFFF AND PUSH20 0xFFFFFFFFFFFFFFFFFFFFFFFFFFFFFFFFFFFFFFFF AND DUP2 MSTORE PUSH1 0x20 ADD SWAP1 DUP2 MSTORE PUSH1 0x20 ADD PUSH0 KECCAK256 PUSH0 DUP3 DUP3 SLOAD ADD SWAP3 POP POP DUP2 SWAP1 SSTORE POP JUMPDEST DUP2 PUSH20 0xFFFFFFFFFFFFFFFFFFFFFFFFFFFFFFFFFFFFFFFF AND DUP4 PUSH20 0xFFFFFFFFFFFFFFFFFFFFFFFFFFFFFFFFFFFFFFFF AND PUSH32 0xDDF252AD1BE2C89B69C2B068FC378DAA952BA7F163C4A11628F55A4DF523B3EF DUP4 PUSH1 0x40 MLOAD PUSH2 0x1252 SWAP2 SWAP1 PUSH2 0x141A JUMP JUMPDEST PUSH1 0x40 MLOAD DUP1 SWAP2 SUB SWAP1 LOG3 POP POP POP JUMP JUMPDEST PUSH0 DUP2 MLOAD SWAP1 POP SWAP2 SWAP1 POP JUMP JUMPDEST PUSH0 DUP3 DUP3 MSTORE PUSH1 0x20 DUP3 ADD SWAP1 POP SWAP3 SWAP2 POP POP JUMP JUMPDEST PUSH0 JUMPDEST DUP4 DUP2 LT ISZERO PUSH2 0x1296 JUMPI DUP1 DUP3 ADD MLOAD DUP2 DUP5 ADD MSTORE PUSH1 0x20 DUP2 ADD SWAP1 POP PUSH2 0x127B JUMP JUMPDEST PUSH0 DUP5 DUP5 ADD MSTORE POP POP POP POP JUMP JUMPDEST PUSH0 PUSH1 0x1F NOT PUSH1 0x1F DUP4 ADD AND SWAP1 POP SWAP2 SWAP1 POP JUMP JUMPDEST PUSH0 PUSH2 0x12BB DUP3 PUSH2 0x125F JUMP JUMPDEST PUSH2 0x12C5 DUP2 DUP6 PUSH2 0x1269 JUMP JUMPDEST SWAP4 POP PUSH2 0x12D5 DUP2 DUP6 PUSH1 0x20 DUP7 ADD PUSH2 0x1279 JUMP JUMPDEST PUSH2 0x12DE DUP2 PUSH2 0x12A1 JUMP JUMPDEST DUP5 ADD SWAP2 POP POP SWAP3 SWAP2 POP POP JUMP JUMPDEST PUSH0 PUSH1 0x20 DUP3 ADD SWAP1 POP DUP2 DUP2 SUB PUSH0 DUP4 ADD MSTORE PUSH2 0x1301 DUP2 DUP5 PUSH2 0x12B1 JUMP JUMPDEST SWAP1 POP SWAP3 SWAP2 POP POP JUMP JUMPDEST PUSH0 DUP1 REVERT JUMPDEST PUSH0 PUSH20 0xFFFFFFFFFFFFFFFFFFFFFFFFFFFFFFFFFFFFFFFF DUP3 AND SWAP1 POP SWAP2 SWAP1 POP JUMP JUMPDEST PUSH0 PUSH2 0x1336 DUP3 PUSH2 0x130D JUMP JUMPDEST SWAP1 POP SWAP2 SWAP1 POP JUMP JUMPDEST PUSH2 0x1346 DUP2 PUSH2 0x132C JUMP JUMPDEST DUP2 EQ PUSH2 0x1350 JUMPI PUSH0 DUP1 REVERT JUMPDEST POP JUMP JUMPDEST PUSH0 DUP2 CALLDATALOAD SWAP1 POP PUSH2 0x1361 DUP2 PUSH2 0x133D JUMP JUMPDEST SWAP3 SWAP2 POP POP JUMP JUMPDEST PUSH0 DUP2 SWAP1 POP SWAP2 SWAP1 POP JUMP JUMPDEST PUSH2 0x1379 DUP2 PUSH2 0x1367 JUMP JUMPDEST DUP2 EQ PUSH2 0x1383 JUMPI PUSH0 DUP1 REVERT JUMPDEST POP JUMP JUMPDEST PUSH0 DUP2 CALLDATALOAD SWAP1 POP PUSH2 0x1394 DUP2 PUSH2 0x1370 JUMP JUMPDEST SWAP3 SWAP2 POP POP JUMP JUMPDEST PUSH0 DUP1 PUSH1 0x40 DUP4 DUP6 SUB SLT ISZERO PUSH2 0x13B0 JUMPI PUSH2 0x13AF PUSH2 0x1309 JUMP JUMPDEST JUMPDEST PUSH0 PUSH2 0x13BD DUP6 DUP3 DUP7 ADD PUSH2 0x1353 JUMP JUMPDEST SWAP3 POP POP PUSH1 0x20 PUSH2 0x13CE DUP6 DUP3 DUP7 ADD PUSH2 0x1386 JUMP JUMPDEST SWAP2 POP POP SWAP3 POP SWAP3 SWAP1 POP JUMP JUMPDEST PUSH0 DUP2 ISZERO ISZERO SWAP1 POP SWAP2 SWAP1 POP JUMP JUMPDEST PUSH2 0x13EC DUP2 PUSH2 0x13D8 JUMP JUMPDEST DUP3 MSTORE POP POP JUMP JUMPDEST PUSH0 PUSH1 0x20 DUP3 ADD SWAP1 POP PUSH2 0x1405 PUSH0 DUP4 ADD DUP5 PUSH2 0x13E3 JUMP JUMPDEST SWAP3 SWAP2 POP POP JUMP JUMPDEST PUSH2 0x1414 DUP2 PUSH2 0x1367 JUMP JUMPDEST DUP3 MSTORE POP POP JUMP JUMPDEST PUSH0 PUSH1 0x20 DUP3 ADD SWAP1 POP PUSH2 0x142D PUSH0 DUP4 ADD DUP5 PUSH2 0x140B JUMP JUMPDEST SWAP3 SWAP2 POP POP JUMP JUMPDEST PUSH0 DUP1 PUSH0 PUSH1 0x60 DUP5 DUP7 SUB SLT ISZERO PUSH2 0x144A JUMPI PUSH2 0x1449 PUSH2 0x1309 JUMP JUMPDEST JUMPDEST PUSH0 PUSH2 0x1457 DUP7 DUP3 DUP8 ADD PUSH2 0x1353 JUMP JUMPDEST SWAP4 POP POP PUSH1 0x20 PUSH2 0x1468 DUP7 DUP3 DUP8 ADD PUSH2 0x1353 JUMP JUMPDEST SWAP3 POP POP PUSH1 0x40 PUSH2 0x1479 DUP7 DUP3 DUP8 ADD PUSH2 0x1386 JUMP JUMPDEST SWAP2 POP POP SWAP3 POP SWAP3 POP SWAP3 JUMP JUMPDEST PUSH0 PUSH1 0xFF DUP3 AND SWAP1 POP SWAP2 SWAP1 POP JUMP JUMPDEST PUSH2 0x1498 DUP2 PUSH2 0x1483 JUMP JUMPDEST DUP3 MSTORE POP POP JUMP JUMPDEST PUSH0 PUSH1 0x20 DUP3 ADD SWAP1 POP PUSH2 0x14B1 PUSH0 DUP4 ADD DUP5 PUSH2 0x148F JUMP JUMPDEST SWAP3 SWAP2 POP POP JUMP JUMPDEST PUSH0 PUSH1 0x20 DUP3 DUP5 SUB SLT ISZERO PUSH2 0x14CC JUMPI PUSH2 0x14CB PUSH2 0x1309 JUMP JUMPDEST JUMPDEST PUSH0 PUSH2 0x14D9 DUP5 DUP3 DUP6 ADD PUSH2 0x1386 JUMP JUMPDEST SWAP2 POP POP SWAP3 SWAP2 POP POP JUMP JUMPDEST PUSH0 PUSH1 0x20 DUP3 DUP5 SUB SLT ISZERO PUSH2 0x14F7 JUMPI PUSH2 0x14F6 PUSH2 0x1309 JUMP JUMPDEST JUMPDEST PUSH0 PUSH2 0x1504 DUP5 DUP3 DUP6 ADD PUSH2 0x1353 JUMP JUMPDEST SWAP2 POP POP SWAP3 SWAP2 POP POP JUMP JUMPDEST PUSH2 0x1516 DUP2 PUSH2 0x132C JUMP JUMPDEST DUP3 MSTORE POP POP JUMP JUMPDEST PUSH0 PUSH1 0x20 DUP3 ADD SWAP1 POP PUSH2 0x152F PUSH0 DUP4 ADD DUP5 PUSH2 0x150D JUMP JUMPDEST SWAP3 SWAP2 POP POP JUMP JUMPDEST PUSH0 PUSH1 0xE0 DUP3 ADD SWAP1 POP DUP2 DUP2 SUB PUSH0 DUP4 ADD MSTORE PUSH2 0x154D DUP2 DUP11 PUSH2 0x12B1 JUMP JUMPDEST SWAP1 POP DUP2 DUP2 SUB PUSH1 0x20 DUP4 ADD MSTORE PUSH2 0x1561 DUP2 DUP10 PUSH2 0x12B1 JUMP JUMPDEST SWAP1 POP PUSH2 0x1570 PUSH1 0x40 DUP4 ADD DUP9 PUSH2 0x148F JUMP JUMPDEST PUSH2 0x157D PUSH1 0x60 DUP4 ADD DUP8 PUSH2 0x140B JUMP JUMPDEST PUSH2 0x158A PUSH1 0x80 DUP4 ADD DUP7 PUSH2 0x140B JUMP JUMPDEST PUSH2 0x1597 PUSH1 0xA0 DUP4 ADD DUP6 PUSH2 0x140B JUMP JUMPDEST PUSH2 0x15A4 PUSH1 0xC0 DUP4 ADD DUP5 PUSH2 0x13E3 JUMP JUMPDEST SWAP9 SWAP8 POP POP POP POP POP POP POP POP JUMP JUMPDEST PUSH0 DUP1 PUSH1 0x40 DUP4 DUP6 SUB SLT ISZERO PUSH2 0x15C6 JUMPI PUSH2 0x15C5 PUSH2 0x1309 JUMP JUMPDEST JUMPDEST PUSH0 PUSH2 0x15D3 DUP6 DUP3 DUP7 ADD PUSH2 0x1353 JUMP JUMPDEST SWAP3 POP POP PUSH1 0x20 PUSH2 0x15E4 DUP6 DUP3 DUP7 ADD PUSH2 0x1353 JUMP JUMPDEST SWAP2 POP POP SWAP3 POP SWAP3 SWAP1 POP JUMP JUMPDEST PUSH32 0x4E487B7100000000000000000000000000000000000000000000000000000000 PUSH0 MSTORE PUSH1 0x22 PUSH1 0x4 MSTORE PUSH1 0x24 PUSH0 REVERT JUMPDEST PUSH0 PUSH1 0x2 DUP3 DIV SWAP1 POP PUSH1 0x1 DUP3 AND DUP1 PUSH2 0x1632 JUMPI PUSH1 0x7F DUP3 AND SWAP2 POP JUMPDEST PUSH1 0x20 DUP3 LT DUP2 SUB PUSH2 0x1645 JUMPI PUSH2 0x1644 PUSH2 0x15EE JUMP JUMPDEST JUMPDEST POP SWAP2 SWAP1 POP JUMP JUMPDEST PUSH32 0x4E487B7100000000000000000000000000000000000000000000000000000000 PUSH0 MSTORE PUSH1 0x11 PUSH1 0x4 MSTORE PUSH1 0x24 PUSH0 REVERT JUMPDEST PUSH0 DUP2 PUSH1 0x1 SHR SWAP1 POP SWAP2 SWAP1 POP JUMP JUMPDEST PUSH0 DUP1 DUP3 SWAP2 POP DUP4 SWAP1 POP JUMPDEST PUSH1 0x1 DUP6 GT ISZERO PUSH2 0x16CD JUMPI DUP1 DUP7 DIV DUP2 GT ISZERO PUSH2 0x16A9 JUMPI PUSH2 0x16A8 PUSH2 0x164B JUMP JUMPDEST JUMPDEST PUSH1 0x1 DUP6 AND ISZERO PUSH2 0x16B8 JUMPI DUP1 DUP3 MUL SWAP2 POP JUMPDEST DUP1 DUP2 MUL SWAP1 POP PUSH2 0x16C6 DUP6 PUSH2 0x1678 JUMP JUMPDEST SWAP5 POP PUSH2 0x168D JUMP JUMPDEST SWAP5 POP SWAP5 SWAP3 POP POP POP JUMP JUMPDEST PUSH0 DUP3 PUSH2 0x16E5 JUMPI PUSH1 0x1 SWAP1 POP PUSH2 0x17A0 JUMP JUMPDEST DUP2 PUSH2 0x16F2 JUMPI PUSH0 SWAP1 POP PUSH2 0x17A0 JUMP JUMPDEST DUP2 PUSH1 0x1 DUP2 EQ PUSH2 0x1708 JUMPI PUSH1 0x2 DUP2 EQ PUSH2 0x1712 JUMPI PUSH2 0x1741 JUMP JUMPDEST PUSH1 0x1 SWAP2 POP POP PUSH2 0x17A0 JUMP JUMPDEST PUSH1 0xFF DUP5 GT ISZERO PUSH2 0x1724 JUMPI PUSH2 0x1723 PUSH2 0x164B JUMP JUMPDEST JUMPDEST DUP4 PUSH1 0x2 EXP SWAP2 POP DUP5 DUP3 GT ISZERO PUSH2 0x173B JUMPI PUSH2 0x173A PUSH2 0x164B JUMP JUMPDEST JUMPDEST POP PUSH2 0x17A0 JUMP JUMPDEST POP PUSH1 0x20 DUP4 LT PUSH2 0x133 DUP4 LT AND PUSH1 0x4E DUP5 LT PUSH1 0xB DUP5 LT AND OR ISZERO PUSH2 0x1776 JUMPI DUP3 DUP3 EXP SWAP1 POP DUP4 DUP2 GT ISZERO PUSH2 0x1771 JUMPI PUSH2 0x1770 PUSH2 0x164B JUMP JUMPDEST JUMPDEST PUSH2 0x17A0 JUMP JUMPDEST PUSH2 0x1783 DUP5 DUP5 DUP5 PUSH1 0x1 PUSH2 0x1684 JUMP JUMPDEST SWAP3 POP SWAP1 POP DUP2 DUP5 DIV DUP2 GT ISZERO PUSH2 0x179A JUMPI PUSH2 0x1799 PUSH2 0x164B JUMP JUMPDEST JUMPDEST DUP2 DUP2 MUL SWAP1 POP JUMPDEST SWAP4 SWAP3 POP POP POP JUMP JUMPDEST PUSH0 PUSH2 0x17B1 DUP3 PUSH2 0x1367 JUMP JUMPDEST SWAP2 POP PUSH2 0x17BC DUP4 PUSH2 0x1483 JUMP JUMPDEST SWAP3 POP PUSH2 0x17E9 PUSH32 0xFFFFFFFFFFFFFFFFFFFFFFFFFFFFFFFFFFFFFFFFFFFFFFFFFFFFFFFFFFFFFFFF DUP5 DUP5 PUSH2 0x16D6 JUMP JUMPDEST SWAP1 POP SWAP3 SWAP2 POP POP JUMP JUMPDEST PUSH0 PUSH2 0x17FB DUP3 PUSH2 0x1367 JUMP JUMPDEST SWAP2 POP PUSH2 0x1806 DUP4 PUSH2 0x1367 JUMP JUMPDEST SWAP3 POP DUP3 DUP3 MUL PUSH2 0x1814 DUP2 PUSH2 0x1367 JUMP JUMPDEST SWAP2 POP DUP3 DUP3 DIV DUP5 EQ DUP4 ISZERO OR PUSH2 0x182B JUMPI PUSH2 0x182A PUSH2 0x164B JUMP JUMPDEST JUMPDEST POP SWAP3 SWAP2 POP POP JUMP JUMPDEST PUSH32 0x43616E6E6F7420726564756365206D617820737570706C792062656C6F77206D PUSH0 DUP3 ADD MSTORE PUSH32 0x696E74656420746F6B656E730000000000000000000000000000000000000000 PUSH1 0x20 DUP3 ADD MSTORE POP JUMP JUMPDEST PUSH0 PUSH2 0x188C PUSH1 0x2C DUP4 PUSH2 0x1269 JUMP JUMPDEST SWAP2 POP PUSH2 0x1897 DUP3 PUSH2 0x1832 JUMP JUMPDEST PUSH1 0x40 DUP3 ADD SWAP1 POP SWAP2 SWAP1 POP JUMP JUMPDEST PUSH0 PUSH1 0x20 DUP3 ADD SWAP1 POP DUP2 DUP2 SUB PUSH0 DUP4 ADD MSTORE PUSH2 0x18B9 DUP2 PUSH2 0x1880 JUMP JUMPDEST SWAP1 POP SWAP2 SWAP1 POP JUMP JUMPDEST PUSH32 0x4D696E74696E6720697320636C6F736564000000000000000000000000000000 PUSH0 DUP3 ADD MSTORE POP JUMP JUMPDEST PUSH0 PUSH2 0x18F4 PUSH1 0x11 DUP4 PUSH2 0x1269 JUMP JUMPDEST SWAP2 POP PUSH2 0x18FF DUP3 PUSH2 0x18C0 JUMP JUMPDEST PUSH1 0x20 DUP3 ADD SWAP1 POP SWAP2 SWAP1 POP JUMP JUMPDEST PUSH0 PUSH1 0x20 DUP3 ADD SWAP1 POP DUP2 DUP2 SUB PUSH0 DUP4 ADD MSTORE PUSH2 0x1921 DUP2 PUSH2 0x18E8 JUMP JUMPDEST SWAP1 POP SWAP2 SWAP1 POP JUMP JUMPDEST PUSH32 0x496E73756666696369656E74204554482073656E740000000000000000000000 PUSH0 DUP3 ADD MSTORE POP JUMP JUMPDEST PUSH0 PUSH2 0x195C PUSH1 0x15 DUP4 PUSH2 0x1269 JUMP JUMPDEST SWAP2 POP PUSH2 0x1967 DUP3 PUSH2 0x1928 JUMP JUMPDEST PUSH1 0x20 DUP3 ADD SWAP1 POP SWAP2 SWAP1 POP JUMP JUMPDEST PUSH0 PUSH1 0x20 DUP3 ADD SWAP1 POP DUP2 DUP2 SUB PUSH0 DUP4 ADD MSTORE PUSH2 0x1989 DUP2 PUSH2 0x1950 JUMP JUMPDEST SWAP1 POP SWAP2 SWAP1 POP JUMP JUMPDEST PUSH0 PUSH2 0x199A DUP3 PUSH2 0x1367 JUMP JUMPDEST SWAP2 POP PUSH2 0x19A5 DUP4 PUSH2 0x1367 JUMP JUMPDEST SWAP3 POP DUP3 DUP3 ADD SWAP1 POP DUP1 DUP3 GT ISZERO PUSH2 0x19BD JUMPI PUSH2 0x19BC PUSH2 0x164B JUMP JUMPDEST JUMPDEST SWAP3 SWAP2 POP POP JUMP JUMPDEST PUSH32 0x4D617820737570706C7920726561636865640000000000000000000000000000 PUSH0 DUP3 ADD MSTORE POP JUMP JUMPDEST PUSH0 PUSH2 0x19F7 PUSH1 0x12 DUP4 PUSH2 0x1269 JUMP JUMPDEST SWAP2 POP PUSH2 0x1A02 DUP3 PUSH2 0x19C3 JUMP JUMPDEST PUSH1 0x20 DUP3 ADD SWAP1 POP SWAP2 SWAP1 POP JUMP JUMPDEST PUSH0 PUSH1 0x20 DUP3 ADD SWAP1 POP DUP2 DUP2 SUB PUSH0 DUP4 ADD MSTORE PUSH2 0x1A24 DUP2 PUSH2 0x19EB JUMP JUMPDEST SWAP1 POP SWAP2 SWAP1 POP JUMP JUMPDEST PUSH32 0x4E487B7100000000000000000000000000000000000000000000000000000000 PUSH0 MSTORE PUSH1 0x12 PUSH1 0x4 MSTORE PUSH1 0x24 PUSH0 REVERT JUMPDEST PUSH0 PUSH2 0x1A62 DUP3 PUSH2 0x1367 JUMP JUMPDEST SWAP2 POP PUSH2 0x1A6D DUP4 PUSH2 0x1367 JUMP JUMPDEST SWAP3 POP DUP3 PUSH2 0x1A7D JUMPI PUSH2 0x1A7C PUSH2 0x1A2B JUMP JUMPDEST JUMPDEST DUP3 DUP3 DIV SWAP1 POP SWAP3 SWAP2 POP POP JUMP JUMPDEST PUSH0 PUSH1 0x60 DUP3 ADD SWAP1 POP PUSH2 0x1A9B PUSH0 DUP4 ADD DUP7 PUSH2 0x150D JUMP JUMPDEST PUSH2 0x1AA8 PUSH1 0x20 DUP4 ADD DUP6 PUSH2 0x140B JUMP JUMPDEST PUSH2 0x1AB5 PUSH1 0x40 DUP4 ADD DUP5 PUSH2 0x140B JUMP JUMPDEST SWAP5 SWAP4 POP POP POP POP JUMP INVALID LOG2 PUSH5 0x6970667358 0x22 SLT KECCAK256 0xF6 NUMBER LOG1 0x4A SWAP7 DUP5 0xE1 LOG1 PUSH8 0x4D6176ECE7E35B40 0xD9 MSIZE PUSH1 0x21 0xC9 SIGNEXTEND CALLCODE 0xA7 OR SHR 0xBF SWAP3 0xE5 PUSH0 0xC5 PUSH5 0x736F6C6343 STOP ADDMOD EQ STOP CALLER "
				},
				"gasEstimates": {
					"creation": {
						"codeDepositCost": "1379800",
						"executionCost": "infinite",
						"totalCost": "infinite"
					},
					"external": {
						"allowance(address,address)": "infinite",
						"approve(address,uint256)": "infinite",
						"balanceOf(address)": "2962",
						"decimals()": "361",
						"isMintingOpen()": "2556",
						"maxSupply()": "2469",
						"mintPrice()": "2492",
						"mintTokens(uint256)": "infinite",
						"name()": "infinite",
						"owner()": "2582",
						"renounceOwnership()": "infinite",
						"setMaxSupply(uint256)": "infinite",
						"setMintPrice(uint256)": "infinite",
						"symbol()": "infinite",
						"toggleMinting()": "infinite",
						"tokenDetails()": "infinite",
						"tokensMinted()": "2514",
						"totalSupply()": "2500",
						"transfer(address,uint256)": "infinite",
						"transferFrom(address,address,uint256)": "infinite",
						"transferOwnership(address)": "infinite",
						"withdraw()": "infinite"
					}
				},
				"methodIdentifiers": {
					"allowance(address,address)": "dd62ed3e",
					"approve(address,uint256)": "095ea7b3",
					"balanceOf(address)": "70a08231",
					"decimals()": "313ce567",
					"isMintingOpen()": "1a206910",
					"maxSupply()": "d5abeb01",
					"mintPrice()": "6817c76c",
					"mintTokens(uint256)": "97304ced",
					"name()": "06fdde03",
					"owner()": "8da5cb5b",
					"renounceOwnership()": "715018a6",
					"setMaxSupply(uint256)": "6f8b44b0",
					"setMintPrice(uint256)": "f4a0a528",
					"symbol()": "95d89b41",
					"toggleMinting()": "7d55094d",
					"tokenDetails()": "d6abe110",
					"tokensMinted()": "6de9f32b",
					"totalSupply()": "18160ddd",
					"transfer(address,uint256)": "a9059cbb",
					"transferFrom(address,address,uint256)": "23b872dd",
					"transferOwnership(address)": "f2fde38b",
					"withdraw()": "3ccfd60b"
				}
			},
			"storageLayout": {
				"storage": [
					{
						"astId": 307,
						"contract": "CryptoPunksReborn.sol:CustomMintToken",
						"label": "_balances",
						"offset": 0,
						"slot": "0",
						"type": "t_mapping(t_address,t_uint256)"
					},
					{
						"astId": 313,
						"contract": "CryptoPunksReborn.sol:CustomMintToken",
						"label": "_allowances",
						"offset": 0,
						"slot": "1",
						"type": "t_mapping(t_address,t_mapping(t_address,t_uint256))"
					},
					{
						"astId": 315,
						"contract": "CryptoPunksReborn.sol:CustomMintToken",
						"label": "_totalSupply",
						"offset": 0,
						"slot": "2",
						"type": "t_uint256"
					},
					{
						"astId": 317,
						"contract": "CryptoPunksReborn.sol:CustomMintToken",
						"label": "_name",
						"offset": 0,
						"slot": "3",
						"type": "t_string_storage"
					},
					{
						"astId": 319,
						"contract": "CryptoPunksReborn.sol:CustomMintToken",
						"label": "_symbol",
						"offset": 0,
						"slot": "4",
						"type": "t_string_storage"
					},
					{
						"astId": 8,
						"contract": "CryptoPunksReborn.sol:CustomMintToken",
						"label": "_owner",
						"offset": 0,
						"slot": "5",
						"type": "t_address"
					},
					{
						"astId": 944,
						"contract": "CryptoPunksReborn.sol:CustomMintToken",
						"label": "mintPrice",
						"offset": 0,
						"slot": "6",
						"type": "t_uint256"
					},
					{
						"astId": 946,
						"contract": "CryptoPunksReborn.sol:CustomMintToken",
						"label": "maxSupply",
						"offset": 0,
						"slot": "7",
						"type": "t_uint256"
					},
					{
						"astId": 949,
						"contract": "CryptoPunksReborn.sol:CustomMintToken",
						"label": "isMintingOpen",
						"offset": 0,
						"slot": "8",
						"type": "t_bool"
					},
					{
						"astId": 951,
						"contract": "CryptoPunksReborn.sol:CustomMintToken",
						"label": "tokensMinted",
						"offset": 0,
						"slot": "9",
						"type": "t_uint256"
					}
				],
				"types": {
					"t_address": {
						"encoding": "inplace",
						"label": "address",
						"numberOfBytes": "20"
					},
					"t_bool": {
						"encoding": "inplace",
						"label": "bool",
						"numberOfBytes": "1"
					},
					"t_mapping(t_address,t_mapping(t_address,t_uint256))": {
						"encoding": "mapping",
						"key": "t_address",
						"label": "mapping(address => mapping(address => uint256))",
						"numberOfBytes": "32",
						"value": "t_mapping(t_address,t_uint256)"
					},
					"t_mapping(t_address,t_uint256)": {
						"encoding": "mapping",
						"key": "t_address",
						"label": "mapping(address => uint256)",
						"numberOfBytes": "32",
						"value": "t_uint256"
					},
					"t_string_storage": {
						"encoding": "bytes",
						"label": "string",
						"numberOfBytes": "32"
					},
					"t_uint256": {
						"encoding": "inplace",
						"label": "uint256",
						"numberOfBytes": "32"
					}
				}
			},
			"userdoc": {
				"kind": "user",
				"methods": {},
				"version": 1
			}
		}
	}
}