{
	"stakbase/stakesimple.sol": {
		"SimpleETHStaking": {
			"abi": [
				{
					"inputs": [],
					"stateMutability": "nonpayable",
					"type": "constructor"
				},
				{
					"anonymous": false,
					"inputs": [
						{
							"indexed": true,
							"internalType": "address",
							"name": "user",
							"type": "address"
						},
						{
							"indexed": false,
							"internalType": "uint256",
							"name": "amount",
							"type": "uint256"
						}
					],
					"name": "Staked",
					"type": "event"
				},
				{
					"anonymous": false,
					"inputs": [
						{
							"indexed": true,
							"internalType": "address",
							"name": "user",
							"type": "address"
						},
						{
							"indexed": false,
							"internalType": "uint256",
							"name": "amount",
							"type": "uint256"
						}
					],
					"name": "Unstaked",
					"type": "event"
				},
				{
					"stateMutability": "payable",
					"type": "fallback"
				},
				{
					"inputs": [
						{
							"internalType": "address",
							"name": "",
							"type": "address"
						}
					],
					"name": "balanceOf",
					"outputs": [
						{
							"internalType": "uint256",
							"name": "",
							"type": "uint256"
						}
					],
					"stateMutability": "view",
					"type": "function"
				},
				{
					"inputs": [
						{
							"internalType": "address",
							"name": "user",
							"type": "address"
						}
					],
					"name": "getBalance",
					"outputs": [
						{
							"internalType": "uint256",
							"name": "",
							"type": "uint256"
						}
					],
					"stateMutability": "view",
					"type": "function"
				},
				{
					"inputs": [],
					"name": "stake",
					"outputs": [],
					"stateMutability": "payable",
					"type": "function"
				},
				{
					"inputs": [],
					"name": "totalStaked",
					"outputs": [
						{
							"internalType": "uint256",
							"name": "",
							"type": "uint256"
						}
					],
					"stateMutability": "view",
					"type": "function"
				},
				{
					"inputs": [
						{
							"internalType": "uint256",
							"name": "amount",
							"type": "uint256"
						}
					],
					"name": "unstake",
					"outputs": [],
					"stateMutability": "nonpayable",
					"type": "function"
				},
				{
					"inputs": [],
					"name": "weth",
					"outputs": [
						{
							"internalType": "contract IERC20",
							"name": "",
							"type": "address"
						}
					],
					"stateMutability": "view",
					"type": "function"
				},
				{
					"stateMutability": "payable",
					"type": "receive"
				}
			],
			"devdoc": {
				"kind": "dev",
				"methods": {},
				"version": 1
			},
			"evm": {
				"assembly": "    /* \"stakbase/stakesimple.sol\":477:1821  contract SimpleETHStaking {... */\n  mstore(0x40, 0xa0)\n    /* \"stakbase/stakesimple.sol\":786:838  constructor() {... */\n  callvalue\n  dup1\n  iszero\n  tag_1\n  jumpi\n  revert(0x00, 0x00)\ntag_1:\n  pop\n    /* \"stakbase/stakesimple.sol\":318:360  0x4200000000000000000000000000000000000006 */\n  0x4200000000000000000000000000000000000006\n    /* \"stakbase/stakesimple.sol\":811:830  weth = IERC20(WETH) */\n  0xffffffffffffffffffffffffffffffffffffffff\n  and\n  0x80\n  dup2\n  0xffffffffffffffffffffffffffffffffffffffff\n  and\n  dup2\n  mstore\n  pop\n  pop\n    /* \"stakbase/stakesimple.sol\":477:1821  contract SimpleETHStaking {... */\n  mload(0x80)\n  codecopy(0x00, dataOffset(sub_0), dataSize(sub_0))\n  0x00\n  assignImmutable(\"0xa27402d17b909daf1a82663f44f6dcd7eb5f66f6281434d3ee65954b76026db1\")\n  return(0x00, dataSize(sub_0))\nstop\n\nsub_0: assembly {\n        /* \"stakbase/stakesimple.sol\":477:1821  contract SimpleETHStaking {... */\n      mstore(0x40, 0x80)\n      jumpi(tag_1, lt(calldatasize, 0x04))\n      shr(0xe0, calldataload(0x00))\n      dup1\n      0x2e17de78\n      eq\n      tag_3\n      jumpi\n      dup1\n      0x3a4b66f1\n      eq\n      tag_4\n      jumpi\n      dup1\n      0x3fc8cef3\n      eq\n      tag_5\n      jumpi\n      dup1\n      0x70a08231\n      eq\n      tag_6\n      jumpi\n      dup1\n      0x817b1cd2\n      eq\n      tag_7\n      jumpi\n      dup1\n      0xf8b2cb4f\n      eq\n      tag_8\n      jumpi\n      jump(tag_2)\n    tag_1:\n      jumpi(tag_2, calldatasize)\n        /* \"stakbase/stakesimple.sol\":884:891  stake() */\n      tag_11\n        /* \"stakbase/stakesimple.sol\":884:889  stake */\n      tag_12\n        /* \"stakbase/stakesimple.sol\":884:891  stake() */\n      jump\t// in\n    tag_11:\n        /* \"stakbase/stakesimple.sol\":477:1821  contract SimpleETHStaking {... */\n      stop\n    tag_2:\n        /* \"stakbase/stakesimple.sol\":946:953  stake() */\n      tag_15\n        /* \"stakbase/stakesimple.sol\":946:951  stake */\n      tag_12\n        /* \"stakbase/stakesimple.sol\":946:953  stake() */\n      jump\t// in\n    tag_15:\n        /* \"stakbase/stakesimple.sol\":477:1821  contract SimpleETHStaking {... */\n      stop\n        /* \"stakbase/stakesimple.sol\":1246:1703  function unstake(uint256 amount) external {... */\n    tag_3:\n      callvalue\n      dup1\n      iszero\n      tag_16\n      jumpi\n      revert(0x00, 0x00)\n    tag_16:\n      pop\n      tag_17\n      0x04\n      dup1\n      calldatasize\n      sub\n      dup2\n      add\n      swap1\n      tag_18\n      swap2\n      swap1\n      tag_19\n      jump\t// in\n    tag_18:\n      tag_20\n      jump\t// in\n    tag_17:\n      stop\n        /* \"stakbase/stakesimple.sol\":969:1238  function stake() public payable {... */\n    tag_4:\n      tag_21\n      tag_12\n      jump\t// in\n    tag_21:\n      stop\n        /* \"stakbase/stakesimple.sol\":545:573  IERC20 public immutable weth */\n    tag_5:\n      callvalue\n      dup1\n      iszero\n      tag_22\n      jumpi\n      revert(0x00, 0x00)\n    tag_22:\n      pop\n      tag_23\n      tag_24\n      jump\t// in\n    tag_23:\n      mload(0x40)\n      tag_25\n      swap2\n      swap1\n      tag_26\n      jump\t// in\n    tag_25:\n      mload(0x40)\n      dup1\n      swap2\n      sub\n      swap1\n      return\n        /* \"stakbase/stakesimple.sol\":582:626  mapping(address => uint256) public balanceOf */\n    tag_6:\n      callvalue\n      dup1\n      iszero\n      tag_27\n      jumpi\n      revert(0x00, 0x00)\n    tag_27:\n      pop\n      tag_28\n      0x04\n      dup1\n      calldatasize\n      sub\n      dup2\n      add\n      swap1\n      tag_29\n      swap2\n      swap1\n      tag_30\n      jump\t// in\n    tag_29:\n      tag_31\n      jump\t// in\n    tag_28:\n      mload(0x40)\n      tag_32\n      swap2\n      swap1\n      tag_33\n      jump\t// in\n    tag_32:\n      mload(0x40)\n      dup1\n      swap2\n      sub\n      swap1\n      return\n        /* \"stakbase/stakesimple.sol\":633:659  uint256 public totalStaked */\n    tag_7:\n      callvalue\n      dup1\n      iszero\n      tag_34\n      jumpi\n      revert(0x00, 0x00)\n    tag_34:\n      pop\n      tag_35\n      tag_36\n      jump\t// in\n    tag_35:\n      mload(0x40)\n      tag_37\n      swap2\n      swap1\n      tag_33\n      jump\t// in\n    tag_37:\n      mload(0x40)\n      dup1\n      swap2\n      sub\n      swap1\n      return\n        /* \"stakbase/stakesimple.sol\":1711:1818  function getBalance(address user) external view returns (uint256) {... */\n    tag_8:\n      callvalue\n      dup1\n      iszero\n      tag_38\n      jumpi\n      revert(0x00, 0x00)\n    tag_38:\n      pop\n      tag_39\n      0x04\n      dup1\n      calldatasize\n      sub\n      dup2\n      add\n      swap1\n      tag_40\n      swap2\n      swap1\n      tag_30\n      jump\t// in\n    tag_40:\n      tag_41\n      jump\t// in\n    tag_39:\n      mload(0x40)\n      tag_42\n      swap2\n      swap1\n      tag_33\n      jump\t// in\n    tag_42:\n      mload(0x40)\n      dup1\n      swap2\n      sub\n      swap1\n      return\n        /* \"stakbase/stakesimple.sol\":969:1238  function stake() public payable {... */\n    tag_12:\n        /* \"stakbase/stakesimple.sol\":1032:1033  0 */\n      0x00\n        /* \"stakbase/stakesimple.sol\":1020:1029  msg.value */\n      callvalue\n        /* \"stakbase/stakesimple.sol\":1020:1033  msg.value > 0 */\n      gt\n        /* \"stakbase/stakesimple.sol\":1012:1049  require(msg.value > 0, \"No ETH sent\") */\n      tag_44\n      jumpi\n      mload(0x40)\n      0x08c379a000000000000000000000000000000000000000000000000000000000\n      dup2\n      mstore\n      0x04\n      add\n      tag_45\n      swap1\n      tag_46\n      jump\t// in\n    tag_45:\n      mload(0x40)\n      dup1\n      swap2\n      sub\n      swap1\n      revert\n    tag_44:\n        /* \"stakbase/stakesimple.sol\":318:360  0x4200000000000000000000000000000000000006 */\n      0x4200000000000000000000000000000000000006\n        /* \"stakbase/stakesimple.sol\":1062:1081  IWETH(WETH).deposit */\n      0xffffffffffffffffffffffffffffffffffffffff\n      and\n      0xd0e30db0\n        /* \"stakbase/stakesimple.sol\":1089:1098  msg.value */\n      callvalue\n        /* \"stakbase/stakesimple.sol\":1062:1101  IWETH(WETH).deposit{value: msg.value}() */\n      mload(0x40)\n      dup3\n      0xffffffff\n      and\n      0xe0\n      shl\n      dup2\n      mstore\n      0x04\n      add\n      0x00\n      mload(0x40)\n      dup1\n      dup4\n      sub\n      dup2\n      dup6\n      dup9\n      dup1\n      extcodesize\n      iszero\n      dup1\n      iszero\n      tag_47\n      jumpi\n      revert(0x00, 0x00)\n    tag_47:\n      pop\n      gas\n      call\n      iszero\n      dup1\n      iszero\n      tag_49\n      jumpi\n      returndatacopy(0x00, 0x00, returndatasize)\n      revert(0x00, returndatasize)\n    tag_49:\n      pop\n      pop\n      pop\n      pop\n      pop\n        /* \"stakbase/stakesimple.sol\":1139:1148  msg.value */\n      callvalue\n        /* \"stakbase/stakesimple.sol\":1114:1123  balanceOf */\n      0x00\n        /* \"stakbase/stakesimple.sol\":1114:1135  balanceOf[msg.sender] */\n      0x00\n        /* \"stakbase/stakesimple.sol\":1124:1134  msg.sender */\n      caller\n        /* \"stakbase/stakesimple.sol\":1114:1135  balanceOf[msg.sender] */\n      0xffffffffffffffffffffffffffffffffffffffff\n      and\n      0xffffffffffffffffffffffffffffffffffffffff\n      and\n      dup2\n      mstore\n      0x20\n      add\n      swap1\n      dup2\n      mstore\n      0x20\n      add\n      0x00\n      keccak256\n      0x00\n        /* \"stakbase/stakesimple.sol\":1114:1148  balanceOf[msg.sender] += msg.value */\n      dup3\n      dup3\n      sload\n      tag_50\n      swap2\n      swap1\n      tag_51\n      jump\t// in\n    tag_50:\n      swap3\n      pop\n      pop\n      dup2\n      swap1\n      sstore\n      pop\n        /* \"stakbase/stakesimple.sol\":1174:1183  msg.value */\n      callvalue\n        /* \"stakbase/stakesimple.sol\":1159:1170  totalStaked */\n      0x01\n      0x00\n        /* \"stakbase/stakesimple.sol\":1159:1183  totalStaked += msg.value */\n      dup3\n      dup3\n      sload\n      tag_52\n      swap2\n      swap1\n      tag_51\n      jump\t// in\n    tag_52:\n      swap3\n      pop\n      pop\n      dup2\n      swap1\n      sstore\n      pop\n        /* \"stakbase/stakesimple.sol\":1208:1218  msg.sender */\n      caller\n        /* \"stakbase/stakesimple.sol\":1201:1230  Staked(msg.sender, msg.value) */\n      0xffffffffffffffffffffffffffffffffffffffff\n      and\n      0x9e71bc8eea02a63969f509818f2dafb9254532904319f9dbda79b67bd34a5f3d\n        /* \"stakbase/stakesimple.sol\":1220:1229  msg.value */\n      callvalue\n        /* \"stakbase/stakesimple.sol\":1201:1230  Staked(msg.sender, msg.value) */\n      mload(0x40)\n      tag_53\n      swap2\n      swap1\n      tag_33\n      jump\t// in\n    tag_53:\n      mload(0x40)\n      dup1\n      swap2\n      sub\n      swap1\n      log2\n        /* \"stakbase/stakesimple.sol\":969:1238  function stake() public payable {... */\n      jump\t// out\n        /* \"stakbase/stakesimple.sol\":1246:1703  function unstake(uint256 amount) external {... */\n    tag_20:\n        /* \"stakbase/stakesimple.sol\":1316:1317  0 */\n      0x00\n        /* \"stakbase/stakesimple.sol\":1307:1313  amount */\n      dup2\n        /* \"stakbase/stakesimple.sol\":1307:1317  amount > 0 */\n      gt\n        /* \"stakbase/stakesimple.sol\":1299:1332  require(amount > 0, \"Amount > 0\") */\n      tag_55\n      jumpi\n      mload(0x40)\n      0x08c379a000000000000000000000000000000000000000000000000000000000\n      dup2\n      mstore\n      0x04\n      add\n      tag_56\n      swap1\n      tag_57\n      jump\t// in\n    tag_56:\n      mload(0x40)\n      dup1\n      swap2\n      sub\n      swap1\n      revert\n    tag_55:\n        /* \"stakbase/stakesimple.sol\":1376:1382  amount */\n      dup1\n        /* \"stakbase/stakesimple.sol\":1351:1360  balanceOf */\n      0x00\n        /* \"stakbase/stakesimple.sol\":1351:1372  balanceOf[msg.sender] */\n      0x00\n        /* \"stakbase/stakesimple.sol\":1361:1371  msg.sender */\n      caller\n        /* \"stakbase/stakesimple.sol\":1351:1372  balanceOf[msg.sender] */\n      0xffffffffffffffffffffffffffffffffffffffff\n      and\n      0xffffffffffffffffffffffffffffffffffffffff\n      and\n      dup2\n      mstore\n      0x20\n      add\n      swap1\n      dup2\n      mstore\n      0x20\n      add\n      0x00\n      keccak256\n      sload\n        /* \"stakbase/stakesimple.sol\":1351:1382  balanceOf[msg.sender] >= amount */\n      lt\n      iszero\n        /* \"stakbase/stakesimple.sol\":1343:1407  require(balanceOf[msg.sender] >= amount, \"Insufficient balance\") */\n      tag_58\n      jumpi\n      mload(0x40)\n      0x08c379a000000000000000000000000000000000000000000000000000000000\n      dup2\n      mstore\n      0x04\n      add\n      tag_59\n      swap1\n      tag_60\n      jump\t// in\n    tag_59:\n      mload(0x40)\n      dup1\n      swap2\n      sub\n      swap1\n      revert\n    tag_58:\n        /* \"stakbase/stakesimple.sol\":1445:1451  amount */\n      dup1\n        /* \"stakbase/stakesimple.sol\":1420:1429  balanceOf */\n      0x00\n        /* \"stakbase/stakesimple.sol\":1420:1441  balanceOf[msg.sender] */\n      0x00\n        /* \"stakbase/stakesimple.sol\":1430:1440  msg.sender */\n      caller\n        /* \"stakbase/stakesimple.sol\":1420:1441  balanceOf[msg.sender] */\n      0xffffffffffffffffffffffffffffffffffffffff\n      and\n      0xffffffffffffffffffffffffffffffffffffffff\n      and\n      dup2\n      mstore\n      0x20\n      add\n      swap1\n      dup2\n      mstore\n      0x20\n      add\n      0x00\n      keccak256\n      0x00\n        /* \"stakbase/stakesimple.sol\":1420:1451  balanceOf[msg.sender] -= amount */\n      dup3\n      dup3\n      sload\n      tag_61\n      swap2\n      swap1\n      tag_62\n      jump\t// in\n    tag_61:\n      swap3\n      pop\n      pop\n      dup2\n      swap1\n      sstore\n      pop\n        /* \"stakbase/stakesimple.sol\":1477:1483  amount */\n      dup1\n        /* \"stakbase/stakesimple.sol\":1462:1473  totalStaked */\n      0x01\n      0x00\n        /* \"stakbase/stakesimple.sol\":1462:1483  totalStaked -= amount */\n      dup3\n      dup3\n      sload\n      tag_63\n      swap2\n      swap1\n      tag_62\n      jump\t// in\n    tag_63:\n      swap3\n      pop\n      pop\n      dup2\n      swap1\n      sstore\n      pop\n        /* \"stakbase/stakesimple.sol\":318:360  0x4200000000000000000000000000000000000006 */\n      0x4200000000000000000000000000000000000006\n        /* \"stakbase/stakesimple.sol\":1496:1516  IWETH(WETH).withdraw */\n      0xffffffffffffffffffffffffffffffffffffffff\n      and\n      0x2e1a7d4d\n        /* \"stakbase/stakesimple.sol\":1517:1523  amount */\n      dup3\n        /* \"stakbase/stakesimple.sol\":1496:1524  IWETH(WETH).withdraw(amount) */\n      mload(0x40)\n      dup3\n      0xffffffff\n      and\n      0xe0\n      shl\n      dup2\n      mstore\n      0x04\n      add\n      tag_64\n      swap2\n      swap1\n      tag_33\n      jump\t// in\n    tag_64:\n      0x00\n      mload(0x40)\n      dup1\n      dup4\n      sub\n      dup2\n      0x00\n      dup8\n      dup1\n      extcodesize\n      iszero\n      dup1\n      iszero\n      tag_65\n      jumpi\n      revert(0x00, 0x00)\n    tag_65:\n      pop\n      gas\n      call\n      iszero\n      dup1\n      iszero\n      tag_67\n      jumpi\n      returndatacopy(0x00, 0x00, returndatasize)\n      revert(0x00, returndatasize)\n    tag_67:\n      pop\n      pop\n      pop\n      pop\n        /* \"stakbase/stakesimple.sol\":1538:1550  bool success */\n      0x00\n        /* \"stakbase/stakesimple.sol\":1564:1574  msg.sender */\n      caller\n        /* \"stakbase/stakesimple.sol\":1556:1580  payable(msg.sender).call */\n      0xffffffffffffffffffffffffffffffffffffffff\n      and\n        /* \"stakbase/stakesimple.sol\":1588:1594  amount */\n      dup3\n        /* \"stakbase/stakesimple.sol\":1556:1599  payable(msg.sender).call{value: amount}(\"\") */\n      mload(0x40)\n      tag_68\n      swap1\n      tag_69\n      jump\t// in\n    tag_68:\n      0x00\n      mload(0x40)\n      dup1\n      dup4\n      sub\n      dup2\n      dup6\n      dup8\n      gas\n      call\n      swap3\n      pop\n      pop\n      pop\n      returndatasize\n      dup1\n      0x00\n      dup2\n      eq\n      tag_72\n      jumpi\n      mload(0x40)\n      swap2\n      pop\n      and(add(returndatasize, 0x3f), not(0x1f))\n      dup3\n      add\n      0x40\n      mstore\n      returndatasize\n      dup3\n      mstore\n      returndatasize\n      0x00\n      0x20\n      dup5\n      add\n      returndatacopy\n      jump(tag_71)\n    tag_72:\n      0x60\n      swap2\n      pop\n    tag_71:\n      pop\n        /* \"stakbase/stakesimple.sol\":1537:1599  (bool success, ) = payable(msg.sender).call{value: amount}(\"\") */\n      pop\n      swap1\n      pop\n        /* \"stakbase/stakesimple.sol\":1618:1625  success */\n      dup1\n        /* \"stakbase/stakesimple.sol\":1610:1649  require(success, \"ETH transfer failed\") */\n      tag_73\n      jumpi\n      mload(0x40)\n      0x08c379a000000000000000000000000000000000000000000000000000000000\n      dup2\n      mstore\n      0x04\n      add\n      tag_74\n      swap1\n      tag_75\n      jump\t// in\n    tag_74:\n      mload(0x40)\n      dup1\n      swap2\n      sub\n      swap1\n      revert\n    tag_73:\n        /* \"stakbase/stakesimple.sol\":1676:1686  msg.sender */\n      caller\n        /* \"stakbase/stakesimple.sol\":1667:1695  Unstaked(msg.sender, amount) */\n      0xffffffffffffffffffffffffffffffffffffffff\n      and\n      0x0f5bb82176feb1b5e747e28471aa92156a04d9f3ab9f45f28e2d704232b93f75\n        /* \"stakbase/stakesimple.sol\":1688:1694  amount */\n      dup4\n        /* \"stakbase/stakesimple.sol\":1667:1695  Unstaked(msg.sender, amount) */\n      mload(0x40)\n      tag_76\n      swap2\n      swap1\n      tag_33\n      jump\t// in\n    tag_76:\n      mload(0x40)\n      dup1\n      swap2\n      sub\n      swap1\n      log2\n        /* \"stakbase/stakesimple.sol\":1288:1703  {... */\n      pop\n        /* \"stakbase/stakesimple.sol\":1246:1703  function unstake(uint256 amount) external {... */\n      pop\n      jump\t// out\n        /* \"stakbase/stakesimple.sol\":545:573  IERC20 public immutable weth */\n    tag_24:\n      immutable(\"0xa27402d17b909daf1a82663f44f6dcd7eb5f66f6281434d3ee65954b76026db1\")\n      dup2\n      jump\t// out\n        /* \"stakbase/stakesimple.sol\":582:626  mapping(address => uint256) public balanceOf */\n    tag_31:\n      mstore(0x20, 0x00)\n      dup1\n      0x00\n      mstore\n      keccak256(0x00, 0x40)\n      0x00\n      swap2\n      pop\n      swap1\n      pop\n      sload\n      dup2\n      jump\t// out\n        /* \"stakbase/stakesimple.sol\":633:659  uint256 public totalStaked */\n    tag_36:\n      sload(0x01)\n      dup2\n      jump\t// out\n        /* \"stakbase/stakesimple.sol\":1711:1818  function getBalance(address user) external view returns (uint256) {... */\n    tag_41:\n        /* \"stakbase/stakesimple.sol\":1768:1775  uint256 */\n      0x00\n        /* \"stakbase/stakesimple.sol\":1795:1804  balanceOf */\n      0x00\n        /* \"stakbase/stakesimple.sol\":1795:1810  balanceOf[user] */\n      0x00\n        /* \"stakbase/stakesimple.sol\":1805:1809  user */\n      dup4\n        /* \"stakbase/stakesimple.sol\":1795:1810  balanceOf[user] */\n      0xffffffffffffffffffffffffffffffffffffffff\n      and\n      0xffffffffffffffffffffffffffffffffffffffff\n      and\n      dup2\n      mstore\n      0x20\n      add\n      swap1\n      dup2\n      mstore\n      0x20\n      add\n      0x00\n      keccak256\n      sload\n        /* \"stakbase/stakesimple.sol\":1788:1810  return balanceOf[user] */\n      swap1\n      pop\n        /* \"stakbase/stakesimple.sol\":1711:1818  function getBalance(address user) external view returns (uint256) {... */\n      swap2\n      swap1\n      pop\n      jump\t// out\n        /* \"#utility.yul\":88:205   */\n    tag_79:\n        /* \"#utility.yul\":197:198   */\n      0x00\n        /* \"#utility.yul\":194:195   */\n      0x00\n        /* \"#utility.yul\":187:199   */\n      revert\n        /* \"#utility.yul\":334:411   */\n    tag_81:\n        /* \"#utility.yul\":371:378   */\n      0x00\n        /* \"#utility.yul\":400:405   */\n      dup2\n        /* \"#utility.yul\":389:405   */\n      swap1\n      pop\n        /* \"#utility.yul\":334:411   */\n      swap2\n      swap1\n      pop\n      jump\t// out\n        /* \"#utility.yul\":417:539   */\n    tag_82:\n        /* \"#utility.yul\":490:514   */\n      tag_113\n        /* \"#utility.yul\":508:513   */\n      dup2\n        /* \"#utility.yul\":490:514   */\n      tag_81\n      jump\t// in\n    tag_113:\n        /* \"#utility.yul\":483:488   */\n      dup2\n        /* \"#utility.yul\":480:515   */\n      eq\n        /* \"#utility.yul\":470:533   */\n      tag_114\n      jumpi\n        /* \"#utility.yul\":529:530   */\n      0x00\n        /* \"#utility.yul\":526:527   */\n      0x00\n        /* \"#utility.yul\":519:531   */\n      revert\n        /* \"#utility.yul\":470:533   */\n    tag_114:\n        /* \"#utility.yul\":417:539   */\n      pop\n      jump\t// out\n        /* \"#utility.yul\":545:684   */\n    tag_83:\n        /* \"#utility.yul\":591:596   */\n      0x00\n        /* \"#utility.yul\":629:635   */\n      dup2\n        /* \"#utility.yul\":616:636   */\n      calldataload\n        /* \"#utility.yul\":607:636   */\n      swap1\n      pop\n        /* \"#utility.yul\":645:678   */\n      tag_116\n        /* \"#utility.yul\":672:677   */\n      dup2\n        /* \"#utility.yul\":645:678   */\n      tag_82\n      jump\t// in\n    tag_116:\n        /* \"#utility.yul\":545:684   */\n      swap3\n      swap2\n      pop\n      pop\n      jump\t// out\n        /* \"#utility.yul\":690:1019   */\n    tag_19:\n        /* \"#utility.yul\":749:755   */\n      0x00\n        /* \"#utility.yul\":798:800   */\n      0x20\n        /* \"#utility.yul\":786:795   */\n      dup3\n        /* \"#utility.yul\":777:784   */\n      dup5\n        /* \"#utility.yul\":773:796   */\n      sub\n        /* \"#utility.yul\":769:801   */\n      slt\n        /* \"#utility.yul\":766:885   */\n      iszero\n      tag_118\n      jumpi\n        /* \"#utility.yul\":804:883   */\n      tag_119\n      tag_79\n      jump\t// in\n    tag_119:\n        /* \"#utility.yul\":766:885   */\n    tag_118:\n        /* \"#utility.yul\":924:925   */\n      0x00\n        /* \"#utility.yul\":949:1002   */\n      tag_120\n        /* \"#utility.yul\":994:1001   */\n      dup5\n        /* \"#utility.yul\":985:991   */\n      dup3\n        /* \"#utility.yul\":974:983   */\n      dup6\n        /* \"#utility.yul\":970:992   */\n      add\n        /* \"#utility.yul\":949:1002   */\n      tag_83\n      jump\t// in\n    tag_120:\n        /* \"#utility.yul\":939:1002   */\n      swap2\n      pop\n        /* \"#utility.yul\":895:1012   */\n      pop\n        /* \"#utility.yul\":690:1019   */\n      swap3\n      swap2\n      pop\n      pop\n      jump\t// out\n        /* \"#utility.yul\":1025:1151   */\n    tag_84:\n        /* \"#utility.yul\":1062:1069   */\n      0x00\n        /* \"#utility.yul\":1102:1144   */\n      0xffffffffffffffffffffffffffffffffffffffff\n        /* \"#utility.yul\":1095:1100   */\n      dup3\n        /* \"#utility.yul\":1091:1145   */\n      and\n        /* \"#utility.yul\":1080:1145   */\n      swap1\n      pop\n        /* \"#utility.yul\":1025:1151   */\n      swap2\n      swap1\n      pop\n      jump\t// out\n        /* \"#utility.yul\":1157:1217   */\n    tag_85:\n        /* \"#utility.yul\":1185:1188   */\n      0x00\n        /* \"#utility.yul\":1206:1211   */\n      dup2\n        /* \"#utility.yul\":1199:1211   */\n      swap1\n      pop\n        /* \"#utility.yul\":1157:1217   */\n      swap2\n      swap1\n      pop\n      jump\t// out\n        /* \"#utility.yul\":1223:1365   */\n    tag_86:\n        /* \"#utility.yul\":1273:1282   */\n      0x00\n        /* \"#utility.yul\":1306:1359   */\n      tag_124\n        /* \"#utility.yul\":1324:1358   */\n      tag_125\n        /* \"#utility.yul\":1333:1357   */\n      tag_126\n        /* \"#utility.yul\":1351:1356   */\n      dup5\n        /* \"#utility.yul\":1333:1357   */\n      tag_84\n      jump\t// in\n    tag_126:\n        /* \"#utility.yul\":1324:1358   */\n      tag_85\n      jump\t// in\n    tag_125:\n        /* \"#utility.yul\":1306:1359   */\n      tag_84\n      jump\t// in\n    tag_124:\n        /* \"#utility.yul\":1293:1359   */\n      swap1\n      pop\n        /* \"#utility.yul\":1223:1365   */\n      swap2\n      swap1\n      pop\n      jump\t// out\n        /* \"#utility.yul\":1371:1497   */\n    tag_87:\n        /* \"#utility.yul\":1421:1430   */\n      0x00\n        /* \"#utility.yul\":1454:1491   */\n      tag_128\n        /* \"#utility.yul\":1485:1490   */\n      dup3\n        /* \"#utility.yul\":1454:1491   */\n      tag_86\n      jump\t// in\n    tag_128:\n        /* \"#utility.yul\":1441:1491   */\n      swap1\n      pop\n        /* \"#utility.yul\":1371:1497   */\n      swap2\n      swap1\n      pop\n      jump\t// out\n        /* \"#utility.yul\":1503:1642   */\n    tag_88:\n        /* \"#utility.yul\":1566:1575   */\n      0x00\n        /* \"#utility.yul\":1599:1636   */\n      tag_130\n        /* \"#utility.yul\":1630:1635   */\n      dup3\n        /* \"#utility.yul\":1599:1636   */\n      tag_87\n      jump\t// in\n    tag_130:\n        /* \"#utility.yul\":1586:1636   */\n      swap1\n      pop\n        /* \"#utility.yul\":1503:1642   */\n      swap2\n      swap1\n      pop\n      jump\t// out\n        /* \"#utility.yul\":1648:1805   */\n    tag_89:\n        /* \"#utility.yul\":1748:1798   */\n      tag_132\n        /* \"#utility.yul\":1792:1797   */\n      dup2\n        /* \"#utility.yul\":1748:1798   */\n      tag_88\n      jump\t// in\n    tag_132:\n        /* \"#utility.yul\":1743:1746   */\n      dup3\n        /* \"#utility.yul\":1736:1799   */\n      mstore\n        /* \"#utility.yul\":1648:1805   */\n      pop\n      pop\n      jump\t// out\n        /* \"#utility.yul\":1811:2059   */\n    tag_26:\n        /* \"#utility.yul\":1917:1921   */\n      0x00\n        /* \"#utility.yul\":1955:1957   */\n      0x20\n        /* \"#utility.yul\":1944:1953   */\n      dup3\n        /* \"#utility.yul\":1940:1958   */\n      add\n        /* \"#utility.yul\":1932:1958   */\n      swap1\n      pop\n        /* \"#utility.yul\":1968:2052   */\n      tag_134\n        /* \"#utility.yul\":2049:2050   */\n      0x00\n        /* \"#utility.yul\":2038:2047   */\n      dup4\n        /* \"#utility.yul\":2034:2051   */\n      add\n        /* \"#utility.yul\":2025:2031   */\n      dup5\n        /* \"#utility.yul\":1968:2052   */\n      tag_89\n      jump\t// in\n    tag_134:\n        /* \"#utility.yul\":1811:2059   */\n      swap3\n      swap2\n      pop\n      pop\n      jump\t// out\n        /* \"#utility.yul\":2065:2161   */\n    tag_90:\n        /* \"#utility.yul\":2102:2109   */\n      0x00\n        /* \"#utility.yul\":2131:2155   */\n      tag_136\n        /* \"#utility.yul\":2149:2154   */\n      dup3\n        /* \"#utility.yul\":2131:2155   */\n      tag_84\n      jump\t// in\n    tag_136:\n        /* \"#utility.yul\":2120:2155   */\n      swap1\n      pop\n        /* \"#utility.yul\":2065:2161   */\n      swap2\n      swap1\n      pop\n      jump\t// out\n        /* \"#utility.yul\":2167:2289   */\n    tag_91:\n        /* \"#utility.yul\":2240:2264   */\n      tag_138\n        /* \"#utility.yul\":2258:2263   */\n      dup2\n        /* \"#utility.yul\":2240:2264   */\n      tag_90\n      jump\t// in\n    tag_138:\n        /* \"#utility.yul\":2233:2238   */\n      dup2\n        /* \"#utility.yul\":2230:2265   */\n      eq\n        /* \"#utility.yul\":2220:2283   */\n      tag_139\n      jumpi\n        /* \"#utility.yul\":2279:2280   */\n      0x00\n        /* \"#utility.yul\":2276:2277   */\n      0x00\n        /* \"#utility.yul\":2269:2281   */\n      revert\n        /* \"#utility.yul\":2220:2283   */\n    tag_139:\n        /* \"#utility.yul\":2167:2289   */\n      pop\n      jump\t// out\n        /* \"#utility.yul\":2295:2434   */\n    tag_92:\n        /* \"#utility.yul\":2341:2346   */\n      0x00\n        /* \"#utility.yul\":2379:2385   */\n      dup2\n        /* \"#utility.yul\":2366:2386   */\n      calldataload\n        /* \"#utility.yul\":2357:2386   */\n      swap1\n      pop\n        /* \"#utility.yul\":2395:2428   */\n      tag_141\n        /* \"#utility.yul\":2422:2427   */\n      dup2\n        /* \"#utility.yul\":2395:2428   */\n      tag_91\n      jump\t// in\n    tag_141:\n        /* \"#utility.yul\":2295:2434   */\n      swap3\n      swap2\n      pop\n      pop\n      jump\t// out\n        /* \"#utility.yul\":2440:2769   */\n    tag_30:\n        /* \"#utility.yul\":2499:2505   */\n      0x00\n        /* \"#utility.yul\":2548:2550   */\n      0x20\n        /* \"#utility.yul\":2536:2545   */\n      dup3\n        /* \"#utility.yul\":2527:2534   */\n      dup5\n        /* \"#utility.yul\":2523:2546   */\n      sub\n        /* \"#utility.yul\":2519:2551   */\n      slt\n        /* \"#utility.yul\":2516:2635   */\n      iszero\n      tag_143\n      jumpi\n        /* \"#utility.yul\":2554:2633   */\n      tag_144\n      tag_79\n      jump\t// in\n    tag_144:\n        /* \"#utility.yul\":2516:2635   */\n    tag_143:\n        /* \"#utility.yul\":2674:2675   */\n      0x00\n        /* \"#utility.yul\":2699:2752   */\n      tag_145\n        /* \"#utility.yul\":2744:2751   */\n      dup5\n        /* \"#utility.yul\":2735:2741   */\n      dup3\n        /* \"#utility.yul\":2724:2733   */\n      dup6\n        /* \"#utility.yul\":2720:2742   */\n      add\n        /* \"#utility.yul\":2699:2752   */\n      tag_92\n      jump\t// in\n    tag_145:\n        /* \"#utility.yul\":2689:2752   */\n      swap2\n      pop\n        /* \"#utility.yul\":2645:2762   */\n      pop\n        /* \"#utility.yul\":2440:2769   */\n      swap3\n      swap2\n      pop\n      pop\n      jump\t// out\n        /* \"#utility.yul\":2775:2893   */\n    tag_93:\n        /* \"#utility.yul\":2862:2886   */\n      tag_147\n        /* \"#utility.yul\":2880:2885   */\n      dup2\n        /* \"#utility.yul\":2862:2886   */\n      tag_81\n      jump\t// in\n    tag_147:\n        /* \"#utility.yul\":2857:2860   */\n      dup3\n        /* \"#utility.yul\":2850:2887   */\n      mstore\n        /* \"#utility.yul\":2775:2893   */\n      pop\n      pop\n      jump\t// out\n        /* \"#utility.yul\":2899:3121   */\n    tag_33:\n        /* \"#utility.yul\":2992:2996   */\n      0x00\n        /* \"#utility.yul\":3030:3032   */\n      0x20\n        /* \"#utility.yul\":3019:3028   */\n      dup3\n        /* \"#utility.yul\":3015:3033   */\n      add\n        /* \"#utility.yul\":3007:3033   */\n      swap1\n      pop\n        /* \"#utility.yul\":3043:3114   */\n      tag_149\n        /* \"#utility.yul\":3111:3112   */\n      0x00\n        /* \"#utility.yul\":3100:3109   */\n      dup4\n        /* \"#utility.yul\":3096:3113   */\n      add\n        /* \"#utility.yul\":3087:3093   */\n      dup5\n        /* \"#utility.yul\":3043:3114   */\n      tag_93\n      jump\t// in\n    tag_149:\n        /* \"#utility.yul\":2899:3121   */\n      swap3\n      swap2\n      pop\n      pop\n      jump\t// out\n        /* \"#utility.yul\":3127:3296   */\n    tag_94:\n        /* \"#utility.yul\":3211:3222   */\n      0x00\n        /* \"#utility.yul\":3245:3251   */\n      dup3\n        /* \"#utility.yul\":3240:3243   */\n      dup3\n        /* \"#utility.yul\":3233:3252   */\n      mstore\n        /* \"#utility.yul\":3285:3289   */\n      0x20\n        /* \"#utility.yul\":3280:3283   */\n      dup3\n        /* \"#utility.yul\":3276:3290   */\n      add\n        /* \"#utility.yul\":3261:3290   */\n      swap1\n      pop\n        /* \"#utility.yul\":3127:3296   */\n      swap3\n      swap2\n      pop\n      pop\n      jump\t// out\n        /* \"#utility.yul\":3302:3463   */\n    tag_95:\n        /* \"#utility.yul\":3442:3455   */\n      0x4e6f204554482073656e74000000000000000000000000000000000000000000\n        /* \"#utility.yul\":3438:3439   */\n      0x00\n        /* \"#utility.yul\":3430:3436   */\n      dup3\n        /* \"#utility.yul\":3426:3440   */\n      add\n        /* \"#utility.yul\":3419:3456   */\n      mstore\n        /* \"#utility.yul\":3302:3463   */\n      pop\n      jump\t// out\n        /* \"#utility.yul\":3469:3835   */\n    tag_96:\n        /* \"#utility.yul\":3611:3614   */\n      0x00\n        /* \"#utility.yul\":3632:3699   */\n      tag_153\n        /* \"#utility.yul\":3696:3698   */\n      0x0b\n        /* \"#utility.yul\":3691:3694   */\n      dup4\n        /* \"#utility.yul\":3632:3699   */\n      tag_94\n      jump\t// in\n    tag_153:\n        /* \"#utility.yul\":3625:3699   */\n      swap2\n      pop\n        /* \"#utility.yul\":3708:3801   */\n      tag_154\n        /* \"#utility.yul\":3797:3800   */\n      dup3\n        /* \"#utility.yul\":3708:3801   */\n      tag_95\n      jump\t// in\n    tag_154:\n        /* \"#utility.yul\":3826:3828   */\n      0x20\n        /* \"#utility.yul\":3821:3824   */\n      dup3\n        /* \"#utility.yul\":3817:3829   */\n      add\n        /* \"#utility.yul\":3810:3829   */\n      swap1\n      pop\n        /* \"#utility.yul\":3469:3835   */\n      swap2\n      swap1\n      pop\n      jump\t// out\n        /* \"#utility.yul\":3841:4260   */\n    tag_46:\n        /* \"#utility.yul\":4007:4011   */\n      0x00\n        /* \"#utility.yul\":4045:4047   */\n      0x20\n        /* \"#utility.yul\":4034:4043   */\n      dup3\n        /* \"#utility.yul\":4030:4048   */\n      add\n        /* \"#utility.yul\":4022:4048   */\n      swap1\n      pop\n        /* \"#utility.yul\":4094:4103   */\n      dup2\n        /* \"#utility.yul\":4088:4092   */\n      dup2\n        /* \"#utility.yul\":4084:4104   */\n      sub\n        /* \"#utility.yul\":4080:4081   */\n      0x00\n        /* \"#utility.yul\":4069:4078   */\n      dup4\n        /* \"#utility.yul\":4065:4082   */\n      add\n        /* \"#utility.yul\":4058:4105   */\n      mstore\n        /* \"#utility.yul\":4122:4253   */\n      tag_156\n        /* \"#utility.yul\":4248:4252   */\n      dup2\n        /* \"#utility.yul\":4122:4253   */\n      tag_96\n      jump\t// in\n    tag_156:\n        /* \"#utility.yul\":4114:4253   */\n      swap1\n      pop\n        /* \"#utility.yul\":3841:4260   */\n      swap2\n      swap1\n      pop\n      jump\t// out\n        /* \"#utility.yul\":4266:4446   */\n    tag_97:\n        /* \"#utility.yul\":4314:4391   */\n      0x4e487b7100000000000000000000000000000000000000000000000000000000\n        /* \"#utility.yul\":4311:4312   */\n      0x00\n        /* \"#utility.yul\":4304:4392   */\n      mstore\n        /* \"#utility.yul\":4411:4415   */\n      0x11\n        /* \"#utility.yul\":4408:4409   */\n      0x04\n        /* \"#utility.yul\":4401:4416   */\n      mstore\n        /* \"#utility.yul\":4435:4439   */\n      0x24\n        /* \"#utility.yul\":4432:4433   */\n      0x00\n        /* \"#utility.yul\":4425:4440   */\n      revert\n        /* \"#utility.yul\":4452:4643   */\n    tag_51:\n        /* \"#utility.yul\":4492:4495   */\n      0x00\n        /* \"#utility.yul\":4511:4531   */\n      tag_159\n        /* \"#utility.yul\":4529:4530   */\n      dup3\n        /* \"#utility.yul\":4511:4531   */\n      tag_81\n      jump\t// in\n    tag_159:\n        /* \"#utility.yul\":4506:4531   */\n      swap2\n      pop\n        /* \"#utility.yul\":4545:4565   */\n      tag_160\n        /* \"#utility.yul\":4563:4564   */\n      dup4\n        /* \"#utility.yul\":4545:4565   */\n      tag_81\n      jump\t// in\n    tag_160:\n        /* \"#utility.yul\":4540:4565   */\n      swap3\n      pop\n        /* \"#utility.yul\":4588:4589   */\n      dup3\n        /* \"#utility.yul\":4585:4586   */\n      dup3\n        /* \"#utility.yul\":4581:4590   */\n      add\n        /* \"#utility.yul\":4574:4590   */\n      swap1\n      pop\n        /* \"#utility.yul\":4609:4612   */\n      dup1\n        /* \"#utility.yul\":4606:4607   */\n      dup3\n        /* \"#utility.yul\":4603:4613   */\n      gt\n        /* \"#utility.yul\":4600:4636   */\n      iszero\n      tag_161\n      jumpi\n        /* \"#utility.yul\":4616:4634   */\n      tag_162\n      tag_97\n      jump\t// in\n    tag_162:\n        /* \"#utility.yul\":4600:4636   */\n    tag_161:\n        /* \"#utility.yul\":4452:4643   */\n      swap3\n      swap2\n      pop\n      pop\n      jump\t// out\n        /* \"#utility.yul\":4649:4809   */\n    tag_98:\n        /* \"#utility.yul\":4789:4801   */\n      0x416d6f756e74203e203000000000000000000000000000000000000000000000\n        /* \"#utility.yul\":4785:4786   */\n      0x00\n        /* \"#utility.yul\":4777:4783   */\n      dup3\n        /* \"#utility.yul\":4773:4787   */\n      add\n        /* \"#utility.yul\":4766:4802   */\n      mstore\n        /* \"#utility.yul\":4649:4809   */\n      pop\n      jump\t// out\n        /* \"#utility.yul\":4815:5181   */\n    tag_99:\n        /* \"#utility.yul\":4957:4960   */\n      0x00\n        /* \"#utility.yul\":4978:5045   */\n      tag_165\n        /* \"#utility.yul\":5042:5044   */\n      0x0a\n        /* \"#utility.yul\":5037:5040   */\n      dup4\n        /* \"#utility.yul\":4978:5045   */\n      tag_94\n      jump\t// in\n    tag_165:\n        /* \"#utility.yul\":4971:5045   */\n      swap2\n      pop\n        /* \"#utility.yul\":5054:5147   */\n      tag_166\n        /* \"#utility.yul\":5143:5146   */\n      dup3\n        /* \"#utility.yul\":5054:5147   */\n      tag_98\n      jump\t// in\n    tag_166:\n        /* \"#utility.yul\":5172:5174   */\n      0x20\n        /* \"#utility.yul\":5167:5170   */\n      dup3\n        /* \"#utility.yul\":5163:5175   */\n      add\n        /* \"#utility.yul\":5156:5175   */\n      swap1\n      pop\n        /* \"#utility.yul\":4815:5181   */\n      swap2\n      swap1\n      pop\n      jump\t// out\n        /* \"#utility.yul\":5187:5606   */\n    tag_57:\n        /* \"#utility.yul\":5353:5357   */\n      0x00\n        /* \"#utility.yul\":5391:5393   */\n      0x20\n        /* \"#utility.yul\":5380:5389   */\n      dup3\n        /* \"#utility.yul\":5376:5394   */\n      add\n        /* \"#utility.yul\":5368:5394   */\n      swap1\n      pop\n        /* \"#utility.yul\":5440:5449   */\n      dup2\n        /* \"#utility.yul\":5434:5438   */\n      dup2\n        /* \"#utility.yul\":5430:5450   */\n      sub\n        /* \"#utility.yul\":5426:5427   */\n      0x00\n        /* \"#utility.yul\":5415:5424   */\n      dup4\n        /* \"#utility.yul\":5411:5428   */\n      add\n        /* \"#utility.yul\":5404:5451   */\n      mstore\n        /* \"#utility.yul\":5468:5599   */\n      tag_168\n        /* \"#utility.yul\":5594:5598   */\n      dup2\n        /* \"#utility.yul\":5468:5599   */\n      tag_99\n      jump\t// in\n    tag_168:\n        /* \"#utility.yul\":5460:5599   */\n      swap1\n      pop\n        /* \"#utility.yul\":5187:5606   */\n      swap2\n      swap1\n      pop\n      jump\t// out\n        /* \"#utility.yul\":5612:5782   */\n    tag_100:\n        /* \"#utility.yul\":5752:5774   */\n      0x496e73756666696369656e742062616c616e6365000000000000000000000000\n        /* \"#utility.yul\":5748:5749   */\n      0x00\n        /* \"#utility.yul\":5740:5746   */\n      dup3\n        /* \"#utility.yul\":5736:5750   */\n      add\n        /* \"#utility.yul\":5729:5775   */\n      mstore\n        /* \"#utility.yul\":5612:5782   */\n      pop\n      jump\t// out\n        /* \"#utility.yul\":5788:6154   */\n    tag_101:\n        /* \"#utility.yul\":5930:5933   */\n      0x00\n        /* \"#utility.yul\":5951:6018   */\n      tag_171\n        /* \"#utility.yul\":6015:6017   */\n      0x14\n        /* \"#utility.yul\":6010:6013   */\n      dup4\n        /* \"#utility.yul\":5951:6018   */\n      tag_94\n      jump\t// in\n    tag_171:\n        /* \"#utility.yul\":5944:6018   */\n      swap2\n      pop\n        /* \"#utility.yul\":6027:6120   */\n      tag_172\n        /* \"#utility.yul\":6116:6119   */\n      dup3\n        /* \"#utility.yul\":6027:6120   */\n      tag_100\n      jump\t// in\n    tag_172:\n        /* \"#utility.yul\":6145:6147   */\n      0x20\n        /* \"#utility.yul\":6140:6143   */\n      dup3\n        /* \"#utility.yul\":6136:6148   */\n      add\n        /* \"#utility.yul\":6129:6148   */\n      swap1\n      pop\n        /* \"#utility.yul\":5788:6154   */\n      swap2\n      swap1\n      pop\n      jump\t// out\n        /* \"#utility.yul\":6160:6579   */\n    tag_60:\n        /* \"#utility.yul\":6326:6330   */\n      0x00\n        /* \"#utility.yul\":6364:6366   */\n      0x20\n        /* \"#utility.yul\":6353:6362   */\n      dup3\n        /* \"#utility.yul\":6349:6367   */\n      add\n        /* \"#utility.yul\":6341:6367   */\n      swap1\n      pop\n        /* \"#utility.yul\":6413:6422   */\n      dup2\n        /* \"#utility.yul\":6407:6411   */\n      dup2\n        /* \"#utility.yul\":6403:6423   */\n      sub\n        /* \"#utility.yul\":6399:6400   */\n      0x00\n        /* \"#utility.yul\":6388:6397   */\n      dup4\n        /* \"#utility.yul\":6384:6401   */\n      add\n        /* \"#utility.yul\":6377:6424   */\n      mstore\n        /* \"#utility.yul\":6441:6572   */\n      tag_174\n        /* \"#utility.yul\":6567:6571   */\n      dup2\n        /* \"#utility.yul\":6441:6572   */\n      tag_101\n      jump\t// in\n    tag_174:\n        /* \"#utility.yul\":6433:6572   */\n      swap1\n      pop\n        /* \"#utility.yul\":6160:6579   */\n      swap2\n      swap1\n      pop\n      jump\t// out\n        /* \"#utility.yul\":6585:6779   */\n    tag_62:\n        /* \"#utility.yul\":6625:6629   */\n      0x00\n        /* \"#utility.yul\":6645:6665   */\n      tag_176\n        /* \"#utility.yul\":6663:6664   */\n      dup3\n        /* \"#utility.yul\":6645:6665   */\n      tag_81\n      jump\t// in\n    tag_176:\n        /* \"#utility.yul\":6640:6665   */\n      swap2\n      pop\n        /* \"#utility.yul\":6679:6699   */\n      tag_177\n        /* \"#utility.yul\":6697:6698   */\n      dup4\n        /* \"#utility.yul\":6679:6699   */\n      tag_81\n      jump\t// in\n    tag_177:\n        /* \"#utility.yul\":6674:6699   */\n      swap3\n      pop\n        /* \"#utility.yul\":6723:6724   */\n      dup3\n        /* \"#utility.yul\":6720:6721   */\n      dup3\n        /* \"#utility.yul\":6716:6725   */\n      sub\n        /* \"#utility.yul\":6708:6725   */\n      swap1\n      pop\n        /* \"#utility.yul\":6747:6748   */\n      dup2\n        /* \"#utility.yul\":6741:6745   */\n      dup2\n        /* \"#utility.yul\":6738:6749   */\n      gt\n        /* \"#utility.yul\":6735:6772   */\n      iszero\n      tag_178\n      jumpi\n        /* \"#utility.yul\":6752:6770   */\n      tag_179\n      tag_97\n      jump\t// in\n    tag_179:\n        /* \"#utility.yul\":6735:6772   */\n    tag_178:\n        /* \"#utility.yul\":6585:6779   */\n      swap3\n      swap2\n      pop\n      pop\n      jump\t// out\n        /* \"#utility.yul\":6785:6932   */\n    tag_102:\n        /* \"#utility.yul\":6886:6897   */\n      0x00\n        /* \"#utility.yul\":6923:6926   */\n      dup2\n        /* \"#utility.yul\":6908:6926   */\n      swap1\n      pop\n        /* \"#utility.yul\":6785:6932   */\n      swap3\n      swap2\n      pop\n      pop\n      jump\t// out\n        /* \"#utility.yul\":6938:7052   */\n    tag_103:\n      pop\n      jump\t// out\n        /* \"#utility.yul\":7058:7456   */\n    tag_104:\n        /* \"#utility.yul\":7217:7220   */\n      0x00\n        /* \"#utility.yul\":7238:7321   */\n      tag_183\n        /* \"#utility.yul\":7319:7320   */\n      0x00\n        /* \"#utility.yul\":7314:7317   */\n      dup4\n        /* \"#utility.yul\":7238:7321   */\n      tag_102\n      jump\t// in\n    tag_183:\n        /* \"#utility.yul\":7231:7321   */\n      swap2\n      pop\n        /* \"#utility.yul\":7330:7423   */\n      tag_184\n        /* \"#utility.yul\":7419:7422   */\n      dup3\n        /* \"#utility.yul\":7330:7423   */\n      tag_103\n      jump\t// in\n    tag_184:\n        /* \"#utility.yul\":7448:7449   */\n      0x00\n        /* \"#utility.yul\":7443:7446   */\n      dup3\n        /* \"#utility.yul\":7439:7450   */\n      add\n        /* \"#utility.yul\":7432:7450   */\n      swap1\n      pop\n        /* \"#utility.yul\":7058:7456   */\n      swap2\n      swap1\n      pop\n      jump\t// out\n        /* \"#utility.yul\":7462:7841   */\n    tag_69:\n        /* \"#utility.yul\":7646:7649   */\n      0x00\n        /* \"#utility.yul\":7668:7815   */\n      tag_186\n        /* \"#utility.yul\":7811:7814   */\n      dup3\n        /* \"#utility.yul\":7668:7815   */\n      tag_104\n      jump\t// in\n    tag_186:\n        /* \"#utility.yul\":7661:7815   */\n      swap2\n      pop\n        /* \"#utility.yul\":7832:7835   */\n      dup2\n        /* \"#utility.yul\":7825:7835   */\n      swap1\n      pop\n        /* \"#utility.yul\":7462:7841   */\n      swap2\n      swap1\n      pop\n      jump\t// out\n        /* \"#utility.yul\":7847:8016   */\n    tag_105:\n        /* \"#utility.yul\":7987:8008   */\n      0x455448207472616e73666572206661696c656400000000000000000000000000\n        /* \"#utility.yul\":7983:7984   */\n      0x00\n        /* \"#utility.yul\":7975:7981   */\n      dup3\n        /* \"#utility.yul\":7971:7985   */\n      add\n        /* \"#utility.yul\":7964:8009   */\n      mstore\n        /* \"#utility.yul\":7847:8016   */\n      pop\n      jump\t// out\n        /* \"#utility.yul\":8022:8388   */\n    tag_106:\n        /* \"#utility.yul\":8164:8167   */\n      0x00\n        /* \"#utility.yul\":8185:8252   */\n      tag_189\n        /* \"#utility.yul\":8249:8251   */\n      0x13\n        /* \"#utility.yul\":8244:8247   */\n      dup4\n        /* \"#utility.yul\":8185:8252   */\n      tag_94\n      jump\t// in\n    tag_189:\n        /* \"#utility.yul\":8178:8252   */\n      swap2\n      pop\n        /* \"#utility.yul\":8261:8354   */\n      tag_190\n        /* \"#utility.yul\":8350:8353   */\n      dup3\n        /* \"#utility.yul\":8261:8354   */\n      tag_105\n      jump\t// in\n    tag_190:\n        /* \"#utility.yul\":8379:8381   */\n      0x20\n        /* \"#utility.yul\":8374:8377   */\n      dup3\n        /* \"#utility.yul\":8370:8382   */\n      add\n        /* \"#utility.yul\":8363:8382   */\n      swap1\n      pop\n        /* \"#utility.yul\":8022:8388   */\n      swap2\n      swap1\n      pop\n      jump\t// out\n        /* \"#utility.yul\":8394:8813   */\n    tag_75:\n        /* \"#utility.yul\":8560:8564   */\n      0x00\n        /* \"#utility.yul\":8598:8600   */\n      0x20\n        /* \"#utility.yul\":8587:8596   */\n      dup3\n        /* \"#utility.yul\":8583:8601   */\n      add\n        /* \"#utility.yul\":8575:8601   */\n      swap1\n      pop\n        /* \"#utility.yul\":8647:8656   */\n      dup2\n        /* \"#utility.yul\":8641:8645   */\n      dup2\n        /* \"#utility.yul\":8637:8657   */\n      sub\n        /* \"#utility.yul\":8633:8634   */\n      0x00\n        /* \"#utility.yul\":8622:8631   */\n      dup4\n        /* \"#utility.yul\":8618:8635   */\n      add\n        /* \"#utility.yul\":8611:8658   */\n      mstore\n        /* \"#utility.yul\":8675:8806   */\n      tag_192\n        /* \"#utility.yul\":8801:8805   */\n      dup2\n        /* \"#utility.yul\":8675:8806   */\n      tag_106\n      jump\t// in\n    tag_192:\n        /* \"#utility.yul\":8667:8806   */\n      swap1\n      pop\n        /* \"#utility.yul\":8394:8813   */\n      swap2\n      swap1\n      pop\n      jump\t// out\n\n    auxdata: 0xa2646970667358221220104d739487d984d787fcea6d11405e451e3ad67851f03e192fa207aaca2e752964736f6c634300081f0033\n}\n",
				"bytecode": {
					"linkReferences": {},
					"object": "60a0604052348015600e575f5ffd5b5073420000000000000000000000000000000000000673ffffffffffffffffffffffffffffffffffffffff1660808173ffffffffffffffffffffffffffffffffffffffff1681525050608051610a3b61006f5f395f61057d0152610a3b5ff3fe608060405260043610610058575f3560e01c80632e17de78146100715780633a4b66f1146100995780633fc8cef3146100a357806370a08231146100cd578063817b1cd214610109578063f8b2cb4f1461013357610067565b366100675761006561016f565b005b61006f61016f565b005b34801561007c575f5ffd5b5061009760048036038101906100929190610635565b6102dc565b005b6100a161016f565b005b3480156100ae575f5ffd5b506100b761057b565b6040516100c491906106da565b60405180910390f35b3480156100d8575f5ffd5b506100f360048036038101906100ee919061072e565b61059f565b6040516101009190610768565b60405180910390f35b348015610114575f5ffd5b5061011d6105b3565b60405161012a9190610768565b60405180910390f35b34801561013e575f5ffd5b506101596004803603810190610154919061072e565b6105b9565b6040516101669190610768565b60405180910390f35b5f34116101b1576040517f08c379a00000000000000000000000000000000000000000000000000000000081526004016101a8906107db565b60405180910390fd5b73420000000000000000000000000000000000000673ffffffffffffffffffffffffffffffffffffffff1663d0e30db0346040518263ffffffff1660e01b81526004015f604051808303818588803b15801561020b575f5ffd5b505af115801561021d573d5f5f3e3d5ffd5b5050505050345f5f3373ffffffffffffffffffffffffffffffffffffffff1673ffffffffffffffffffffffffffffffffffffffff1681526020019081526020015f205f82825461026d9190610826565b925050819055503460015f8282546102859190610826565b925050819055503373ffffffffffffffffffffffffffffffffffffffff167f9e71bc8eea02a63969f509818f2dafb9254532904319f9dbda79b67bd34a5f3d346040516102d29190610768565b60405180910390a2565b5f811161031e576040517f08c379a0000000000000000000000000000000000000000000000000000000008152600401610315906108a3565b60405180910390fd5b805f5f3373ffffffffffffffffffffffffffffffffffffffff1673ffffffffffffffffffffffffffffffffffffffff1681526020019081526020015f2054101561039d576040517f08c379a00000000000000000000000000000000000000000000000000000000081526004016103949061090b565b60405180910390fd5b805f5f3373ffffffffffffffffffffffffffffffffffffffff1673ffffffffffffffffffffffffffffffffffffffff1681526020019081526020015f205f8282546103e89190610929565b925050819055508060015f8282546104009190610929565b9250508190555073420000000000000000000000000000000000000673ffffffffffffffffffffffffffffffffffffffff16632e1a7d4d826040518263ffffffff1660e01b81526004016104549190610768565b5f604051808303815f87803b15801561046b575f5ffd5b505af115801561047d573d5f5f3e3d5ffd5b505050505f3373ffffffffffffffffffffffffffffffffffffffff16826040516104a690610989565b5f6040518083038185875af1925050503d805f81146104e0576040519150601f19603f3d011682016040523d82523d5f602084013e6104e5565b606091505b5050905080610529576040517f08c379a0000000000000000000000000000000000000000000000000000000008152600401610520906109e7565b60405180910390fd5b3373ffffffffffffffffffffffffffffffffffffffff167f0f5bb82176feb1b5e747e28471aa92156a04d9f3ab9f45f28e2d704232b93f758360405161056f9190610768565b60405180910390a25050565b7f000000000000000000000000000000000000000000000000000000000000000081565b5f602052805f5260405f205f915090505481565b60015481565b5f5f5f8373ffffffffffffffffffffffffffffffffffffffff1673ffffffffffffffffffffffffffffffffffffffff1681526020019081526020015f20549050919050565b5f5ffd5b5f819050919050565b61061481610602565b811461061e575f5ffd5b50565b5f8135905061062f8161060b565b92915050565b5f6020828403121561064a576106496105fe565b5b5f61065784828501610621565b91505092915050565b5f73ffffffffffffffffffffffffffffffffffffffff82169050919050565b5f819050919050565b5f6106a261069d61069884610660565b61067f565b610660565b9050919050565b5f6106b382610688565b9050919050565b5f6106c4826106a9565b9050919050565b6106d4816106ba565b82525050565b5f6020820190506106ed5f8301846106cb565b92915050565b5f6106fd82610660565b9050919050565b61070d816106f3565b8114610717575f5ffd5b50565b5f8135905061072881610704565b92915050565b5f60208284031215610743576107426105fe565b5b5f6107508482850161071a565b91505092915050565b61076281610602565b82525050565b5f60208201905061077b5f830184610759565b92915050565b5f82825260208201905092915050565b7f4e6f204554482073656e740000000000000000000000000000000000000000005f82015250565b5f6107c5600b83610781565b91506107d082610791565b602082019050919050565b5f6020820190508181035f8301526107f2816107b9565b9050919050565b7f4e487b71000000000000000000000000000000000000000000000000000000005f52601160045260245ffd5b5f61083082610602565b915061083b83610602565b9250828201905080821115610853576108526107f9565b5b92915050565b7f416d6f756e74203e2030000000000000000000000000000000000000000000005f82015250565b5f61088d600a83610781565b915061089882610859565b602082019050919050565b5f6020820190508181035f8301526108ba81610881565b9050919050565b7f496e73756666696369656e742062616c616e63650000000000000000000000005f82015250565b5f6108f5601483610781565b9150610900826108c1565b602082019050919050565b5f6020820190508181035f830152610922816108e9565b9050919050565b5f61093382610602565b915061093e83610602565b9250828203905081811115610956576109556107f9565b5b92915050565b5f81905092915050565b50565b5f6109745f8361095c565b915061097f82610966565b5f82019050919050565b5f61099382610969565b9150819050919050565b7f455448207472616e73666572206661696c6564000000000000000000000000005f82015250565b5f6109d1601383610781565b91506109dc8261099d565b602082019050919050565b5f6020820190508181035f8301526109fe816109c5565b905091905056fea2646970667358221220104d739487d984d787fcea6d11405e451e3ad67851f03e192fa207aaca2e752964736f6c634300081f0033",
					"opcodes": "PUSH1 0xA0 PUSH1 0x40 MSTORE CALLVALUE DUP1 ISZERO PUSH1 0xE JUMPI PUSH0 PUSH0 REVERT JUMPDEST POP PUSH20 0x4200000000000000000000000000000000000006 PUSH20 0xFFFFFFFFFFFFFFFFFFFFFFFFFFFFFFFFFFFFFFFF AND PUSH1 0x80 DUP2 PUSH20 0xFFFFFFFFFFFFFFFFFFFFFFFFFFFFFFFFFFFFFFFF AND DUP2 MSTORE POP POP PUSH1 0x80 MLOAD PUSH2 0xA3B PUSH2 0x6F PUSH0 CODECOPY PUSH0 PUSH2 0x57D ADD MSTORE PUSH2 0xA3B PUSH0 RETURN INVALID PUSH1 0x80 PUSH1 0x40 MSTORE PUSH1 0x4 CALLDATASIZE LT PUSH2 0x58 JUMPI PUSH0 CALLDATALOAD PUSH1 0xE0 SHR DUP1 PUSH4 0x2E17DE78 EQ PUSH2 0x71 JUMPI DUP1 PUSH4 0x3A4B66F1 EQ PUSH2 0x99 JUMPI DUP1 PUSH4 0x3FC8CEF3 EQ PUSH2 0xA3 JUMPI DUP1 PUSH4 0x70A08231 EQ PUSH2 0xCD JUMPI DUP1 PUSH4 0x817B1CD2 EQ PUSH2 0x109 JUMPI DUP1 PUSH4 0xF8B2CB4F EQ PUSH2 0x133 JUMPI PUSH2 0x67 JUMP JUMPDEST CALLDATASIZE PUSH2 0x67 JUMPI PUSH2 0x65 PUSH2 0x16F JUMP JUMPDEST STOP JUMPDEST PUSH2 0x6F PUSH2 0x16F JUMP JUMPDEST STOP JUMPDEST CALLVALUE DUP1 ISZERO PUSH2 0x7C JUMPI PUSH0 PUSH0 REVERT JUMPDEST POP PUSH2 0x97 PUSH1 0x4 DUP1 CALLDATASIZE SUB DUP2 ADD SWAP1 PUSH2 0x92 SWAP2 SWAP1 PUSH2 0x635 JUMP JUMPDEST PUSH2 0x2DC JUMP JUMPDEST STOP JUMPDEST PUSH2 0xA1 PUSH2 0x16F JUMP JUMPDEST STOP JUMPDEST CALLVALUE DUP1 ISZERO PUSH2 0xAE JUMPI PUSH0 PUSH0 REVERT JUMPDEST POP PUSH2 0xB7 PUSH2 0x57B JUMP JUMPDEST PUSH1 0x40 MLOAD PUSH2 0xC4 SWAP2 SWAP1 PUSH2 0x6DA JUMP JUMPDEST PUSH1 0x40 MLOAD DUP1 SWAP2 SUB SWAP1 RETURN JUMPDEST CALLVALUE DUP1 ISZERO PUSH2 0xD8 JUMPI PUSH0 PUSH0 REVERT JUMPDEST POP PUSH2 0xF3 PUSH1 0x4 DUP1 CALLDATASIZE SUB DUP2 ADD SWAP1 PUSH2 0xEE SWAP2 SWAP1 PUSH2 0x72E JUMP JUMPDEST PUSH2 0x59F JUMP JUMPDEST PUSH1 0x40 MLOAD PUSH2 0x100 SWAP2 SWAP1 PUSH2 0x768 JUMP JUMPDEST PUSH1 0x40 MLOAD DUP1 SWAP2 SUB SWAP1 RETURN JUMPDEST CALLVALUE DUP1 ISZERO PUSH2 0x114 JUMPI PUSH0 PUSH0 REVERT JUMPDEST POP PUSH2 0x11D PUSH2 0x5B3 JUMP JUMPDEST PUSH1 0x40 MLOAD PUSH2 0x12A SWAP2 SWAP1 PUSH2 0x768 JUMP JUMPDEST PUSH1 0x40 MLOAD DUP1 SWAP2 SUB SWAP1 RETURN JUMPDEST CALLVALUE DUP1 ISZERO PUSH2 0x13E JUMPI PUSH0 PUSH0 REVERT JUMPDEST POP PUSH2 0x159 PUSH1 0x4 DUP1 CALLDATASIZE SUB DUP2 ADD SWAP1 PUSH2 0x154 SWAP2 SWAP1 PUSH2 0x72E JUMP JUMPDEST PUSH2 0x5B9 JUMP JUMPDEST PUSH1 0x40 MLOAD PUSH2 0x166 SWAP2 SWAP1 PUSH2 0x768 JUMP JUMPDEST PUSH1 0x40 MLOAD DUP1 SWAP2 SUB SWAP1 RETURN JUMPDEST PUSH0 CALLVALUE GT PUSH2 0x1B1 JUMPI PUSH1 0x40 MLOAD PUSH32 0x8C379A000000000000000000000000000000000000000000000000000000000 DUP2 MSTORE PUSH1 0x4 ADD PUSH2 0x1A8 SWAP1 PUSH2 0x7DB JUMP JUMPDEST PUSH1 0x40 MLOAD DUP1 SWAP2 SUB SWAP1 REVERT JUMPDEST PUSH20 0x4200000000000000000000000000000000000006 PUSH20 0xFFFFFFFFFFFFFFFFFFFFFFFFFFFFFFFFFFFFFFFF AND PUSH4 0xD0E30DB0 CALLVALUE PUSH1 0x40 MLOAD DUP3 PUSH4 0xFFFFFFFF AND PUSH1 0xE0 SHL DUP2 MSTORE PUSH1 0x4 ADD PUSH0 PUSH1 0x40 MLOAD DUP1 DUP4 SUB DUP2 DUP6 DUP9 DUP1 EXTCODESIZE ISZERO DUP1 ISZERO PUSH2 0x20B JUMPI PUSH0 PUSH0 REVERT JUMPDEST POP GAS CALL ISZERO DUP1 ISZERO PUSH2 0x21D JUMPI RETURNDATASIZE PUSH0 PUSH0 RETURNDATACOPY RETURNDATASIZE PUSH0 REVERT JUMPDEST POP POP POP POP POP CALLVALUE PUSH0 PUSH0 CALLER PUSH20 0xFFFFFFFFFFFFFFFFFFFFFFFFFFFFFFFFFFFFFFFF AND PUSH20 0xFFFFFFFFFFFFFFFFFFFFFFFFFFFFFFFFFFFFFFFF AND DUP2 MSTORE PUSH1 0x20 ADD SWAP1 DUP2 MSTORE PUSH1 0x20 ADD PUSH0 KECCAK256 PUSH0 DUP3 DUP3 SLOAD PUSH2 0x26D SWAP2 SWAP1 PUSH2 0x826 JUMP JUMPDEST SWAP3 POP POP DUP2 SWAP1 SSTORE POP CALLVALUE PUSH1 0x1 PUSH0 DUP3 DUP3 SLOAD PUSH2 0x285 SWAP2 SWAP1 PUSH2 0x826 JUMP JUMPDEST SWAP3 POP POP DUP2 SWAP1 SSTORE POP CALLER PUSH20 0xFFFFFFFFFFFFFFFFFFFFFFFFFFFFFFFFFFFFFFFF AND PUSH32 0x9E71BC8EEA02A63969F509818F2DAFB9254532904319F9DBDA79B67BD34A5F3D CALLVALUE PUSH1 0x40 MLOAD PUSH2 0x2D2 SWAP2 SWAP1 PUSH2 0x768 JUMP JUMPDEST PUSH1 0x40 MLOAD DUP1 SWAP2 SUB SWAP1 LOG2 JUMP JUMPDEST PUSH0 DUP2 GT PUSH2 0x31E JUMPI PUSH1 0x40 MLOAD PUSH32 0x8C379A000000000000000000000000000000000000000000000000000000000 DUP2 MSTORE PUSH1 0x4 ADD PUSH2 0x315 SWAP1 PUSH2 0x8A3 JUMP JUMPDEST PUSH1 0x40 MLOAD DUP1 SWAP2 SUB SWAP1 REVERT JUMPDEST DUP1 PUSH0 PUSH0 CALLER PUSH20 0xFFFFFFFFFFFFFFFFFFFFFFFFFFFFFFFFFFFFFFFF AND PUSH20 0xFFFFFFFFFFFFFFFFFFFFFFFFFFFFFFFFFFFFFFFF AND DUP2 MSTORE PUSH1 0x20 ADD SWAP1 DUP2 MSTORE PUSH1 0x20 ADD PUSH0 KECCAK256 SLOAD LT ISZERO PUSH2 0x39D JUMPI PUSH1 0x40 MLOAD PUSH32 0x8C379A000000000000000000000000000000000000000000000000000000000 DUP2 MSTORE PUSH1 0x4 ADD PUSH2 0x394 SWAP1 PUSH2 0x90B JUMP JUMPDEST PUSH1 0x40 MLOAD DUP1 SWAP2 SUB SWAP1 REVERT JUMPDEST DUP1 PUSH0 PUSH0 CALLER PUSH20 0xFFFFFFFFFFFFFFFFFFFFFFFFFFFFFFFFFFFFFFFF AND PUSH20 0xFFFFFFFFFFFFFFFFFFFFFFFFFFFFFFFFFFFFFFFF AND DUP2 MSTORE PUSH1 0x20 ADD SWAP1 DUP2 MSTORE PUSH1 0x20 ADD PUSH0 KECCAK256 PUSH0 DUP3 DUP3 SLOAD PUSH2 0x3E8 SWAP2 SWAP1 PUSH2 0x929 JUMP JUMPDEST SWAP3 POP POP DUP2 SWAP1 SSTORE POP DUP1 PUSH1 0x1 PUSH0 DUP3 DUP3 SLOAD PUSH2 0x400 SWAP2 SWAP1 PUSH2 0x929 JUMP JUMPDEST SWAP3 POP POP DUP2 SWAP1 SSTORE POP PUSH20 0x4200000000000000000000000000000000000006 PUSH20 0xFFFFFFFFFFFFFFFFFFFFFFFFFFFFFFFFFFFFFFFF AND PUSH4 0x2E1A7D4D DUP3 PUSH1 0x40 MLOAD DUP3 PUSH4 0xFFFFFFFF AND PUSH1 0xE0 SHL DUP2 MSTORE PUSH1 0x4 ADD PUSH2 0x454 SWAP2 SWAP1 PUSH2 0x768 JUMP JUMPDEST PUSH0 PUSH1 0x40 MLOAD DUP1 DUP4 SUB DUP2 PUSH0 DUP8 DUP1 EXTCODESIZE ISZERO DUP1 ISZERO PUSH2 0x46B JUMPI PUSH0 PUSH0 REVERT JUMPDEST POP GAS CALL ISZERO DUP1 ISZERO PUSH2 0x47D JUMPI RETURNDATASIZE PUSH0 PUSH0 RETURNDATACOPY RETURNDATASIZE PUSH0 REVERT JUMPDEST POP POP POP POP PUSH0 CALLER PUSH20 0xFFFFFFFFFFFFFFFFFFFFFFFFFFFFFFFFFFFFFFFF AND DUP3 PUSH1 0x40 MLOAD PUSH2 0x4A6 SWAP1 PUSH2 0x989 JUMP JUMPDEST PUSH0 PUSH1 0x40 MLOAD DUP1 DUP4 SUB DUP2 DUP6 DUP8 GAS CALL SWAP3 POP POP POP RETURNDATASIZE DUP1 PUSH0 DUP2 EQ PUSH2 0x4E0 JUMPI PUSH1 0x40 MLOAD SWAP2 POP PUSH1 0x1F NOT PUSH1 0x3F RETURNDATASIZE ADD AND DUP3 ADD PUSH1 0x40 MSTORE RETURNDATASIZE DUP3 MSTORE RETURNDATASIZE PUSH0 PUSH1 0x20 DUP5 ADD RETURNDATACOPY PUSH2 0x4E5 JUMP JUMPDEST PUSH1 0x60 SWAP2 POP JUMPDEST POP POP SWAP1 POP DUP1 PUSH2 0x529 JUMPI PUSH1 0x40 MLOAD PUSH32 0x8C379A000000000000000000000000000000000000000000000000000000000 DUP2 MSTORE PUSH1 0x4 ADD PUSH2 0x520 SWAP1 PUSH2 0x9E7 JUMP JUMPDEST PUSH1 0x40 MLOAD DUP1 SWAP2 SUB SWAP1 REVERT JUMPDEST CALLER PUSH20 0xFFFFFFFFFFFFFFFFFFFFFFFFFFFFFFFFFFFFFFFF AND PUSH32 0xF5BB82176FEB1B5E747E28471AA92156A04D9F3AB9F45F28E2D704232B93F75 DUP4 PUSH1 0x40 MLOAD PUSH2 0x56F SWAP2 SWAP1 PUSH2 0x768 JUMP JUMPDEST PUSH1 0x40 MLOAD DUP1 SWAP2 SUB SWAP1 LOG2 POP POP JUMP JUMPDEST PUSH32 0x0 DUP2 JUMP JUMPDEST PUSH0 PUSH1 0x20 MSTORE DUP1 PUSH0 MSTORE PUSH1 0x40 PUSH0 KECCAK256 PUSH0 SWAP2 POP SWAP1 POP SLOAD DUP2 JUMP JUMPDEST PUSH1 0x1 SLOAD DUP2 JUMP JUMPDEST PUSH0 PUSH0 PUSH0 DUP4 PUSH20 0xFFFFFFFFFFFFFFFFFFFFFFFFFFFFFFFFFFFFFFFF AND PUSH20 0xFFFFFFFFFFFFFFFFFFFFFFFFFFFFFFFFFFFFFFFF AND DUP2 MSTORE PUSH1 0x20 ADD SWAP1 DUP2 MSTORE PUSH1 0x20 ADD PUSH0 KECCAK256 SLOAD SWAP1 POP SWAP2 SWAP1 POP JUMP JUMPDEST PUSH0 PUSH0 REVERT JUMPDEST PUSH0 DUP2 SWAP1 POP SWAP2 SWAP1 POP JUMP JUMPDEST PUSH2 0x614 DUP2 PUSH2 0x602 JUMP JUMPDEST DUP2 EQ PUSH2 0x61E JUMPI PUSH0 PUSH0 REVERT JUMPDEST POP JUMP JUMPDEST PUSH0 DUP2 CALLDATALOAD SWAP1 POP PUSH2 0x62F DUP2 PUSH2 0x60B JUMP JUMPDEST SWAP3 SWAP2 POP POP JUMP JUMPDEST PUSH0 PUSH1 0x20 DUP3 DUP5 SUB SLT ISZERO PUSH2 0x64A JUMPI PUSH2 0x649 PUSH2 0x5FE JUMP JUMPDEST JUMPDEST PUSH0 PUSH2 0x657 DUP5 DUP3 DUP6 ADD PUSH2 0x621 JUMP JUMPDEST SWAP2 POP POP SWAP3 SWAP2 POP POP JUMP JUMPDEST PUSH0 PUSH20 0xFFFFFFFFFFFFFFFFFFFFFFFFFFFFFFFFFFFFFFFF DUP3 AND SWAP1 POP SWAP2 SWAP1 POP JUMP JUMPDEST PUSH0 DUP2 SWAP1 POP SWAP2 SWAP1 POP JUMP JUMPDEST PUSH0 PUSH2 0x6A2 PUSH2 0x69D PUSH2 0x698 DUP5 PUSH2 0x660 JUMP JUMPDEST PUSH2 0x67F JUMP JUMPDEST PUSH2 0x660 JUMP JUMPDEST SWAP1 POP SWAP2 SWAP1 POP JUMP JUMPDEST PUSH0 PUSH2 0x6B3 DUP3 PUSH2 0x688 JUMP JUMPDEST SWAP1 POP SWAP2 SWAP1 POP JUMP JUMPDEST PUSH0 PUSH2 0x6C4 DUP3 PUSH2 0x6A9 JUMP JUMPDEST SWAP1 POP SWAP2 SWAP1 POP JUMP JUMPDEST PUSH2 0x6D4 DUP2 PUSH2 0x6BA JUMP JUMPDEST DUP3 MSTORE POP POP JUMP JUMPDEST PUSH0 PUSH1 0x20 DUP3 ADD SWAP1 POP PUSH2 0x6ED PUSH0 DUP4 ADD DUP5 PUSH2 0x6CB JUMP JUMPDEST SWAP3 SWAP2 POP POP JUMP JUMPDEST PUSH0 PUSH2 0x6FD DUP3 PUSH2 0x660 JUMP JUMPDEST SWAP1 POP SWAP2 SWAP1 POP JUMP JUMPDEST PUSH2 0x70D DUP2 PUSH2 0x6F3 JUMP JUMPDEST DUP2 EQ PUSH2 0x717 JUMPI PUSH0 PUSH0 REVERT JUMPDEST POP JUMP JUMPDEST PUSH0 DUP2 CALLDATALOAD SWAP1 POP PUSH2 0x728 DUP2 PUSH2 0x704 JUMP JUMPDEST SWAP3 SWAP2 POP POP JUMP JUMPDEST PUSH0 PUSH1 0x20 DUP3 DUP5 SUB SLT ISZERO PUSH2 0x743 JUMPI PUSH2 0x742 PUSH2 0x5FE JUMP JUMPDEST JUMPDEST PUSH0 PUSH2 0x750 DUP5 DUP3 DUP6 ADD PUSH2 0x71A JUMP JUMPDEST SWAP2 POP POP SWAP3 SWAP2 POP POP JUMP JUMPDEST PUSH2 0x762 DUP2 PUSH2 0x602 JUMP JUMPDEST DUP3 MSTORE POP POP JUMP JUMPDEST PUSH0 PUSH1 0x20 DUP3 ADD SWAP1 POP PUSH2 0x77B PUSH0 DUP4 ADD DUP5 PUSH2 0x759 JUMP JUMPDEST SWAP3 SWAP2 POP POP JUMP JUMPDEST PUSH0 DUP3 DUP3 MSTORE PUSH1 0x20 DUP3 ADD SWAP1 POP SWAP3 SWAP2 POP POP JUMP JUMPDEST PUSH32 0x4E6F204554482073656E74000000000000000000000000000000000000000000 PUSH0 DUP3 ADD MSTORE POP JUMP JUMPDEST PUSH0 PUSH2 0x7C5 PUSH1 0xB DUP4 PUSH2 0x781 JUMP JUMPDEST SWAP2 POP PUSH2 0x7D0 DUP3 PUSH2 0x791 JUMP JUMPDEST PUSH1 0x20 DUP3 ADD SWAP1 POP SWAP2 SWAP1 POP JUMP JUMPDEST PUSH0 PUSH1 0x20 DUP3 ADD SWAP1 POP DUP2 DUP2 SUB PUSH0 DUP4 ADD MSTORE PUSH2 0x7F2 DUP2 PUSH2 0x7B9 JUMP JUMPDEST SWAP1 POP SWAP2 SWAP1 POP JUMP JUMPDEST PUSH32 0x4E487B7100000000000000000000000000000000000000000000000000000000 PUSH0 MSTORE PUSH1 0x11 PUSH1 0x4 MSTORE PUSH1 0x24 PUSH0 REVERT JUMPDEST PUSH0 PUSH2 0x830 DUP3 PUSH2 0x602 JUMP JUMPDEST SWAP2 POP PUSH2 0x83B DUP4 PUSH2 0x602 JUMP JUMPDEST SWAP3 POP DUP3 DUP3 ADD SWAP1 POP DUP1 DUP3 GT ISZERO PUSH2 0x853 JUMPI PUSH2 0x852 PUSH2 0x7F9 JUMP JUMPDEST JUMPDEST SWAP3 SWAP2 POP POP JUMP JUMPDEST PUSH32 0x416D6F756E74203E203000000000000000000000000000000000000000000000 PUSH0 DUP3 ADD MSTORE POP JUMP JUMPDEST PUSH0 PUSH2 0x88D PUSH1 0xA DUP4 PUSH2 0x781 JUMP JUMPDEST SWAP2 POP PUSH2 0x898 DUP3 PUSH2 0x859 JUMP JUMPDEST PUSH1 0x20 DUP3 ADD SWAP1 POP SWAP2 SWAP1 POP JUMP JUMPDEST PUSH0 PUSH1 0x20 DUP3 ADD SWAP1 POP DUP2 DUP2 SUB PUSH0 DUP4 ADD MSTORE PUSH2 0x8BA DUP2 PUSH2 0x881 JUMP JUMPDEST SWAP1 POP SWAP2 SWAP1 POP JUMP JUMPDEST PUSH32 0x496E73756666696369656E742062616C616E6365000000000000000000000000 PUSH0 DUP3 ADD MSTORE POP JUMP JUMPDEST PUSH0 PUSH2 0x8F5 PUSH1 0x14 DUP4 PUSH2 0x781 JUMP JUMPDEST SWAP2 POP PUSH2 0x900 DUP3 PUSH2 0x8C1 JUMP JUMPDEST PUSH1 0x20 DUP3 ADD SWAP1 POP SWAP2 SWAP1 POP JUMP JUMPDEST PUSH0 PUSH1 0x20 DUP3 ADD SWAP1 POP DUP2 DUP2 SUB PUSH0 DUP4 ADD MSTORE PUSH2 0x922 DUP2 PUSH2 0x8E9 JUMP JUMPDEST SWAP1 POP SWAP2 SWAP1 POP JUMP JUMPDEST PUSH0 PUSH2 0x933 DUP3 PUSH2 0x602 JUMP JUMPDEST SWAP2 POP PUSH2 0x93E DUP4 PUSH2 0x602 JUMP JUMPDEST SWAP3 POP DUP3 DUP3 SUB SWAP1 POP DUP2 DUP2 GT ISZERO PUSH2 0x956 JUMPI PUSH2 0x955 PUSH2 0x7F9 JUMP JUMPDEST JUMPDEST SWAP3 SWAP2 POP POP JUMP JUMPDEST PUSH0 DUP2 SWAP1 POP SWAP3 SWAP2 POP POP JUMP JUMPDEST POP JUMP JUMPDEST PUSH0 PUSH2 0x974 PUSH0 DUP4 PUSH2 0x95C JUMP JUMPDEST SWAP2 POP PUSH2 0x97F DUP3 PUSH2 0x966 JUMP JUMPDEST PUSH0 DUP3 ADD SWAP1 POP SWAP2 SWAP1 POP JUMP JUMPDEST PUSH0 PUSH2 0x993 DUP3 PUSH2 0x969 JUMP JUMPDEST SWAP2 POP DUP2 SWAP1 POP SWAP2 SWAP1 POP JUMP JUMPDEST PUSH32 0x455448207472616E73666572206661696C656400000000000000000000000000 PUSH0 DUP3 ADD MSTORE POP JUMP JUMPDEST PUSH0 PUSH2 0x9D1 PUSH1 0x13 DUP4 PUSH2 0x781 JUMP JUMPDEST SWAP2 POP PUSH2 0x9DC DUP3 PUSH2 0x99D JUMP JUMPDEST PUSH1 0x20 DUP3 ADD SWAP1 POP SWAP2 SWAP1 POP JUMP JUMPDEST PUSH0 PUSH1 0x20 DUP3 ADD SWAP1 POP DUP2 DUP2 SUB PUSH0 DUP4 ADD MSTORE PUSH2 0x9FE DUP2 PUSH2 0x9C5 JUMP JUMPDEST SWAP1 POP SWAP2 SWAP1 POP JUMP INVALID LOG2 PUSH5 0x6970667358 0x22 SLT KECCAK256 LT 0x4D PUSH20 0x9487D984D787FCEA6D11405E451E3AD67851F03E NOT 0x2F LOG2 SMOD 0xAA 0xCA 0x2E PUSH22 0x2964736F6C634300081F003300000000000000000000 "
				},
				"gasEstimates": {
					"creation": {
						"codeDepositCost": "523800",
						"executionCost": "infinite",
						"totalCost": "infinite"
					},
					"external": {
						"": "infinite",
						"balanceOf(address)": "2845",
						"getBalance(address)": "2916",
						"stake()": "infinite",
						"totalStaked()": "2491",
						"unstake(uint256)": "infinite",
						"weth()": "infinite"
					}
				},
				"methodIdentifiers": {
					"balanceOf(address)": "70a08231",
					"getBalance(address)": "f8b2cb4f",
					"stake()": "3a4b66f1",
					"totalStaked()": "817b1cd2",
					"unstake(uint256)": "2e17de78",
					"weth()": "3fc8cef3"
				}
			},
			"storageLayout": {
				"storage": [
					{
						"astId": 683,
						"contract": "stakbase/stakesimple.sol:SimpleETHStaking",
						"label": "balanceOf",
						"offset": 0,
						"slot": "0",
						"type": "t_mapping(t_address,t_uint256)"
					},
					{
						"astId": 685,
						"contract": "stakbase/stakesimple.sol:SimpleETHStaking",
						"label": "totalStaked",
						"offset": 0,
						"slot": "1",
						"type": "t_uint256"
					}
				],
				"types": {
					"t_address": {
						"encoding": "inplace",
						"label": "address",
						"numberOfBytes": "20"
					},
					"t_mapping(t_address,t_uint256)": {
						"encoding": "mapping",
						"key": "t_address",
						"label": "mapping(address => uint256)",
						"numberOfBytes": "32",
						"value": "t_uint256"
					},
					"t_uint256": {
						"encoding": "inplace",
						"label": "uint256",
						"numberOfBytes": "32"
					}
				}
			},
			"userdoc": {
				"kind": "user",
				"methods": {},
				"version": 1
			}
		}
	}
}